:020000022000DC
:1060000000000120B5620200DD620200DF620200D2
:10601000E1620200E3620200E562020000000000AB
:10602000000000000000000000000000E762020025
:10603000E962020000000000EB620200ED62020073
:10604000C18C0200EF62020001960200EF620200C2
:10605000EF620200EF620200B9900200EF620200FC
:10606000EF620200EF620200EF620200EF620200E4
:10607000EF620200EF620200EF620200EF620200D4
:10608000EF620200BD720200EF620200EF620200E6
:106090005D730200EF62020069B50200EF62020068
:1060A000EF620200EF620200EF620200EF620200A4
:1060B000EF620200EF62020000000000000000003A
:1060C000EF620200EF620200EF620200EF62020084
:1060D000EF620200EF620200EF62020000000000C7
:1060E00000000000000000000000000000000000B0
:1060F00000000000000000000000000000000000A0
:10610000000000000000000000000000000000008F
:10611000000000000000000000000000000000007F
:10612000000000000000000000000000000000006F
:10613000000000000000000000000000000000005F
:10614000000000000000000000000000000000004F
:10615000000000000000000000000000000000003F
:10616000000000000000000000000000000000002F
:10617000000000000000000000000000000000001F
:10618000000000000000000000000000000000000F
:1061900000000000000000000000000000000000FF
:1061A00000000000000000000000000000000000EF
:1061B00000000000000000000000000000000000DF
:1061C00000000000000000000000000000000000CF
:1061D00000000000000000000000000000000000BF
:1061E00000000000000000000000000000000000AF
:1061F000000000000000000000000000000000009F
:1062000010B5054C237833B9044B13B10448AFF3F0
:1062100000800123237010BDD02400200000000066
:1062200000C6020008B5034B1BB103490348AFF396
:10623000008008BD00000000D424002000C6020039
:10624000154B002B08BF134B9D46A3F5803A002148
:106250008B460F461348144A121A05F062FB0F4B87
:10626000002B00D098470E4B002B00D09847002001
:10627000002104000D000D48002802D00C48AFF3A7
:10628000008005F0FFFA2000290003F0A9FF05F0C7
:10629000E5FA00BF00000800000001200000000037
:1062A00000000000D0240020642E00200000000028
:1062B000000000000649074A074B9B1A03DD043B18
:1062C000C858D050FBDC02F0B5F9FFF7B9FF000069
:1062D000E0C60200B8220020D0240020FEE7FEE73E
:1062E000FEE7FEE7FEE7FEE7FEE7FEE7FEE7FEE786
:1062F000F0B595B0002415460F4608461E4602F03C
:1063000071F8384623460895082205A91A9D099672
:106310000D950A948DF82C400C9402F0BDF89DF870
:1063200014308DF81140DDE9061003F00302012A54
:10633000CDE9020127D0022A04D0384602F056F8EF
:1063400015B0F0BDBDF81650C3F3C2038DF8103080
:10635000AD090826082D2C4628BF082433462246BE
:106360000EA9384602F098F82D1B214608AB02AA68
:106370000EA8264400F03EFD002DEBD1384602F079
:1063800035F815B0F0BDBDF81460059DC6F3831651
:10639000C3F3C204B2000EA9384608238DF810409A
:1063A000C5F3952502F078F808AB324628460EA9C9
:1063B000009302AB00F078FC384602F017F815B0F5
:1063C000F0BD00BF014B01221A707047302500203C
:1063D000704700BF00B583B0044B0093044A4023CC
:1063E000FFF786FF03B05DF804FB00BFF563020012
:1063F000F024002038B50E480E4D03780E4CEB5CAF
:106400000025D2B2257053B90C3003F03FFB58B9C8
:106410000A4B1B7813B12378002BFCD038BD043015
:1064200003F06CFD0028F3D000F000FFF0E700BFA0
:10643000B8220020602E002030250020EC2400200F
:1064400070B51348134A0378D35C88B0DBB90C30BD
:1064500003F0B6FA104D0FCD6C460FC495E80F004F
:1064600008AD062645F8206D84E80F002946002275
:10647000074802F0B9FB08B100F0D8FE074B002234
:106480001A7008B070BD043003F0D0FCE2E700BF22
:10649000B8220020602E002078B90200EC240020F1
:1064A00070B50D4D0FCD88B06C460FC495E80F0048
:1064B00008AD062645F8206D84E80F002946074AF6
:1064C000074802F091FB08B100F0B0FE054B012235
:1064D0001A7008B070BD00BF78B90200C563020031
:1064E000B8220020EC24002008B5FFF7D9FF0421D2
:1064F000034800F08FFB034B01225A7108BD00BF17
:10650000C8C60200CC220020F0B5324C85B004F59C
:10651000836001F079FA04F2144001F075FAD4E9CD
:10652000013703EA0702D01C04EB800114F82000B5
:1065300010F0040044D003F1020C0E7806F00306BC
:10654000012E654635D0022E02F1030621D004EB60
:1065500086010028F1D104EB82020133D268019256
:106560003B4004EB830302F00302012ADE6829D0DA
:10657000022A23D1BDF806309B090333360C05EB04
:106580009305154801F04CFA00B16560304605B03E
:10659000F0BD4B880CEB931307EA0302D11C03F107
:1065A000020C14F82100654604EB810100F00400A0
:1065B000CFE70B88C3F383136344EDE70026E0E7DE
:1065C0009D1CC8E7BDF80430C3F38313360C1D448B
:1065D000D7E700BF04260020182A00200B4B0C48E8
:1065E00010B50022FF21C3F818249960C3E90022E6
:1065F000C3F8142483F8202401F0B0FE044610B937
:10660000044801F0BDFF204610BD00BF0426002055
:1066100054C60200B8B9020021B9124B03EBC00006
:1066200000687047104A0F49521AD20815D030B48A
:106630000E4D2B88834212D0002303E035F823400F
:10664000844205D001339A42F8D1002030BC704713
:1066500001EBC300006830BC704710467047084625
:10666000F8E700BF68C60200C8C60200CC240020BC
:10667000094B013903EBC00003290BD8DFE801F017
:10668000020806040220704740797047007970477D
:10669000042070470020704768C602002DE9F043CF
:1066A00083B002AB002203F8012DDFF8DC9007462F
:1066B00018468846D9F8084001F010F9D9E90132A6
:1066C000D9F80060134401339B1B012B58D809F201
:1066D0001C450121284601F07FF9FFF715FF01460F
:1066E000284601F079F9D9E90132D9F800101344AC
:1066F00001335B1A012BECD90A4003320523023126
:106700009DF8070049F82230C9F8001001F00CF993
:1067100000211C4801F03EF980F31000731C234057
:1067200009EB830300043440033440EA1740D86087
:1067300019F8243067F3C50309F8243039F82430F8
:106740006FF3891329F8243059F8242068F39F2225
:106750001346012161F301036FF3820349F82420FA
:1067600009F8243099F820341BB906E000F00EF83F
:1067700018B1D9E900329A42F8D103B0BDE8F083EC
:106780003146B9E7202A0020042600202DE9F047F1
:10679000934C002384B0C4F81834BFF34F8FD4E96E
:1067A000015605EA0602D31C04EB830114F82330DA
:1067B000580719D527680B7803F00303012B43D042
:1067C000022B03D14B88023505EB931506EA05022F
:1067D000D4F81804D31C04EB830128B9AF4239D98B
:1067E00014F823305B07E6D404EB82026B1CD268FA
:1067F0000192334004EB830302F00302DB6802934F
:10680000022A05F1020700F08D80012A26D0D4F873
:1068100010543DB12B6828469B689847EB681D686B
:10682000002DF7D16F48704B7049C01AC0080004A2
:1068300040F00200FFF732FFD4E90030C01A18BF61
:10684000012004B0BDE8F0870B880235C3F3831341
:106850001D44BBE7676004B0BDE8F087BDF80420C5
:106860006348C2F38313062B28BF062363F3891200
:1068700002339900ADF8042001F072FD8046002833
:10688000C5D001F0AFFD0023082201A9404601F068
:10689000CFFDBDF8043013F4707F00F09F806FF0DF
:1068A000010AAAEB050A082506EA070103312B466F
:1068B000042204EB8101404601F0BAFDBDF804302A
:1068C00007F101090AEB0902C3F3831393424F4610
:1068D00005F10405E8D8D4F81834002B68D1D4F8B1
:1068E000105465B1EB685A7928464146002A5BD0BE
:1068F0002B681B689847EB681D68002DF2D1404655
:1069000001F074FD04A8002300F80D3D00F0E6FF3F
:10691000D4F818340BB9C4F804909DF8030001F0C2
:1069200003F889E7BDF8063031484FEA93194D4620
:10693000502D28BF502565F38F1305F10801ADF8E0
:10694000063001F00DFD804600283FF460AF26EAD6
:10695000070A0AF1010A01F045FD4FEA8A0A0023FD
:10696000082201A9404601F063FD55452BD9EBB241
:10697000BAF1000F20D006EA0701A3EB0A030331A6
:1069800004EB8101DDB252460823404601F050FD80
:106990002A460AF108031749404601F049FD09F16A
:1069A000030907EB990996E71D68002D9AD1A6E720
:1069B000404601F01BFD3FE72A4608230D494046AB
:1069C00001F036FDEBE706EA0701033104EB810134
:1069D0002A460823404601F02BFDE0E7B9467AE756
:1069E0000426002090C6020068C60200C4B9020056
:1069F00054C60200102600202DE9F04782B002ABF9
:106A0000002403F8014DDFF8ECA007461846914634
:106A10008846DAF8084000F061FFDAE90132DAF876
:106A20000060134401339B1B022B5ED80AF21C4505
:106A30000121284600F0D0FFFFF766FD01462846F9
:106A400000F0CAFFDAE90132DAF80010134401332A
:106A50005B1A022BECD90A400332033145239DF81F
:106A600007004AF82230CAF8001000F05DFFB31C9E
:106A700023400AEB830300211D48C3F80C9000F06B
:106A800089FF80F31000731C23400AEB830300048A
:106A90003440033440EA1740D8601AF8243067F3D2
:106AA000C5030AF824303AF82430012161F3891330
:106AB0002AF824305AF8242068F39F22134661F301
:106AC00001036FF382034AF824200AF824309AF86D
:106AD00020341BB906E0FFF759FE18B1DAE900329D
:106AE0009A42F8D102B0BDE8F0873146B3E700BF63
:106AF000202A0020042600202DE9F04F83B002ADAB
:106B0000002405F8014D3B4C8046284693469A46A2
:106B10008946A56800F0E2FED4E9013227681344F3
:106B20000133DB1B032B63D804F21C4601213046E2
:106B300000F052FFFFF7E8FC0146304600F04CFF42
:106B4000D4E901322168134401335B1A032BEDD9D8
:106B50000A400332852344F8223004319DF80700AF
:106B6000216000F0E1FEBA1CFB1C2A402B4004EB24
:106B7000820204EB830300211F48C2F80CB0C3F863
:106B80000CA000F007FF80F310007B1C2B4004EBEF
:106B9000830300043D40033540EA1840D86014F8F0
:106BA000253068F3C50304F8253034F82530022277
:106BB00062F3891324F8253054F8252069F39F22C5
:106BC0001346012161F301036FF3820344F825208A
:106BD00004F8253094F820341BB906E0FFF7D6FD01
:106BE00018B1D4E900329A42F8D103B0BDE8F08F71
:106BF0003946ADE704260020202A0020044BD3E9C3
:106C000000239A4201D0FFF7C1BD0020704700BFAA
:106C10000426002030B4184DD5F8104400215CB192
:106C2000E3681A798A4204D116E0DB681A798A424D
:106C300012D01B68002BF8D1C3681971D5F8103435
:106C400093B1DA68C36812681A60D5F81034DB684B
:106C5000186030BC0846704701310A29DFD14FF077
:106C6000FF31084630BC7047C5F81004C268136095
:106C7000084630BC704700BF0426002038B5094BD9
:106C8000D3F81044012583F820544CB1E3685D71BA
:106C9000236820465B689847E3681C68002CF5D1A0
:106CA00038BD00BF042600202DE9F04784B01D4602
:106CB0000C9C002394F80C802373EB8881460E46CD
:106CC0001746002B40D1297A05290ED06B7AA88867
:106CD00073BB404B53F821A00021FFF79DFC5246A7
:106CE00003463D49204600F013FF062F09D8DFE890
:106CF00007F0046A4249525D33004946204600F0DD
:106D000007FF2B7A052B05D06B7A5BB933492046F8
:106D100000F0FEFE204600F0EFFE84F80C8004B088
:106D2000BDE8F0872E4A2F49204600F0F1FEEDE73E
:106D3000FFF79EFC2C4B2B4953F82020204600F0F7
:106D4000E7FE297AA888C4E7254A00922749284AFD
:106D5000204600F0DDFEB6E7D6E90410D6E90023B0
:106D60000390D6E902070291CDE900074946204683
:106D700000F0CEFEC5E74946D6E90023204600F0E4
:106D8000C7FEBEE7B168D6E9002320460091494618
:106D900000F0BEFEB5E7D6E90201D6E90023019175
:106DA00000904946204600F0B3FEAAE7D6E90371F9
:106DB000B068D6E900230291CDE900074946204694
:106DC00000F0A6FE9DE732684946204600F0A0FE8E
:106DD00097E700BF50BA020040BA02004CBA020066
:106DE00034BA02003CBA0200DCB902001CBA02004C
:106DF00014BA0200082900D970472DE9F04F1D464A
:106E0000904600232A7B2B7385B0B8F80630039296
:106E100007460E46002B7BD198F80810052911D0A3
:106E200098F80930B8F80400002B63D13C4B53F8B4
:106E300021400021FFF7F0FB22460346394928464E
:106E400000F066FEDFF8FCB0DFF8FC90002405E0FF
:106E50003A5D013400F05CFE082C09D0A642494698
:106E60002846F5D85946013400F052FE082CF5D1D9
:106E70002D49DFF8D8B0DFF8D890284600F048FE5A
:106E800000240CE017F804A0BAF17E0F23D92E22BB
:106E900049462846013400F03BFE082C08D0A642A3
:106EA000F0D859462846013400F032FE082CF6D1BD
:106EB00098F80830052B02D098F80930A3B91B497F
:106EC000284600F025FE284600F016FE039B2B7393
:106ED00005B0BDE8F08F04F0F9FC50445246437809
:106EE00013F0970FD3D0D3E7114A1249284600F088
:106EF0000FFEE4E7FFF7BCFB0F4B0E4953F82020D1
:106F0000284600F005FE98F80810B8F804008DE750
:106F1000074A009209490A4A284600F0F9FD7BE732
:106F200050BA020040BA02000CBA02004CBA020089
:106F300034BA02003CBA0200DCB902001CBA0200FA
:106F400014BA020008BA020000BA020048BA0200ED
:106F500010BA0200434B1978002900F081802DE916
:106F6000F04F002487B001258E4603E00134E4B2DF
:106F7000744560D23C4B27B21E6816F837C0ACF19E
:106F8000200205FA02F9394ACCF12003D2E90001C6
:106F900025FA03F349EA030905FA0CF800EA0802A6
:106FA00001EA0903134306EBC70BDFD021EA09030B
:106FB0002E4920EA08026046C1E9002302F072F877
:106FC00016F837C0ACF1200205FA02F201920199DD
:106FD000CCF12003C6B225FA03F3ACF12002194329
:106FE00006FA02F30393224B0191D3E90023CDE982
:106FF000042305FA0CF30093CCF12001039B26FA3D
:1070000001F10B43039306FA0CF30293DDE90467E5
:10701000DDE9002316401F4032463B46DDE90267AA
:10702000BB4208BFB24209D00E4B013493F800E0D6
:10703000E4B274459ED307B0BDE8F08F9BF8011011
:10704000DBF80430A1F10101B1FA81F14909091A13
:10705000B1FA81F14909002BE6D060469847E3E791
:10706000704700BFC02A0020F82A0020F02A002024
:10707000E82A00202DE9F84F0646244800F0F4FBEA
:10708000D8B9234F0123A6F1200103FA01FBC6F171
:107090002002D7E9000123FA02F24BEA020B03FABD
:1070A00006FA00EA0A0201EA0B03134307D020EABA
:1070B0000A0421EA0B05C7E90045BDE8F88F304610
:1070C00001F0F0FF134ED6E90089C8B148EA0A037F
:1070D00049EA0B049846A146D7E900234BEA030589
:1070E0000D4B0A4819684AEA02044B464246C6E973
:1070F0000023C7E900450022BDE8F84F00F05EBB61
:1071000028EA0A0829EA0B09E6E700BFC82A002096
:10711000F02A0020E82A0020C42A0020042A36D9B8
:107120002DE9F04182B00E460546144601F03EFEC0
:10713000002836D01D491E4A1E4B0D601E481F49AF
:107140001C60167000230022741EC0E90023C1E9F0
:107150000023E4B2EEB105EBC404194F083D4FF033
:107160000008032601E0AC4213D0A37820788DF804
:1071700006803A4601A98DF804608DF8053001F0CB
:107180001FFE083C0028EED002B0BDE8F0810720C9
:1071900070470C4A0C48002100F0FEFA02B0BDE82E
:1071A000F08101F0BFFD0028C4D0EDE7F82A0020EF
:1071B000C02A0020C42A0020E82A0020F02A00204B
:1071C00075700200556F0200BCBA020070B5084D20
:1071D0002B785BB1074E00243368012113F834008B
:1071E00001F0CCFE2B780134A342F5D8002070BD0D
:1071F000C02A0020F82A002070B5094D2B7853B121
:10720000084E0024336813F8340001F019FF2B787E
:107210000134A342F6D80448BDE8704000F024BB16
:10722000C02A0020F82A0020C82A002000B585B016
:1072300000230390194601AA44F20100CDE901336D
:1072400000F004F805B05DF804FB00BF10B572B69D
:10725000FFF714FDFFF7D2FC0028FBD1104B114CB7
:107260001149E41AE408240444F00100FFF716FA77
:107270000E4B1B68DB0700D500BE44F002000C4932
:10728000FFF70CFABFF34F8F0A490B4BCA6802F4A1
:10729000E0621343CB60BFF34F8F00BFFDE700BF39
:1072A00068C6020090C60200C0BA0200F0ED00E01D
:1072B000CCBA020000ED00E00400FA05F8B5204A5F
:1072C000204B0024C2F84041C2F84441C2F8484172
:1072D000C2F84C41C2F80041C2F804411B6833B304
:1072E0001949D2F804550A68AD1A1A6825F07F4585
:1072F000AA4227460DD8197CDE69AD1A144419B18B
:107300001F74D3E9052090471EB133461A68AA427C
:10731000F1D90E490E4A0B7812789A4208D00D49DD
:107320000D4A41F823404FF48013C2F80031F8BDF4
:10733000531CDBB2022B08BF00230B70EFE700BF2A
:10734000001001401C2C0020182C0020152C0020BF
:10735000142C00200C2C002000E100E02DE9F04F5F
:107360008C4A8D4913780978DFF85082994285B0AC
:10737000D8F800A000F07B810133DBB2022B08BFFC
:10738000002386481370864A076852F823107B183A
:1073900023F07F4300240360534626462046A4463C
:1073A000ABB11A688A4200F26581DC68C3F800C09C
:1073B000891A1044DA6934B13D1825F07F45C3E9D4
:1073C0000154DE611E4613460124002BE9D1002C36
:1073D00040F07C8101230093724B734FDFF8E09102
:1073E00043F00103019355464FF0000B46B3D6E935
:1073F00001C13446F669694B6C481A68ACEB02036C
:1074000023F07F43834248D80B44236000220121AC
:10741000C4E90122E2612174002D5DD02A689A42FC
:107420004DD2284603E00A689A424FD20846C16905
:107430009B1A0029F7D12360E161C461002ED6D1E7
:1074400078783978884264D00B4603EB43034C1CB0
:10745000BA7807EBC303E1B28A421A79397004BFE4
:1074600000213970022A9C6844D0032A38D0012AAE
:10747000E8D1227C002AE5D1D3F80CC0C4F804C0BE
:107480001969A1605869E06099F800009B69A361DF
:107490000028B0D062609446ADE7A2EB0C0222F067
:1074A0007F428A4202D28B1A2360AFE70023012277
:1074B000C4E90033A360E36122746DB12A68C8F89F
:1074C0000040D31A2B60E56125468FE7D21A0A6087
:1074D0002360E161C461B1E7C8F80040254685E753
:1074E000002DAFD000232B74ED69002DFBD1C8F81F
:1074F0000050A5E74DB1AC422B4603D1E4E09442E5
:107500002FD01346DA69002AF9D100232374884268
:107510009AD1BBF1000F01D1554553D0002D56D162
:10752000234E244A1F4C4FF480334FF4003101277F
:10753000C2F880103C43C6F848334FF43C60C6F8AC
:1075400008337760A047154BB7604FF43C601D606F
:10755000A047194B1D70002389F8003005B0BDE825
:10756000F08FA34200F09180E0692168D861002883
:1075700000F086802A4603680B440360AA424FF05D
:1075800000033978787823741CBF15464FF0010B3F
:10759000BDE700BF142C0020152C0020182C002063
:1075A0000C2C0020E0BA0200FC2A0020FEFF7F0025
:1075B0000010014000E100E0092C00201C2C0020FC
:1075C000082C0020009B002BC5D0002DA8D0434BD9
:1075D000434A1C68D2F80465424FD5F800A03978B8
:1075E000331B23F07F43DD1CB9B93F493F4B4FF4B8
:1075F0008030C2F844034FF00108C2F804034FF48E
:107600000030C1F8800143F001030860C2F8008037
:107610004FF43C60984787F80080AA452CBF04EBE4
:107620000A0363192E4923F07F43C1F84035D1F88E
:107630000425921B9B1B22F07F4223F07F430332E1
:107640009A4288D9294BD1F80425C1F8402543F046
:1076500001034FF43C609847234B4FF40032C3F8CA
:107660000021002389F8003005B0BDE8F08F002626
:107670000096B1E674BB521A1A6001230093ABE680
:10768000002339787878237441E71946EA69C8F805
:10769000002092B9CDE90231114BDFF840C0012042
:1076A0009860019B89F80000CCF800204FF43C6002
:1076B0009847DDE90231D8F80020C8690968D86127
:1076C00000287FF458AF59E72946DFE7C8F80030B3
:1076D0009A467FE6C8F800309A46CCE7182C00207E
:1076E00000100140092C002000E100E0E0BA020097
:1076F0002DE9F8431F4D204E204FDFF898804FF4BE
:1077000080334FF400324FF001090024C6F8802086
:1077100047EA0907C5F848334FF43C60C5F8083319
:10772000C5F80490B847C5F808904FF43C60C8F815
:107730000040B847124A134B13491C601470134B96
:10774000134A0C700B2114701C8099704FF4801236
:10775000C023C6F8802186F814333260C5F8084586
:1077600086F81133D5F80435C8F800302046BDE856
:10777000F88300BF0010014000E100E0E0BA020021
:10778000092C00201C2C0020142C0020FC2A002096
:10779000152C0020182C0020074B9B784BB132B1E0
:1077A00028B10368187C20B959745A6170470720C2
:1077B00070470820704700BFFC2A00202DE9F047E1
:1077C000264CA37882B0002B3CD000283AD0042964
:1077D0003CD94369002B35D0814602A899F8113075
:1077E0000026012B00F8016D0CBF8846B0461746F5
:1077F0008A4600F073F86378A17822789DF8070034
:107800005D1CEDB2A94208BF3546AA4222D003EB67
:10781000430304EBC3030121114AC3F80890197113
:10782000D2F804256570C3E9032AC3E9058700F08F
:107830007BF80C4B4FF480123046C3F8002102B0A5
:10784000BDE8F087082002B0BDE8F087072002B04D
:10785000BDE8F08700F068F80420F0E7FC2A00207B
:107860000010014000E100E0F0B51A4CA37883B0AD
:1078700043B338B343692BB3064602A8002500F88A
:10788000015D357400F02AF86278A77821789DF8B8
:107890000700531CDBB29F4208BF2B46994214D00D
:1078A00002EB420204EBC202022196601171637086
:1078B00000F03AF8084B4FF480122846C3F8002134
:1078C00003B0F0BD082003B0F0BD00F02DF8042097
:1078D000F9E700BFFC2A002000E100E070B4EFF3FC
:1078E000108472B60D4B9A68AAB90D490D4E012548
:1078F0009D60D1F8805035401D60C1F88060D1F89E
:1079000084505D604FF0FF33C1F88430027004B9D9
:1079100062B670BC704701230370F8E7542E002054
:1079200000E100E0FC06FFBD094B9A687AB170B92E
:1079300010B4EFF3108172B6064A1C6814605C68DC
:107940005460986001B962B65DF8044B70477047A7
:10795000542E002000E100E001F01F024B0901213C
:1079600000EB8300914000F01FB800BF01F01F0240
:1079700001234909934000EB8100D94300F020B86E
:107980004B0901F01F0150F82300C84000F001002E
:10799000704700BF50E8002F0B4640E8003C9CF0C9
:1079A000000FF7D11046704750E8003F43EA01024C
:1079B00040E8002C9CF0000FF6D11046704700BF45
:1079C00050E8003F03EA010240E8002C9CF0000F61
:1079D000F6D11046704700BF50E8003F03EB0102AC
:1079E00040E8002C9CF0000FF6D11046704700BF15
:1079F00050E8003FA3EB010240E8002C9CF0000F90
:107A0000F6D11046704700BF012350E8002F42EA2C
:107A1000030C40E800C191F0000FF6D160467047BA
:107A2000002350E800CF0CEA030240E8002191F067
:107A3000000FF6D160467047B8B130B4D0E90112FA
:107A4000521A0468D2B2531E2160DBB242B10168FF
:107A50000A685C1E551C0D601370E3B2FF2BF6D153
:107A600003680020187130BC70470E20704700BFBB
:107A7000F0B583B002AB002503F8015D044618465B
:107A8000FFF72CFFD4E900311A688A4210D9511E41
:107A900019602168A3680F6812F8015C0A79268AC8
:107AA000E068DB1BDBB29A4206FB050538BF0B71B1
:107AB0009DF80700FFF738FF284603B0F0BD00BF70
:107AC00030B583B002AB002203F8012D05461846FD
:107AD0000C46FFF703FF2A681368591C1160E96818
:107AE0002A8A641AB4FBF2F41C709DF80700FFF7B1
:107AF0001BFF03B030BD00BF826842B110B5044621
:107B000043690168006998470023A36010BD70476E
:107B10000EB400B582B0039929B102AA04AB42F8B1
:107B2000043D00F0A9F802B05DF804EB03B0704723
:107B30002DE9F04F924683B051450F4605461E464B
:107B4000DDE90CB2C0F092800B464FF00108B3FBA8
:107B5000FAF39A4508F10108F9D9B04538BFB046A3
:107B600012F00109A96802D1BBF1000F54D1012420
:107B700002E0013E0AFB04F4012EFAD8B7FBF4F050
:107B80008245F7D93B4E02E0A968B7FBF4F0335CBD
:107B90002A680A2B04FB107702EB010E01F10100A9
:107BA00029D0A8608EF80030D5E90131994202D37E
:107BB0002846FFF7A1FFB4FBFAF4002CE4D1B9F199
:107BC000000F15D0BBF1000F12D0C34510D92024EF
:107BD000AB682A68591CA960D454D5E901329A428D
:107BE0000BF1FF3B14D2BBF1000F01D0C345EFD125
:107BF00003B0BDE8F08FA8604FF00D005054D5E9F8
:107C0000011088421DD2296801EB000E0130C8E73F
:107C10002846FFF771FFE6E7930722D42024C345E7
:107C2000A5D92B684A1CAA605C54D5E90131994258
:107C30000BF1FF3B10D2BBF1000F98D0C345F0D140
:107C400095E728460193FFF757FFAA682968019B2B
:107C5000501C01EB020EA4E72846FFF74DFFA96870
:107C6000E9E7002E0CBF30242024D8E74FF00108AC
:107C700073E700BFE8BA0200002900F0B9822DE9DD
:107C8000F04F054687B091460C460E78DFF8C8A63F
:107C90004FF00D0B13E0AB6828680A2E03F10102C8
:107CA00000EB030100F04B82AA600E70D5E90132AF
:107CB0009A4280F01B812678002E00F01E8101344C
:107CC000002E00F01A81252EE5D12346002713F857
:107CD000012B2D2A00F0E380302A00F0E4802B2ACB
:107CE00000F0D4802A2A00F00D81A2F13006F1B212
:107CF000092903D97DE2A1F130060346184606EBB7
:107D0000860110F8012BA2F13004092C02EB41018D
:107D1000F1D92E2A00F002814FF00008013301E072
:107D200013F8012B02F0FB0168291C46F8D0253A14
:107D3000532AC0D801A353F822F000BF27810200C4
:107D4000B77C0200B77C0200B77C0200B77C02005F
:107D5000B77C0200B77C0200B77C0200B77C02004F
:107D6000B77C0200B77C0200B77C0200B77C02003F
:107D7000B77C0200B77C0200B77C0200B77C02002F
:107D8000B77C0200B77C0200B77C0200B77C02001F
:107D9000B77C0200B77C0200B77C0200B77C02000F
:107DA000B77C0200B77C0200B77C0200B77C0200FF
:107DB000B77C0200B77C0200B77C0200B77C0200EF
:107DC000B77C0200B77C0200B77C0200B77C0200DF
:107DD000B77C0200B77C0200B77C0200B77C0200CF
:107DE000B77C0200B77C0200B77C0200B77C0200BF
:107DF000B77C0200B77C0200B77C0200B77C0200AF
:107E0000B77C0200B77C02000B810200B77C020045
:107E1000B77C0200B77C0200B77C0200B77C02008E
:107E2000B77C0200B77C0200B77C0200B77C02007E
:107E3000B77C0200AF7E020091800200B77C020096
:107E4000B77C0200B77C0200B77C02009180020080
:107E5000B77C0200B77C0200B77C0200B77C02004E
:107E6000B77C0200B77C0200F97F0200B77C0200F9
:107E7000B77C0200717F0200B77C0200557F0200D0
:107E8000B77C0200B77C02000B81020047F00407B8
:107E90001C46234613F8012B2D2A7FF41DAF47F013
:107EA00001071C46F5E747F002071C46F1E7D9F841
:107EB00000301A1DC9F800201E78AB680A2E0CD1BC
:107EC0002A68591CA96002F803B0D5E9012393423E
:107ED00003D32846FFF710FEAB682A68591CA96037
:107EE000D654D5E901329A42FFF4E5AE2846FFF7B1
:107EF00003FE2678002E7FF4E2AE2B7B23BB07B077
:107F0000BDE8F08FD9F80020111DC9F800101668DF
:107F100062782E2A04F102007FF4FEAE5A78A2F1B4
:107F20003003092B00F2BD814FF0000808EB8808F0
:107F300002EB480810F8012FA2F13003092BA8F139
:107F40003008F3D90346E9E6284607B0BDE8F04F0C
:107F5000FFF7D2BDD9F800301A1DC9F80020196802
:107F60000197434600960A222846FFF7E1FDA2E664
:107F7000D9F800301A1DC9F80020D3F80080FB079B
:107F800000F1E880B8F1000F00F0A181404603F055
:107F9000D0FC0746BE4215D9A6B1202100E08EB123
:107FA000AA682B68501CA8609954D5E901329A42FE
:107FB00006F1FF3604D328460391FFF79DFD039990
:107FC000BE42ECD108F1FF3818F8016F002E3FF4E3
:107FD00072AEAB6828680A2E03F1010200EB0301C0
:107FE00000F09081AA600E70D5E901329A42EBD37D
:107FF0002846FFF781FDE7E7D9F80020131DC9F8EF
:108000000030AB6829681768581C3022A860CA5431
:10801000D5E90123934280F0E6802A68581C782134
:10802000A860D154D5E90123934280F0D7800F2F67
:1080300003D93A4612090F2AFCD84FF080560DE0BA
:10804000AA6081F80080D5E901329A4202D328461D
:10805000FFF752FD36093FF42EAEAB68B7FBF6F2E0
:108060001AF802802868B8F10A0F06FB127700EBB5
:10807000030103F10102E3D1AA6000F803B0D5E9DE
:1080800001329A4280F049812B6899180132D7E772
:10809000D9F800301A1DC9F80020196881EAE17387
:1080A000A3EBE173092B40F30E81AA480122A0FB48
:1080B00003C3DB08092B02F10102F8DC4245134639
:1080C00038BF4346039307F00203002E40F095802B
:1080D000002B00F0B780B8F1000F00F0F680F80731
:1080E00040F1B0800029C0F2FF807A0700F1C8801B
:1080F00007F00303022B00F0A780CDE90067434699
:108100000A222846FFF714FDD5E5D9F800301A1DDC
:10811000C9F80020196801974346009610222846A6
:10812000FFF706FDC7E5AB682A68581C2521A86043
:10813000D154D5E901329A42FFF4BDADD6E6AA602A
:1081400000F803B0D5E901329A423FD229681144C0
:108150000132A9E54146A1EB080311F8017BD7B133
:10816000AB68D5F800C00A2F03F101020CEB030045
:1081700000F0AF80AA600770D5E901329A42EAD3D5
:1081800028460391FFF7B8FC0399A1EB080311F807
:10819000017B002FE4D19E427FF68DAD202702E0C7
:1081A000002E3FF488ADA9682A68481CA86057547F
:1081B000D5E90121914206F1FF3604D32846039305
:1081C000FFF79AFC039BB342EAD174E52846FFF718
:1081D00093FCAB6829685A1C194465E52846FFF7EB
:1081E0008BFCAB6823E72846FFF786FCAB6814E7F7
:1081F00070471846002623468BE5002920DB7A07C6
:108200001ED41BB1B8F1000F3FF46CAFF8073FF577
:1082100069AFBEB1039BB342BFF464AF2023AA6829
:10822000501CA86028688354D5E90102824206F1F7
:10823000FF3640D236B1039AB242F0D1164651E72A
:10824000013EDEE700264DE7B8F1000F7FF455AFA1
:10825000002E6AD0039BB342BFF44FAF3023AA680D
:10826000501CA86028688354D5E90102824206F1B7
:10827000FF3618D2002E58D0039AB242EFD13CE715
:10828000AA68531CAB602B682B209854D5E90132A7
:108290009A42FFF42DAF28460491FFF72DFC049974
:1082A00026E7034638E52846CDE90413FFF724FC0A
:1082B000DDE90413DEE72846CDE90413FFF71CFCD3
:1082C000DDE90413B6E70122F8E646460AE7474629
:1082D00060E6AA600CF803B0D5E901329A4226D2D2
:1082E0002B689818013245E7AA68531CAB602B68CD
:1082F0002D209854D5E901329A42C1F10001FFF4D2
:10830000F7AEC8E7AA6000F803B0D5E901329A4297
:1083100017D229681144013264E62846FFF7ECFBC6
:10832000A9682B684A1C19448AE60026E5E6284617
:108330000391FFF7E1FBA8682B680399421C1844DE
:1083400018E72846FFF7D8FBAB6829685A1C194480
:1083500048E600BFCDCCCCCCE8BA0200FFF76CBB3E
:108360002DE9F041058ACE1C043D2E440746B6FB9C
:10837000F5F6FFF77DFB78B3F6B24FF48073013E5C
:108380000446C5800760838027D08046002509E029
:108390006379AE4203F101036371C8F8000007601E
:1083A00080461AD03846FFF763FB01350028EFD12D
:1083B0006679721E14D02346013082421B68FBD1BD
:1083C0001F684EB1002523682146013538461C46FA
:1083D000FFF776FBAE42F6D100242046BDE8F081DF
:1083E0002768EFE704300121FFF7F6BAF8B501215D
:1083F00004460430FFF7FCFAC0B200B1F8BD66795C
:10840000721E12D02346013082421B68FBD11F68C6
:10841000002EF3D0002523682146013538461C463E
:10842000FFF74EFBAE42F6D1F8BD2768F2E700BF7A
:108430002DE9F843C788467907FB06F6043E02EBB0
:10844000030C0446664503F1040015468846B0FB5C
:10845000F7F238BFF51A07FB120012B1013A24688F
:10846000FCD13E1AAE4228BF2E469DB14FF0000906
:108470000430AD1B2044324608EB090103F046FAF4
:10848000AF42B14424683E464FF0000028BF2E465C
:10849000002DEDD1BDE8F8832DE9F843C788467972
:1084A000154607FB06F6043E05EB030C1A1D664550
:1084B00004468846B2FBF7F038BFF51A07FB1021D7
:1084C00010B101382468FCD17E1AAE4228BF2E4676
:1084D0009DB14FF0000904312144AD1B324608EB39
:1084E000090003F013FAAF42B14424683E464FF04E
:1084F000000128BF2E46002DEDD1BDE8F88300BF56
:1085000041DF7047064A074B10B5002414701C6009
:10851000BFF35F8F0449054800F040F8204610BDC6
:10852000282C00202C2C0020F8BA0200202C00203F
:1085300000B583B002A8002300F8013DFFF7CEF993
:10854000F1EE103A23F09F03E1EE103ABFF35F8F94
:108550000A4B4022C3F884219DF80700FFF7E4F995
:1085600002F0FCFF28B920BF40BF20BF03B05DF878
:1085700004FBFFF7C5FF03B05DF804FB00E100E07A
:108580008268002393608268136182685361826805
:10859000D3608268536082681360704701600B6823
:1085A00043604A68934204BF00234360704700BFA2
:1085B000436843B1026891680B4443605268934238
:1085C00004BF00234360704730B4184DA5F5947282
:1085D000AB1ADB1003EBD3735B1002EBC30152F851
:1085E0003330984228BF0C4605D311E052F833309F
:1085F00098420CD221468B1ADB1003EBD3735B102D
:108600008A4202EBC304F1D3094830BC70470D46DF
:10861000984204D904F10802AA42D9D3F4E7606869
:10862000034B002808BF1846EFE700BF4CBC020010
:1086300010BB020030B4904B1B78062B20D08F4B20
:108640001B68062B00F085808D4AD2F8883043F4F1
:108650007003C2F88830BFF34F8FBFF36F8F4FF0B6
:108660001023D3F80022002AC0F28681D3F8043206
:10867000002BC0F28181834B834A1A6030BC704763
:10868000824B1B681D07DAD1814B1B6803F0F00297
:10869000302A00F09E8003F0E003402B00F0998028
:1086A0007B4B1B6803F0F003302B00F0B980784B54
:1086B0001B6803F0F002302A56D003F0E003402B91
:1086C00052D0734B1B6803F0F003302B00F0B680E0
:1086D0006F4B1B6803F0F002302A66D003F0E00312
:1086E000402B62D06A4B1B6803F0F003302B00F084
:1086F000B580674B1B6803F0F003302B79D0644BD7
:108700001B6803F0F003502B00F0E480604B1B6803
:1087100003F0F002302A37D003F0E003402B33D0CF
:108720005B4B1B6803F0F002302A03D003F0E00338
:10873000402B84D14FF08043D3F80024D20744BFAC
:108740006FF00102C3F800244C4B1B68062B7FF42A
:108750007BAF504B1B68062B7FF476AF4E4A1368F5
:1087600043F4806313606FE74C4B434A1B681278F5
:108770004B49C3F34233062A0B6048D1434B1B6875
:1087800019077FF45CAF9CE7464A3B4B12681B78A5
:10879000454902F04F02062B0A607FF450AF3B4B75
:1087A0001B6819077FF44BAFBAE74FF080430022F4
:1087B000C3F80C21C3F81021C3F838252E4B1B78C1
:1087C000062B7FF43CAF314B1B681B077FF437AFA0
:1087D00088E7364B284A1B6812783549C3F30423CF
:1087E000062A0B60EAD1294B1B681C077FF427AFD0
:1087F00056E7304C204A304912783048304B052536
:10880000256001250D6000243F2104601960062ABF
:108810007FF415AF1D4B1B681C077FF410AF6EE78C
:10882000154B284A1B7828491160062B7FF407AFA7
:10883000164B1B6818077FF402AF38E723490E4B2D
:10884000CA681B7822F08072062BCA607FF4F7AEEC
:108850000E4B1B681A077FF4F2AE39E7064B1C4A31
:108860001B780321062B11607FF4E9AE074B1B68D0
:108870001D077FF4E4AE3CE7E00F00F0300100108C
:1088800000ED00E0D42200200090D003E40F00F0BF
:10889000E80F00F0340100103C17004044020010C3
:1088A0003C05004058020010E40E00402403001074
:1088B0004035014010560040885600401856004090
:1088C0001456004074C007400DF0ADBAF0ED00E062
:1088D000A00500404FF08053404AD3F80414C2F87A
:1088E0002015D3F80814C2F82415D3F80C14C2F8D4
:1088F0002815D3F81014C2F82C15D3F81414C2F8A4
:108900003015D3F81814C2F83415D3F81C14C2F873
:108910004015D3F82014C2F84415D3F82414C2F833
:108920004815D3F82814C2F84C15D3F82C14C2F803
:108930005015D3F83014C2F85415D3F83414C2F8D3
:108940006015D3F83814C2F86415D3F83C14C2F893
:108950006815D3F840142248C2F86C15D3F84414B3
:108960000378C2F87015062B7FF469AE1D4B1B68A7
:1089700018077FF464AEC9E61B4B0122C3F8042537
:10898000D3F80024002AFBD04FF0102315221649FB
:10899000C3F80022D1F80034002BFBD04FF0102296
:1089A0001521114BC2F80412D3F80024002AFBD081
:1089B00000220D49C3F80425D1F80034002BFBD068
:1089C000BFF34F8F09490A4BCA6802F4E0621343B0
:1089D000CB60BFF34F8F00BFFDE700BF00C000407A
:1089E000E00F00F0E40F00F000E0014000ED00E0D7
:1089F0000400FA05044B195C4FF0A04201238B40A0
:108A0000C2F80C35704700BF38C00200044B195C37
:108A10004FF0A04201238B40C2F80835704700BFD9
:108A200038C00200C1071BD54FF0A043032210B489
:108A30004FF00041C3F878274FF08044C3F87C27FB
:108A40008207C3F80845C3F8081506D54FF0A043C0
:108A50000C22C3F87027C3F874275DF8044B7047E5
:108A6000830741BF4FF0A0430C22C3F87027C3F81F
:108A70007427704710B570B101280BD10D4C2369D4
:108A8000A0703BB1D3E900230120226198472369FC
:108A9000002BF7D110BD074CA36801226270002B98
:108AA000F8D0D3E900230020A2609847A368002BE8
:108AB000F7D1EFE7302C002070B910B5074CA36850
:108AC000012262703BB1D3E900230020A2609847E5
:108AD000A368002BF7D110BD704700BF302C0020D9
:108AE00030B5012883B01CD015D3032811D100F074
:108AF000C9F802A800231F4C00F8013DFEF7EEFE66
:108B0000E368013BE360E56865B39DF80700FEF7A5
:108B10000BFF03B030BD184B0122C3F8802003B017
:108B200030BD02A80023134C00F8013DFEF7D6FE2D
:108B3000237853B1E3689DF8070001330122E36015
:108B4000A270FEF7F1FE03B030BD0C486360A36075
:108B50002361E36000F088F802F000FD30B10123EA
:108B60002370E7E700F0A0F8A570CEE700F08AF8E0
:108B7000F5E700BF302C002000E100E0758A02001C
:108B800030B585B0047845688DF80040D0E90240E2
:108B9000064A074B039053F8213001958DF80840A1
:108BA00052F821106846984705B030BD442C00208B
:108BB000482C002030B585B0047845688DF8004019
:108BC000D0E90240064A074B039053F82130019543
:108BD0008DF8084052F821106846984705B030BD1E
:108BE000442C0020482C0020F0B51A4B06781A4D72
:108BF0000C6991F81DE045F826400746174803F830
:108C000006E040F826200C4694460FCC89B06D460D
:108C10000FC594E80F0085E80F000496BEF1000F21
:108C20000BD0BCF1000F0E4A694607F1040008BFE3
:108C3000002201F01FF809B0F0BDBCF1000F094A95
:108C4000694607F10C0008BF002200F0EFFD09B0F3
:108C5000F0BD00BF602E0020442C0020482C0020D6
:108C6000818B0200B58B0200054A13792BB90121D3
:108C7000106053711846117170478520704700BF0E
:108C80004C2C0020074B1A68D20704D4C0210122C3
:108C900083F800131A604FF080430122C3F81825AF
:108CA000704700BF00E100E0044B01221A604FF062
:108CB0008042D2F81834DB03FBD470470C0000402C
:108CC00010B5154B1A6882B07AB10021134A1960A9
:108CD0001B68507900934FF080410123009CC1F83C
:108CE000083310B91168537188470D4B1A6882B167
:108CF00000221A601B6801934FF080420221074B4B
:108D00000198C2F808131B68012002B0BDE81040AA
:108D1000184702B010BD00BF000100404C2C0020DD
:108D20000401004030B51D4C94F8585083B095BBF9
:108D30004FF0FF332946042204F15400C4E9003304
:108D4000C4E90233C4E90433C4E90633C4E908338F
:108D5000C4E90A33C4E90C33C4E90E33C4E910335F
:108D6000C4E91233236502F0DCFD0D4A0D4B0E49B8
:108D70001D60C02082F80603402010601B6801932C
:108D800001984FF000430122284684F85820C1F88A
:108D9000043303B030BD082003B030BD542C002094
:108DA00000E100E07C61004000600040034B93F86C
:108DB0005800003018BF0120704700BF542C00201D
:108DC000F0B56C4B1C1894F93050002D68DA8E7891
:108DD000C6F340069646002E5CD11D6A013500F0B0
:108DE000B58009240C2553F8247001375BD004F1B9
:108DF000010C53F82C70013700F0B380A71CAF4270
:108E000046D253F82720013200F0AD8004F1030C64
:108E1000AC453DD253F82C70013700F0A28004F12C
:108E2000040CAC4534D253F82C70013700F0998013
:108E300004F1050CAC452BD253F82C70013700F02F
:108E4000908004F1060CAC4522D253F82C70013707
:108E500000F0878004F1070CAC4519D253F82C7050
:108E600001377ED004F1080CAC4511D253F82C70B8
:108E7000013776D004F1090CAC4509D253F82C70B7
:108E800001376ED00A34AC4202D2DC6A013409D018
:108E90000420F0BD1D68013567D001240825A2E734
:108EA0000820F0BD0B241F1865B243F824E087F8B2
:108EB0003050002E51D08A78540714D4D6073BD4B2
:108EC0004C784FF0A04600F5E072A40046F822402E
:108ED000294EC40800F0070C375D012202FA0CF29B
:108EE0003A4332558A780C7812F0020209D1083DD3
:108EF0002B44104693F8502042EA841483F85040E3
:108F0000F0BDAB0003F1804303F5C0430202D3F888
:108F1000101521F4473121F44071C3F810152404D1
:108F2000D3F8101504F4403402F4F85222430A43F3
:108F3000C3F810250020F0BD820002F1A042D2F853
:108F4000004724F00204C2F80047C1E7082684F86D
:108F50003060C3F820E0354634461C4484F84800AD
:108F6000A9E764469FE73C469DE700251A6084F820
:108F70003050A0E7542C0020A82C002070B42E4DB7
:108F80002E1883B096F93030072B1CDD2B4493F854
:108F900048309B09032B41D0012B14BF4FF44031C3
:108FA0004FF40031800000F1A040D0F8002722F4F7
:108FB0004032C0F80027D0F800370B43C0F8003724
:108FC00003B070BC7047DAB2072AF9D8980000F1F4
:108FD000804000F5C04003F14002D0F810459200F7
:108FE00092B244F0010402F18042C0F8104502F54B
:108FF000C04200200190019C10600029E0D096F949
:10900000302055F82220002ADAD001220B4902FA3A
:1090100003F3C1F8043303B070BC70474FF0A043B2
:10902000D3F81035C34013F0010F0CBF4FF40031DB
:109030004FF44031B6E700BF542C002000600040E0
:10904000164B034493F93030072B18DCDAB2072AA9
:1090500014D810B49A0002F1804202F5C042104CBC
:10906000D2F81005012120F0010001FA03F3C2F843
:109070001005C4F808335DF8044B70477047800052
:1090800000F1A040D0F8003723F44033C0F8003797
:10909000D0F80037C0F80037704700BF542C0020CC
:1090A000006000404FF0A043D3F8103523FA00F0E1
:1090B00000F00100704700BF2DE9F04186B00023A9
:1090C000A14A01931668012E00F054811E469F4B61
:1090D0001A68012A00F05D819D4B1A68012A00F090
:1090E0006A819C4B1A68012A00F077819A4B1A68B2
:1090F000012A00F08481994B1A68012A00F09181BD
:10910000974B1A68012A00F09E81964B1A68012A33
:109110000CD0954B1B68012B00F0A58116F0FF0FBA
:1091200015D1002E30DB06B0BDE8F0818F4AD2F8B1
:1091300004231706EDD500221A601A6804926033E2
:10914000049A1B68012B46F0800600F08C81884F42
:1091500000240125A30003F18043354203F5C043F9
:109160004FEA45050BD0D3F8100557F82420D3F863
:109170001015C0F30420C1F3014102B1904701343E
:10918000082CE7D1002ECEDA00224FF0FF33CDE9D4
:109190000223774C012602AF94F950305D1C2CD08D
:1091A000DBB223F0C00006AA4FEAD00C02EB0C0E93
:1091B00003F007021EF80C1C06FA02F211421CD042
:1091C0002518990995F9303054F82330002B00F018
:1091D0009881032900F098814FEA800C0CF1A04C93
:1091E0001EF8145CDCF800E71540CEF3014E40F0A9
:1091F0005C81BEF1030F00F0DE81002594F951304F
:10920000581C2DD0DBB223F0C00006AA4FEAD008CC
:1092100002EB080E03F007011EF80C2C06FA01FC05
:1092200012EA0C0F1CD02218990992F9303054F828
:109230002330002B00F05B81032900F05B8182006A
:1092400002F1A0421EF8148CD2F800E718EA0C0FC5
:10925000CEF3014E40F03681BEF1030F00F0A6813F
:1092600094F95230591C2DD0DBB223F0C00006AA6D
:109270004FEAD00802EB080E03F007011EF80C2C91
:1092800006FA01FC12EA0C0F1CD02218990992F977
:10929000303054F82330002B00F03C81032900F0DB
:1092A0003C81820002F1A0421EF8148CD2F800E743
:1092B00018EA0C0FCEF3014E40F0E380BEF1030F2D
:1092C00000F06E8194F953305A1C2DD0DBB223F09C
:1092D000C00006AA4FEAD00802EB080E03F007010F
:1092E0001EF80C2C06FA01FC12EA0C0F1CD02218F6
:1092F000990992F9303054F82330002B00F0ED80BA
:10930000032900F0ED80820002F1A0421EF8148CC7
:10931000D2F800E718EA0C0FCEF3014E40F0BC8003
:10932000BEF1030F00F00081002D3FF4FCAE4FF0C2
:10933000A043019AD3F8103593423FF4F4AE029A59
:109340000193039228E700BF0061004004610040E0
:10935000086100400C610040106100401461004051
:10936000186100401C6100407C61004000600040CA
:10937000542C00209A49D1F8041311F0010170D047
:10938000136013680493049B964B1A68012A7FF4B8
:10939000A3AE934AD2F8042397077FF59DAE00222F
:1093A0001A601B680493049B8F4B1A68012A46F0CD
:1093B00002067FF496AE8A4AD2F8042355077FF559
:1093C00090AE00221A601B680493049B874B1A68B6
:1093D000012A46F004067FF489AE814AD2F80423BC
:1093E00014077FF583AE00221A601B680493049B68
:1093F0007F4B1A68012A46F008067FF47CAE784A53
:10940000D2F80423D0067FF576AE00221A601B68DE
:109410000493049B774B1A68012A46F010067FF4E8
:109420006FAE6F4AD2F8042391067FF569AE002231
:109430001A601B680493049B6F4B1A68012A46F05C
:1094400020067FF462AE664AD2F8042352067FF506
:109450005CAE00221A601B680493049B46F0400631
:1094600053E60E4633E6654B00221A601B680593EF
:109470004FF0A043059AD3F81035019346F000460B
:109480004CE6BEF1020F7FF41DAF032963D0002B21
:109490003FF418AF984715E7BEF1020F7FF444AFD1
:1094A000032969D0002B54D13EE7BEF1020F7FF4AF
:1094B000A4AE032900F091800025002B3FF49EAE5E
:1094C00098479BE6BEF1020F7FF4CAAE032956D03F
:1094D000002B3FF4C5AE9847C2E603297FF424AFC2
:1094E00017F8082042EA0C0207F808200BE70329C6
:1094F0007FF4B6AE17F8082042EA0C0207F80820FD
:109500009DE603297FF479AE17F80C50154307F850
:109510000C5061E603297FF4D5AE17F8082042EA23
:109520000C0207F80820BCE60329BBD14FF4003E2B
:10953000D2F800C72CF4403CC2F800C7D2F800C7EC
:1095400001354CEA0E0CEDB2C2F800C7002B3FF417
:10955000EEAE9847E8E64FF4403ED2F800C72CF450
:10956000403CC2F800C7D2F800C701354CEA0E0CE7
:10957000EDB2C2F800C78AE74FF4403ED8E74FF497
:10958000403ED2F800C72CF4403CC2F800C7D2F8E5
:1095900000C701354CEA0E0CEDB2C2F800C797E7E0
:1095A00003297FF474AF4FF4003ED6E703298FD12F
:1095B0004FF4003EE5E703297FF47FAF4FF4003519
:1095C000DCF8002722F44032CCF80027DCF8002732
:1095D0002A43CCF8002701256FE74FF44035EFE729
:1095E0000060004004610040086100400C610040E0
:1095F0001061004014610040186100407C6100402F
:10960000014B1B68184700BFB02C0020104B98423C
:1096100001D00020704730B583B002A8002300F8C5
:10962000013D0D46FEF75AF90A4B1C7934B19DF8FD
:109630000700FEF779F9112003B030BD01229DF833
:1096400007001D601A71FEF76FF92046F4E700BFAE
:1096500000200040B02C0020034B984203D1034B64
:1096600000221A601A71704700200040B02C0020C0
:1096700030B56C4AD2F8043399058BB066D5D2F870
:109680002431002B62D00023C2F82431D2F82431D7
:1096900003934FF40171644B0398C2F8081393F8D5
:1096A000291009B9012151605E4902228DF8182064
:1096B000D1F88024C1F880249869D96809920022E1
:1096C000CDE90710C3E90622D3E9001406A8A04794
:1096D000544AD2F81C31BBB1534B186A59698842BD
:1096E00069D350480022C0F81C21D0F81C01019019
:1096F000019849B198688DF8182008915A6107902F
:10970000D3E9001206A89047464AD2F84431DBB1AB
:109710000021454BC2F84411D2F8440193F82910B6
:109720000090009809B1012111609A6962B100228C
:10973000586AD9689A610122CDE907108DF818207E
:1097400006A8D3E9001290470BB030BD354AD2F8D5
:1097500004335B07BCD5D2F80831002BB8D0324BAC
:10976000996900293CD00021C2F80811D2F80811EB
:1097700004910499D868596AD2F8182542545A6A53
:10978000996901325A625A6A8A42A1D1DA69196822
:10979000002A2ED0D8685D6A1C699A610790002261
:1097A0000120DC60DA615A628DF8180008955B6868
:1097B00006A898478CE793F8280000F0FF040028DB
:1097C0008FD1C2F81C41D2F81C11029102999C68F9
:1097D000186A196A205C01311962C2F81C0593E706
:1097E000C2F80811D2F8080105900598D2F818259A
:1097F000C9E793F8292012B90A4A01205060094AA2
:109800004FF40170C2F80803586ADA68089000241F
:10981000012007928DF818005A689C6106A89047AD
:1098200056E700BF00200040B82C00202DE9F04191
:109830005E4F06792C2505FB067582B095F82A3017
:10984000002B40F087800D46044659490068904639
:10985000FFF7DCFE002879D12B68591C0CD00122BF
:109860004FF0A04102FA03F3C1F808352B6803F565
:10987000E073032241F823206B685A1C06D003F5DD
:10988000E0734FF0A042002142F823102368AA6938
:10989000C3F82425297D6B7D22680B43C2F86C3503
:1098A000D5E900122368C3F81425C3F80C152B7DE5
:1098B000012B53D02C2303FB06F3FA18C2F80480C3
:1098C0002A69FA50B8F1000F2DD022682B7F394D4C
:1098D0000021C2F81C11D2F81C2100922268DDF888
:1098E00000C0C2F84411D2F84411226801910199D4
:1098F000C2F804532168090B4AB25B01002ADBB2AB
:109900004EDB02F1604202F5614282F800332368C7
:10991000294D1B0B5AB2520903F01F03012101FA12
:1099200003F345F822302C23246803FB067300223E
:1099300004250121C4F8005583F82A10C3E9062242
:1099400083F829205A6102B0BDE8F081112002B0ED
:10995000BDE8F081082002B0BDE8F081AB68591C79
:1099600006D003F5E0734FF0A042002142F8231027
:10997000EB685A1C0DD001224FF0A04102FA03F30C
:10998000C1F80835EB6803F5E073032241F82320A2
:10999000EB682268A968C2F80835C2F8101589E793
:1099A000064A01F00F010A441376B0E7B82C0020F4
:1099B000719602008000020000E100E0FCEC00E093
:1099C000F8B52F4D047902682C2303FB04530021C2
:1099D0005B68C2F8001583B103682A4AC3F80823FC
:1099E0000368294E1B0B5AB25209203203F01F03A1
:1099F000012101FA03F346F8223003684FF0FF32E9
:109A0000D3F80CC5D3F81475D3F80815D3F810653E
:109A1000C3F81425C3F80C2503689445C3F808253A
:109A2000C3F8102506D00CF5E07C4FF0A0430222CD
:109A300043F82C207B1C06D007F5E0774FF0A043BD
:109A4000022243F82720721C06D006F5E0764FF07C
:109A5000A043022243F826204B1C06D001F5E071FA
:109A60004FF0A043022243F821200068FFF7F4FDE5
:109A70002C2303FB0454002384F82A306360F8BDD0
:109A8000B82C00208402020000E100E0F0B5314E65
:109A900005792C2303FB056385B05C69002C53D149
:109AA0001C62996083F828405A610268C2F81C4120
:109AB000D2F81C11026802910121029F9160026894
:109AC000D3F808C0C2F81C41D2F81C1101910199C9
:109AD000D3F820E0196A5F681CF80EE001311962C2
:109AE000C2F81CE517B1204605B0F0BD1A6A5C69E2
:109AF0000168944203D819E093F828203ABBD1F8C2
:109B00001C21002AF8D0C1F81C71D1F81C21039245
:109B1000039AD3F820E01A6A1CF80EE001321A62A8
:109B2000C1F81CE51A6AA242E9D30168D1F81C31D8
:109B3000002BFBD00123CB6000202C2303FB056509
:109B400000236B6105B0F0BD112005B0F0BD0F2002
:109B5000F3E700BFB82C0020F0B5444BD3F8242124
:109B600089B0002A52D00021C3F82411D3F824214F
:109B7000029202228DF81020029AD3F880043C4A07
:109B8000C3F880040790D3F83C05D3680690C2E977
:109B9000061105931168536804A89847334BD3F80E
:109BA0004421BAB10021324AC3F84411D3F84441E8
:109BB00090690194019C68B1D3F83C35D068069354
:109BC0000123C2E9061105908DF8103004A8D2E9EE
:109BD00000139847254BD3F82021AAB10021C3F8E0
:109BE0002011D3F82001224A00900098506958B102
:109BF000D3F84C05936806908DF8101051610593C9
:109C000004A8D2E90013984709B0F0BDD3F81011A9
:109C10000029C3D0C3F81021D3F8101114480391C0
:109C200003998169D3F83C458C42B7D1C569C768AF
:109C3000D0E900168DB1D3F800C285612CF0200563
:109C4000C261C3F800520369C3600122CDE9057403
:109C50008DF8102004A8B047A0E701238561CDE965
:109C600005748DF8103004A8B04797E70020004035
:109C7000E42C00202DE9F0430779674E4FEAC7082E
:109C800008EB070306EB830385B093F82030002B25
:109C900040F096800D460446604900689146FFF703
:109CA000B5FC002840F088802B68591C0CD001229C
:109CB0004FF0A04102FA03F3C1F808352B6803F511
:109CC000E073032241F823206B685A1C06D003F589
:109CD000E0734FF0A042002142F823102368AA69E4
:109CE000C3F82425297D6A7D23680A43C3F86C25BF
:109CF000D5E900312268C2F80C35C2F814152B7D65
:109D0000012B61D008EB07029200B318C3F804904E
:109D10002B69B350B9F1000F3DD021682B7F404D26
:109D20000022C1F81021D1F8101100912168DDF84E
:109D300000C0C1F82021D1F8201101912168DDF87F
:109D400004C0C1F82421D1F8241102912168DDF862
:109D500008C0C1F84421D1F8441122680391039945
:109D6000C2F804532168090B4AB25B01002ADBB236
:109D70004CDB02F1604202F5614282F80033236855
:109D8000284D1B0B5AB2520903F01F03012101FA9F
:109D900003F345F822304744226806EB8706002388
:109DA00001240821C2F8001586F82040C6E90633D0
:109DB000736105B0BDE8F083112005B0BDE8F08304
:109DC000082005B0BDE8F083AB68591C06D003F548
:109DD000E0734FF0A042002142F82310EB685A1CB8
:109DE0000DD001224FF0A04102FA03F3C1F808356B
:109DF000EB6803F5E073032241F82320EB68226847
:109E0000A968C2F80835C2F810157BE7064A01F0C8
:109E10000F010A441376B2E7E42C0020599B02009C
:109E20001003020000E100E0FCEC00E0F8B5067968
:109E30002F4C0268F500AB1904EB830300215B682B
:109E4000C2F8001583B103682A4AC3F808230368DF
:109E5000294F1B0B5AB25209203203F01F03012174
:109E600001FA03F347F8223003684FF0FF32D3F8CA
:109E70000CE5D3F814C5D3F80815D3F81075C3F85A
:109E80000C25C3F8142503689645C3F80825C3F8C4
:109E9000102506D00EF5E07E4FF0A043022243F8D5
:109EA0002E20BCF1FF3F06D00CF5E07C4FF0A04324
:109EB000022243F82C207A1C06D007F5E0774FF0F9
:109EC000A043022243F827204B1C06D001F5E07185
:109ED0004FF0A043022243F82120354404EB8504CF
:109EE0000068FFF7B9FB002384F820306360F8BDF9
:109EF000E42C00201003020000E100E001F06043C8
:109F0000B3F1005F2CD1F0B40579244EEF007C1939
:109F100006EB840482B0636923BB6261A1600268BE
:109F2000C2F82031D2F820C10268CDF804C0DDF8B3
:109F300004C0C2F85831D2F8582100920268DDF806
:109F400000C0D4F814C0C2F84415C2F848C502686D
:109F50000121916062684AB1184602B0F0BC7047B6
:109F600010207047112002B0F0BC7047036800E079
:109F70008AB9D3F82011D3F858210029F8D0002A43
:109F800014BF0F2000207B1906EB830300225A61C7
:109F900002B0F0BC70470F20F5E700BFE42C0020B2
:109FA00072DF704773DF704776DF70477ADF704784
:109FB0007CDF70477FDF70478FDF7047B1DF70470E
:109FC000FDF734B908B5037803B108BD054B3B2153
:109FD0001888FFF7E9FF0028F7D0BDE80840FDF733
:109FE00025B900BFF22200201C2820D1114B1248B5
:109FF000C01AC008000410B540F003000C460F4919
:10A00000FCF74CFB0E4B0F491888224601F0FAF979
:10A0100030F008020DD043F20202904209D043F220
:10A020000142904205D0BDE81040FDF7FFB8FDF7B2
:10A03000FDB810BD68C6020090C6020084C00200D0
:10A04000F22200205C2D002010B50D4B0D4CE41ABF
:10A05000E408240444F0030442B91046FEF7D6FC99
:10A0600020460949BDE81040FCF718BB0020FEF768
:10A07000C1FC20460549BDE81040FCF70FBB00BFFE
:10A0800068C6020090C60200B4C00200A0C0020070
:10A09000FDF7CCB810B50388103B82B00446462BC0
:10A0A00046D8DFE803F065244581454545454545EB
:10A0B0004545454545454551454545454545454544
:10A0C0004545454545454545454545454545454540
:10A0D000454745454545454545454545454545452E
:10A0E00045454545454545455B4545454700354B57
:10A0F00035483649C01AC008000440F00300FCF798
:10A10000CDFA0120FEF782FC314B4FF6FF721A8028
:10A11000FDF772F808B1FDF789F82E4B0121187888
:10A12000FFF740FF08B1FDF781F80320FEF762FC5E
:10A1300002B010BD80881321FFF736FF0028F7D04A
:10A14000FDF774F802B010BD02A9002321F8043D08
:10A150008088FFF731FF0028EAD0F1E71C4A00238E
:10A16000108819461A46FFF729FF0028E0D0E7E7D4
:10A17000144B15481849C01AC008000440F00300E9
:10A18000FCF78CFA0120FEF735FC0320FEF73EFCBD
:10A190000F4BA1881148198001F02CF870B9FDF718
:10A1A00015F80028C4D0CBE7094A00231088852180
:10A1B0001A46FFF7FFFE0028BAD0C1E7FDF736F8D0
:10A1C000EDE700BF68C6020090C6020074C002003E
:10A1D000F2220020F022002068C00200742D00202E
:10A1E00080B54FF40041A6B00020FCF7F7F908B1A4
:10A1F000FDF71CF8FCF778F90120FEF713FCFDF7DA
:10A2000077FA08B1FDF712F840F266620121704852
:10A21000FCF784FF08B1FDF709F8FEF773F908B100
:10A22000FDF704F801F010F908B1FCF7FFFF26ACC8
:10A23000002344F83C3D0120214601F0DDF908B13E
:10A24000FCF7F4FF204601F093FA08B1FCF7EEFFAB
:10A2500026AD112305F8783D5E4801F06AFB5D49A3
:10A2600082B22846FFF7A4FE08B1FCF7DFFF082200
:10A270000021204601F055FB574B179320464FF025
:10A28000C8731893FFF792FE08B1FCF7CFFF0021C7
:10A29000524800F063FE08B1FCF7C8FF0022504BA3
:10A2A000504808922146179300F092FF08B1FCF73E
:10A2B000BDFF4D4B4D480893294601F041F808B1C8
:10A2C000FCF7B4FF494B4A4E9B7C8DF806303C228C
:10A2D00041F2235300212846ADF8043001F021FB60
:10A2E0000221062301273C228DF820102046002160
:10A2F0008DF823308DF8227001F013FB324601AB4C
:10A30000284652F8041BADF86C701C9300F0E2F87C
:10A3100008B1FCF78BFFB168364A204600F0DAF846
:10A3200008B1FCF783FF1822002102A801F0F9FA16
:10A33000012000234FF4807640258DF8080002AA02
:10A340002B492D48ADF814300393ADF81C600495EB
:10A35000FFF726FE08B1FCF769FF1C22002120460A
:10A3600001F0DFFA0023254A1793ADF86A308DF823
:10A370006C30234B20464FF420254FF4203403212A
:10A38000CDE918548DF86810CDE91C2300F0D2FBFC
:10A3900008B1FCF74BFF1B4B1B481C49C01AC008F7
:10A3A000000440F00300FCF779F9134B0121187801
:10A3B000FFF7F8FD08B1FCF739FF0320FEF71AFBA1
:10A3C000FCF71CFC0028FBD1FEF7B2F8F8E700BF51
:10A3D000D8220020C8C002005000A000482D002054
:10A3E000C19F0200742D002049A002005C2D0020B6
:10A3F000E0220020EC220020F0220020C59F020075
:10A4000091A0020068C6020090C60200D8C00200F7
:10A410006DDF704779DF70477DDF704764DF70471D
:10A420002DE9F04F83B004880C9EBDF83490B6F847
:10A4300000A0002C39D09846002317468B460546CD
:10A440001C4603E02A880134A24224DD6A6852F8DF
:10A450002400019000220DF1030101A8FFF7DEFFA7
:10A4600020BB9DF80320BA42ECD13288B91803B35F
:10A4700089452BDB42440DF1030101A80123FFF7BD
:10A48000CDFF98B931889DF803200A4432802A888C
:10A490000134A242DADC43B13388013BA3EB0A0367
:10A4A0009BB2FF2B12D808F80A30002003B0BDE899
:10A4B000F08F02310132894592B207DB328008F811
:10A4C00002B03288013292B23280D3E70C2003B05E
:10A4D000BDE8F08F2DE9F04700231788138090F82E
:10A4E0002D3086B0144605460E46002B40F0FB800A
:10A4F000AA78002A40F0FD80EA78A2B1D91CB942BE
:10A5000000F2F3800221F154238801339BB2012130
:10A510002380F15423880B449BB22380F254238878
:10A520000B449BB223806A68AAB1D91CB94200F2DD
:10A53000DC80022192F90020F154238801339BB280
:10A540000A212380F154238801339BB22380F254E3
:10A550002388013323802B89002B40F01B812B8A19
:10A56000002B40F02F812B8B002B40F043812B6A76
:10A57000002B44D02288911DB94200F2B680198880
:10A58000052940F203816FF4486801EB080080B2AE
:10A590004FF27D3C604540F2F9805888052840F232
:10A5A000F5806FF4486E86441FFA8EFEE64540F251
:10A5B000ED804FF6FF7C614504D0604502D08142BA
:10A5C00000F2E4800521B1542288013292B21221B6
:10A5D0002280B1542288013292B222801988B1546B
:10A5E0003244090A51702288023292B222805B887A
:10A5F000B35432441B0A53702388023323806B6A9E
:10A60000002B2FD09988B4F800C0881C0CF10202EE
:10A610000244BA4269D8FE2867D8033106F80C1004
:10A620002288013292B2FF212280B1542288013265
:10A6300092B222801988B1543244090A517020889C
:10A64000023080B220809A8862B199680393002911
:10A6500000F09C80304401F059F9039B9A882388CC
:10A660001344238095F82C30002B40F08A80287802
:10A6700000283BD02B88012B00F08880228802F133
:10A68000020CBC4531D8012804D16B780233134445
:10A690009F422AD3BB1E9B1A06A99BB221F8083DF4
:10A6A00006EB0C00FFF7B8FE00BB2978BDF81020C0
:10A6B000022900F0048168789042C0F0FB80934248
:10A6C000C0F0F8800921FE2A0FD82388501CF054CE
:10A6D000238801339BB22380F154238801331A4429
:10A6E0002280002002E0082F23D80C2006B0BDE80D
:10A6F000F0870433BB42F8D804A8FFF78BFE00288C
:10A70000F4D12388BDF810200321F15423880133AC
:10A710009BB219212380F154238801339BB2F11895
:10A720002380F254120A4A70238802339BB223809A
:10A73000E2E604A8FFF76CFE0028D7D113880822B0
:10A74000CA54238801339BB21B222380CA54208819
:10A75000013080B22080062208440DF1110101F081
:10A76000D5F823889DF8102006339BB212F0FE0224
:10A7700018BF01222380F254238801339BB2238027
:10A78000B6E6D5F82880B8F1000F4CD1072006B006
:10A79000BDE8F08705F108080222CDE900474046F0
:10A7A00011463346FFF73CFE00289FD1CDE9004714
:10A7B0004046334610220621FFF732FE00283FF4C0
:10A7C000CEAE93E705F11008CDE900474046334689
:10A7D00002220321FFF724FE002887D1CDE900479C
:10A7E0004046334610220721FFF71AFE00283FF4A7
:10A7F000BAAE7BE705F11808CDE90047404633467D
:10A8000002221421FFF70CFE00287FF46FAFCDE980
:10A8100000474046334610221521FFF701FE00286D
:10A820003FF4A5AE62E7B8F804200232FE2A3FF6F4
:10A830005CAF23884FF000094FF0160A0132F25442
:10A84000238801339BB2238006F803A023880133B9
:10A850009BB22380B8F80020F2543344120A5A7095
:10A86000238802339BB22380B8F80410F0180A46FC
:10A8700061B1D8F808301946002B87D001F046F8AE
:10A88000B8F80420238813449BB2238009F10109FE
:10A8900095F82C205FFA89F94A4509EB49087FF6BB
:10A8A000E6AEAA6A02EB8808B8F804200232FE2A53
:10A8B000C4D91AE7012906D01A46082103E79342B2
:10A8C000BFF400AFF8E78342F6D302460821FAE668
:10A8D00075DF704776DF70477ADF70477BDF704740
:10A8E00030B51D4B1A8884B2A24283B001D003B0A8
:10A8F00030BD1A4D187A297B88420FD32A7C00215B
:10A900001972E2B96B69002BF1D00022ADF8064054
:10A910008DF8042001A8984703B030BD104603F11C
:10A920000A01FFF7D5FF28B11128E0D0AB69002B51
:10A93000F1D1DCE71A7A01321A7203B030BD3B2143
:10A940002046FFF7C7FF30F00803DBD0AB69002BD0
:10A95000D8D09847D6E700BF9C2D0020802D00203E
:10A96000F0B50288112A83B0034649D036D9122A9D
:10A9700008D0502A04D16C4DC188EA89914251D047
:10A9800003B0F0BD694C828821889142F8D1E189F9
:10A990006589B1F5FA7F24BF6FF4F9700E185889F4
:10A9A00038BF002685424FD8A58985424CD39B8964
:10A9B000B34249D301F2F311994245D35A4B5B6933
:10A9C0004FF480712181002BDAD00121ADF80620EF
:10A9D0008DF8041001A8984703B0F0BD102ACFD11C
:10A9E000C27B012ACCD1514C21884FF6FF72914293
:10A9F0003CD04D4B9B69002BC2D004209847BFE749
:10AA00004A4C828823889A42BAD16068FCF72CFFAE
:10AA100018B1454B9B6903B198474FF6FF732380EC
:10AA200003B0F0BD028A022AAAD1404C868827884A
:10AA3000B742A5D1123000F04FF9002856D1606816
:10AA4000FCF712FF70B99BE7374D267A6068D5E9AD
:10AA50000131002E08BF194600236372FCF7AEFED9
:10AA600000288DD0AB69002BB5D189E7304D8288A5
:10AA7000228003CDC4F80E10E689C4F80A00B6F5AA
:10AA8000FA7F28BF6FF4F9754FF00001588AB4F8C7
:10AA90000AC0217228BF7119234D8445EF8919D846
:10AAA000B4F80CC0844515D39B8A8B4212D306F2AE
:10AAB000F3169E420ED301216172002F7FF460AF26
:10AAC0006B69002B3FF45CAF8DF80410ADF80620E5
:10AAD00001A880E700236372002F7FF451AF606804
:10AAE0006968FCF76BFE0028BCD149E7637A63B95B
:10AAF000D5E90131267A60683A46002E08BF19462A
:10AB0000FCF75CFE0028ADD13AE76B6900222272A7
:10AB1000002B3FF435AF0122ADF806608DF804201C
:10AB200001A898472CE700BF802D00209C2D002015
:10AB3000B02D002000282FD0F8B5054606460FCDD1
:10AB4000164F3C460FC4844695E80700144B3B6003
:10AB500084E80700BCF1000F18D06046FFF7BCFE88
:10AB600098B932681068516803C30E4B0E490F4AFA
:10AB700018464FF6FF7440F8041F1C800021FCF7B4
:10AB80000BFE002814BF03200020F8BD1846FFF775
:10AB9000A5FE0028E9D0F8BD0E207047802D0020CA
:10ABA000B02D00209C2D0020B82D0020E1A802002F
:10ABB0002DE9F0470388B0F80490112B98B059D0D4
:10ABC0001A2B804647D0102B02D018B0BDE8F08772
:10ABD000394A936818A8DB4340F8603D5168FCF798
:10ABE000EFFE009B0193019B63B300273C46214687
:10ABF00001A8FCF7C5FE28B118AB03EB47030137EA
:10AC000023F8284C0134142CF1D10D970DAE0FCE42
:10AC100002AC0FC40FCE0FC496E8070084E807000B
:10AC200087B10DF10A0A254E0AEB47073AF8025F91
:10AC3000234C204629460434FCF798FEA642F8D15E
:10AC4000BA45F3D1B9F1130F1BD90420FCF7EEFA82
:10AC500018B0BDE8F087047A1A482409012C494647
:10AC600020D9FCF779FE022C494617481ED0FCF784
:10AC700073FEAAE749461548FCF778FE18B0BDE810
:10AC8000F08749461148FCF767FE49460C48FCF737
:10AC900063FE98F80F30012B97D049460C48FCF71B
:10ACA0005BFE92E7FCF762FE07484946FCF75EFE52
:10ACB00018B0BDE8F08700BFD82D0020502E00202E
:10ACC000DC2D0020E82D0020EC2D0020E02D0020C0
:10ACD000E42D0020AADF7047007800F001007047E3
:10ACE000F0B58B7891B0002B0C460988ADF80C10AC
:10ACF00008BF0123054616466846032200218DF849
:10AD00000E3000F00EFE637C0022013B8DF8002027
:10AD1000042B09D8DFE813F00500D300D700DB00CF
:10AD2000CF0011238DF80030A37C0022013B8DF869
:10AD30000120042B09D8DFE813F00500D200D6006B
:10AD4000BA00CE0011238DF801309DF80230E77B68
:10AD5000227D207C217B67F3C303002A60F3041368
:10AD600014BF0222012261F3000362F3420309A827
:10AD70001C2200218DF8023000F0D3FD637B13F01C
:10AD8000300F73D1627BA37B8DF824200021142225
:10AD900004A88DF8253000F0C4FDA368A288CDF882
:10ADA00014D003A90491ADF81C201BB1E2880893CC
:10ADB000ADF81820A369002B36D001AF0322002183
:10ADC000384600F0AEFDA2691388ADF82C305388E8
:10ADD000ADF82E3051680D97137B0A91013B00218D
:10ADE0008DF80410042B2DD8DFE803F0299D8D91F8
:10ADF000990011238DF80530917A9DF8063061F3A2
:10AE0000C3038DF80630D17A61F304138DF8063050
:10AE1000117A927B002A61F3000314BF02220122FF
:10AE200062F342038DF80630E36903B10C933346B5
:10AE300004AA09A92846FFF74DFF11B0F0BD112360
:10AE40008DF80430537B0021013B8DF80510042B55
:10AE5000D2D801A151F823F0F3AD0200F7AE020001
:10AE6000FFAE0200EFAE020017AF0200032202A8FD
:10AE7000002100F056FDE37C0022013B8DF8092003
:10AE8000042B07D8DFE803F0035F5B57530011235F
:10AE90008DF809309DF80A3002AA0E92012262F361
:10AEA000420311228DF80A308DF808206AE7122338
:10AEB0008DF8013049E722238DF8003034E7212353
:10AEC0008DF8003030E731238DF800302CE7122365
:10AED0008DF8003028E722238DF8013035E7212353
:10AEE0008DF8013031E731238DF801302DE7122341
:10AEF0008DF8053080E721238DF805307CE731237C
:10AF00008DF8053078E731238DF804309AE7122365
:10AF10008DF8043096E722238DF805306CE7222364
:10AF20008DF804308EE721238DF804308AE7222340
:10AF30008DF80930AEE712238DF80930AAE73123E6
:10AF40008DF80930A6E721238DF80930A2E700BF6C
:10AF500090DF7047A5DF7047B5DF704708B90E2056
:10AF6000704730B403464FF0171200201B2541F6FE
:10AF70001B3419611A60C3F806201D719872D872CB
:10AF80009C8130BC704700BF70B5858884B01DBB04
:10AF90000388232B0C4621D06FD93A2B54D0552B44
:10AFA00000F0B180242B00F09C80A37AA3B1E1884B
:10AFB0000020FFF7CFFF00286DD011280CD0FDF73F
:10AFC00003FB7A4A7A4B7B499B1ADB081B04024637
:10AFD00043F00100FBF710FD04B070BD037A0A7B5B
:10AFE0000395934228BF134602A96A462846009556
:10AFF000ADF80830ADF80A30ADF80450FFF7A8FFFF
:10B000000028D2D0694B6A4EF61AF608FDF7DCFA32
:10B01000360446F0010603462A4630466649FBF7E9
:10B020006BFDBDF80020BDF8023002B91BB16349C9
:10B030003046FBF761FDBDF80420002AB5D030464C
:10B040005F49FBF7D9FCB0E74389C98822698B4285
:10B0500028BF0B46172B38BF172323814AB1E17A4B
:10B0600039B140F677210291ADF80C3002A92046A3
:10B0700090470023E372A372AEE7102B0FD0112B81
:10B0800093D14FF0171241F61B338D72CD72C1F878
:10B0900006208B81A0E70122A072E2729CE70B7967
:10B0A0000B73C27B012A52D0022A4DD0C988228953
:10B0B0008A425DD3627B9A42BFF477AF00259BB290
:10B0C00028466A4602A9ADF80830ADF80A30039563
:10B0D0000095ADF80450FFF73BFF00283FF465AF43
:10B0E00090E70B69027A4A73002B3FF45EAF4DF68E
:10B0F0007A21ADF80C5002918DF80C2002A920465F
:10B100009847A37A52E7C388C988A572172B38BF1E
:10B1100017238B4228BF0B4628462381FFF71CFFCD
:10B12000C0B9E37A002B7FF440AF2369002B3FF4D2
:10B130003CAF40F6772122890291ADF80C2002A99C
:10B1400020469847A37A31E74988E180AFE709882C
:10B15000E180ACE7FDF738FA144A154B19499B1A00
:10B16000DB081B04024643F00100FBF745FCD8E76F
:10B170000020FFF7EFFE18B90123E372237B99E764
:10B18000112803D10123A372237B93E7FDF71CFA57
:10B19000064A074B07499B1ADB081B04024643F08B
:10B1A0000100FBF729FC237B84E700BF68C602008F
:10B1B000A0C60200D4C10200F0C002003CC10200DF
:10B1C0007CC1020008C20200B0DF704766DF704732
:10B1D00060B159B10378DE2B0AD00B684360DE22E0
:10B1E0004FF6FF7302704380002070470E207047B7
:10B1F0000820704738B10378DE2B02D1418000204F
:10B200007047082070470E20704700BF19B110B179
:10B210000B78DE2B00D0704730B505464B88808810
:10B22000984285B00C4606D02A88012A0DD0512AB2
:10B2300020D005B030BD0B7A002B35D12B88112BD7
:10B2400048D0512B4DD0012BF3D12B7A012BF0D1CB
:10B2500062888242EDD123720021FFF7B7FF0028F8
:10B260004ED0112808BF2372E3D063689847E0E707
:10B270006388A8888342DCD1AA79022AD9D1A97B24
:10B2800001F0FD0004282ED00529D2D10020694606
:10B29000C1E90200009048608DF800201846FFF7D1
:10B2A00093FF0028E1D1C4E70021FFF78FFF034699
:10B2B000A8B1112812D0636898472B88112B05D0AC
:10B2C000512BD5D0012BB4D1A888BEE7AA886388BA
:10B2D0009A42AED14FF6FF736380AAE7012323722F
:10B2E000EBE70346C6E7694600204FF4C0754860A7
:10B2F0000090C1E902008DF80020ADF80450CDE7C0
:10B30000207296E7A8DF7047AEDF704762DF7047B4
:10B310000388502B12D110B44B88C4889C4202D0B1
:10B320005DF8044B7047038A012BF9D14B69002B60
:10B33000F6D0827C5DF8044B80881847704700BFC8
:10B34000F0B52F4B0E6805460FCB8FB002AC84E8EA
:10B350000F006E61204605F11201FFF7D7FF08B11B
:10B360000FB0F0BD0EA941F2235321F8343D2A4617
:10B37000AB7C8DF806300120FFF7C4FF0028EFD129
:10B380000146202206A800F0CCFA9DF82530AA7CC0
:10B390008DF81A20012443F0120341F224574FF094
:10B3A000011628888DF8253006A905F10A02ADF8A6
:10B3B000187007968DF829408DF82B40FFF790FC08
:10B3C0000028CDD10146202206A800F0AAFA9DF857
:10B3D0002530AF7C079643F00A0341F225562888B2
:10B3E0008DF8294006A9AA1C8DF82A408DF8253031
:10B3F000ADF818608DF81A70FFF772FCB0E700BF67
:10B4000048C2020070B588B00E4605468DF8072088
:10B41000012404A810220021ADF80E4000F081FAAA
:10B420007389ADF810300DF107020DF10E0304A978
:10B4300028468DF81240CDE90632FFF765FF08B0C7
:10B4400070BD00BF10DF704770B53B4D2B7884B0E6
:10B45000002B63D1394E3A49012302A83370FDF71E
:10B460009DF8039B002B4FD1364902A8FDF796F8B3
:10B47000039B4BB1D3E900210020904702A8FDF7C0
:10B4800097F8039B002BF5D12F4A002312688DF803
:10B49000083002A80192FCF721FA2C4901A8FFF715
:10B4A000D1FFB0FA80F304465B099DF808002B70C9
:10B4B000FCF73AFA002C2ED1254B26491C7034702B
:10B4C00091F81623EC2352091341DB072FD5224BA9
:10B4D0009A683ABB4FF480030B601A4902A8FDF743
:10B4E0005DF8039BBBB1D3E900210120904702A87E
:10B4F000FDF75EF8039B002BF5D10CE002A8FDF7E9
:10B5000057F8039B002BAFD0D3E9002100209047D0
:10B510000028F3D10446204604B070BD082420461C
:10B5200004B070BD1A6842F480021A60D5E742F296
:10B530000200FBF77BFED0E7512E0020502E0020AA
:10B540005CC2020074C2020058C202004D720200C6
:10B55000522E002000E100E0542E0020014B18780C
:10B56000704700BF512E002000B583B068460849DF
:10B57000FDF714F8019B43B1D3E9002090476846DA
:10B58000FDF716F8019B002BF6D103B05DF804FB24
:10B5900068C2020060DF704769DF704761DF704793
:10B5A000134B1B781BB330B5124D91B034240DF101
:10B5B000020103A8ADF80240FFF7F0FF88B9294661
:10B5C00001A8FCF7EBFF029B002BF0D0D3E9002190
:10B5D00003A8904701A8FCF7EBFF029B002BF5D1D5
:10B5E000E5E7052801D0FBF721FE11B030BD70471B
:10B5F000532E0020C0C40200002900F0A68070B5C0
:10B60000534B0B6084B00C4605460C22002101A868
:10B6100000F087F90126062301A922688DF804505D
:10B6200020208DF80660ADF80830FFF7B5FF002840
:10B630007DD10C22002101A800F073F90121002323
:10B640008DF8051022688DF8063001A940208DF88C
:10B650000730FFF7A1FF00285BD10C22002101A8D1
:10B6600000F05FF90A2322688DF8043001A9012057
:10B67000FFF792FF00283ED10C22002101A800F024
:10B6800050F94FF4B0632268019301A9A120FFF79C
:10B6900083FF10BB0C22002101A800F042F99DF8A5
:10B6A000043022686FF3000301A9A0208DF8043054
:10B6B000FFF772FF08B904B070BDFCF785FF254A9B
:10B6C000254B26499B1ADB081B04024643F0010068
:10B6D000FBF792F9002004B070BDFCF775FF1D4A1E
:10B6E0001D4B1F499B1ADB081B04024643F0010057
:10B6F000FBF782F9CEE7FCF767FF164A164B1949AC
:10B700009B1ADB081B04024643F00100FBF774F9A7
:10B71000B2E7FCF759FF0F4A0F4B13499B1ADB089E
:10B720001B04024643F00100FBF766F995E7FCF7BE
:10B730004BFF084A084B0D499B1ADB081B040246C5
:10B7400043EA0600FBF758F973E70E20704700BF85
:10B75000B822002068C60200B0C60200BCC30200C6
:10B7600068C302001CC30200D0C2020088C20200EB
:10B77000F8B506460768FFF70DFF3368BB4205467C
:10B7800005D825BB1A4B01221A702846F8BD194B63
:10B79000194C1A49E41AE408240444F0020420462F
:10B7A000FAF77CFF3A46204633681549FBF7A4F9BF
:10B7B0004FF080533268D3F80C3112499B0203F1E9
:10B7C000005320469A1AFBF717F9002DDAD02846C5
:10B7D000FCF7FAFE074A084B0B499B1ADB081B04CF
:10B7E000024643F00100FBF707F92846F8BD00BF09
:10B7F000532E002068C60200B0C6020010C402002A
:10B8000040C4020074C40200A0C402004BDF7047B1
:10B8100010B5114C84B001A8FFF7F8FFA8B9214674
:10B8200002A8FCF7BBFE039B002BF4D0D3E9002158
:10B830000198904702A8FCF7BBFE039B002BF5D1B3
:10B8400001A8FFF7E3FF0028E9D0052801D0FBF7A6
:10B85000EDFC04B010BD00BFD8C4020008B5074B12
:10B86000044613B10021AFF30080054B1868836ACA
:10B8700003B19847204600F071F800BF00000000B7
:10B88000F0C4020070B50D4E0D4CA41BA410002591
:10B89000A54209D10B4E0C4C00F062F8A41BA41079
:10B8A0000025A54205D170BD56F8253098470135D1
:10B8B000EEE756F8253098470135F2E7C42400201A
:10B8C000C4240020C4240020C8240020044B054ABE
:10B8D0001B681B6A002B08BF1346D3F8EC007047A7
:10B8E000F42200205823002082B001B901A942B1FE
:10B8F0004BB113780B601278101C18BF012002B0F6
:10B9000070471046FBE76FF00100F8E710B5431EE3
:10B910000A44914200D110BD11F8014B03F8014FC8
:10B92000F7E702440346934200D1704703F8011B36
:10B93000F9E7034613F8012B002AFBD1181A013846
:10B94000704749B1FF2A85BF8A2303600A704FF010
:10B95000FF3098BF0120704708467047FEE700BFE0
:10B96000F8B500BFF8BC08BC9E467047F8B500BFEC
:10B97000F8BC08BC9E467047FFFFFFFFFFFFFFFFBC
:10B98000FFFFFFFFFFFFFFFF0000000000000000BF
:10B990000000D60106010000D563020041640200E8
:10B9A000D1630200756172745F6C6F675F6261637F
:10B9B0006B656E6400000000282A00207F000000F4
:10B9C000A82A00204261636B656E647320666C7503
:10B9D00073686564000000006170700034BA020092
:10B9E00064BA020014BA02006CBA020074BA02000F
:10B9F0007CBA020084BA02008CBA020094BA020037
:10BA00002025303278000000202020007C0000003B
:10BA1000256300001B5B313B33316D0025734C6F98
:10BA200067732064726F707065642028256429250F
:10BA3000730D0A001B5B306D0000000025730000D1
:10BA40003C25733E2025733A200000000D0A0000BB
:10BA5000000000009CBA0200A4BA0200ACBA0200C6
:10BA6000B4BA02001B5B313B33306D001B5B313BD2
:10BA700033326D001B5B313B33336D001B5B313B5D
:10BA800033346D001B5B313B33356D001B5B313B49
:10BA900033366D001B5B313B33376D006572726F5F
:10BAA000720000007761726E696E6700696E666F82
:10BAB000000000006465627567000000C82A00206D
:10BAC000466174616C206572726F72005379737491
:10BAD000656D207265736574000000000000000051
:10BAE0000338FDD8704700003031323334353637F3
:10BAF00038394142434445460CC602000CC6020098
:10BB0000040000007077725F6D676D7400000000C4
:10BB1000556E6B6E6F776E206572726F7220636FF9
:10BB200064650000000000004CBC02000100000041
:10BB300058BC02000200000078BC020003000000B4
:10BB40009CBC020004000000B0BC02000500000024
:10BB5000C4BC020006000000D8BC020007000000C0
:10BB6000F0BC02000800000008BD0200090000004F
:10BB700020BD02000A0000003CBD02000B000000D6
:10BB800054BD02000C0000006CBD02000D0000005E
:10BB900080BD02000E00000094BD02000F000000F6
:10BBA000A4BD020010000000B8BD0200110000009A
:10BBB000D0BD020012000000E0BD02001300000032
:10BBC000F8BD0200800000000CBE020081000000F1
:10BBD00030BE0200820000004CBE02008300000064
:10BBE00068BE02008400000088BE020085000000DC
:10BBF000ACBE020086000000D4BE0200900000002F
:10BC0000ECBE0200910000000CBF02009200000098
:10BC10002CBF02000082000044BF0200018200002D
:10BC200064BF02000282000080BF020000840000A6
:10BC30009CBF020001840000C0BF0200028400001B
:10BC4000ECBF02000384000014C002004E52465FA5
:10BC500053554343455353004E52465F4552524F4E
:10BC6000525F5356435F48414E444C45525F4D49E5
:10BC70005353494E470000004E52465F4552524FC3
:10BC8000525F534F46544445564943455F4E4F54C7
:10BC90005F454E41424C4544000000004E52465F15
:10BCA0004552524F525F494E5445524E414C00004E
:10BCB0004E52465F4552524F525F4E4F5F4D454D7B
:10BCC000000000004E52465F4552524F525F4E4FA9
:10BCD000545F464F554E44004E52465F4552524FB8
:10BCE000525F4E4F545F535550504F52544544008D
:10BCF0004E52465F4552524F525F494E56414C4953
:10BD0000445F504152414D004E52465F4552524FA2
:10BD1000525F494E56414C49445F5354415445008B
:10BD20004E52465F4552524F525F494E56414C4922
:10BD3000445F4C454E475448000000004E52465F59
:10BD40004552524F525F494E56414C49445F464C12
:10BD5000414753004E52465F4552524F525F494E43
:10BD600056414C49445F4441544100004E52465FA5
:10BD70004552524F525F444154415F53495A450026
:10BD80004E52465F4552524F525F54494D454F55B2
:10BD9000540000004E52465F4552524F525F4E557E
:10BDA0004C4C00004E52465F4552524F525F464F38
:10BDB0005242494444454E004E52465F4552524F0E
:10BDC000525F494E56414C49445F41444452000041
:10BDD0004E52465F4552524F525F425553590000F2
:10BDE0004E52465F4552524F525F434F4E4E5F4355
:10BDF0004F554E54000000004E52465F4552524F80
:10BE0000525F5245534F5552434553004E52465F81
:10BE10004552524F525F4D4F44554C455F4E4F5423
:10BE20005F494E495449414C495A4544000000007D
:10BE30004E52465F4552524F525F4D555445585FE2
:10BE4000494E49545F4641494C4544004E52465F75
:10BE50004552524F525F4D555445585F4C4F434BDE
:10BE60005F4641494C4544004E52465F4552524F51
:10BE7000525F4D555445585F554E4C4F434B5F46AE
:10BE800041494C45440000004E52465F4552524FD6
:10BE9000525F4D555445585F434F4E445F494E499C
:10BEA000545F4641494C4544000000004E52465FF5
:10BEB0004552524F525F4D4F44554C455F414C5295
:10BEC000454144595F494E495449414C495A4544BA
:10BED000000000004E52465F4552524F525F53548D
:10BEE0004F524147455F46554C4C00004E52465F0D
:10BEF0004552524F525F4150495F4E4F545F494D3A
:10BF0000504C454D454E5445440000004E52465F4E
:10BF10004552524F525F464541545552455F4E4F30
:10BF2000545F454E41424C45440000004E52465F2E
:10BF30004552524F525F494F5F50454E44494E471C
:10BF4000000000004E52465F4552524F525F44522D
:10BF5000565F5457495F4552525F4F5645525255AE
:10BF60004E0000004E52465F4552524F525F4452BF
:10BF7000565F5457495F4552525F414E41434B0013
:10BF80004E52465F4552524F525F4452565F54578D
:10BF9000495F4552525F444E41434B004E52465F0B
:10BFA0004552524F525F424C455F495053505F5289
:10BFB000585F504B545F5452554E434154454400D2
:10BFC0004E52465F4552524F525F424C455F495078
:10BFD00053505F4348414E4E454C5F414C524541A2
:10BFE00044595F4558495354530000004E52465F30
:10BFF0004552524F525F424C455F495053505F4C3F
:10C00000494E4B5F444953434F4E4E45435445447C
:10C01000000000004E52465F4552524F525F424C64
:10C02000455F495053505F504545525F52454A4520
:10C0300043544544000000001E1F0000636C6F6302
:10C040006B000000434C4F434B0000004750494FEA
:10C050005445000050525300554152540000000016
:10C060005541525445000000436F6E6E6563746520
:10C0700064000000446973636F6E6E656374656489
:10C080000000000053656E6420627574746F6E204A
:10C090007374617465206368616E67652E000000CB
:10C0A0005265636569766564204C4544204F4E2196
:10C0B000000000005265636569766564204C454464
:10C0C000204F4646210000004E6F726469635F4254
:10C0D0006C696E6B79000000426C696E6B7920654B
:10C0E00078616D706C6520737461727465642E0084
:10C0F00073645F626C655F6761705F646174615FE8
:10C100006C656E6774685F7570646174652829205A
:10C11000287265717565737429206F6E20636F6E68
:10C120006E656374696F6E2030782578207265744F
:10C1300075726E65642025732E00000054686520BA
:10C140007265717565737465642054582F52582058
:10C150007061636B6574206C656E677468206973C9
:10C1600020746F6F206C6F6E672062792025752FA9
:10C170002575206F63746574732E00005468652004
:10C1800072657175657374656420636F6D62696E45
:10C190006174696F6E206F6620545820616E642050
:10C1A0005258207061636B6574206C656E677468AB
:10C1B0007320697320746F6F206C6F6E67206279D3
:10C1C000202575206D6963726F7365636F6E64738C
:10C1D0002E00000073645F626C655F676174746356
:10C1E0005F65786368616E67655F6D74755F7265C2
:10C1F000717565737428292072657475726E656433
:10C200002025732E0000000073645F626C655F6719
:10C21000617474735F65786368616E67655F6D7480
:10C22000755F7265706C7928292072657475726EFD
:10C2300065642025732E00006E72665F626C655F18
:10C24000676174740000000023D1BCEA5F78231595
:10C25000DEEF121200000000010000073CC60200E1
:10C260003CC602000800000044C6020054C602009A
:10C27000080000003CC6020044C60200080000009E
:10C280006E72665F7364680073645F626C655F639F
:10C2900066675F73657428292072657475726E65B0
:10C2A00064202573207768656E20617474656D70F5
:10C2B00074696E6720746F2073657420424C455F0B
:10C2C000434F4E4E5F4346475F4741502E000000AC
:10C2D00073645F626C655F6366675F73657428296A
:10C2E0002072657475726E656420257320776865A9
:10C2F0006E20617474656D7074696E6720746F2050
:10C3000073657420424C455F4741505F4346475F29
:10C31000524F4C455F434F554E542E0073645F623D
:10C320006C655F6366675F73657428292072657446
:10C3300075726E6564202573207768656E20617460
:10C3400074656D7074696E6720746F2073657420F6
:10C35000424C455F434F4D4D4F4E5F4346475F56FE
:10C36000535F555549442E0073645F626C655F638B
:10C3700066675F73657428292072657475726E65CF
:10C3800064202573207768656E20617474656D7014
:10C3900074696E6720746F2073657420424C455F2A
:10C3A00047415454535F4346475F415454525F548E
:10C3B00041425F53495A452E0000000073645F629A
:10C3C0006C655F6366675F736574282920726574A6
:10C3D00075726E6564202573207768656E206174C0
:10C3E00074656D7074696E6720746F207365742056
:10C3F000424C455F47415454535F4346475F534562
:10C4000052564943455F4348414E4745442E00003C
:10C41000496E73756666696369656E742052414D35
:10C4200020616C6C6F636174656420666F72207448
:10C43000686520536F66744465766963652E0000F5
:10C440004368616E6765207468652052414D2073B2
:10C4500074617274206C6F636174696F6E206672B0
:10C460006F6D203078257820746F20307825782EF5
:10C47000000000004D6178696D756D2052414D20BE
:10C4800073697A6520666F72206170706C69636190
:10C4900074696F6E20697320307825782E00000053
:10C4A00073645F626C655F656E61626C65282920EC
:10C4B00072657475726E65642025732E000000002D
:10C4C0000CC602003CC60200080000006E72665FE7
:10C4D0007364685F626C650004C602000CC60200EB
:10C4E000080000006E72665F7364685F736F6300BC
:10C4F000F82200204300504F534958002E000020DE
:10C500002020202020202020282828282820202003
:10C5100020202020202020202020202020202088B3
:10C520001010101010101010101010101010100417
:10C530000404040404040404041010101010101067
:10C54000414141414141010101010101010101015B
:10C550000101010101010101010110101010101071
:10C56000424242424242020202020202020202022B
:10C570000202020202020202020210101010200047
:10C5800000000000000000000000000000000000AB
:10C59000000000000000000000000000000000009B
:10C5A000000000000000000000000000000000008B
:10C5B000000000000000000000000000000000007B
:10C5C000000000000000000000000000000000006B
:10C5D000000000000000000000000000000000005B
:10C5E000000000000000000000000000000000004B
:10C5F000000000000000000000000000000000003B
:04C600000000000036
:08C60400B98A020000000000E9
:10C60C00B1AB02000000000089AF0200482D0020F1
:10C61C0061A90200000000000DB20200742D002080
:10C62C0011B302005C2D002095A002000000000058
:08C63C00E18A02000000000089
:10C64400A1B502000000000011B8020000000000C3
:10C6540034250020FC250020042600203C25002051
:04C6640018000000BA
:10C6680044C00200000000004CC0020000000000AE
:10C6780054C002000000000058C002000000000082
:10C6880060C0020000000000D8B9020000000303E7
:10C698003CC002000000000038C202000000030392
:10C6A80080C2020000000303CCC4020000000303A0
:10C6B800E4C402000000030304BB02000000000001
:10C6C80098B9020000000000A4B90200CC220020A2
:08C6D800689BFF7F01000000D8
:10C6E000000000000020004000000000002000408A
:10C6F0000000000000000000FF0000000090D003D8
:10C700001C000300E99F0200082D00201F0000000C
:10C71000282D00201F000000FF00FFFFF82200204E
:10C720000000000000000000000000000000000009
:10C7300000000000000000000000000000000000F9
:10C7400000000000000000000000000000000000E9
:10C7500000000000000000000000000000000000D9
:10C7600000000000000000000000000000000000C9
:10C7700000000000000000000000000000000000B9
:10C780004300000000000000000000000000000066
:10C790000000000000000000000000000000000099
:10C7A0004300000000000000000000000000000046
:10C7B0000000000000000000000000000000000079
:10C7C0004300000000000000000000000000000026
:10C7D0000000000000000000000000000000000059
:10C7E0004300000000000000000000000000000006
:10C7F0000000000000000000000000000000000039
:10C8000043000000000000000000000000000000E5
:10C810000000000000000000000000000000000018
:10C8200043000000000000000000000000000000C5
:10C8300000000000000000000000000000000000F8
:10C8400043000000000000000000000000000000A5
:10C8500000000000000000000000000000000000D8
:10C8600043B90200E9B8020000000000FEC4020063
:10C87000FCC40200FDC40200FDC40200FDC40200AD
:10C88000FDC40200FDC40200FDC40200FDC402009C
:10C89000FDC40200FDC40200FFFFFFFFFFFFFFFF1A
:10C8A000FFFFFFFFFFFF0000010041534349490024
:10C8B0000000000000000000000000000000000078
:10C8C00000000000000000000000415343494900FF
:10C8D0000000000000000000000000000000000058
:10C8E00000000000000000000000000025620200BF
:04C8F00001620200DF
:04000003200062B5C2
:00000001FF
