:020000022000DC
:1060000000000120B5620200DD620200DF620200D2
:10601000E1620200E3620200E562020000000000AB
:10602000000000000000000000000000E762020025
:10603000E962020000000000EB620200ED62020073
:10604000BDE80200EF620200B1F502007D1B030013
:10605000EF620200EF620200D1F20200EF62020082
:10606000EF620200EF620200EF620200EF620200E4
:10607000EF620200EF620200EF620200EF620200D4
:10608000EF620200E1840200EF620200EF620200B0
:1060900021850200EF62020059C60300EF62020090
:1060A000EF620200EF620200EF620200EF620200A4
:1060B000EF620200EF62020000000000000000003A
:1060C000EF620200EF620200EF620200EF62020084
:1060D000EF620200EF620200EF62020000000000C7
:1060E00000000000000000000000000000000000B0
:1060F00000000000000000000000000000000000A0
:10610000000000000000000000000000000000008F
:10611000000000000000000000000000000000007F
:10612000000000000000000000000000000000006F
:10613000000000000000000000000000000000005F
:10614000000000000000000000000000000000004F
:10615000000000000000000000000000000000003F
:10616000000000000000000000000000000000002F
:10617000000000000000000000000000000000001F
:10618000000000000000000000000000000000000F
:1061900000000000000000000000000000000000FF
:1061A00000000000000000000000000000000000EF
:1061B00000000000000000000000000000000000DF
:1061C00000000000000000000000000000000000CF
:1061D00000000000000000000000000000000000BF
:1061E00000000000000000000000000000000000AF
:1061F000000000000000000000000000000000009F
:1062000010B5054C237833B9044B13B10448AFF3F0
:1062100000800123237010BD18250020000000001D
:10622000ACFC030008B5034B1BB103490348AFF3B3
:10623000008008BD000000001C250020ACFC03000D
:10624000154B002B08BF134B9D46A3F5803A002148
:106250008B460F461348144A121A16F0EFFD0F4BE7
:10626000002B00D098470E4B002B00D09847002001
:10627000002104000D000D48002802D00C48AFF3A7
:10628000008016F07DFD200029000DF015FA16F0B3
:1062900063FD00BF000008000000012000000000B6
:1062A0000000000018250020C03B00200000000076
:1062B000000000000649074A074B9B1A03DD043B18
:1062C000C858D050FBDC07F0A9F8FFF7B9FF000071
:1062D00060FE03001822002018250020FEE7FEE7DC
:1062E000FEE7FEE7FEE7FEE7FEE7FEE7FEE7FEE786
:1062F00080B584B000AF78607B68002B0AD0074B74
:1063000043F00103FB607B689B01BB60FB68B868DE
:10631000984700E000BF1037BD4680BDB0D10300F4
:1063200080B582B000AF78607B68002B0AD04FF454
:106330007A70FFF7DDFF7B68013B7B607B68002B99
:10634000F5D100E000BF0837BD4680BD80B500AF85
:106350000DF07EFB00BF80BD80B588B000AFF86057
:10636000B9607A607B68002B33D00023FB61042383
:10637000BB61BA68FB6913447A68194600200DF0C6
:1063800019FB7861FA697B691344FB617A687B6960
:10639000D31A7B607B69002B13D1104B1B7883F0E1
:1063A0000103DBB2002B13D10120FFF7B9FFBB695A
:1063B000013BBB61BB69002B03D1084B00221A7063
:1063C00007E0064B01221A707B68002BD1D100E058
:1063D00000BF00BF2037BD4680BD00BF3425002070
:1063E00080B584B002AF78603960064B00934023DB
:1063F000054A3968786800F01DF800BF0837BD46C7
:1064000080BD00BF596302003825002080B483B0EE
:1064100000AF786000BF0C37BD465DF8047B704765
:1064200080B483B000AF786000BF0C37BD465DF824
:10643000047B704780B5A0B002AFF860B9607A60A5
:106440003B60B86805F0EBFC7B68FB643B683B6530
:1064500000237B65002387F858300023FB65D7F8BD
:1064600080303B6600237B6707F134017B6F082295
:10647000B86805F097FD08237B67FB6B3B643B8F97
:10648000A7F844307B8FA7F84630002387F84930BF
:1064900097F8343003F00303DBB2012B29D17B6B77
:1064A000C3F39523BB6697F83430C3F3C203DBB262
:1064B00087F84830BB8EC3F38313DBB27B667B6EF9
:1064C0009A0007F11C017B6FB86805F06BFD7B6ECD
:1064D0009B007A6F13447B6707F1400207F11C01B0
:1064E00007F14C03009313467A6EB86E00F076FF06
:1064F00032E097F8343003F00303DBB2022B2BD1E8
:10650000FB8EC3F389139BB23B6797F83430C3F318
:10651000C203DBB287F848303B6F082B28BF082343
:10652000FB6607F114017B6FFA6EB86805F03AFD5F
:106530007A6FFB6E13447B673A6FFB6ED31A3B672F
:1065400007F14C0307F1400207F11400F96E00F067
:10655000E7FF3B6F002BDFD1B86805F070FC00BF90
:106560007837BD4680BD80B483B000AF78607B686B
:10657000DB6801225A7100BF0C37BD465DF8047B11
:106580007047000080B582B000AF4FF0FF337B60F2
:10659000FFF7DCFE0421054800F032FE7860034876
:1065A000FFF7E1FF00BF0837BD4680BD48FE03008E
:1065B00080B582B000AF786039607B681B681B686B
:1065C00039687868984700BF0837BD4680BD80B5F8
:1065D00082B000AF78607B681B685B68786898471A
:1065E00000BF0837BD4680BD80B582B000AF78607F
:1065F0007B681B689B687868984700BF0837BD4672
:1066000080BD80B483B000AF78600B46FB707B68C0
:10661000DB68FA781A7100BF0C37BD465DF8047B61
:10662000704780B483B000AF78607B68DB681B790B
:1066300018460C37BD465DF8047B704780B483B0C4
:1066400000AF78607B68DB6801225A7100BF0C37AD
:10665000BD465DF8047B704780B483B000AF7860BE
:106660007B68DB685B7918460C37BD465DF8047BB8
:106670007047000080B584B000AF78603960154B7A
:10668000FF229A60134B00221A60124B00225A60BC
:10669000104B0022C3F818240E4B0022C3F8142418
:1066A0000C4B002283F820240B4805F01FFBF860F8
:1066B000FB68002B01D0FB6808E0084805F005FDE9
:1066C000074A084BD31ADB08BB6000231846103773
:1066D000BD4680BDE026002074FD0300C8D1030044
:1066E00048FE030088FD030080B400AF044A054B58
:1066F000D31ADB081846BD465DF8047B704700BF1F
:1067000048FE030088FD030080B586B000AF7860C6
:106710000B46FB70FB78002B1FD0FFF7E5FF3861BD
:1067200000237B6113E07B699B000E4A1344FB60EE
:10673000FB681B881A467B681B689A4204D17B68F9
:106740007A691A60002309E07B6901337B617A6909
:106750003B699A42E7D3052300E000231846183727
:10676000BD4680BD1825002080B584B000AF78609C
:106770000B46FB70FA783B1D11461846FFF7C4FF25
:106780000346002B07D17B68DB00054A1344FB60FE
:10679000FB681B6800E0002318461037BD4680BD2B
:1067A00088FD030080B485B000AF78600B46FB70B5
:1067B0007B68DB00144A1344BB60FB78013B032B6E
:1067C00018D801A252F823F0D9670200DF6702004F
:1067D000E5670200ED6702000223FB730DE004236E
:1067E000FB730AE0BB681B79FB7306E0BB685B794F
:1067F000FB7302E00023FB7300BFFB7B18461437DA
:10680000BD465DF8047B704788FD030080B485B009
:1068100000AF786039600023FB737B681B7803F05E
:106820000403DBB2002B23D07B681B78C3F3010386
:10683000DBB2012B02D0022B0CD017E03B681B68A7
:106840007A681288C2F38312D2B213449A1C3B684E
:106850001A600BE03B681B687A685288C2F38912A1
:1068600092B213449A1C3B681A6000BF0123FB7369
:10687000FB7B18461437BD465DF8047B704700006B
:1068800080B58AB000AF0023FB84384804F075F867
:10689000374804F072F8374B5B683B61354B9B68B7
:1068A000BB613A69BB69134002339B00314A134410
:1068B00004333B6207F110031946386AFFF7A6FF5D
:1068C0000346002B09D03A69BB69134002339B0091
:1068D000284A134404333B62ECE700BF0023FB610A
:1068E00011E03B695A1C3A61BA691340FA69920097
:1068F000391D0A441F4902339B000B445B68136037
:10690000FB690133FB61FB69012BEAD93B79C3F3D6
:106910000103DBB2012B0ED0022B00D016E07B89E5
:10692000FB84FB88C3F389139BB203339A083B694A
:1069300013443B610AE07B89FB84BB88C3F3831368
:10694000DBB21A463B6913443B6100BF084804F0C0
:1069500021F878617B69002B02D03B69054A5360BE
:10696000FB8C18462837BD4680BD00BFF82A0020A2
:10697000F42A0020E026002080B584B000AF00217A
:10698000074803F026FFF860FB68BB60BB6883F331
:1069900010037B607B6818461037BD4680BD00BF82
:1069A000FC2A002080B588B000AFF860B9607A603A
:1069B0003B60FB681B0CBB61FFF7DEFFF861FB6906
:1069C00019043B685A1CBB6A1340BA690A431B4945
:1069D00002339B000B445A603A68BB6A134002338F
:1069E0009B00164A134404337B61FB6803F00703E2
:1069F000D9B27A69137861F3C50313707B6803F029
:106A00000F03D9B27A69138861F389131380BB68C5
:106A1000C3F315017A69136861F39F2313607A69E0
:106A20001378012161F3010313707A6913786FF30E
:106A30008203137000BF2037BD4680BDE0260020D2
:106A400080B58CB000AFF860B9601346FB71FB688D
:106A50000233BB62012387F827300023FB7607F15E
:106A60001B03184601F09EFE384B1A68BB681A607B
:106A7000364B9A68354B5968344B1B68CB1A134414
:106A80000133FB6214E00121314803F037FFFFF7C7
:106A9000F7FEF861F9692E4803F030FF2B4B9A6836
:106AA0002A4B5968294B1B68CB1A13440133FB62EC
:106AB000BA6AFB6A9A42E6D897F82730002B3BD097
:106AC00000237B61FB79002B11D03B7D012262F317
:106AD00001033B753B7D43F004033B75FB6803F00A
:106AE0000F03DAB2BB8A62F38913BB8210E03B7DED
:106AF000022262F301033B753B7D43F004033B75C7
:106B0000FB68C3F309039AB2FB8A62F38F13FB821B
:106B10000E4B1A680D4B9B68134002339B000B4AC7
:106B2000134404333B627A693B6A1A60074B1A6864
:106B3000BB6A1344054A1360FB7E184601F03DFE14
:106B400097F8273018463037BD4680BDE026002034
:106B5000FC2A002080B58AB002AFF860B9607A6084
:106B60003B60204B9B687B6107F1100301221946B3
:106B70003868FFF765FF0346002B24D03B690233DA
:106B8000FB610023BB6111E0BB699B007A681A447A
:106B9000FB69591CF96179690B401268114902338C
:106BA0009B000B445A60BB690133BB61BA693B6807
:106BB0009A42E9D33A697B69009313463A68B96807
:106BC000F868FFF7EFFE074B93F82034002B05D051
:106BD00000BF00F023F90346002BFAD100BF203795
:106BE000BD4680BDE026002080B582B000AF786051
:106BF00039600023002239687868FFF7ABFF00BFD7
:106C00000837BD4680BD80B586B000AFF860B9607A
:106C10007A607B687B6107F114020123B968F86828
:106C2000FFF798FF00BF1837BD4680BD80B586B01E
:106C300000AFF860B9607A603B607B683B613B689D
:106C40007B6107F110020223B968F868FFF782FF41
:106C500000BF1837BD4680BD80B588B000AFF86072
:106C6000B9607A603B607B687B613B68BB61BB6AF3
:106C7000FB6107F114020323B968F868FFF76AFFA4
:106C800000BF2037BD4680BD80B588B000AFF8603A
:106C9000B9607A603B607B683B613B687B61BB6A43
:106CA000BB61FB6AFB6107F110020423B968F86855
:106CB000FFF750FF00BF2037BD4680BD80B58CB0C8
:106CC00000AFF860B9601346FB80494B9B68FB62DC
:106CD000FB8803339B0807F1140100221846FFF7D5
:106CE000AFFE0346002B74D07B69BB627B69023325
:106CF0007B613F4B9A687969FB6A0B40D31A013379
:106D00009B007B62FB887A6A9A420DD37A69FB6AA0
:106D1000134002339B00364A13440433FA88B9689F
:106D2000184616F080F816E07A69FB6A13400233C1
:106D30009B002F4A134404337A6AB968184616F048
:106D400072F8BA687B6AD118FA887B6AD31A1A4635
:106D5000284816F068F8FB681B0C3B62FFF70CFE36
:106D6000F861FB691904BB6A5A1CFB6A13403A6A52
:106D70000A431F4902339B000B445A60BA6AFB6AFC
:106D8000134002339B001A4A13440433BB61FB686F
:106D900003F00703D9B2BA69137861F3C50313701E
:106DA000BA6913886FF38F131380FB88C3F3090349
:106DB00099B2BA69538861F38F135380BA69137813
:106DC000022161F301031370BA6913786FF3820330
:106DD0001370074B93F82034002B05D000BF00F050
:106DE0001DF80346002BFAD100BF3037BD4680BDE9
:106DF000E0260020EC26002080B400AF064B5A6845
:106E0000054B1B689A420CBF01230023DBB21846D6
:106E1000BD465DF8047B7047E026002080B598B041
:106E200000AFFFF7E9FF0346002B01D00023A9E1E3
:106E3000924B0022C3F81824BFF34F8F8F4B5B682F
:106E40003B618E4B9B683B643A693B6C1340023359
:106E50009B008A4A134404337B640023FB650023B0
:106E6000BB650023FB6307F110031946786CFFF73D
:106E7000CDFC0346002B19D0804BD3F81834002BDF
:106E800014D17E4B1A683B699A4205D87B4B1B682C
:106E90007A4A5360002375E13A693B6C1340023330
:106EA0009B00764A134404337B64DCE700237B6554
:106EB00011E03B695A1C3A613A6C13407A6D9200BA
:106EC000391D0A446D4902339B000B445B68136013
:106ED0007B6D01337B657B6D012BEAD93B7903F038
:106EE0000303DBB2022B40F09280FB88C3F38913CB
:106EF0009BB27B63FB88C3F389139BB2502B28BFE3
:106F000050239BB23B633B6BC3F309039AB2FB88EC
:106F100062F38F13FB803B6B0833FB623B79C3F357
:106F2000C203DBB2FB63F96A554804F0EBFEF86577
:106F3000FB6D002B00F0C580F86D04F070FF391D6B
:106F4000BB6D0822F86D05F017F8BB6D0833BB6503
:106F50003B69DA433B6C134001339B00BB623A6BE5
:106F6000BB6A9A423DD9BB6A002B08D03A693B6C98
:106F7000134002339B00414A1344043300E0414B69
:106F80003B62BB6A002B02D0BB6ADBB201E03B6B09
:106F9000DBB2FB77BB6A002B01D03A4B00E0002349
:106FA000BB61BB6A002B06D03B6BDAB2BB6ADBB2BB
:106FB000D31ADBB200E00023FB75FA7FBB6D396AA0
:106FC000F86D04F0D9FFFB7FBA6D1344BB65BB6954
:106FD000002B15D0FA7DBB6DB969F86D04F0CCFFBC
:106FE0000EE03A693B6C134002339B00234A134482
:106FF00004337B62BB6D3A6B796AF86D04F0BCFFB9
:107000007B6B03339A083B6913443B6159E03B793E
:1070100003F00303DBB2012B53D1BB88C3F383130B
:10702000DBB2062B28BF0623DAB2BB8862F38913D2
:10703000BB80BB88C3F38313DBB20233BB633B79F2
:10704000C3F3C203DBB2FB63BB6B9B0019460C4866
:1070500004F058FEF865FB6D002B32D0F86D04F09B
:10706000DEFE391DBB6D0822F86D04F085FFBB6D97
:107070000833BB6500237B651BE000BFE0260020D2
:1070800074FD0300EC2600203B695A1C3A613A6CFF
:10709000134002339B003D4A1344191DBB6D04226B
:1070A000F86D04F069FFBB6D0433BB657B6D013384
:1070B0007B65BB88C3F38313DBB21A467B6D9342B7
:1070C000E2D3FB6D002B3DD0304BD3F810343B6541
:1070D0002E4BD3F81834002B1BD0F86D04F0AFFE04
:1070E0004AE0002387F84F30386DFFF7B5FA0346C2
:1070F000002B02D0012387F84F3097F84F30002B38
:1071000003D0F96D386DFFF753FA3B6DDB681B68F0
:107110003B653B6D002BE4D1F86D04F090FE00233D
:10712000FB70FB1C184601F03DFB184BD3F81834DC
:10713000002B02D13B69154A5360FB78184601F0D9
:107140003CFB19E0114BD3F81034BB6406E0B86C7B
:10715000FFF74AFABB6CDB681B68BB64BB6C002B97
:10716000F5D10B4A0B4BD31ADB081B0443F0020387
:1071700009491846FFF738FDFFF73EFE034683F046
:107180000103DBB218466037BD4680BDE026002013
:10719000B8FD030088FD0300D8D1030080B584B09A
:1071A00000AF0023FB6020E0144BD3F81034BB6029
:1071B0000123FB710EE0B868FFF733FA03461A4665
:1071C000FB68934202D10023FB7106E0BB68DB68D9
:1071D0001B68BB60BB68002BEDD1FB79002B01D095
:1071E000FB6807E0FB680133FB60FB68092BDBDD14
:1071F0004FF0FF3318461037BD4680BDE026002013
:1072000080B584B000AF78600B46FB70FFF7C6FF17
:10721000F860FB68B3F1FF3F01D1FB6822E0FB6837
:10722000DBB219467868FFF7ECF9104BD3F810344D
:10723000002B08D10D4A7B68C2F810347B68DB68EC
:1072400000221A600DE0094BD3F81034DA687B682D
:10725000DB6812681A60054BD3F81034DB687A6873
:107260001A60FB6818461037BD4680BDE026002036
:1072700080B582B000AF0D4BD3F810347B600B4B60
:10728000012283F8202409E07868FFF7D7F97868AD
:10729000FFF79DF97B68DB681B687B607B68002BD0
:1072A000F2D100BF0837BD4680BD00BFE0260020F8
:1072B00080B483B000AF7860396000BF0C37BD4642
:1072C0005DF8047B7047000090B585B002AF786030
:1072D00039607B68DB88002B0AD07B68DB881A4624
:1072E0001F4B009313461F4A1F49386803F029FCBF
:1072F0007B681B7A052B2ED07B685B7A002B12D023
:107300007B689B881A467B681B7A19461046FFF7F4
:1073100049FA03461A46154B53F822301A461449C7
:10732000386803F00EFC7B681B6819463868FFF765
:10733000BFFF7B681B7A1A460E4B53F822407B68CE
:107340009B8800211846FFF70FFA034622460A4998
:10735000386803F0F6FB00BF0C37BD4690BD00BF98
:107360000CD203001CD2030054D2030034220020AC
:107370006CD203002022002070D2030080B584B0BC
:1073800000AFF860B9601346FB71FB681B7A052BF0
:107390000FD0FB685B7A002B06D00D4B1B681A469A
:1073A0000C49B86803F0CDFB0B49B86803F0C9FB82
:1073B00006E0FB79002B03D00749B86803F0C1FB56
:1073C000B86803F0A5FB00BF1037BD4680BD00BF05
:1073D000342200206CD203007CD20300B0B58AB006
:1073E00004AFF860B9607A603B60BB6A1B7BFB75D9
:1073F000BB6A00221A73B96A3868FFF765FF7B68B9
:10740000062B7FD801A252F823F000BF2974020096
:107410003374020043740200577402007574020052
:107420009D740200CD740200F968B86A03F089FB0C
:1074300069E0BB681B681A46F968B86A03F081FB0B
:1074400061E0BB681A68BB6804331B68F968B86AF6
:1074500003F077FB57E0BB681A68BB680433196810
:10746000BB6808331B6800930B46F968B86A03F0E1
:1074700068FB48E0BB681968BB6804331868BB68E0
:1074800008331B68BA680C321268019200930346F5
:107490000A46F968B86A03F054FB34E0BB68186820
:1074A000BB6804331C68BB6808331B68BA680C32BD
:1074B0001268B9681031096802910192009323465D
:1074C0000246F968B86A03F03CFB1CE0BB681C6824
:1074D000BB6804331D68BB6808331B68BA680C328C
:1074E0001268B96810310968B868143000680390F0
:1074F0000291019200932B462246F968B86A03F084
:1075000020FB00E000BF0022B96A3868FFF736FFB1
:10751000BB6AFA7D1A7300BF1837BD46B0BD00BF05
:1075200080B586B000AFF860B9607A603B60BB6838
:10753000082B5ED83B681B7BFB743B6800221A73E8
:1075400039687868FFF7C0FE00237B6114E07A6930
:10755000BB689A4209D2FA687B6913441B781A46C1
:107560002649386803F0EDFA03E02549386803F04E
:10757000E8FA7B6901337B617B69072BE7D92149F5
:10758000386803F0DEFA00237B6126E07A69BB6885
:107590009A421BD2FA687B6913441B78BB74BB7C8C
:1075A0007E2B0CD815F010FC0246BB7C0133134433
:1075B0001B7803F09703002B01D0BB7C00E02E2347
:1075C0001A461149386803F0BCFA03E00F493868DD
:1075D00003F0B7FA7B6901337B617B69072BD5D94F
:1075E000012239687868FFF7C9FE3B68FA7C1A7394
:1075F00000E000BF1837BD4680BD00BF80D2030049
:1076000088D203008CD2030090D2030094D20300EE
:107610002DE9F04F8DB000AFF860002387F82F30D0
:10762000A6E0594B1A6897F82F30DB001344BB6271
:10763000BB6A1B7819464FF001024FF00003A1F11D
:107640002006C1F1200003FA01FB02FA06F64BEA1C
:10765000060B22FA00F04BEA000B02FA01FAC7E926
:1076600008AB4A4BD3E90001D7E9082302EA00043A
:1076700003EA010522462B46134374D0D7E90823B9
:107680006FEA02006FEA0301404BD3E9002302EAEC
:10769000000203EA01033D49C1E90023BB6A1B78EC
:1076A000184607F003FE0346FB77BB6A1B781946B2
:1076B0004FF001024FF00003A1F12006C1F12000BC
:1076C00003FA01F47C6002FA06F67C6834437C60BD
:1076D00022FA00F07C6804437C6002FA01F33B600C
:1076E0002B4BD3E90023D7E9000100EA020001EAAD
:1076F000030104460D46FA7F4FF00003B96A09788A
:10770000A1F12006C1F1200003FA01F902FA06F600
:1077100049EA060922FA00F049EA000902FA01F8EA
:1077200020462946494508BF40451CD1FB7FBA6A1F
:107730005278012A0CBF01220022D2B293420CBF20
:1077400001230023DBB2DAB24FF00003C7E90423C0
:10775000BB6A5B68002B06D0BB6A5B68BA6A1278AA
:10776000397C1046984797F82F30013387F82F302F
:10777000084B1B7897F82F209A42FFF452AF00BFB6
:107780003437BD46BDE8F08F042B0020382B002095
:10779000302B0020082B0020F0B587B000AF7860B8
:1077A0000A46FA704FF001014FF000027868A0F12C
:1077B0002006C0F1200502FA00F401FA06F634436F
:1077C00021FA05F52C4301FA00F3C7E90434304BE4
:1077D000184600F049FFF860FB68002B54D12D4B90
:1077E000D3E90012D7E9043403EA010504EA0206EA
:1077F00055EA060337D1786807F058FD0346002B99
:107800000CD0254BD3E90012D7E9043443EA010533
:1078100044EA0206204AC2E900560FE0D7E90434E0
:107820006FEA03016FEA04021B4BD3E9005605EA35
:10783000010306EA0204184AC2E90034154BD3E9F1
:107840000012D7E9043443EA010544EA0206114A6A
:10785000C2E900560E48114B1B680022194600F081
:10786000CFFEF86011E0D7E904346FEA03016FEA54
:107870000402084BD3E9005605EA010306EA0204B4
:10788000044AC2E9003400E000BF1C37BD46F0BD29
:10789000102B0020382B0020302B00200C2B002038
:1078A00090B58BB000AFF8600B467A60FB727B68D6
:1078B000042B01D8072356E007F00EFC034683F0A3
:1078C0000103DBB2002B09D007F0BCFB78627B6AB6
:1078D0003B623B6A002B01D03B6A44E0244AFB68D0
:1078E0001360244AFB7A1370234A7B681360234A8F
:1078F0004FF000034FF00004C2E90034204A4FF07B
:1079000000034FF00004C2E9003421E0FB7ADB0001
:10791000FA681344FB6107F1140300210A461A8038
:107920000A469A7003233B75FB699B787B75FB695C
:107930001B78184607F11403124A194607F0DEFBBC
:1079400078627B6ABB61BB69002B01D0BB690AE02E
:10795000FB7A5A1EFA72002BD8D10B4A00210B4831
:1079600000F01AFE034618462C37BD4690BD00BFF6
:10797000042B0020082B00200C2B0020302B002093
:10798000382B0020997702001176020098D203006C
:1079900080B582B000AF00237B600CE00B4B1A680F
:1079A0007B68DB0013441B780121184607F016FCA6
:1079B0007B6801337B60064B1B781A467B689342D9
:1079C000ECD3002318460837BD4680BD042B0020A9
:1079D000082B002080B586B000AF78600023FB60E4
:1079E00000233B617B687B6107F10C031A46002191
:1079F00044F2010000F018F800BF1837BD4680BD02
:107A000080B400AFBFF34F8F054BDB6803F4E06237
:107A10000349044B1343CB60BFF34F8F00BFFDE717
:107A200000ED00E00400FA0580B584B000AFF86016
:107A3000B9607A6072B6FFF71BFC00BFFFF7EEF982
:107A40000346002BFAD1114A114BD31ADB081B0451
:107A500043F001030F491846FFF7C6F80E4B1B68A9
:107A600003F00103002B00D000BE084A084BD31AD4
:107A7000DB081B0443F0020308491846FFF7B4F87B
:107A8000FFF7BEFF00BF1037BD4680BDB8FD030045
:107A900088FD03009CD20300F0ED00E0A8D20300B3
:107AA00080B483B000AF0346FB71FB7903F01F0283
:107AB000074997F907305B09012000FA02F241F803
:107AC000232000BF0C37BD465DF8047B704700BF24
:107AD00000E100E080B483B000AF0346FB71FB79A6
:107AE00003F01F02074997F907305B09012000FAEC
:107AF00002F2203341F8232000BF0C37BD465DF869
:107B0000047B704700E100E080B483B000AF03461F
:107B1000FB71FB7903F01F02074997F907305B09F6
:107B2000012000FA02F2403341F8232000BF0C3755
:107B3000BD465DF8047B704700E100E080B483B08F
:107B400000AF0346FB71FB7903F01F02074997F969
:107B500007305B09012000FA02F2603341F823206C
:107B600000BF0C37BD465DF8047B704700E100E0C4
:107B700080B483B000AF03463960FB7197F90730DA
:107B8000002B0BDA3B68DAB20C49FB7903F00F03E8
:107B9000043B5201D2B20B441A7609E03B68DAB2D8
:107BA000074997F907305201D2B20B4483F80023FA
:107BB00000BF0C37BD465DF8047B704700ED00E068
:107BC00000E100E080B584B000AF78607B68002BF6
:107BD0000AD0074B43F00103FB607B689B01BB604D
:107BE000FB68B868984700E000BF1037BD4680BD0D
:107BF000C0D2030080B582B000AF7860054A7B68D0
:107C0000C2F8083506211120FFF7B2FF00BF083780
:107C1000BD4680BD0010014080B500AF0D4B4FF454
:107C20008032C3F844230B4B4FF48032C3F8042353
:107C30001120FFF783FF1120FFF732FF054B0122D0
:107C40001A602F20FFF7BEFF034B01221A7000BFFE
:107C500080BD00BF001001405E2C002080B500AF49
:107C60001120FFF737FF0F4B4FF48032C3F8482342
:107C70000C4B4FF48032C3F808230A4B01225A60A0
:107C80002F20FFF79FFF074B01229A60064B00222F
:107C90001A602F20FFF796FF044B00221A7000BFD6
:107CA00080BD00BF00100140502C00205E2C002041
:107CB00080B400AF034BD3F804351846BD465DF8D9
:107CC000047B70470010014080B483B000AF78603F
:107CD00039607A683B68D31A23F07F4318460C3723
:107CE000BD465DF8047B704780B483B000AF786018
:107CF000044A7B68C2F8403500BF0C37BD465DF8CA
:107D0000047B70470010014080B487B000AF7860FA
:107D1000294B1B68002B03D1274A7B68136045E081
:107D20007B681A68244B1B681B689A4210D8224B48
:107D30001B6819687B681A681F4B1B688A1A1A60CF
:107D40001D4B1A687B68DA611B4A7B6813602DE063
:107D50007B681B68FB60184B1B687B61164B1B68BC
:107D60003B6109E03B691B68FA68D31AFB603B6919
:107D70007B613B69DB693B613B69002B04D03B695C
:107D80001B68FA689A42EDD83B69002B05D03B6925
:107D90001A68FB68D21A3B691A607B68FA681A6035
:107DA0007B683A69DA617B697A68DA6100BF1C37FF
:107DB000BD465DF8047B70474C2C002080B586B032
:107DC00000AF7860294B1B68FB60284B1B687B6108
:107DD0007B693B6108E03A697B689A4208D03B695D
:107DE0007B613B69DB693B613B69002BF3D100E0C0
:107DF00000BF3B69002B01D1002333E07A693B6966
:107E00009A4214D1194B1B68DB69184A1360174B4F
:107E10001B68002B0BD1164B01229A60154B0022D8
:107E20001A60154B01221A702F20FFF7CBFE3B6919
:107E30001B68BB603B69DA697B69DA617B69DB6976
:107E40003B613B69002B05D03B691A68BB681A444B
:107E50003B691A60054B1B68FA689A4214BF0123FC
:107E60000023DBB218461837BD4680BD4C2C0020DD
:107E700000100140502C00205F2C002080B500AF86
:107E80001120FFF741FE00BF80BD80B500AF142078
:107E9000FFF73AFE00BF80BD80B582B000AF7860CA
:107EA0007B685B697A6892691046984700BF08371B
:107EB000BD4680BD80B584B000AF2B4B1B68002B46
:107EC0004ED000237B60FFF7F3FE0246274B1B6872
:107ED00019461046FFF7F8FEB860234B1B68FB609D
:107EE0001DE0FB681B68BA689A421CD3FB681B68DC
:107EF000BA68D31ABB60FB681B687A6813447B605E
:107F0000FB683B60FB68DB69FB603B681B7C002B0C
:107F100005D03B6800221A743868FFF7BDFFFB6884
:107F2000002BDED100E000BF114B1A78114B1B78FB
:107F30009A420CD10F4B1B780133DAB20D4B1A70F9
:107F40000C4B1B78022B02D10A4B00221A70094BF2
:107F50001B781946084A7B6842F82130FFF795FFE5
:107F600000BF1037BD4680BD4C2C0020502C002097
:107F70005C2C00205D2C0020542C002080B483B0A9
:107F800000AF7860194B1A78194B1B789A4223D0AE
:107F9000164B1B780133DAB2144B1A70134B1B7853
:107FA000022B02D1114B00221A70104B1B781A467B
:107FB000104B53F822207B681A607B681A680E4BBE
:107FC0001B6813440C4A13600B4B1B6823F07F4360
:107FD000094A1360012303E07B6800221A60002332
:107FE00018460C37BD465DF8047B70475C2C0020BA
:107FF0005D2C0020542C0020502C002080B489B02F
:1080000000AFF860B9607A600023FB6138E0214B73
:108010001B68BB61BB691B68FA689A4206D2BB69E0
:108020001A68FB68D21ABB691A602DE0BB691B682D
:10803000FA68D31AFB60BB691B68FA691344FB61D9
:10804000BB6900221A60134B1B687B61BB69DB694B
:10805000104A1360BB69DB68002B11D0BA68FB695A
:10806000134423F07F42BB695A60BB69DA68BB697D
:108070009A607B681A68BB69DA617B687A691A6002
:10808000044B1B68002BC2D100BF2437BD465DF8EE
:10809000047B70474C2C002080B588B000AF78601E
:1080A0000023FB77654B1B687B61A9E07B68002B95
:1080B00005D07B68BB61BB69DB697B6060E0604BBE
:1080C0001B781A4613465B001344DB005C4A1344DA
:1080D00004333B615A4B1B780133DAB2584B1A70A8
:1080E000574B1A78564B9B789A4202D1544B002238
:1080F0001A703B695B68BB613B691B78022B04D03B
:10810000032B1AD0012B1ED01CE03B695B6818467C
:10811000FFF754FE0346002B01D00123FB77BB6918
:1081200000221A746CE0454B1B68FB60FB68002260
:108130001A74FB68DB69414A1360404B1B68002BD3
:10814000F1D15DE05CE000BFBB691B7C002B00D07F
:1081500056E03B699A68BB695A603B69DA68BB695B
:108160009A603B691A69BB69DA603B695A69BB6905
:108170009A61344B1B78002B02D0BB6900225A60F5
:10818000BB695A68304B1B68D31A23F07F432F4AD0
:1081900093420ED8BB695A682B4B1B681946104690
:1081A000FFF792FD0246BB699B681A44BB691A60DF
:1081B00017E0254B1A68BB695B6819461046FFF744
:1081C00083FDB860BB699B68BA689A4206D2BB69F6
:1081D0009A68BB68D21ABB691A6002E0BB690022C8
:1081E0001A60BB6900225A60BB6900229A60BB69B1
:1081F00001221A74BB690022DA61B869FFF784FDB5
:108200007B68002B7FF452AF0D4B1A780C4B5B78D8
:108210009A427FF44BAFFB7F002B04D1074B1B68C6
:108220007A699A4201D0012300E0002303F00103A0
:10823000DBB218462037BD4680BD00BF4C2C002065
:10824000402B00205F2C0020502C0020FEFF7F00E0
:1082500090B589B000AF7860274B1B68002B44D0E5
:10826000254B1B681B68FB61FFF722FDB861234BA0
:108270001B687B617969B869FFF726FD0346033304
:108280003B611F4B1B7883F00103DBB2002B01D055
:10829000FFF7C2FC3A69FB69934238BF13467A691B
:1082A00013447B617B6923F07F437B617869FFF72F
:1082B0001BFDFFF7FDFCF860B969F868FFF704FDE6
:1082C0000346DC1CB9697869FFF7FEFC03469C4253
:1082D0000DD9FFF7EDFC03461846FFF705FD2F20EB
:1082E000FFF770FCFFF7CAFD01E0FFF7B7FC00BF26
:1082F0002437BD4690BD00BF4C2C0020502C0020E0
:108300005E2C002080B586B000AF00237B60002388
:10831000FB75164B1B683B61154B1B68FB603B46AE
:108320001846FFF72BFE0346FB72FB7A002B07D0A3
:108330003B683A1D39691846FFF760FE0123FB755B
:108340007B681846FFF7A8FE0346002B01D00123E7
:10835000FB75FB7D002B02D0F868FFF779FF054B1A
:1083600000221A7000BF1837BD4680BD502C002077
:108370004C2C00205F2C002080B483B000AF03465B
:10838000FB71044AFB79537000BF0C37BD465DF8A2
:10839000047B7047402B002080B485B000AF78602C
:1083A000134B5B780133FB73114B9B78FA7B9A423A
:1083B00001D10023FB730E4B1B78FA7B9A4201D14B
:1083C00000230EE07B68FA7B1A70094B5B781A4633
:1083D00013465B001344DB00054A13440433BB60BF
:1083E000BB6818461437BD465DF8047B704700BF74
:1083F000402B002080B588B000AFF860B9607A608B
:108400003B600023FB610023BB7507F11603184690
:1084100000F0C8F907F117031846FFF7BDFFB86170
:10842000BB69002B02D10423FB6117E0BB69012269
:108430001A70BB69FA685A60FFF73AFC0246BB69DA
:108440009A60BB69BA68DA60BB697A681A61BB690D
:108450003A685A61FB7D1846FFF78EFFBB7D1846D0
:1084600000F0ABF9FB69002B01D1FFF70EFDFB69B2
:1084700018462037BD4680BD80B586B000AF786015
:108480000B46FB7000237B610023BB7307F10E03D7
:10849000184600F087F907F10F031846FFF77CFF35
:1084A00038613B69002B02D104237B6109E03B6901
:1084B000FA781A703B697A685A60FB7B1846FFF7B6
:1084C0005BFFBB7B184600F078F97B69002B01D17C
:1084D000FFF7DBFC7B6918461837BD4680BD0000FE
:1084E00080B500AF0D4B0022C3F840210B4B00229A
:1084F000C3F84421094B0022C3F84821074B00224E
:10850000C3F84C21054B0022C3F80021034B002285
:10851000C3F80421FFF7CEFC00BF80BD001001406E
:1085200080B500AFFFF7EEFE00BF80BD80B500AFA5
:10853000FFF794FB134B00221A70124B00225A7063
:10854000104B0B229A70104B00221A600F4B002226
:108550001A700F4B00221A701420FFF7EFFA062151
:108560001420FFF705FB1420FFF79AFA0020FFF70D
:1085700041FBFFF79DFB0246064B1A60002318469D
:1085800080BD00BF402B00204C2C00205C2C002024
:108590005D2C0020502C002080B487B000AFF86024
:1085A0000B467A60FB72154B9B78002B01D1082398
:1085B0001DE07B68002B01D1072318E0FB68002B2E
:1085C00001D1072313E0FB681B681B7C002B01D043
:1085D00008230CE0FB681B687B617B6900221A742E
:1085E0007B69FA7A5A747B697A685A610023184663
:1085F0001C37BD465DF8047B704700BF402B002050
:1086000080B586B000AFF860B9607A60FB687B61C6
:10861000144B9B78002B01D108231EE0FB68002B34
:1086200001D1082319E0BB68042B01D8072314E00B
:108630007B695B69002B01D108230EE07B695B7CC1
:10864000012B01D1BB6800E000233B617B683A69E4
:10865000B9687869FFF7CEFE034618461837BD465D
:1086600080BD00BF402B002080B584B000AF786093
:108670007B68FB600D4B9B78002B01D1082310E039
:108680007B68002B03D0FB685B69002B01D10823BA
:1086900007E0FB6800221A740221F868FFF7ECFE7D
:1086A000034618461037BD4680BD00BF402B002052
:1086B00080B483B000AFEFF310833B603B687B6016
:1086C00072B67B6818460C37BD465DF8047B704770
:1086D00080B400AF62B600BFBD465DF8047B704752
:1086E00080B584B000AF7860FFF7E2FFF860164B0A
:1086F0009B68002B1BD1144B01229A60134BD3F8BB
:108700008020134B1340104A1360104B104AC3F8DB
:1087100080200E4BD3F884300B4A53600B4B4FF044
:10872000FF32C3F884207B6800221A7002E07B6865
:1087300001221A70FB68002B01D1FFF7C9FF00234B
:1087400018461037BD4680BD103B002000E100E018
:10875000FC06FFBD80B584B000AF0346FB710F4B34
:108760009B68002B15D0FB79002B12D1FFF7A0FFDF
:10877000F8600B4A094B1B681360094A074B5B689A
:108780005360064B00229A60FB68002B01D1FFF773
:108790009FFF002318461037BD4680BD103B0020C8
:1087A00000E100E080B582B000AF78607868FFF744
:1087B00097FF00BF0837BD4680BD80B582B000AFCF
:1087C0000346FB71FB791846FFF7C4FF00BF08376B
:1087D000BD4680BD80B483B000AF78607B6803F095
:1087E0000303002B0CBF01230023DBB218460C3718
:1087F000BD465DF8047B704780B584B000AF7860FB
:108800000023FB600EE00B4AFB6852F82330002B7C
:1088100005D0084AFB6852F8233078689847FB680F
:108820000133FB60FB68032BEDD900BF1037BD4659
:1088300080BD00BF702C002080B483B000AF786092
:1088400039607B681B78013B052B61D801A252F887
:1088500023F000BF6D880200758802009B8802002B
:10886000CD880200ED880200098902003B680022E1
:108870001A704EE03B6801221A707B681A893B68C7
:108880009A817B689A883B68DA817B68DA683B6802
:108890009A603B6800221A743BE03B6802221A701F
:1088A0007B681A893B689A817B689A883B68DA8181
:1088B0007B68DA683B689A607B689B7D062B0CBFFF
:1088C00001230023DAB23B681A7422E03B680322DA
:1088D0001A707B68DA883B689A817B681A893B68E2
:1088E000DA817B68DA683B689A6012E03B680422B0
:1088F0001A707B68DA883B689A813B680022DA81CB
:108900003B6800229A6004E03B6805221A7000E090
:1089100000BF00BF0C37BD465DF8047B704700BF49
:1089200080B485B000AF786039607B68FB60FA681E
:108930003B689A4206D2FB681B68B3F1FF3F01D047
:10894000012300E0002303F00103DBB218461437D3
:10895000BD465DF8047B704780B483B000AF78609B
:108960007B685B8803339B007A68134418460C3796
:10897000BD465DF8047B704780B582B000AF78607B
:1089800039607868FFF7E8FF02463B68934201D2FE
:1089900002230CE07B689B884FF6FF72934203D062
:1089A0007B681B88002B01D1012300E000231846BF
:1089B0000837BD4680BD000080B582B000AF78604A
:1089C0007B68002B13D00E4BDB681A467B68934202
:1089D0000DD30B4B1B691A467B68934207D8786806
:1089E000FFF7F8FE0346002B01D0012300E000232F
:1089F00003F00103DBB218460837BD4680BD00BF57
:108A00000425002080B483B000AF78607B68002B21
:108A100004D07B681B680C4A934201D003230DE00D
:108A20007B6804331B68094A934204D0084A934286
:108A300003D1012302E0002300E0032318460C3792
:108A4000BD465DF8047B7047DEC0ADDEFE011EF161
:108A5000FF011EF180B485B000AF78600023FB6099
:108A60000CE0FB689B007A6813441B68B3F1FF3F7E
:108A700001D0002307E0FB680133FB60FB68B3F51E
:108A8000806FEED3012318461437BD465DF8047B92
:108A90007047000080B483B000AF03460A46FB80F5
:108AA0001346BB80FA88124913469B0013449B006F
:108AB0000B4408331A88BB881344BB80FA880C49DE
:108AC00013469B0013449B000B440A331A88BB884F
:108AD0001344BB80BB8840F2FF32934294BF012312
:108AE0000023DBB218460C37BD465DF8047B7047A7
:108AF000202D002080B485B000AF786039600A2353
:108B0000FB6000237B8122E07A89164913469B0093
:108B100013449B000B4404331B683A689A4213D9F0
:108B20007A89104913469B0013449B000B4404337D
:108B30001B6803F580533A689A4205D20023FB6014
:108B40007B687A891A8005E07B8901337B817B8988
:108B5000012BD9D9FB6818461437BD465DF8047B54
:108B6000704700BF202D002080B588B000AFF860AE
:108B7000B9607A60FB6803F58053BB61FB6808331A
:108B8000FB60BB6802221A80FB68FB612FE0B969B9
:108B9000F869FFF7F1FE0346FB75FB7D002B0AD158
:108BA000FB699A68174B1B689A4212D9FB699B684C
:108BB000144A13600DE07B68002B02D07B68012211
:108BC0001A70FB7D022B04D1BB684FF480621A80BF
:108BD00014E0BB681A88FB695B8813449BB20333BB
:108BE0009AB2BB681A80F869FFF7B6FEF861B969F6
:108BF000F869FFF795FE0346002BC8D12037BD4624
:108C000080BD00BF802C002080B483B000AF7860AE
:108C100039603B689B7D022B09D97B681A893B68C8
:108C2000DB8813449BB203339AB27B681A817B685A
:108C30005A893B68DB88D31A9BB2033B9AB27B68A4
:108C40005A8100BF0C37BD465DF8047B70470000B9
:108C500080B582B002AF074B1B6819460023009312
:108C60000823054A054802F06DFB03461846BD4639
:108C700080BD00BF482D0020C8D20300042500207D
:108C800080B584B002AF7860796800230093082330
:108C9000044A054802F056FB034618460837BD460D
:108CA00080BD00BFD0D203000425002080B584B071
:108CB00000AF03463960FB800023FB73FB8803335E
:108CC0007B817B8940F2FD32934201D909233DE04B
:108CD0000023BB8131E0BA891E4913469B0013442F
:108CE0009B000B441B78002B24D17A89BB89114649
:108CF0001846FFF7CFFE0346002B1BD00123FB7362
:108D00003B68BA891A80BA89124913469B001344FA
:108D10009B000B440A331988BA897B890B4498B2AB
:108D20000C4913469B0013449B000B440A33024634
:108D30001A8005E0BB890133BB81BB89012BCAD9ED
:108D4000FB7B002B01D0002300E0072318461037DF
:108D5000BD4680BD202D002080B483B000AF034607
:108D60000A46FB801346BB80BA880E4913469B0017
:108D700013449B000B440A331A88FB88D31A9BB216
:108D8000BA88033B98B2074913469B0013449B00E3
:108D90000B440A3302461A8000BF0C37BD465DF80B
:108DA000047B7047202D002080B500AF01210348CF
:108DB00001F0A4FD0346184680BD00BF802C0020B2
:108DC00080B584B000AF03463960FB80FA88234940
:108DD00013469B0013449B000B4404331B6803F5AC
:108DE0008053BB603B681B68FB60FB68002B04D0B2
:108DF000F868FFF7B1FDF86023E0FA8817491346D9
:108E00009B0013449B000B4404331B680833FB6036
:108E100017E0B968F868FFF7AFFD0346012B09D0EA
:108E2000022B0CD0002B00D00BE03B68FA681A60D4
:108E300001230EE0F868FFF78FFDF86001E00023E2
:108E400007E0B968F868FFF76BFD0346002BE0D137
:108E5000002318461037BD4680BD00BF202D0020DE
:108E600080B584B000AF786039607B685B68184675
:108E7000FFF7A2FD0346002B19D07B681A89254B0A
:108E80001B899A4213D17B681A687B685B689B6870
:108E90009A420CD17B685B6819463868FFF72AFE56
:108EA0000346002B0CBF01230023DBB22DE03B68FF
:108EB00000221A8024E00023BB6010E0BB68FB6046
:108EC000FB689A687B681B689A4208D1BA687B681D
:108ED0005A60104B1A897B681A81012315E03B68A0
:108EE0001B8807F1080211461846FFF769FF034681
:108EF000002BE3D13B681B8801339AB23B681A8090
:108F00003B681B88012BD6D9002318461037BD4675
:108F100080BD00BF502D002080B586B000AFF86046
:108F2000B9607A603B60314B1B78DBB283F00103A0
:108F3000DBB2002B01D0022353E07B68002B02D070
:108F40003B68002B48D105234BE03B689B881946C2
:108F5000274A0B469B000B449B0013441B78002BB5
:108F600033D124E03B681B687B61FB68002B06D093
:108F70007B699A88FB681B889A4200D017E0BB681F
:108F8000002B06D07B691A88BB681B889A4200D0E8
:108F90000DE07B699A687B681A603B681A687B6899
:108FA0005A60144B1A897B681A81002319E03B68C8
:108FB0009B883A6811461846FFF702FF0346002BCC
:108FC000D0D13B6800221A6000E000BF3B689B885C
:108FD00001339AB23B689A803B689B88012BB4D9D5
:108FE0000A2318461837BD4680BD00BF602C0020FC
:108FF000202D0020502D002080B584B000AF786077
:10900000074B7968184601F0C4FAF8601C22002169
:10901000F86813F013FFFB6818461037BD4680BD93
:10902000102D002080B582B000AF7860044B7968C5
:10903000184601F0C8FA00BF0837BD4680BD00BF22
:10904000102D002080B582B000AF7860044B7968A5
:10905000184601F0CDFA034618460837BD4680BDD4
:10906000102D002080B582B000AF7860044B796885
:10907000184601F0D7FA00BF0837BD4680BD00BFD3
:10908000102D002080B500AF0121054801F04FFCF4
:109090000346002B14BF01230023DBB2184680BD1A
:1090A000682C002080B586B000AF00237B610023D0
:1090B0007B8203233B820023FB730023BB81D2E02E
:1090C000BB891B031A466F4BDB681344BB60B8684F
:1090D000FFF798FC0346FB71FB79012B00F08980B8
:1090E000032B02D0002B55D0BAE0B868FFF7B2FCD2
:1090F0000346002B34D0644B1B68002B23D07A8AA4
:10910000624913469B0013449B000B4402221A70D1
:109110007A8A5E4913469B0013449B000B44043338
:10912000BA681A607A8A594913469B0013449B0017
:109130000B44083302221A80554A7B8A53807B8A6B
:1091400001337B8207E0504ABB6813604E4B02221A
:109150009A800123FB737B6943F001037B617FE00D
:109160003B8A013B3B827A8A484913469B00134461
:109170009B000B440433BA681A607A8A4349134649
:109180009B0013449B000B4403221A707B8A01331B
:109190007B8265E07A8A3D4913469B0013449B001D
:1091A0000B4400221A707A8A384913469B001344F4
:1091B0009B000B440433BA681A607A8A13469B00FA
:1091C00013449B000833314A99187A8A13469B004E
:1091D00013449B0010332D4A13441A46B868FFF716
:1091E000C3FC7B6943F002037B617B8A01337B8292
:1091F00036E0FB7B002B20D07A8A244913469B0063
:1092000013449B000B4402221A707A8A1E4B196881
:109210001E4813469B0013449B000344043319600B
:109220007A8A1A4913469B0013449B000B44083367
:1092300002221A807B8A01337B82134ABB68136047
:1092400000221449B868FFF78FFC0F4B9B88022B54
:1092500001D1042300E008237A6913437B6100BF36
:10926000BB890133BB81BB89022B7FF629AF3B8AC7
:10927000012B01D800237B617B69DBB218461837CC
:10928000BD4680BD04250020482D0020202D002053
:10929000502D00204C2D002080B586B002AF7860A4
:1092A00039607B6802229A7539687B681A1D002331
:1092B00000930423064802F045F8F860FB68002B91
:1092C00001D1002300E00E2318461037BD4680BDB3
:1092D0000425002080B586B002AF786039607B68D5
:1092E0001B69002B01D0032200E001227B689A75E4
:1092F0003B68083319467B6803F10C020023009396
:109300000423074802F01EF8F860FB68002B01D127
:10931000002300E00E2318461037BD4680BD00BF75
:109320000425002080B586B002AF786039607B6884
:109330001B78032B01D1052200E006227B689A7579
:109340003B68043319467B6803F10802002300934D
:109350000423074801F0F6FFF860FB68002B01D1F9
:10936000002300E00E2318461037BD4680BD00BF25
:109370000425002080B586B002AF78600B467B8064
:1093800079680023009304230C4A0D4801F0DAFFAA
:10939000F860FB68002B01D00E230AE07A880949A7
:1093A00013469B0013449B000B44103301221A7098
:1093B000002318461037BD4680BD00BFD8D2030039
:1093C00004250020202D002080B588B000AF7860F3
:1093D00007F1080300221A605A609A607B68DB6814
:1093E000BB6007F1160207F1080311461846FFF7A4
:1093F00037FD0346002B11D0FB68BB61BB699A881F
:109400007B68DA80BB691A887B681A81FB68FA8AF4
:1094100011461846FFF7AEFFF86101E00A23FB6131
:10942000FB6918462037BD4680BD000080B586B078
:1094300000AF78607B68981D07F108020D4B002192
:10944000FFF76AFD78617B69002B08D1FA68094B48
:109450009B8819461046FFF78DFF786104E00822CB
:109460000021044813F0EAFC7B6918461837BD4612
:1094700080BD00BF602D002080B586B002AF78604F
:1094800039607B6801229A753B680C3318467B680B
:109490001A697B68DB889900002300930B4601461C
:1094A000064801F04FFFF860FB68002B01D1002354
:1094B00000E00E2318461037BD4680BD042500206D
:1094C00080B483B000AF164B1B8901339AB2144BA2
:1094D0001A81134B00225A80114B00221A73002369
:1094E000FB8014E0FA880F4913469B0013449B004D
:1094F0000B441A78FB88002A0CBF01220022D1B24B
:10950000074A13440A469A72FB880133FB80FB88A2
:10951000012BE7D900BF0C37BD465DF8047B7047CF
:10952000502D0020202D002080B485B000AF786041
:109530000023FB730023BB8129E0BB89194A134434
:109540009B7A002B20D0BB89164A134400229A72C2
:10955000BA89154913469B0013449B000B440C33F6
:109560001B68002B10D1BA890F4913469B00134486
:109570009B000B4410331B78002B05D07B68BA8905
:109580001A800123FB7305E0BB890133BB81BB89D2
:10959000012BD2D9FB7B18461437BD465DF8047BFE
:1095A000704700BF502D0020202D002080B500AF57
:1095B000084B05221A70084B02229A80064B1B6842
:1095C000194600230122054801F0A0FF0346184672
:1095D00080BD00BF502D0020482D00200425002014
:1095E00080B582B000AF154B5B887B807A881449C8
:1095F00013469B0013449B000B440C331B68002B49
:1096000013D10E4B04221A707A880D4913469B0021
:1096100013449B000B4404331B68194600230122AA
:10962000084801F073FF786002E0FFF7BFFF786041
:109630007B6818460837BD4680BD00BF502D00200E
:10964000202D00200425002080B586B002AF104BED
:109650005B68FB600F4B1A680E4B9B889B001344A2
:10966000BB60FB685B880333FB80094B03221A70E5
:10967000B968074B5A68FB8898000023009303469B
:10968000054801F05FFE034618461037BD4680BD11
:10969000502D0020482D00200425002080B582B0E8
:1096A00000AF0A4B5B880A491846FFF789FB03465F
:1096B000002B03D0FFF7C8FF786002E0FFF790FFB0
:1096C00078607B6818460837BD4680BD502D002065
:1096D000542D002080B500AF094B06221A70084BAC
:1096E0005B881946074A0B469B000B449B001344BA
:1096F00004331B681846FFF7C3FA0346184680BDBB
:10970000502D0020202D002080B500AF054B0722F2
:109710001A70044B00225A60FFF79AFA0346184663
:1097200080BD00BF502D002080B500AF0C48FFF772
:10973000FBFE034683F00103DBB2002B0BD0094B89
:1097400000221A70074B00225A80064B00225A60F2
:1097500041F61D5302E0FFF7A1FF0346184680BD06
:10976000522D0020502D002080B483B000AF0A4B52
:109770005B687B607B685B8803337B80074B9A88E0
:109780007B8813449AB2054B9A8000BF0C37BD46C4
:109790005DF8047B704700BF502D0020482D00204D
:1097A00080B483B000AF194B1B687B60184B5B889B
:1097B0001946184A0B469B000B449B001344043384
:1097C0001B68124A1360124B5B881946114A0B46FC
:1097D0009B000B449B00134404337A681A600C4BC3
:1097E0005B881946094B98880A4A0B469B000B4434
:1097F0009B001344083302461A80044B02229A80CD
:1098000000BF0C37BD465DF8047B7047482D002033
:10981000502D0020202D002080B500AF1A4B1B7862
:10982000072B2DD801A252F823F000BF4D9802005B
:109830008198020081980200599802006598020000
:10984000719802007198020079980200FFF738FEC3
:109850000D4B01221A7014E0FFF786FF0A4B02221B
:109860001A700EE0FFF79CFF074B06221A7008E003
:10987000054B07221A7004E0034B01221A7000E026
:1098800000BF00BF80BD00BF502D002080B586B056
:1098900000AF786039600F237B617B68002B04D0B8
:1098A0005B4B00225A600123ADE03B681B79032B20
:1098B00000F29D8001A252F823F000BFCD98020073
:1098C000DB98020055990200759902003B6801225D
:1098D0001A71FFF7BDF978618CE00023FB74002357
:1098E0003B8225E03A8A4B4913469B0013449B0078
:1098F0000B441B78022B18D13A8A464913469B0029
:1099000013449B000B4400221A700123FB743A8A13
:10991000404913469B0013449B000B4404331B68CF
:109920001846FFF7ADF9786105E03B8A01333B82C9
:109930003B8A012BD6D9FB7C83F00103DBB2002BE1
:1099400057D0334B01221A70314B00225A6041F636
:109950001D5358E03B6800221A712F4B02229A8057
:109960002D4B1B681946002301222C4801F0CEFD27
:1099700078613FE03B6800221A71274B1B6818464C
:10998000FFF77EF97861264B5B88FB81224B1B68D1
:10999000BB60FA891F4913469B0013449B000B448C
:1099A00004331B681C4A1360FA891A4913469B004A
:1099B00013449B000B440433BA681A60FA89164BAF
:1099C0009888144913469B0013449B000B440833AA
:1099D00002461A80104B02229A80FA890D491346DA
:1099E0009B0013449B000B4400221A7002E000BF4E
:1099F00000E000BF7B69002B04D0054B00225A60B9
:109A00000E2300E0002318461837BD4680BD00BF76
:109A1000602C0020202D0020482D0020042500204F
:109A2000502D002080B586B000AF786039603B686B
:109A30009B8A1A4613469B0013449B00394A1344E1
:109A40003B617B68002B05D039683869FFF7DCF88B
:109A5000012362E03B695A683B691B899B00134400
:109A6000FB603B689B7D062B4CD801A252F823F08B
:109A7000B39A0200D79A0200BF9A0200CB9A020062
:109A80008D9A0200E39A0200FD9A0200264B002202
:109A90005A603B689B69244A136024492248FFF7B7
:109AA000DFF9034683F00103DBB2002B01D00A2368
:109AB00033E0F9683868FFF7EFFB786125E0F96873
:109AC0003868FFF707FC78611FE0F9683868FFF72E
:109AD000D3FC786119E0F9683868FFF723FC7861F6
:109AE00013E03B6806229A750F4B5A680F4B1B8890
:109AF00019461046FFF73EFC786106E041F61D531B
:109B00007B6102E00F237B6100BF7B69002B03D0E8
:109B100039683869FFF778F87B6918461837BD4609
:109B200080BD00BF202D0020682D0020742D002056
:109B300080B584B000AF786039607B68002B01D0BD
:109B4000012323E03B681B79012B0BD0022B14D09F
:109B5000002B16D13B6802221A713868FFF734FCDB
:109B6000F86012E03868FFF761FCF860FB680A2BC8
:109B70000AD141F61D53FB6006E041F61D53FB6020
:109B800003E00F23FB6000E000BFFB6818461037BE
:109B9000BD4680BD80B584B000AF78607B68002B87
:109BA00001D001233CE0204B1B7B002B03D01E4B3C
:109BB00000221A7301E0FFF72FFE1B4B1B78013BBD
:109BC000062B29D801A252F823F000BFE99B02001E
:109BD000F19B0200F99B0200019C0200199C02000B
:109BE000099C0200119C0200FFF79EFDF86016E040
:109BF000FFF754FDF86012E0FFF726FDF8600EE075
:109C0000FFF7EEFCF8600AE0FFF764FDF86006E09D
:109C1000FFF77AFDF86002E00F23FB6000BFFB68EE
:109C200018461037BD4680BD502D002080B588B045
:109C300000AF78603C4B1B68002B05D13B48FFF719
:109C400001FA0246384B1A60374B1B681B78013B00
:109C5000052B2CD801A252F823F000BF759C0200FE
:109C6000859C0200859C0200959C0200959C020048
:109C7000A59C02002C4B1B6819467868FFF706FE6E
:109C8000786017E0284B1B6819467868FFF7CAFE12
:109C900078600FE0244B1B6819467868FFF748FF8F
:109CA000786007E07868FFF775FF786002E00F23BF
:109CB0007B6000BF7B68002B2ED007F10C030022D5
:109CC0001A605A609A60DA601A617B6841F61D5228
:109CD000934201D07B6800E000233B61124B1B687C
:109CE00007F10C0211461846FEF7A6FD07F10C031A
:109CF0001846FEF781FD0C4B00221A6000237B60A2
:109D00000A48FFF7AFF9FFF7BDF9034683F00103F7
:109D1000DBB2002B02D18DE700BF00E000BF00BF27
:109D20002037BD4680BD00BF782D00207C2D00204F
:109D300080B500AF0121054800F0C7FD0346002BA8
:109D400002D10020FFF772FF00BF80BD682C002009
:109D500080B582B000AF78607B685B681846FFF71B
:109D600065FF00BF0837BD4680BD000080B58AB0E2
:109D700000AFF860B9607A60FB700023BB840023F9
:109D8000FB844C4B1B78DBB283F00103DBB2002B6E
:109D900001D002238AE0BB68002B01D1052385E0B6
:109DA000BB681B884FF6FF72934203D0BB685B8889
:109DB000002B01D1042379E0BB685B681846FEF7ED
:109DC00009FD034683F00103DBB2002B01D003231E
:109DD0006CE07B68002B0FD1BB689B68FB8407F1AC
:109DE0001A02FB8C11461846FEF760FF38623B6A88
:109DF000002B07D03B6A59E07B681B887B837B681C
:109E00005B88FB8407F114031846FFF7F5F8F86147
:109E1000FB69002B07D17A8BFB8C11461846FEF7A5
:109E20009BFF082342E0FB69FA781A70FB69002265
:109E30009A757A8BFB699A82BB685A68FB691A61CA
:109E4000FEF7B2FF0246FB69DA60BB681A88FB695D
:109E50001A81BB685A88FB699A80FB69FA8CDA80A0
:109E6000FB78032B06D1FB6904229A75FB681A68FC
:109E7000FB699A61FB69BA8C5A8107F11403184691
:109E8000FFF7D0F8FB68002B0DD0FB6800225A606A
:109E9000FB69DA68FB681A60FB6800229A72064B5D
:109EA0001A89FB681A81FFF743FF002318462837F9
:109EB000BD4680BD602C0020502D002080B584B0B0
:109EC00000AF78600B4B1B68042B02D10C23FB60A6
:109ED0000BE0084B1B6808497A6841F823200121F0
:109EE000044800F00BFD0023FB60FB6818461037A8
:109EF000BD4680BD6C2C0020702C002080B485B045
:109F000000AF40F6F8731B68B3F1FF3F02D1104B6E
:109F10001B6802E040F6F8731B68FB604FF080534B
:109F20001B69BB604FF080535B697B60FB68B3F1DA
:109F3000FF3F04D17B68BA6802FB03F300E0FB68D3
:109F40003B603B6818461437BD465DF8047B70479C
:109F50001410001080B582B000AF4FF440537B6006
:109F6000FFF7CCFF0246064B1A61054B1A697B6866
:109F7000D31A034AD36000BF0837BD4680BD00BF77
:109F80000425002080B500AFFFF7E4FF002203495D
:109F9000034801F08FF90346184680BDE8D403005A
:109FA0000425002080B500AF03481C238C22034900
:109FB00000F0AAFA00BF80BD102D0020842C0020E4
:109FC00080B58AB000AF07F1080300221A605A601A
:109FD0009A60DA601A61414B1B78DBB2002B06D025
:109FE00007F108031846FEF707FC002372E03C481F
:109FF00000F0B6FC0346002B01D000236AE0FFF717
:10A00000C1FF78627B6A002B01D07B6A62E0FFF7B8
:10A01000C9FFFFF747F8034687F8233097F8233046
:10A02000022B0DD0062B0DD0002B09D000BF3B1DFD
:10A030001846FEF7E1FFF861FB69002B11D10EE035
:10A040000B2347E0254B01221A70244B00225A6053
:10A0500007F108031846FEF7CFFB00233AE0082378
:10A0600038E0FB6901221A7097F82330013B0A2B74
:10A0700028D801A252F823F0A5A00200C5A0020032
:10A08000A5A00200C5A00200BDA00200C5A002005C
:10A09000BDA00200C5A00200ADA00200B5A0020054
:10A0A000ADA00200FB6900221A710CE0FB690322DB
:10A0B0001A7108E0FB6902221A7104E0FB690122AF
:10A0C0001A7100E000BF3B1D1846FEF7ABFFFFF71B
:10A0D0002FFE002318462837BD4680BD602C002087
:10A0E000642C002080B584B000AF786039607B6854
:10A0F000002B02D03B68002B01D1052328E007F19B
:10A100000A0319467868FEF7ABFE0346002B1ED003
:10A110007B685B68FB607B891A4613469B0013448F
:10A120009B0008330C4A134404330121184600F005
:10A13000E5FB3B68FA681A607B685B6803F10C0218
:10A140003B685A607B6801229A72002300E00A2370
:10A1500018461037BD4680BD202D002080B584B044
:10A1600000AF78607B68002B01D1052337E007F151
:10A170000A0319467868FEF773FE0346002B2BD0BE
:10A180007B891946184A0B469B000B449B001344DD
:10A190000C331B68002B1CD07B689B7A002B18D0DB
:10A1A0007B891A46104913469B0013449B000B44BD
:10A1B0000C331B68591E0C4813469B0013449B002C
:10A1C00003440C3319607B6800229A720023FB6001
:10A1D00004E00623FB6001E00A23FB60FB681846ED
:10A1E0001037BD4680BD00BF202D002080B582B055
:10A1F00000AF786039600223002239687868FFF781
:10A20000B5FD034618460837BD4680BD80B582B00F
:10A2100000AF786039607B68002B01D1052306E030
:10A220000323002239687868FFF7A0FD034618462B
:10A230000837BD4680BD000080B584B000AF03463E
:10A24000FB80184B1B78DBB283F00103DBB2002BE1
:10A2500001D0022322E0FB884FF6FF72934201D126
:10A2600004231BE007F108031846FEF7C5FEF8605B
:10A27000FB68002B01D1082310E0FB6805221A704F
:10A28000FB6801221A71FB68FA88DA8007F108037B
:10A290001846FEF7C7FEFFF74BFD002318461037A0
:10A2A000BD4680BD602C002080B582B000AF144B4D
:10A2B0001B78DBB283F00103DBB2002B01D0022359
:10A2C0001AE03B461846FEF797FE78607B68002B45
:10A2D00001D1082310E07B6806221A703B4618461D
:10A2E000FEF7A0FE074B1B78002B02D0054B012286
:10A2F0001A73FFF71DFD002318460837BD4680BDC1
:10A30000602C0020502D002080B584B000AFBA60D2
:10A310007B600346FB810B46BB8107F10C0107F113
:10A320000E007B68BA68FEF7F7FD03461846103743
:10A33000BD4680BD80B584B000AF0346B9607A6089
:10A34000FB8107F10E017B68BA680020FEF7E4FD8F
:10A35000034618461037BD4680BD80B584B000AFB7
:10A360000346B9607A60FB8107F10E007B68BA682A
:10A370000021FEF7D1FD034618461037BD4680BDCB
:10A3800080B483B000AF786039607B68002B02D066
:10A390003B68002B01D1052304E07B681A683B6809
:10A3A0001A60002318460C37BD465DF8047B7047E1
:10A3B00080B487B000AF786039607B6853E8011FD4
:10A3C0008AB2D88902449889824228BF121A188911
:10A3D000824202BFBFF32F8F002307E0C2EA0102CF
:10A3E00043E801200028E9D14FF00103FB737861B5
:10A3F000B9603A61BA683B681A60FB7BDBB2184609
:10A400001C37BD465DF8047B704780B485B000AF53
:10A410007860796851E8013FC3EA034341E80132BB
:10A42000002AF7D1FA60BB6000BF1437BD465DF863
:10A43000047B704780B487B000AF786039607B6878
:10A4400053E8021F1FFAA1F2D888824202BFBFF36D
:10A450002F8F00230DE0D88902449889824228BFBB
:10A46000121AC1EA024243E802200028E8D14FF064
:10A470000103FB737861B9603A61BA683B681A609E
:10A48000FB7BDBB218461C37BD465DF8047B70478A
:10A4900080B485B000AF7860796851E8023FC3EAC4
:10A4A000234341E80232002AF7D1FA60BB6000BFC3
:10A4B0001437BD465DF8047B704780B487B000AFA9
:10A4C00078607B6853E8021FDA88B1EB314F4FF0B8
:10A4D000000017BF89B242EA024241EA024204E0A8
:10A4E0005968B1EB314F08BF012043E80221002930
:10A4F000E8D1F87379613A61FB7BDBB218461C370F
:10A50000BD465DF8047B704780B485B000AFF8604D
:10A51000B96011461A460B46FB801346BB80BB68E8
:10A52000002B01D10E231BE0FB88BA88B3FBF2F1AC
:10A5300002FB01F29B1A9BB2002B01D009230FE012
:10A54000FB68BA681A60FB6800225A60FB68002248
:10A550009A60FB68FA889A81FB68BA88DA810023DE
:10A5600018461437BD465DF8047B704780B584B04B
:10A5700000AF78607868FFF7A0FF0346FB73FB7BB2
:10A58000002B01D0002300E0112318461037BD46F0
:10A5900080BD80B584B000AF786039603B681946F3
:10A5A0007868FFF705FF0346002B07D07B681B6820
:10A5B0003A6812881344FB60FB6800E000231846E9
:10A5C0001037BD4680BD80B582B000AF786039607D
:10A5D0003B681A883B685B889A4204D17868FFF729
:10A5E00014FF012300E0002318460837BD4680BD54
:10A5F00080B584B000AF786039603B6819467868F0
:10A60000FFF718FF0346002B07D07B681B683A68EA
:10A6100052881344FB60FB6800E0002318461037A3
:10A62000BD4680BD80B582B000AF786039603B68C0
:10A630001A883B685B889A4204D17868FFF728FF44
:10A64000012300E0002318460837BD4680BD80B5D1
:10A6500084B000AF786039603B685B099B007A6822
:10A66000D0183B6803F01F03012202FA03F31946D6
:10A6700000F0E0F8F86000BF1037BD4680BD80B53F
:10A6800082B000AF786039603B685B099B007A68F4
:10A69000D0183B6803F01F03012202FA03F31946A6
:10A6A00000F0AFF802463B6803F01F0322FA03F301
:10A6B00003F00103002B14BF01230023DBB2184673
:10A6C0000837BD4680BD80B584B000AF7860396082
:10A6D0003B685B099B007A68D0183B6803F01F0356
:10A6E000012202FA03F3DB43194600F0D5F8F860C3
:10A6F00000BF1037BD4680BD80B483B000AF786026
:10A7000039603B685B099B007A6813441A683B68B0
:10A7100003F01F0322FA03F303F00103002B14BF1D
:10A7200001230023DBB218460C37BD465DF8047BDD
:10A73000704780B58AB000AF7860396000237B62D3
:10A740003BE07B6A9B007A6813441B68DB43BB6178
:10A75000BB6993FAA3F37B617B69B3FA83F33B6232
:10A7600023E07B6A5B013A6A1344FB61FA693B6848
:10A770009A421ED2F9697868FFF781FF034683F099
:10A780000103DBB2002B01D0FB691EE07B6A9B005A
:10A790007A6813441B68DB433B613B6993FAA3F37C
:10A7A000FB60FB68B3FA83F33B623B6A1F2BD8D98B
:10A7B00000E000BF7B6A01337B623B68013B5B09C1
:10A7C00001337A6A9A42BCD33B6818462837BD46A3
:10A7D00080BD90B486B000AF786039607B683A681D
:10A7E00053E8004F104643E8000191F0000FF7D105
:10A7F0007C613861F9607B6918461837BD4690BCAA
:10A80000704790B486B000AF786039607B683A6872
:10A8100053E8004F44EA020043E8000191F0000FC2
:10A82000F6D17C613861F9607B6918461837BD46FE
:10A8300090BC704790B486B000AF786039607B6898
:10A840003A6853E8004F44EA020043E8000191F0FF
:10A85000000FF6D17C613861F9603B691846183702
:10A86000BD4690BC704790B486B000AF7860396048
:10A870007B683A6853E8004F04EA020043E80001AD
:10A8800091F0000FF6D17C613861F9607B69184660
:10A890001837BD4690BC704790B486B000AF786062
:10A8A00039607B683A6853E8004F04EA020043E8E5
:10A8B000000191F0000FF6D17C613861F9603B69CD
:10A8C00018461837BD4690BC704790B486B000AFAC
:10A8D000786039607B683A6853E8004F04EB020007
:10A8E00043E8000191F0000FF6D17C613861F96016
:10A8F0007B6918461837BD4690BC704790B486B047
:10A9000000AF786039607B683A6853E8004F04EB29
:10A91000020043E8000191F0000FF6D17C6138613C
:10A92000F9603B6918461837BD4690BC704790B433
:10A9300086B000AF786039607B683A6853E8004FB2
:10A94000A4EB020043E8000191F0000FF6D17C6116
:10A950003861F9603B6918461837BD4690BC7047AE
:10A9600080B582B000AF786001217868FFF749FFB9
:10A97000034618460837BD4680BD80B582B000AF9B
:10A98000786001217868FFF755FF034618460837BD
:10A99000BD4680BD80B582B000AF78600021786888
:10A9A000FFF761FF034618460837BD4680BD80B4F7
:10A9B00083B000AF78600B46FB707B68DA68FB7889
:10A9C0007968098A01FB03F3134418460C37BD4626
:10A9D0005DF8047B704780B483B000AF7860396065
:10A9E0003B687A68D2689B1A7A68128AB3FBF2F3E2
:10A9F000DBB218460C37BD465DF8047B704780B467
:10AA000085B000AF78607B68002B01D10E231DE07C
:10AA10007B689B681A467B685B68D31AFB737B680C
:10AA20001B687A6852681A6006E07B681A681368C7
:10AA3000591C1160FA7B1A70FB7B5A1EFA73002BAB
:10AA4000F3D17B681B6800221A7100231846143763
:10AA5000BD465DF8047B704780B584B000AF786078
:10AA60000023FB600023BB7207F10A031846FDF7C1
:10AA700099FE7B681B681A687B685B689A421DD9DF
:10AA80007B681B681A68013A1A601B681B781946B4
:10AA90007868FFF78CFFF8607B689B681A467B68D4
:10AAA0001B681B68D31AFB727B681B681B79FA7AD8
:10AAB0009A4203D97B681B68FA7A1A71BB7A1846E6
:10AAC000FDF77BFEFB6818461037BD4680BD90B58C
:10AAD00085B000AF786039603B68FB600023FB7293
:10AAE00007F10B031846FDF75DFE7B681B681C68C9
:10AAF000621C1A60F9687868FFF76DFF03462370DF
:10AB0000FB7A1846FDF759FE00BF1437BD4690BDCD
:10AB100080B582B000AF78607B689B68002B0CD05A
:10AB20007B685B697A6810697A6811687A689268EC
:10AB300098477B6800229A6000E000BF0837BD4656
:10AB400080BD0EB480B585B000AF7860FB69002B86
:10AB50000CD00023FB6007F12003FB6007F10C031E
:10AB60001A46F969786800F0AFF900E000BF1437C1
:10AB7000BD46BDE8804003B0704780B582B000AFED
:10AB800078600B46FB70FB780A2B03D10D217868A7
:10AB9000FFF7F3FF7B681A687B689B68581C79682D
:10ABA00088601344FA781A707B689A687B685B68DF
:10ABB0009A4202D37868FFF7ABFF00BF0837BD4663
:10ABC00080BD80B586B000AFF860B9607A603B6048
:10ABD00000237B613B6803F00103002B21D00AE0D6
:10ABE000BB680133BB607B6901337B61FB7C194629
:10ABF000F868FFF7C2FFBB681B78FB74FB7C002B77
:10AC0000EED106E07B68013B7B602021F868FFF70E
:10AC1000B4FF7A687B699A422BD97B68002BF1D10B
:10AC200027E0BB68002B0BD0B86812F017F97861E9
:10AC300006E07B68013B7B602021F868FFF79DFF01
:10AC40007A687B699A420ED97B68002BF1D10AE0C1
:10AC5000BB680133BB607B6901337B61FB7C1946B8
:10AC6000F868FFF78AFFBB681B78FB74FB7C002B3E
:10AC7000EED100BF1837BD4680BD000080B588B05A
:10AC800000AFF860B9607A603B60BB68FB6101238C
:10AC9000BB6107E0FA697B68B2FBF3F3FB61BB6958
:10ACA0000133BB61FA697B689A42F3D23A68BB69A7
:10ACB0009A4201D93B68BB61FB6A03F00103002B98
:10ACC0001FD1BB6A002B1CD0FB6A03F00203002BD0
:10ACD00005D03B68002B02D13023FB7501E0202317
:10ACE000FB7507E0BB6A013BBB62FB7D1946F86858
:10ACF000FFF743FFBB6A002B03D0BA69BB6A9A42D5
:10AD0000F0D30123FB613B68012B03D93B68013B76
:10AD10003B6009E0BA68FB69B2FBF3F33B613A6957
:10AD20007B689A4200D205E0FB697A6802FB03F374
:10AD3000FB61E8E7BA68FB69B2FBF3F33B613B698F
:10AD4000FA6902FB03F3BA68D31ABB60154A3B6980
:10AD500013441B781946F868FFF70FFFFA697B6800
:10AD6000B2FBF3F3FB61FB69002BE3D1FB6A03F059
:10AD70000103002B11D0BB6A002B0ED006E0BB6A8A
:10AD8000013BBB622021F868FFF7F7FEBB6A002B8E
:10AD900003D0BA69BB6A9A42F1D300BF2037BD46DF
:10ADA00080BD00BFDCD2030080B588B002AFF86080
:10ADB000B9607A603B60BB68002BB8BF5B423B6107
:10ADC00001237B6107E07B683A6992FBF3F33B6107
:10ADD0007B6901337B617B683A699A42F3DA3A68AE
:10ADE0007B699A4201D93B687B613B6A002B0AD0A0
:10ADF000BB68002B04DB7B6A03F00403002B02D04A
:10AE00003B6A013B3B627B6A03F00203002B02D0EA
:10AE10003B68002B16D07B6A03F00103002B11D195
:10AE20003B6A002B0ED006E03B6A013B3B622021CF
:10AE3000F868FFF7A2FE3B6A002B03D07A693B6AF1
:10AE40009A42F1D3BB68002B07DABB685B42BB6058
:10AE50002D21F868FFF791FE08E07B6A03F00403F8
:10AE6000002B03D02B21F868FFF787FE7B6A03F0E5
:10AE70000203002B19D07B6A03F00103002B14D1CD
:10AE80003B68002B11D13B6A002B0ED006E03B6AD9
:10AE9000013B3B623021F868FFF76FFE3B6A002BF5
:10AEA00003D07A693B6A9A42F1D3B9687B6A01930D
:10AEB0003B6A00933B687A68F868FFF7DFFE00BFE3
:10AEC0001837BD4680BD000080B58EB002AFF86077
:10AED000B9607A60BB68002B00F0E881BB681B7822
:10AEE00087F82F30BB680133BB6097F82F30002BF9
:10AEF00000F0D38197F82F30252B40F0C28100233A
:10AF00003B620123BB62BB681B7887F82F3097F840
:10AF10002F302D2B04D0302B0AD02B2B10D017E044
:10AF20003B6A43F001033B62BB680133BB6012E044
:10AF30003B6A43F002033B62BB680133BB600AE03B
:10AF40003B6A43F004033B62BB680133BB6002E031
:10AF50000023BB6200BFBB6A002BD4D10023FB617E
:10AF600097F82F302A2B0CD17B681B68191D7A6843
:10AF700011601B68FA691344FB61BB680133BB6055
:10AF80001AE0BB681B7887F82F3097F82F302F2BEB
:10AF900012D997F82F30392B0ED8BB680133BB601C
:10AFA000FA6913469B0013445B001A4697F82F304A
:10AFB0001344303BFB61D3E700237B62BB681B7803
:10AFC00087F82F3097F82F302E2B1DD1BB68013317
:10AFD000BB60BB681B7887F82F3097F82F302F2B7A
:10AFE00012D997F82F30392B0ED8BB680133BB60CC
:10AFF0007A6A13469B0013445B001A4697F82F3079
:10B000001344303B7B62E4E7BB681B7887F82F3042
:10B0100097F82F306C2B03D097F82F30682B07D17F
:10B02000BB680133BB60BB681B7887F82F30EFE744
:10B0300097F82F30253B532B00F21E8101A252F8C6
:10B0400023F000BF6FB2020079B2020079B20200B1
:10B0500079B2020079B2020079B2020079B202003C
:10B0600079B2020079B2020079B2020079B202002C
:10B0700079B2020079B2020079B2020079B202001C
:10B0800079B2020079B2020079B2020079B202000C
:10B0900079B2020079B2020079B2020079B20200FC
:10B0A00079B2020079B2020079B2020079B20200EC
:10B0B00079B2020079B2020079B2020079B20200DC
:10B0C00079B2020079B2020079B2020079B20200CC
:10B0D00079B2020079B2020079B2020079B20200BC
:10B0E00079B2020079B2020079B2020079B20200AC
:10B0F00079B2020079B2020079B2020079B202009C
:10B1000079B2020079B2020079B2020079B202008B
:10B11000FBB1020079B2020079B2020079B20200FA
:10B1200079B2020079B2020079B2020079B202006B
:10B1300079B2020079B2020079B2020095B1020040
:10B14000B3B1020079B2020079B2020079B2020012
:10B1500079B20200B3B1020079B2020079B2020002
:10B1600079B2020079B2020079B2020079B202002B
:10B170003BB2020079B2020079B202001FB20200B3
:10B1800079B20200D7B1020079B2020079B20200AE
:10B19000FBB102007B681B68191D7A6811601B688F
:10B1A000BB62BB6AFB75FB7D1946F868FFF7E5FCDF
:10B1B00063E07B681B68191D7A6811601B68BB62BD
:10B1C0003B6A0193FB6900937B6A0A22B96AF868BB
:10B1D000FFF7EAFD51E07B681B68191D7A68116072
:10B1E0001B68BB62B96A3B6A0193FB6900937B6A87
:10B1F0000A22F868FFF742FD3FE07B681B68191DD3
:10B200007A6811601B68BB62B96A3B6A0193FB698B
:10B2100000937B6A1022F868FFF730FD2DE07B6811
:10B220001B68191D7A6811601B68BB613B6AFA696B
:10B23000B969F868FFF7C5FC1FE07B681B68191D3A
:10B240007A6811601B68BB623021F868FFF795FCD3
:10B250007821F868FFF791FCB96A0023019308236D
:10B26000009308231022F868FFF708FD05E0252168
:10B27000F868FFF782FC00E000BFBB680133BB60E9
:10B2800005E097F82F301946F868FFF776FCBB68A1
:10B290001B78002B7FF422AE00E000BFFB681B7B15
:10B2A000002B04D0F868FFF733FC00E000BF303714
:10B2B000BD4680BD80B586B002AFF860B9607A60E7
:10B2C000FB68002B10D1194A194BD31ADB081B0459
:10B2D00043F00100174A18490E2300930B46174903
:10B2E000FBF7BAFC0E231DE0BB68002B10D10F4A00
:10B2F0000F4BD31ADB081B0443F00100104A0E4920
:10B300000E2300930B460D49FBF7A6FC0E2309E024
:10B31000FB68BA681A60FB681B681B687968F86884
:10B320009847034618461037BD4680BDD8FD030038
:10B3300088FD0300FCD20300A0D4030004D3030063
:10B3400030D3030090B587B002AFF860B9607A607F
:10B350003B60FB68002B10D1604A614BD31ADB08BD
:10B360001B0443F001005F4A5F490E2300930B4624
:10B370005E49FBF771FC0E23ABE07B68002B10D11C
:10B38000564A574BD31ADB081B0443F00100584AB6
:10B3900055490E2300930B465449FBF75DFC0E23E1
:10B3A00097E0FB681B68002B10D14C4A4C4BD31A1A
:10B3B000DB081B0443F001004E4A4B49082300936D
:10B3C0000B464A49FBF748FC082382E03B68002B08
:10B3D00010D1424A424BD31ADB081B0443F0010050
:10B3E000454A4149092300930B464049FBF734FC89
:10B3F00009236EE0FB685B685A683B68B3FBF2F1B7
:10B4000002FB01F29B1A002B10D0344A344BD31AA2
:10B41000DB081B0443F00100384A33490923009339
:10B420000B463249FBF718FC092352E0B86800F0DC
:10B4300026F90346002B10D1284A294BD31ADB08E2
:10B440001B0443F001002E4A2749102300930B46AA
:10B450002649FBF701FC10233BE07B68184600F00F
:10B460000EF90346002B10D11C4A1D4BD31ADB08E2
:10B470001B0443F00100234A1B49102300930B4691
:10B480001A49FBF7E9FB102323E03A68B968F8682A
:10B4900000F0D6F80346002B10D1104A104BD31AF7
:10B4A000DB081B0443F00100174A0F4910230093E7
:10B4B0000B460E49FBF7D0FB10230AE0FB681B6824
:10B4C000DC683B6A00933B687A68B968F868A04713
:10B4D000034618461437BD4690BD00BFD8FD030093
:10B4E00088FD0300FCD20300B4D4030004D303009E
:10B4F00090D3030038D303004CD3030098D3030048
:10B50000C4D30300DCD3030000D4030090B587B09C
:10B5100002AFF860B9607A603B60FB68002B10D125
:10B520003E4A3F4BD31ADB081B0443F001003D4A5F
:10B530003D490E2300930B463C49FBF78DFB0E2340
:10B5400068E0FB681B68002B10D1344A344BD31AD7
:10B55000DB081B0443F00100354A334908230093FC
:10B560000B463249FBF778FB082353E07B68002B3E
:10B5700010D12A4A2A4BD31ADB081B0443F00100DE
:10B580002C4A2949092300930B462849FBF764FB01
:10B5900009233FE0B968F86800F083F80346002B00
:10B5A00010D11E4A1E4BD31ADB081B0443F00100C6
:10B5B000214A1D49102300930B461C49FBF74CFB05
:10B5C000102327E0FB685B681B687A6802FB03F3C3
:10B5D0001A46B968F86800F033F80346002B10D11A
:10B5E0000E4A0F4BD31ADB081B0443F00100134A29
:10B5F0000D49102300930B460C49FBF72DFB10233C
:10B6000008E0FB681B681C693B687A68B968F868E1
:10B61000A047034618461437BD4690BDD8FD030029
:10B6200088FD0300FCD20300C8D4030004D3030048
:10B6300038D303004CD3030028D4030050D40300B4
:10B6400080B485B000AFF860B9607A60FB68DB68F1
:10B65000BA689A4209D3BA687B6813445A1EFB68D9
:10B660001B699A4201D8012300E0002303F0010383
:10B67000DBB218461437BD465DF8047B704780B4D2
:10B6800083B000AF78607B6803F00303002B0CBF2E
:10B6900001230023DBB218460C37BD465DF8047B5E
:10B6A000704780B483B000AF786039607B685B68B6
:10B6B0001B685A1E3B681340002B0CBF012300235C
:10B6C000DBB218460C37BD465DF8047B704729DFB6
:10B6D000704700BF184628DF704700BF184680B586
:10B6E00088B000AF786039607B681B689B68002B6E
:10B6F00035D007F1080300221A605A609A60DA60B8
:10B700001A615A613B68FB607B689B68FB617B68E0
:10B710001B79002B02D0012B0CD018E001233B72C7
:10B720007B681B693B617B68DB687B617B685B696D
:10B73000BB610CE002233B727B68DB684FF48052F4
:10B7400002FB03F33B617B685B69BB6100BF7B6805
:10B750001B689B6807F108021046984700E000BF8D
:10B760002037BD4680BD80B586B000AF78607B686D
:10B770005A697B689B69D31AB3F5805F28BF4FF481
:10B7800080537B6104227B69B3FBF2F3012B38BF4A
:10B7900001237B617B681A697B689B6913443B6169
:10B7A0007B68DB681A467B689B691344FB607A6997
:10B7B000F9683869FFF78BFF034618461837BD460E
:10B7C00080BD80B582B000AF78607B68DA687B6846
:10B7D0001B6913441846FFF77EFF034618460837D7
:10B7E000BD4680BD80B500AF034B04491846FEF747
:10B7F00019FF00BF80BD00BF0C2E0020342E00209A
:10B8000080B500AF084B09491846FEF7F1FE024625
:10B81000074B1A60064B1B68002B14BF0123002343
:10B82000DBB2184680BD00BF0C2E0020342E002055
:10B83000302E002080B582B000AF2B4B1B7A002B3E
:10B840000BD1FFF7DDFF034683F00103DBB2002BD2
:10B8500003D0254B00225A6042E0234B02221A7289
:10B86000224B1B681B79002B02D0012B07D00DE067
:10B870001E4B1B681846FFF776FF786009E01B4BEC
:10B880001B681846FFF79DFF786002E003237B608A
:10B8900000BF7B68002B02D0112B0CD00FE0124BA5
:10B8A0001B7C83F00103DBB2002B18D000210220A7
:10B8B00000F088F913E00C4B01221A7210E00B4BD8
:10B8C0001B6803211846FFF70AFF074B00221A7274
:10B8D000054B00225A60FFF785FF00BF00E000BF64
:10B8E0000837BD4680BD00BF1C2E0020302E002032
:10B8F00080B500AF0848FFF733F80346002B08D1A6
:10B90000064B5B7C83F00103DBB2002B01D0FFF719
:10B9100091FF00BF80BD00BF202E00201C2E002004
:10B9200080B485B000AF78601C4B0022DA607B6881
:10B930001B79002B02D0012B19D028E07B685A69B3
:10B940007B689B69D31AB3F5805F28BF4FF480539F
:10B95000FB607B689A69FB681A447B689A617B6824
:10B960009A697B685B699A420ED1012310E07B687B
:10B970001B695A1C7B681A617B681A697B685B6962
:10B980009A4203D1012303E000BF00E000BF00237F
:10B9900018461437BD465DF8047B70471C2E002006
:10B9A00080B483B000AF78600A4BDB680133094A8A
:10B9B000D360084BDB68082B04D9064B0022DA6001
:10B9C000012300E0002318460C37BD465DF8047BD8
:10B9D000704700BF1C2E002080B582B000AF786099
:10B9E00039607B680C4A5A600C48FEF7B9FF034681
:10B9F000002B0BD110F0FCFD03461A46074B1A74BE
:10BA000007481C238C220749FEF77EFD00231846B9
:10BA10000837BD4680BD00BFDCD403001C2E0020CB
:10BA20000C2E0020802D002080B582B000AF786001
:10BA3000396014220021064811F000FA054B18461F
:10BA4000FEF794FD002318460837BD4680BD00BFB1
:10BA50001C2E00200C2E002080B586B000AFF860B0
:10BA6000B9607A603B60194A07F110031946104625
:10BA7000FEF78FFD78617B69002B01D1042320E064
:10BA80001C220021786911F0D9F97B6900221A7112
:10BA90007B69FA681A607B693A6A9A607B69BA685E
:10BAA0001A617B697A68DA607B693A685A61074A89
:10BAB00007F1100319461046FEF785FDFFF718FF42
:10BAC000002318461837BD4680BD00BF0C2E00204D
:10BAD00080B584B000AFF860B9607A603B60BB6845
:10BAE0003A681946786811F09EF900231846103715
:10BAF000BD4680BD80B586B000AFF860B9607A60A1
:10BB00003B60194A07F1100319461046FEF741FD44
:10BB100078617B69002B01D1042321E01C220021E4
:10BB2000786911F08BF97B6901221A717B69FA68D7
:10BB30001A607B693A689A604FF48052BB68B3FB25
:10BB4000F2F27B69DA607B697A685A61064A07F12A
:10BB5000100319461046FEF736FDFFF7C9FE002315
:10BB600018461837BD4680BD0C2E002080B483B027
:10BB700000AF786039603B6818460C37BD465DF809
:10BB8000047B704780B483B000AF786039600023D5
:10BB900018460C37BD465DF8047B704780B483B00F
:10BBA00000AF7860064B1B7A002B14BF01230023E3
:10BBB000DBB218460C37BD465DF8047B704700BF0A
:10BBC0001C2E002080B584B000AF786039607B689F
:10BBD000022B02D07B68032B45D1264B1B7A012B0D
:10BBE00031D0022B02D0002B3FD02FE00023FB737B
:10BBF0007B68022B02D0032B08D00FE01E4B1B6882
:10BC00001846FFF78DFE0346FB7307E01A4B1B68CF
:10BC10001846FFF7C5FE0346FB7300BFFB7B002BF6
:10BC200013D0144B00221A72134B1A687B68022B34
:10BC300001D1002300E00D2319461046FFF74FFD08
:10BC4000FFF7D0FD01E000BF00E000BF094B5B7CC7
:10BC500083F00103DBB2002B02D0FFF7EBFD05E020
:10BC600010F0AAFC02E000BF00E000BF1037BD46A4
:10BC700080BD00BF1C2E0020302E002080B483B079
:10BC800000AF03463960FB71074B01225A74064B23
:10BC90001B7A002B0CBF01230023DBB218460C37A4
:10BCA000BD465DF8047B70471C2E002080B582B035
:10BCB00000AF03463960FB71FB79012B02D0FB79A1
:10BCC000032B0CD1084B00225A74FB79012B0CBFBB
:10BCD00001230023DAB2044B1A74FFF7ABFD00BF57
:10BCE0000837BD4680BD00BF1C2E002080B582B045
:10BCF00000AF78607868FEF782FE03461846083782
:10BD0000BD4680BD80B58AB000AF786039607B6881
:10BD10001B8A043BFB613A68FB691344DA1CFB692C
:10BD2000B2FBF3F3FB767868FEF796FE78617B69E9
:10BD3000002B01D1002337E07B6900221A717B6957
:10BD400001225A71FB699AB27B69DA807B697B6256
:10BD5000FB7E013B3B617B6A7A681A6000233B6291
:10BD60001DE07868FEF778FEF860FB68002B0ED0C7
:10BD70007B695B790133DAB27B695A717B6AFA6855
:10BD80001A60FB687A681A60FB687B6204E0786975
:10BD900000F00EF8002307E03B6A01333B623A6A89
:10BDA0003B699A42DDD37B6918462837BD4680BD82
:10BDB00080B58AB000AF78607B68FB61FB695B7916
:10BDC000FB767B683B62FB7E013B7B6100237B62F1
:10BDD00005E03B6A1B683B627B6A01337B627A6ADF
:10BDE0007B699A42F5D33B6A1B683B617B683B6287
:10BDF00000237B620BE03B6A1B68FB60396A386991
:10BE0000FEF765FEFB683B627B6A01337B62FB7E6B
:10BE10007A6A9A42EFD300BF2837BD4680BD80B50D
:10BE200084B000AF78607B68FB60FB68043301215D
:10BE30001846FEF763FD00BF1037BD4680BD80B5D4
:10BE400086B000AF78607B687B617B690433012139
:10BE50001846FEF76CFD0346FB6007F10C033B61DF
:10BE60003B691B78002B02D17868FFF7A1FF00BF68
:10BE70001837BD4680BD80B590B000AFF860B9609E
:10BE80007A603B60FB687B62FB68FB637B6ADB88F4
:10BE90001A467B6A5B7903FB02F3043B3B627B6AD5
:10BEA000DB88FB613B681A1DFB69B2FBF3F3BB63E4
:10BEB0003B680433FA69B3FBF2F2F96901FB02F261
:10BEC0009B1A7B637B681A683B6813443A6A9A4200
:10BED00003D23A6A3B68D31A01E07B681B683B6374
:10BEE0007B683A6B1A6005E0FB6B1B68FB63BB6BFE
:10BEF000013BBB63BB6B002BF6D10023FB62FA69ED
:10BF00007B6BD31ABB62BA6A3B6B934228BF134662
:10BF1000BB622AE0BA68FB6A1344BB61FA6B7B6BB5
:10BF2000134404337B6197F84830002B05D0BA6A7C
:10BF30007969B86910F077FF04E0BA6AB96978697D
:10BF400010F071FF00237B63FB6B1B68FB633A6B94
:10BF5000BB6AD31A3B63FA6ABB6A1344FB62FA6991
:10BF60003B6B934228BF1346BB623B6B002BD1D186
:10BF700000BF4037BD4680BD80B588B002AFF860D5
:10BF8000B9607A603B607B687B6107F11402002333
:10BF900000933B68B968F868FFF76DFF00BF18377A
:10BFA000BD4680BD80B588B002AFF860B9607A60E8
:10BFB0003B607B687B6107F11402012300933B68BF
:10BFC000B968F868FFF757FF00BF1837BD4680BD56
:10BFD00080B483B000AF0346FB71FB7903F01F020E
:10BFE000074997F907305B09012000FA02F2603334
:10BFF00041F8232000BF0C37BD465DF8047B704735
:10C0000000E100E080B483B000AF78607B6800227C
:10C010001A60BFF35F8F00BF0C37BD465DF8047B2D
:10C02000704741DF704700BF184680B584B000AF4D
:10C030000023FB70FB1C1846FCF7B4FBF1EE103A32
:10C040007B607B68FB60FB6823F09F03BB60BB6881
:10C05000E1EE103ABFF35F8F2620FFF7B9FFFB78C0
:10C060001846FCF7AAFB00BF1037BD4680BD000094
:10C0700080B500AF064B00221A700648FFF7C2FFDA
:10C080000549064800F043F80023184680BD00BF6C
:10C090003C2E0020382E002014D50300402E002016
:10C0A00080B582B000AFFFF7C0FF10F0A1FA0346E1
:10C0B000002B03D0FFF7B5FF786002E020BF40BF40
:10C0C00020BF00BF0837BD4680BD80B483B000AF3D
:10C0D00078607B689B6800229A607B689B6800227E
:10C0E0001A617B689B6800225A617B689B6800220A
:10C0F000DA607B689B6800225A607B689B6800223C
:10C100001A6000BF0C37BD465DF8047B704780B4F1
:10C1100083B000AF786039607B683A681A607B68EA
:10C120001B681A687B685A607B685A687B681B6862
:10C130005B689A4202D17B6800225A6000BF0C37CC
:10C14000BD465DF8047B704780B483B000AF786073
:10C150007B685B68002B14D07B685B681A467B6841
:10C160001B689B6813441A467B685A607B685A6850
:10C170007B681B685B689A4204D17B6800225A6026
:10C1800000E000BF0C37BD465DF8047B704780B40B
:10C1900083B000AF786039607B689B683A689A42E8
:10C1A00002D23B68013300E0002318460C37BD463D
:10C1B0005DF8047B704780B485B000AF78607B6821
:10C1C0001B681B68FB607B681B685B68BB60BA68A8
:10C1D000FB689A4203D3BA68FB68D31A06E07B680F
:10C1E0009A68FB68D21ABB681344013318461437A7
:10C1F000BD465DF8047B704780B584B000AF7860C1
:10C200007B681B681B68FB607B681B685B68BB60A6
:10C21000B9687868FFF7BBFF0246FB6893420CBF22
:10C2200001230023DBB218461037BD4680BD000055
:10C2300090B589B000AF786039600023BB610023FE
:10C24000FB7307F10F031846FCF7ACFA7868FFF7A9
:10C25000D3FF0346FB77FB7F83F00103DBB2002BA8
:10C2600003D17B681B7C002B79D17B681B685B68E2
:10C270007B617B681B685A687B681C68114678681C
:10C28000FFF785FF03466360FB7F002B0AD07B68C6
:10C290001B681A687B681C6811467868FFF777FF8F
:10C2A000034623607B68DB68013B072B37D801A27C
:10C2B00052F823F0D5C20200E5C202001FC30200FB
:10C2C000F7C202001FC302001FC302001FC3020007
:10C2D00009C302007B685A687B6913443A68127884
:10C2E0001A702DE07B685A687B695B0013443A68DA
:10C2F00012881A8024E07B685A687B699B0013448B
:10C300003A6812681A601BE07B685A687B69DB0038
:10C310001A443B68D3E90034C2E9003410E07B687A
:10C320005B6819467B68DB687A6902FB03F30B44A0
:10C3300018467B68DB681A46396810F074FD00BF48
:10C340007868FFF738FF38617B681B689B683A693B
:10C350009A4207D97B681B683A699A6002E0042315
:10C36000BB6100E000BFFB7B1846FCF726FABB6907
:10C3700018462437BD4690BD90B589B000AFF8602F
:10C38000B9601346FB710023FB610023FB7507F1C5
:10C3900017031846FCF706FAF86800F0F6F90346AA
:10C3A00083F00103DBB2002B63D0FB681B681B68C2
:10C3B000BB61FB7983F00103DBB2002B0AD0FB6881
:10C3C0001B681A68FB681C681146F868FFF7DFFEF7
:10C3D00003462360FB68DB68013B072B37D801A2CB
:10C3E00052F823F005C4020015C402004FC4020035
:10C3F00027C402004FC402004FC402004FC4020011
:10C4000039C40200FB685A68BB6913441A78BB68D8
:10C410001A7030E0FB685A68BB695B0013441A88E5
:10C42000BB681A8027E0FB685A68BB699B0013440D
:10C430001A68BB681A601EE0FB685A68BB69DB00BB
:10C440001344D3E90034BA68C2E9003413E0FB684E
:10C450005B681946FB68DB68BA6902FB03F30B44AF
:10C460001946FB68DB681A46B86810F0DCFC00BFB0
:10C4700001E00523FB61FB7D1846FCF79EF9FB6993
:10C4800018462437BD4690BD90B58BB000AFF8601C
:10C49000B9607A60F86800F091F97862FB689A6890
:10C4A000FB681B685B68D31A01333B62FB685B68FF
:10C4B0001946FB681B685B68FA68D26802FB03F3E5
:10C4C0000B44FB617A683B6A9A421DD8FB68DB68C3
:10C4D0007A6802FB03F31A46B968F86910F0A3FC06
:10C4E000FB681B685A687B681A44FB689B689A4221
:10C4F00005D8FB681B685A687B68134400E000237A
:10C50000FA68126853602FE0FB68DA683B6A02FB46
:10C5100003F3BB61BA69B968F86910F084FC7A6802
:10C520003B6AD31A7B61FB685868BA68BB691344DD
:10C530001946FB68DB687A6902FB03F31A4610F0C0
:10C5400072FCFB681B687A695A607A6A7B689A4257
:10C550000AD2FB681B685A68FB681C681146F868B9
:10C56000FFF715FE03462360F868FFF724FE3861E5
:10C57000FB681B689B683A699A4203D9FB681B6891
:10C580003A699A6000BF2C37BD4690BD80B588B02F
:10C5900000AFF860B9607A607B68FB617B68002B54
:10C5A00001D1002326E00023FB7507F1170318468D
:10C5B000FCF7F8F8FB681B7C002B07D1FB689B6835
:10C5C0007A68934228BF13467B6009E0F86800F060
:10C5D000F5F8B8617A68BB69934228BF13467B605F
:10C5E0007A68B968F868FFF74FFFFB7D1846FCF7DB
:10C5F000E4F87B6818462037BD4680BD80B58AB018
:10C6000000AFF860B9607A60FB681B681B687B62EA
:10C61000FB681B685B683B627A6A3B6A9A4203D894
:10C620003A6A7B6AD31A04E0FB689A687B6AD31A79
:10C630000133FB61FB685B681946FB68DB687A6A5B
:10C6400002FB03F30B44BB617A68FB699A4219D879
:10C65000FB68DB687A6802FB03F31A46B969B868BD
:10C6600010F0E1FB7A6A7B681A44FB689B689A4287
:10C6700003D87A6A7B68134400E00023FA681268E2
:10C68000136020E0FB68DA68FB6902FB03F37B615F
:10C690007A69B969B86810F0C6FB7A68FB69D31A81
:10C6A0003B61BA687B6913441846FB685968FB68AC
:10C6B000DB683A6902FB03F31A4610F0B4FBFB682F
:10C6C0001B683A691A6000BF2837BD4680BD80B537
:10C6D00088B000AFF860B9607A607B68FB617B6806
:10C6E000002B01D100231AE00023FB7507F117038B
:10C6F0001846FCF757F8F868FFF75DFDB8617A68EF
:10C70000BB69934228BF13467B607A68B968F868B2
:10C71000FFF774FFFB7D1846FCF74FF87B6818465F
:10C720002037BD4680BD80B584B000AF786000235F
:10C73000FB7307F10F031846FCF734F87B681B689E
:10C740000C220021184610F079FBFB7B1846FCF701
:10C7500034F800BF1037BD4680BD80B584B000AF4F
:10C7600078600023FB7207F10B031846FCF71AF8F8
:10C770007868FFF720FDF860FB7A1846FCF71DF893
:10C78000FB6818461037BD4680BD80B485B000AF49
:10C7900078607B681B681B68FB607B681B685B6854
:10C7A000BB60FA68BB689A420CBF01230023DBB26E
:10C7B00018461437BD465DF8047B704790B583B0CA
:10C7C00000AF78607B689C687868FFF7C6FF034617
:10C7D000E31A18460C37BD4690BD000080B584B002
:10C7E00000AF7860786800F00DF8F860FB68002B07
:10C7F00001D0FB6800E0024B18461037BD4680BDF3
:10C8000020D5030080B487B000AF7860174B7B6100
:10C81000174B3B611FE03A697B69D31ADB10DA0FD3
:10C8200013445B10DB007A691344FB60FB681B68F0
:10C83000BB60BA687B689A4202D9FB683B610AE038
:10C84000BA687B689A4203D2FB6808337B6102E0D6
:10C85000FB685B6804E07A693B699A42DBD300239A
:10C8600018461C37BD465DF8047B704720D903008D
:10C8700048DA030080B483B000AF78607B6803F0CF
:10C880006043B3F1005F0CBF01230023DBB2184605
:10C890000C37BD465DF8047B7047000080B586B05C
:10C8A00000AFF860B9601346FB7100237B61FB6841
:10C8B0001B781A46104B9B5C002B08D0FB68043396
:10C8C000FA79B968184604F051F878610EE0FB680F
:10C8D0001B781A46084B9B5C002B07D1FB680C3376
:10C8E000FA79B968184603F001FA78617B6918464D
:10C8F0001837BD4680BD00BF1C3B002080B584B00A
:10C9000000AF78600023FB737B681B781A460F4BDF
:10C910009B5C002B07D07B680433184604F0A4F816
:10C920000346FB730DE07B681B781A46074B9B5C44
:10C93000002B06D17B680C33184603F043FA0346FC
:10C94000FB73FB7B18461037BD4680BD1C3B0020A7
:10C9500080B586B000AFF860B9601346FB71002364
:10C960007B61FB681B781A46104B9B5C002B08D040
:10C97000FB680433FA79B968184604F091F87861D5
:10C980000EE0FB681B781A46084B9B5C002B07D116
:10C99000FB680C33FA79B968184603F075FA7861C8
:10C9A0007B6918461837BD4680BD00BF1C3B002080
:10C9B00080B582B000AF78607B681B781A460A4B5E
:10C9C0009B5C002B0BD17B681B781A46064B9B5C4B
:10C9D000002B04D17B680C33184603F033FB00BFF7
:10C9E0000837BD4680BD00BF1C3B002080B483B02B
:10C9F00000AF78607B6800221A60BFF35F8F00BFD2
:10CA00000C37BD465DF8047B704780B584B000AF3D
:10CA1000786001217868FDF7DCFEF860BFF35F8F76
:10CA2000FB68002B0CBF01230023DBB21846103734
:10CA3000BD4680BD80B483B000AF7860BFF35F8F28
:10CA40007B6800221A6000BF0C37BD465DF8047B8E
:10CA5000704780B582B000AF78600B46FB707B6892
:10CA60005B691B68DB68002B07D07B685B691B6810
:10CA7000DB68FA7811467868984700BF0837BD46EA
:10CA800080BD80B582B000AF78607B685B691B6851
:10CA90001B78002B0BD07B685B691B681B69002B24
:10CAA00006D07B685B691B681B69984700E000BF84
:10CAB0000837BD4680BD80B58CB000AFF860B96066
:10CAC0007A600023FB62FB685B691B681B78002BA4
:10CAD0000ED17B68FF2B28BFFF23FB62FB68FA6A3D
:10CAE000D2B2B9681846FFF7D9FE7861FB6A2CE02C
:10CAF000FB685B691B685B685B68BB62FB685B69C2
:10CB00001B689B687B627A68B968B86AFFF73EFD6C
:10CB10003862FB681846FFF7F1FE0346002B01D090
:10CB20003B6A12E07B6A19687B6A1B7A1A46B86A0C
:10CB3000FFF7CDFDF861F8687B6A1B68FA69D2B22D
:10CB40001946FFF7ABFEB8613B6A18463037BD4661
:10CB500080BD80B58AB000AF786039603B687B6289
:10CB60007B681B78012B04D0022B2FD0002B32D0F6
:10CB700057E07B6A5B691B685B681B683B627B688C
:10CB800059687B681B7A1A46386AFFF7FFFCF86120
:10CB90007B681B7A1A46FB69934204D20321786AA8
:10CBA000FFF757FF3DE00121786AFFF752FF7B6AEC
:10CBB0005B691B689B68BB61786ABB695968BB6924
:10CBC0005B7A1A46FFF7C4FE78612AE00221786A90
:10CBD000FFF73FFF25E07B6A5B691B685B685B686A
:10CBE0003B617B6A5B691B689B68FB600021786A1C
:10CBF000FFF72FFFFB681968FB681B7A1A46386934
:10CC0000FFF765FDB860BB68002B09D0786AFB6848
:10CC10001B68BA68D2B21946FFF740FE786100E09F
:10CC200000BF00BF2837BD4680BD000080B58EB074
:10CC300000AFF860B9607A60FB685B691B68002B25
:10CC400001D085238BE007F114032022B968184630
:10CC500010F0E9F8FB687B627B681B78022B0CBF45
:10CC600001230023DBB287F83130F8687B681B783A
:10CC7000002B01D03C4A00E0002207F114031946C2
:10CC800001F0BEFA78637B6B002B01D07B6B66E012
:10CC9000FB685B697A681A60FB685B691B685B68A4
:10CCA000002B0FD0FB685B691B685B685B681846EC
:10CCB000FFF739FDFB685B691B685B681B681846FA
:10CCC000FFF731FDFB685B6908331846FFF78EFEFE
:10CCD000FB685B6904331846FFF788FEFB685B69F5
:10CCE00003221A737B69B3F1FF3F08D1FB685B69CC
:10CCF0001A7BFB685B6922F00202D2B21A73BB692D
:10CD0000B3F1FF3F0AD1FB685B691A7BFB685B6983
:10CD100022F00102D2B21A73002320E0FB685B69A3
:10CD20001B681B78022B0BD0FB681846FFF740FEF0
:10CD3000FB685B691B681B78002B01D100230EE0A8
:10CD4000F868FB685B691B689B685968FB685B69EE
:10CD50001B689B685B7A1A46FFF7FAFD0346184684
:10CD60003837BD4680BD00BF53CB020080B485B0CC
:10CD700000AF78607B68FB60FB6801221A7000BF1F
:10CD80001437BD465DF8047B7047000090B587B04E
:10CD900000AFF860B9607A603B607B6819464FF07D
:10CDA00000024FF000034FF00004D40344EA514462
:10CDB000CB0313F5FA7044F100014FF47A724FF08F
:10CDC000000310F063F803460C467B617B69042B7B
:10CDD00004D83B6801221A70002312E00B4A00219C
:10CDE000B868FBF7D9FB38613B69002B01D03B6980
:10CDF00007E0BB681B683A6879691846FBF700FCD6
:10CE0000034618461C37BD4690BD00BF6DCD0200DD
:10CE100080B58AB000AFF860B9607A603B60FB68AB
:10CE20005B691B68002B01D1802390E0FB685B6984
:10CE30001B7B03F00203002B01D1082387E07B68F2
:10CE4000002B01D1002382E0B868FFF713FD0346F1
:10CE500083F00103DBB2002B07D0FB685B691B6822
:10CE60001B78022B01D1102371E0FB685B6904334E
:10CE70001846FFF7CAFD034683F00103DBB2002B1F
:10CE800001D0112363E000233B753B6BB3F1FF3FFF
:10CE900013D0FB68996907F114033A6BF868FFF740
:10CEA00075FFF861FB69002B07D0FB685B690433F1
:10CEB0001846FFF7BFFDFB6949E07B687B62BB68F2
:10CEC0003B627A6A396AF868FFF7F5FDB8617A6AF9
:10CED000BB69D31A7B623A6ABB6913443B627B6AC3
:10CEE000002B0AD0F868FFF7CCFD3B7DDBB283F066
:10CEF0000103DBB2002BE4D100E000BF3B68002B54
:10CF000004D07A687B6AD21A3B681A603B7DDBB238
:10CF100083F00103DBB2002B09D03B6BB3F1FF3F81
:10CF200005D0FB689B691B681846FBF79DFBFB68F7
:10CF30005B6904331846FFF77DFD7B6A002B05D043
:10CF40003B7DDBB2002B01D00D2300E0002318460F
:10CF50002837BD4680BD80B582B000AF78607B6861
:10CF60000433184604F01CFA00BF0837BD4680BDE4
:10CF700080B582B000AF78607B680433184604F057
:10CF800057FA00BF0837BD4680BD80B590B000AFEE
:10CF9000F860B9607A600023FB63BB681B783B755F
:10CFA000BB685B787B75BB689B78BB61BB68DB78D3
:10CFB000FB61BB685B683B62BB689B687B62FB682C
:10CFC000043307F114017A68184604F019FDF86378
:10CFD000FB6B18464037BD4680BD80B483B000AFC0
:10CFE00078607B681B681B68002B0CBF0123002343
:10CFF000DBB218460C37BD465DF8047B704780B540
:10D000008CB000AF78607B681B68BB62BB6A1B7E1C
:10D0100087F82730BB6A1B689A6897F82730DB00CF
:10D0200013443B623B6A5B795B08FB77FB7F7B7356
:10D030003B6A1B683B613B6A1B79BB733B6A9B790C
:10D0400003F00103002B45D03B6A5B7903F0010339
:10D05000002B3FD197F827300133BA6A1268127B50
:10D06000934237DA3B6A5B795B08DAB2BB6A1B68CA
:10D07000996897F827300133DB000B445B795B0834
:10D08000DBB29A4226D1BB6A1B689A6897F82730B0
:10D090000133DB001344BB61BB691B687B61BB6967
:10D0A0001B79FB73BB695B7903F00103002B01D093
:10D0B000022300E003233B73BB699B795B0103F010
:10D0C0002003FB62BB6A1B7EDBB20133DAB2BB6AB0
:10D0D0001A760FE03B6A5B7903F00103DBB23B7326
:10D0E00000237B610023FB733B6A9B795B0103F0A8
:10D0F0002003FB627B68083307F10C01FA6A1846CB
:10D10000FFF743FF034618463037BD4680BD80B564
:10D1100084B000AF786039607B681B681B681B684F
:10D12000002B0BD07B681B681B685B68FB607B680F
:10D130001B681B681B68F9683868984700BF103780
:10D14000BD4680BD80B588B000AF78600B46FB70EF
:10D150007B681B68BB610023FB770023FB7207F130
:10D160000B031846FBF71EFBFB78002B05D17868F4
:10D17000FFF733FF0346002B0FD07B685B68B9696C
:10D1800000221846FFF7F8F80346002B02D10123CE
:10D19000FB7702E0BB6900221A60FB7A1846FBF7B6
:10D1A0000CFBFB7F83F00103DBB2002B3CD1BB699E
:10D1B0001B681B69002B02D1BB69043302E0BB6909
:10D1C0001B681B697B61BB695B6910227969184622
:10D1D0000FF01AFE0346002B15D07B680833184663
:10D1E000FFF7B9FE7B6803F108007B68114A796993
:10D1F00001F09EF938617B6808331846FFF7B8FEE6
:10D20000BB697A695A61BB6900221A767868FFF7B0
:10D21000F6FEF860FB68002B08D0F9687868FFF725
:10D2200076FF0123FB7096E700BF00E000BF2037C8
:10D23000BD4680BD39D2020080B586B000AF7860AF
:10D2400039603B683B617B681B78002B1BD1002356
:10D250007B613B691B681B7EFB73FB7B0133FB73AC
:10D260003B691B681B681B7BFA7B9A420DD23B69AA
:10D270001B68FA7B1A763869FFF7C1FE78617B6913
:10D28000002B02D109E003237B6179693869FFF73C
:10D290003EFF01213869FFF755FF1837BD4680BDB5
:10D2A00090B585B000AF786039607B6803F1080005
:10D2B0007B68144A396801F03BF9F860FB68BB6091
:10D2C000BB68002B01D0BB6817E07B6808331846A9
:10D2D000FFF74EFE7B681B6800221A607B681B68A4
:10D2E0003A681C1D13460FCB84E80F007B681A6850
:10D2F0007B681B6804325A61002318461437BD4608
:10D3000090BD00BF39D2020080B584B000AF786014
:10D3100039600023FB607B685B683A46114618461B
:10D32000FEF786FFF860FB68002B03D100217868C8
:10D33000FFF708FFFB6818461037BD4680BD80B474
:10D3400085B000AF786039603B68FB607B68DAB21B
:10D35000FB685A70FB6800221A7000BF1437BD4684
:10D360005DF8047B7047000080B58CB000AFF860BA
:10D37000B9607A60FB700023BB84012387F82430F6
:10D38000144B3B6107F124037B617B68BB61FB7835
:10D390003B77BB683B6207F110031946F868FFF75B
:10D3A000B3FFF862FB6ABB62BB6A002B06D0BB6AA4
:10D3B0000CE0BB6B002B01D0BB6B984797F8243077
:10D3C000DBB2002BF5D197F82530DBB218463037A9
:10D3D000BD4680BD3FD3020080B400AFBFF34F8F86
:10D3E000054BDB6803F4E0620349044B1343CB6055
:10D3F000BFF34F8F00BFFDE700ED00E00400FA052A
:10D4000080B400AF034B044A1A6000BFBD465DF80C
:10D41000047B7047582200200090D00380B500AFF5
:10D4200000F068F90346002B06D0A04B1B681B0ACE
:10D430009F4A03F01F03136000F08EF90346002B90
:10D4400002D09C4B9C4A1A6000F0A8F90346002BBE
:10D4500006D09A4B1B685B0B994A03F007031360D5
:10D4600000F0CEF90346002B05D0964BDB68954AB9
:10D4700023F08073D36000F0E5F90346002B0ED053
:10D480004FF080430022C3F80C214FF0804300226C
:10D49000C3F810214FF080430022C3F8382500F074
:10D4A00003FA0346002B02D0874B03221A6000F0D8
:10D4B0001DFA0346002B0BD0844B05221A60844BC7
:10D4C00001221A60834B00221A60834B3F221A60AC
:10D4D00000F02EFA0346002B76D04FF080537F4A9F
:10D4E000D3F80434C2F820354FF080537B4AD3F888
:10D4F0000834C2F824354FF08053784AD3F80C34FE
:10D50000C2F828354FF08053744AD3F81034C2F86B
:10D510002C354FF08053714AD3F81434C2F83035AB
:10D520004FF080536D4AD3F81834C2F834354FF0B9
:10D5300080536A4AD3F81C34C2F840354FF0805308
:10D54000664AD3F82034C2F844354FF08053634A1A
:10D55000D3F82434C2F848354FF080535F4AD3F8EB
:10D560002834C2F84C354FF080535C4AD3F82C3441
:10D57000C2F850354FF08053584AD3F83034C2F8CF
:10D5800054354FF08053554AD3F83434C2F86035DF
:10D590004FF08053514AD3F83834C2F864354FF015
:10D5A00080534E4AD3F83C34C2F868354FF080536C
:10D5B0004A4AD3F84034C2F86C354FF08053474A9A
:10D5C000D3F84434C2F8703500F0D4F90346002B88
:10D5D00005D0434B1B68434A03F04F03136000F030
:10D5E000FBF90346002B0DD04FF08043D3F80034F5
:10D5F00003F00103002B05D04FF080436FF00102D0
:10D60000C3F8002400F01AFA0346002B05D0364B6D
:10D610001B68354A43F480631360344BD3F8883079
:10D62000324A43F47003C2F88830BFF34F8FBFF320
:10D630006F8F4FF01023D3F80032002B05DB4FF033
:10D640001023D3F80432002B2BDA294B0122C3F824
:10D65000042500BF264BD3F80034002BFAD04FF03E
:10D6600010231522C3F8002200BF214BD3F8003449
:10D67000002BFAD04FF010231522C3F8042200BF6C
:10D680001B4BD3F80034002BFAD0194B0022C3F8FF
:10D69000042500BF164BD3F80034002BFAD0FFF757
:10D6A0009BFEFFF7ADFE00BF80BD00BF240300104E
:10D6B0004035014074C007400DF0ADBA440200107F
:10D6C0003C050040F0ED00E0A00500401056004091
:10D6D00088560040185600401456004000C00040D4
:10D6E00058020010E40E00403C17004000ED00E03E
:10D6F00000E0014080B400AF144B1B68DBB2062B86
:10D700001DD1134B1B6803F00F03002B17D1114BD6
:10D710001B6803F0F003302B01D1012310E00D4B07
:10D720001B6803F0F003402B01D1012308E0094BF3
:10D730001B6803F0F003502B01D1012300E000230C
:10D740001846BD465DF8047B704700BFE00F00F04F
:10D75000E40F00F0E80F00F080B400AF0C4B1B6842
:10D76000DBB2062B0DD10B4B1B6803F00F03002B14
:10D7700007D1094B1B6803F0F003302B01D10123C3
:10D7800000E000231846BD465DF8047B704700BFEB
:10D79000E00F00F0E40F00F0E80F00F080B400AFFD
:10D7A000144B1B68DBB2062B1DD1134B1B6803F017
:10D7B0000F03002B17D1114B1B6803F0F003302B24
:10D7C00001D1012310E00D4B1B6803F0F003402B47
:10D7D00001D1012308E0094B1B6803F0F003502B33
:10D7E00001D1012300E000231846BD465DF8047B0B
:10D7F000704700BFE00F00F0E40F00F0E80F00F00A
:10D8000080B400AF0C4B1B68DBB2062B0DD10B4B69
:10D810001B6803F00F03002B07D1094B1B6803F0B3
:10D82000F003302B01D1012300E000231846BD4650
:10D830005DF8047B704700BFE00F00F0E40F00F0DC
:10D84000E80F00F080B400AF144B1B68DBB2062B6E
:10D850001DD1134B1B6803F00F03002B17D1114B85
:10D860001B6803F0F003302B01D1012310E00D4BB6
:10D870001B6803F0F003402B01D1012308E0094BA2
:10D880001B6803F0F003502B01D1012300E00023BB
:10D890001846BD465DF8047B704700BFE00F00F0FE
:10D8A000E40F00F0E80F00F080B400AF0C4B1B68F1
:10D8B000DBB2062B0DD10B4B1B6803F00F03002BC3
:10D8C00007D1094B1B6803F0F003302B01D1012372
:10D8D00000E000231846BD465DF8047B704700BF9A
:10D8E000E00F00F0E40F00F0E80F00F080B400AFAC
:10D8F0000C4B1B68DBB2062B0DD10B4B1B6803F0E6
:10D900000F03002B07D1094B1B6803F0F003302BEA
:10D9100001D1012300E000231846BD465DF8047BD9
:10D92000704700BFE00F00F0E40F00F0E80F00F0D8
:10D9300080B400AF0C4B1B68DBB2062B0DD10B4B38
:10D940001B6803F00F03002B07D1094B1B6803F082
:10D95000F003502B01D1012300E000231846BD46FF
:10D960005DF8047B704700BFE00F00F0E40F00F0AB
:10D97000E80F00F080B400AF144B1B68DBB2062B3D
:10D980001DD1134B1B6803F00F03002B17D1114B54
:10D990001B6803F0F003302B01D1012310E00D4B85
:10D9A0001B6803F0F003402B01D1012308E0094B71
:10D9B0001B6803F0F003502B01D1012300E000238A
:10D9C0001846BD465DF8047B704700BFE00F00F0CD
:10D9D000E40F00F0E80F00F080B400AF144B1B68B8
:10D9E000DBB2062B1DD1134B1B6803F00F03002B7A
:10D9F00017D1114B1B6803F0F003302B01D1012329
:10DA000010E00D4B1B6803F0F003402B01D1012304
:10DA100008E0094B1B6803F0F003502B01D10123F0
:10DA200000E000231846BD465DF8047B704700BF48
:10DA3000E00F00F0E40F00F0E80F00F080B400AF5A
:10DA4000074B1B68062B05D1064B1B68062B01D123
:10DA5000012300E000231846BD465DF8047B7047B3
:10DA6000300100103401001080B483B000AF786042
:10DA70004FF0A04318460C37BD465DF8047B704755
:10DA800080B584B000AF7860084611461A46034658
:10DA9000FB700B46BB7013467B703B1D1846FFF7AF
:10DAA000E3FFF860FA78BB785B001A437B789B0051
:10DAB0001A433B7E1B0242EA03013B7F1B047A6848
:10DAC0001943FB6802F5E07243F8221000BF1037DB
:10DAD000BD4680BD80B584B002AF7860002301935D
:10DAE000002300930023012201217868FFF7C8FF7B
:10DAF00000BF0837BD4680BD80B584B002AF7860F6
:10DB00000B46FB70FA780023019300230093134621
:10DB1000002200217868FFF7B3FF00BF0837BD4639
:10DB200080BD80B584B000AF78603B1D1846FFF71C
:10DB30009BFFF8607B68012202FA03F31946F8683C
:10DB400000F095F800BF1037BD4680BD80B584B0A9
:10DB500000AF78603B1D1846FFF786FFF8607B68D2
:10DB6000012202FA03F31946F86800F08FF800BFAB
:10DB70001037BD4680BD80B584B000AF78603B1DD6
:10DB80001846FFF771FFF860FB68D3F80435BB60F7
:10DB9000BB68DA437B68012101FA03F31A40FB6892
:10DBA000C3F808257B6801229A40BB681A40FB68CD
:10DBB000C3F80C2500BF1037BD4680BD80B582B0CC
:10DBC00000AF786039603B68002B03D17868FFF7BD
:10DBD000BDFF02E07868FFF7A4FF00BF0837BD462D
:10DBE00080BD80B584B000AF78603B1D1846FFF75C
:10DBF0003BFFF860F86800F020F802467B6822FAE4
:10DC000003F303F0010318461037BD4680BD80B50D
:10DC100084B000AF78603B1D1846FFF725FFF86021
:10DC2000F86800F017F802467B6822FA03F303F065
:10DC3000010318461037BD4680BD80B483B000AFE5
:10DC400078607B68D3F8103518460C37BD465DF810
:10DC5000047B704780B483B000AF78607B68D3F8F2
:10DC6000043518460C37BD465DF8047B704780B418
:10DC700083B000AF786039607B683A68C3F80825E4
:10DC800000BF0C37BD465DF8047B704780B483B09D
:10DC900000AF786039607B683A68C3F80C2500BF34
:10DCA0000C37BD465DF8047B7047000080B584B03A
:10DCB00000AF78600E4A7B6813441B781846FFF764
:10DCC000A6FF0346002B14BF01230023FB73FB7B3D
:10DCD000002B14BF01230023DBB283F00103DBB26E
:10DCE00003F00103DBB218461037BD4680BD00BF0C
:10DCF00048DA030080B582B000AF7860054A7B68DF
:10DD000013441B7800211846FFF758FF00BF08375F
:10DD1000BD4680BD48DA030080B582B000AF7860B0
:10DD2000054A7B6813441B7801211846FFF746FF1C
:10DD300000BF0837BD4680BD48DA030080B582B019
:10DD400000AF00237B6005E07868FFF7E5FF7B68A4
:10DD500001337B607B68012BF6D900BF0837BD46D5
:10DD600080BD80B582B000AF00237B6005E078689D
:10DD7000FFF7C0FF7B6801337B607B68012BF6D91E
:10DD800000BF0837BD4680BD80B582B000AF786067
:10DD9000054A7B6813441B781846FFF7ECFE00BF6A
:10DDA0000837BD4680BD00BF48DA030080B582B0A9
:10DDB00000AF00237B6009E0094A7B6813441B78AD
:10DDC0001846FFF787FE7B6801337B607B68012B79
:10DDD000F2D9FFF7B3FF00BF0837BD4680BD00BFD3
:10DDE00048DA030080B584B000AF78600E4A7B68E3
:10DDF00013441B781846FFF7F4FE0346002B14BFAC
:10DE000001230023FB73FB7B002B14BF01230023A2
:10DE1000DBB283F00103DBB203F00103DBB218468F
:10DE20001037BD4680BD00BF4CDA030080B582B01C
:10DE300000AF00237B600AE0084A7B6813441B782C
:10DE400003211846FFF758FE7B6801337B607B682F
:10DE5000012BF1D900BF0837BD4680BD4CDA030065
:10DE600080B485B000AF78604FF0FF33BB60002313
:10DE7000FB600DE00B4AFB6813441B781A467B6875
:10DE8000934202D1FB68BB6005E0FB680133FB6095
:10DE9000FB68012BEED9BB6818461437BD465DF808
:10DEA000047B70474CDA030080B483B000AF786025
:10DEB000044A7B6813441B7818460C37BD465DF84E
:10DEC000047B70474CDA030080B582B000AF786005
:10DED0007B6803F00103002B01D0FFF767FF7B682D
:10DEE00003F00203002B01D0FFF7A0FF00BF0837AB
:10DEF000BD4680BD80B483B000AF0346FB71FB79A3
:10DF000003F01F02074997F907305B09012000FA67
:10DF100002F2203341F8232000BF0C37BD465DF8E4
:10DF2000047B704700E100E080B500AF00F0B8FC72
:10DF3000024B00229A7000BF80BD00BF482E002017
:10DF4000B0B582B000AF00237B601D4B1B78002B67
:10DF500002D085237B601CE0194B00229A60184B8D
:10DF600000225A60164B00221A61154B0022DA601B
:10DF7000144800F045FC78600EF03AFB034683F04D
:10DF80000103DBB2002B01D000F070FC0C4B01222E
:10DF90001A700D4A0D4BD31ADB081B0443F003041F
:10DFA0000B4D7868FEF71AFC03462A4609492046BD
:10DFB000F8F73CFE7B6818460837BD46B0BD00BF89
:10DFC000482E002089E00200C8FD030088FD030000
:10DFD00078DA030058DA030080B485B000AF7860C7
:10DFE0007B681B68FB60FB68002B03D0FB681A682A
:10DFF0007B681A60FB6818461437BD465DF8047BE1
:10E000007047000080B582B000AF0023FB71FB1D9C
:10E010001846FAF7C7FB094BDB68013B074AD36098
:10E02000064BDB68002B01D1FFF77EFFFB7918461A
:10E03000FAF7C3FB00BF0837BD4680BD482E00205D
:10E0400080B584B000AF0346FB71FB79002B02D191
:10E050000B4BFB6001E00B4BFB60F868FFF7BCFF6C
:10E06000B860BB68002B05D0BB685B68FA791046C6
:10E070009847F2E700BF00BF1037BD4680BD00BF24
:10E08000502E0020582E002080B582B000AF0346ED
:10E09000FB71FB79002B05D1094B01225A7000203E
:10E0A000FFF7CEFFFB79012B05D1054B01229A70BA
:10E0B0000120FFF7C5FF00BF0837BD4680BD00BF88
:10E0C000482E002080B582B000AF786039607B6850
:10E0D000002B05D1044B01225A700020FFF7B0FF3E
:10E0E00000BF0837BD4680BD482E002080B584B0F3
:10E0F00000AF03463960FB71FB79012B08D0032B7D
:10E1000023D0002B00D025E00020FFF7F3FE21E014
:10E110000023FB7307F10F031846FAF743FB0F4B7D
:10E120001B7883F00103DBB2002B01D0FFF708FF5F
:10E130000A4BDB680133094AD360084B01229A700D
:10E14000FB7B1846FAF739FB04E000F08FFBFFF782
:10E1500059FF00BF00BF1037BD4680BD482E0020CC
:10E1600080B588B000AF786039603B68FB617B6840
:10E170001B783B737B685B683B617B689B68DBB2A9
:10E180003B757B68DB68BB61074AFB6952F823304B
:10E190000649FA6951F8221007F10C021046984717
:10E1A00000BF2037BD4680BD5C2E0020602E0020C1
:10E1B00080B588B000AF786039603B68FB617B68F0
:10E1C0001B783B737B685B683B617B689B68DBB259
:10E1D0003B757B68DB68BB61074AFB6952F82330FB
:10E1E0000649FA6951F8221007F10C0210469847C7
:10E1F00000BF2037BD4680BD5C2E0020602E002071
:10E20000B0B58EB000AFF860B9607A60FB681B787B
:10E210003B6329493B6B7A6841F82320BB681A6944
:10E2200026493B6B41F82320BB685B7F1946244A93
:10E230003B6B13440A461A70BB6807F110041D4675
:10E240000FCD0FC495E80F0084E80F003B6B3B62D5
:10E2500000237B63FB681B781A46194B9B5C002BE1
:10E260000ED0FB68181D7B68002B01D0154A00E01A
:10E27000002207F11003194602F01AFB786315E03B
:10E28000FB681B781A460E4B9B5C002B0ED1FB687B
:10E2900003F10C007B68002B01D00B4A00E0002248
:10E2A00007F11003194601F077FC78637B6B184681
:10E2B0003837BD46B0BD00BF5C2E0020602E002068
:10E2C0001C3B002061E10200B1E1020080B584B096
:10E2D00000AF78607B68002B0AD0074B43F0010346
:10E2E000FB607B689B01BB60FB68B868984700E0F7
:10E2F00000BF1037BD4680BD90DA030080B483B004
:10E3000000AF78604FF0A04318460C37BD465DF86B
:10E31000047B704780B584B000AF78603B1D184621
:10E32000FFF7ECFFF8607B68012202FA03F319465D
:10E33000F86800F03CF800BF1037BD4680BD80B5DE
:10E3400084B000AF78603B1D1846FFF7D7FFF86038
:10E350007B68012202FA03F31946F86800F036F8E8
:10E3600000BF1037BD4680BD80B584B000AF786077
:10E370003B1D1846FFF7C2FFF860F86800F00AF886
:10E3800002467B6822FA03F303F0010318461037B4
:10E39000BD4680BD80B483B000AF78607B68D3F8A1
:10E3A000103518460C37BD465DF8047B704780B4C5
:10E3B00083B000AF786039607B683A68C3F808259D
:10E3C00000BF0C37BD465DF8047B704780B483B056
:10E3D00000AF786039607B683A68C3F80C2500BFED
:10E3E0000C37BD465DF8047B704780B584B000AF44
:10E3F00078604FF0A0427B681B6803F5E07340F241
:10E400000C6142F823104FF0A0427B685B6803F573
:10E41000E07340F20C6142F823107B681B681846D9
:10E42000FFF778FF7B685B681846FFF773FF4FF0D4
:10E43000A0427B681B6803F5E07340F20D6142F86F
:10E4400023104FF0A0427B685B6803F5E07340F255
:10E450000D6142F823100420FFF738FF0023FB6012
:10E460001EE07B685B681846FFF77EFF0346002BC3
:10E4700003D0FB68002B17D124E07B681B6818468B
:10E48000FFF75DFF0420FFF721FF7B681B6818463C
:10E49000FFF740FF0420FFF719FFFB680133FB6023
:10E4A000FB68082BDDDD00E000BF7B685B68184679
:10E4B000FFF745FF0420FFF709FF7B685B681846FC
:10E4C000FFF728FF1037BD4680BD000080B588B03B
:10E4D00000AF786039603B68FB617B681B783B73F9
:10E4E0007B681B793B747B685B797B747B689B687A
:10E4F000DBB2BB747B68DB68DBB2FB747B681B69D7
:10E500007B617B685B69BB61074AFB6952F823301A
:10E510000649FA6951F8221007F10C021046984793
:10E5200000BF2037BD4680BD642E00206C2E002029
:10E5300080B586B000AFF860B9607A603B60FB6878
:10E540001B787B6112497B697A6841F82320114965
:10E550007B693A6841F82320BB685B7B002B02D0C3
:10E56000B868FFF742FF00233B61FB68181D7B681A
:10E57000002B01D0084A00E000227B69B96802F054
:10E580007BFE38613B6918461837BD4680BD00BF29
:10E59000642E00206C2E0020CDE4020080B483B0F5
:10E5A00000AF0346FB71FB7903F01F02074997F99F
:10E5B00007305B09012000FA02F241F8232000BF76
:10E5C0000C37BD465DF8047B704700BF00E100E0FA
:10E5D00080B483B000AF03463960FB7197F9073010
:10E5E000002B0BDA3B68DAB20C49FB7903F00F031E
:10E5F000043B5201D2B20B441A7609E03B68DAB20E
:10E60000074997F907305201D2B20B4483F800232F
:10E6100000BF0C37BD465DF8047B704700ED00E09D
:10E6200000E100E080B483B000AF78607B681B0B32
:10E630005BB218460C37BD465DF8047B704780B569
:10E6400082B000AF03460A46FB711346BB71BA792C
:10E6500097F9073011461846FFF7BAFF00BF083791
:10E66000BD4680BD80B582B000AF0346FB7197F90F
:10E6700007301846FFF792FF00BF0837BD4680BD40
:10E6800080B483B000AF0346FB71114A97F907309D
:10E69000002B00DA1F335B115BB252F8232097F98D
:10E6A0000730594203F01F0301F01F0158BF4B42CE
:10E6B0005BB222FA03F303F00103002B14BF012322
:10E6C0000023DBB218460C37BD465DF8047B70476B
:10E6D00000E100E080B483B000AF78604FF080428A
:10E6E0007B68C2F8083300BF0C37BD465DF8047B79
:10E6F000704780B483B000AF0346FB71FB7903F130
:10E70000804301221A6000BF0C37BD465DF8047BD0
:10E71000704780B485B000AF0346FB80FB8803F1EF
:10E72000804300221A60FB8803F180431B68FB6072
:10E73000FB6800BF1437BD465DF8047B704780B4AA
:10E7400083B000AF0346FB80FB8803F180431B6866
:10E75000002B14BF01230023DBB218460C37BD4643
:10E760005DF8047B704780B483B000AF78604FF0F1
:10E7700080427B68C2F8183500BF0C37BD465DF893
:10E78000047B704780B400AF4FF08043D3F8183457
:10E790001B0C03F00103002B14BF01230023DBB289
:10E7A0001846BD465DF8047B704780B582B000AF67
:10E7B0000623FB714FF08040FFF734FF03461846F5
:10E7C000FFF75EFF034683F00103DBB2002B12D09C
:10E7D0004FF08040FFF726FF03461A46FB791946A3
:10E7E0001046FFF72CFF4FF08040FFF71BFF03465A
:10E7F0001846FFF737FF00BF0837BD4680BD000051
:10E80000B0B584B000AF78600023FB60124B1B7979
:10E81000002B02D08523FB6008E00F4A7B68136061
:10E820000D4B01221A710C4B00225A710B4A0C4BF2
:10E83000D31ADB081B0443F003040A4DF868FDF704
:10E84000CDFF03462A4608492046F8F7EFF9FB6852
:10E8500018461037BD46B0BD742E002088FD030059
:10E8600088FD0300F4DA0300A0DA030080B500AFEE
:10E87000FFF79BFF0120FFF776FF064A064BD31AEE
:10E88000DB081B0443F0030304491846F8F7ACF90E
:10E8900000BF80BD88FD030088FD0300C0DA0300CF
:10E8A00080B500AF0C20FFF724FF00BFFFF76AFF21
:10E8B0000346002BFAD100BF80BD000080B500AF39
:10E8C0004FF48070FFF73BFF0346002B14D04FF44A
:10E8D0008070FFF71EFF0120FFF7FCFE104B5B79F5
:10E8E00083F00103DBB2002B06D00D4B01225A71DD
:10E8F0000B4B1B68002098474FF48270FFF71FFFF7
:10E900000346002B0AD04FF48270FFF702FF02206B
:10E91000FFF7E0FE024B1B680120984700BF80BD57
:10E92000742E002080B483B000AF0346FB71FB79E6
:10E9300003F01F02074997F907305B09012000FA2D
:10E9400002F241F8232000BF0C37BD465DF8047B7E
:10E95000704700BF00E100E080B483B000AF034621
:10E960003960FB7197F90730002B0BDA3B68DAB29C
:10E970000C49FB7903F00F03043B5201D2B20B4464
:10E980001A7609E03B68DAB2074997F90730520175
:10E99000D2B20B4483F8002300BF0C37BD465DF8AC
:10E9A000047B704700ED00E000E100E080B582B03C
:10E9B00000AF03460A46FB711346BB71BA7997F95B
:10E9C000073011461846FFF7C7FF00BF0837BD469E
:10E9D00080BD80B582B000AF0346FB7197F9073068
:10E9E0001846FFF79FFF00BF0837BD4680BD80B5C2
:10E9F00082B000AF0346FB80FB88184600F024F885
:10EA000003461B68012B0CBF01230023DBB2184611
:10EA10000837BD4680BD80B584B000AF0346FB809B
:10EA2000FB88184600F010F803461A4600231360CE
:10EA3000FB88184600F008F803461B68FB60FB687B
:10EA400000BF1037BD4680BD80B483B000AF034621
:10EA5000FB80FB8803F1804303F5C04318460C3765
:10EA6000BD465DF8047B704780B483B000AF78602A
:10EA7000044A7B68C2F8043300BF0C37BD465DF81A
:10EA8000047B70470060004080B483B000AF7860C2
:10EA9000054BD3F804237B68134018460C37BD465A
:10EAA0005DF8047B704700BF0060004080B483B015
:10EAB00000AF7860094A7B6803F5A27352F82330EF
:10EAC000064943F001027B6803F5A27341F8232055
:10EAD00000BF0C37BD465DF8047B70470060004006
:10EAE00080B485B000AFF860B9601346FB71164A78
:10EAF000FB6803F5A27352F82330134923F447331C
:10EB000023F44073FA6802F5A27241F822300E4AEB
:10EB1000FB6803F5A27352F82320BB681B0203F4C1
:10EB2000F851FB791B0403F440330B4306491A43A5
:10EB3000FB6803F5A27341F8232000BF1437BD46DC
:10EB40005DF8047B704700BF0060004080B483B074
:10EB500000AF7860074A7B6803F5A27352F8233050
:10EB60001B0A03F01F0318460C37BD465DF8047BF3
:10EB7000704700BF0060004080B483B000AF786091
:10EB8000074A7B6803F5A27352F823301B0C03F08D
:10EB90000303DBB218460C37BD465DF8047B7047B3
:10EBA0000060004080B483B000AF78604FF0A043B5
:10EBB00018460C37BD465DF8047B704780B584B0BD
:10EBC00000AF7860084611461A460346FB700B46B4
:10EBD000BB7013467B703B1D1846FFF7E3FFF860E0
:10EBE000FA78BB785B001A437B789B001A433B7E24
:10EBF0001B0242EA03013B7F1B047A681943FB684E
:10EC000002F5E07243F8221000BF1037BD4680BD08
:10EC100080B584B002AF78600B46FB70FA780023B1
:10EC20000193002300931346002200217868FFF728
:10EC3000C5FF00BF0837BD4680BD80B584B000AFBA
:10EC400078603B1D1846FFF7ADFFF8607A68FB68F7
:10EC500002F5E07253F8223023F00203BB607A68B9
:10EC6000FB6802F5E072B96843F8221000BF103764
:10EC7000BD4680BD80B584B000AF78600B46FB70A8
:10EC80003B1D1846FFF78EFFF8607A68FB6802F5B7
:10EC9000E07253F822307A6823F44031FB6802F5C1
:10ECA000E07243F822107A68FB6802F5E07253F8CC
:10ECB0002230FA78120411467A681943FB6802F58B
:10ECC000E07243F8221000BF1037BD4680BD80B50A
:10ECD00084B000AF78603B1D1846FFF763FFF86013
:10ECE000F86800F021F802467B6822FA03F303F08B
:10ECF000010318461037BD4680BD80B584B000AF13
:10ED000078603B1D1846FFF74DFFF8607A68FB6896
:10ED100002F5E07253F822301B0C03F00303DBB260
:10ED200018461037BD4680BD80B483B000AF786010
:10ED30007B68D3F8103518460C37BD465DF8047B68
:10ED4000704780B586B000AFF860B9607A604FF068
:10ED5000A0433B61FB687B6112E07B699B0007F18C
:10ED60001802134453F8083C1846FFF7DDFF02462B
:10ED70007B681A607B6804337B607B6901337B614D
:10ED8000FA68BB6813447A699A42E6D300BF183721
:10ED9000BD4680BD80B485B000AF786039603B6807
:10EDA000FB607B68DB08BB607B6803F007037B606C
:10EDB00001227B6802FA03F3F968BA680A44127800
:10EDC000134018461437BD465DF8047B704780B485
:10EDD00085B000AF786039603B68FB607B68DB081A
:10EDE000BB607B6803F007037B60FA68BB68134471
:10EDF0001B785AB201217B6801FA03F35BB213431B
:10EE000059B2FA68BB681344CAB21A7000BF14370B
:10EE1000BD465DF8047B704780B483B000AF786076
:10EE20000D4A7B681344303393F90030002B09DB23
:10EE3000094A7B681344303393F90030072B01DC17
:10EE4000012300E0002303F00103DBB218460C3776
:10EE5000BD465DF8047B70477C2E002080B483B0F3
:10EE600000AF7860084A7B681344303393F9003070
:10EE7000072BCCBF01230023DBB218460C37BD465D
:10EE80005DF8047B704700BF7C2E002080B483B007
:10EE900000AF7860074A7B681344303393F9003041
:10EEA000DB43DBB2DB09DBB218460C37BD465DF84D
:10EEB000047B70477C2E002080B485B000AFF860E2
:10EEC000B9607A60FB70BB6859B2104AFB681344A2
:10EED00030330A461A700D49BB687A6841F823201E
:10EEE000FB7883F00103DBB2002B08D0BB68083B42
:10EEF000FA6851B2054A13440A4683F8502000BF0D
:10EF00001437BD465DF8047B704700BF7C2E00209F
:10EF100080B483B000AF7860054A7B681344303317
:10EF2000FF221A7000BF0C37BD465DF8047B7047A6
:10EF30007C2E002080B582B000AF786003497868ED
:10EF4000FFF745FF00BF0837BD4680BDD02E00202B
:10EF500080B483B000AF7860054A7B6813443033D7
:10EF600093F9003018460C37BD465DF8047B7047B6
:10EF70007C2E002080B483B000AF7860044A7B68A8
:10EF800052F8233018460C37BD465DF8047B7047B5
:10EF90007C2E002080B588B000AFF860B9601346C1
:10EFA000FB71FF23FB77FB79002B01D0002300E0EE
:10EFB00008237B61FB79002B01D0082300E00C23A0
:10EFC0003B617B69BB6112E00E4ABB6952F823309A
:10EFD000B3F1FF3F08D1FB79BA68B969F868FFF768
:10EFE0006BFFBB69FB7706E0BB690133BB61BA69A4
:10EFF0003B699A42E8D397F91F3018462037BD463F
:10F0000080BD00BF7C2E002080B483B000AF0346DB
:10F01000FB71FB790A4A4FF0FF3142F82310FB796C
:10F02000072B06D9FB79083B054A1344FF2283F8D6
:10F03000502000BF0C37BD465DF8047B704700BF11
:10F040007C2E002080B582B000AF214B93F8583061
:10F05000002B03D008237B607B6834E00023FB7027
:10F0600006E0FB781846FFF753FFFB780133FB708F
:10F07000FB781F2BF5D90023FB7006E0FB781846C0
:10F08000FFF7C2FFFB780133FB70FB780B2BF5D940
:10F09000042200210F480DF0D1FE06210620FFF7C3
:10F0A00085FC0620FFF795FC4FF4BE70FFF7B3FC1C
:10F0B0004FF00040FFF7D8FC054B012283F85820A1
:10F0C00000237B607B6818460837BD4680BD00BFC3
:10F0D0007C2E0020D02E002080B400AF064B93F889
:10F0E0005830002B14BF01230023DBB21846BD4665
:10F0F0005DF8047B704700BF7C2E002080B586B091
:10F1000000AFF860B9607A6000237B61F868FFF7B0
:10F11000BDFE0346002B02D008237B6156E0BB688E
:10F120009B78C3F34003DBB21A467968F868FFF7AF
:10F1300031FF0346FB7497F91330B3F1FF3F43D01F
:10F14000BB689B78C3F38003DBB283F00103DBB2BF
:10F15000002B13D0BB689B7803F00103DBB2002BBC
:10F1600003D0F868FFF769FD05E0BB685B781946D6
:10F17000F868FFF74DFDF868FFF7DCFEBB689B7889
:10F1800003F00203DBB2002B08D097F91300BB6831
:10F190001B781A46F968FFF7A3FC17E097F91330BC
:10F1A000083B0D4A134493F95010BB681B789B0130
:10F1B0005AB297F91330083B0A4351B2064A134436
:10F1C0000A4683F8502001E004237B617B691846DE
:10F1D0001837BD4680BD00BF7C2E002080B588B0AA
:10F1E00000AF78600B46FB707868FFF737FE034688
:10F1F000002B27D07868FFF7ABFE0346083B2A4A6E
:10F20000134493F95030FB73FB7B9B09BB73BB7BAF
:10F21000032B0AD17868FFF75AFD0346002B01D073
:10F22000032300E00223FB7706E0BB7B012B01D127
:10F23000022300E00323FB77FB7F19467868FFF782
:10F2400019FD2DE07868FFF7E7FD0346002B27D076
:10F250007868FFF77DFE0346BB61BB699BB2403314
:10F260009BB29B00FB82BB691846FFF71FFCFB8A21
:10F270001846FFF7D0FBFB78002B11D07868FFF71A
:10F2800067FE03461846FFF775FE38613B69002BA1
:10F2900006D00122BB6902FA03F31846FFF7E4FB2C
:10F2A00000BF2037BD4680BD7C2E002080B582B0D7
:10F2B00000AF78607868FFF70AFD0346002B14BFA3
:10F2C00001230023DBB218460837BD4680BD00008D
:10F2D00080B594B000AF00233B640023FB604FF483
:10F2E00080737B870123BB640023FB631DE07B8F5E
:10F2F0001846FFF77CFB0346002B0DD0B86CFFF7D8
:10F30000C3FB0346002B07D07B8F1846FFF783FB18
:10F310003A6CBB6C13433B64BB6C5B00BB647B8F80
:10F3200004337B87FB6B0133FB63FB6B072BDED95D
:10F330004FF4BE70FFF75BFB0346002B0ED04FF47B
:10F34000BE70FFF768FB3B6C43F000433B6407F182
:10F350000C031A4601210020FFF7F3FC3B6CDBB2E3
:10F36000002B29D00123BB640023FB6321E0BA6C8E
:10F370003B6C1340002B16D0F86BFFF7E7FB78636C
:10F38000F86BFFF7F9FB034687F83330F86BFFF7AC
:10F39000F1FDF862FB6A002B05D097F83320FB6A79
:10F3A0001146786B9847BB6C5B00BB64FB6B013309
:10F3B000FB63FB6B072BDAD93B6C002B80F2F180EF
:10F3C000002387F84F300023BB6000237B640BE0F1
:10F3D0007B6C9B0007F1500213444FF0FF3243F85F
:10F3E0004C2C7B6C01337B647B6C002BF0D00023B6
:10F3F00087F84F300023FB6374E06C4AFB6B1344C7
:10F40000503393F9003087F82B3097F82B3023F0E6
:10F41000C0037B62654AFB6B1344503393F90030A1
:10F42000B3F1FF3F5BD03B1D1946786AFFF7B2FC92
:10F430000346002B53D097F82B309B0987F82330D5
:10F44000786AFFF785FD03461846FFF793FDF861DC
:10F45000FB69002B03D197F82330032B3FD197F89A
:10F460002330032B05D107F108031946786AFFF70B
:10F47000AEFC786AFFF741FC0346FB7607F10C030C
:10F480001946786AFFF786FC78617B69002B02D009
:10F49000FB7E022B05D07B69002B20D1FB7E032B4A
:10F4A0001DD197F82330032B10D1FB7E022B01D105
:10F4B000032300E00223FB74FB7C1946786AFFF704
:10F4C000D9FB97F84F30013387F84F30FB69002B99
:10F4D00005D097F82320FB691146786A9847FB6BA3
:10F4E0000133FB63FB6B032B87D997F84F30002B5D
:10F4F00052D0012387F84E303B461A4601210020A6
:10F50000FFF71FFC00237B6416E07B6C9B0007F178
:10F510005002134453F8502C7B6C9B0007F15001B0
:10F520000B4453F8443C9A4203D0002387F84E30F2
:10F5300005E07B6C01337B647B6C002BE5D097F896
:10F540004E30002B03D0002387F84F3024E00023F7
:10F550007B641EE07B6C9B0007F15002134453F860
:10F56000502C7B6C9B0007F150010B4443F8442C5A
:10F570007B6C9B0007F15002134453F8482C7B6CC2
:10F580009B0007F150010B4443F84C2C7B6C01337A
:10F590007B647B6C002BDDD097F84F30002B7FF421
:10F5A00026AF00BF5037BD4680BD00BF7C2E002077
:10F5B00080B500AF024B1B68984700BF80BD00BFFD
:10F5C000D82E002080B483B000AF78607B68064AF4
:10F5D000934201D1054B00E0002318460C37BD468D
:10F5E0005DF8047B704700BF00200040D82E00204B
:10F5F00080B586B000AF786039607868FFF7E2FFC9
:10F6000038613B69002B20D00023FB750023FB727F
:10F6100007F10B031846F9F7C5F83B691B79002B76
:10F6200002D00123FB7505E03B693A681A603B692B
:10F6300001221A71FB7A1846F9F7BFF8FB7D002BFF
:10F6400003D01123FB60FB6802E00023FB60FB6832
:10F6500018461837BD4680BD80B584B000AF7860CD
:10F660007868FFF7AFFFF860FB68002B05D0FB68F8
:10F6700000221A60FB6800221A7100BF1037BD46D5
:10F6800080BD000080B483B000AF0346FB71FB79FE
:10F6900003F01F02074997F907305B09012000FAC0
:10F6A00002F241F8232000BF0C37BD465DF8047B11
:10F6B000704700BF00E100E080B483B000AF0346B4
:10F6C0003960FB7197F90730002B0BDA3B68DAB22F
:10F6D0000C49FB7903F00F03043B5201D2B20B44F7
:10F6E0001A7609E03B68DAB2074997F90730520108
:10F6F000D2B20B4483F8002300BF0C37BD465DF83F
:10F70000047B704700ED00E000E100E080B483B0CE
:10F7100000AF78607B681B0B5BB218460C37BD46A8
:10F720005DF8047B704780B582B000AF03460A469F
:10F73000FB711346BB71BA7997F907301146184629
:10F74000FFF7BAFF00BF0837BD4680BD80B582B065
:10F7500000AF0346FB7197F907301846FFF792FF99
:10F7600000BF0837BD4680BD80B485B000AF78606B
:10F770000B467B807B887A68134400221A607B8862
:10F780007A6813441B68FB60FB6800BF1437BD46F2
:10F790005DF8047B704780B483B000AF78600B469F
:10F7A0007B807B887A6813441B68002B14BF01237D
:10F7B0000023DBB218460C37BD465DF8047B70476A
:10F7C00080B483B000AF786039607B683A68C3F872
:10F7D000042300BF0C37BD465DF8047B704780B43E
:10F7E00083B000AF786039607B68D3F804233B684E
:10F7F0001340002B14BF01230023DBB218460C3743
:10F80000BD465DF8047B704780B483B000AF78607C
:10F8100039607B683A68C3F8082300BF0C37BD46DF
:10F820005DF8047B704780B485B000AF78607B687A
:10F83000D3F88034FB607B68FA68C3F88024FB68E7
:10F8400018461437BD465DF8047B704780B483B01A
:10F8500000AF78607B680422C3F8002500BF0C3736
:10F86000BD465DF8047B704780B485B000AFF8609A
:10F87000B9607A60FB687A68C3F81425FB68BA68D7
:10F88000C3F80C2500BF1437BD465DF8047B7047F4
:10F8900080B485B000AFF860B9607A60FB68BA6880
:10F8A000C3F80825FB687A68C3F8102500BF143731
:10F8B000BD465DF8047B704780B483B000AF7860CC
:10F8C0007B68D3F81835DBB218460C37BD465DF8B7
:10F8D000047B704780B483B000AF78600B46FB7048
:10F8E000FA787B68C3F81C2500BF0C37BD465DF86D
:10F8F000047B704780B483B000AF78600B46FB7028
:10F90000FB787A68134401221A6000BF0C37BD46A9
:10F910005DF8047B704780B483B000AF78600B461D
:10F92000FB701346BB70FA78BB781343DBB21A4600
:10F930007B68C3F86C2500BF0C37BD465DF8047BBF
:10F94000704780B483B000AF786039607B683A68F4
:10F95000C3F8242500BF0C37BD465DF8047B704713
:10F9600080B483B000AF78604FF0A04318460C37E6
:10F97000BD465DF8047B704780B584B000AF786009
:10F98000084611461A460346FB700B46BB701346E9
:10F990007B703B1D1846FFF7E3FFF860FA78BB78F1
:10F9A0005B001A437B789B001A433B7E1B0242EAB2
:10F9B00003013B7F1B047A681943FB6802F5E07280
:10F9C00043F8221000BF1037BD4680BD80B584B01B
:10F9D00002AF7860002301930023009300230122EB
:10F9E00001217868FFF7C8FF00BF0837BD4680BD1A
:10F9F00080B584B002AF78600B46FB70FA780023C4
:10FA00000193002300931346002200217868FFF73A
:10FA1000B3FF00BF0837BD4680BD80B584B000AFDE
:10FA200078603B1D1846FFF79BFFF8607B6801225A
:10FA300002FA03F31946F86800F004F800BF103723
:10FA4000BD4680BD80B483B000AF786039607B680C
:10FA50003A68C3F8082500BF0C37BD465DF8047B43
:10FA6000704780B582B000AF786039603B681B6832
:10FA7000B3F1FF3F09D03B681B681846FFF7CDFF85
:10FA80003B681B681846FFF7A1FF3B685B68B3F152
:10FA9000FF3F05D03B685B6800211846FFF7A8FFD1
:10FAA0007B681A683B689B6919461046FFF749FF57
:10FAB0007B6818683B68597D3B681B7D1A46FFF7D9
:10FAC0002AFF7B6818683B6819683B685B681A46C0
:10FAD000FFF7CAFE3B681B7D012B22D13B689B6868
:10FAE000B3F1FF3F05D03B689B6800211846FFF744
:10FAF0007FFF3B68DB68B3F1FF3F09D03B68DB6801
:10FB00001846FFF78AFF3B68DB681846FFF75EFF81
:10FB10007B6818683B68D9683B689B681A46FFF7A2
:10FB2000B7FE00BF0837BD4680BD000080B582B07B
:10FB300000AF78600B46FB707B681B684FF48E71DA
:10FB40001846FFF711FE7B681B684FF4A271184638
:10FB5000FFF70AFE7B681B680E491846FFF730FE68
:10FB60007B681B681846FFF7D1FD03461A46FB78F1
:10FB700019461046FFF7D7FD7B681B681846FFF74C
:10FB8000C5FD03461846FFF7E1FD00BF0837BD4637
:10FB900080BD00BF8000020080B586B000AFF86075
:10FBA000B9607A60FB681B791A462C2303FB02F3C9
:10FBB000284A13443B6100237B613B6993F82A3058
:10FBC000002B03D008237B617B693EE0FB681A6849
:10FBD000FB681B791946204B53F821301946104613
:10FBE000FFF706FD0346002B03D011237B617B69E1
:10FBF0002BE0B968F868FFF734FF3B697A685A6010
:10FC0000BB681A693B691A603B695B68002B05D0C9
:10FC1000BB681B7F1946F868FFF788FFFB681B6805
:10FC20001846FFF713FE3B6900229A613B690022E8
:10FC3000DA613B69002283F829203B6900225A617E
:10FC40003B69012283F82A207B6918461837BD4694
:10FC500080BD00BFE02E002018DB030080B584B01B
:10FC600000AF786039604FF48E717868FFF77CFDE3
:10FC70003B689A683B681B6A13441B78FB733B68BC
:10FC80001B6A5A1C3B681A62FB7B19467868FFF7AF
:10FC900021FE00BF1037BD4680BD80B582B000AFE9
:10FCA0007860396016E03B6893F82830DBB2002BAF
:10FCB00001D0002315E04FF48E717868FFF76BFDDB
:10FCC000034683F00103DBB2002BECD1396878687E
:10FCD000FFF7C4FF3B681A6A3B685B699A42EAD344
:10FCE000012318460837BD4680BD000080B586B0A8
:10FCF00000AFF860B9607A60FB681B791A462C2364
:10FD000003FB02F32E4A13443B61F86800F05AF8F3
:10FD10000346002B03D011237B617B694CE03B69D8
:10FD20007A685A613B69BA689A603B6900221A6234
:10FD30003B69002283F8282000237B61FB681B6855
:10FD40004FF48E711846FFF70FFDFB681B68082102
:10FD50001846FFF7CFFDFB681B6839691846FFF7A7
:10FD60007DFF3B695B68002B25D1FB681B68396907
:10FD70001846FFF792FF034683F00103DBB2002B26
:10FD800002D00F237B6113E000BFFB681B684FF4B8
:10FD90008E711846FFF7FFFC034683F00103DBB2C8
:10FDA000002BF2D1FB681B680C211846FFF7A2FD5F
:10FDB0003B6900225A617B6918461837BD4680BDF1
:10FDC000E02E002080B483B000AF78607B681B79A0
:10FDD0001946094A2C2303FB01F3134414331B680F
:10FDE000002B14BF01230023DBB218460C37BD469D
:10FDF0005DF8047B704700BFE02E002080B582B024
:10FE000000AF78607B681B684FF492711846FFF76B
:10FE1000ABFC7B681B684FF484711846FFF7A4FCA9
:10FE20007B681B6800211846FFF764FD00BF083798
:10FE3000BD4680BD90B583B000AF786039603B6847
:10FE40009B69002B08D14FF484717868FFF78CFC14
:10FE50007868FFF731FD13E04FF484717868FFF79D
:10FE600083FC3B68DA683B685B6AD4187868FFF704
:10FE700023FD034623703B685B6A5A1C3B685A6249
:10FE80000C37BD4690BD000080B588B000AFF8606B
:10FE9000B9607A60FB681B791A462C2303FB02F3D6
:10FEA000674A13447B610023FB747B695B68002B0A
:10FEB00006D0FB681B684FF401711846FFF7A4FCDD
:10FEC0007B699B69002B14D07B69DB69002B0ED00A
:10FED0007B695B68002B06D0FB681B684FF40171DF
:10FEE0001846FFF76DFC1123FB61FB69A3E00123BA
:10FEF000FB74FB7C83F00103DBB2002B0CD07B692D
:10FF00007A689A617B69BA68DA607B6900225A6212
:10FF10007B690022DA6105E07B69BA681A617B6956
:10FF20007A68DA617B6993F8293083F00103DBB2E8
:10FF3000002B08D0FB7C83F00103DBB2002B02D046
:10FF4000F868FFF75BFF7B695B68002B69D1FB6892
:10FF50001B684FF4A2711846FFF706FCFB681B688C
:10FF60004FF492711846FFF716FC03467B76FB6848
:10FF70001B684FF484711846FFF70DFC0346FB76AF
:10FF8000FB681B684FF4A2711846FFF704FC034698
:10FF9000BB76FB7E83F00103DBB2002B0BD0BB7E74
:10FFA00083F00103DBB2002B05D07B7E83F00103DD
:10FFB000DBB2002BD2D17B7E002B0ED1BB7E002B7F
:10FFC0000BD1FB681B6879691846FFF733FF7B6923
:10FFD0009A697B695B6A9A42C0D87B6900229A6100
:10FFE0007B7E002B03D00323FB61FB6923E0BB7EF8
:10FFF000002B03D00F23FB61FB691CE07B6993F8A6
:020000023000CC
:100000002930002B06D0FB681B6800211846FFF73B
:1000100071FC0DE0FB681B6804211846FFF76AFCC1
:1000200006E0FB681B684FF401711846FFF7C8FB38
:100030000023FB61FB6918462037BD4680BD00BF29
:10004000E02E002080B582B000AF78607B681B791D
:1000500019460F4A2C2303FB01F3134429331B7861
:1000600083F00103DBB2002B0DD07868FFF7C6FEEA
:100070007B681B791946064A2C2303FB01F31344C2
:10008000293301221A7000BF0837BD4680BD00BF6A
:10009000E02E002080B588B000AFF860B9607A60CB
:1000A00001233B74BB68BB617B687B61FB685B6859
:1000B000FA68116807F110021046984700BF203710
:1000C000BD4680BD80B586B000AF78603960002342
:1000D0003B723B683B617B689B68FB607B680022EE
:1000E0005A617B685B687A68116807F108021046FC
:1000F000984700BF1837BD4680BD80B588B000AFB7
:10010000786039604FF400717868FFF768FB034648
:10011000002B39D04FF492717868FFF73CFB03460F
:10012000002B31D04FF492717868FFF71DFB4FF42C
:1001300001717868FFF768FB3B6893F8293083F01A
:100140000103DBB2002B03D004217868FFF7D2FB58
:1001500002233B727868FFF766FB03467B613B68CE
:100160009B693B613B68DB68FB603B6800229A61EE
:100170003B680022DA613B685B683A68116807F106
:1001800008021046984752E004217868FFF727FBE1
:100190000346002B4BD04FF484717868FFF7FBFACD
:1001A0000346002B43D039687868FFF743FE3B686D
:1001B0009A693B685B6A9A4239D13B68DB69002BDC
:1001C00019D03B68DB68FB613B685B6ABB613B68DD
:1001D000DA693B689A613B681A693B68DA603B6898
:1001E0000022DA613B6800225A62FA69B96938680C
:1001F000FFF750FF1BE03B6893F8293083F00103C1
:10020000DBB2002B03D004217868FFF773FB4FF4B7
:1002100001717868FFF7F8FA3B6800229A613B6841
:10022000596A3B68DB681A463868FFF733FF4FF4BA
:100230008E717868FFF7AFFA0346002B22D03B6837
:100240001A6A3B685B699A420DD23B6893F8283082
:10025000DBB283F00103DBB2002B04D0396878688D
:10026000FFF7FCFC0EE04FF48E717868FFF77CFA24
:100270003B685B69002B05D03B685B6919463868B1
:10028000FFF720FF4FF4A2717868FFF784FA034666
:10029000002B1CD04FF4A2717868FFF765FA3B6819
:1002A00093F82930002B03D000217868FFF722FB58
:1002B0003B689B69002B0AD03B6800229A613B682F
:1002C000596A3B68DB681A463868FFF7E3FE00BFEF
:1002D0002037BD4680BD000080B500AF024903480D
:1002E000FFF70BFF00BF80BDE02E00200020004084
:1002F00080B483B000AF0346FB71FB7903F01F02AB
:10030000074997F907305B09012000FA02F241F82A
:10031000232000BF0C37BD465DF8047B704700BF4B
:1003200000E100E080B483B000AF03463960FB71A8
:1003300097F90730002B0BDA3B68DAB20C49FB79EE
:1003400003F00F03043B5201D2B20B441A7609E0CA
:100350003B68DAB2074997F907305201D2B20B4431
:1003600083F8002300BF0C37BD465DF8047B70475F
:1003700000ED00E000E100E080B483B000AF786001
:100380007B6803F06043B3F1005F0CBF01230023DF
:10039000DBB218460C37BD465DF8047B704780B46D
:1003A00083B000AF78607B681B0B5BB218460C37DC
:1003B000BD465DF8047B704780B582B000AF034650
:1003C0000A46FB711346BB71BA7997F9073011469B
:1003D0001846FFF7A7FF00BF0837BD4680BD80B5B0
:1003E00082B000AF0346FB7197F907301846FFF75C
:1003F0007FFF00BF0837BD4680BD80B485B000AF29
:1004000078600B467B807B887A68134400221A60F0
:100410007B887A6813441B68FB60FB6800BF143755
:10042000BD465DF8047B704780B483B000AF786050
:100430000B467B807B887A6813441B68002B14BFB3
:1004400001230023DBB218460C37BD465DF8047B60
:10045000704780B483B000AF786039607B68D3F8B0
:1004600000223B681A437B68C3F8002200BF0C37A8
:10047000BD465DF8047B704780B483B000AF786000
:1004800039607B68D3F800223B68DB431A407B6805
:10049000C3F8002200BF0C37BD465DF8047B7047EF
:1004A00080B483B000AF786039607B683A68C3F885
:1004B000042300BF0C37BD465DF8047B704780B451
:1004C00083B000AF786039607B683A68C3F808236E
:1004D00000BF0C37BD465DF8047B704780B485B023
:1004E00000AF78607B68D3F88034FB607B68FA6883
:1004F000C3F88024FB6818461437BD465DF8047BBA
:10050000704780B483B000AF78607B680822C3F87E
:10051000002500BF0C37BD465DF8047B704780B4F2
:1005200085B000AFF860B9607A60FB68BA68C3F85C
:100530000C25FB687A68C3F8142500BF1437BD4644
:100540005DF8047B704780B485B000AFF860B96097
:100550007A60FB68BA68C3F80825FB687A68C3F854
:10056000102500BF1437BD465DF8047B704780B48A
:1005700083B000AF78600B46FB70FB787A68134459
:1005800001221A6000BF0C37BD465DF8047B70473E
:1005900080B483B000AF78600B46FB701346BB702D
:1005A000FA78BB781343DBB21A467B68C3F86C2534
:1005B00000BF0C37BD465DF8047B704780B483B044
:1005C00000AF786039607B683A68C3F8242500BFC3
:1005D0000C37BD465DF8047B704780B485B000AF32
:1005E000F860B9607A60BA68FB68C3F84425FB68B4
:1005F0007A68C3F8482500BF1437BD465DF8047B10
:10060000704780B483B000AF78607B68D3F84C3516
:1006100018460C37BD465DF8047B704780B485B042
:1006200000AFF860B9607A60BA68FB68C3F8342537
:10063000FB687A68C3F8382500BF1437BD465DF8FB
:10064000047B704780B483B000AF78607B68D3F8D8
:100650003C3518460C37BD465DF8047B704780B4C6
:1006600083B000AF78604FF0A04318460C37BD460A
:100670005DF8047B704780B584B000AF78600846B1
:1006800011461A460346FB700B46BB7013467B703F
:100690003B1D1846FFF7E3FFF860FA78BB785B0074
:1006A0001A437B789B001A433B7E1B0242EA0301FC
:1006B0003B7F1B047A681943FB6802F5E07243F83C
:1006C000221000BF1037BD4680BD80B584B002AF98
:1006D000786000230193002300930023012201216D
:1006E0007868FFF7C8FF00BF0837BD4680BD80B5FA
:1006F00084B002AF78600B46FB70FA780023019358
:10070000002300931346002200217868FFF7B3FF0F
:1007100000BF0837BD4680BD80B584B000AF7860AB
:100720003B1D1846FFF79BFFF8607B68012202FA29
:1007300003F31946F86800F004F800BF1037BD460F
:1007400080BD80B483B000AF786039607B683A6860
:10075000C3F8082500BF0C37BD465DF8047B704721
:1007600080B582B000AF786039603B681B68B3F138
:10077000FF3F09D03B681B681846FFF7CDFF3B6879
:100780001B681846FFF7A1FF3B685B68B3F1FF3FAA
:1007900005D03B685B6800211846FFF7A8FF7B681F
:1007A0001A683B689B6919461046FFF707FF7B688C
:1007B00018683B68597D3B681B7D1A46FFF7E8FEC9
:1007C0007B6818683B6819683B685B681A46FFF7E6
:1007D000A6FE3B681B7D012B22D13B689B68B3F1D1
:1007E000FF3F05D03B689B6800211846FFF77FFF5D
:1007F0003B68DB68B3F1FF3F09D03B68DB68184614
:10080000FFF78AFF3B68DB681846FFF75EFF7B68EF
:1008100018683B68D9683B689B681A46FFF793FEE7
:1008200000BF0837BD4680BD80B582B000AF78609C
:100830000B46FB707B681B684FF488711846FFF706
:10084000DCFD7B681B684FF490711846FFF7D5FDFF
:100850007B681B684FF492711846FFF7CEFD7B68EA
:100860001B684FF4A2711846FFF7C7FD7B681B6831
:100870000E491846FFF714FE7B681B681846FFF701
:100880008EFD03461A46FB7819461046FFF794FD85
:100890007B681B681846FFF782FD03461846FFF782
:1008A0009EFD00BF0837BD4680BD00BF100302009B
:1008B00080B586B000AFF860B9607A60FB681B79DC
:1008C0001A461346DB0013449B00264A13443B613F
:1008D00000237B613B6993F82030002B03D0082371
:1008E0007B617B693AE0FB681A68FB681B791946F3
:1008F0001D4B53F8213019461046FEF779FE03468A
:10090000002B03D011237B617B6927E0B968F8686D
:10091000FFF726FF3B697A685A60BB681A693B6932
:100920001A603B695B68002B05D0BB681B7F1946CA
:10093000F868FFF779FFFB681B681846FFF7E1FDD1
:100940003B6900229A613B690022DA613B6900221F
:100950005A613B69012283F820207B6918461837C9
:10096000BD4680BD0C2F002024DB030080B588B07D
:1009700000AFF860B9607A60FB681B791A461346CD
:10098000DB0013449B00374A13447B61B868FFF7D0
:10099000F3FC034683F00103DBB2002B03D01023EA
:1009A000FB61FB6959E0F86800F05EF80346002B34
:1009B00003D01123FB61FB694FE07B697A685A61C0
:1009C0007B69BA689A600023FB61FB681B684FF47F
:1009D00090711846FFF711FDFB681B684FF4AC716E
:1009E0001846FFF70AFDFB6818687B6999687B6900
:1009F0005B691A46FFF7F1FDFB681B680821184682
:100A0000FFF7B5FD7B695B68002B25D1FB681B6890
:100A10004FF490711846FFF707FD0346FB76FB681D
:100A20001B684FF4AC711846FFF7FEFC0346BB761B
:100A3000FB7E83F00103DBB2002B05D0BB7E83F08D
:100A40000103DBB2002BE1D1BB7E002B01D00F23D1
:100A5000FB617B6900225A61FB6918462037BD465D
:100A600080BD00BF0C2F002080B483B000AF786041
:100A70007B681B791946094A0B46DB000B449B0037
:100A8000134414331B68002B14BF01230023DBB273
:100A900018460C37BD465DF8047B70470C2F0020CC
:100AA00080B588B000AFF860B9607A60FB681B79E8
:100AB0001A461346DB0013449B00694A13447B61CA
:100AC000B868FFF759FC034683F00103DBB2002B43
:100AD00003D01023FB61FB69BEE00023FB767B693A
:100AE0005B68002B06D0FB681B684FF40471184646
:100AF000FFF7E5FC7B699B69002B14D07B69DB6900
:100B0000002B0ED07B695B68002B06D0FB681B684E
:100B10004FF404711846FFF7C3FC1123FB61FB6916
:100B20009AE00123FB76FB7E83F00103DBB2002B0E
:100B300009D07B697A689A617B69BA68DA607B69F7
:100B40000022DA6105E07B69BA681A617B697A681C
:100B5000DA610023FB61FB681B684FF4887118465B
:100B6000FFF74BFCFB681B684FF4A2711846FFF7B8
:100B700044FCFB681B687A68B9681846FFF74EFDAD
:100B8000FB7E83F00103DBB2002B06D0FB681B6801
:100B900000211846FFF7EBFC05E0FB681B682021ED
:100BA0001846FFF756FCFB681B7919462C4A0B4682
:100BB000DB000B449B00134404331B68002B43D120
:100BC000FB681B684FF488711846FFF72DFC03463D
:100BD000FB74FB681B684FF4A2711846FFF724FCF6
:100BE0000346BB74FB681B684FF492711846FFF70D
:100BF0001BFC03467B74FB7C83F00103DBB2002B00
:100C00000BD0BB7C83F00103DBB2002B05D07B7CD7
:100C100083F00103DBB2002BD2D1FB681B791946AC
:100C20000F4A0B46DB000B449B0013441833002291
:100C30001A607B7C002B01D00323FB61BB7C002B63
:100C400009D00F23FB6106E0FB681B684FF40471B9
:100C50001846FFF725FCFB6918462037BD4680BDC6
:100C60000C2F002080B588B000AFF860B9607A60C2
:100C700001233B74BB68BB617B687B61FB685B687D
:100C8000FA68116807F110021046984700BF203734
:100C9000BD4680BD80B586B000AF78603960002366
:100CA0003B723B683B617B689B68FB607B68002212
:100CB0005A617B685B687A68116807F10802104620
:100CC000984700BF1837BD4680BD80B588B000AFDB
:100CD000786039604FF492717868FFF7A5FB03469E
:100CE000002B22D04FF492717868FFF786FB022325
:100CF0003B727868FFF7F2FB03467B617868FFF789
:100D0000A1FC03463B613B68DB68FB603B6800225B
:100D10009A613B680022DA613B685B683A68116857
:100D200007F10802104698473BE04FF48871786855
:100D3000FFF77AFB0346002B33D04FF488717868B5
:100D4000FFF75BFB7868FFF77DFCF8613B689B6908
:100D5000FA699A4225D13B68DB69002B17D03B68C2
:100D6000DB68BB6120217868FFF786FB3B68DA69A6
:100D70003B689A613B681A693B68DA603B6800220D
:100D8000DA61BA69F9693868FFF76CFF09E03B6816
:100D900000229A613B68DB681A46F9693868FFF7F8
:100DA00061FF4FF4A2717868FFF73EFB0346002B0A
:100DB00018D04FF4A2717868FFF71FFB3B689B695E
:100DC000002B0FD03B6800229A613B680022DA6159
:100DD0007868FFF737FC01463B68DB681A463868DD
:100DE000FFF740FF4FF490717868FFF71DFB034653
:100DF000002B10D04FF490717868FFF7FEFA3B6833
:100E00005B69002B07D07868FFF7FBFB03461946A8
:100E10003868FFF73FFF00BF2037BD4680BD0000A8
:100E200080B500AF02490348FFF74FFF00BF80BD08
:100E30000C2F00200020004080B483B000AF034698
:100E4000FB71FB7903F01F02074997F907305B0933
:100E5000012000FA02F241F8232000BF0C37BD4602
:100E60005DF8047B704700BF00E100E080B483B010
:100E700000AF0346FB71FB7903F01F02074997F9A6
:100E800007305B09012000FA02F2203341F82320E9
:100E900000BF0C37BD465DF8047B704700E100E001
:100EA00080B483B000AF03463960FB7197F9073017
:100EB000002B0BDA3B68DAB20C49FB7903F00F0325
:100EC000043B5201D2B20B441A7609E03B68DAB215
:100ED000074997F907305201D2B20B4483F8002337
:100EE00000BF0C37BD465DF8047B704700ED00E0A5
:100EF00000E100E080B483B000AF78607B681B0B3A
:100F00005BB218460C37BD465DF8047B704780B570
:100F100082B000AF03460A46FB711346BB71BA7933
:100F200097F9073011461846FFF7BAFF00BF083798
:100F3000BD4680BD80B582B000AF0346FB7197F916
:100F400007301846FFF778FF00BF0837BD4680BD61
:100F500080B582B000AF0346FB7197F907301846A1
:100F6000FFF784FF00BF0837BD4680BD80B483B063
:100F700000AF78600B46FB70FB787A68134401225F
:100F80001A6000BF0C37BD465DF8047B704780B423
:100F900085B000AF78600B467B807B887A6813440D
:100FA00000221A607B887A6813441B68FB60FB6828
:100FB00000BF1437BD465DF8047B704780B483B032
:100FC00000AF78600B467B807B887A6813441B688F
:100FD000002B14BF01230023DBB218460C37BD469B
:100FE0005DF8047B704780B483B000AF78603960EF
:100FF0007B68D3F800223B68DB431A407B68C3F868
:10100000002200BF0C37BD465DF8047B704780B4FA
:1010100083B000AF786039607B683A68C3F8042316
:1010200000BF0C37BD465DF8047B704780B483B0C9
:1010300000AF786039607B683A68C3F8082300BF66
:101040000C37BD465DF8047B704780B483B000AFB9
:1010500078607B680522C3F8002500BF0C37BD46C9
:101060005DF8047B704780B483B000AF78607B6824
:101070000022C3F8002500BF0C37BD465DF8047B95
:10108000704780B485B000AFF860B9607A60FB68E3
:10109000BA68C3F80825FB687A68C3F80C2500BF56
:1010A0001437BD465DF8047B704780B483B000AF51
:1010B00078607B68D3F8083518460C37BD465DF874
:1010C000047B704780B483B000AF78607B68D3F84E
:1010D0000C3518460C37BD465DF8047B704780B46C
:1010E00083B000AF786039607B683A68C3F8242524
:1010F00000BF0C37BD465DF8047B704780B485B0F7
:1011000000AF78607B68D3F8C434FB607B68FA6812
:10111000C3F8C424FB6818461437BD465DF8047B49
:10112000704780B483B000AF78600B46FB70FA78EC
:101130007B68C3F8882500BF0C37BD465DF8047B8B
:10114000704780B483B000AF78607B68D3F81835FF
:10115000DBB218460C37BD465DF8047B704780B49F
:1011600083B000AF78600B46FB70FA787B68C3F8F9
:101170001C2500BF0C37BD465DF8047B704780B46A
:1011800083B000AF786039607B683A68C3F80022AA
:1011900000BF0C37BD465DF8047B704780B483B058
:1011A00000AF78604FF0A04318460C37BD465DF89D
:1011B000047B704780B584B000AF78600846114664
:1011C0001A460346FB700B46BB7013467B703B1DF3
:1011D0001846FFF7E3FFF860FA78BB785B001A4324
:1011E0007B789B001A433B7E1B0242EA03013B7F54
:1011F0001B047A681943FB6802F5E07243F8221079
:1012000000BF1037BD4680BD80B584B002AF7860A6
:10121000002301930023009300230122002178681A
:10122000FFF7C8FF00BF0837BD4680BD80B485B05A
:1012300000AF78600323FB607B6803F00103002BA1
:1012400002D04FF40243FB607B6803F00203002BE3
:1012500002D048F20123FB607B6803F00403002BFB
:1012600002D048F20223FB60FB6818461437BD46E3
:101270005DF8047B7047000080B58AB002AFF8606B
:10128000B9607A603B60FB681B791A4613461B0104
:101290009B1A9B00404A13447B617B6993F82D3075
:1012A000002B03D00823FB61FB6970E0FB681A6820
:1012B000FB681B791946394B53F821301946104603
:1012C000FEF796F90346002B03D01123FB61FB695F
:1012D0005DE07B697A681A607B693A685A607B696D
:1012E00000229A607B69002283F830207B6900220B
:1012F00083F82F20BB685A7B7B6983F83820BB6852
:101300001868002301930623009303230022002181
:10131000FFF750FFBB685868002301930623009332
:10132000032300220021FFF745FFFB681B68BB6118
:10133000BB681968BB685B681A46B869FFF7A1FE0D
:10134000BB689B681946B869FFF7C9FE7B691B68D3
:10135000002B15D0FB681B681846FFF7CBFD034632
:101360001A46BB681B7B19461046FFF7D0FDFB6889
:101370001B681846FFF7BEFD03461846FFF7DAFD67
:101380007B69012283F82D200023FB61FB6918464D
:101390002037BD4680BD00BF302F00202CDB03006E
:1013A00080B584B000AF78607B681B791A4613461D
:1013B0001B019B1A9B001D4A1344FB60FB681B68C2
:1013C000002B08D07B681B681846FFF793FD034687
:1013D0001846FFF7BDFD786800F048F87B681B6889
:1013E0001846FEF739F9FB6893F8383083F00103AB
:1013F000DBB2002B11D07B681B681846FFF755FE47
:1014000003461846FFF700FF7B681B681846FFF786
:1014100059FE03461846FFF7F7FEFB68002283F8E3
:101420002D2000BF1037BD4680BD00BF302F0020EB
:1014300080B584B000AF78607B681B791A4613468C
:101440001B019B1A9B00084A1344FB607B681B68C6
:10145000BB60B868FFF7F9FDFB68022283F82D2016
:1014600000BF1037BD4680BD302F002080B584B04E
:1014700000AF78607B681B791A4613461B019B1AE4
:101480009B000C4A1344FB607B681B68BB600A49E5
:10149000B868FFF7CBFD0321B868FFF7A4FDB86873
:1014A000FFF7E1FDFB68012283F82D2000BF103714
:1014B000BD4680BD302F00208642040080B584B038
:1014C00000AFF860B9607A603B603B681B687A687F
:1014D0009A420ED93B681B68BA6813441B781946B8
:1014E000F868FFF73CFE3B681B685A1C3B681A60B3
:1014F0000CE03B7E002B05D01C21F868FFF736FD81
:10150000002304E01421F868FFF730FD012318469A
:101510001037BD4680BD90B585B000AFF860B960AA
:101520007A603B603B681B687A689A4223D93B68C3
:101530001B68BA68D418F868FFF703FE03462370E7
:101540003B681B685A1C3B681A603B681A687B68DA
:10155000013B9A4204D10221F868FFF710FE04E033
:101560003B681B687A689A4204D02021F868FFF72C
:10157000FDFC00E000BF1437BD4690BD80B588B0CB
:1015800002AFF860B9607A603B60BB681B78002BE3
:1015900004D17B681B683A6A9A4201D1012300E0BA
:1015A0000023FB75FB7D03F00103FB75BB681B7813
:1015B000002B0FD04FF49271F868FFF7E8FC4FF45E
:1015C0008E71F868FFF7E3FC4FF48471F868FFF759
:1015D000DEFC6FE04FF49271F868FFF7EFFC034612
:1015E000002B0CD04FF49271F868FFF7D0FC142157
:1015F000F868FFF7BBFCBB6801221A705AE04FF491
:101600008E71F868FFF7DAFC0346002B2AD04FF4FE
:101610008E71F868FFF7BBFC4FF49271F868FFF722
:10162000CDFC0346002B0CD04FF49271F868FFF705
:10163000AEFC1421F868FFF799FCBB6801221A7010
:1016400038E097F8243000937B683A6A3968F86884
:10165000FFF734FF034683F00103DBB2002B29D0F0
:1016600000233AE04FF48471F868FFF7A7FC0346C3
:10167000002B1FD04FF48471F868FFF788FC4FF4FB
:101680009271F868FFF79AFC0346002B0CD04FF4D8
:101690009271F868FFF77BFC1421F868FFF766FC8D
:1016A000BB6801221A7005E07B683A6A3968F868FD
:1016B000FFF731FFFB7D002B0ED04FF48271F868ED
:1016C000FFF77CFC0346002B06D04FF48271F868CC
:1016D000FFF75DFC002300E0012318461837BD46E4
:1016E00080BD000080B58AB002AFF860B9607A6052
:1016F0003B600023FB613E4B7B614FF48271B86815
:10170000FFF745FC4FF49271B868FFF740FC4FF4C7
:101710008E71B868FFF73BFC4FF48471B868FFF72F
:1017200036FC0021B868FFF72AFDFB6800225A63E7
:10173000FB68002283F82E202021B868FFF716FCF2
:101740000821B868FFF712FCFB6803F1340297F830
:101750002830009313463A687968B868FFF7AEFE00
:10176000FB681B68002B0DD0FB6840F286229A6054
:10177000FB689B681946B868FFF749FC32E07B6953
:10178000013B7B617B69002B11DDFB6803F12E01BE
:10179000FB6803F1340297F8283001933B6800930B
:1017A0007B68B868FFF7EAFE0346002BE7D1FB68C9
:1017B00093F82E30002B0AD0B868FFF79FFCB86171
:1017C000BB69002B03D0B869FFF730FDF8617B6976
:1017D000002B07DCB868FFF746FCB868FFF735FC5C
:1017E0000323FB61FB6918462037BD4680BD00BF5F
:1017F000A086010080B58AB002AFF860B9607A6057
:101800003B600023FB613B4B7B614FF48271B86806
:10181000FFF7BDFB4FF49271B868FFF7B8FB4FF4C8
:101820008E71B868FFF7B3FB4FF48471B868FFF7A7
:10183000AEFBFB6800225A63FB68002283F82E206F
:101840003B68012B04D10221B868FFF798FC03E044
:101850000121B868FFF793FC2021B868FFF786FBE9
:101860000021B868FFF782FBFB681B68002B0DD0D6
:10187000FB6840F286229A60FB689B681946B8684C
:10188000FFF7C5FB31E07B69013B7B617B69002B86
:1018900010DDFB6803F12E01FB6803F13402002325
:1018A00001933B6800937B68B868FFF767FE0346C7
:1018B000002BE8D1FB6893F82E30002B0AD0B868D3
:1018C000FFF71CFCB861BB69002B03D0B869FFF7B8
:1018D000ADFCF8617B69002B07DCB868FFF7C3FB40
:1018E000B868FFF7B2FB0323FB61FB69184620379A
:1018F000BD4680BDA0860100B0B588B002AFF860DB
:10190000B9607A603B6000237B613C49B868FFF7AF
:101910008DFBFB6893F82F30DBB2002B09D0FB68FE
:101920009B681946B868FFF772FB11237B617B69DE
:101930005FE03B6803F00403002B0CBF012300238E
:10194000DAB2FB6883F82F20FB683A681A62FB68FA
:101950007A6803F10C0415460FCD0FC42B68236081
:101960007B685A68FB689A627B68DA68FB685A622F
:101970007B685B781946B868FFF7D3FB7B681B78F8
:10198000012B20D07B681B78002B04D13B6803F02F
:101990002003002B01D0012300E0002303F001030A
:1019A000DAB2FB6883F82C207B68DA687B685968B8
:1019B000FB6893F82C3000930B46B968F868FFF782
:1019C00091FE78610CE0FB68002283F82C207B6894
:1019D000DA687B685B68B968F868FFF70BFF7861C5
:1019E000FB681B68002B03D1FB68002283F82F20C3
:1019F0007B6918461837BD46B0BD00BF864204005B
:101A000080B586B000AFF860B9607A6000237B6172
:101A1000FB681B791A4613461B019B1A9B00084A58
:101A200013443B61FB6819687B68BA683869FFF743
:101A300063FF78617B6918461837BD4680BD00BFDB
:101A4000302F0020B0B58CB002AF786039603B68B1
:101A500003F12E013B6803F134003B685C6A3B688C
:101A60009B6A3A6892F82C20019200932346024622
:101A70007868FFF783FD0346002B7BD13B6893F822
:101A80002E3083F00103DBB2002B3CD03B681B7B84
:101A9000022B03D03B681B7B032B34D13B685A6A73
:101AA0003B689B699A422ED13B68DA693B685A626F
:101AB0003B685A693B689A623B681B6A03F02003E3
:101AC000002B14BF01230023DAB23B6883F82C20DB
:101AD0003B681B7B032B0DD13B685A6A3B68996AB4
:101AE0003B6893F82C3000930B4679683868FFF711
:101AF000F9FD40E03B685A6A3B689B6A7968386840
:101B0000FFF778FE37E03B6807F1100403F10C059E
:101B10000FCD0FC42B6823603B6893F82E30002B49
:101B200013D07868FFF7EAFA78627B6A03F0020361
:101B3000002B02D001233B7309E07B6A03F004030E
:101B4000002B04D002233B7301E000233B733B686E
:101B5000002283F82F203B681B6A03F00403002B4C
:101B600009D13B681B683A68516807F10C021046BE
:101B7000984700E000BF2837BD46B0BD80B500AF34
:101B800002490348FFF75EFF00BF80BD302F0020F1
:101B90000030004080B483B000AF78604FF0A043C5
:101BA00018460C37BD465DF8047B704780B584B09D
:101BB00000AF78600B46FB703B1D1846FFF7EAFF4D
:101BC000F8607A68FB6802F5E07253F822307A68B0
:101BD00023F44031FB6802F5E07243F822107A6882
:101BE000FB6802F5E07253F82230FA7812041146CD
:101BF0007A681943FB6802F5E07243F8221000BFCF
:101C00001037BD4680BD80B582B000AF78607B687C
:101C1000012B04D87868FCF7E5F8034600E00023C0
:101C200018460837BD4680BD80B586B000AF034674
:101C30000A46FB711346BB710023FB7500233B6111
:101C4000FB791846FCF70CF938613B69012B5CD82D
:101C5000BB79012B04D0022B4CD0002B2ED054E0AA
:101C600032493A6913465B0013440B441B78FB75F9
:101C70002E493A6913465B0013440B4401331B7829
:101C8000002B0DD02A4B2B4A4FF400411846F6F793
:101C9000B7FCF860FB68002B02D1264AFB79137071
:101CA00022493A6913465B0013440B440233197806
:101CB000214A3B6913440A461A7026E01C4B184619
:101CC000F6F7D2FC1C4A3B691344197817483A6965
:101CD00013465B001344034402331B78994213D12B
:101CE00012493A6913465B0013440B4402331B78D4
:101CF000FB7509E00D493A6913465B0013440B4438
:101D000001331B78FB7500E000BFFB7D002B08D082
:101D10000A4B1B68002B04D0084B1B68FA7D104649
:101D2000984700BF1837BD4680BD00BFBC2F0020BC
:101D3000C42F0020E42F0020E82F0020B82F00201F
:101D400080B582B000AF78607B681B7802211846AE
:101D5000FFF76AFF00BF0837BD4680BD80B582B07F
:101D600000AF0D4B1B78002B0FD000237B6008E0E9
:101D70007B68022B02D07868FBF7CEFF7B680133CB
:101D80007B607B68012BF3D901E0FBF7D7FF00BF35
:101D90000837BD4680BD00BF742F00202DE9F048F4
:101DA00084B000AF0346FB710023FB600023BB60DF
:101DB000CD4B1B78002B04D0CB4B00221A70FFF7C1
:101DC000CDFFFB79172B00F2228201A252F823F0FB
:101DD000311E0300471E0300471E0300C91E0300F7
:101DE0004B1F0300B71F03003720030055200300DB
:101DF00063200300812003009F200300BD20030017
:101E0000DB200300F5200300F5200300F52003008C
:101E1000F5200300F5200300BB210300C7210300C8
:101E2000D9210300EB210300032203000322030056
:101E3000FFF794FFAD4B1846F6F716FCF860AC4A76
:101E4000FB791370E4E10020FBF730FF0346002B21
:101E50000CD00020FBF760FFFB79022B02D14FF47E
:101E6000E16301E04FF47A63BB600AE00020FBF716
:101E700041FFFB79022B01D1C82301E04FF4C87365
:101E8000BB609B4AFB791370984DBB6819464FF0B5
:101E900000024FF000034FF00004D40344EA514421
:101EA000CB0313F5FA7044F100014FF47A724FF04E
:101EB00000030AF0EBFF03460C46002219462846B1
:101EC000F6F79EFBF860A3E10020FBF7EFFE034668
:101ED000002B0CD00020FBF71FFFFB79032B02D156
:101EE0004FF4487301E04FF47A63BB600AE00020CE
:101EF000FBF700FFFB79032B01D1C82301E04FF46E
:101F0000C873BB607A4AFB791370784DBB68194679
:101F10004FF000024FF000034FF00004D40344EAF6
:101F20005144CB0313F5FA7044F100014FF47A7277
:101F30004FF000030AF0AAFF03460C4600221946A0
:101F40002846F6F75DFBF86062E10020FBF7AEFE85
:101F50000346002B06D00020FBF7DEFE4FF47A6329
:101F6000BB6005E00020FBF7C5FE4FF4C873BB6003
:101F70005F4AFB7913705D4DBB6819464FF0000254
:101F80004FF000034FF00004D40344EA5144CB0364
:101F900013F5FA7044F100014FF47A724FF0000328
:101FA0000AF074FF03460C46002219462846F6F74D
:101FB00027FBF8602CE10020FBF778FE0346002B9E
:101FC0000BD00020FBF7A8FEFB79052B01D1C8231D
:101FD00001E04FF47A63BB600AE00020FBF78AFE61
:101FE000FB79052B01D1C82301E04FF4C873BB6016
:101FF0003F4AFB7913703D4DBB6819464FF0000214
:102000004FF000034FF00004D40344EA5144CB03E3
:1020100013F5FA7044F100014FF47A724FF00003A7
:102020000AF034FF03460C46002219462846F6F70C
:10203000E7FAF860ECE00020FBF7A6FE2C4AFB79FB
:1020400013702A4B002240F6CD411846F6F7D8FA15
:10205000F860DDE00020FBF74DFE254AFB791370A8
:10206000D6E0214B01221A700120FBF78DFE1F4B99
:10207000002240F6CD411846F6F7C2FAF860C7E0F4
:10208000194B01221A700120FBF77EFE174B00222C
:102090004FF480411846F6F7B3FAF860B8E0124BF7
:1020A00001221A700120FBF76FFE104B002240F650
:1020B000CD411846F6F7A4FAF860A9E00A4B0122D0
:1020C0001A700120FBF760FE084B00224FF480419C
:1020D0001846F6F795FAF8609AE0FBF742FE044AD4
:1020E000FB79137094E000BF6D2F0020782F002043
:1020F0006C2F0020494B1846F6F7B6FAF860FB79CA
:10210000C3F11103BB60BB68002B4FD0FB68002BF1
:102110004CD1BB68012B42D9404B3B60BB689BB2A2
:102120009DB24FF00006AB46B4461BEB0B034CEBE5
:102130000C049B46A4461BEB050B4CEB060C4FF026
:1021400000014FF000024FEACC0242EA5B724FEA14
:10215000CB018B4694461BEB050B4CEB060C4FF06A
:1021600000014FF000024FEA8C4242EA9B324FEAF4
:102170008B418B4694465B46644613F5FA7044F1F6
:1021800000014FF47A724FF000030AF07FFE03461D
:102190000C46002219463868F6F732FAF860022039
:1021A000FBF7A8FD1E4B01221A7031E00220FBF75D
:1021B000B3FD1B4B00221A702AE0FFF7CFFD194A2E
:1021C000FB79137024E0FFF7C9FD0020FBF792FDB7
:1021D000144AFB7913701BE0FFF7C0FD0120FBF7E9
:1021E00089FD104AFB79137012E0FFF7B7FD00205C
:1021F000FBF780FD0120FBF77DFD0A4AFB79137098
:1022000006E0FBF7AEFD074AFB79137000E000BF64
:10221000FB6818461037BD46BDE8F088982F0020AF
:10222000742F00206C2F002080B582B000AF786042
:10223000074B1B6803F00103002B04D0054B1B78F0
:102240001846FFF7ABFD00BF0837BD4680BD00BF95
:10225000702F00206C2F002080B582B000AF786016
:102260000220FBF791FD00BF0837BD4680BD00008E
:1022700080B584B000AF0346FB710023FB60084BC0
:102280001B6803F00103002B04D0FB791846FFF70D
:1022900085FDF860FB6818461037BD4680BD00BF5D
:1022A000702F002080B584B000AF786039600023C3
:1022B000FB602A4A7B681360294A3B6813607B688D
:1022C00003F00203002B2AD00023BB6008E00122A8
:1022D0000121B86800F054F8F860BB680133BB60B6
:1022E000BB68012B02D8FB68002BF0D0FB68002BE9
:1022F00006D140F2666202211A48F5F7D1FAF86079
:10230000FB68002B02D1F5F743FBF860FB68002B5C
:1023100005D1154A00211548F6F73EF9F8607B68AB
:1023200003F00103002B14D00120FBF7CDFDFB6867
:10233000002B05D10E4A00210E48F6F72DF9F86062
:10234000FB68002B05D10C4A01210C48F6F724F953
:10235000F860FB6818461037BD4680BD702F00201E
:10236000B82F00203CDB0300411D030038DB0300D5
:102370002922030030DB03005922030034DB030071
:1023800080B485B000AF78600B46FB701346BB701D
:102390000023FB607B68012B35D8BB78012B09D16A
:1023A000FB78012B04D17B68DBB20E33DBB200E09B
:1023B0000023BB70FB78012B04D0022B0BD0002B29
:1023C00013D01CE014497A6813465B0013440B4495
:1023D000BA781A7019E010497A6813465B00134402
:1023E0000B440133BA781A700FE00B497A68134630
:1023F0005B0013440B440233BA781A7005E00723DC
:10240000FB6000BF01E00723FB60FB681846143740
:10241000BD465DF8047B7047BC2F002080B584B0BA
:1024200000AF78600B46FB707B68012B11D8FB78FE
:10243000002B01D0032300E00023FB737868FBF737
:1024400033FD0246FB7B19461046FFF7AFFB002326
:1024500000E0062318461037BD4680BD80B582B027
:1024600000AF786001217868FFF7D8FF034618466F
:102470000837BD4680BD80B582B000AF0122002183
:102480000020FFF77DFF78607B68002B04D07B681D
:10249000072B01D07B681CE0072202210120FFF7F7
:1024A0006FFF78607B68002B04D07B68072B01D01E
:1024B0007B680EE0042202210020FFF761FF7860B4
:1024C0007B68002B04D07B68072B01D07B6800E081
:1024D000002318460837BD4680BD80B582B000AFE6
:1024E000012202210020FFF74BFF78607B68002B60
:1024F00004D07B68072B01D07B681CE007220221F7
:102500000120FFF73DFF78607B68002B04D07B68DB
:10251000072B01D07B680EE00A2200210020FFF784
:102520002FFF78607B68002B04D07B68072B01D0DD
:102530007B6800E0002318460837BD4680BD80B5A3
:1025400082B000AF78600120FFF75DFB0346002BEF
:1025500003D07B6802221A700CE00020FFF753FBC7
:102560000346002B03D07B680B221A7002E07B68C5
:1025700000221A7000BF0837BD4680BD80B582B00A
:1025800000AF0020FFF76AFF78607B68002B04D063
:102590007B68062B01D07B680CE00120FFF75EFF13
:1025A00078607B68002B04D07B68062B01D07B68A9
:1025B00000E0002318460837BD4680BD80B584B0D2
:1025C00000AF786039607B681B88102B02D0112B1C
:1025D00018D02FE0194B1B68002B0DD1FFF74BFFD4
:1025E000F860FB68002B07D0154B1B68002B03D04D
:1025F000134B1B68F8689847104B1B6801330F4A50
:10260000136017E00D4B1B68013B0C4A13600B4B2A
:102610001B68002B0DD1FFF760FFF860FB68002BF3
:1026200007D0074B1B68002B03D0054B1B68F868CD
:10263000984700BF00BF1037BD4680BDF02F002077
:10264000EC2F002080B584B000AF786039600023A3
:10265000FB600A4A7B6813603B68002B02D0386835
:10266000FFF76DFF064B1B68002B02D1FFF735FF0C
:10267000F860FB6818461037BD4680BDEC2F00207F
:10268000F02F002080B400AFBFF34F8F054BDB6805
:1026900003F4E0620349044B1343CB60BFF34F8F55
:1026A00000BFFDE700ED00E00400FA0576DF7047AB
:1026B00000BF18467ADF704700BF18467CDF7047BE
:1026C00000BF18468FDF704700BF184633DF7047E2
:1026D00000BF184680B483B000AF78604FF0A043CD
:1026E00018460C37BD465DF8047B704780B584B052
:1026F00000AF78603B1D1846FFF7ECFFF8607B6881
:10270000012202FA03F31946F86800F019F800BF35
:102710001037BD4680BD80B584B000AF78603B1DEA
:102720001846FFF7D7FFF8607B68012202FA03F32F
:102730001946F86800F013F800BF1037BD4680BD99
:1027400080B483B000AF786039607B683A68C3F8C2
:10275000082500BF0C37BD465DF8047B704780B488
:1027600083B000AF786039607B683A68C3F80C25A5
:1027700000BF0C37BD465DF8047B704780B500AFE5
:10278000C822002102480AF059FB00BF80BD00BFEB
:102790003833002080B586B002AF786039607B683E
:1027A000002B0CD00F4A104BD31ADB081B0443F04C
:1027B00002037A680D491846F4F725FA0EE0002363
:1027C0000093002308220A490A48FAF721FBF8601F
:1027D000FB68002B02D0F868F5F7FCF81037BD460F
:1027E00080BD00BFB8FD030088FD0300E4DB0300EB
:1027F000AC34002054DB030080B582B000AF074941
:102800000748FAF781FD78607B68002B02D0786872
:10281000F5F7E0F800BF0837BD4680BD682200200C
:10282000BCDB030080B582B000AF07490748FAF768
:1028300037FD78607B68002B02D07868F5F7CAF81E
:1028400000BF0837BD4680BDD4DB0300BCDB0300FE
:1028500080B582B000AF786039607B68002B0CD007
:10286000134A144BD31ADB081B0443F002037A68A3
:1028700011491846F4F7C7F916E00D4A0D4BD31A63
:10288000DB081B0443F003030C491846F4F7ACF9CA
:10289000074A084BD31ADB081B0443F00303022248
:1028A00007491846F4F70AFA0837BD4680BD00BF4D
:1028B000B8FD030088FD030004DC030024DC0300F2
:1028C000403B002080B584B000AF03460A46FB7150
:1028D0001346BB80FB791B015AB2BB889B115BB2CC
:1028E00003F00F035BB213435BB2DAB20C4B1A7006
:1028F000BB889B005BB243F002035BB2DAB2084BC9
:102900005A7008490848FAF7FFFCF860FB68002B8A
:1029100002D0F868F5F75EF800BF1037BD4680BDFD
:10292000403B00208C220020BCDB030080B586B039
:1029300002AF0346FB710D4BB0221A700B4AFB79B4
:102940005370002300930123094A0A490A48FAF701
:102950000BFDF860FB68BB60BB68002B02D0B86859
:10296000F5F738F800BF1037BD4680BD3C3B00206E
:10297000A8220020D4DB0300BCDB030080B586B0B6
:1029800002AF07F10B033B6001233B711B237B71FB
:102990000023BB713A4600230093012307490848EE
:1029A000FAF7E2FCF860FB68002B02D0F868F5F754
:1029B00011F8FB7A18461037BD4680BDD4DB030002
:1029C000BCDB030080B58AB002AF78600B46FB70B9
:1029D000144BA1221A70134AFB785370114BFB6001
:1029E00002233B741A237B740123BB747B687B61D5
:1029F000FB783B761B237B760023BB7607F10C022A
:102A000000230093022308490848FAF7ADFCF86157
:102A1000FB69002B02D0F869F4F7DCFF00BF203718
:102A2000BD4680BD3C3B0020D4DB0300BCDB030083
:102A300080B588B002AF03460A46FB711346BB71EE
:102A4000104AFB7913700F4ABB7953700E4A07F195
:102A50000C0392E8030083E8030007F10C02002353
:102A60000093012309490A48FAF77EFC78617B69E3
:102A7000002B02D07869F4F7ADFF00BF1837BD46D0
:102A800080BD00BF443B002038DC0300D4DB0300E2
:102A9000BCDB030080B588B002AF78600B46FB70EA
:102AA0001A4BA0221A70194AFB7853700023FB7549
:102AB0000AE0FB7D7A681A44FB7D02331178134AE1
:102AC000D154FB7D0133FB75FA7DFB789A42F0D33C
:102AD0000E4BBB60FB780233DBB23B731A237B7374
:102AE0000023BB7307F10802002300930123084968
:102AF0000848FAF739FC38613B69002B02D0386985
:102B0000F4F768FF00BF1837BD4680BD203B0020AA
:102B1000D4DB0300BCDB030080B584B000AF786079
:102B2000B04B1B78062B00F2518101A252F823F022
:102B30004D2B0300632B03007B2B03008B2B030027
:102B40009B2B03003B2C0300AB2D03008220FFF7DF
:102B5000EDFE0A21A448FFF79DFFA24B01221A7047
:102B60003CE1B7218020FFF763FF08218120FFF7B8
:102B70005FFF9C4B02221A7030E117218020FFF783
:102B800057FF984B03221A7028E127218020FFF776
:102B90004FFF944B04221A7020E18F20FFF7C6FEEE
:102BA000FFF7ECFE0346FB73FB7B03F00203002BF5
:102BB0003FD09420FFF7BAFE07F10803042118461E
:102BC000FFF700FF894A8A4BD31ADB081B0443F046
:102BD0000300884B1B681A468749F4F714F8854BA5
:102BE0001B6807F10801042218460AF01CF9814B02
:102BF0001B6804337F4A1360FB7B03F00403002B44
:102C000009D07E4B1B78042B01D9062200E0052257
:102C1000744B1A70E2E037218020FFF709FF784BF0
:102C20001B780133DAB2764B1A706E4B04221A709D
:102C3000D4E06C4B04221A70D0E0714B00221A7061
:102C40006E4B1B784FF6FE7219466E4809F0B4F9C8
:102C5000644B00221A70694B1B78042B00F2BD8074
:102C600001A252F823F000BF7D2C0300B92C030011
:102C7000F52C0300312D03006D2D030040F2BF3110
:102C80000620FFF71FFE03200AF04EF8564B0022E5
:102C90001A70554B10225A70534BC5229A70524BE2
:102CA0000022DA70504B10221A714F4BC5225A7114
:102CB000524B01221A7077E040F2BF310620FFF735
:102CC00001FE02200AF030F8474B00221A70464BF2
:102CD000A7225A70444BB3229A70434B0022DA70F9
:102CE000414BA7221A71404BB3225A71434B022227
:102CF0001A7059E040F2BF310920FFF7E3FD0220CE
:102D00000AF012F8384B00221A70374BD1225A7051
:102D1000354B9F229A70344B0022DA70324BD1220D
:102D20001A71314B9F225A71344B03221A703BE0C7
:102D300040F2BF310D20FFF7C5FD012009F0F4FF7F
:102D4000294B00221A70284B83225A70264B0322EB
:102D50009A70254B0022DA70234B83221A71224B82
:102D600003225A71254B04221A701DE040F2BF3134
:102D70000D20FFF7A7FD002009F0D6FF1A4B052212
:102D80001A70194B1E225A70174B27229A70164B35
:102D90000522DA70144B1E221A71134B27225A7126
:102DA000164B05221A7000BF17E0A7218020FFF7FD
:102DB0003FFE124B00221A70114B00221A700D4B6D
:102DC000114A1A60074B00221A7007E0054B0022D7
:102DD0001A700A4B00221A7000E000BF00BF1037C3
:102DE000BD4680BDB0220020B4220020B8FD030003
:102DF00088FD0300C022002040DC0300F4340020E2
:102E0000F5340020243300203833002080B582B010
:102E100000AF7860FFF7F0FC00BF0837BD4680BD0B
:102E200080B584B000AFF5F781FBF860FB68BB604C
:102E3000BB68002B02D0B868F4F7CCFD0F4A012123
:102E40000F48F5F7A9FBF860FB687B607B68002BF7
:102E500002D07868F4F7BEFD0A4A01210A48F5F766
:102E60009BFBF860FB683B603B68002B02D0386836
:102E7000F4F7B0FD00BF1037BD4680BD192B03002D
:102E8000A4DC03000D2E0300A8DC030080B584B091
:102E900000AF124B00224FF480411846F5F7B0FB0B
:102EA000F860FB68BB60BB68002B02D0B868F4F721
:102EB00091FD0B4B00224FF4F0111846F5F7A0FBE3
:102EC000F860FB687B607B68002B02D07868F4F7C1
:102ED00081FD00BF1037BD4680BD00BFB434002067
:102EE000D434002080B582B000AF7860786807F0F5
:102EF0005DF8786807F0BCF87B681B780C2B00D075
:102F000003E0002000F0BAFB00BF00BF0837BD4659
:102F100080BD000080B582B000AF094A09490A4867
:102F2000F9F784FE78607B683B603B68002B02D039
:102F30003868F4F74FFD00BF0837BD4680BD00BFBD
:102F4000A8DB030074DB030054DB030080B586B00C
:102F500000AF3B78012262F303033B703B78012210
:102F600062F307133B70194809F078FF03469AB2E1
:102F70003B4616491846FFF7A1FB78617B693B6128
:102F80003B69002B02D03869F4F724FD3B1D082271
:102F90000021184609F052FF5023BB80A023FB807C
:102FA00000233B814FF4C8737B813B1D1846FFF71C
:102FB00081FB78617B69FB60FB68002B02D0F868BD
:102FC000F4F708FD00BF1837BD4680BD54DC030090
:102FD00080B582B000AF0021074804F0CAFD7860D8
:102FE0007B683B603B68002B02D03868F4F7F2FC4A
:102FF00000BF0837BD4680BDF42F002080B582B0E9
:1030000000AF78607868F4F7E5FC00BF0837BD468C
:1030100080BD000080B588B000AF00233B611B4B32
:103020003B6107F110031946194804F055FEF86199
:10303000FB69BB61BB69002B02D0B869F4F7CAFC1D
:103040003B4610220021184609F0F8FE01237B734D
:103050000123BB730123FB7300233B6001233B71FE
:103060000023BB6064233B733B461946094808F0C4
:1030700045FFF861FB697B617B69002B02D07869B1
:10308000F4F7A8FC00BF2037BD4680BDFD2F03002C
:10309000083000202433002080B584B000AF786071
:1030A0007B681B78002B0ED1094B1B883B211846EF
:1030B000FFF7FCFAF860FB68BB60BB68002B02D02E
:1030C000B868F4F787FC00BF1037BD4680BD00BF6D
:1030D0005C22002080B582B000AF78607868F4F799
:1030E00079FC00BF0837BD4680BD000080B58AB0BE
:1030F00000AF3B1D1C220021184609F09FFE002353
:103100007B604FF42033BB604FF47023FB600323DC
:103110003B7400237B8200233B750A4BBB610A4B47
:10312000FB613B1D184602F06DF878627B6A3B62DA
:103130003B6A002B02D0386AF4F74CFC00BF2837FA
:10314000BD4680BD99300300D530030080B584B002
:1031500000AF0020FFF78CF8F860FB68BB60BB682D
:10316000002B02D0B868F4F735FCFFF707FAF860D7
:10317000FB687B607B68002B02D07868F4F72AFC40
:10318000FFF7A4FAF860FB683B603B68002B02D0B5
:103190003868F4F71FFC00BF1037BD4680BD000043
:1031A00080B584B000AF0346FB71FB79002B1AD0C9
:1031B000032B00D01BE0104A104BD31ADB081B0472
:1031C00043F003030E491846F3F70EFD0220FFF704
:1031D0004FF8F860FB68BB60BB68002B06D0B8688E
:1031E000F4F7F8FB02E0FFF7B1FF00E000BF00BF1B
:1031F0001037BD4680BD00BFB8FD030088FD030049
:1032000064DC030080B58AB000AF786039600023C9
:103210007B627B681B88212B42D0212B04DC102B86
:1032200013D0112B05D078E03B2B4FD0562B5DD01F
:1032300073E03C4A3C4BD31ADB081B0443F0030306
:103240003A491846F3F7D0FC67E0364A364BD31AB2
:10325000DB081B0443F0030335491846F3F7C4FCAD
:103260000720FFF705F878627B6A7B617B69002B9A
:1032700002D07869F4F7AEFB7B689A882D4B1A80F0
:103280002C4B1B8819462C4804F04DFD78627B6A54
:103290003B613B69002B39D03869F4F79BFB35E083
:1032A00000233B7300237B737B689B8807F10C0230
:1032B00011461846FFF706FA78627B6ABB61BB6964
:1032C000002B25D0B869F4F785FB21E07B689B884B
:1032D00013211846FFF7EAF978627B6A3B623B6A82
:1032E000002B17D0386AF4F775FB13E07B689B88D6
:1032F00013211846FFF7DAF978627B6AFB61FB69F4
:10330000002B09D0F869F4F765FB05E000BF04E085
:1033100000BF02E000BF00E000BF00BF2837BD468D
:1033200080BD00BFB8FD030088FD030078DC03000A
:1033300088DC03005C2200200830002080B586B0C5
:1033400000AF09F0A7F878617B693B613B69002B0E
:1033500002D03869F4F73EFB00237B603B1D194621
:10336000012009F0ADF978617B69FB60FB68002BF7
:1033700002D0F868F4F72EFB3B1D184609F098FAC6
:1033800078617B69BB60BB68002B02D0B868F4F73A
:1033900021FB00BF1837BD4680BD000080B586B058
:1033A00000AF06F0D7F978617B693B613B69002B80
:1033B00002D03869F4F70EFB3B460522002118467F
:1033C00009F03CFD3B7843F001033B703B786FF321
:1033D00041033B703B786FF382033B703B786FF3A4
:1033E000C3033B703B78032262F306133B703B78C8
:1033F0006FF3C7133B7007237B701023BB70FB7800
:1034000043F00103FB70FB7843F00203FB703B7950
:1034100043F001033B713B7943F002033B713B46B0
:10342000184606F081FA78617B69FB60FB68002B27
:1034300002D0F868F4F7CEFA074806F047FA786148
:103440007B69BB60BB68002B02D0B868F4F7C2FA96
:1034500000BF1837BD4680BDE52E030080B582B0A1
:1034600000AF0D4A0D4BD31ADB081B0443F00303D6
:103470000B491846F3F7B8FB06F006FB78607B684B
:103480003B603B68002B02D03868F4F7A3FA00BF1A
:103490000837BD4680BD00BFB8FD030088FD0300AE
:1034A00094DC030080B586B000AF0346FB71FB7966
:1034B000072B1AD00A2B02D0042B03D02EE0FFF7E3
:1034C00045FE2BE0174B1B8813211846FFF7EEF83B
:1034D00078617B69082B1ED07B69FB60FB68002B41
:1034E00019D0F868F4F776FA15E00E4B1B884FF602
:1034F000FF72934211D10C4801F0FCFC78617B69AA
:10350000082B0AD07B693B613B69002B05D03869E9
:10351000F4F760FA01E000BF00E000BF00BF183719
:10352000BD4680BD5C2200201430002080B5AEB0C6
:1035300000AF3B1DAC220021184609F07FFC02239E
:103540003B710123BB710623FB710223BB82154B28
:10355000BB61012387F880304FF49673C7F88C3035
:1035600044F25063C7F890300F4BC7F8A8303B1DAA
:1035700019460E4801F089FAC7F8B400D7F8B430FC
:10358000C7F8B030D7F8B030002B03D0D7F8B00070
:10359000F4F720FA0121054801F067FA00BFB837B7
:1035A000BD4680BD60220020A13103001430002000
:1035B00080B586B000AF786013490320FEF772FE35
:1035C00078617B693B613B69002B02D03869F4F775
:1035D00001FA07F10B0319460020FFF733F8786171
:1035E0007B69FB60FB68002B02D0F868F4F7F2F906
:1035F000FB7A022B0CBF01230023DAB27B681A701E
:1036000000BF1837BD4680BDA534030080B582B029
:1036100000AF4FF400410020F3F72CF878607B688E
:103620003B603B68002B02D03868F4F7D3F9F2F71F
:10363000A9FF00BF0837BD4680BD80B582B000AF8E
:10364000F8F716FD78607B683B603B68002B02D082
:103650003868F4F7BFF900BF0837BD4680BD80B5B4
:1036600000AFF3F7DBFB034683F00103DBB2002B73
:1036700001D0F8F715FD00BF80BD000080B584B013
:1036800000AF0346FB71FB79002B02D0FFF7E6FE8B
:103690000CE00321074801F0E3FAF860FB68BB6027
:1036A000BB68002B02D0B868F4F794F900BF10375C
:1036B000BD4680BD1430002080B582B000AF4FF011
:1036C0001023D3F80C3203F00103012B25D1324B28
:1036D0000122C3F8042500BF2F4BD3F80034002B80
:1036E000FAD04FF01023D3F80C324FF0102223F011
:1036F0000103C2F80C3200BF274BD3F80034002B73
:10370000FAD0254B0022C3F8042500BF224BD3F882
:103710000034002BFAD0FEF7B5FFFFF777FF09F072
:1037200083FAFFF77DFBFFF77DF8FB1D1846FFF7D7
:103730003FFFFFF782FFFFF701FEFFF707FCFFF7F0
:1037400047FCFFF7F3FEFFF765FCFFF7CFFCFFF741
:1037500025FEFFF7DFFBFFF711F8FFF797FBFB797B
:103760001846FFF78BFFFFF747F81620FEF7BEFF5E
:1037700040F2BF310620FFF7A5F8002009F0D4FA87
:103780000220FEF7C8FF0A20FEF7C5FF002009F05F
:103790009FFAFFF764FFFCE700E0014080B582B0CC
:1037A00000AF1F4B7B607B6802221A617B6802229C
:1037B0005A617B681B4A9A617B681B4ADA617B68A5
:1037C0004FF400721A627B6800229A627B680022C2
:1037D0005A627B680022DA627B68124A9A647B68CC
:1037E000124ADA647B6810221A657B6800229A65A7
:1037F0007B6800225A657B680022DA657B680733A4
:103800000B49184609F022FB7B680A49184609F063
:103810001DFB7B6820229A7100BF0837BD4680BD22
:10382000483B0020ACDC0300F8340020F8360020D0
:10383000B8DC0300BCDC030080B588B000AFF860E2
:10384000B9607A600023BB61FB68DB687B61FB6861
:103850001B693B613A697B699A4205D93A697B6980
:10386000D31A013BFB6107E0FB689A6839697B6901
:10387000CB1A1344013BFB61FB689A687B69D31A3E
:10388000FA69934228BF1346FB61FA697B68934249
:1038900028BF1346FB61FB685A687B691344FA69C9
:1038A000B968184609F0BFFABA69FB691344BB61ED
:1038B000BA68FB691344BB607A68FB69D31A7B6002
:1038C0007A69FB6913447B61FB689B687A699A4259
:1038D00001D100237B61FB687A69DA607B68002B89
:1038E000B5D1BB6918462037BD4680BD80B588B0CC
:1038F00000AFF860B9607A60FB68DB68FB61FB6869
:103900009A68FB69D31ABB61BA697B689A420ED97F
:10391000FB685A68FB6913447A68B968184609F06D
:1039200082FAFA697B681A44FB68DA601AE0BB69BC
:103930007B61FB685A68FB6913447A69B968184669
:1039400009F071FA7A68BB69D31A7B61FB68586821
:10395000BA68BB6913447A69194609F064FAFB68CE
:103960007A69DA6000BF2037BD4680BD80B487B079
:1039700000AF78607B681B693B617B68DB68FB603C
:103980003A69FB689A4208D87B689A68FB68D21A41
:103990003B691344013B7B6104E03A69FB68D31A3D
:1039A000013B7B617B6918461C37BD465DF8047B93
:1039B0007047000080B588B000AFF860B9607A60E9
:1039C000BB68BB61FB685A1C13465B001344DB00F9
:1039D0001E4A13447B617B695B69012B17D0012B65
:1039E00002D3022B23D029E07869FFF7BFFF3861AB
:1039F0003A697B689A4202D20023FB6121E07B682E
:103A0000FB617A68B9697869FFF770FF19E0786936
:103A1000FFF7ACFF38617A683B69934228BF1346D1
:103A2000FB61FA69B9697869FFF760FF09E07A68B4
:103A3000B9697869FFF700FFF86102E00023FB61D4
:103A400000BFFB6918462037BD4680BD483B0020BB
:103A500080B500AFFFF7A2FE00BF80BD6DDF7047ED
:103A600000BF184679DF704700BF18467DDF7047FA
:103A700000BF184664DF704700BF184680B483B0AB
:103A800000AF03463960FB80FB88DAB23B681A70EE
:103A9000FB881B0A9AB23B680133D2B21A70022328
:103AA00018460C37BD465DF8047B704780B588B07A
:103AB00000AFF860B9601346FB80BB681B8803F158
:103AC0000902FB889A4201D90C2354E007F1100344
:103AD0001846FFF7C3FFF861FB69BB61BB69002BA8
:103AE00001D0BB6947E0BB681B881A46FB681344DA
:103AF00008221A70BB681B8801339AB2BB681A800F
:103B0000BB681B881A46FB6813441B221A70BB68EB
:103B10001B8801339AB2BB681A80BB681B881A469F
:103B2000FB68981807F1100301330622194609F0C3
:103B30007AF9BB681B8806339AB2BB681A803B7C53
:103B400023F00103DBB2002B07D1BB681B881A46A8
:103B5000FB68134400221A7006E0BB681B881A46F3
:103B6000FB68134401221A70BB681B8801339AB2A8
:103B7000BB681A80002318462037BD4680BD80B53B
:103B800088B000AFF860B9607A607B80FB681B7812
:103B9000012B05D1FB685B78002B01D107237FE067
:103BA0007B681B889A1C7B889A420DD8FB681B781F
:103BB000012B0BD17B681B881A46FB685B7813448A
:103BC0009A1C7B889A4201D90C2369E07B681B8888
:103BD0007A88D31A9BB2023BBB83BB8B7B827B6808
:103BE0001B880233BA68134407F1120211461846C3
:103BF000FFF73CFFB861BB697B617B69002B01D09B
:103C00007B694DE0FB681B78022B05D0FB685B7875
:103C10009AB27B8A9A4206D37B8ABA8B9A4202D3A3
:103C20000923FB7712E00823FB77FB681B78012B45
:103C30000AD1FB685B789BB2BA8B9A4204D3FB68CB
:103C40005B789BB27B8201E0BB8B7B827B8AFE2B05
:103C500001D90C2324E07B8ADAB27B681B881946E1
:103C6000BB680B440132D2B21A707B681B880133E7
:103C70009AB27B681A807B681B881A46BB6813441B
:103C8000FA7F1A707B681B8801339AB27B681A80AE
:103C90007B681A887B8A13449AB27B681A80002357
:103CA00018462037BD4680BD80B588B000AFF860AB
:103CB000B9601346FB80BB681B881A1DFB889A42BB
:103CC00001D90C233AE007F116031846FFF7CAFEA4
:103CD000F861FB69BB61BB69002B01D0BB692DE0BA
:103CE000BB681B881A46FB68134403221A70BB6822
:103CF0001B8801339AB2BB681A80BB681B881A46BE
:103D0000FB68134419221A70BB681B8801339AB2EE
:103D1000BB681A80FA8ABB681B881946FB680B448B
:103D200019461046FFF7AAFE03461946BB681A88D3
:103D30008BB213449AB2BB681A800023184620370E
:103D4000BD4680BD80B485B000AFB9607A601A46C8
:103D50000346FB731346BB817B681B88DA1CBB8957
:103D60009A4201D90C2327E07B681B881A46BB685E
:103D7000134402221A707B681B8801339AB27B6855
:103D80001A807B681B881A46BB68134401221A708C
:103D90007B681B8801339AB27B681A807B681B881A
:103DA0001A46BB681344FA7B1A707B681B88013380
:103DB0009AB27B681A80002318461437BD465DF816
:103DC000047B704780B485B000AFB9607A601A4652
:103DD0000346FB731346BB817B681B88DA1CBB89D7
:103DE0009A4201D90C2327E07B681B881A46BB68DE
:103DF000134402221A707B681B8801339AB27B68D5
:103E00001A807B681B881A46BB6813440A221A7002
:103E10007B681B8801339AB27B681A807B681B8899
:103E20001A46BB681344FA7B1A707B681B880133FF
:103E30009AB27B681A80002318461437BD465DF895
:103E4000047B704780B58EB000AFF8607B600B4696
:103E5000FB721346BB72002387F833303B6C1B8820
:103E60003B8600237B636FE0FB685A687B6B9B009B
:103E70001A4407F114031068186007F11B0107F1D9
:103E8000140300221846FFF7F5FDB862BB6A7B6297
:103E90007B6A002B01D07B6A73E0FB7EBA7A9A4280
:103EA0004FD197F83330002B01D0002300E00223DC
:103EB00087F823303B6C1B881A46FB7E1A4497F820
:103EC00023301A44B7F844309A4201DD0C2358E0FD
:103ED00097F8333083F00103DBB2002B15D03B6C35
:103EE0001B8801339AB23B6C1A803B6C1B881A46C4
:103EF0007B681344FA7A1A703B6C1B8801339AB2C0
:103F00003B6C1A80012387F833303B6C1B881A46C0
:103F10007B681A4407F11B0107F114031846FFF7E9
:103F2000A9FDB862BB6AFB61FB69002B01D0FB698C
:103F300027E03B6C1A88FB7E9BB213449AB23B6C21
:103F40001A807B6B01337B63FB681B881A467B6B93
:103F5000934289DB97F83330002B11D03B6C1A88E1
:103F60003B8ED31A9BB2013BFB85FB8DFF2B01D906
:103F70000C2306E03B8E7A681344FA8DD2B21A7095
:103F8000002318463837BD4680BD80B58AB002AFE1
:103F9000F8607B600B46FB721346BB72F97ABB8DEF
:103FA0000193BB6A00937B680222F868FFF74AFF1F
:103FB000F861FB69BB61BB69002B01D0BB6912E0F2
:103FC000B97ABB8D0193BB6A00937B681022F868B5
:103FD000FFF738FFF861FB697B617B69002B01D03B
:103FE0007B6900E0002318462037BD4680BD80B4C1
:103FF00083B000AF78607B681B88052B0AD97B688B
:104000001B88B3F5486F07D97B681B884FF6FF7292
:10401000934201D0072325E07B685B88052B0AD9F2
:104020007B685B88B3F5486F07D97B685B884FF680
:10403000FF72934201D0072314E07B681B884FF680
:10404000FF7293420DD07B685B884FF6FF729342FC
:1040500007D07B681A887B685B889A4201D907235E
:1040600000E0002318460C37BD465DF8047B70471E
:1040700080B586B000AFF860B9607A607B807B68FD
:104080001B889A1D7B889A4201D90C234DE0F86861
:10409000FFF7ADFF78617B693B613B69002B01D085
:1040A0003B6942E07B681B881A46BB6813440522C3
:1040B0001A707B681B8801339AB27B681A807B6810
:1040C0001B881A46BB68134412221A707B681B882F
:1040D00001339AB27B681A80FB681A887B681B8858
:1040E0001946BB680B4419461046FFF7C7FC034648
:1040F00019467B681A888BB213449AB27B681A807F
:10410000FB685A887B681B881946BB680B441946B4
:104110001046FFF7B3FC034619467B681A888BB23A
:1041200013449AB27B681A80002318461837BD469C
:1041300080BD80B586B000AFF860B9607A607B80E2
:10414000FB689B8802337B617B681B881A467B690E
:1041500013449A1C7B889A4201D90C2354E07B6952
:10416000FE2B01D90C234FE07B69DAB27B681B88F8
:104170001946BB680B440132D2B21A707B681B88A7
:1041800001339AB27B681A807B681B881A46BB6829
:104190001344FF221A707B681B8801339AB27B6834
:1041A0001A80FB681A887B681B881946BB680B4419
:1041B00019461046FFF762FC034619467B681A88C9
:1041C0008BB213449AB27B681A80FB689B88002BE1
:1041D00019D0FB689B68002B01D1072314E07B6892
:1041E0001B881A46BB689818FB689968FB689B880F
:1041F0001A4608F018FE7B681A88FB689B881344EF
:104200009AB27B681A80002318461837BD4680BDD5
:1042100080B588B000AFF860B9607A607B80FB68D9
:104220009B6A002B01D107236DE00023FB7763E03D
:10423000FB68996AFA7F13465B0013449B000B44AA
:10424000BB61BB699B8802337B617B69FE2B01D913
:104250000C2358E07B69DAB27B681B881946BB687F
:104260000B440132D2B21A707B681B8801339AB2B8
:104270007B681A807B681B881A46BB681344162229
:104280001A707B681B8801339AB27B681A80BB69FD
:104290001A887B681B881946BB680B441946104670
:1042A000FFF7ECFB034619467B681A888BB2134470
:1042B0009AB27B681A80BB699B88002B19D0BB69B6
:1042C0009B68002B01D107231DE07B681B881A46E1
:1042D000BB689818BB699968BB699B881A4608F047
:1042E000A2FD7B681A88BB699B8813449AB27B68DD
:1042F0001A80FB7F0133FB77FB6893F82C30FA7F41
:104300009A4295D3002318462037BD4680BD80B51C
:1043100094B002AFF860B9607A6000237B647B6878
:104320001B88A7F842307B6800221A80FB6893F84C
:104330002D30002B0ED0B7F842301A467968B86895
:10434000FFF7B4FB78647B6CFB63FB6B002B01D045
:10435000FB6BD8E0FB689B78002B0ED0B7F842309F
:104360001A467968B868FFF79FFC78647B6CBB637A
:10437000BB6B002B01D0BB6BC5E0FB68DB78002B6F
:1043800010D0FB68DB7858B2B7F842307A68B96869
:10439000FFF7D8FC78647B6C7B637B6B002B01D0D0
:1043A0007B6BB0E0FB685B68002B11D0FB685B683F
:1043B00093F90000B7F842307A68B968FFF702FD58
:1043C00078647B6C3B633B6B002B01D03B6B9AE0CA
:1043D000FB681B89002B14D0FB6803F10800B7F8B9
:1043E000423001937B680093BB6806220221FFF7ED
:1043F000CCFD78647B6CFB62FB6A002B01D0FB6A0E
:1044000081E0FB681B8A002B14D0FB6803F11000CD
:10441000B7F8423001937B680093BB680722032101
:10442000FFF7B3FD78647B6CBB62BB6A002B01D0E5
:10443000BB6A68E0FB681B8B002B14D0FB6803F1A0
:104440001800B7F8423001937B680093BB681522CF
:104450001421FFF79AFD78647B6C7B627B6A002BEA
:1044600001D07B6A4FE0FB681B6A002B0FD0FB6812
:10447000186AB7F842307A68B968FFF7F9FD7864CE
:104480007B6C3B623B6A002B01D03B6A3BE0FB68E4
:104490005B6A002B0FD0FB68586AB7F842307A6825
:1044A000B968FFF746FE78647B6CFB61FB69002B03
:1044B00001D0FB6927E0FB6893F82C30002B0ED06D
:1044C000B7F842307A68B968F868FFF7A1FE7864F7
:1044D0007B6CBB61BB69002B01D0BB6913E0FB683F
:1044E0001B78002B0ED0B7F842307A68B968F868AC
:1044F000FFF745FB78647B6C7B617B69002B01D007
:104500007B6900E07B6C18464837BD4680BD80B4AF
:1045100087B000AFF8607A601A460B467B8113467D
:104520007B72FB68002B02D07B68002B01D100233B
:104530002FE00023FB8209E0FB8AFA6813441B7812
:104540009AB2FB8A13449BB20133FB827B681B88BF
:10455000FA8A9A4207D3FB8A0133FA6813441B781C
:104560007A7A9A4203D0FA8A7B899A42E4D3FA8A09
:104570007B899A4201D300230BE0FB8A02339AB273
:104580007B681A80FB8AFA6813441B789BB2013B54
:104590009BB218461C37BD465DF8047B704780B55A
:1045A00084B000AF78600B467B8013467B7000239D
:1045B000BB817B7807F10C0279887868FFF7A7FF49
:1045C0000346FB81FB89002B01D1002303E0BB895B
:1045D0001A467B68134418461037BD4680BD72DF0B
:1045E000704700BF184673DF704700BF184674DF7E
:1045F000704700BF184680B483B000AF78607B6816
:1046000093F8543218460C37BD465DF8047B70476A
:1046100080B485B000AF78600023FB600AE07A6860
:10462000FB6813441B78002B01D0012306E0FB68D4
:104630000133FB60FB68052BF1D9002318461437C2
:10464000BD465DF8047B704780B483B000AF03467D
:10465000FB71FB795A1C084B83FB02135910D317CB
:10466000C91A0B469B000B44D11ACBB218460C3723
:10467000BD465DF8047B70476766666680B483B0AC
:1046800000AF786039603B68DB7B012B04D13B686D
:104690009A887B68A3F8482200BF0C37BD465DF8B6
:1046A000047B704780B584B000AF786039607B6868
:1046B000002283F852223B689A887B68B3F848321C
:1046C0009A4216D17B681B7983F00103DBB2002B81
:1046D0000FD00121786800F0C3FAF860FB68002B66
:1046E00007D07B689B6B002B03D07B689B6BF868C3
:1046F000984700BF1037BD4680BD80B584B000AF7D
:10470000786039603B681B88262B1ED13B681B7A7A
:10471000012B03D03B681B7A022B17D17B689B7857
:104720001846FFF791FF03461946786800F098FA9B
:10473000F860FB68002B09D07B689B6B002B05D0D1
:104740007B689B6BF868984700E000BF1037BD4658
:1047500080BD000080B584B000AF78600B46FB7070
:104760007B6803F24B231846FFF752FF0346FB73A7
:10477000FB78013B032B31D801A252F823F000BF94
:1047800091470300B3470300C5470300D147030027
:104790007B689B79002B0CD07B6893F8243083F0E6
:1047A0000103DBB2002B04D0FB7B002B01D00123E3
:1047B00015E07B68DB79002B04D0FB7B002B01D05C
:1047C00002230CE07B681B7A002B01D0032306E058
:1047D0007B685B7A002B01D0042300E0002318469D
:1047E0001037BD4680BD00BF80B483B000AF786095
:1047F00039607B68012283F831207B680022C3F88E
:1048000044227B6803F24A223B685A603B680022DC
:104810009A603B6802221A703B6880229A810023CA
:1048200018460C37BD465DF8047B704780B483B0F2
:1048300000AF786039607B68022283F831207B68A2
:1048400093F82430002B03D03B6807221A7002E053
:104850003B6803221A707B681B699AB23B689A8195
:104860007B680022C3F844227B6803F24A223B683B
:104870005A607B68DA683B689A60002318460C37F8
:10488000BD465DF8047B704780B582B000AF7860AC
:104890007B685B79002B0FD07B6893F8523283F0F2
:1048A0000103DBB2002B07D07868FFF7A4FE0346B4
:1048B000002B01D0012300E0002303F00103DBB251
:1048C00018460837BD4680BD80B584B000AF78601B
:1048D0000B46FB707B68D3F834027B68B3F8383240
:1048E00001221946FFF75BFEF860FB68002B02D03F
:1048F000FB68FA781A707B6803F154007B6803F553
:104900000D717B683C331A46FFF769FE0346184673
:104910001037BD4680BD80B584B000AF7860396087
:104920007B685A693B689A607B689B699AB23B686E
:104930009A817B6893F82430002B04D07B68062290
:1049400083F83C2003E07B68012283F83C207868F0
:10495000FFF79AFF0346002B13D03B6802221A751B
:1049600004217868FFF7B0FFF860FB68BB60BB68A4
:10497000002B01D0BB680FE07B68052283F8312053
:1049800003E07B68032283F831207B6803F50D7216
:104990007B68C3F84422002318461037BD4680BD0B
:1049A00080B584B000AF786039607B68DA693B68B5
:1049B0009A607B681B6A9AB23B689A817B6893F81D
:1049C0002430002B04D07B68062283F83C2003E0CF
:1049D0007B68012283F83C207868FFF755FF034687
:1049E000002B13D03B6802221A7504217868FFF768
:1049F0006BFFF860FB68BB60BB68002B01D0BB6835
:104A00000FE07B68062283F8312003E07B680422F4
:104A100083F831207B6803F50D727B68C3F844226C
:104A2000002318461037BD4680BD80B483B000AF68
:104A300078607B689B78002B06D07B6893F82030E9
:104A4000002B01D000230AE07B689B6A042B03D073
:104A50007B685B6A042B01D1002300E00123184628
:104A60000C37BD465DF8047B704780B483B000AF5F
:104A700078600B46FB707B68FA7883F8302000BFC3
:104A80000C37BD465DF8047B7047B0B586B000AF0B
:104A9000786039603B68002B02D07B68002B01D125
:104AA0000E23C4E03B6878331846FFF7BEFF034689
:104AB00083F00103DBB2002B01D00723B7E07B6852
:104AC00000229A707A683B68141D03F178050FCDB7
:104AD0000FC40FCD0FC495E8070084E807007B687A
:104AE000002283F830203B68D3F8A4207B685A6307
:104AF0003B68D3F8A8207B689A637B684FF6FF7207
:104B0000A3F848227B6803F50D727B68C3F8442242
:104B10007B6803F24A2307220021184608F08EF929
:104B20007B681B7883F00103DBB2002B03D07B682A
:104B3000FF2283F854207B6803F155027B68C3F899
:104B400034227B6893F82430002B04D07B68EE225B
:104B5000A3F8382203E07B681F22A3F838223868C4
:104B60007B6803F155017B6803F50E731A46FFF766
:104B7000CEFB78617B693B613B69002B01D03B69CF
:104B800055E07B6803F243127B68C3F83C227B68E4
:104B900093F82430002B04D07B68EE22A3F8402247
:104BA00003E07B681F22A3F840223B6803F13C002E
:104BB0007B68D3F83C127B6803F510731A46FFF745
:104BC000A6FB78617B69FB60FB68002B01D0FB686A
:104BD0002DE07B68012283F851207B689B699AB2A3
:104BE0007B68A3F848207B68012283F83C207B681F
:104BF00000221A647B68002283F850207B685A697F
:104C00007B685A647B6803F154007B683C331A4626
:104C10000021FFF7E4FC78617B69BB60BB68002B77
:104C200001D0BB6803E07B6801221A707B691846DB
:104C30001837BD46B0BD80B483B000AF78607B68E4
:104C40001B68012B03D07B681B68022B01D1012359
:104C500000E0002318460C37BD465DF8047B704722
:104C600080B584B000AF78600B46FB707B681B7822
:104C700083F00103DBB2002B01D0082307E17B683E
:104C8000FA789A707B6803F24A23072200211846BB
:104C900008F0D4F87B689B79002B03D07B689B7865
:104CA000012B0FD07B68DB79002B03D07B689B78CE
:104CB000012B07D07B68DB79002B14D07B689B78B5
:104CC000022B10D17B685B6B002B08D07B68012224
:104CD00083F851227B685B6B0820984703E07B6870
:104CE000002283F85122FB7819467868FFF732FDDD
:104CF00003461A467B689A707B685B6B002B20D05A
:104D00007B689B78032B03D07B689B78042B18D19E
:104D10007B685B79002B14D07B6893F8523283F068
:104D20000103DBB2002B0CD07B68002283F85422F5
:104D30007B68012283F853227B685B6B07209847CE
:104D400003E07B68002283F853227B683C331822FF
:104D50000021184608F072F87B68012283F83C2095
:104D60007B682C331846FFF766FF0346002B06D0FE
:104D70007B68DB6ADAB27B6883F8512003E07B68EA
:104D8000012283F851207B6893F82430002B12D045
:104D90007B682C331846FFF74EFF0346002B06D0E6
:104DA0007B689B6ADAB27B6883F8522003E07B68F9
:104DB000012283F852207B68002283F850207B6810
:104DC0009B78042B31D801A252F823F0214E030026
:104DD000E14D0300F14D0300014E0300114E0300AD
:104DE0007B683C3319467868FFF7FEFCF8601DE0ED
:104DF0007B683C3319467868FFF718FDF86015E0CA
:104E00007B683C3319467868FFF785FDF8600DE054
:104E10007B683C3319467868FFF7C2FDF86005E00F
:104E20007B68002283F8312000E000BF7B689B781C
:104E3000002B20D07B6803F154007B68D3F8441228
:104E40007B683C331A46FFF7CAFBF860FB68002B0F
:104E500001D0FB681BE07B6893F854207B6893F8D3
:104E6000303019461046FFF7BEFBF860FB68002B98
:104E700001D0FB680BE07B685B6B002B06D07B6886
:104E80005B6B7A6892F831201046984700231846E9
:104E90001037BD4680BD00BF80B584B000AF7860DC
:104EA00039603B68FB607B681B88112B09D0262B7F
:104EB0000CD0102B00D00EE07968F868FFF7DEFB0D
:104EC00009E07968F868FFF7EDFB04E07968F868B5
:104ED000FFF713FC00BF00BF1037BD4680BD80B494
:104EE00083B000AF7860396000BF0C37BD465DF815
:104EF000047B704780B584B000AF78607B6893F81E
:104F000054301846FFF773FB7B68012283F8522266
:104F10007B68002283F854227B68002283F85020AB
:104F200006217868FFF7D0FCF860FB68BB60BB68BF
:104F3000002B01D0BB6812E07B689B78194678682B
:104F4000FFF78EFEF860FB68002B07D07B689B6B39
:104F5000002B03D07B689B6BF868984700231846AA
:104F60001037BD4680BD75DF704700BF184676DF3D
:104F7000704700BF18467ADF704700BF18467BDFD6
:104F8000704700BF1846000080B485B000AF0346EC
:104F9000FB800023FB6015E00F49FA6813469B0075
:104FA00013449B000B441B88FA889A4207D1FA6885
:104FB00013469B0013449B00074A134406E0FB681A
:104FC0000133FB60FB68002BE6D000231846143742
:104FD000BD465DF8047B70472837002080B483B05D
:104FE00000AF78600B467B807B687A881A807B688C
:104FF00000221A727B68064903F10A020B4603CBB2
:105000001060516000BF0C37BD465DF8047B7047EF
:105010005837002080B483B000AF78607B684FF6CB
:10502000FF721A8000BF0C37BD465DF8047B7047E5
:1050300080B489B000AFF860B96011461A460B46DB
:10504000FB801346BB80FB689B881A46FB88134491
:10505000FB61FB689B88FA889A4205D2FB689B88B3
:105060001A46FB88D31A00E00023BB61FB68DB888B
:105070001A46BB8813447B61FB68DB88BA889A4276
:1050800005D2FB68DB881A46BB88D31A00E00023F0
:105090003B61BB685A88FB681B889A4205D3BB6892
:1050A0005A88FB685B889A4201D900231CE0BB68E0
:1050B0009B881A46BB69934205D8BB689B881A46F1
:1050C000FB69934201D200230EE0BB68DB881A46DD
:1050D0003B69934205D8BB68DB881A467B699342DB
:1050E00001D2002300E0012318462437BD465DF8B5
:1050F000047B704780B582B000AF7860054B9B6938
:10510000002B03D0034B9B697868984700BF083792
:10511000BD4680BD3C37002080B584B000AF03465B
:105120003960FB80FB8839681846FFF71CFFF86080
:10513000FB68002B05D0FB68112B02D0F868FFF745
:10514000D9FFFB68002B0CBF01230023DBB21846FC
:105150001037BD4680BD000080B588B000AF7860D4
:105160007B68FB61FB699BB21846FFF70DFFB861D6
:10517000BB69002B3FD0BB691A7A214B1B7B9A423B
:1051800013D2FB699AB2BB690A3319461046FFF77E
:10519000C3FF0346FB74FB7C002B2CD0BB691B7A3E
:1051A0000133DAB2BB691A7225E0BB6900221A72B8
:1051B000134B1B7C002B0FD0FB699BB23B21184685
:1051C000FFF7D5FE78617B69002B05D07B69082B42
:1051D00002D07869FFF78EFF094B5B69002B0AD07C
:1051E00000233B73FB699BB2FB81054B5B6907F1B5
:1051F0000C021046984700BF2037BD4680BD00BF57
:105200003C370020B0B586B000AF78607B68002BDB
:1052100001D10E2353E02C4A7B6814461D460FCD66
:105220000FC495E8070084E80700274B274A1A6057
:105230007B681B68002B11D07B681B681846FFF742
:105240009AFE38613B69002B01D03B6937E07B68EF
:105250001A681E4B1068516803C308E01B48FFF72B
:105260008EFE38613B69002B01D03B6927E00023AB
:105270007B6120E07A6913469B0013449B00144A2B
:105280001344FB60F868FFF7C5FE7B695B01114AB8
:105290001A44FB685A60FB6804330F4A0021184621
:1052A000F3F77AF938613B69002B01D0032306E05C
:1052B0007B6901337B617B69002BDBD000231846BF
:1052C0001837BD46B0BD00BF3C370020583700201E
:1052D00028370020083700205951030080B586B0D8
:1052E00000AF03463960FB803B685B7A002B19D125
:1052F0003B681B7A002B03D1154B5B687B6102E096
:10530000134B9B687B613B685B68FA887969184638
:10531000F3F776F938613B69002B14D03869FFF751
:10532000E9FE10E03B6800221A72094B5B69002B12
:1053300009D001233B73FB88FB81054B5B6907F1B7
:105340000C021046984700BF1837BD4680BD00BF0D
:105350003C37002080B584B000AF78607B68DB7B91
:10536000FB737B689B88BB81FB7B012B2AD14FF6AB
:10537000FF70FFF709FEB860BB68002B03D1042063
:10538000FFF7B8FE1FE0BB891946B868FFF726FE95
:10539000BB6803F10A007B6803F110014FF6FF734D
:1053A00040F2F312FFF744FE03461A46BB685A72F6
:1053B000064BDB89002B06D1BB89B9681846FFF77D
:1053C0008DFF00E000BF1037BD4680BD3C37002098
:1053D00080B586B000AF78607B689B88FB82FB8AD3
:1053E0001846FFF7D1FD38613B69002B0ED03B69B1
:1053F0005B681846F3F738F9F860FB68002B02D0B9
:10540000F868FFF777FE3869FFF704FE00BF18372A
:10541000BD4680BD80B586B000AF78607B6806333E
:105420007B617B691A88184BDB899A4228D17B699A
:105430005B89022B24D17B689B887B827B8A184600
:10544000FFF7A2FDF860FB68002B19D07B690C33D5
:10545000184600F03AFB0346002B05D07B8AF9681A
:105460001846FFF73BFF0BE0FB685B681846F3F755
:10547000FBF8B860BB68002B02D0B868FFF73AFEB3
:1054800000BF1837BD4680BD3C37002080B584B0D2
:1054900000AF78607B689B88FB81FB891846FFF72B
:1054A00073FDB860BB68002B14D0BB6803F10A0021
:1054B0007B6803F108014FF6FF7340F2F312FFF728
:1054C000B7FD03461A46BB685A72FB89B96818468D
:1054D000FFF704FF00BF1037BD4680BD80B582B026
:1054E00000AF786039607B681B88112B0DD0112BC1
:1054F00002DC102B05D014E0122B0ED0502B08D05C
:105500000FE07868FFF726FF0BE07868FFF760FF91
:1055100007E07868FFF77EFF03E07868FFF7B6FFE3
:1055200000BF00BF0837BD4680BDB0B58EB000AF2C
:10553000786039600023BB603B68002B1BD00023E0
:105540007B6315E03B46796B1846F5F7D5F80346C3
:10555000002B0AD0BB685A1CBA607A6B92B25B000F
:1055600007F138010B4423F82C2C7B6B01337B6350
:105570007B6B132BE6D97B681D4607F108040FCC23
:105580000FC50FCC0FC594E8070085E807007868C1
:105590003837BD46B0BD000080B582B000AF0346CD
:1055A000FB80FB88132B01D900230AE0FB881946F6
:1055B0000648F5F74CF8FB8819460548F5F747F813
:1055C000012318460837BD4680BD00BF683700205C
:1055D0006437002080B584B000AF0346FB80002311
:1055E000FB600CE0FB689B00084A13440433FA8814
:1055F00011461846F5F767F8FB680133FB60FB6856
:105600001C2BEFD900BF1037BD4680BD603700208E
:1056100080B582B000AF0346FB80FB881946034883
:10562000F5F751F800BF0837BD4680BD6837002048
:10563000B0B59AB000AF1A4B9B68DB433B66184B82
:105640005A6807F1600311461846F5F725F93A6ED6
:105650003B4611461846FFF768FF07F134043D4604
:105660000FCD0FC40FCD0FC495E8070084E80700E5
:1056700000237B660CE07B6E5B0007F1680213443D
:1056800033F8303C1846FFF7A5FF7B6E01337B668D
:105690007B6B7A6E9A42EED300BF6837BD46B0BDD1
:1056A0006037002080B582B000AF0346FB71FB7904
:1056B00019460448F5F720F8034618460837BD4652
:1056C00080BD00BF6037002080B584B000AF786037
:1056D00039607B689B88FB817B681B88112B1ED0FF
:1056E0001A2B21D0102B00D055E0FFF7A1FFFB892A
:1056F0001846FFF751FF034683F00103DBB2002B8E
:1057000003D00420F2F766F944E07B68DB7B012BD1
:1057100040D0FB8919462248F4F799FF3AE0FB890B
:105720001846FFF775FF36E07B681B7AC3F3031357
:10573000DBB2012B8CBF012300237B737B681B7AB8
:10574000C3F30313DBB2022B8CBF012300233B7393
:105750007B7B002B13D0FB8919461248F4F777FFA7
:105760003B7B002B05D0FB8919460F48F4F76FFFF0
:1057700011E0FB8919460C48F4F7A5FF0BE0FB8903
:1057800019460848F4F79FFFFB8919460648F4F7C5
:105790009AFF00E000BF00BF1037BD4680BD00BFCC
:1057A0006C370020703700207437002080B582B03D
:1057B00000AF0346FB80FB88132B01D9002305E0D3
:1057C000FB8819460348F4F797FF03461846083745
:1057D000BD4680BD6437002080B584B000AF03466D
:1057E000FB800023FB73FB881846FFF7DFFF0346AF
:1057F000002B0DD0FB8819460848F4F77DFF0346BF
:10580000BB73BB7B002B01D0022300E00123FB73A1
:10581000FB7B18461037BD4680BD00BF6C370020AB
:1058200080B584B000AF0346FB800023FB73FB8888
:105830001846FFF7BBFF0346002B0DD0FB88194627
:105840000848F4F759FF0346BB73BB7B002B01D01C
:10585000022300E00123FB73FB7B18461037BD4693
:1058600080BD00BF6837002080B582B000AF03461E
:10587000FB80FB881846FFF799FF0346002B06D0F4
:10588000FB8819460448F4F737FF034600E000237D
:1058900018460837BD4680BD7037002080B582B0FD
:1058A00000AF0346FB80FB881846FFF77FFF0346E7
:1058B000002B06D0FB8819460448F4F71DFF034669
:1058C00000E0002318460837BD4680BD743700202D
:1058D00080B582B000AF7860054B5A687B6811468E
:1058E0001846FFF722FE78680837BD4680BD00BF26
:1058F0006037002080B582B000AF18210748F4F768
:1059000018FF78607B68182B01D1182301E07B68B1
:10591000DBB218460837BD4680BD00BF60370020A7
:1059200080B582B000AF03460A46FB8013467B7108
:105930007B791846FFF7B6FE0346002B13D0FB8891
:105940001846FFF733FF0346002B0CD07B79043356
:105950009B00074A13440833FA8811461846F4F7A7
:10596000CBFE034600E0002318460837BD4680BD45
:105970006037002080B582B000AF0346FB800B4645
:105980007B7113463B717B791846FFF78BFE03460C
:10599000002B20D0FB881846FFF708FF0346002B9A
:1059A00019D03B79002B0BD07B7904339B000C4A38
:1059B00013440833FA8811461846F4F748FE0AE003
:1059C0007B7904339B00064A13440833FA88114656
:1059D0001846F4F778FE00BF0837BD4680BD00BF0B
:1059E0006037002080B586B000AFF860B9607A609B
:1059F000BB68002B01D1002320E000237B61FB6802
:105A0000002B1AD000233B6114E007F10C03396925
:105A10001846F4F771FE0346002B08D03B699AB292
:105A2000BB687968104698477B6901337B613B69A5
:105A300001333B613B69132BE7D97B691846183763
:105A4000BD4680BD80B584B000AF0346B9607A60C2
:105A5000FB73FB7B1846FFF725FE034683F001032B
:105A6000DBB2002B01D000230BE0FB7B074A0433A1
:105A70009B0013449B687A68B9681846FFF7B2FF29
:105A8000034618461037BD4680BD00BF6037002072
:105A900080B483B000AF78607B681B781AB27B68F3
:105AA00001331B781B021BB213431BB29BB2184677
:105AB0000C37BD465DF8047B7047AADF704700BF16
:105AC0001846ABDF704700BF184680B584B000AF02
:105AD00078607868FFF7DCFF0346FB81FB8903F001
:105AE0000103002B14BF01230023DBB2184610373B
:105AF000BD4680BD80B584B000AF786039600023BA
:105B0000FB73FB7B5A1CFA731A467B6813443A6892
:105B100012781A70FB7B5A1CFA731A467B6813447E
:105B20003A6852781A70FB7B022B0CBF01230023CA
:105B3000DBB2BB60BB68002B02D10020F1F74AFF4B
:105B4000FB7B18461037BD4680BD000080B483B093
:105B500000AF03463960FB713A6813786FF30303B3
:105B600013703A6813786FF307131370FB79052BE2
:105B70005BD801A252F823F0915B0300A75B0300FE
:105B8000C15B0300DB5B0300F55B03000F5C0300FC
:105B90003A6813786FF3030313703A6813786FF35E
:105BA0000713137040E03A681378012161F303038F
:105BB00013703A681378012161F30713137033E00F
:105BC0003A681378012161F3030313703A6813787C
:105BD000022161F30713137026E03A68137801215C
:105BE00061F3030313703A681378032161F3071319
:105BF000137019E03A681378022161F303031370FC
:105C00003A681378012161F3071313700CE03A68C6
:105C10001378022161F3030313703A6813780221A9
:105C200061F30713137000BF00BF00BF0C37BD4600
:105C30005DF8047B704700BF80B594B000AF0346A9
:105C4000B9607A60FB81BB689B78002B02D101238D
:105C5000BB7702E0BB689B78BB77BB681B88BB83C4
:105C600007F1180303220021184607F0E7F8BB6884
:105C70005B7C07F1180211461846FFF767FFBB6807
:105C80009A7C07F11803013319461046FFF75EFFAF
:105C9000BB68DA7BBB7E62F3C303BB76BB681A7C4E
:105CA000BB7E62F30413BB76BB681A7BBB7E62F3D8
:105CB0000003BB76BB681B7D002B01D0022200E0F5
:105CC0000122BB7E62F34203BB7607F134031C2240
:105CD0000021184607F0B2F8BB685B7B03F01003A5
:105CE000DBB2002B06D1BB685B7B03F02003DBB289
:105CF000002B21D007F1100303220021184607F0E2
:105D00009DF8BB68DA7C07F1100301331946104691
:105D1000FFF71CFF3B7C012262F303033B743B7CD7
:105D2000012262F307133B74BB7C012262F342033E
:105D3000BB7407F11003BB64BB685B7B87F834302E
:105D4000BB689B7B87F8353007F1200314220021C4
:105D5000184607F073F807F11C033B6207F11803BC
:105D60007B62BB689B88BB85BB689B68002B05D0AA
:105D7000BB68DB883B85BB689B683B63BB689B69F2
:105D8000002B49D007F1140303220021184607F025
:105D900055F8BB689B691B88BB87BB689B695B88A0
:105DA000FB87BB689B695B68BB6307F114037B647B
:105DB000BB689B691B7B07F1140211461846FFF76D
:105DC000C5FEBB689B695A7B07F114030133194672
:105DD0001046FFF7BBFEBB689B699A7ABB7D62F3F6
:105DE000C303BB75BB689B69DA7ABB7D62F304139E
:105DF000BB75BB689B691A7ABB7D62F30003BB75F8
:105E0000BB689B699B7B002B01D0022200E0012232
:105E1000BB7D62F34203BB75BB68DB69002B02D01C
:105E2000BB68DB693B6407F1200207F13401F889A4
:105E30007B68FFF742FE034618465037BD4680BDDB
:105E400080B58CB000AF0346B9607A60FB8107F182
:105E50001C0314220021184606F0F0FFBB689B7853
:105E6000002B02D10123BB7602E0BB689B78BB7696
:105E7000BB681B883B8307F11803FB61BB689B79F8
:105E800007F1140211461846FFF760FEBB68DA7985
:105E900007F11403013319461046FFF757FEBB689C
:105EA000DA78BB7D62F3C303BB75BB681A79BB7D2F
:105EB00062F30413BB75BB685A79BB7D62F30003C0
:105EC000BB75BB681B7A002B01D0022200E00122C7
:105ED000BB7D62F34203BB7507F114033B62BB68F1
:105EE0005B89BB84BB689B89FB84BB68DB893B8582
:105EF000BB681B69FB6207F11C01FB897A681846C5
:105F0000FFF7DFFD034618463037BD4680BDA0DFF2
:105F1000704700BF1846A1DF704700BF1846ADDFCD
:105F2000704700BF1846B3DF704700BF184680B403
:105F300083B000AF78607B6800221A60BFF35F8F88
:105F400000BF0C37BD465DF8047B704780B584B058
:105F500000AF786001217868F4F73BFCF860BFF38C
:105F60005F8FFB68002B0CBF01230023DBB21846B8
:105F70001037BD4680BD80B483B000AF7860BFF3FA
:105F80005F8F7B6800221A6000BF0C37BD465DF84A
:105F9000047B704780B400AF034B00221A7000BF2F
:105FA000BD465DF8047B7047D837002080B584B0CB
:105FB00000AF78607B685B88184601F001FA034601
:105FC0001A467B689A800023FB6008E0074AFB685A
:105FD00052F8233078689847FB680133FB60FB6810
:105FE000002BF3D000BF1037BD4680BDC422002077
:105FF00080B483B000AF78607B689B79012B0BD1B4
:106000007B681B79012B07D17B685B8842F6021203
:10601000934201D1012300E0002303F00103DBB22E
:1060200018460C37BD465DF8047B704780B588B0D4
:1060300000AF03463960FB8007F1080300221A60B5
:106040005A609A60DA601A615A6107233B72FB88D2
:106050007B813B683B6107F108031846FFF7A6FF09
:1060600000BF2037BD4680BD90B58BB000AF034662
:10607000FB80002387F8273007F1080300221A600D
:106080005A609A60DA601A615A61FB887B81FB88EA
:106090004FF6FF72934254D0FB88184600F0ECFE96
:1060A00038623B6A0B2B17D00B2B02D8002B07D082
:1060B00026E0112B0CD043F20202934237D01FE0AE
:1060C0000E233B7207F108031846FFF76FFF2FE01E
:1060D000012387F827302BE00F233B721B4A1C4B10
:1060E000D31ADB081B0443F00203FA881949184647
:1060F000F0F789FD07F108031846FFF757FF17E08F
:10610000124A134BD31ADB081B0443F00104386A0C
:10611000F6F764FB03461A46FB880F492046F0F762
:1061200085FDFB88396A1846FFF780FF00E000BF55
:106130000A4B197897F82720FB881846FFF71AFCB6
:1061400000E000BF2C37BD4690BD00BF00FE03003D
:1061500088FD0300D8DC030058DD0300E137002090
:1061600080B582B000AF03460A46FB8013467B71C0
:10617000054B19787A79FB881846FFF7FBFB00BFBF
:106180000837BD4680BD00BFE037002090B58BB01A
:1061900000AF0346FB80002387F82730002387F8F1
:1061A0002630FB88184600F0E7FD38623B6A112B69
:1061B0000FD0112B02D8002B07D02EE0862B0CD04D
:1061C00043F2020293423FD027E0012387F82630B2
:1061D0003BE0012387F8273037E007F1080300226E
:1061E0001A605A609A60DA601A615A6106233B723B
:1061F000FB887B811B4A1C4BD31ADB081B0443F032
:106200000203FA8819491846F0F7FDFC07F1080364
:106210001846FFF7CBFE00BF17E0124A124BD31A05
:10622000DB081B0443F00104386AF6F7D7FA03468B
:106230001A46FB880E492046F0F7F8FCFB88396ABD
:106240001846FFF7F3FE00E000BF97F82720FB8811
:1062500011461846FFF784FF97F8263018462C376A
:10626000BD4690BD00FE030088FD0300ACDD0300C9
:10627000E4DD030080B588B000AF03463960FB80E1
:106280000023FB7707F116031846FFF74CFEB861B1
:106290000123BB833AE00223BB810023FB8107F18A
:1062A00014033B6107F10C02B98BFB881846FFF71A
:1062B00036FEB861BB69002B01D0BB692BE0FB7FC8
:1062C00083F00103DBB2002B07D0BB8A42F6052224
:1062D000934202D10123FB7715E0FB7F002B12D004
:1062E000BB8A42F6021293420DD13B683B61BB8BE5
:1062F0000133BB8307F10C02B98BFB881846FFF70B
:106300000EFE034607E0BB8B0133BB83FB8ABA8BCF
:106310009A42C0D3052318462037BD4680BD0000F1
:1063200090B58DB000AF0346FB80012387F82F3076
:10633000002387F82E30FB88184600F03FFEB86235
:10634000BB6A082B28D0082B04D8002B0DD0062BB5
:1063500030D040E043F20202934253D043F2014274
:10636000934233D0112B4FD035E007F110030022B8
:106370001A605A609A60DA601A615A6110233B749D
:10638000FB887B82012387F82E3007F11003184623
:10639000FFF70CFE00BF38E007F10E02FB88114644
:1063A0001846FFF767FFB862BB6A002B02D1FB8972
:1063B000002B2AD1002387F82F30FB88184600F0E5
:1063C000FFFF0346184600F03FFE1EE0FB8818461C
:1063D000FFF74AFE19E0174A174BD31ADB081B04D4
:1063E00043F00104B86AF6F7F9F903461A46FB8848
:1063F00012492046F0F71AFCFB88B96A1846FFF7E5
:1064000015FE02E000BF00E000BF0D4B197897F8C1
:106410002F20FB881846FFF7ADFA0A4B197897F83A
:106420002E20FB881846FFF7A5FA00BF3437BD467B
:1064300090BD00BF00FE030088FD030024DE0300C2
:10644000E2370020E337002080B582B000AF03467A
:106450003960FB80FB881846FFF706FE00BF08374F
:10646000BD4680BD80B500AF044B1B7800220449B7
:106470001846FFF7E7FA00BF80BD00BFE1370020F4
:106480004964030080B582B000AF03463960FB80E9
:106490000A48FFF75BFD0346002B0BD0FB8818462C
:1064A000FFF774FE0346002B03D10448FFF763FD9A
:1064B00000E000BF0837BD4680BD00BFDC370020CC
:1064C00080B582B000AF03463960FB800A4B1A7872
:1064D000FB8811461846FFF723FA034683F00103B1
:1064E000DBB2002B03D0FB881846FFF719FF00BF73
:1064F0000837BD4680BD00BFE337002080B500AF40
:10650000044B1B78002204491846FFF79BFA00BF92
:1065100080BD00BFE2370020C164030080B582B0B7
:1065200000AF0346FB80FB88184600F025FD0346BC
:10653000002B06D0054B1978FB8801221846FFF77F
:1065400019FA00BF0837BD4680BD00BFE237002002
:1065500080B586B000AF03463960FB8007F11003B9
:1065600004220021184606F069FC42F6A6233B826D
:106570000123BB740C4B1B68FB6007F10C0207F195
:106580001001FB881846FFF7C2FC78617B69002B7D
:1065900006D1064B1978FB8801221846FFF7EAF965
:1065A00000BF1837BD4680BD64DE0300E53700201C
:1065B00080B584B000AF0346FB80FB88184600F02E
:1065C000FFFE0346184607F108020023092101F0E7
:1065D00041FF0346052B06D1054B1978FB880122A4
:1065E0001846FFF7C7F900BF1037BD4680BD00BF92
:1065F000E437002080B582B000AF0B4B1B7800223F
:106600000A491846FFF71EFA78607B68002B07D10D
:10661000074B1B78002207491846FFF713FA7860EA
:1066200000BF0837BD4680BDE03700208564030009
:10663000E43700205165030080B582B000AF786078
:106640007B681B78002B00D011E07B685B881846C4
:10665000FFF70AFD7B685B881846FFF75FFF7B68E2
:106660005B881846FFF7A4FFFFF7C4FF00BF00BF19
:106670000837BD4680BD000080B588B000AF7860A7
:106680007B681B78082B51D17B685B7A002B4DD13E
:106690007B681B7A072B04D0082B3FD0012B16D028
:1066A0004BE07B689B88184600F032FF0346FB8373
:1066B000FB8B4FF6FF7293423AD0FB8B01211846B9
:1066C000FFF74EFDFB8B1846FFF772FF30E07B684B
:1066D0009B8807F10C020121184602F04DFCB861BD
:1066E000BB69002B26D13B691B78002B22D07B682D
:1066F0009B88184600F00CFF0346FB82FB8A4FF68E
:10670000FF72934216D0104B1978FB8A012218466B
:10671000FFF730F9FFF7F2FE00BF0BE00B4B1B68F1
:10672000012B09D10948FFF726FC05E000BF04E072
:1067300000BF02E000BF00E000BFFFF75BFF00BF4B
:106740002037BD4680BD00BFE2370020DC37002087
:1067500080B500AFFFF71EFCFFF7CCF803461A46E2
:106760002B4B1A70FFF7C6F803461A46294B1A70CE
:10677000FFF7C0F803461A46274B1A70FFF7BAF81E
:1067800003461A46254B1A70FFF7B4F803461A461B
:10679000234B1A70FFF7AEF803461A46214B1A70C6
:1067A000FFF7A8F803461A461F4B1A70184B1B78C0
:1067B000182B17D0174B1B78182B13D0164B1B78A0
:1067C000182B0FD0154B1B78182B0BD0144B1B78A4
:1067D000182B07D0134B1B78182B03D0124B1B78A8
:1067E000182B0CD1114A124BD31ADB081B0443F0AF
:1067F000010310491846F0F7F7F9032306E00E48A5
:10680000FFF795FB0D4B01221A700023184680BD3F
:10681000E0370020E1370020E2370020E337002096
:10682000E4370020E5370020E637002000FE0300B3
:1068300088FD030068DE0300DC370020D837002025
:1068400090B587B000AF03460A46FB8013467B71C4
:1068500007F10C0300221A605A600123BB8109234F
:10686000BB73194B1978FB8800221846FFF782F892
:106870007B79002B01D0154B00E0154B3B61FB8869
:10688000184600F09DFD0346184607F10C03002250
:10689000194601F0A5FE78617B69002B0FD00D4AE7
:1068A0000D4BD31ADB081B0443F002047869F5F79B
:1068B00095FF03461A4609492046F0F7A4F900BFA0
:1068C0001C37BD4690BD00BFE4370020ECDF03005D
:1068D000F0DF030000FE030088FD0300D8DE0300A4
:1068E00080B58CB000AF78607B689B88BB857B6887
:1068F0001B88353B1F2B00F2588101A252F823F070
:10690000056A0300FB6A0300AB6B0300AB6B03007B
:10691000AB6B0300AB6B0300AB6B0300AB6B030013
:10692000AB6B0300AB6B0300AB6B0300AB6B030003
:10693000AB6B0300AB6B0300AB6B0300AB6B0300F3
:10694000AB6B0300AB6B0300AB6B0300AB6B0300E3
:10695000AB6B0300AB6B0300AB6B0300AB6B0300D3
:10696000AB6B0300AB6B0300AB6B0300E36903008D
:10697000AB6B030081690300AB6B03008B69030001
:10698000BB8D1846FFF770FB0FE107F108030022EB
:106990001A605A609A60DA601A615A6111233B7278
:1069A000BB8D7B81BB8D184600F00AFD0346BB8181
:1069B000BB89184600F048FB804B1978BB8D00223C
:1069C0001846FEF7D7FF7E4B1978BB8D002218467C
:1069D000FEF7D0FF07F108031846FFF7E7FA00BFFC
:1069E000E3E07B6806331846FFF702FB0346002B03
:1069F00000F0D480BB8D01211846FFF7B1FBFFF7F3
:106A0000F9FDCBE0002387F82F307B689B88BB859E
:106A10007B680A337B626B4B1A78BB8D1146184634
:106A2000FEF77EFF034683F00103DBB2002B40F04C
:106A3000B780644B1978BB8D00221846FEF79AFF89
:106A40007B68DB88B3F5857F4AD07B68DB88002BC9
:106A50000DD05D4A5D4BD31ADB081B0443F00200E6
:106A60007B68DB881A465A49F0F7CDF838E07B6A34
:106A70001B88012B0CD0544A544BD31ADB081B043F
:106A800043F002007B6A1B881A465249F0F7BBF8B4
:106A90007B6A5B88012B0DD04B4A4C4BD31ADB0829
:106AA0001B0443F002007B6A5B881A464A49F0F7F0
:106AB000AAF815E07B6A04331988BB8D00221846BA
:106AC000FFF729FA38623B6A002B09D1012387F8C6
:106AD0002F30424B1978BB8D01221846FEF74AFF32
:106AE00097F82F3083F00103DBB2002B5AD0BB8D17
:106AF00000211846FFF7A4FE54E0002387F82E304B
:106B00007B689B88BB857B680A33BB62334B1A78F2
:106B1000BB8D11461846FEF703FF034683F00103C1
:106B2000DBB2002B40D12D4B1978BB8D00221846CB
:106B3000FEF720FF7B68DB88002B0DD0224A234B19
:106B4000D31ADB081B0443F002007B68DB881A467B
:106B50001F49F0F758F819E0BB6A9B88012B0DD04C
:106B6000194A1A4BD31ADB081B0443F00200BB6A14
:106B70009B881A461849F0F746F807E0BB6A9B79EC
:106B8000002B14BF0123002387F82E3097F82E2006
:106B9000BB8D11461846FFF753FE06E000BF04E028
:106BA00000BF02E000BF00E000BFFFF75BFCFFF7A3
:106BB000A5FC00BF3037BD4680BD00BFE3370020D5
:106BC000E2370020E537002000FE030088FD0300C7
:106BD00038DF030074DF0300B0DF0300E637002076
:106BE000AFDF704700BF1846B1DF704700BF1846DF
:106BF000B2DF704700BF1846B3DF704700BF1846CA
:106C000080B400AF054B00221A70054B4FF6FF729F
:106C10001A8000BFBD465DF8047B7047E73700204F
:106C2000E837002080B584B000AF78607B689B882F
:106C3000184600F06DFC03461A467B685A80002314
:106C4000FB6008E0074AFB6852F8233078689847F1
:106C5000FB680133FB60FB68002BF3D000BF1037EB
:106C6000BD4680BDC822002090B58BB000AF2E4A33
:106C700007F11C0392E8030083E8030048E02B4B74
:106C80001B8807F11C010022184601F0A9FC78625C
:106C90007B6A002B33D03B1D00221A605A609A6039
:106CA000DA601A615A61214B1B883B817B6A112B88
:106CB00035D07B6A862B06D106233B713B1D1846D7
:106CC000FFF7B0FF2BE01A4A1A4BD31ADB081B045C
:106CD00043F00104786AF5F781FD03461A46134B29
:106CE0001B8815492046EFF7A1FF07233B717B6AFC
:106CF000FB603B1D1846FFF795FF00BF0FE00B4BF5
:106D00001B88184601F02EFD03461A46074B1A80D1
:106D1000064B1B884FF6FF729342B0D100E000BFD4
:106D200000BF2C37BD4690BD60E00300E83700206F
:106D300008FE030088FD030008E0030080B582B070
:106D400000AF7860054B1B884FF6FF72934201D06D
:106D5000FFF78AFF00BF0837BD4680BDE837002037
:106D600080B500AFFFF74CFF024B01221A700023E1
:106D7000184680BDE7370020B0B58AB000AF0346A3
:106D8000FB80FB88184600F01BFB0346FB83FB8B54
:106D90004FF6FF72934202D143F2020362E00123F5
:106DA0007B84002387F82130002387F821307B8CF7
:106DB0005A1C7A841A4607F10C03F88B082102F05A
:106DC000EFF878627B6A002B42D13B69BB61BB69FB
:106DD00003221A60BB69991DBB691A1DBB691B6838
:106DE000F888FFF705FF78627B6A002B07D1FA8BE2
:106DF000FB8B0821184602F085F978622DE07B6A4A
:106E00000C2B03D1012387F8213004E07B6A052B8A
:106E100001D100237B62FB8B0821184602F056F952
:106E200078617B69002B18D0104A114BD31ADB080C
:106E30001B0443F00104FD8B7869F5F7CFFC034692
:106E40002A460C492046EFF7F1FE03237B6204E05B
:106E50007B6A072B01D10C237B6297F82130002B32
:106E6000A2D17B6A18462837BD46B0BD08FE030094
:106E700088FD030068E0030080B58AB000AF0346D8
:106E8000FB80FB88184600F09BFA0346BB82002378
:106E90003B620023FB830323BB610123FB75BB8A99
:106EA0004FF6FF72934215D007F10802BB8A082102
:106EB000184602F061F878627B6A002B0AD1FB6801
:106EC0003B613B6906333B623B699B88FB833B69C3
:106ED0001B68BB61FA8BF888BB69396AFFF784FECF
:106EE00078627B6A042B02D111237B622DE07B6ADE
:106EF000082B02D100237B6227E07B6A0B2B24D175
:106F00000023FB75BB6903F00203002B02D00123B1
:106F1000BB611AE03B6A002B02D1FB8B002B06D031
:106F200000233B620023FB830323BB610DE00F4A78
:106F30000F4BD31ADB081B0443F00103FA880D49F9
:106F40001846EFF760FE03237B627B6A0B2BC1D0F0
:106F5000FB7D83F00103DBB2002B01D00B237B62AE
:106F60007B6A18462837BD4680BD00BF08FE030077
:106F700088FD0300E8E0030080B588B000AF034659
:106F8000FB8007F117033B61FB88184600F018FAF5
:106F90000346FB8307F10C02FB8B0121184601F02D
:106FA000EBFFB861BB69002B01D0002301E03B6916
:106FB0001B7818462037BD4680BD000090B585B0CF
:106FC00000AF0346FB804FF6FF73FB811A48FFF7C3
:106FD00013FEB860BB68002B11D0184A184BD31AA7
:106FE000DB081B0443F00104B868F5F7F7FB034620
:106FF0001A4614492046EFF706FE032318E00E4B0D
:107000001988FA89FB881846FFF7EAFDB860BB6863
:1070100043F20302934205D1074B1B8801339AB216
:10702000054B1A80BB6843F203029342E7D0BB686A
:1070300018461437BD4690BDEA37002008FE03000D
:1070400088FD030060E1030080B584B000AF034613
:10705000FB80094A07F1080392E8030083E8030074
:1070600007F10801FB880022184601F0B9FA00BFB9
:107070001037BD4680BD00BFACE1030046DF70475E
:1070800000BF184680B584B000AF78600023FB6075
:1070900008E0084AFB6852F8233078689847FB6894
:1070A0000133FB60FB68012BF3D900BF1037BD46ED
:1070B00080BD00BFBCE2030080B485B000AF786043
:1070C0000023FB600AE07A68FB6813441B78002BFE
:1070D00001D0012306E0FB680133FB60FB680F2B46
:1070E000F1D9002318461437BD465DF8047B70477C
:1070F00080B582B000AF786039607B68002B02D029
:107100003B68002B01D100231BE07B681B78C3F395
:107110004603DAB23B681B78C3F34603DBB29A42FC
:1071200001D000230DE07B68581C3B680133062228
:10713000194605F069FE0346002B0CBF012300230E
:10714000DBB218460837BD4680BD0000B0B598B028
:1071500000AF78607B681B88102B40F090807B68C4
:1071600007F130041D1D0FCD0FC40FCD0FC495E8DE
:10717000070084E807004FF6FF73A7F85E3097F822
:10718000343023F00103DBB2062B49D001F0CAF9F9
:1071900097F83430C3F34603DBB2002B3FDB012BFF
:1071A00014DD022B2FD03AE0BB6A03F1110207F184
:1071B0003003043311461846FFF79AFF0346002BAD
:1071C00004D0FB8DA7F85E3000BF29E007F1240250
:1071D00007F12E031946072001F0B0F90346002BF2
:1071E000E2D11DE0BB6A5A1C07F13003043311469B
:1071F000184600F07DFA0346002B04D0FB8DA7F85B
:107200005E3000BF0CE007F1240207F12E0319469F
:10721000072001F093F90346002BE3D100E000BF03
:107220003B8E1946184A0B469B000B445B001344E7
:10723000B7F85E201A803B8E1946134A0B469B0016
:107240000B445B001344023307F1340210681860EA
:107250009188927999809A71B7F85E304FF6FF72F3
:1072600093420DD03B8EFB81B7F85E303B8200230A
:107270003B7307F10C031846FFF704FF00E000BF63
:107280006037BD46B0BD00BFEC37002080B586B08A
:1072900000AF786039607B6811337B613B681133E4
:1072A0003B617B68581C3B6801331022194605F08E
:1072B000ABFD0346002B11D17B6801331846FFF765
:1072C000FBFE0346002B09D03B6801331846FFF74D
:1072D000F3FE0346002B01D0012300E00023FB73E3
:1072E000FB7B03F00103FB7339697869FFF700FF4B
:1072F0000346BB737B691B7823F00103DBB2042BCD
:1073000016D07B691B7823F00103DBB2062B0FD06C
:107310003B691B7823F00103DBB2042B08D03B69E7
:107320001B7823F00103DBB2062B01D0012300E020
:1073300000237B737B7B03F001037B73BB7B002B00
:1073400002D07B7B002B08D1FB7B002B07D07B7B03
:1073500083F00103DBB2002B01D0012300E0002306
:1073600003F00103DBB218461837BD4680BD80B577
:1073700086B000AF78600B467B8001F0D3F80DE05B
:10738000FB8A7A889A4209D03B6919467868FFF7E8
:107390007DFF0346002B01D0FB8A0CE007F10C02B5
:1073A00007F116031946072001F0C8F80346002B21
:1073B000E6D14FF6FF7318461837BD4680BD000072
:1073C00080B582B000AF0346FB80FB88132B09D841
:1073D000FB881846FEF7EAF9034683F00103DBB2A7
:1073E000002B02D04FF6FF7307E0FA8805491346D9
:1073F0009B0013445B000B441B8818460837BD46AE
:1074000080BD00BFEC37002080B582B000AF0346DE
:107410003960FB80FB88132B09D8FB881846FEF7E0
:10742000C5F9034683F00103DBB2002B02D043F21F
:10743000020310E0FA883868094913469B00134498
:107440005B000B44024602331968116099889B79EE
:1074500091809371002318460837BD4680BD00BF58
:10746000EC37002080B582B000AF78603960786872
:1074700000F080F8034683F00103DBB2002B01D05B
:10748000002315E07B681A883B681B889A4201D06C
:1074900000230DE07B68981C3B68023308221946E4
:1074A00005F0B2FC0346002B0CBF01230023DBB226
:1074B00018460837BD4680BD80B586B000AF7860FD
:1074C00001F030F813E03B69463319467868FFF75E
:1074D000C9FF0346002B08D13B692A331946786857
:1074E000FFF7C0FF0346002B01D0FB8A0CE007F139
:1074F0000C0207F116031946072001F01FF8034696
:10750000002BE0D14FF6FF7318461837BD4680BDFB
:1075100080B584B000AF0346FB80FB884FF6FF7256
:10752000934202D14FF6FF731EE00023FB8116E069
:10753000FA890F4913469B0013445B000B441B88D8
:10754000FA889A4208D1FB891846FEF72FF90346BC
:10755000002B01D0FB8907E0FB890133FB81FB890C
:10756000132BE5D94FF6FF7318461037BD4680BD83
:10757000EC37002080B485B000AF78607B681B8852
:10758000002B01D0012312E00023FB600BE07A689E
:10759000FB68134402331B78002B01D0012306E063
:1075A000FB680133FB60FB68072BF0D9002318460A
:1075B0001437BD465DF8047B7047000080B483B08B
:1075C00000AF03460A46FB801346BB80FB88132BA3
:1075D00008D8FA88064913469B0013445B000B4405
:1075E000BA881A8000BF0C37BD465DF8047B70472F
:1075F000EC37002080B584B000AF0346FB80FB88E9
:107600001846FFF785FF0346FB81FB88184601F00B
:1076100043FCB860BB68002B0CD1FB89132B09D845
:10762000FA89074913469B0013445B000B444FF64D
:10763000FF721A80BB6818461037BD4680BD00BF78
:10764000EC37002080B594B000AFF860B9607A6084
:107650000023FB640EE0FB6CC3F10F03FA681344D4
:10766000197807F11402FB6C13440A461A70FB6C7C
:107670000133FB64FB6C0F2BEDD907F114031033BE
:107680000D220021184605F0D9FB0023BB640EE053
:10769000BA68BB6C1A44BB6CC3F10F03127807F1D4
:1076A00050010B4403F82C2CBB6C0133BB64BB6C46
:1076B000022BEDD907F114031846FFF7DFFC002376
:1076C0007B640EE07B6CC3F10F0279687B6C0B442A
:1076D00007F150010A4412F81C2C1A707B6C01331C
:1076E0007B647B6C022BEDD900BF5037BD4680BD5B
:1076F00080B586B000AF786039607B681B7823F076
:107700000103DBB2042B01D0002325E07B68591C68
:1077100007F114030322184605F085FB7B68191D49
:1077200007F10C030322184605F07DFB3B6807F1C7
:10773000100207F10C011846FFF784FF07F1100152
:1077400007F114030322184605F05EFB0346002BE5
:107750000CBF01230023DBB218461837BD4680BD9D
:1077600090DF704700BF1846A5DF704700BF18467E
:10777000B5DF704700BF184680B483B000AF7860B3
:107780007B6817221A807B6817225A807B68002248
:107790001A717B6800225A717B681B229A717B6880
:1077A0001B22DA7100BF0C37BD465DF8047B7047C1
:1077B000B0B588B000AF03460A46FB801346BB80D5
:1077C000BB88BB82BB88FB8200233B8300237B8377
:1077D00007F10C0300221A609A8007F10C0207F1EE
:1077E0001401FB881846FFF7BBFFF861FB69002B0B
:1077F00032D01C4A1C4BD31ADB081B0443F0010493
:10780000FD88F869F4F7EAFF03462A46174920463F
:10781000EFF70CFABB89002B02D1FB89002B0CD0AF
:10782000104A114BD31ADB081B0443F00100BB893B
:107830001A46FB890E49EFF7F9F93B8A002B0BD06A
:10784000084A094BD31ADB081B0443F001033A8AA8
:1078500008491846EFF7D7F9FB6918462037BD46A7
:10786000B0BD00BFD0FD030088FD0300D4E20300DB
:1078700020E3030060E3030090B587B000AF7860B9
:1078800039603B689B88FB81FB89DB007A68134485
:1078900006337B617B681A797B699A713B68DB7B75
:1078A000012B02D0022B05D009E07B681A887B6986
:1078B0001A8004E07B685A887B691A8000BF7B6964
:1078C0001A887B695B889A4225D97B691A88FB896B
:1078D00011461846FFF748FF38613B69002B03D17A
:1078E0007B6901225A7116E03B69112B03D17B6938
:1078F00001221A710FE0114A114BD31ADB081B0445
:1079000043F001043869F4F769FF03461A460D494C
:107910002046EFF778F97B699A797B69DB799A429F
:1079200007D97B699B799AB2FB8911461846FFF704
:107930003FFF00BF1C37BD4690BD00BFD0FD030018
:1079400088FD0300B8E3030080B582B000AF786023
:1079500039603B689B88DB007A681344063318461D
:10796000FFF70AFF00BF0837BD4680BD80B586B06F
:1079700000AF786039603B689B88FB823B685B891D
:10798000BB82FB8ADB007A68134406333B613B69A8
:107990001B88BA8A934228BF13469AB23B695A8021
:1079A0003B695B88172B38BF17239AB23B695A8013
:1079B0007B681B69002B12D03B695B79002B0ED0D2
:1079C00040F677233B81FB8A7B813B695B88BB81E7
:1079D0007B681B6907F108021146786898473B6984
:1079E00000225A713B6900221A7100BF1837BD4648
:1079F00080BD000090B589B000AF786039603B6809
:107A00009B887B833B68DB883B837B8BDB007A68CE
:107A1000134406337B613B8B172B38BF17233B8303
:107A20007B691B883A8B934228BF13469AB27B69C5
:107A30005A807B6900221A717B691A887B8B1146F8
:107A40001846FFF795FEF861FB69002B0FD0164A28
:107A5000164BD31ADB081B0443F00104F869F4F752
:107A6000BDFE03461A4612492046EFF7CCF87B6963
:107A70005B79002B13D17B681B69002B10D040F67B
:107A80007723BB817B8BFB817B695B883B827B6837
:107A90001B6907F10C0211467868984700E000BFA7
:107AA0002437BD4690BD00BFD0FD030088FD030014
:107AB000ECE30300B0B590B000AF786039603B688C
:107AC00007F110041D1D0FCD0FC40FCD0FC495E895
:107AD000070084E807003B8AFB87BA8AFB8FD1B294
:107AE0007A68DB0013440A465A737B681B69002BD3
:107AF00016D007F1080300221A609A804DF67A2307
:107B00003B81FB8F7B81FB8F7A68DB0013445B7BBF
:107B10003B737B681B6907F1080211467868984738
:107B200000BF4037BD46B0BD80B586B000AF7860BD
:107B300039603B6804337B617B691B88DB007A68B2
:107B4000134406333B617B699B88FB733B699B79DC
:107B5000FA7B934228BF1346BB737B691B88BA7BB1
:107B600092B211461846FFF723FE00BF1837BD46F4
:107B700080BD80B584B000AF786039607B68002B31
:107B800001D10E231DE07B683A681A617B681722D9
:107B90001A807B6817225A807B681B221A71002387
:107BA000FB600AE0FB68DB007A6813440633184682
:107BB000FFF7E2FDFB680133FB60FB68002BF1D0AF
:107BC000002318461037BD4680BD000090B587B031
:107BD00000AF786039603B687B617B689B887B8203
:107BE0007B8A002B65D17B681B88232B26D0232B17
:107BF00004DC102B09D0112B0CD024E03A2B0ED032
