:1000000000000120B5020000DD020000DF02000058
:10001000E1020000E3020000E50200000000000031
:10002000000000000000000000000000E7020000E7
:10003000E902000000000000EB020000ED020000F9
:10004000EF020000EF0200004D1C0000311E000016
:10005000AD1C0000EF020000EF020000EF02000004
:10006000EF020000EF020000EF020000EF020000CC
:10007000EF020000EF020000EF020000EF020000BC
:10008000EF020000EF020000EF020000EF020000AC
:10009000EF020000EF020000EF020000EF0200009C
:1000A000EF020000EF020000EF020000EF0200008C
:1000B000EF020000EF02000000000000000000005E
:1000C000EF020000EF020000EF020000EF0200006C
:1000D000EF020000EF020000EF020000000000004D
:1000E0000000000000000000000000000000000010
:1000F0000000000000000000000000000000000000
:1001000000000000000000000000000000000000EF
:1001100000000000000000000000000000000000DF
:1001200000000000000000000000000000000000CF
:1001300000000000000000000000000000000000BF
:1001400000000000000000000000000000000000AF
:10015000000000000000000000000000000000009F
:10016000000000000000000000000000000000008F
:10017000000000000000000000000000000000007F
:10018000000000000000000000000000000000006F
:10019000000000000000000000000000000000005F
:1001A000000000000000000000000000000000004F
:1001B000000000000000000000000000000000003F
:1001C000000000000000000000000000000000002F
:1001D000000000000000000000000000000000001F
:1001E000000000000000000000000000000000000F
:1001F00000000000000000000000000000000000FF
:1002000010B5054C237833B9044B13B10448AFF350
:1002100000800123237010BDF801002000000000C1
:100220001434000008B5034B1BB103490348AFF376
:10023000008008BD00000000FC0100201434000014
:10024000154B002B08BF134B9D46A3F5803A0021A8
:100250008B460F461348144A121A02F024FF0F4B24
:10026000002B00D098470E4B002B00D09847002061
:10027000002104000D000D48002802D00C48AFF307
:10028000008002F0C1FE2000290002F079FC02F09B
:10029000A7FE00BF000008000000012000000000D1
:1002A00000000000F8010020C80800200000000045
:1002B000000000000649074A074B9B1A03DD043B78
:1002C000C858D050FBDC02F0ABFCFFF7B9FF0000D0
:1002D0006C34000000000020F8010020FEE7FEE77B
:1002E000FEE7FEE7FEE7FEE7FEE7FEE7FEE7FEE7E6
:1002F000F0B595B0002415460F4608461E4601F09D
:10030000F3FA384623460895082205A91A9D09964E
:100310000D950A948DF82C400C9401F03FFB9DF84C
:1003200014308DF81140DDE9061003F00302012AB4
:10033000CDE9020127D0022A04D0384601F0D8FACC
:1003400015B0F0BDBDF81650C3F3C2038DF81030E0
:10035000AD090826082D2C4628BF0824334622461E
:100360000EA9384601F01AFB2D1B214608AB02AA44
:100370000EA8264400F0AAFC002DEBD1384601F06F
:10038000B7FA15B0F0BDBDF81460059DC6F383162D
:10039000C3F3C204B2000EA9384608238DF81040FA
:1003A000C5F3952501F0FAFA08AB324628460EA9A6
:1003B000009302AB00F0E4FB384601F099FA15B067
:1003C000F0BD00BF014B01221A7070475802002097
:1003D000704700BF00B583B0044B0093044A40232C
:1003E000FFF786FF03B05DF804FB00BFF5030000D4
:1003F0001802002038B50E480E4D03780E4CEB5C09
:100400000025D2B2257053B90C3002F00FF958B95B
:100410000A4B1B7813B12378002BFCD038BD043075
:1004200002F03CFB0028F3D000F000FDF0E700BF35
:1004300000000020C4080020580200201402002000
:1004400070B51348134A0378D35C88B0DBB90C301D
:1004500002F086F8104D0FCD6C460FC495E80F00E2
:1004600008AD062645F8206D84E80F0029460022D5
:10047000074801F0ABFB08B100F0D8FC074B0022A5
:100480001A7008B070BD043002F0A0FAE2E700BFB5
:1004900000000020C4080020FC30000014020020EE
:1004A00070B50D4D0FCD88B06C460FC495E80F00A8
:1004B00008AD062645F8206D84E80F002946074A56
:1004C000074801F083FB08B100F0B0FC054B0122A6
:1004D0001A7008B070BD00BFFC300000C5030000FA
:1004E000000000201402002008B5FFF7D9FF042106
:1004F000034800F0FBFA034B01225A7108BD00BF0C
:100500004034000014000020F0B5324C85B004F5F2
:10051000836000F007FD04F2144000F003FDD4E90D
:10052000013703EA0702D01C04EB800114F8200015
:1005300010F0040044D003F1020C0E7806F003061C
:10054000012E654635D0022E02F1030621D004EBC0
:1005500086010028F1D104EB82020133D2680192B6
:100560003B4004EB830302F00302012ADE6829D03A
:10057000022A23D1BDF806309B090333360C05EB64
:100580009305154800F0DAFC00B16560304605B00F
:10059000F0BD4B880CEB931307EA0302D11C03F167
:1005A000020C14F82100654604EB810100F0040000
:1005B000CFE70B88C3F383136344EDE70026E0E73E
:1005C0009D1CC8E7BDF80430C3F38313360C1D44EB
:1005D000D7E700BF2C030020400700200B4B0C483E
:1005E00010B50022FF21C3F818249960C3E9002246
:1005F000C3F8142483F8202401F032F9044610B91A
:10060000044801F0FFF9204610BD00BF2C03002074
:10061000503400003C31000021B9124B03EBC00004
:1006200000687047104A0F49521AD20815D030B4EA
:100630000E4D2B88834212D0002303E035F823406F
:10064000844205D001339A42F8D1002030BC704773
:1006500001EBC300006830BC704710467047084685
:10066000F8E700BF1834000040340000F801002013
:10067000094B013903EBC00003290BD8DFE801F077
:1006800002080604022070474079704700797047DD
:100690000420704700207047183400002DE9F8430B
:1006A000DFF8D890074600208846D9F8084000F0C7
:1006B00005FCD9E90132D9F80060134401339B1BD2
:1006C000012B56D809F21C450121284600F012FCE6
:1006D000FFF71AFF0146284600F00CFCD9E9013269
:1006E000D9F80010134401335B1A012BECD90A40EE
:1006F000033205230231002049F82230C9F80010E6
:1007000000F0E4FB00211C4800F0EAFB80F310003D
:10071000731C234009EB830300043440033440EA94
:100720001740D86019F8243067F3C50309F824305E
:1007300039F824306FF3891329F8243059F824202C
:1007400068F39F221346012161F301036FF38203D3
:1007500049F8242009F8243099F820341BB906E020
:1007600000F00EF818B1D9E900329A42F8D1BDE88C
:10077000F8833146BBE700BF480700202C03002068
:100780002DE9F047914C002384B0C4F81834BFF32E
:100790004F8FD4E9015605EA0602D31C04EB83010E
:1007A00014F82330580719D527680B7803F0030392
:1007B000012B43D0022B03D14B88023505EB931557
:1007C00006EA0502D4F81804D31C04EB830128B907
:1007D000AF4239D914F823305B07E6D404EB820228
:1007E0006B1CD2680192334004EB830302F00302D6
:1007F000DB680293022A05F1020700F08980012AD2
:1008000026D0D4F810543DB12B6828469B689847F1
:10081000EB681D68002DF7D16D486E4B6E49C01A0C
:10082000C008000440F00200FFF738FFD4E90030B0
:10083000C01A18BF012004B0BDE8F0870B8802354C
:10084000C3F383131D44BBE7676004B0BDE8F087C2
:10085000BDF804206148C2F38313062B28BF06238A
:1008600063F3891202339900ADF8042000F0FAFF17
:1008700080460028C5D001F037F80023082201A9DE
:10088000404601F057F8BDF8043013F4707F00F0D3
:100890009B806FF0010AAAEB050A082506EA07010A
:1008A00003312B46042204EB8101404601F042F85B
:1008B000BDF8043007F101090AEB0902C3F3831301
:1008C00093424F4605F10405E8D8D4F81834002BBC
:1008D00064D1D4F8105465B1EB685A792846414682
:1008E000002A57D02B681B689847EB681D68002DBD
:1008F000F2D1404600F0FCFF002000F0DFFAD4F80F
:1009000018340BB9C4F80490002000F0DFFA8DE72A
:10091000BDF8063031484FEA93194D46502D28BF97
:10092000502565F38F1305F10801ADF8063000F08E
:1009300099FF804600283FF464AF26EA070A0AF1CF
:10094000010A00F0D1FF4FEA8A0A0023082201A918
:10095000404600F0EFFF55452BD9EBB2BAF1000F3E
:1009600020D006EA0701A3EB0A03033104EB81015F
:10097000DDB252460823404600F0DCFF2A460AF169
:1009800008031749404600F0D5FF09F1030907EBBA
:1009900099099AE71D68002D9ED1AAE7404600F00C
:1009A000A7FF43E72A4608230D49404600F0C2FF4F
:1009B000EBE706EA0701033104EB81012A4608232D
:1009C000404600F0B7FFE0E7B9467EE72C03002081
:1009D0003834000018340000483100005034000062
:1009E000380300202DE9F047DFF8E4A00746002097
:1009F00091468846DAF8084000F060FADAE90132F8
:100A0000DAF80060134401339B1B022B5CD80AF216
:100A10001C450121284600F06DFAFFF775FD0146DF
:100A2000284600F067FADAE90132DAF800101344D8
:100A300001335B1A022BECD90A4003320331452300
:100A400000204AF82230CAF8001000F03FFAB31C28
:100A500023400AEB830300211C48C3F80C9000F0EC
:100A60003FFA80F31000731C23400AEB8303000459
:100A70003440033440EA1740D8601AF8243067F352
:100A8000C5030AF824303AF82430012161F38913B0
:100A90002AF824305AF8242068F39F22134661F381
:100AA00001036FF382034AF824200AF824309AF8ED
:100AB00020341BB906E0FFF763FE18B1DAE9003213
:100AC0009A42F8D1BDE8F0873146B5E748070020E3
:100AD0002C030020044BD3E900239A4201D0FFF7F6
:100AE0004FBE0020704700BF2C03002030B4184DCB
:100AF000D5F8104400215CB1E3681A798A4204D128
:100B000016E0DB681A798A4212D01B68002BF8D1F4
:100B1000C3681971D5F8103493B1DA68C3681268E4
:100B20001A60D5F81034DB68186030BC084670478E
:100B300001310A29DFD14FF0FF31084630BC704740
:100B4000C5F81004C2681360084630BC704700BF87
:100B50002C03002038B5094BD3F81044012583F845
:100B600020544CB1E3685D71236820465B68984768
:100B7000E3681C68002CF5D138BD00BF2C030020B1
:100B80002DE9F04784B01D460C9C002394F80C809E
:100B90002373EB8881460E461746002B40D1297AF5
:100BA00005290ED06B7AA88873BB404B53F821A05F
:100BB0000021FFF731FD524603463D49204600F033
:100BC00029FA062F09D8DFE807F0046A4249525D86
:100BD00033004946204600F01DFA2B7A052B05D03C
:100BE0006B7A5BB93349204600F014FA204600F0D6
:100BF00005FA84F80C8004B0BDE8F0872E4A2F492E
:100C0000204600F007FAEDE7FFF732FD2C4B2B49A9
:100C100053F82020204600F0FDF9297AA888C4E77F
:100C2000254A00922749284A204600F0F3F9B6E702
:100C3000D6E90410D6E900230390D6E90207029111
:100C4000CDE900074946204600F0E4F9C5E74946EA
:100C5000D6E90023204600F0DDF9BEE7B168D6E909
:100C6000002320460091494600F0D4F9B5E7D6E9C3
:100C70000201D6E90023019100904946204600F088
:100C8000C9F9AAE7D6E90371B068D6E90023029151
:100C9000CDE900074946204600F0BCF99DE73268DF
:100CA0004946204600F0B6F997E700BFD43100006E
:100CB000C4310000D0310000B8310000C031000064
:100CC00060310000A031000098310000082900D9EF
:100CD00070472DE9F04F1D46904600232A7B2B7369
:100CE00085B0B8F80630039207460E46002B7BD13C
:100CF00098F80810052911D098F80930B8F80400C0
:100D0000002B63D13C4B53F821400021FFF784FCBA
:100D1000224603463949284600F07CF9DFF8FCB04A
:100D2000DFF8FC90002405E03A5D013400F072F930
:100D3000082C09D0A64249462846F5D85946013420
:100D400000F068F9082CF5D12D49DFF8D8B0DFF8AC
:100D5000D890284600F05EF900240CE017F804A0B3
:100D6000BAF17E0F23D92E2249462846013400F0DD
:100D700051F9082C08D0A642F0D85946284601342B
:100D800000F048F9082CF6D198F80830052B02D06D
:100D900098F80930A3B91B49284600F03BF92846CA
:100DA00000F02CF9039B2B7305B0BDE8F08F02F027
:100DB0004FF950445246437813F0970FD3D0D3E7FE
:100DC000114A1249284600F025F9E4E7FFF750FCE4
:100DD0000F4B0E4953F82020284600F01BF998F8D5
:100DE0000810B8F804008DE7074A009209490A4A3A
:100DF000284600F00FF97BE7D4310000C431000031
:100E000090310000D0310000B8310000C031000046
:100E100060310000A0310000983100008C310000EA
:100E200084310000CC3100009431000000B585B061
:100E300000230390194601AA44F20100CDE90133D1
:100E400000F004F805B05DF804FB00BF10B572B601
:100E5000FFF780FEFFF73EFE0028FBD1104B114C40
:100E60001149E41AE408240444F00100FFF716FCD9
:100E70000E4B1B68DB0700D500BE44F002000C4996
:100E8000FFF70CFCBFF34F8F0A490B4BCA6802F403
:100E9000E0621343CB60BFF34F8F00BFFDE700BF9D
:100EA000183400003834000040320000F0ED00E05B
:100EB0004C32000000ED00E00400FA0572B6024A70
:100EC0001368013313607047E8070020034A136872
:100ED000013B136003B962B6704700BFE80700200A
:100EE00050E8002F0B4640E8003C9CF0000FF7D183
:100EF0001046704750E8003F03EB010240E8002C29
:100F00009CF0000FF6D11046704700BF50E8003F3C
:100F1000A3EB010240E8002C9CF0000FF6D1104634
:100F2000704700BF012350E8002F42EA030C40E85D
:100F300000C191F0000FF6D160467047002350E8E1
:100F400000CF0CEA030240E8002191F0000FF6D137
:100F500060467047B8B130B4D0E90112521A046843
:100F6000D2B2531E2160DBB242B101680A685C1E36
:100F7000551C0D601370E3B2FF2BF6D103680020FF
:100F8000187130BC70470E20704700BF38B504465A
:100F90000020FFF793FFD4E900311A688A4215D97F
:100FA000511E19602168A3680868258A12F8012C6F
:100FB000E4681B1A0879DBB2984205FB024400D2B0
:100FC0000B710020FFF782FF204638BD0024F8E7B0
:100FD00038B5054600200C46FFF770FF2A681368F5
:100FE000591C1160E9682A8A641AB4FBF2F41C7077
:100FF0000020BDE83840FFF769BF00BF826842B1FA
:1010000010B5044643690168006998470023A3604E
:1010100010BD70470EB400B582B0039929B102AA81
:1010200004AB42F8043D00F0A9F802B05DF804EB0F
:1010300003B070472DE9F04F924683B051450F46FB
:1010400005461E46DDE90CB2C0F092800B464FF01B
:101050000108B3FBFAF39A4508F10108F9D9B04544
:1010600038BFB04612F00109A96802D1BBF1000FE8
:1010700054D1012402E0013E0AFB04F4012EFAD807
:10108000B7FBF4F08245F7D93B4E02E0A968B7FB05
:10109000F4F0335C2A680A2B04FB107702EB010E94
:1010A00001F1010029D0A8608EF80030D5E90131A6
:1010B000994202D32846FFF7A1FFB4FBFAF4002CB3
:1010C000E4D1B9F1000F15D0BBF1000F12D0C34528
:1010D00010D92024AB682A68591CA960D454D5E9DA
:1010E00001329A420BF1FF3B14D2BBF1000F01D049
:1010F000C345EFD103B0BDE8F08FA8604FF00D00FD
:101100005054D5E9011088421DD2296801EB000E28
:101110000130C8E72846FFF771FFE6E7930722D4BE
:101120002024C345A5D92B684A1CAA605C54D5E984
:10113000013199420BF1FF3B10D2BBF1000F98D067
:10114000C345F0D195E728460193FFF757FFAA68FA
:101150002968019B501C01EB020EA4E72846FFF70B
:101160004DFFA968E9E7002E0CBF30242024D8E702
:101170004FF0010873E700BF5C320000002900F067
:10118000B9822DE9F04F054687B091460C460E789E
:10119000DFF8C8A64FF00D0B13E0AB6828680A2EE5
:1011A00003F1010200EB030100F04B82AA600E7014
:1011B000D5E901329A4280F01B812678002E00F09A
:1011C0001E810134002E00F01A81252EE5D1234620
:1011D000002713F8012B2D2A00F0E380302A00F0BD
:1011E000E4802B2A00F0D4802A2A00F00D81A2F19D
:1011F0003006F1B2092903D97DE2A1F13006034698
:10120000184606EB860110F8012BA2F13004092CD8
:1012100002EB4101F1D92E2A00F002814FF00008C3
:10122000013301E013F8012B02F0FB0168291C4691
:10123000F8D0253A532AC0D801A353F822F000BFB2
:101240002B160000BB110000BB110000BB110000F9
:10125000BB110000BB110000BB110000BB1100005E
:10126000BB110000BB110000BB110000BB1100004E
:10127000BB110000BB110000BB110000BB1100003E
:10128000BB110000BB110000BB110000BB1100002E
:10129000BB110000BB110000BB110000BB1100001E
:1012A000BB110000BB110000BB110000BB1100000E
:1012B000BB110000BB110000BB110000BB110000FE
:1012C000BB110000BB110000BB110000BB110000EE
:1012D000BB110000BB110000BB110000BB110000DE
:1012E000BB110000BB110000BB110000BB110000CE
:1012F000BB110000BB110000BB110000BB110000BE
:10130000BB110000BB110000BB1100000F16000054
:10131000BB110000BB110000BB110000BB1100009D
:10132000BB110000BB110000BB110000BB1100008D
:10133000BB110000BB110000B313000095150000A5
:10134000BB110000BB110000BB110000BB1100006D
:1013500095150000BB110000BB110000BB1100007F
:10136000BB110000BB110000BB110000FD14000008
:10137000BB110000BB11000075140000BB11000080
:1013800059140000BB110000BB1100000F16000033
:1013900047F004071C46234613F8012B2D2A7FF43F
:1013A0001DAF47F001071C46F5E747F002071C4652
:1013B000F1E7D9F800301A1DC9F800201E78AB6893
:1013C0000A2E0CD12A68591CA96002F803B0D5E98D
:1013D0000123934203D32846FFF710FEAB682A6827
:1013E000591CA960D654D5E901329A42FFF4E5AE02
:1013F0002846FFF703FE2678002E7FF4E2AE2B7B13
:1014000023BB07B0BDE8F08FD9F80020111DC9F843
:101410000010166862782E2A04F102007FF4FEAEF6
:101420005A78A2F13003092B00F2BD814FF0000879
:1014300008EB880802EB480810F8012FA2F13003EE
:10144000092BA8F13008F3D90346E9E6284607B08E
:10145000BDE8F04FFFF7D2BDD9F800301A1DC9F82A
:10146000002019680197434600960A222846FFF794
:10147000E1FDA2E6D9F800301A1DC9F80020D3F822
:101480000080FB0700F1E880B8F1000F00F0A181B7
:10149000404601F010FE0746BE4215D9A6B12021F4
:1014A00000E08EB1AA682B68501CA8609954D5E959
:1014B00001329A4206F1FF3604D328460391FFF722
:1014C0009DFD0399BE42ECD108F1FF3818F8016F79
:1014D000002E3FF472AEAB6828680A2E03F10102B9
:1014E00000EB030100F09081AA600E70D5E9013293
:1014F0009A42EBD32846FFF781FDE7E7D9F80020B1
:10150000131DC9F80030AB6829681768581C3022D1
:10151000A860CA54D5E90123934280F0E6802A6886
:10152000581C7821A860D154D5E90123934280F05A
:10153000D7800F2F03D93A4612090F2AFCD84FF053
:1015400080560DE0AA6081F80080D5E901329A4208
:1015500002D32846FFF752FD36093FF42EAEAB68A2
:10156000B7FBF6F21AF802802868B8F10A0F06FBFA
:10157000127700EB030103F10102E3D1AA6000F846
:1015800003B0D5E901329A4280F049812B6899185D
:101590000132D7E7D9F800301A1DC9F800201968C0
:1015A00081EAE173A3EBE173092B40F30E81AA48B2
:1015B0000122A0FB03C3DB08092B02F10102F8DCC6
:1015C0004245134638BF4346039307F00203002EFB
:1015D00040F09580002B00F0B780B8F1000F00F0CC
:1015E000F680F80740F1B0800029C0F2FF807A074A
:1015F00000F1C88007F00303022B00F0A780CDE9BB
:10160000006743460A222846FFF714FDD5E5D9F8BE
:1016100000301A1DC9F8002019680197434600964A
:1016200010222846FFF706FDC7E5AB682A68581C5C
:101630002521A860D154D5E901329A42FFF4BDAD0D
:10164000D6E6AA6000F803B0D5E901329A423FD24B
:10165000296811440132A9E54146A1EB080311F8BC
:10166000017BD7B1AB68D5F800C00A2F03F10102A6
:101670000CEB030000F0AF80AA600770D5E90132DF
:101680009A42EAD328460391FFF7B8FC0399A1EBED
:10169000080311F8017B002FE4D19E427FF68DAD47
:1016A000202702E0002E3FF488ADA9682A68481C74
:1016B000A8605754D5E90121914206F1FF3604D3C1
:1016C00028460393FFF79AFC039BB342EAD174E5E3
:1016D0002846FFF793FCAB6829685A1C194465E556
:1016E0002846FFF78BFCAB6823E72846FFF786FC0C
:1016F000AB6814E770471846002623468BE500299F
:1017000020DB7A071ED41BB1B8F1000F3FF46CAF99
:10171000F8073FF569AFBEB1039BB342BFF464AFB6
:101720002023AA68501CA86028688354D5E90102C8
:10173000824206F1FF3640D236B1039AB242F0D16E
:10174000164651E7013EDEE700264DE7B8F1000FEF
:101750007FF455AF002E6AD0039BB342BFF44FAF66
:101760003023AA68501CA86028688354D5E9010278
:10177000824206F1FF3618D2002E58D0039AB242A8
:10178000EFD13CE7AA68531CAB602B682B20985420
:10179000D5E901329A42FFF42DAF28460491FFF7B4
:1017A0002DFC049926E7034638E52846CDE90413C5
:1017B000FFF724FCDDE90413DEE72846CDE9041336
:1017C000FFF71CFCDDE90413B6E70122F8E6464604
:1017D0000AE7474660E6AA600CF803B0D5E9013293
:1017E0009A4226D22B689818013245E7AA68531C02
:1017F000AB602B682D209854D5E901329A42C1F193
:101800000001FFF4F7AEC8E7AA6000F803B0D5E91D
:1018100001329A4217D229681144013264E62846FF
:10182000FFF7ECFBA9682B684A1C19448AE60026DE
:10183000E5E628460391FFF7E1FBA8682B680399CA
:10184000421C184418E72846FFF7D8FBAB68296804
:101850005A1C194448E600BFCDCCCCCC5C32000009
:10186000FFF778BB2DE9F041058ACE1C043D2E44DC
:101870000746B6FBF5F6FFF789FB78B3F6B24FF4EF
:101880008073013E0446C5800760838027D0804670
:10189000002509E06379AE4203F101036371C8F8E2
:1018A0000000076080461AD03846FFF76FFB01350D
:1018B0000028EFD16679721E14D02346013082428F
:1018C0001B68FBD11F684EB10025236821460135F6
:1018D00038461C46FFF77CFBAE42F6D1002420467A
:1018E000BDE8F0812768EFE704300121FFF702BB74
:1018F000F8B5012104460430FFF708FBC0B200B17F
:10190000F8BD6679721E12D02346013082421B68F0
:10191000FBD11F68002EF3D0002523682146013536
:1019200038461C46FFF754FBAE42F6D1F8BD276897
:10193000F2E700BF2DE9F843C788467907FB06F6B2
:10194000043E02EB030C0446664503F10400154611
:101950008846B0FBF7F238BFF51A07FB120012B148
:10196000013A2468FCD13E1AAE4228BF2E469DB1F2
:101970004FF000090430AD1B2044324608EB09014A
:1019800001F086FBAF42B14424683E464FF00000B0
:1019900028BF2E46002DEDD1BDE8F8832DE9F84390
:1019A000C7884679154607FB06F6043E05EB030C8F
:1019B0001A1D664504468846B2FBF7F038BFF51A93
:1019C00007FB102110B101382468FCD17E1AAE4209
:1019D00028BF2E469DB14FF0000904312144AD1BB4
:1019E000324608EB090001F053FBAF42B1442468D2
:1019F0003E464FF0000128BF2E46002DEDD1BDE838
:101A0000F88300BF82680023936082681361826854
:101A100053618268D3608268536082681360704744
:101A200030B585B0057804798DF800508DF8044004
:101A3000457984688DF805508DF80640C568084AD8
:101A4000084B8DF80750D0E9044053F8213052F884
:101A50002110CDE902406846984705B030BD00BF6F
:101A6000EC070020F40700202DE9F04F824690F8A3
:101A70000090384D384845F829300C46497B40F8ED
:101A8000292081B0934669B9344ABBF1000F4B4617
:101A900021460AF1040008BF002201B0BDE8F04F62
:101AA00000F082BA23682E4A4FF0A04503F5E07398
:101AB00040F20C6145F82310636803F5E0730127D9
:101AC00045F82310236807FA03F3C5F8083563685F
:101AD00007FA03F3C5F80835236803F5E07340F20D
:101AE0000D6145F82310636803F5E07342EA0708C7
:101AF00045F823104FF48070C04700266268D5F87F
:101B00001035D340DB074FF4807020D4236807FAE8
:101B100003F3C5F80C35C047236807FA03F3013611
:101B2000C5F808354FF48070C047092EE6D16268C9
:101B300001254FF0A04605FA02F2C6F80C254FF435
:101B40008070C04763689D40C6F808559CE7002E2A
:101B5000EED199E7EC070020F4070020211A0000DD
:101B60007032000030B585B0047845688DF80040CB
:101B7000D0E90240064A074B039053F82130019503
:101B80008DF8084052F821106846984705B030BDDE
:101B9000FC0700200008002030B585B004784568B7
:101BA0008DF80040D0E90240064A074B039053F8F5
:101BB000213001958DF8084052F821106846984769
:101BC00005B030BDFC07002000080020F0B51A4B1E
:101BD00006781A4D0C6991F81DE045F82640074635
:101BE000174803F806E040F826200C4694460FCC30
:101BF00089B06D460FC594E80F0085E80F00049684
:101C0000BEF1000F0BD0BCF1000F0E4A694607F180
:101C1000040008BF002200F0FDFD09B0F0BDBCF1DA
:101C2000000F094A694607F10C0008BF002200F0C6
:101C3000CDFB09B0F0BD00BFC4080020FC070020A8
:101C400000080020651B0000991B0000014B1B6869
:101C5000184700BF0408002038B50C4B984201D04B
:101C6000002038BD00200D46FFF728F9084B1C79ED
:101C700024B10020FFF72AF9112038BD01222046A7
:101C80001D601A71FFF722F9204638BD0020004080
:101C900004080020034B984203D1034B00221A6032
:101CA0001A7170470020004004080020F0B54FF082
:101CB00040238DB0D3F82421BAB10022C3F82421E7
:101CC000D3F824210592059AD3F804216AB9564A1B
:101CD0000221D06BC3F80803D163D26BC3F804238D
:101CE00001221A625A610DB0F0BD4FF040244E4DF2
:101CF000D4F80431002B30D00023C4F8043105F1AE
:101D000040070FCF07AED4F804C13F68CDF810C02C
:101D10000FC695F86230049A376095F86420002B5E
:101D200036D095F84030012B75D0D4F84C15089179
:101D3000022B73D1D4F83C3509934FF04023002196
:101D4000C3F86011D3F8600102900298C3F85C11E7
:101D5000D3F85C310393039B27E0C4F84831D4F8EF
:101D6000482195F840300192019A002B3AD105F1B3
:101D700040070FCF07AE0FC695F864203B6833606D
:101D8000E2B92A4BC4F80022EA63C4F8083315E02C
:101D9000C4F86031D4F8601102910299C4F85C3142
:101DA000D4F85C310393039B42B94FF040230021E8
:101DB0001E48C3F80012E963C3F808034FF040213E
:101DC000D1F8C434C1F8C43499071DD501238DF866
:101DD00018300AB985F86320D5E90D3106A898476F
:101DE0000DB0F0BD4FF4007140F202220F4BC4F869
:101DF0000012EA63C4F80833EB6BC4F80433012320
:101E0000A36023620DB0F0BD13F0040318BF0223DA
:101E10008DF81830DDE7D4F83C3508934FF04023B7
:101E2000D3F84C3588E700BF0C08002002029C0163
:101E3000F0B55A4BD3F824218DB0BAB10022C3F8C3
:101E40002421D3F824210592059AD3F804216AB9F4
:101E5000534A02219068C3F8080391609268C3F85E
:101E6000042301221A625A610DB0F0BD4B4C4C4D57
:101E7000D4F80431002B2ED00023C4F8043105F12E
:101E80000C070FCF07AED4F804C13F68CDF810C0DF
:101E90000FC695F82E30049A376095F83020002B45
:101EA00033D02B7B012B71D0D4F84C150891022B29
:101EB0006FD1D4F83C15394B09910021C3F860115A
:101EC000D3F8600102900298C3F85C11D3F85C313A
:101ED0000393039B26E0C4F84831D4F848212B7BB8
:101EE0000192019A002B38D105F10C070FCF07AEF4
:101EF0000FC695F830203B683360DAB9294BC4F837
:101F00000022AA60C4F8083314E0C4F86031D4F8A1
:101F1000601102910299C4F85C31D4F85C310393EA
:101F2000039B3AB91D4B1F480021C3F80012A9605A
:101F3000C3F808031949D1F8C434C1F8C434990767
:101F40001DD501238DF818300AB985F82F20D5E961
:101F5000003106A898470DB0F0BD4FF4007140F273
:101F60000222104BC4F80012AA60C4F80833AB6810
:101F7000C4F804330123A36023620DB0F0BD13F055
:101F8000040318BF02238DF81830DDE7D4F83C3580
:101F90000893024BD3F84C158DE700BF003000408A
:101FA0000C08002002029C012DE9F84F0679374FFA
:101FB000342404FB06F807EB080999F82D50002D8E
:101FC00058D11D46324B0C46834653F82610006804
:101FD0009246FFF741FE00284FD147F808A0C9F804
:101FE0000800C9F8045089F82F0089F83000637B95
:101FF00089F8323023684FF0A04203F5E07340F2D5
:102000000C6142F82310636803F5E07342F8231073
:10201000D4E90021DBF80030C3F80825C3F80C151B
:10202000A268C3F82425BAF1000F1BD0DBF800101A
:10203000237B090B4AB25B01002ADBB220DB02F1F1
:10204000604202F5614282F80033DBF80030114C47
:102050001B0B5AB2520903F01F03012101FA03F3CB
:1020600044F82230342303FB0673012283F82D2029
:10207000BDE8F88F0820BDE8F88F1120BDE8F88F83
:10208000054A01F00F010A441376DEE70C08002030
:102090007C32000000E100E0FCEC00E0037906493E
:1020A0000268342000FB03130220062183F82D0070
:1020B000C2F80015704700BF0C0800202DE9F04F52
:1020C00002F060448BB09646B4F1005F4FF000021E
:1020D000CDF81A20CDF81620CDF81E20CDF82220FC
:1020E000ADF8262057D10279DFF820B104680192BB
:1020F0004FF0340808FB02F89A460BEB080C424BF1
:10210000C4F808339CF82F3003F0FF05002B46D1AC
:102110004FF001098DF81510CDF818A0CDF820E08A
:102120008DF8149005AF0E460FCF8CF82F90C4F8A1
:102130008865C4F80451D4F8046102960CF10C06C9
:102140000FC6029BC4F82451D4F824310393396894
:1021500003988CF8305040F202234FF48052C4F8B8
:1021600050553160C4F84055C4F834E5C4F838A57A
:10217000C4F80022CCF80830C4F82090C4F80090CD
:102180005BF808309BB1DCF80830C4F8043328460B
:102190000BB0BDE8F08F10200BB0BDE8F08FDCF87D
:1021A0000830C4F8043311200BB0BDE8F08F4A4664
:1021B00002E0D4F82411E1B9D4F80431002BF8D0AE
:1021C000019A342303FB02BBD4F8C434C4F8C434EA
:1021D00000228BF82F20ABB113F0020F48F2012040
:1021E00048F2022208BF032013F0040F18BF104664
:1021F000CEE7C4F82431D4F824310493049B22623E
:102200006261D9E71846C3E702029C010C0800206E
:1022100030B56C4AD2F8043399058BB066D5D2F844
:102220002431002B62D00023C2F82431D2F82431AB
:1022300003934FF40171644B0398C2F8081393F8A9
:10224000291009B9012151605E4902228DF8182038
:10225000D1F88024C1F880249869D96809920022B5
:10226000CDE90710C3E90622D3E9001406A8A04768
:10227000544AD2F81C31BBB1534B186A5969884291
:1022800069D350480022C0F81C21D0F81C010190ED
:10229000019849B198688DF8182008915A61079003
:1022A000D3E9001206A89047464AD2F84431DBB180
:1022B0000021454BC2F84411D2F8440193F829108B
:1022C0000090009809B1012111609A6962B1002261
:1022D000586AD9689A610122CDE907108DF8182053
:1022E00006A8D3E9001290470BB030BD354AD2F8AA
:1022F00004335B07BCD5D2F80831002BB8D0324B81
:10230000996900293CD00021C2F80811D2F80811BF
:1023100004910499D868596AD2F8182542545A6A27
:10232000996901325A625A6A8A42A1D1DA691968F6
:10233000002A2ED0D8685D6A1C699A610790002235
:102340000120DC60DA615A628DF8180008955B683C
:1023500006A898478CE793F8280000F0FF040028AF
:102360008FD1C2F81C41D2F81C11029102999C68CD
:10237000186A196A205C01311962C2F81C0593E7DA
:10238000C2F80811D2F8080105900598D2F818256E
:10239000C9E793F8292012B90A4A01205060094A76
:1023A0004FF40170C2F80803586ADA6808900024F4
:1023B000012007928DF818005A689C6106A8904782
:1023C00056E700BF00200040740800202DE9F041CE
:1023D0005E4F06792C2505FB067582B095F82A30EC
:1023E000002B40F087800D4604465949006890460E
:1023F000FFF732FC002879D12B68591C0CD0012240
:102400004FF0A04102FA03F3C1F808352B6803F539
:10241000E073032241F823206B685A1C06D003F5B1
:10242000E0734FF0A042002142F823102368AA690C
:10243000C3F82425297D6B7D22680B43C2F86C35D7
:10244000D5E900122368C3F81425C3F80C152B7DB9
:10245000012B53D02C2303FB06F3FA18C2F8048097
:102460002A69FA50B8F1000F2DD022682B7F394D20
:102470000021C2F81C11D2F81C2100922268DDF85C
:1024800000C0C2F84411D2F84411226801910199A8
:10249000C2F804532168090B4AB25B01002ADBB27F
:1024A0004EDB02F1604202F5614282F8003323689C
:1024B000294D1B0B5AB2520903F01F03012101FAE7
:1024C00003F345F822302C23246803FB0673002213
:1024D00004250121C4F8005583F82A10C3E9062217
:1024E00083F829205A6102B0BDE8F081112002B0C2
:1024F000BDE8F081082002B0BDE8F081AB68591C4E
:1025000006D003F5E0734FF0A042002142F82310FB
:10251000EB685A1C0DD001224FF0A04102FA03F3E0
:10252000C1F80835EB6803F5E073032241F8232076
:10253000EB682268A968C2F80835C2F8101589E767
:10254000064A01F00F010A441376B0E77408002030
:10255000112200008000020000E100E0FCEC00E03D
:10256000F8B52F4D047902682C2303FB0453002196
:102570005B68C2F8001583B103682A4AC3F80823D0
:102580000368294E1B0B5AB25209203203F01F0375
:10259000012101FA03F346F8223003684FF0FF32BD
:1025A000D3F80CC5D3F81475D3F80815D3F8106513
:1025B000C3F81425C3F80C2503689445C3F808250F
:1025C000C3F8102506D00CF5E07C4FF0A0430222A2
:1025D00043F82C207B1C06D007F5E0774FF0A04392
:1025E000022243F82720721C06D006F5E0764FF051
:1025F000A043022243F826204B1C06D001F5E071CF
:102600004FF0A043022243F821200068FFF742FB6D
:102610002C2303FB0454002384F82A306360F8BDA4
:10262000740800208402020000E100E0F0B5314EA1
:1026300005792C2303FB056385B05C69002C53D11D
:102640001C62996083F828405A610268C2F81C41F4
:10265000D2F81C11026802910121029F9160026868
:10266000D3F808C0C2F81C41D2F81C11019101999D
:10267000D3F820E0196A5F681CF80EE00131196296
:10268000C2F81CE517B1204605B0F0BD1A6A5C69B6
:102690000168944203D819E093F828203ABBD1F896
:1026A0001C21002AF8D0C1F81C71D1F81C2103921A
:1026B000039AD3F820E01A6A1CF80EE001321A627D
:1026C000C1F81CE51A6AA242E9D30168D1F81C31AD
:1026D000002BFBD00123CB6000202C2303FB0565DE
:1026E00000236B6105B0F0BD112005B0F0BD0F20D7
:1026F000F3E700BF74080020F0B5444BD3F8242161
:1027000089B0002A52D00021C3F82411D3F8242123
:10271000029202228DF81020029AD3F880043C4ADB
:10272000C3F880040790D3F83C05D3680690C2E94B
:10273000061105931168536804A89847334BD3F8E2
:102740004421BAB10021324AC3F84411D3F84441BC
:1027500090690194019C68B1D3F83C35D068069328
:102760000123C2E9061105908DF8103004A8D2E9C2
:1027700000139847254BD3F82021AAB10021C3F8B4
:102780002011D3F82001224A00900098506958B1D6
:10279000D3F84C05936806908DF81010516105939D
:1027A00004A8D2E90013984709B0F0BDD3F810117E
:1027B0000029C3D0C3F81021D3F810111448039195
:1027C00003998169D3F83C458C42B7D1C569C76884
:1027D000D0E900168DB1D3F800C285612CF0200538
:1027E000C261C3F800520369C3600122CDE90574D8
:1027F0008DF8102004A8B047A0E701238561CDE93A
:1028000005748DF8103004A8B04797E70020004009
:10281000A00800202DE9F0430779674E4FEAC7086A
:1028200008EB070306EB830385B093F82030002BF9
:1028300040F096800D460446604900689146FFF7D7
:102840000BFA002840F088802B68591C0CD001221C
:102850004FF0A04102FA03F3C1F808352B6803F5E5
:10286000E073032241F823206B685A1C06D003F55D
:10287000E0734FF0A042002142F823102368AA69B8
:10288000C3F82425297D6A7D23680A43C3F86C2593
:10289000D5E900312268C2F80C35C2F814152B7D39
:1028A000012B61D008EB07029200B318C3F8049023
:1028B0002B69B350B9F1000F3DD021682B7F404DFB
:1028C0000022C1F81021D1F8101100912168DDF823
:1028D00000C0C1F82021D1F8201101912168DDF854
:1028E00004C0C1F82421D1F8241102912168DDF837
:1028F00008C0C1F84421D1F844112268039103991A
:10290000C2F804532168090B4AB25B01002ADBB20A
:102910004CDB02F1604202F5614282F80033236829
:10292000284D1B0B5AB2520903F01F03012101FA73
:1029300003F345F822304744226806EB870600235C
:1029400001240821C2F8001586F82040C6E90633A4
:10295000736105B0BDE8F083112005B0BDE8F083D8
:10296000082005B0BDE8F083AB68591C06D003F51C
:10297000E0734FF0A042002142F82310EB685A1C8C
:102980000DD001224FF0A04102FA03F3C1F808353F
:10299000EB6803F5E073032241F82320EB6822681B
:1029A000A968C2F80835C2F810157BE7064A01F09D
:1029B0000F010A441376B2E7A0080020F9260000B0
:1029C0001003020000E100E0FCEC00E0F8B506793D
:1029D0002F4C0268F500AB1904EB830300215B6800
:1029E000C2F8001583B103682A4AC3F808230368B4
:1029F000294F1B0B5AB25209203203F01F03012149
:102A000001FA03F347F8223003684FF0FF32D3F89E
:102A10000CE5D3F814C5D3F80815D3F81075C3F82E
:102A20000C25C3F8142503689645C3F80825C3F898
:102A3000102506D00EF5E07E4FF0A043022243F8A9
:102A40002E20BCF1FF3F06D00CF5E07C4FF0A043F8
:102A5000022243F82C207A1C06D007F5E0774FF0CD
:102A6000A043022243F827204B1C06D001F5E07159
:102A70004FF0A043022243F82120354404EB8504A3
:102A80000068FFF707F9002384F820306360F8BD81
:102A9000A00800201003020000E100E001F0604304
:102AA000B3F1005F2CD1F0B40579244EEF007C190E
:102AB00006EB840482B0636923BB6261A160026893
:102AC000C2F82031D2F820C10268CDF804C0DDF888
:102AD00004C0C2F85831D2F8582100920268DDF8DB
:102AE00000C0D4F814C0C2F84415C2F848C5026842
:102AF0000121916062684AB1184602B0F0BC70478B
:102B000010207047112002B0F0BC7047036800E04D
:102B10008AB9D3F82011D3F858210029F8D0002A17
:102B200014BF0F2000207B1906EB830300225A619B
:102B300002B0F0BC70470F20F5E700BFA0080020EE
:102B400070B584B000211A2003910B460A461B265B
:102B50004FF0CC7502240190694607480096029513
:102B60008DF80C40FEF780FF08B1FEF75FF90348CF
:102B7000FFF794FA04B070BD9C320000A032000050
:102B80002DE9F041002182B00846FDF727FD00281D
:102B900037D1FDF7A9FC1C4D1C4B1D49ED1AED0862
:102BA0002D0445F003052846FDF778FDFDF792FF5B
:102BB00007460028FAD1FFF7C3FF164EDFF85C8006
:102BC000012401230DF10702E1B23046FFF776FA46
:102BD00028B9224641462846FDF704FF0127FDF7A4
:102BE00079FF0028FBD10134802CEAD107B1FEE740
:102BF00028460949FDF752FDFDF76CFF0028FBD17F
:102C0000F5E7FEF713F9C4E7383400001834000084
:102C1000AC320000A0320000EC320000C4320000F0
:102C200030B4904B1B78062B20D08F4B1B68062BA3
:102C300000F085808D4AD2F8883043F47003C2F8E2
:102C40008830BFF34F8FBFF36F8F4FF01023D3F84F
:102C50000022002AC0F28681D3F80432002BC0F291
:102C60008181834B834A1A6030BC7047824B1B685A
:102C70001D07DAD1814B1B6803F0F002302A00F007
:102C80009E8003F0E003402B00F099807B4B1B6893
:102C900003F0F003302B00F0B980784B1B6803F091
:102CA000F002302A56D003F0E003402B52D0734B91
:102CB0001B6803F0F003302B00F0B6806F4B1B68ED
:102CC00003F0F002302A66D003F0E003402B62D01C
:102CD0006A4B1B6803F0F003302B00F0B580674BA4
:102CE0001B6803F0F003302B79D0644B1B6803F0B2
:102CF000F003502B00F0E480604B1B6803F0F002FF
:102D0000302A37D003F0E003402B33D05B4B1B68F5
:102D100003F0F002302A03D003F0E003402B84D10B
:102D20004FF08043D3F80024D20744BF6FF0010274
:102D3000C3F800244C4B1B68062B7FF47BAF504B31
:102D40001B68062B7FF476AF4E4A136843F480630A
:102D500013606FE74C4B434A1B6812784B49C3F32F
:102D60004233062A0B6048D1434B1B6819077FF496
:102D70005CAF9CE7464A3B4B12681B78454902F022
:102D80004F02062B0A607FF450AF3B4B1B681907BC
:102D90007FF44BAFBAE74FF080430022C3F80C2119
:102DA000C3F81021C3F838252E4B1B78062B7FF46F
:102DB0003CAF314B1B681B077FF437AF88E7364BBE
:102DC000284A1B6812783549C3F30423062A0B608E
:102DD000EAD1294B1B681C077FF427AF56E7304C1C
:102DE000204A304912783048304B052525600125AE
:102DF0000D6000243F2104601960062A7FF415AF9E
:102E00001D4B1B681C077FF410AF6EE7154B284A5B
:102E10001B7828491160062B7FF407AF164B1B68FF
:102E200018077FF402AF38E723490E4BCA681B78B6
:102E300022F08072062BCA607FF4F7AE0E4B1B683F
:102E40001A077FF4F2AE39E7064B1C4A1B780321C0
:102E5000062B11607FF4E9AE074B1B681D077FF45A
:102E6000E4AE3CE7E00F00F03001001000ED00E0C0
:102E70001C0000200090D003E40F00F0E80F00F0E9
:102E8000340100103C170040440200103C05004093
:102E900058020010E40E00402403001040350140A9
:102EA0001056004088560040185600401456004006
:102EB00074C007400DF0ADBAF0ED00E0A005004091
:102EC0004FF08053404AD3F80414C2F82015D3F8C9
:102ED0000814C2F82415D3F80C14C2F82815D3F836
:102EE0001014C2F82C15D3F81414C2F83015D3F806
:102EF0001814C2F83415D3F81C14C2F84015D3F8CE
:102F00002014C2F84415D3F82414C2F84815D3F895
:102F10002814C2F84C15D3F82C14C2F85015D3F865
:102F20003014C2F85415D3F83414C2F86015D3F82D
:102F30003814C2F86415D3F83C14C2F86815D3F8F5
:102F400040142248C2F86C15D3F844140378C2F830
:102F50007015062B7FF469AE1D4B1B6818077FF4B4
:102F600064AEC9E61B4B0122C3F80425D3F8002444
:102F7000002AFBD04FF0102315221649C3F8002277
:102F8000D1F80034002BFBD04FF010221521114B4B
:102F9000C2F80412D3F80024002AFBD000220D4905
:102FA000C3F80425D1F80034002BFBD0BFF34F8FBA
:102FB00009490A4BCA6802F4E0621343CB60BFF3CD
:102FC0004F8F00BFFDE700BF00C00040E00F00F0E2
:102FD000E40F00F000E0014000ED00E00400FA051D
:102FE00008B5074B044613B10021AFF30080054B31
:102FF0001868836A03B19847204600F071F800BF53
:10300000000000000433000070B50D4E0D4CA41BF1
:10301000A4100025A54209D10B4E0C4C00F062F81B
:10302000A41BA4100025A54205D170BD56F825307B
:1030300098470135EEE756F8253098470135F2E715
:10304000F0010020F0010020F0010020F401002038
:10305000044B054A1B681B6A002B08BF1346D3F8B4
:10306000EC007047200000208400002082B001B9ED
:1030700001A942B14BB113780B601278101C18BF34
:10308000012002B070471046FBE76FF00100F8E73F
:1030900010B5431E0A44914200D110BD11F8014BF6
:1030A00003F8014FF7E702440346934200D170470B
:1030B00003F8011BF9E7034613F8012B002AFBD1A3
:1030C000181A0138704749B1FF2A85BF8A23036067
:1030D0000A704FF0FF3098BF0120704708467047D4
:1030E000FEE700BFF8B500BFF8BC08BC9E467047BD
:1030F000F8B500BFF8BC08BC9E467047FFFFFFFF55
:10310000FFFFFFFFFFFFFFFFFFFFFFFF00000000CB
:10311000000000000000D60106010000D5030000F9
:1031200041040000D1030000756172745F6C6F6729
:103130005F6261636B656E640000000050070020F1
:103140007F000000D00700204261636B656E6473EE
:1031500020666C7573686564000000006170700023
:10316000B8310000E831000098310000F031000073
:10317000F831000000320000083200001032000078
:103180001832000020253032780000002020200076
:103190007C000000256300001B5B313B33316D0078
:1031A00025734C6F67732064726F7070656420289C
:1031B00025642925730D0A001B5B306D000000009B
:1031C000257300003C25733E2025733A2000000043
:1031D0000D0A00000000000020320000283200002C
:1031E00030320000383200001B5B313B33306D0061
:1031F0001B5B313B33326D001B5B313B33336D0066
:103200001B5B313B33346D001B5B313B33356D0051
:103210001B5B313B33366D001B5B313B33376D003D
:103220006572726F720000007761726E696E67007E
:10323000696E666F000000006465627567000000DB
:10324000466174616C206572726F72005379737499
:10325000656D207265736574000000003031323393
:103260003435363738394142434445460000000082
:103270000338FDD87047000050525300311E000043
:10328000AD1C00005457494D0000000055415254F8
:1032900000000000554152544500000000000000AD
:1032A0000030004000000000010000005457492099
:1032B0007363616E6E657220737461727465642EDF
:1032C00000000000545749206465766963652064F6
:1032D00065746563746564206174206164647265FB
:1032E000737320307825782E000000004E6F206424
:1032F00065766963652077617320666F756E642EED
:1033000000000000240000204300504F53495800A3
:103310002E000020202020202020202028282828BF
:103320002820202020202020202020202020202095
:1033300020202088101010101010101010101010E5
:1033400010101004040404040404040404101010F5
:1033500010101010414141414141010101010101A1
:10336000010101010101010101010101010110102F
:103370001010101042424242424202020202020275
:103380000202020202020202020202020202101001
:1033900010102000000000000000000000000000ED
:1033A000000000000000000000000000000000001D
:1033B000000000000000000000000000000000000D
:1033C00000000000000000000000000000000000FD
:1033D00000000000000000000000000000000000ED
:1033E00000000000000000000000000000000000DD
:1033F00000000000000000000000000000000000CD
:1034000000000000000000000000000000000000BC
:083410000000000000000000B4
:103418007832000000000000843200000000000044
:103428008C32000000000000943200000000000010
:083438005C31000000000303F9
:103440001C310000000000002831000014000020A2
:103450005C020020240300202C03002064020020D2
:043460001800000050
:08346400DCCDFF7F0100000038
:10346C000000000000200040000000000020004090
:10347C000000000000000000FF0000000090D003DE
:10348C0024000020000000000000000000000000EC
:10349C000000000000000000000000000000000020
:1034AC000000000000000000000000000000000010
:1034BC000000000000000000000000000000000000
:1034CC0000000000000000000000000000000000F0
:1034DC0000000000000000000000000000000000E0
:1034EC00000000004300000000000000000000008D
:1034FC0000000000000000000000000000000000C0
:10350C00000000004300000000000000000000006C
:10351C00000000000000000000000000000000009F
:10352C00000000004300000000000000000000004C
:10353C00000000000000000000000000000000007F
:10354C00000000004300000000000000000000002C
:10355C00000000000000000000000000000000005F
:10356C00000000004300000000000000000000000C
:10357C00000000000000000000000000000000003F
:10358C0000000000430000000000000000000000EC
:10359C00000000000000000000000000000000001F
:1035AC0000000000430000000000000000000000CC
:1035BC0000000000000000000000000000000000FF
:1035CC0000000000C73000006D300000000000005B
:1035DC0012330000103300001133000011330000CF
:1035EC0011330000113300001133000011330000BF
:1035FC00113300001133000011330000FFFFFFFFF7
:10360C00FFFFFFFFFFFFFFFFFFFF00000100415323
:10361C0043494900000000000000000000000000C9
:10362C0000000000000000000000000000004153FA
:10363C0043494900000000000000000000000000A9
:10364C00000000000000000000000000000000006E
:08365C0025020000010200003C
:04000003000002B542
:00000001FF
