:020000022000DC
:1060000000000120756302005D6302005F6302000F
:106010006163020063630200656302000000000028
:1060200000000000000000000000000067630200A4
:1060300069630200000000006B6302006D630200F0
:10604000E18302006F630200698802006F6302004F
:106050006F6302006F630200E58602006F63020057
:106060006F6302006F6302006F6302006F630200E0
:106070006F6302006F6302006F6302006F630200D0
:106080006F630200FD7102006F6302006F63020024
:10609000997202006F6302000DA602006F63020096
:1060A0006F6302006F6302006F6302006F630200A0
:1060B0006F6302006F630200000000000000000038
:1060C0006F6302006F6302006F6302006F63020080
:1060D0006F6302006F6302006F6302000000000044
:1060E00000000000000000000000000000000000B0
:1060F00000000000000000000000000000000000A0
:10610000000000000000000000000000000000008F
:10611000000000000000000000000000000000007F
:10612000000000000000000000000000000000006F
:10613000000000000000000000000000000000005F
:10614000000000000000000000000000000000004F
:10615000000000000000000000000000000000003F
:10616000000000000000000000000000000000002F
:10617000000000000000000000000000000000001F
:10618000000000000000000000000000000000000F
:1061900000000000000000000000000000000000FF
:1061A00000000000000000000000000000000000EF
:1061B00000000000000000000000000000000000DF
:1061C00000000000000000000000000000000000CF
:1061D00000000000000000000000000000000000BF
:1061E00000000000000000000000000000000000AF
:1061F000000000000000000000000000000000009F
:10620000354936480A1A02D0072291438D4634494F
:1062100034480A1A06D00722914381F309880222E2
:1062200082F3148830483149314A00F044F831484B
:106230003149324A00F03FF831483249324A00F0E1
:106240003AF832483249334A00F035F83248334997
:10625000334A00F030F833483349344A00F02BF821
:1062600033483449344A00F026F83448344900228F
:1062700000F02CF833483449002200F027F8334866
:106280003349091A082902DB002202604160314AC1
:1062900090471F481F49884205D00268043003B464
:1062A000904703BCF7E700208646EC46002000211B
:1062B000294A9047FEE7884207D0521A05D0037852
:1062C00001300B700131013AF9D17047884202D098
:1062D00002700130FAE770470000012000E0002062
:1062E00000000120000001200CB90200B8220020AB
:1062F00010230020D4630200D4630200BAAA020073
:106300000CB90200B8220020B8220020A0AB020085
:10631000A0AB0200A0AB0200A0AB0200A0AB020049
:10632000A0AB0200A0AB0200A0AB02000CB90200BF
:1063300064B9020010230020102300201023002045
:106340004C2F00204C2F00204C2F00204C2F0020E1
:106350004C4F00209D63020029930200FEE7FEE7F8
:10636000FEE7FEE7FEE7FEE7FEE7FEE7FEE7FEE705
:10637000704700BF1048804710484FF0070188431E
:1063800085460F4880470F48016841F4700101605D
:10639000BFF34F8FBFF36F8FFFF732BF0A480B4930
:1063A0000B4A884207D0521A05D0037801300B708F
:1063B0000131013AF9D170477163020000000120F8
:1063C000C97E020088ED00E0A0AB0200B8220020E8
:0463D000B8220020CF
:1063D4007047000007B5044B0093044A402300F0C3
:1063E40032F803B05DF804FBF563020011230020CA
:1063F4002DE9F84389461446B2B10F4B0F4E0325DD
:10640400002743F00108224609EB0701002003F0AE
:1064140015F90744241A48B933782BB14FF47A405C
:10642400C047013D02D13570BDE8F88301233370C4
:10643400002CE8D1F8E700BFA0AB02001023002035
:10644400704703F02FB9F0B595B01C4616460846C0
:106454000D4601F050FC1A9B0D93CDE9086400240D
:106464002346082205A928460A948DF82C400C944A
:1064740001F05EFC079B0293069B03939DF8143086
:106484008DF8114003F00302012A1DD1BDF8144018
:10649400059EC3F3C203C4F383148DF81030A20025
:1064A40008230EA9284601F043FCC6F3952608AB41
:1064B4000093224602AB0EA9304600F0E3FB2846C7
:1064C40001F01DFC15B0F0BD022AF8D1BDF816404C
:1064D400C3F3C203A4098DF810300827082C2646FC
:1064E40028BF08263B4632460EA9284601F020FC68
:1064F400A41B08AB02AA31460EA8374400F026FCC0
:10650400002CEBD1DBE70000014B01221A7070472D
:10651400922300207047000070B50E4D06460FCD43
:1065240088B06C460FC495E80F00002E84E80F0075
:106534004FF00603084A0948009308BF0022694641
:1065440001F0E6FE08B100F0A9FD054B1E7008B08D
:1065540070BD00BFB4AB02000D650200B82200207C
:106564005123002007B5044B0093044A4023FFF74E
:106574006AFF03B05DF804FB856502005223002026
:1065840038B50D4B0D4D002018700D4804782D5D65
:10659400D2B21C4665B1043002F08CFD08B100F0A3
:1065A4007DFD084B1A7812B12378002BFBD038BD3F
:1065B4000C3002F085FBF1E792230020B82A00207A
:1065C400B82200205123002008B50848084A03785F
:1065D400D35C3BB1043002F009FD0020BDE8084063
:1065E400FFF79ABF0C3002F007FBF6E7B822002051
:1065F400B82A00200120FFF78FBF000038B50A4DEC
:10660400FFF71FFF0421284600F0AAFA074B0124D4
:106614005C71FFF7EFFF042105F1100000F0A0FA10
:10662400034B5C7138BD00BF80AB0200CC2200205C
:10663400D4220020037813F0040216D003F00303DD
:10664400012B03D0022B09D0012070470A6800886F
:106654000232C0F3831002440A60F5E70B684288F3
:10666400023303EB92130B60EEE710467047000011
:106674002DE9F04F87B000230446851C0DF1070077
:106684000F4690468DF8073000F0F8FF454806683D
:106694003E60D0E90132134401339B1B824600F271
:1066A4001C4600F5836900F21447AB421BD3002259
:1066B400B8F1000F70D0052363F3070264F3891265
:1066C400DAF80010DAF808309DF807000B400333BD
:1066D4000D444AF82320CAF8005000F0F3FF0120CB
:1066E40007B0BDE8F08F0121304601F048F8484674
:1066F40001F05BF8384601F058F8DAF80400DAF8EB
:1067040008B0029000EA0B0003300AEB800002A9F3
:10671400FFF790FF029B50BB0BEA03020AEB8202D5
:1067240003F1020CD2680392013303EA0B0B0AEB68
:106734008B0B02F00302012ACDF808C0DBF80C1021
:1067440022D0022A16D08346384601F031F810B11F
:10675400029BCAF804305946304601F010F8DAE9D1
:1067640001231344DAF8002001339B1A9DE70BEA56
:106774000300C9E7BDF80E309B0903334FEA114B00
:106784000CEB93030293DFE7BDF80C30C3F38313E0
:106794004FEA114B6344F5E7062363F3070264F3FE
:1067A4009F528DE7642400200B4B0C48FF2210B548
:1067B4009A600022C3F81824C3E90022C3F8142401
:1067C40083F8202401F050FA044610B9044801F07B
:1067D400F7FA204610BD00BF642400200CAB020071
:1067E40004AC020030B50A4C71B10A4A0A49121BC2
:1067F400D20800239A4201D1002030BD31F8235041
:10680400854202D00133F5E7034654F83300F4E738
:1068140020AB020080AB0200B8220020094B0139F2
:1068240003EBC000032909D8DFE801F00A020406DB
:106834000420704700797047407970470020704702
:106844000220704720AB0200034BD3E90030C31A87
:1068540058425841704700BF642400202DE9F0439A
:1068640087B0FFF7F1FF0646002840F0FB807E4D1D
:10687400C5F81804BFF34F8F6868AC6802902040D5
:10688400033005EB800002A9FFF7D4FE029B18B188
:10689400D5F81824002A5FD004EA0302991C0133B6
:1068A40005EB8202234005EB8303D268DB68049383
:1068B40002F00303022B0392029162D1BDF80E3061
:1068C4006A484FEA9318B8F1500FC14628BF4FF0F9
:1068D400500969F38F1309F10801ADF80E3001F086
:1068E400DBF90746002800F0A88001F004FA03A9A8
:1068F40000230822384601F011FA029924EA01061D
:106904000136B600B14535D95FFA89F97EB3F6B2DE
:10691400A9EB0609214003315FFA89F4B146544ECC
:1069240005EB810108234A46384601F0F7F936B1F0
:1069340009F1080322463146384601F0EFF9029B7B
:1069440008F1030803EB98030293D5F81834002BDD
:106954004BD1D5F810445BE02A689A4204D86A60A7
:10696400304607B0BDE8F08304EA030088E74049F5
:106974003446D7E72140033108234A4605EB810119
:10698400DAE7012B59D1BDF80C303848C3F3831131
:10699400062928BF062161F3891302318900ADF865
:1069A4000C3001F079F90746002846D001F0A3F92C
:1069B4000023082203A9384601F0B0F90026BDF8E7
:1069C4000C20C2F38312B300964203F10803BCD235
:1069D40002994A1C21400331029205EB81010422F1
:1069E400384601F09BF90136E9E7384601F087F9AA
:1069F400FFF72AFF80F00100C6B2B1E7E3685B79D4
:106A040023B1236839461B6820469847E3681C680D
:106A1400002CF3D1384601F072F90DF107008DF81E
:106A2400074000F02BFED5F818340BB9029B6B60BD
:106A34009DF8070000F046FEDAE7D5F8104454B993
:106A44000C4B0D480D49C01AC008000440F0020068
:106A540000F06EF8CCE7236820469B689847E3680B
:106A64001C68ECE700267BE7642400200CAB0200E2
:106A74007024002020AB020048AB020010AC0200DE
:106A84002DE9F74F284C80460F46924601A9012272
:106A940018469B46D4F80890FFF7EAFD80B3019DA1
:106AA4000026A91C5E4506EB010233D100211F48D4
:106AB40000F03AFE80F310006A1C02EA090204EBBB
:106AC4008202000405EA0903033340EA1840D06057
:106AD40014F8232068F3C50204F8232034F8232093
:106AE40066F3891224F8232054F8232067F39F22A5
:106AF40044F8232002F0F80242F0010204F82320B3
:106B040094F820341BB1FFF7A9FE0028FBD103B091
:106B1400BDE8F08F09EA020204EB82025AF826303B
:106B2400D3600136BEE700BF642400208028002023
:106B340000231A46FFF7A4BF07B50123019201AA57
:106B4400FFF79EFF03B05DF804FB07B5CDE9002312
:106B540002236A46FFF794FF03B05DF804FB0000CC
:106B640030B50F49D1F81024002314463CB9C46849
:106B7400237152B9C1F810042260184630BDE4688C
:106B840025799D4206D02468F0E7D2681168216017
:106B94001060F2E701330A2BE7D14FF0FF33ECE743
:106BA40064240020094A38B50123D2F8104482F83D
:106BB40020341D4604B938BDE3685D71236820465E
:106BC4005B689847E3681C68F4E700BF642400200E
:106BD400037A052B10B50C460FD0437A23B1084A2B
:106BE4000849204600F047FE0749204600F043FECE
:106BF4002046BDE8104000F033BE002AF8D0F3E789
:106C04005BAC020060AC020080AC0200C38873B5C8
:106C140004460D4633B1144A00921449144A2846D6
:106C240000F029FE217A05291CD0637A4BB1A08893
:106C3400FFF7F4FD0F4B104953F82020284600F0CD
:106C44001AFE227A0D4BA08853F822600021FFF728
:106C5400C9FD0B4903463246284602B0BDE87040E0
:106C640000F009BE02B070BD5BAC02006BAC020068
:106C740063AC020028AC020060AC020090AC0200DD
:106C840083AC02002DE9F04385B01F460C9D002320
:106C940006460C46904695F80C902B7329463846C8
:106CA400FFF7B4FFB8F1060F09D8DFE808F00412C3
:106CB400181F283340003146284600F0DCFD00222E
:106CC40029463846FFF784FF85F80C9005B0BDE8E7
:106CD400F08322683146284600F0CDFDEFE7D4E981
:106CE40000233146284600F0C6FDE8E7A368009378
:106CF4003146D4E90023284600F0BDFDDFE7E36810
:106D04000193A36800933146D4E90023284600F098
:106D1400B2FDD4E723690293E3680193A368009367
:106D24003146D4E90023284600F0A5FDC7E763698E
:106D3400039323690293E3680193A36800933146A4
:106D4400D4E90023284600F096FDB8E708292DE988
:106D5400F84F80460E4617461C463AD8002593F84D
:106D64000C901D7319461046FFF750FFDFF884A0FE
:106D7400DFF884B0AE422ED918F8052059462046D3
:106D840000F079FD0135082DF4D11849DFF86CB015
:106D9400204600F070FD4FF0000A564520D918F83F
:106DA4000A507E2D03D8284603F0D2FD00B92E25C3
:106DB4002A465946204600F05EFD0AF1010ABAF15E
:106DC400080FEAD1012221463846FFF701FF84F873
:106DD4000C90BDE8F88F5146204600F04CFDD1E7F9
:106DE4000349204600F047FDE7E700BF56AC020028
:106DF40054AC020052AC02004CAC020058AC02008D
:106E04002DE9F04F394E87B04FF00009384B1B780D
:106E14005FFA89F5AB4202D807B0BDE8F08F354B75
:106E2400D3F800A01AF835000124D6E9001EA0F119
:106E34002002C0F1200304FA02F224FA03F31343FC
:106E440004FA00FC009301EA0C030293009B0EEA8F
:106E540003030393DDE9022313430AEBC50B41D07B
:106E6400009B21EA0C012EEA0303C6E9001301F09A
:106E74002DFC1AF835502049A5F12002C5F1200354
:106E840004FA02F224FA03F31343D1E900C2AC403A
:106E9400134004EA0C0105930024C3B2CDE9003485
:106EA400009A0491C5F12003A5F1200122FA03F30D
:106EB40002FA01F848EA03081346AB401F46DDE92D
:106EC4000434444508BFBB420CD1DBF804304BB159
:106ED4009BF801104A1E51425141081A4142414156
:106EE4002846984709F1010990E700BF502900207E
:106EF4002029002058290020482900202DE9F041AC
:106F04008046204800F0AAFBD0BB0125A8F120044C
:106F1400C8F1200325FA03F305FA04F41C431A4BC1
:106F2400D3E9001205FA08F501EA050602EA0407A6
:106F340056EA07001E461DD1404601F0C7FB134B1D
:106F4400D3E9001288B129432243C3E90012D6E9E8
:106F540000231C430E4B0B4819681543C6E9005423
:106F64000022BDE8F04100F033BB21EA050122EA2A
:106F74000402EAE721EA050522EA0404C3E900540D
:106F8400BDE8F0812829002050290020482900204C
:106F940024290020042A2DE9F34105460C4616460F
:106FA4003AD901F0AFFAD8B11C4B1D491D601D4BF5
:106FB400DFF884801C701C4B00221E600023C1E992
:106FC40000231A49C1E90023013CE4B20026032747
:106FD400FF2C0CD1164A1748002100F0E7FA03E011
:106FE40001F058FA0028DFD002B0BDE8F08123B2E6
:106FF40005EBC30201A992788DF8052015F833003A
:107004008DF8066042468DF8047001F085FA013C63
:10701400E4B20028DCD0E7E70720E5E758290020A0
:10702400482900202029002024290020502900205C
:10703400056E0200F0AC0200016F020070B5084D4D
:10704400084E00242B789C4201D3002070BD336885
:10705400012113F8340001F0D3FA0134F2E700BF40
:10706400202900205829002070B5094D094E00241C
:107074002B789C4204D30848BDE8704000F0EEBA77
:10708400336813F8340001F0FFFA0134F0E700BF6D
:107094002029002058290020282900201FB500217C
:1070A400039001AA44F20100CDE9011100F004F8B3
:1070B40005B05DF804FB000010B572B6FFF772FD71
:1070C400FFF7CCFB0028FBD1104B114C1149E41AFB
:1070D400E408240444F00100FFF72AFD0E4B1B686A
:1070E400DB0700D500BE0D4944F00200FFF720FD88
:1070F400BFF34F8F0A490B4BCA6802F4E062134393
:10710400CB60BFF34F8F00BFFDE700BF20AB020091
:1071140048AB0200F4AC0200F0ED00E000AD020068
:1071240000ED00E00400FA05094A53789178013330
:10713400DBB2994208BF0023117899421FBF037044
:107144005078182303FB002014BF0430002070473C
:107154005C29002073B5054600240DF107000E4696
:107164008DF8074000F08AFA0DF10600FFF7DCFF06
:1071740090B10670094B9DF8062045605A709DF841
:10718400070000F09FFA24B9054B4FF48012C3F8AE
:107194000021204602B070BD0424F0E75C290020E1
:1071A40000E100E0024B4FF43C6043F00103184758
:1071B40010AD020038B50C4B0C4C4FF40032C3F840
:1071C400802001254FF48033C4F84833C4F80833D1
:1071D4006560FFF7E7FF064BA56000241C60FFF71E
:1071E400E1FF044B1C7038BD00E100E000100140D9
:1071F400782A0020692A0020F8B51F4B1F491B6814
:107204000025C1F84051C1F84451C1F84851C1F8B2
:107214004C51C1F80051C1F804514BB3D1F80445A5
:1072240017490968641A24F07F442F461A68A24259
:1072340009D8A41A15441A7CDE691AB11F74D3E95B
:1072440005209047AEB90F4A0F4B11781B788B423B
:1072540005D10133DBB2022B08BF0023137012786F
:107264000A4B43F822500A4B4FF48012C3F8002112
:10727400F8BD3346DAE700BF7C2A00200010014045
:10728400782A0020752A0020742A00206C2A002005
:1072940000E100E02DE9F04FA14AA24913780978F2
:1072A400A14D994285B03CD00133DBB2022B08BF1B
:1072B400002313709D4912789D4B0F6853F82200E8
:1072C4003B1823F07F4300220B602B6816461446BC
:1072D400944613B942B12B6006E0196881420ED975
:1072E40002B12B60091A196001272B68DFF848A244
:1072F40001934FF00008BEB9DFF844B266E0401ACB
:107304000C44D968C3F800C0D3F81CE031B13A1971
:1073140022F07F42C3E90121DE611E460122734649
:10732400D7E700263746E0E73446F6697F4A6368C4
:107334001268DFF810C2A068991A21F07F416145F4
:1073440000F2A68001442160012222742A680023ED
:10735400C4E90133E361002A40F0A3802C60CAE74A
:107364005A1C9BF80210D2B291428BF8002004BF41
:1073740000228BF80020182202FB03B31A799C68C0
:10738400022A1CD0032A12D0012A1FD1207CE8B97A
:10739400D3E90312A2605A69E2609A69654BA2615B
:1073A4001B78002B0CBF0B4603466360BEE700222C
:1073B4002B681146002B67D142B12B6006E0296887
:1073C4000A468946002A5AD1002323749BF80030C8
:1073D4009BF801209A42C3D12B68B8F1000F04D165
:1073E400019A9A4201D1002F43D0002B73D0D3F8D5
:1073F40000A0514D4D4BD5F804751C68DFF8488149
:107404003E1B98F8003026F07F4603369BB94FF4B4
:107414008033C5F84433C5F80433484B4FF4003285
:107424004FF00109C3F880211A60C5F80090FFF7F6
:10743400B9FE88F80090B2452CBF5444A41924F036
:107444007F44C5F84045D5F80435DB1B23F07F4362
:10745400E41B033324F07F44A3420AD9D5F804354E
:10746400C5F84035FFF79EFE344B4FF40032C3F8A5
:107474000021304B00221A7005B0BDE8F08F944211
:107484002CD09146D2699DE719740122DB6991E7FA
:10749400D31A23F07F43834234BFC31A00232360EB
:1074A40052E721681368994213D8591A1160E261AE
:1074B40054E7091AD8691A4638B10346186888424D
:1074C400F7D3401A1860184613462160E061DC6166
:1074D40011E71346F2E7FFF76DFECAE74C4511D1F9
:1074E400CB692B6073B9DFF844E00120CDE90212C7
:1074F400CAF80800CEF800300E4B1870FFF752FEA1
:10750400DDE902121368D269C9F81C2012B11068AF
:10751400034413602B68994218BF4FF0010853E7E6
:10752400742A0020752A00207C2A0020782A002052
:107534006C2A0020682A00200010014000E100E0CD
:107544005C290020FEFF7F00692A002008B5FFF7B0
:1075540031FE104B00200B2218809A700E4B1860DD
:107564000E4B18700E4B18700E4B4FF48012C02146
:10757400C3F8802183F814131A6002F18042A2F543
:107584006F22C2F8080583F81113074BD2F80425BB
:107594001A6008BD5C2900207C2A0020742A00207F
:1075A400752A002000E100E0782A0020074B9B7830
:1075B4004BB132B128B10368187C20B959745A61AF
:1075C4007047072070470820704700BF5C290020DF
:1075D4002DE9F7431E4FBB7805460E469046A3B3EC
:1075E40098B304292FD943697BB3437C0024012B2E
:1075F4000DF107000CBF8946A1468DF8074000F045
:107604003DF80DF10600FFF78FFDD0B101230370A3
:10761400104B4560D3F80435C0E90498C0E902363C
:107624009DF806307B709DF8070000F04BF824B9F4
:10763400094B4FF48012C3F80021204603B0BDE883
:10764400F0830424EFE70724F7E70824F5E700BFF5
:107654005C2900200010014000E100E0064A927815
:107664003AB130B1426922B1002202740221FFF71B
:1076740071BD0820704700BF5C29002070B5EFF38E
:10768400108672B60C4A946801239CB993600B4B24
:107694000B4DD3F8801029401160C3F88050D3F803
:1076A400841051604FF0FF32C3F88420047006B98F
:1076B40062B670BD0370FAE7802A002000E100E0A2
:1076C400FC06FFBD084B9A6810B55AB150B9EFF3E8
:1076D400108172B6054A1C6814605C685460986036
:1076E40001B962B610BD00BF802A002000E100E0AD
:1076F40001F01F024B090121914000EB830000F0CF
:107704001DB801F01F0301229A404B0900EB8300CE
:10771400D14300F029B84B0901F01F0150F82300B0
:10772400C84000F00100704750E8002F0B4640E8C5
:10773400003C9CF0000FF7D11046704750E8003F22
:1077440043EA010240E8002C9CF0000FF6D11046F9
:10775400704750E8002F02EA010340E8003C9CF027
:10776400000FF6D11046704750E8003F03EA0102CB
:1077740040E8002C9CF0000FF6D11046704750E80A
:10778400003F03EB010240E8002C9CF0000FF6D10F
:107794001046704750E8003FA3EB010240E8002C7C
:1077A4009CF0000FF6D1104670470121FFF7C6BFC9
:1077B4000021FFF7CEBF10B590B1D0E901230168D5
:1077C4009B1ADBB20A60013BDBB2FF2B026802D1D9
:1077D4000020107110BD11684C1C14600B70F2E78E
:1077E4000E20F7E737B5054600240DF107008DF8A4
:1077F4000740FFF743FF2A686B68116899420ED966
:10780400481E106011F8014CEB68298A01FB04340E
:10781400AB6811791B1ADBB2994238BF13719DF81A
:107824000700FFF74FFF204603B030BD37B50546CC
:1078340000230DF107000C468DF80730FFF71EFFFB
:107844002A681368591C1160E968641A298AB4FB10
:10785400F1F41C709DF80700FFF734FF03B030BD4E
:10786400826810B504462AB14369016800699847E3
:107874000023A36010BD0EB403B5039921B104AB7A
:1078840001AA019300F074F802B05DF804EB03B0B0
:1078940070470A2938B504460D4602D10D21FFF779
:1078A400F8FFA3682268591CA160D554D4E90132B9
:1078B4009A4204D32046BDE83840FFF7D1BF38BD13
:1078C4002DE9F84F9946DDE90A4317468246884672
:1078D4000A460126BA420FD24E4538BF4E4613F02F
:1078E400010B01D164B900240125B9F1010F1AD9A2
:1078F40009F1FF397D43F8E7B2FBF7F20136E9E716
:107904009B070ED5B9F1000F0CBF30252025A642E8
:10791400EAD2013C29465046FFF7BBFF002CF6D1C2
:10792400E1E72025F3E7B8FBF5F39F42E2D9DFF85E
:107934003C90B8FBF5F3504619F8031005FB138887
:10794400FFF7A7FFB5FBF7F3BD4207D2BBF1000F6A
:1079540002D00CB1A64203D3BDE8F88F1D46E8E778
:1079640020215046013CFFF794FFF2E716AD0200D8
:107974002DE9F74F054617468846002900F0308167
:1079840018F8011B49B92B7B002B00F029812846EC
:1079940003B0BDE8F04FFFF763BF252940F0C08076
:1079A400002698F800302D2B424608F1010823D018
:1079B400302B24D02B2B25D000242A2B02F10101BB
:1079C40023D13B681A1D1B683A601C440A4613788D
:1079D4002E2B26D101324FF00009104610F8011B5E
:1079E400A1F1300CBCF1090F1DD80A2303FB0913C4
:1079F400A3F130090246F0E746F00106D1E746F06C
:107A04000206CEE746F00406CBE711F8013CA3F1E9
:107A140030000928DBD80A2202FB0434303C0A4631
:107A2400CBE74FF0000912F8011B01F0FB006828B6
:107A34009046F8D069290ED04AD8582964D006D87F
:107A440025296DD098F80030002B99D19BE7632944
:107A540062D06429F6D13A68D2F800A0111D8AEAEE
:107A6400EA723960A2EBEA724FF0010B092A5BDC7F
:107A7400CB4538BFCB462CB1BAF1000F01DB7207FE
:107A840000D5013CB30702D5B9F1000F04D0F007CB
:107A940002D4002C4ED10024BAF1000F52DACAF1FC
:107AA400000A2D212846FFF7F4FE06F00302022AFD
:107AB40005D1B9F1000F02D1002C47D10024CDE942
:107AC40000464B460A2251462846FFF7F9FEB9E71D
:107AD40073294CD014D87029B4D13B681A1D3A606C
:107AE400302128461C68FFF7D4FE78212846FFF78A
:107AF400D0FE00220823CDE9003221461022E3E71C
:107B040075292BD078299DD139680A1D3A60CDE9B1
:107B140000464B46102228E03B681A1D19783A604B
:107B24002846FFF7B6FE8DE70A230BF1010BB2FBE3
:107B3400F3F29BE7A345AFD220212846013CFFF78F
:107B4400A8FEA6E77107B0D52B21ABE7A345B6D2B3
:107B540030212846013CFFF79CFEADE73968CDE9AA
:107B640000460A1D3A604B460A220968ACE73B68A6
:107B74001A1D3A6016F00106D3F800A020D1BAF11C
:107B8400000F03D0504602F066FF0646B44200D907
:107B9400C4B90AF1FF3A1EE028460136FFF779FE20
:107BA4001AF806100029F7D1A642BFF44BAF002CF7
:107BB4003FF448AF20212846013CFFF76AFEF3E773
:107BC4000026EDE720212846013CFFF762FEDDE7B1
:107BD4002846FFF75EFE1AF8011F0029F8D131E7A5
:107BE40003B0BDE8F08F2DE9F047B0F80690447972
:107BF400D2F800A09DF8208009FB04F4043C06465A
:107C04000AEB0300A0420F4688BFA4EB030A191D28
:107C1400C2F800A0B1FBF9F509FB15114DB9A9EBA8
:107C24000104544528BF5446BAF1000F04D1BDE8FD
:107C3400F0873668013DF1E704317B19701822465C
:107C4400B8F1000F0ED001461846AAEB040A02F060
:107C540084FED145254436684C464FF0000128BFC8
:107C64005446E1E71946F0E7FFF7A5BDF8B54679B4
:107C74000146721E0546002393422D6803D3002457
:107C8400A64202D8F8BD0133F6E70F682846FFF78D
:107C9400CDFD01343946F3E72DE9F843068ACD1CBE
:107CA4000746FFF79FFD043E35440446B5FBF6F551
:107CB400F0B14FF48073EDB28380C680013D07605C
:107CC40081464FF00008A84512D23846FFF78AFDD6
:107CD400064648B163790133637108F10108C9F8B4
:107CE400000007608146EEE72046FFF7BFFF3446F9
:107CF4002046BDE8F88301210430FFF740BD10B5EC
:107D0400012104460430FFF745FD10F0FF0F04D1B4
:107D14002046BDE81040FFF7A9BF10BD1FB5039270
:107D24000022009203AAFFF75EFF05B05DF804FB92
:107D34001FB503920122009203AAFFF754FF05B076
:107D44005DF804FB41DF7047064B10B500241C703E
:107D5400054B1C60BFF35F8F0449054800F039F8F8
:107D6400204610BD942A0020982A002028AD020045
:107D74008C2A002007B500230DF107008DF8073089
:107D8400FFF77CFCF1EE103A23F09F03E1EE103A8A
:107D9400BFF35F8F094B4022C3F884219DF807008D
:107DA400FFF790FC02F016FC20B1FFF7CBFF03B005
:107DB4005DF804FB20BF40BF20BFF8E700E100E00E
:107DC400836800225A609A60C3E90422DA601A6068
:107DD40070470B684A684360934208BF0023016000
:107DE40008BF43607047436843B1026891685268B2
:107DF4000B449342436004BF002343607047000078
:107E040010B50D49A1F59472914201D800200FE0FC
:107E14008B1ADB1003EBD3735B1002EBC30452F831
:107E24003330834205D802D204F10802ECE76068DB
:107E340010BD2146E8E700BF78AE020008B5FFF7A1
:107E4400DFFF024B002808BF184608BD3DAD020005
:107E54000C4B1B78062B10D10B4B1B681A070CD14B
:107E64000A4B186800F0F003302B08D000F0E00053
:107E7400A0F1400358425841704700207047012048
:107E8400704700BFE00F00F0E40F00F0E80F00F0CF
:107E9400094B1B78062B0CD1084B1B681A0708D119
:107EA400074B186800F0F000A0F130035842584125
:107EB40070470020704700BFE00F00F0E40F00F0AF
:107EC400E80F00F008B5FFF7C3FF28B17D4B7E4AE9
:107ED4001B68C3F304231360FFF7DAFF10B17B4B75
:107EE4007B4A1A60FFF7B4FF28B17A4B7A4A1B68C1
:107EF400C3F342331360FFF7CBFF20B1774AD36853
:107F040023F08073D360FFF7A3FF40B14FF08043A9
:107F14000022C3F80C21C3F81021C3F83825FFF759
:107F2400B7FF10B16E4B03221A60FFF7B1FF40B1E7
:107F34006C4B05221A6001229A6700229A603F2244
:107F44005A60694B1B78062B50D1684B1B68190784
:107F54004CD1674B1B6803F0F003502B46D14FF014
:107F64008052644BD2F80414C3F82015D2F80814D4
:107F7400C3F82415D2F80C14C3F82815D2F8101439
:107F8400C3F82C15D2F81414C3F83015D2F8181409
:107F9400C3F83415D2F81C14C3F84015D2F82014D1
:107FA400C3F84415D2F82414C3F84815D2F8281499
:107FB400C3F84C15D2F82C14C3F85015D2F8301469
:107FC400C3F85415D2F83414C3F86015D2F8381431
:107FD400C3F86415D2F83C14C3F86815D2F84014F9
:107FE400C3F86C15D2F84424C3F87025FFF730FFAA
:107FF40028B1414B414A1B6803F04F031360FFF75C
:1080040027FF48B14FF08043D3F80024D20744BF80
:108014006FF00102C3F80024394B1B68062B08D10A
:10802400384B1B68062B01BF374A136843F480633F
:108034001360364AD2F8883043F47003C2F88830AB
:10804400BFF34F8FBFF36F8F4FF01023D3F800228D
:10805400002A03DBD3F80432002B2FDA2C4B012245
:10806400C3F80425D3F80024002AFBD04FF01022D3
:108074001521C2F80012D3F80024002AFBD04FF0D7
:1080840010231522C3F80422214B1A46D3F80014F6
:108094000029FBD00021C3F80415D2F80034002BCA
:1080A400FBD0BFF34F8F19491A4BCA6802F4E06240
:1080B4001343CB60BFF34F8F00BFFDE7164B174A46
:1080C4001A6008BD240300104035014074C0074005
:1080D4000DF0ADBA440200103C050040F0ED00E0A4
:1080E400A005004010560040E00F00F0E40F00F03F
:1080F400E80F00F000C0004058020010E40E0040F9
:1081040030010010340100103C17004000ED00E085
:1081140000E001400400FA05DC2200200090D003B6
:10812400044B1A5C012393404FF0A042C2F80C3573
:10813400704700BF32B20200044B1A5C0123934023
:108144004FF0A042C2F80835704700BF32B20200B7
:1081540008B50020FFF7F0FF0120BDE80840FFF755
:10816400EBBFC20708B5014608D54FF0A043032270
:10817400C3F87827C3F87C27FFF7EAFF8B0741BFD2
:108184004FF0A0430C22C3F87027C3F8742708BD2E
:1081940038B5074C051E04F1080318BF1C462368B4
:1081A4002BB11A6822605B6828469847F7E738BD08
:1081B400A42A002020B9054B01225A70FFF7E8BF1A
:1081C400012802D1014A9070F8E770479C2A0020E8
:1081D40020B9034B01225A70FFF7DABF704700BF82
:1081E4009C2A002038B50B4C237883B90A48636075
:1081F400A3602361E36000F0C7F8054602F0EAF9E2
:1082040008B900F0CDF801232370284638BD852530
:10821400FBE700BF9C2A0020B981020037B50B4C54
:1082240000230DF107008DF80730FFF727FAE36804
:10823400013BE360E56815B900F0C4F8A5709DF84A
:108244000700FFF73FFA03B030BD00BF9C2A0020AF
:10825400012813B509D018B103281CD002B010BDF1
:108264000F4B0122C3F88020F8E70E4C00230DF1D8
:1082740007008DF80730FFF701FA23780BB9FFF7F1
:10828400B1FFE3689DF807000133E3600123A370A5
:10829400FFF718FAE2E700F083F8FFF7BFFFDDE726
:1082A40000E100E09C2A00201FB503788DF800301F
:1082B4004368019383688DF80830C3680393054AC3
:1082C400054B684653F8213052F82110984705B001
:1082D4005DF804FBB02A0020B42A00201FB50378FF
:1082E4008DF800304368019383688DF80830C368C3
:1082F4000393054A054B684653F8213052F8211080
:10830400984705B05DF804FBB02A0020B42A002089
:10831400F0B5184B077891F81DE043F82720164B69
:1083240016460A6943F82720144B03F807E00C4665
:1083340084460FCC89B06D460FC594E80F0085E8DC
:108344000F000497BEF1000F0AD0002E0C4A6946B4
:1083540008BF32460CF1040000F086FD09B0F0BD00
:10836400002E084A694608BF32460CF10C0000F0A2
:1083740089FBF3E7B42A0020B02A0020B82A0020A1
:10838400AD820200E1820200044A137923B901217B
:10839400106091801846704785207047BC2A0020E1
:1083A400074B1A68D2075FBFC02283F8002301225B
:1083B4001A604FF080430122C3F81825704700BFAC
:1083C40000E100E0044B01221A604FF08042D2F831
:1083D4001834DB03FBD470470C000040154B07B581
:1083E4001A687AB100221A601B680093009B4FF050
:1083F40080430122C3F808230F4B587910B95A71EE
:108404001B6898470D4B1A6882B100221A601B68DA
:108414000193019B4FF080430222C3F80823064BCB
:108424001B68012003B05DF804EB184703B05DF846
:1084340004FB00BF00010040BC2A002004010040EE
:1084440000F1804000F5C040002382B0036003685F
:108454000193019B02B07047800000F1A040D0F866
:10846400003723F44033C0F80037D0F8003743EA2C
:108474000141C0F800177047054B4FF0FF32072841
:1084840043F8202084BF1B1883F84820704700BF9E
:10849400C42A002010B5174C94F8583043BB04F19B
:1084A40030032021FF22013911F0FF0103F8012BD1
:1084B400F9D1C8B2FFF7E0FF01310C29F9D1042248
:1084C40000210D4802F072FA0C4BC02283F80623F7
:1084D40040221A604FF4BE70FFF7B2FF084B4FF012
:1084E4000042C3F80423012384F85830002010BD4F
:1084F4000820FCE7C42A0020182B002000E100E03B
:1085040000600040034B93F85800003018BF01206E
:10851400704700BFC42A0020F0B5374B1C1894F9EB
:108524003040002C1C4664DA8D78C5F34005002DDC
:108534000BBF082300230C260826B34201D10420D4
:10854400F0BD54F8237001373FD1261844F8232096
:1085540086F8303015B9E21882F848008A78550751
:1085640013D4D60733D5820002F1A042D2F80057C3
:1085740025F00205C2F80057204EC50800F0070791
:108584000122BA40775D3A4372558A780D7812F029
:10859400020225D09B0003F1804303F5C04302028D
:1085A400D3F8101521F4473121F44071C3F81015A4
:1085B4002D04D3F8101502F4F85205F440352A437B
:1085C4000A43C3F810250020BAE70133B5E74D7814
:1085D40000F5E0724FF0A046AD0046F82250CBE71C
:1085E400083B234493F8501041EA851583F8505012
:1085F400E9E70820A4E700BFC42A0020182B0020C4
:1086040038B51F4C251895F93020072A17DD224468
:1086140092F84810890903290CD14FF0A043D3F8EC
:108624001035C34013F0010F08BF0221BDE83840E4
:10863400FFF712BF012914BF03210221F6E7D3B2C9
:10864400072B1CD8930003F1804303F5C043D3F8F0
:10865400100540F00100C3F8100502F1400080004D
:1086640080B2FFF7EDFE51B195F9303054F8233064
:108674002BB1012303FA02F2024BC3F8042338BDE1
:10868400C42A0020006000400E4B034493F93020BC
:10869400072A02DD0021FFF7DFBED3B2072B10D873
:1086A400930003F1804303F5C043D3F8101521F080
:1086B4000101C3F81015012303FA02F2024BC3F8B7
:1086C40008237047C42A0020006000404FF0A043F4
:1086D400D3F8103523FA00F000F0010070470000D1
:1086E4002DE9F04F85B000245A4D01944FF4807267
:1086F400012102F1804303F5C04390B21B68012BB2
:1087040006D1D5F804330B4202D0FFF799FE0C438F
:108714000432B2F5907F4FEA4101EAD14E4B1B6817
:10872400012B0AD14FF4BE70FFF78AFE4FF0A0432D
:1087340044F00044D3F81035019314F0FF0F1AD01D
:10874400464F00250126344210D0AB0003F180438C
:1087540003F5C043D3F81005D3F8101557F82530A6
:1087640023B1C1F30141C0F3042098470135082D1A
:108774004FEA4606E7D1002C64DA00224FF0FF33BB
:10878400CDE90223354D01274FF0000A344E5446FB
:108794004FF0A04816F9012B531C46D0D2B222F058
:1087A400C0094FEAD90104A8084402F0070310F8ED
:1087B40004CC07FA03F31CEA030F36D005EB090CCB
:1087C40092099CF930C055F82CB0BBF1000F0AD1C6
:1087D400032A2AD10DF1080E1EF801C04CEA030C3D
:1087E4000EF801C001E0032AF4D009F5E07110F895
:1087F4000C0C58F821101842C1F3014105D002298C
:1088040013D1032A0BD1114604E003290DD1032A05
:1088140005D102214846FFF71FFE0134E4B2BBF143
:10882400000F02D011464846D8470AF1010ABAF1AE
:10883400040FAFD134B14FF0A043019AD3F81035EF
:10884400934202D105B0BDE8F08F0193029B0393DC
:108854009AE700BF006000407C610040C42A002009
:10886400142B0020014B1B68184700BF202B00204D
:108874000E4B984237B50D4602D0002003B030BDF0
:1088840000230DF107008DF80730FEF7F7FE084BC3
:108894001C7914B901221D601A719DF80700FEF7B6
:1088A40011FF002CE9D01120E8E700BF00200040B0
:1088B400202B0020034B984201BF034B00221A6077
:1088C4001A71704700200040202B002000234350E1
:1088D40082B043580193019B02B070470A4610B519
:1088E4004FF48E71FFF7F2FF136A9168C95C136A43
:1088F40001331362C0F81C1510BD8B690A4610B50C
:108904004FF4847123B9FFF7E1FFD0F8183510BD97
:10891400FFF7DCFF536AD168D0F81805C854536ACE
:1089240001335362F3E700001FB501238DF80030D3
:10893400044BCDE90110D3E900126846904705B015
:108944005DF804FB282B002030B54C4AD2F80433E0
:1089540013F4007F85B015464FD0D2F82431002B94
:108964004BD04FF492711046FFF7B0FF4FF40173F0
:10897400C2F80833424B93F8291009B90121516018
:108984003E4902228DF80020D1F88024C1F88024C9
:1089940003929A690292DA6801920022C3E90622DC
:1089A4006846D3E9001290473448D0F81C315BB1D3
:1089B40033490A6A4B699A420A464BD291F82830E5
:1089C400002B47D1FFF78AFF2C4AD2F8443193B1E8
:1089D4004FF4A2711046FFF779FF294B93F8291041
:1089E40009B1012111609A692AB100229A61586A79
:1089F400D968FFF799FF05B030BDD5F804335B079C
:108A0400D2D5D5F80831002BCED01D4C1B482146B9
:108A1400FFF773FF636AA2699A422346C4D1E269ED
:108A2400E1684AB12369E3600023606AA261E361FB
:108A34006362FFF779FFB7E794F829200AB90122A6
:108A44006A600E4A4FF40170C2F8080300229A616A
:108A5400586AEEE74FF48E710848FFF737FF516903
:108A64000029B1D00023029191688DF80030019162
:108A740053616846D2E900139847A5E700200040F7
:108A8400282B00202DE9F843564F047991462C22D7
:108A940002FB0472064692F82A200D46002A40F092
:108AA4009A8051490068FFF7E3FE8046002840F0B1
:108AB400958029683368481C0BD04FF0A0400122F0
:108AC4008A40C0F8082501F5E0724FF0030C40F825
:108AD40022C06868421C1FBF00F5E0724FF0A04C32
:108AE4004FF0000E4CF822E0AA6995F814C0C3F8C0
:108AF40024256A7DBCF1010F4CEA0202C3F86C25FF
:108B0400C3F81405C3F80C151DD1AA68511C1FBF66
:108B140002F5E0714FF0A0404FF0000C40F821C086
:108B2400E968481C0BD04FF0A04C01208840CCF8D9
:108B3400080501F5E0704FF0030E4CF820E0C3F88F
:108B44000815C3F810252C236343FA18C2F80490BF
:108B54002A69FA50B9F1000F2AD04FF48E713068A7
:108B64002D7FFFF7B3FE30684FF4A271FFF7AEFE1E
:108B740032681E4BC2F80433120B51B20029A8BF4D
:108B840001F160404FEA4513BABF194802F00F05DE
:108B940000F56140DBB2B4BF435580F8003302F006
:108BA4001F02012303FA02F24909124B43F8212060
:108BB40033680422C3F800252C2303FB047300222A
:108BC400C3E9062283F829205A61012283F82A2066
:108BD4004046BDE8F8834FF00808F9E74FF0110864
:108BE400F6E700BF282B00204D8902008000020018
:108BF40014ED00E000E100E0F8B5047900682D4DC3
:108C04000023C0F800352C2303FB04535B6873B1C5
:108C1400294BC0F80833020B53B201215B0902F05F
:108C24001F0201FA02F22033244941F82320D0F82C
:108C34000C65D0F81415D0F80835D0F810254FF08D
:108C4400FF37BE42C0F8147518BF06F5E076C0F8C9
:108C54000C75C0F80875C0F810751EBF4FF0A0471A
:108C64004FF0020C47F826C04E1C1FBF4FF0A04621
:108C740001F5E071022746F82170511C1FBF4FF027
:108C8400A04102F5E072022641F822605A1C1FBF7F
:108C940003F5E0734FF0A042022142F82310FFF7DE
:108CA40009FE2C2303FB0454002384F82A30636058
:108CB400F8BD00BF282B00208402020000E100E080
:108CC4002DE9F047214F06794FF02C0909FB067472
:108CD40080466569002D37D16261A16025624FF439
:108CE4008E71006884F82850FFF7F0FDD8F8000072
:108CF400012383602146FFF7F1FD6368A14693B920
:108D0400D8F800A0226A63699A4212D3D8F80030D6
:108D1400D3F81C21002AFBD00122DA602C2303FBA8
:108D24000676002373612846BDE8F08794F828305E
:108D340043B9DAF81C31002BF8D049465046FFF706
:108D4400CDFDDFE70F25E9E71125ECE7282B00200F
:108D54000023435082B043580193019B02B07047F3
:108D64001FB501238DF80030044BCDE90110D3E980
:108D740000126846904705B05DF804FB542B0020B0
:108D84007FB5374AD2F82461002E48D010464FF4FC
:108D94009271FFF7DDFF02238DF80030D2F88034A2
:108DA400C2F880340393D2F83C3502932D4BDA6831
:108DB40001920022C3E906226846D3E900129047D3
:108DC400274AD2F844317BB14FF4A2711046FFF721
:108DD400BFFF244B996939B10021C3E90611D96851
:108DE400D2F83C05FFF7BCFF1D4AD2F82031A3B1ED
:108DF4004FF490711046FFF7ABFF1A4B596961B1FC
:108E0400D2F84C150291002299688DF80020019146
:108E14005A616846D3E90012904704B070BDD2F895
:108E24001031002BCCD04FF488711046FFF790FF1F
:108E34000C4BD2F83C0599698842C1D1DC69D968E8
:108E440064B1D2F8005225F02005C2F800521A6924
:108E54009C61DA60DE61FFF783FFB1E79C61FAE7AA
:108E640000200040542B00202DE9F8435A4F067986
:108E74009146242202FB0672044692F820200D46F5
:108E8400002A40F0A28055490068FFF7F1FC8046B3
:108E9400002840F09D8029682368481C0BD04FF0BF
:108EA400A04001228A40C0F8082501F5E0724FF085
:108EB400030C40F822C06868421C1FBF00F5E07232
:108EC4004FF0A04C4FF0000E4CF822E0AA6995F840
:108ED40014C0C3F824256A7DBCF1010F4CEA0202D8
:108EE400C3F86C25C3F80C15C3F814051DD1AA6882
:108EF400511C1FBF02F5E0714FF0A0404FF0000C71
:108F040040F821C0E968481C0BD04FF0A04C012068
:108F14008840CCF8080501F5E0704FF0030E4CF8DA
:108F240020E0C3F80815C3F8102524237343FA1866
:108F3400C2F804902A69FA50B9F1000F34D04FF402
:108F4400887120682D7FFFF703FF4FF4907120682C
:108F5400FFF7FEFE4FF492712068FFF7F9FE2068D8
:108F64004FF4A271FFF7F4FE22681D4BC2F80433DC
:108F7400120B51B20029A8BF01F160404FEA45131A
:108F8400BABF184802F00F0500F56140DBB2B4BF68
:108F9400435580F8003302F01F02012303FA02F262
:108FA4004909114B43F8212023680822C3F80025FE
:108FB400242303FB06730022C3E906225A6101221B
:108FC40083F820204046BDE8F8834FF00808F9E70D
:108FD4004FF01108F6E700BF542B0020858D0200E6
:108FE4001003020014ED00E000E100E0F8B504799C
:108FF40000682D4D0023C0F80035242303FB0453DF
:109004005B6873B1294BC0F80833020B53B20121DA
:109014005B0902F01F0201FA02F22033244941F8ED
:109024002320D0F80C65D0F81415D0F80835D0F802
:1090340010254FF0FF37BE42C0F80C7518BF06F577
:10904400E076C0F81475C0F80875C0F810751EBF36
:109054004FF0A0474FF0020C47F826C04E1C1FBF2C
:109064004FF0A04601F5E071022746F82170511C2B
:109074001FBF4FF0A04102F5E072022641F82260C2
:109084005A1C1FBF03F5E0734FF0A042022142F8BF
:109094002310FFF70FFC242303FB0454002384F85C
:1090A40020306360F8BD00BF542B00201003020081
:1090B40000E100E001F06043B3F1005F2DE9F0410D
:1090C400074632D11B4B0679242505FB0635984605
:1090D4006C6964BB6A61A96000684FF49071FFF722
:1090E40037FE4FF4AC713868FFF732FE3B686A69AB
:1090F400A968C3F84415C3F8482501229A606A6830
:1091040062B9D3F82021D3F8584152B9002CF8D0D1
:109114000F24242303FB0686002373612046BDE845
:10912400F081002C18BF0F24F3E71024F6E7112474
:10913400F4E700BF542B002072DF704773DF7047E1
:1091440076DF70477ADF70477CDF70477FDF7047D8
:109154008FDF7047B1DF7047FDF7A0BF08B5064B3E
:1091640001211878FFF7EAFF08B1FDF797FF032004
:10917400BDE80840FEF7D4BFF82200200388212B65
:1091840013B5044652D024D8112B2DD0132B45D01F
:10919400102B41D12D4B2E482E49C01AC008000473
:1091A40040F00300FDF7C4FC0120FEF7B9FF0320E3
:1091B400FEF7C2FF284BA1882848198001F07EF8E9
:1091C40008B1FDF76BFFFDF739FF28B3FDF766FF24
:1091D40022E0522B32D0562B01D03B2B1CD1132131
:1091E400A088FFF7ADFFF0E7184B19481C49C01AD7
:1091F400C008000440F00300FDF79AFC0120FEF7CC
:109204009BFF154B4FF6FF721A80FDF72DFF08B137
:10921400FDF744FFFFF7A2FF02B010BD0E48002384
:109224001A4685210088FFF791FFCEE7002301A9A4
:109234008088ADF80430FFF78BFFC6E706480023AB
:109244001A4619460088FFF785FFBEE720AB0200E7
:1092540048AB020056B20200FA220020E42B0020A0
:1092640060B2020008B503784BB9054B3B2118885E
:10927400FFF766FF18B1BDE80840FDF70FBF08BD52
:10928400FA2200201C2810B50C461AD10F4B1048A6
:109294001049C01AC008000440F00300FDF748FC60
:1092A4000D4B0E491888224601F0ECF830F0080204
:1092B4000BD043F20202904207D043F201429042A3
:1092C40003D0BDE81040FDF7E9BE10BD20AB02009D
:1092D40048AB02006DB20200FA220020CC2B002021
:1092E40010B50B4B0B4CE41AE408240444F00304BB
:1092F40042B10020FEF714FF07492046BDE81040A4
:10930400FDF716BC1046FEF717FF0449F5E700BF4A
:1093140020AB020048AB020087B2020098B2020000
:10932400FDF7BCBE00B54FF40041A7B00020FDF727
:109334003BFA08B1FDF7B2FEFDF760F90120FEF734
:1093440010FFFEF703F908B1FDF7A8FE40F26662CC
:1093540001216948FDF71EFE08B1FDF79FFEFEF7E7
:10936400F3FC08B1FDF79AFE01F0F6F808B1FDF739
:1093740095FE002317A90120179301F075F908B190
:10938400FDF78CFE17A801F021FA08B1FDF786FE5F
:1093940011235A488DF8203001F05DFB574982B201
:1093A40008A8FFF7D1FE08B1FDF778FE08220021D6
:1093B40017A801F0FBFA524A4FF0C87317A8CDE979
:1093C4001723FFF7BFFE08B1FDF768FE00214D48E3
:1093D40000F06CFE08B1FDF761FE0023089317A9A5
:1093E400494B4A48179300F057FF08B1FDF756FE62
:1093F400474B4848089308A900F0D6FF08B1FDF789
:109404004DFE41F22353ADF80430424B424C9B7C59
:109414008DF806303C22002108A801F0C7FA022387
:109424008DF820303C2240F20163002117A8ADF8EA
:10943400223001F0BBFA22460123ADF86C3052F819
:10944400041B01AB08A81C9300F0A8F908B1FDF7B0
:1094540025FE324AA16817A800F0A0F908B1FDF76B
:109464001DFE1822002102A801F0A0FA0023012207
:10947400ADF8143003934FF480738DF80820ADF8E1
:109484001C3002AA4023244925480493FFF754FEC4
:1094940008B1FDF703FE1C22002117A801F086FA8B
:1094A40000234FF42022CDE91732ADF86A304FF48F
:1094B40020328DF86C301B4B19921C9303221A4BEB
:1094C4008DF8682017A81D9300F030FC08B1FDF753
:1094D400E5FD164B16481749C01AC008000440F0B1
:1094E4000300FDF725FBFFF739FEFDF7B7F9002868
:1094F400FBD1FEF73FFCF8E7E0220020AAB202000D
:109504005000A000B82B00205D910200E42B002045
:10951400E5920200CC2B0020E8220020F422002057
:10952400F8220020699202002593020020AB020079
:1095340048AB0200B8B202000369C1688B429DBF08
:109544008268D21802F1FF3203F1FF3394BF501A3C
:10955400581A70472DE9F041D0E9027405463E1BC4
:109564004068964220448846144404D901F0F5F931
:10957400EC60BDE8F0813246E41B01F0EEF92246CE
:1095840008EB06016868F1E72DE9F843C56806466B
:10959400894617464FF000083469B3687068A542DD
:1095A40028BFE418013C621B5C1BBC4228BF3C463C
:1095B400944228BF144649462844224601F0CDF976
:1095C400B3682544AB4208BF00253F1BA044A14417
:1095D400F560E1D14046BDE8F883000010B5114CB8
:1095E400114AA2610223C4E90433104BE361A2646B
:1095F4004FF400730E4A2362E264002310220D49E3
:10960400A362E01D6362E362A3656365E3652265AB
:1096140001F0FFF90849204601F0FBF92023A3716A
:1096240010BD00BFF02B0020D0B20200782C002027
:10963400682C0020D9B20200DDB20200F8B5184C43
:10964400182300FB033503FB00402544C46A012CA6
:109654000F46164611D024B1022C1BD000242046FC
:10966400F8BD2846FFF768FFB042F8D332463946C2
:109674002846FFF76FFF3446F1E72846FFF75CFF03
:109684008642344628BF0446224639462846FFF718
:1096940061FFE4E72846BDE8F840FFF775BF00BF67
:1096A400F02B0020FFF79ABF6DDF704779DF70471A
:1096B4007DDF704764DF70472DE9F04F85B00025EA
:1096C4000E9CBDF83CB027880191804691469A468D
:1096D4002E46B8F80020B2420CDC3DB12288013A93
:1096E400D21B92B2FF2A3BD80AF80720002005B00B
:1096F400BDE8F08FD8F8042052F826000390002229
:109704000DF10B0103A8FFF7D5FF0028EFD19DF859
:109714000B204A4522D12288002D14BF00200220AC
:1097240002EB0901014459451ADC45B9013292B2F0
:10973400019B22800AF8023022880132228022888A
:109744000DF10B01524403A8FFF7B4FF0028CED15A
:1097540021889DF80B200A44228001250136B8E7B0
:109764000C20C4E72DE9F341089CBDF824501746AA
:10977400CDE90045022206469846FFF79DFF50B901
:109784004346102239463046CDE9084502B0BDE8CB
:10979400F041FFF791BF02B0BDE8F0812DE9F04F31
:1097A40000231688138090F82D3085B007460D46A7
:1097B400144653B3082E01D80C2027E102A8FFF762
:1097C40073FF002840F0228123880822EA5423886A
:1097D40001339BB21B222380EA542088013080B2DB
:1097E400208006220DF10901284401F0B6F82388EF
:1097F4009DF8082006339BB212F0FE0218BF012226
:109804002380EA54238801332380BB78FBB1238867
:109814000433B342D0D802A8FFF748FF002840F031
:10982400F58023880322EA54238801339BB219224A
:109834002380EA542388BDF8082001339BB2E91839
:109844002380EA54120A4A70238802332380FA7868
:109854009AB12388D91CB142AED80221E954238895
:1098640001339BB201212380E95423880B449BB22A
:109874002380EA5423880B4423807A68AAB123887E
:10988400D91CB14298D8022192F90020E9542388C6
:1098940001339BB20A212380E954238801339BB20C
:1098A4002380EA542388013323803B89002B40F032
:1098B400A1803B8A5BB1CDE900462B4607220321F8
:1098C40007F11000FFF74EFF002840F09F803B8B0C
:1098D4005BB1CDE900462B461522142107F118008F
:1098E400FFF740FF002840F091803A6A002A40F0D8
:1098F4009080D7F82480B8F1000F30D0B8F8043045
:109904002188981C8A1C0244B2423FF655AFFE28B7
:109914003FF652AF03336B54238801339BB2FF22CB
:109924002380EA54238801339BB22380B8F80020B3
:10993400EA54E918120A4A702088023080B2208062
:10994400B8F804205AB1D8F8081000296BD028447C
:1099540001F003F82388B8F804201344238097F80F
:109964002C30002B40F09A80387800284ED03B8869
:10997400012B58D0228802F1020CB4453FF61CAFEB
:10998400012805D17B78023313449E42FFF414AFBF
:10999400023EB61AB6B202A905EB0C00ADF8086097
:1099A400FFF786FE90BB3978BDF80820022900F045
:1099B400BA807B78934202D3B24240F2B28001294A
:1099C40040F0B3809BB29E42C0F0AF80ADF8083047
:1099D4000821BDF80830FE2B3FF6EEAE2288013395
:1099E400AB542288013292B22280A95422881344B3
:1099F40023800BE0CDE900462B460622022107F125
:109A04000800FFF7AFFE00283FF453AF05B0BDE8F0
:109A1400F08FB4F800C00CF10603B3423FF6CCAEAD
:109A24001188052901D80720F0E76FF4486E01EB8F
:109A34000E039BB24FF27D3E7345F4D95388052B38
:109A4400F1D96FF44860181880B27045EBD94FF61D
:109A5400FF70814203D0834201D09942E3D80523A9
:109A640005F80C30238801339BB212212380E9547A
:109A7400238801339BB223801188E954E818090A2A
:109A84004170238802339BB223805288EA54E91838
:109A9400120A4A702388023323802AE7BB6A002B08
:109AA400C1D04FF000094FF00C0A4FF0160B97F895
:109AB4002C305FFA89F293427FF656AFB96A0AFBFB
:109AC40002F201EB0208B8F80430981CFE283FF6B5
:109AD40073AE208803332B54238801339BB2238035
:109AE40005F803B0238801339BB223808A5AEA54D1
:109AF400E918120A4A702088023080B22080B8F82F
:109B040004205AB1D8F8081000298CD0284400F059
:109B140024FF2388B8F804201344238009F10109A1
:109B2400C5E7092155E7B242FBD9ADF808604FE714
:109B340075DF704776DF70477ADF70477BDF7047E9
:109B4400034B1A8882420CBF18460020704700BF9E
:109B5400942E0020024B9B6903B11847704700BF45
:109B6400782E002073B586B23046FFF7E9FF04462D
:109B740070B1164D027A2B7B9A420BD200F10A0186
:109B84003046FFF7D5FFE8B1112801D0FFF7E2FF17
:109B940002B070BD002303722B7C43B13B213046DD
:109BA400FFF7C8FF30F0080301D0FFF7D3FF6B695C
:109BB400002BEDD000228DF80420ADF8066001A83A
:109BC4009847E5E7237A01332372E1E7782E0020F2
:109BD40013B50B46497A0F4C024669B9D4E9011012
:109BE4001C7A002C18BF01465868FDF7F1FC08B137
:109BF400FFF7B0FF02B010BD002119726369002B9A
:109C0400F8D00121ADF806008DF8041001A898479A
:109C1400F0E700BF782E00204B8802889A4213D8C0
:109C240042889A4210D380888A8840F2F31398427B
:109C340094BF031AC31A934206D800F2F310904259
:109C440034BF002001207047002070470388112B87
:109C540070B5014648D002D8102B1ED070BD122B0F
:109C640052D0502BFAD12F4BC288DB899A42F5D1BE
:109C7400038A022BF2D186883046FFF761FF05463E
:109C84000028EBD001F1120000F021F930BB686824
:109C9400FDF7E4FC0028E1D009E0C37B012BDDD112
:109CA4004FF6FF70FFF74CFF054620B90420BDE8CE
:109CB4007040FFF74FBF1C4A8E8806800023037252
:109CC4001368C5F80A300A30536843601031FFF74F
:109CD400A3FF144B6872DB89002BBFD129463046A1
:109CE400BDE87040FFF774BF8088FFF729FF044682
:109CF4000028B3D04068FDF7B1FC08B1FFF72AFF94
:109D04004FF6FF732380A9E786883046FFF718FFD4
:109D140005460028A2D008310A30FFF77DFF68729B
:109D2400DCE700BF782E0020A82E0020F8B50646F8
:109D340048B305460FCD154F3C460FC495E80700C0
:109D440084E807003068124C3C60B0B1FFF7F4FEC1
:109D5400C0B9326813682360536863600D480E4AC3
:109D64004FF6FF7303800D4B40F8043F0021FDF7CD
:109D74001DFC002818BF032004E02046FFF7DEFE88
:109D84000028EBD0F8BD0E20FCE700BF782E0020A1
:109D9400A82E0020942E0020699B0200B02E0020E3
:109DA40073B50191019C06466CB100252C462946E9
:109DB40001A8FDF7B0FC18B106EB440301349D8003
:109DC4000135142DF3D13046346002B070BD00006B
:109DD4002DE9F04703888488112B8CB006463CD0CB
:109DE4001A2B3FD0102B17D1274DAB68DB430093C0
:109DF40069686846FDF7B8FC009901A8FFF7D0FF31
:109E04000DF108094FF00008019B984507D3132C66
:109E140013D90420FDF742F90CB0BDE8F08739F8F6
:109E240002AB00270137514605EB8700FDF769FCBB
:109E34001D2FF7D108F10108E6E721461348FDF785
:109E440057FC21461248FDF753FCF37B012BE3D06A
:109E540010482146FDF74CFCDEE70C482146FDF78F
:109E640050FCD9E7057A0C482D09012D214606D965
:109E7400FDF73EFC022D21460848F0D0EAE7FDF745
:109E840040FC21460548EAE7D02E0020D82E0020C9
:109E9400D42E0020DC2E0020E02E0020E42E002012
:109EA400AADF7047002301380B70042806D8DFE8C6
:109EB40000F00306080A0C0011230B7070472123DD
:109EC400FBE73123F9E71223F7E72223F5E70078CC
:109ED40000F001007047F0B58B7891B0002B0C4670
:109EE40008BF01238DF80E3005460B88ADF80C3001
:109EF400002116466846032200F058FD6946607C3E
:109F0400FFF7D0FF0DF10101A07CFFF7CBFF9DF817
:109F14000230E27B62F3C303227C62F30413227BEC
:109F240062F30003227D002A14BF0222012262F39D
:109F3400420300211C2209A88DF8023000F036FDEE
:109F4400637B13F0300F15D002AF03220021384693
:109F540000F02CFD0DF10901E07CFFF7A3FF1123B4
:109F64008DF808309DF80A300E97012262F34203FF
:109F74008DF80A30637B8DF824301422A37B8DF88E
:109F84002530002104A800F011FD03AB0493A3883D
:109F9400ADF81C30A368CDF814D01BB1E288ADF83D
:109FA40018200893A369002B2ED001AF03220021AF
:109FB400384600F0FBFCA3691A88ADF82C205A88B7
:109FC400187BADF82E2039465A680A920D97FFF790
:109FD40069FFA3690DF10501587BFFF763FFA269CF
:109FE4009DF80630917A61F3C303D17A61F30413C7
:109FF400117A927B002A61F3000314BF022201222A
:10A0040062F342038DF80630E36903B10C933346DF
:10A0140004AA09A92846FFF743FF11B0F0BD90DF59
:10A024007047A5DF7047B5DF704700007FB5002398
:10A03400ADF80810ADF80A106A4602A90646039363
:10A044000093ADF80430FFF7EAFF054600B3124B66
:10A05400124CE41AE408FDF7F1FE240444F0010470
:10A06400034632460E492046FCF76FFDBDF800203A
:10A07400BDF8023052EA030103D00A492046FCF736
:10A0840064FDBDF804201AB107492046FCF754FDCD
:10A09400284604B070BD00BF20AB020058AB0200DC
:10A0A400E4B202002EB302006DB3020078B14FF0A7
:10A0B400171303601B2303711723C380038141F625
:10A0C4001B320023016143818281184670470E20B0
:10A0D4007047000013B5034680880C46A0B91A885F
:10A0E400232A00F0A38011D8102A22D0112A51D09B
:10A0F400A37A4BB1E1880020FFF793FF002840F0DA
:10A104009B804FF48073638102B010BD3A2A49D01A
:10A11400552A5FD0242AEBD11A7A0B694A73002B93
:10A12400E6D04DF67A21ADF8040000918DF80420B4
:10A1340078E0DB7B0A790A73012B13D0022B14D04D
:10A14400E18823898B4205D20020FFF76AFF70B9AA
:10A154000123E372217B637B8B42C9D20020FFF78A
:10A1640065FFC5E70B88E380EAE74B88FBE7112826
:10A1740002D10123A372EDE7FDF760FE374A384BA5
:10A1840038499B1ADB081B04024643F00100FCF724
:10A19400D3FCDFE71723CB800B8141F61B334881C7
:10A1A4008B81A5E75B89CA88934228BF1346172B86
:10A1B4000A6938BF17230B814AB1C97A39B140F60D
:10A1C40077210091ADF8043069462046904700237A
:10A1D40063818DE7DB88C988A072172B38BF1723EA
:10A1E4008B4228BF0B462381FFF71DFF60B1FDF7AB
:10A1F40025FE1A4A1A4B1C499B1ADB081B0402460B
:10A2040043F00100FCF798FCE37A002B7FF470AF75
:10A214002369002B3FF46CAF40F677220092228929
:10A22400ADF8042069462046984761E7197A237BF4
:10A23400994228BF194692E711283FF465AFFDF70C
:10A24400FDFD064A064B07499B1ADB081B04024620
:10A2540043F00100FCF770FC56E700BF20AB02009E
:10A2640058AB0200C3B30200F4B30200B0DF70477E
:10A2740066DF704710B5002104464088FFF7F8FFF9
:10A28400034608B9237210BD112801D10123F9E74F
:10A294006368BDE81040184760B159B10378DE2BFC
:10A2A4000AD00B684360DE2303704FF6FF734380CC
:10A2B400002070470E2070470820704728B10378AB
:10A2C400DE2B04D14180002070470E207047082007
:10A2D4007047F0B5054685B00C46F1B1E8B10B788E
:10A2E400DE2B1AD182884B889A4204D10B7A13B19F
:10A2F4000846FFF7BFFF2B88112B32D0512B0ED00D
:10A30400012B0AD12B7A012B07D1A98862889142AB
:10A3140003D123722046FFF7ADFF05B0F0BDAE8830
:10A324006388B342F9D1AF79022FF6D1AD7B2B1FED
:10A33400022BF2D800211022684600F037FB052DCD
:10A3440014BF4FF4C0730023694630468DF8007083
:10A35400ADF80430FFF78AFF0028DED06368984721
:10A36400DBE76388AA889A4204BF4FF6FF736380D1
:10A37400D3E7A8DF7047AEDF704762DF704702881B
:10A38400502A10B40DD1C4884A88944209D1028A53
:10A39400012A06D14B6923B1827C5DF8044B808885
:10A3A40018475DF8044B7047F0B50B6843618FB0F4
:10A3B400334B02AA044603F110071646186859687D
:10A3C400154603C50833BB422A46F7D104F11201EE
:10A3D4003046FFF7D2FF00284FD1A37C8DF806301A
:10A3E400224641F2235301A90120ADF80430FFF7BE
:10A3F400C0FF002841D10146202206A800F0D6FA69
:10A4040041F22453ADF81830A37C8DF81A309DF82E
:10A414002530224623F0120301254FF0011643F0A4
:10A42400120332F80A0B079606A98DF825308DF829
:10A4340029508DF82B50FFF74EFDF0B9014620222C
:10A4440006A800F0B3FA41F22553ADF81830A37C06
:10A454008DF81A309DF825300796224623F00A031A
:10A4640043F00A0332F8020B8DF8253006A98DF863
:10A4740029508DF82A50FFF72EFD0FB0F0BD00BF14
:10A4840030B4020070B588B00E468DF80720102253
:10A49400054601240DEB02000021ADF80E4000F04A
:10A4A40085FA7389ADF810300DF10703079304A9F9
:10A4B4000DF10E0328468DF812400693FFF75BFF5B
:10A4C40008B070BD10DF704713B5044609496846EB
:10A4D400FDF77FFC019808B902B010BDD0E9003146
:10A4E4002046984718B16846FDF77DFCF2E7112035
:10A4F400F2E700BF44B4020013B5044607496846B6
:10A50400FDF767FC019B0BB902B010BD2046D3E9EF
:10A51400002190476846FDF766FCF3E75CB402004F
:10A524000B4991F816335A09EC231341DB0706D57E
:10A53400084B9A683AB94FF480030B60704742F2B3
:10A544000200FCF7ABBD1A6842F480021A6070473F
:10A5540000E100E0802A0020F7B5194F3C7864BB85
:10A56400184E012520463570FFF7AEFF112821D083
:10A574002046FFF7C1FF144B8DF803401868019083
:10A584000DF10300FDF77AF8104901A8FFF79AFFCF
:10A594000446B0FA80F0400938709DF80300FDF7D6
:10A5A40091F83CB90A4B34701C70FFF7B9FF284688
:10A5B400FFF7A2FF204603B0F0BD0824FAE700BF6E
:10A5C400492F0020482F002040B40200BD70020033
:10A5D4004A2F0020014B1878704700BF492F0020F4
:10A5E40007B508496846FDF7F4FB019B13B903B0AE
:10A5F4005DF804FBD3E9002090476846FDF7F3FBC0
:10A60400F3E700BF50B40200FFF7EABF60DF704712
:10A6140069DF704761DF704730B5114B1B7891B02B
:10A62400E3B1104D34240DF1020103A8ADF802404A
:10A63400FFF7F0FF70B9294601A8FDF7CAFB029B9A
:10A64400002BF0D003A8D3E90021904701A8FDF71F
:10A65400CAFBF4E7052801D0FCF720FD11B030BD9A
:10A664004B2F00209CB6020030B5054685B00C4641
:10A67400002900F099804D4B0B600C22002101A8A9
:10A6840000F094F901238DF8063022688DF8045007
:10A69400062301A92020ADF80830FFF7B9FF60B107
:10A6A400FDF7CCFB424A434B43499B1ADB081B048E
:10A6B400024643F00100FCF73FFA0C22002101A8F6
:10A6C40000F074F901238DF805302268002301A9F4
:10A6D4004020ADF80630FFF79BFF60B1FDF7AEFBFD
:10A6E400334A344B35499B1ADB081B04024643F0BA
:10A6F4000100FCF721FA0C22002101A800F056F910
:10A704000A2322688DF8043001A90120FFF780FF95
:10A7140060B1FDF793FB264A264B29499B1ADB08B7
:10A724001B04024643F00100FCF706FA0C22002148
:10A7340001A800F03BF94FF4B0632268019301A92A
:10A74400A120FFF765FF60B1FDF778FB184A194BAC
:10A754001C499B1ADB081B04024643F00100FCF76A
:10A76400EBF90C22002101A800F020F99DF8043037
:10A7740022686FF3000301A9A0208DF80430FFF7CD
:10A7840047FF034668B1FDF759FB094A094B0E49D7
:10A794009B1ADB081B04024643F00100FCF7CCF9CA
:10A7A4000023184605B030BD0E23FAE7B822002076
:10A7B40020AB020068AB020070B40200B6B4020021
:10A7C40002B502004EB502009FB50200F8B5064678
:10A7D4000768FFF71BFF3368BB4205461DD9194BB9
:10A7E400194C1A49E41AE408240444F002042046EB
:10A7F400FCF79EF9336816493A462046FCF7A5F95A
:10A804004FF080533268D3F80C3112499B0203F1A4
:10A8140000539A1A2046FCF78FF925B90E4B0122F2
:10A824001A702846F8BD2846FDF708FB054A064B72
:10A834000A499B1ADB081B04024643F00100FCF79B
:10A844007BF9EEE720AB020068AB0200F2B5020030
:10A8540021B6020052B602004B2F00207CB6020043
:10A864004BDF70471FB50D4C01A8FFF7F9FF70B916
:10A87400214602A8FDF7ADFA039B002BF4D0019802
:10A88400D3E90021904702A8FDF7ADFAF4E70528C3
:10A8940001D0FCF703FC04B010BD00BFB4B6020045
:10A8A4007F2805D8034B185C034B5B5C184070474A
:10A8B40000207047CCB602004CB70200A0F161033F
:10A8C400192B98BF20387047A0F14103192B98BF6A
:10A8D400203070477F2805D8034B185C034B5B5C22
:10A8E4001840704700207047CCB602004CB70200F5
:10A8F400A0F16103192B98BF20387047A0F14103E0
:10A90400192B98BF203070477F299ABF017001200E
:10A914006FF02E0070475AB10A787F2A0AD800B126
:10A924000260002119605960501A18BF0120704755
:10A93400002070476FF02E007047000008B5034BED
:10A944005B689B681B68984708BD00BFFC22002019
:10A9540008B50921FFF7F2FF08BD844640EA010368
:10A9640013F0030F18D18446202A0BD32DE9F007E6
:10A97400B1E8F807A0E8F807A2F12002202AF7D2EC
:10A98400BDE8F007042A07D351F8043B40F8043B20
:10A99400A2F10402042AF7D2002A05D011F8013BDF
:10A9A40000F8013B013AF9D1604670478446002A19
:10A9B4002DD010F0030F04D000F8011B013A26D06B
:10A9C400F7E7C9B241EA012141EA0141202A12D341
:10A9D400A2F120022DE9F0030B460C460D460E466B
:10A9E4000F4688468946A0E8FA03203AFBD2BDE820
:10A9F400F00320320BD0042A05D340F8041B043A98
:10AA040005D0042AF9D200F8011B013AFBD16046B3
:10AA14007047024610F0030F16D111F0030F13D143
:10AA24002DE9F0004FF001374FF0803351F8044B1B
:10AA3400A4EB070525EA04051D4002D142F8044BA6
:10AA4400F4E7A1F10401F0BC11F8013B02F8013B69
:10AA5400002BF9D1704700F1010110F0030F11D060
:10AA640010F8012B002A23D010F0030F0AD010F89D
:10AA7400012B002A1CD010F0030F03D010F8012B77
:10AA8400002A15D02DE970004FF001324FF08033C9
:10AA940050F8044BA4EB020525EA04051D4000D13F
:10AAA400F6E7A0F1040070BC10F8012B002AFBD1DA
:06AAB400A0EB0100704759
:08AABC00D5810200000000003A
:10AAC400D59D020000000000D9A00200B82B002090
:10AAD400519C020000000000D7A20200E42B0020D9
:10AAE40083A30200CC2B002081910200000000000F
:08AAF400558202000000000081
:10AAFC001DA602000000000069A802000000000072
:10AB0C00942300205C240020642400209C2300203B
:04AB1C00180000001D
:10AB20003AB202000000000040B202000000000043
:10AB300047B20200000000004BB20200000000001B
:10AB400050B202000000000021AC0200000003032C
:10AB500034B202000000000023B40200000003032E
:10AB600068B4020000000303A8B60200000003035B
:10AB7000C0B602000000030334AD02000000000074
:10AB8000A8AB020000000000F1AB0200CC220020C4
:10AB9000D4AB020000000000E0AB0200D422002091
:10ABA0000338FDD870470000D963020045640200F5
:10ABB000D5630200FFFFFFFFFFFFFFFFFFFFFFFF67
:10ABC000FFFFFFFF00000000000000000000D601B2
:10ABD0000601000069650200CD65020019650200EA
:10ABE000756172745F6C6F675F6261636B656E64E1
:10ABF000007274745F6C6F675F6261636B656E6433
:10AC000000000000882800207F00000008290020A4
:10AC10004261636B656E647320666C75736865640E
:10AC200000617070000000005BAC0200A4AC020088
:10AC300063AC0200ACAC0200B4AC0200BCAC0200DD
:10AC4000C4AC0200CCAC0200D4AC020020253032EF
:10AC50007800202020007C002563001B5B306D0005
:10AC60002573001B5B313B33316D0025734C6F67DF
:10AC7000732064726F7070656420282564292573C1
:10AC80000D0A003C25733E2025733A200000000089
:10AC900000000000FAAC0200DCAC0200E4AC0200F0
:10ACA000E9AC02001B5B313B33306D001B5B313B79
:10ACB00033326D001B5B313B33336D001B5B313B2B
:10ACC00033346D001B5B313B33356D001B5B313B17
:10ACD00033366D001B5B313B33376D007761726E2D
:10ACE000696E6700696E666F006465627567000073
:10ACF00028290020466174616C206572726F7200B1
:10AD000053797374656D207265736574000000007B
:10AD10000338FDD87047303132333435363738395F
:10AD20004142434445460000C4AA0200C4AA0200AE
:10AD3000040000007077725F6D676D7400556E6B74
:10AD40006E6F776E206572726F7220636F6465003C
:10AD50000000000078AE02000100000084AE020096
:10AD600002000000A2AE020003000000C3AE020019
:10AD700004000000D6AE020005000000E7AE0200AD
:10AD800006000000FBAE02000700000013AF020047
:10AD9000080000002BAF02000900000043AF0200D2
:10ADA0000A0000005CAF02000B00000074AF02005C
:10ADB0000C0000008BAF02000D0000009FAF0200EE
:10ADC0000E000000B1AF02000F000000C0AF020093
:10ADD00010000000D4AF020011000000EBAF020031
:10ADE00012000000FAAF0200130000000FB00200D2
:10ADF0008000000023B002008100000044B0020087
:10AE00008200000060B00200830000007CB00200FD
:10AE1000840000009AB0020085000000BBB0020070
:10AE200086000000E0B0020090000000F7B00200D1
:10AE30009100000015B102009200000033B1020041
:10AE40000082000048B102000182000066B10200E9
:10AE50000282000082B10200008400009EB1020064
:10AE600001840000C2B1020002840000ECB10200C3
:10AE70000384000011B202004E52465F5355434313
:10AE8000455353004E52465F4552524F525F535600
:10AE9000435F48414E444C45525F4D495353494EE0
:10AEA00047004E52465F4552524F525F534F4654F1
:10AEB0004445564943455F4E4F545F454E41424CD1
:10AEC0004544004E52465F4552524F525F494E54E0
:10AED00045524E414C004E52465F4552524F525FD2
:10AEE0004E4F5F4D454D004E52465F4552524F52B8
:10AEF0005F4E4F545F464F554E44004E52465F459D
:10AF000052524F525F4E4F545F535550504F525410
:10AF10004544004E52465F4552524F525F494E568D
:10AF2000414C49445F504152414D004E52465F45AD
:10AF300052524F525F494E56414C49445F5354411F
:10AF40005445004E52465F4552524F525F494E564D
:10AF5000414C49445F4C454E475448004E52465F71
:10AF60004552524F525F494E56414C49445F464C00
:10AF7000414753004E52465F4552524F525F494E31
:10AF800056414C49445F44415441004E52465F454E
:10AF900052524F525F444154415F53495A45004E0B
:10AFA00052465F4552524F525F54494D454F55549A
:10AFB000004E52465F4552524F525F4E554C4C0028
:10AFC0004E52465F4552524F525F464F524249449D
:10AFD00044454E004E52465F4552524F525F494ED5
:10AFE00056414C49445F41444452004E52465F45ED
:10AFF00052524F525F42555359004E52465F45528E
:10B00000524F525F434F4E4E5F434F554E54004E8A
:10B0100052465F4552524F525F5245534F5552432D
:10B020004553004E52465F4552524F525F4D4F447A
:10B03000554C455F4E4F545F494E495449414C4928
:10B040005A4544004E52465F4552524F525F4D554D
:10B050005445585F494E49545F4641494C45440068
:10B060004E52465F4552524F525F4D555445585FC0
:10B070004C4F434B5F4641494C4544004E52465F5E
:10B080004552524F525F4D555445585F554E4C4FA7
:10B09000434B5F4641494C4544004E52465F455242
:10B0A000524F525F4D555445585F434F4E445F4990
:10B0B0004E49545F4641494C4544004E52465F4517
:10B0C00052524F525F4D4F44554C455F414C524593
:10B0D0004144595F494E495449414C495A454400FD
:10B0E0004E52465F4552524F525F53544F52414762
:10B0F000455F46554C4C004E52465F4552524F52AA
:10B100005F4150495F4E4F545F494D504C454D454E
:10B110004E544544004E52465F4552524F525F4690
:10B120004541545552455F4E4F545F454E41424C48
:10B130004544004E52465F4552524F525F494F5F61
:10B1400050454E44494E47004E52465F4552524F7D
:10B15000525F4452565F5457495F4552525F4F56B3
:10B16000455252554E004E52465F4552524F525F25
:10B170004452565F5457495F4552525F414E4143D6
:10B180004B004E52465F4552524F525F4452565FFB
:10B190005457495F4552525F444E41434B004E5213
:10B1A000465F4552524F525F424C455F49505350A3
:10B1B0005F52585F504B545F5452554E4341544573
:10B1C00044004E52465F4552524F525F424C455FDB
:10B1D000495053505F4348414E4E454C5F414C529D
:10B1E000454144595F455849535453004E52465FB8
:10B1F0004552524F525F424C455F495053505F4C4D
:10B20000494E4B5F444953434F4E4E45435445448A
:10B21000004E52465F4552524F525F424C455F4985
:10B220005053505F504545525F52454A454354453F
:10B2300044001E1F636C6F636B00434C4F434B0015
:10B240004750494F54450050525300554152540005
:10B25000554152544500436F6E6E656374656400DA
:10B26000446973636F6E6E65637465640053656EE5
:10B270006420627574746F6E2073746174652063EA
:10B2800068616E67652E0052656365697665642046
:10B290004C4544204F4E21005265636569766564D4
:10B2A000204C4544204F464621004E6F726469632E
:10B2B0005F426C696E6B7900426C696E6B792065D8
:10B2C00078616D706C6520737461727465642E00B2
:10B2D0005465726D696E616C005254540053454759
:10B2E0004745520073645F626C655F6761705F64BD
:10B2F0006174615F6C656E6774685F7570646174BA
:10B3000065282920287265717565737429206F6E10
:10B3100020636F6E6E656374696F6E203078257878
:10B320002072657475726E65642025732E005468F2
:10B3300065207265717565737465642054582F5269
:10B3400058207061636B6574206C656E677468204B
:10B35000697320746F6F206C6F6E6720627920258F
:10B36000752F2575206F63746574732E005468659E
:10B370002072657175657374656420636F6D6269B1
:10B380006E6174696F6E206F6620545820616E6420
:10B39000205258207061636B6574206C656E677411
:10B3A000687320697320746F6F206C6F6E67206202
:10B3B00079202575206D6963726F7365636F6E64A4
:10B3C000732E0073645F626C655F67617474635FA2
:10B3D00065786368616E67655F6D74755F726571CE
:10B3E0007565737428292072657475726E656420A2
:10B3F00025732E0073645F626C655F67617474739C
:10B400005F65786368616E67655F6D74755F7265AF
:10B41000706C7928292072657475726E65642025B8
:10B42000732E006E72665F626C655F676174740094
:10B4300023D1BCEA5F782315DEEF12120000000072
:10B4400001000007F4AA0200F4AA020008000000AC
:10B45000FCAA02000CAB020008000000F4AA0200E3
:10B46000FCAA0200080000006E72665F7364680048
:10B4700073645F626C655F6366675F7365742829D8
:10B480002072657475726E65642025732077686517
:10B490006E20617474656D7074696E6720746F20BE
:10B4A00073657420424C455F434F4E4E5F434647A1
:10B4B0005F4741502E0073645F626C655F6366672F
:10B4C0005F73657428292072657475726E656420D7
:10B4D0002573207768656E20617474656D7074697A
:10B4E0006E6720746F2073657420424C455F47413E
:10B4F000505F4346475F524F4C455F434F554E5454
:10B500002E0073645F626C655F6366675F7365746A
:10B5100028292072657475726E6564202573207702
:10B5200068656E20617474656D7074696E672074EF
:10B530006F2073657420424C455F434F4D4D4F4E15
:10B540005F4346475F56535F555549442E00736429
:10B550005F626C655F6366675F736574282920723C
:10B56000657475726E6564202573207768656E203A
:10B57000617474656D7074696E6720746F20736593
:10B580007420424C455F47415454535F4346475FE4
:10B59000415454525F5441425F53495A452E0073FF
:10B5A000645F626C655F6366675F736574282920FA
:10B5B00072657475726E6564202573207768656E98
:10B5C00020617474656D7074696E6720746F207388
:10B5D000657420424C455F47415454535F4346478E
:10B5E0005F534552564943455F4348414E474544A2
:10B5F0002E00496E73756666696369656E742052C4
:10B60000414D20616C6C6F636174656420666F727C
:10B610002074686520536F66744465766963652E8F
:10B62000004368616E6765207468652052414D2053
:10B630007374617274206C6F636174696F6E2066DD
:10B64000726F6D203078257820746F2030782578DF
:10B650002E004D6178696D756D2052414D207369E2
:10B660007A6520666F72206170706C6963617469BD
:10B670006F6E20697320307825782E0073645F62C6
:10B680006C655F656E61626C6528292072657475F2
:10B69000726E65642025732E00000000C4AA0200AB
:10B6A000F4AA0200080000006E72665F7364685FAF
:10B6B000626C6500BCAA0200C4AA02000800000077
:10B6C0006E72665F7364685F736F63002020202072
:10B6D0002020202020682828282820202020202002
:10B6E0002020202020202020202020204810101062
:10B6F000101010101010101010101010848484847A
:10B70000848484848484101010101010108181812E
:10B710008181810101010101010101010101010199
:10B72000010101010101011010101010108282822C
:10B730008282820202020202020202020202020269
:10B740000202020202020210101010200007032061
:10B7500004170201085710408000000000B90200E1
:10B76000C4B70200D8B8020053756E004D6F6E006A
:10B770005475650057656400546875004672690029
:10B7800053617400000000004A616E00466562006B
:10B790004D617200417072004D6179004A756E0012
:10B7A0004A756C0041756700536570004F63740003
:10B7B0004E6F76004465630000000000414D00506C
:10B7C0004D000000FCB80200F8B80200F8B8020012
:10B7D000F8B80200F8B80200F8B80200F8B80200A1
:10B7E000F8B80200F8B80200F8B80200FFFFFFFF47
:10B7F000FFFFFFFFFFFFFFFFFFFF000038B8020061
:10B8000068B7020074B8020088B70200BCB7020033
:10B810001CB80200CCB8020028B80200256D2F2504
:10B82000642F257900000000256120256220256510
:10B83000202554202559000053756E646179004D10
:10B840006F6E646179005475657364617900576542
:10B85000646E6573646179005468757273646179AC
:10B86000004672696461790053617475726461792C
:10B87000000000004A616E7561727900466562726F
:10B8800075617279004D6172636800417072696C14
:10B89000004D6179004A756E65004A756C7900410A
:10B8A00075677573740053657074656D62657200B9
:10B8B0004F63746F626572004E6F76656D6265727C
:10B8C00000446563656D62657200000025483A2595
:10B8D0004D3A255300000000A5A80200C1A80200AF
:10B8E000CDA80200D9A80200F5A8020001A9020013
:10B8F0000DA902001BA90200000000002E0000009C
:0CB9000043000000504F53495800000065
:10B90C00000000000020004000000000002000406B
:10B91C000000000000000000FF000000000000001C
:10B92C00FF0000000090D0031C000300899202006D
:10B93C00782B00201F000000972B00201F00000018
:10B94C00FF00FFFF5CB702005CB702005CB70200AF
:08B95C005CB702005CB70200B9
:040000032000637501
:00000001FF
