:020000022000DC
:1060000000000120B5620200DD620200DF620200D2
:10601000E1620200E3620200E562020000000000AB
:10602000000000000000000000000000E762020025
:10603000E962020000000000EB620200ED62020073
:106040001D720200EF62020031780200EF6202006E
:10605000EF620200EF62020051750200EF6202007F
:10606000EF620200EF620200EF620200EF620200E4
:10607000EF620200D97B0200EF620200EF620200D1
:10608000EF62020029A50200EF620200EF62020047
:1060900069A50200EF62020095F30200EF620200C0
:1060A000EF620200EF620200EF620200EF620200A4
:1060B000EF620200EF62020000000000000000003A
:1060C000EF620200EF620200EF620200EF62020084
:1060D000EF620200EF620200EF62020000000000C7
:1060E00000000000000000000000000000000000B0
:1060F00000000000000000000000000000000000A0
:10610000000000000000000000000000000000008F
:10611000000000000000000000000000000000007F
:10612000000000000000000000000000000000006F
:10613000000000000000000000000000000000005F
:10614000000000000000000000000000000000004F
:10615000000000000000000000000000000000003F
:10616000000000000000000000000000000000002F
:10617000000000000000000000000000000000001F
:10618000000000000000000000000000000000000F
:1061900000000000000000000000000000000000FF
:1061A00000000000000000000000000000000000EF
:1061B00000000000000000000000000000000000DF
:1061C00000000000000000000000000000000000CF
:1061D00000000000000000000000000000000000BF
:1061E00000000000000000000000000000000000AF
:1061F000000000000000000000000000000000009F
:1062000010B5054C237833B9044B13B10448AFF3F0
:1062100000800123237010BDE42D00200000000049
:1062200018AC030008B5034B1BB103490348AFF397
:10623000008008BD00000000E82D002018AC03001D
:10624000154B002B08BF134B9D46A3F5803A002148
:106250008B460F461348144A121A0FF047FC0F4B97
:10626000002B00D098470E4B002B00D09847002001
:10627000002104000D000D48002802D00C48AFF3A7
:1062800000800FF0D5FB2000290008F0CFFD0FF0B3
:10629000BBFB00BF00000800000001200000000060
:1062A00000000000E42D0020CC3B00200000000096
:1062B000000000000649074A074B9B1A03DD043B18
:1062C000C858D050FBDC03F0BFF8FFF7B9FF00005F
:1062D000A4AD0300902B0020E42D0020FEE7FEE794
:1062E000FEE7FEE7FEE7FEE7FEE7FEE7FEE7FEE786
:1062F00080B485B000AF78600B46FB701346BB706E
:106300000023FB607B68012B35D8BB78012B09D1BA
:10631000FB78012B04D17B68DBB20E33DBB200E0EB
:106320000023BB70FB78012B04D0022B0BD0002B79
:1063300013D01CE014497A6813465B0013440B44E5
:10634000BA781A7019E010497A6813465B00134452
:106350000B440133BA781A700FE00B497A68134680
:106360005B0013440B440233BA781A7005E007232C
:10637000FB6000BF01E00723FB60FB681846143791
:10638000BD465DF8047B7047002E002080B582B0CA
:1063900000AF012200210020FFF7AAFF78607B6890
:1063A000002B04D07B68072B01D07B681CE0072200
:1063B00002210120FFF79CFF78607B68002B04D04E
:1063C0007B68072B01D07B680EE0042202210020AD
:1063D000FFF78EFF78607B68002B04D07B68072B6B
:1063E00001D07B6800E0002318460837BD4680BD19
:1063F00080B582B000AF012202210020FFF778FFB4
:1064000078607B68002B04D07B68072B01D07B6809
:106410001CE0072202210120FFF76AFF78607B68F9
:10642000002B04D07B68072B01D07B680EE00A228A
:1064300000210020FFF75CFF78607B68002B04D010
:106440007B68072B01D07B6800E0002318460837E3
:10645000BD4680BD80B584B000AF786039607B6890
:106460001B88102B02D0112B18D02FE0194B1B6862
:10647000002B0DD1FFF78AFFF860FB68002B07D0D7
:10648000154B1B68002B03D0134B1B68F86898470B
:10649000104B1B6801330F4A136017E00D4B1B684C
:1064A000013B0C4A13600B4B1B68002B0DD1FFF70F
:1064B0009FFFF860FB68002B07D0074B1B68002B81
:1064C00003D0054B1B68F868984700BF00BF103722
:1064D000BD4680BD0C2E0020082E002080B582B065
:1064E00000AF0021002008F0F9FB78607B681846B7
:1064F0000837BD4680BD80B582B000AF08F068FCAB
:1065000078607B6818460837BD4680BD80B485B08A
:1065100000AF78607B6813F1360F0CD0002B03D0EE
:1065200013F1380F03D00AE00023FB600BE048F2C0
:106530001153FB6007E048F21453FB6003E048F29C
:106540001653FB6000BFFB6818461437BD465DF864
:10655000047B704780B584B000AFF860B9607A60A2
:106560007968B86800F0E0FB002318461037BD4694
:1065700080BD000080B588B002AF786039607B686C
:1065800004337B61002000F021FB38613B69002B64
:1065900001D03B6910E0786909F0BAFF002300934D
:1065A000002300220649786909F0FBFFF860F868CB
:1065B000FFF7ACFF38613B6918461837BD4680BD10
:1065C0005565020080B584B000AF78607B68043305
:1065D000FB60F86809F0FBFF00F03EFB0023184663
:1065E0001037BD4680BD80B483B000AF78604FF0F7
:1065F000A04318460C37BD465DF8047B704780B554
:1066000084B000AF7860084611461A460346FB7016
:106610000B46BB7013467B703B1D1846FFF7E3FF2C
:10662000F860FA78BB785B001A437B789B001A43CA
:106630003B7E1B0242EA03013B7F1B047A6819433D
:10664000FB6802F5E07243F8221000BF1037BD4628
:1066500080BD80B584B002AF786000230193002331
:1066600000930023012201217868FFF7C8FF00BFD3
:106670000837BD4680BD80B584B002AF78600B4658
:10668000FB70FA7800230193002300931346002245
:1066900000217868FFF7B3FF00BF0837BD4680BD13
:1066A00080B584B000AF78603B1D1846FFF79BFFB4
:1066B000F8607B68012202FA03F31946F86800F0DB
:1066C00072F800BF1037BD4680BD80B584B000AF02
:1066D00078603B1D1846FFF786FFF8607B68012253
:1066E00002FA03F31946F86800F06CF800BF10379F
:1066F000BD4680BD80B584B000AF78603B1D1846B4
:10670000FFF771FFF860FB68D3F80435BB60BB6826
:10671000DA437B68012101FA03F31A40FB68C3F8EE
:1067200008257B6801229A40BB681A40FB68C3F8C1
:106730000C2500BF1037BD4680BD80B582B000AFCC
:10674000786039603B68002B03D17868FFF7BDFFA4
:1067500002E07868FFF7A4FF00BF0837BD4680BDA0
:1067600080B584B000AF78603B1D1846FFF73BFF53
:10677000F860F86800F00AF802467B6822FA03F332
:1067800003F0010318461037BD4680BD80B483B0C6
:1067900000AF78607B68D3F8103518460C37BD46DB
:1067A0005DF8047B704780B483B000AF78603960D7
:1067B0007B683A68C3F8082500BF0C37BD465DF812
:1067C000047B704780B483B000AF786039607B6829
:1067D0003A68C3F80C2500BF0C37BD465DF8047B52
:1067E0007047000080B582B000AF7860054A7B68D2
:1067F00013441B7801211846FFF79FFF00BF08379D
:10680000BD4680BD445E030080B582B000AF00236A
:106810007B6005E07868FFF7E5FF7B6801337B600C
:106820007B68012BF6D900BF0837BD4680BD00004C
:1068300080B582B000AF7860054A7B6813441B784E
:106840001846FFF757FF00BF0837BD4680BD00BFA1
:10685000445E030080B582B000AF00237B6009E096
:10686000094A7B6813441B781846FFF7F2FE7B68E1
:1068700001337B607B68012BF2D9FFF7C5FF00BFB6
:106880000837BD4680BD00BF445E030080B584B0BC
:1068900000AF78600E4A7B6813441B781846FFF7F8
:1068A0005FFF0346002B14BF01230023FB73FB7B18
:1068B000002B14BF01230023DBB283F00103DBB202
:1068C00003F00103DBB218461037BD4680BD00BFA0
:1068D000485E030080B582B000AF00237B600AE011
:1068E000084A7B6813441B7803211846FFF7C3FE50
:1068F0007B6801337B607B68012BF1D900BF0837CF
:10690000BD4680BD485E030080B582B000AF7860B0
:106910007B6803F00103002B01D0FFF79BFF7B682E
:1069200003F00203002B01D0FFF7D4FF00BF0837AC
:10693000BD4680BD80B483B000AF0346FB71FB79D8
:1069400003F01F02074997F907305B09012000FA9D
:1069500002F2203341F8232000BF0C37BD465DF81A
:10696000047B704700E100E080B500AF00F049FC17
:10697000024B00229A7000BF80BD00BF102E002085
:1069800080B582B000AF00237B60144B1B78002BD6
:1069900002D085237B601CE0104B00229A600F4BD5
:1069A00000225A600D4B00221A610C4B0022DA6063
:1069B0000B4800F0FDFB786008F0B8FC034683F05C
:1069C0000103DBB2002B01D000F012FC034B0122CB
:1069D0001A707B6818460837BD4680BD102E00200F
:1069E000956A020080B485B000AF78607B681B6850
:1069F000FB60FB68002B03D0FB681A687B681A6099
:106A0000FB6818461437BD465DF8047B70470000EC
:106A100080B582B000AF0023FB71FB1D184603F068
:106A200091FE094BDB68013B074AD360064BDB68EC
:106A3000002B01D1FFF798FFFB79184603F08DFE7C
:106A400000BF0837BD4680BD102E002080B584B041
:106A500000AF0346FB71FB79002B02D10B4BFB60AF
:106A600001E00B4BFB60F868FFF7BCFFB860BB6848
:106A7000002B05D0BB685B68FA7910469847F2E7AF
:106A800000BF00BF1037BD4680BD00BF182E0020DC
:106A9000202E002080B582B000AF0346FB71FB7949
:106AA000002B05D1094B01225A700020FFF7CEFFC1
:106AB000FB79012B05D1054B01229A700120FFF7CC
:106AC000C5FF00BF0837BD4680BD00BF102E0020A7
:106AD00080B582B000AF786039607B68002B05D14B
:106AE000044B01225A700020FFF7B0FF00BF0837A7
:106AF000BD4680BD102E002080B584B000AF034697
:106B00003960FB71FB79012B08D0032B23D0002BBC
:106B100000D025E00020FFF70DFF21E00023FB73EC
:106B200007F10F03184603F00DFE0F4B1B7883F09F
:106B30000103DBB2002B01D0FFF722FF0A4BDB6819
:106B40000133094AD360084B01229A70FB7B184637
:106B500003F003FE04E000F04BFBFFF759FF00BF1A
:106B600000BF1037BD4680BD102E002031DF7047BA
:106B700000BF184680B584B000AF0346FB71002308
:106B8000FB7307F10F03184603F0DCFD08F0CEFBA2
:106B9000034683F00103DBB2002B0CD0FB1D19462A
:106BA000094806F057FD084806F039FD0346002B5A
:106BB00001D000F0F5FFFB7B184603F0CEFD00BFCF
:106BC0001037BD4680BD00BF4CAC030080B584B01B
:106BD00000AF78600023FB601B4B1B78002B01D0BB
:106BE00085232CE07B68002B01D1184B7B60164B72
:106BF0007A68013312881A800023FB7207F10B03B5
:106C0000184603F09FFD08F091FB034683F0010353
:106C1000DBB2002B0BD00E490E4800F083FFF8606A
:106C2000FB68002B01D0FB6809E000F0ABFF064BCE
:106C300001221A70FB7A184603F08FFDFB68184694
:106C40001037BD4680BD00BF242E0020585E0300D3
:106C5000756B0200252E002080B582B000AF0023A6
:106C6000FB71FB1D184603F06DFD08F05FFB03464A
:106C700083F00103DBB2002B03D000F091FF00F0A2
:106C800099FFFB79184603F068FD054806F01BFEE6
:106C9000044B00221A7000BF0837BD4680BD00BFFC
:106CA0004CAC0300242E002080B584B000AF786087
:106CB0000B46FB700023FB600023BB7207F10A0345
:106CC000184603F03FFD08F031FB0346FB72FB7AE8
:106CD00083F00103DBB2002B08D0FB781A467968F9
:106CE000104806F0C4FDF86000F04CFFBB7A18466F
:106CF00003F033FDFB7A002B0CD0FB781946786843
:106D0000FFF734FFF860FB6842F20702934201D1BB
:106D10000523FB60FB68022BCED0FB6818461037BA
:106D2000BD4680BD4CAC030080B584B000AF786038
:106D3000396016E03B68402B28BF4023FB60FB68AE
:106D4000DBB219467868FFF7AFFFB860BB68002B6D
:106D5000F5D13A68FB68D31A3B607A68FB68134444
:106D60007B603B68002BE5D100BF1037BD4680BD7E
:106D700080B584B000AF03463960FB71FB79002B0E
:106D800002D0032B09D020E0124B1B78012B1BD122
:106D900000F006FF00F00EFF16E00023FB7207F183
:106DA0000B03184603F0CEFC0A4B1B78012B06D1CF
:106DB00009490A4800F0B6FEF86000F0E3FEFB7AED
:106DC000184603F0CAFC00E000BF00BF1037BD4604
:106DD00080BD00BF242E0020756B0200252E0020F0
:106DE00080B588B000AF786039603B68FB617B6834
:106DF0001B783B737B685B683B617B689B68DBB29D
:106E00003B757B68DB68BB61074AFB6952F823303E
:106E10000649FA6951F8221007F10C02104698470A
:106E200000BF2037BD4680BD782E00207C2E00207C
:106E300080B588B000AF786039603B68FB617B68E3
:106E40001B783B737B685B683B617B689B68DBB24C
:106E50003B757B68DB68BB61074AFB6952F82330EE
:106E60000649FA6951F8221007F10C0210469847BA
:106E700000BF2037BD4680BD782E00207C2E00202C
:106E8000B0B58EB000AFF860B9607A60FB681B786F
:106E90003B6329493B6B7A6841F82320BB681A6938
:106EA00026493B6B41F82320BB685B7F1946244A87
:106EB0003B6B13440A461A70BB6807F110041D4669
:106EC0000FCD0FC495E80F0084E80F003B6B3B62C9
:106ED00000237B63FB681B781A46194B9B5C002BD5
:106EE0000ED0FB68181D7B68002B01D0154A00E00E
:106EF000002207F11003194602F072F8786315E0DA
:106F0000FB681B781A460E4B9B5C002B0ED1FB686E
:106F100003F10C007B68002B01D00B4A00E000223B
:106F200007F11003194601F0F1F978637B6B1846FD
:106F30003837BD46B0BD00BF782E00207C2E002023
:106F4000BC3B0020E16D0200316E020080B483B0D2
:106F500000AF0346FB71FB7903F01F02074997F965
:106F600007305B09012000FA02F241F8232000BF3C
:106F70000C37BD465DF8047B704700BF00E100E0C0
:106F800080B483B000AF03463960FB7197F90730D6
:106F9000002B0BDA3B68DAB20C49FB7903F00F03E4
:106FA000043B5201D2B20B441A7609E03B68DAB2D4
:106FB000074997F907305201D2B20B4483F80023F6
:106FC00000BF0C37BD465DF8047B704700ED00E064
:106FD00000E100E080B483B000AF78607B681B0BF9
:106FE0005BB218460C37BD465DF8047B704780B530
:106FF00082B000AF03460A46FB711346BB71BA79F3
:1070000097F9073011461846FFF7BAFF00BF083757
:10701000BD4680BD80B582B000AF0346FB7197F9D5
:1070200007301846FFF792FF00BF0837BD4680BD06
:1070300080B483B000AF0346FB71114A97F9073063
:10704000002B00DA1F335B115BB252F8232097F953
:107050000730594203F01F0301F01F0158BF4B4294
:107060005BB222FA03F303F00103002B14BF0123E8
:107070000023DBB218460C37BD465DF8047B704731
:1070800000E100E080B483B000AF78604FF0804250
:107090007B68C2F8083300BF0C37BD465DF8047B3F
:1070A000704780B483B000AF0346FB71FB7903F1F6
:1070B000804301221A6000BF0C37BD465DF8047B97
:1070C000704780B485B000AF0346FB80FB8803F1B6
:1070D000804300221A60FB8803F180431B68FB6039
:1070E000FB6800BF1437BD465DF8047B704780B471
:1070F00083B000AF0346FB80FB8803F180431B682D
:10710000002B14BF01230023DBB218460C37BD4609
:107110005DF8047B704780B483B000AF78604FF0B7
:1071200080427B68C2F8183500BF0C37BD465DF859
:10713000047B704780B400AF4FF08043D3F818341D
:107140001B0C03F00103002B14BF01230023DBB24F
:107150001846BD465DF8047B704780B582B000AF2D
:107160000623FB714FF08040FFF734FF03461846BB
:10717000FFF75EFF034683F00103DBB2002B12D062
:107180004FF08040FFF726FF03461A46FB79194669
:107190001046FFF72CFF4FF08040FFF71BFF034620
:1071A0001846FFF737FF00BF0837BD4680BD000017
:1071B00080B485B000AF78600023FB600B4B1B7977
:1071C000002B02D08523FB6008E0084A7B6813602F
:1071D000064B01221A71054B00225A71FB681846B2
:1071E0001437BD465DF8047B704700BF802E002039
:1071F00080B500AFFFF7B1FF0120FFF78CFF00BFA4
:1072000080BD80B500AF0C20FFF74BFF00BFFFF73C
:1072100091FF0346002BFAD100BF80BD80B500AFBF
:107220004FF48070FFF763FF0346002B14D04FF438
:107230008070FFF746FF0120FFF724FF104B5B79BA
:1072400083F00103DBB2002B06D00D4B01225A71F3
:107250000B4B1B68002098474FF48270FFF747FFE5
:107260000346002B0AD04FF48270FFF72AFF02205A
:10727000FFF708FF024B1B680120984700BF80BD45
:10728000802E002080B582B000AF0346FB80FB88D3
:10729000184600F024F803461B68012B0CBF01239D
:1072A0000023DBB218460837BD4680BD80B584B0E8
:1072B00000AF0346FB80FB88184600F010F8034639
:1072C0001A4600231360FB88184600F008F80346AE
:1072D0001B68FB60FB6800BF1037BD4680BD80B4F3
:1072E00083B000AF0346FB80FB8803F1804303F5C6
:1072F000C04318460C37BD465DF8047B704700005C
:1073000080B483B000AF7860054BD3F804237B686A
:10731000134018460C37BD465DF8047B704700BF2C
:107320000060004080B483B000AF7860074A7B689B
:1073300003F5A27352F823301B0A03F01F0318460B
:107340000C37BD465DF8047B704700BF006000400D
:1073500080B483B000AF7860074A7B6803F5A273FE
:1073600052F823301B0C03F00303DBB218460C3732
:10737000BD465DF8047B70470060004080B483B078
:1073800000AF78604FF0A04318460C37BD465DF85B
:10739000047B704780B584B000AF78600B46FB700B
:1073A0003B1D1846FFF7EAFFF8607A68FB6802F5B4
:1073B000E07253F822307A6823F44031FB6802F51A
:1073C000E07243F822107A68FB6802F5E07253F825
:1073D0002230FA78120411467A681943FB6802F5E4
:1073E000E07243F8221000BF1037BD4680BD80B563
:1073F00084B000AF78603B1D1846FFF7BFFFF86010
:107400007A68FB6802F5E07253F822301B0C03F037
:107410000303DBB218461037BD4680BD80B483B08D
:1074200000AF78607B68D3F8103518460C37BD463E
:107430005DF8047B704780B586B000AFF860B96036
:107440007A604FF0A0433B61FB687B6112E07B698F
:107450009B0007F11802134453F8083C1846FFF745
:10746000DDFF02467B681A607B6804337B607B69C2
:1074700001337B61FA68BB6813447A699A42E6D3A8
:1074800000BF1837BD4680BD80B485B000AF7860BE
:1074900039603B68FB607B68DB08BB607B6803F09E
:1074A00007037B6001227B6802FA03F3F968BA687C
:1074B0000A441278134018461437BD465DF8047B21
:1074C000704780B485B000AF786039603B68FB607E
:1074D0007B68DB08BB607B6803F007037B60FA68AE
:1074E000BB6813441B785AB201217B6801FA03F38D
:1074F0005BB2134359B2FA68BB681344CAB21A703C
:1075000000BF1437BD465DF8047B704780B483B07C
:1075100000AF7860054A7B681344303393F900303C
:1075200018460C37BD465DF8047B7047882E002056
:1075300080B483B000AF7860044A7B6852F823308F
:1075400018460C37BD465DF8047B7047882E002036
:1075500080B594B000AF00233B640023FB604FF480
:1075600080737B870123BB640023FB631DE07B8F5B
:107570001846FFF787FE0346002B0DD0B86CFFF7C7
:10758000BFFE0346002B07D07B8F1846FFF78EFE09
:107590003A6CBB6C13433B64BB6C5B00BB647B8F7E
:1075A00004337B87FB6B0133FB63FB6B072BDED95B
:1075B0004FF4BE70FFF766FE0346002B0ED04FF46B
:1075C000BE70FFF773FE3B6C43F000433B6407F172
:1075D0000C031A4601210020FFF72DFF3B6CDBB2A4
:1075E000002B29D00123BB640023FB6321E0BA6C8C
:1075F0003B6C1340002B16D0F86BFFF793FE7863BB
:10760000F86BFFF7A5FE034687F83330F86BFFF7FA
:107610008FFFF862FB6A002B05D097F83320FB6AD6
:107620001146786B9847BB6C5B00BB64FB6B013306
:10763000FB63FB6B072BDAD93B6C002B80F2F180EC
:10764000002387F84F300023BB6000237B640BE0EE
:107650007B6C9B0007F1500213444FF0FF3243F85C
:107660004C2C7B6C01337B647B6C002BF0D00023B3
:1076700087F84F300023FB6374E06C4AFB6B1344C4
:10768000503393F9003087F82B3097F82B3023F0E4
:10769000C0037B62654AFB6B1344503393F900309F
:1076A000B3F1FF3F5BD03B1D1946786AFFF7ECFE54
:1076B0000346002B53D097F82B309B0987F82330D3
:1076C000786AFFF723FF03461846FFF731FFF8619A
:1076D000FB69002B03D197F82330032B3FD197F898
:1076E0002330032B05D107F108031946786AFFF709
:1076F000E8FE786AFFF77BFE0346FB7607F10C0392
:107700001946786AFFF7C0FE78617B69002B02D0CA
:10771000FB7E022B05D07B69002B20D1FB7E032B47
:107720001DD197F82330032B10D1FB7E022B01D102
:10773000032300E00223FB74FB7C1946786AFFF701
:1077400029FE97F84F30013387F84F30FB69002B43
:1077500005D097F82320FB691146786A9847FB6BA0
:107760000133FB63FB6B032B87D997F84F30002B5A
:1077700052D0012387F84E303B461A4601210020A3
:10778000FFF759FE00237B6416E07B6C9B0007F13A
:107790005002134453F8502C7B6C9B0007F15001AE
:1077A0000B4453F8443C9A4203D0002387F84E30F0
:1077B00005E07B6C01337B647B6C002BE5D097F894
:1077C0004E30002B03D0002387F84F3024E00023F5
:1077D0007B641EE07B6C9B0007F15002134453F85E
:1077E000502C7B6C9B0007F150010B4443F8442C58
:1077F0007B6C9B0007F15002134453F8482C7B6CC0
:107800009B0007F150010B4443F84C2C7B6C013377
:107810007B647B6C002BDDD097F84F30002B7FF41E
:1078200026AF00BF5037BD4680BD00BF882E002068
:1078300080B500AF024B1B68984700BF80BD00BFFA
:10784000E42E002080B483B000AF78607B68064AE5
:10785000934201D1054B00E0002318460C37BD468A
:107860005DF8047B704700BF00200040E42E00203C
:1078700080B586B000AF786039607868FFF7E2FFC6
:1078800038613B69002B20D00023FB750023FB727D
:1078900007F10B03184602F055FF3B691B79002BDB
:1078A00002D00123FB7505E03B693A681A603B6929
:1078B00001221A71FB7A184602F04FFFFB7D002B64
:1078C00003D01123FB60FB6802E00023FB60FB6830
:1078D00018461837BD4680BD80B584B000AF7860CB
:1078E0007868FFF7AFFFF860FB68002B05D0FB68F6
:1078F00000221A60FB6800221A7100BF1037BD46D3
:1079000080BD000080B483B000AF0346FB71FB79FB
:1079100003F01F02074997F907305B09012000FABD
:1079200002F241F8232000BF0C37BD465DF8047B0E
:10793000704700BF00E100E080B483B000AF0346B1
:10794000FB71FB7903F01F02074997F907305B09C8
:10795000012000FA02F2203341F8232000BF0C3747
:10796000BD465DF8047B704700E100E080B483B061
:1079700000AF03463960FB7197F90730002B0BDA33
:107980003B68DAB20C49FB7903F00F03043B520168
:10799000D2B20B441A7609E03B68DAB2074997F98C
:1079A00007305201D2B20B4483F8002300BF0C37DA
:1079B000BD465DF8047B704700ED00E000E100E0AB
:1079C00080B582B000AF03460A46FB711346BB7117
:1079D000BA7997F9073011461846FFF7C7FF00BF7D
:1079E0000837BD4680BD80B582B000AF0346FB714D
:1079F00097F907301846FFF785FF00BF0837BD46E7
:107A000080BD80B582B000AF0346FB7197F90730A7
:107A10001846FFF791FF00BF0837BD4680BD000044
:107A200080B483B000AF7860044A7B68C2F8043346
:107A300000BF0C37BD465DF8047B704700D00040A6
:107A400080B483B000AF7860044A7B68C2F8083322
:107A500000BF0C37BD465DF8047B704700D0004086
:107A600080B483B000AF0346FB71FB7903F1804320
:107A700003F5504301221A6000BF0C37BD465DF884
:107A8000047B704780B485B000AF0346FB80FB8861
:107A900003F1804303F5504300221A60FB8803F191
:107AA000804303F550431B68FB60FB6800BF14373D
:107AB000BD465DF8047B704780B483B000AF78604A
:107AC000074BD3F800227B68DB4305491340C1F81C
:107AD000003200BF0C37BD465DF8047B704700BF25
:107AE00000D0004080B400AF044BD3F80835DBB2BF
:107AF0001846BD465DF8047B704700BF00D00040CB
:107B000080B400AF064BD3F80435054A43F00103B7
:107B1000C2F8043500BFBD465DF8047B704700BF66
:107B200000D0004080B582B000AF78603960134B60
:107B30001B78002B01D085231BE0114A3B681360A2
:107B40007B681B7803F00103DBB2002B01D0FFF749
:107B5000D7FF0120FFF7B0FF7B685B7819460D2047
:107B6000FFF72EFF0D20FFF73EFF044B01221A7096
:107B7000002318460837BD4680BD00BFEC2E00200C
:107B8000F02E002080B500AF4FF48070FFF77AFF31
:107B90000120FFF745FF0020FFF762FF00BF80BD17
:107BA00080B500AF0120FFF74BFF0420FFF758FF1F
:107BB00000BF80BD80B500AF0120FFF741FF04206A
:107BC000FFF74EFF0D20FFF71CFF024B00221A703B
:107BD00000BF80BDEC2E002080B582B000AF4FF416
:107BE0008070FFF74FFFFFF77DFF0346FB71044BEB
:107BF0001B68FA791046984700BF0837BD4680BD1C
:107C0000F02E002080B483B000AF0346FB71FB79F7
:107C100003F01F02074997F907305B09012000FABA
:107C200002F241F8232000BF0C37BD465DF8047B0B
:107C3000704700BF00E100E080B483B000AF0346AE
:107C4000FB71FB7903F01F02074997F907305B09C5
:107C5000012000FA02F2203341F8232000BF0C3744
:107C6000BD465DF8047B704700E100E080B483B05E
:107C700000AF03463960FB7197F90730002B0BDA30
:107C80003B68DAB20C49FB7903F00F03043B520165
:107C9000D2B20B441A7609E03B68DAB2074997F989
:107CA00007305201D2B20B4483F8002300BF0C37D7
:107CB000BD465DF8047B704700ED00E000E100E0A8
:107CC00080B483B000AF78607B681B0B5BB2184652
:107CD0000C37BD465DF8047B704780B582B000AFBD
:107CE00003460A46FB711346BB71BA7997F9073010
:107CF00011461846FFF7BAFF00BF0837BD4680BDE2
:107D000080B582B000AF0346FB7197F90730184683
:107D1000FFF778FF00BF0837BD4680BD80B582B051
:107D200000AF0346FB7197F907301846FFF784FF51
:107D300000BF0837BD4680BD80B485B000AF786015
:107D40000B467B807B887A68134400221A607B880C
:107D50007A6813441B68FB60FB6800BF1437BD469C
:107D60005DF8047B704780B483B000AF78600B4649
:107D70007B807B887A6813441B68002B14BF012327
:107D80000023DBB218460C37BD465DF8047B704714
:107D900080B483B000AF786039607B683A68C3F81C
:107DA000042300BF0C37BD465DF8047B704780B4E8
:107DB00083B000AF786039607B68D3F804233B68F8
:107DC0001340002B14BF01230023DBB218460C37ED
:107DD000BD465DF8047B704780B483B000AF786027
:107DE00039607B683A68C3F8082300BF0C37BD468A
:107DF0005DF8047B704780B485B000AF78607B6825
:107E0000D3F88034FB607B68FA68C3F88024FB6891
:107E100018461437BD465DF8047B704780B483B0C4
:107E200000AF78607B680422C3F8002500BF0C37E0
:107E3000BD465DF8047B704780B483B000AF7860C6
:107E40007B680022C3F8002500BF0C37BD465DF8F3
:107E5000047B704780B485B000AFF860B9607A6089
:107E6000FB687A68C3F81425FB68BA68C3F80C2568
:107E700000BF1437BD465DF8047B704780B582B003
:107E800000AF78604FF0FF324FF0FF317868FFF7B6
:107E9000E1FF00BF0837BD4680BD80B483B000AFAE
:107EA00078607B68D3F80C3518460C37BD465DF812
:107EB000047B704780B483B000AF78607B68D3F8F0
:107EC000143518460C37BD465DF8047B704780B406
:107ED00083B000AF78607B68D3F8083518460C375C
:107EE000BD465DF8047B704780B483B000AF786016
:107EF0007B68D3F8103518460C37BD465DF8047B17
:107F0000704780B485B000AFF860B9607A60FB68F4
:107F1000BA68C3F80825FB687A68C3F8102500BF63
:107F20001437BD465DF8047B704780B582B000AF62
:107F300078604FF0FF324FF0FF317868FFF7E1FFD4
:107F400000BF0837BD4680BD80B483B000AF786005
:107F50007B68D3F81835DBB218460C37BD465DF8A0
:107F6000047B704780B483B000AF78600B46FB7031
:107F7000FA787B68C3F81C2500BF0C37BD465DF856
:107F8000047B704780B483B000AF78600B46FB7011
:107F9000FB787A68134401221A6000BF0C37BD4693
:107FA0005DF8047B704780B483B000AF78600B4607
:107FB000FB701346BB70FA78BB781343DBB21A46EA
:107FC0007B68C3F86C2500BF0C37BD465DF8047BA9
:107FD000704780B483B000AF786039607B683A68DE
:107FE000C3F8242500BF0C37BD465DF8047B7047FD
:107FF00080B483B000AF78604FF0A04318460C37D0
:10800000BD465DF8047B704780B584B000AF7860F2
:10801000084611461A460346FB700B46BB701346D2
:108020007B703B1D1846FFF7E3FFF860FA78BB78DA
:108030005B001A437B789B001A433B7E1B0242EA9B
:1080400003013B7F1B047A681943FB6802F5E07269
:1080500043F8221000BF1037BD4680BD80B584B004
:1080600002AF7860002301930023009300230122D4
:1080700001217868FFF7C8FF00BF0837BD4680BD03
:1080800080B584B002AF78600B46FB70FA780023AD
:108090000193002300931346002200217868FFF724
:1080A000B3FF00BF0837BD4680BD80B584B002AFC6
:1080B0007860002301930023009300230122002114
:1080C0007868FFF7A1FF00BF0837BD4680BD80B5C7
:1080D00084B000AF78603B1D1846FFF789FFF86059
:1080E0007B68012202FA03F31946F86800F004F8ED
:1080F00000BF1037BD4680BD80B483B000AF78604C
:1081000039607B683A68C3F8082500BF0C37BD4664
:108110005DF8047B704780B582B000AF786039604D
:108120003B681B68B3F1FF3F09D03B681B681846EA
:10813000FFF7CDFF3B681B681846FFF78FFF3B68D2
:108140005B68B3F1FF3F05D03B685B6800211846D0
:10815000FFF796FF7B681A683B689B6919461046D3
:10816000FFF737FF7B6818683B68597D3B681B7DCC
:108170001A46FFF718FF7B6818683B6819683B6868
:108180005B681A46FFF766FE3B681B7D012B22D118
:108190003B689B68B3F1FF3F05D03B689B680021BB
:1081A0001846FFF76DFF3B68DB68B3F1FF3F09D06E
:1081B0003B68DB681846FFF78AFF3B68DB681846B8
:1081C000FFF74CFF7B6818683B68D9683B689B6881
:1081D0001A46FFF796FE00BF0837BD4680BD000077
:1081E00080B582B000AF78600B46FB707B681B687F
:1081F0004FF48E711846FFF79FFD7B681B684FF4A4
:10820000A2711846FFF798FD7B681B680E49184657
:10821000FFF7BEFD7B681B681846FFF751FD03465C
:108220001A46FB7819461046FFF757FD7B681B6816
:108230001846FFF745FD03461846FFF761FD00BFEE
:108240000837BD4680BD00BF8000020080B582B007
:1082500000AF78607B681B6808491846FFF7BCFDD3
:108260007B681B681846FFF72BFD03461846FFF78F
:1082700055FD00BF0837BD4680BD00BF8402020027
:1082800080B586B000AF78607B681B681846FFF742
:1082900004FE78617B681B681846FFF70BFE3861A7
:1082A0007B681B681846FFF712FEF8607B681B6846
:1082B0001846FFF719FEB8607B681B681846FFF781
:1082C000DDFD7B681B681846FFF72FFE7B69B3F165
:1082D000FF3F02D07869FFF7E8FE3B69B3F1FF3F4B
:1082E00002D03869FFF7E1FEBB68B3F1FF3F02D06F
:1082F000B868FFF7DAFEFB68B3F1FF3F02D0F86819
:10830000FFF7D3FE00BF1837BD4680BD80B586B0ED
:1083100000AFF860B9607A60FB681B791A462C23BD
:1083200003FB02F3284A13443B6100237B613B6952
:1083300093F82A30002B03D008237B617B693EE051
:10834000FB681A68FB681B791946204B53F82130EB
:1083500019461046FFF78CFA0346002B03D0112371
:108360007B617B692BE0B968F868FFF7D4FE3B6955
:108370007A685A60BB681A693B691A603B695B6836
:10838000002B05D0BB681B7F1946F868FFF728FF54
:10839000FB681B681846FFF741FD3B6900229A61A4
:1083A0003B690022DA613B69002283F829203B699E
:1083B00000225A613B69012283F82A207B69184612
:1083C0001837BD4680BD00BFF42E00207C5E030040
:1083D00080B584B000AF78607B681B791A462C2387
:1083E00003FB02F3104A1344FB607B681B681846CA
:1083F000FFF722FDFB685B68002B02D07868FFF76F
:1084000025FF7868FFF73CFF7B681B681846FFF77D
:1084100063FAFB68002283F82A20FB6800225A6076
:1084200000BF1037BD4680BDF42E002080B584B05B
:1084300000AF786039604FF48E717868FFF77CFC8C
:108440003B689A683B681B6A13441B78FB733B6864
:108450001B6A5A1C3B681A62FB7B19467868FFF757
:1084600081FD00BF1037BD4680BD80B582B000AF32
:108470007860396016E03B6893F82830DBB2002B57
:1084800001D0002315E04FF48E717868FFF76BFC84
:10849000034683F00103DBB2002BECD13968786826
:1084A000FFF7C4FF3B681A6A3B685B699A42EAD3EC
:1084B000012318460837BD4680BD000080B586B050
:1084C00000AFF860B9607A60FB681B791A462C230C
:1084D00003FB02F32E4A13443B61F86800F05AF89C
:1084E0000346002B03D011237B617B694CE03B6981
:1084F0007A685A613B69BA689A603B6900221A62DD
:108500003B69002283F8282000237B61FB681B68FD
:108510004FF48E711846FFF70FFCFB681B680821AB
:108520001846FFF72FFDFB681B6839691846FFF7EF
:108530007DFF3B695B68002B25D1FB681B683969AF
:108540001846FFF792FF034683F00103DBB2002BCE
:1085500002D00F237B6113E000BFFB681B684FF460
:108560008E711846FFF7FFFB034683F00103DBB271
:10857000002BF2D1FB681B680C211846FFF702FDA7
:108580003B6900225A617B6918461837BD4680BD99
:10859000F42E002080B483B000AF78607B681B7934
:1085A0001946094A2C2303FB01F3134414331B68B7
:1085B000002B14BF01230023DBB218460C37BD4645
:1085C0005DF8047B704700BFF42E002090B583B0A7
:1085D00000AF786039603B689B69002B08D14FF48D
:1085E00084717868FFF7A8FB7868FFF7ADFC13E0AB
:1085F0004FF484717868FFF79FFB3B68DA683B684B
:108600005B6AD4187868FFF79FFC034623703B68C9
:108610005B6A5A1C3B685A620C37BD4690BD80B5F8
:1086200088B000AFF860B9607A6001233B74BB6822
:10863000BB617B687B61FB685B68FA68116807F166
:1086400010021046984700BF2037BD4680BD80B558
:1086500086B000AF7860396000233B723B683B61B5
:108660007B689B68FB607B6800225A617B685B6863
:108670007A68116807F108021046984700BF18375A
:10868000BD4680BD80B588B000AF786039604FF4DA
:1086900000717868FFF78BFB0346002B39D04FF44D
:1086A00092717868FFF75FFB0346002B31D04FF4DF
:1086B00092717868FFF740FB4FF401717868FFF71B
:1086C0008BFB3B6893F8293083F00103DBB2002B6E
:1086D00003D004217868FFF755FC02233B727868C9
:1086E000FFF789FB03467B613B689B693B613B6805
:1086F000DB68FB603B6800229A613B680022DA611C
:108700003B685B683A68116807F1080210469847B1
:1087100052E004217868FFF74AFB0346002B4BD058
:108720004FF484717868FFF71EFB0346002B43D09B
:1087300039687868FFF74AFF3B689A693B685B6A6B
:108740009A4239D13B68DB69002B19D03B68DB6862
:10875000FB613B685B6ABB613B68DA693B689A61B5
:108760003B681A693B68DA603B680022DA613B6863
:1087700000225A62FA69B9693868FFF750FF1BE0B6
:108780003B6893F8293083F00103DBB2002B03D060
:1087900004217868FFF7F6FB4FF401717868FFF762
:1087A0001BFB3B6800229A613B68596A3B68DB68A7
:1087B0001A463868FFF733FF4FF48E717868FFF779
:1087C000D2FA0346002B22D03B681A6A3B685B69E9
:1087D0009A420DD23B6893F82830DBB283F0010354
:1087E000DBB2002B04D039687868FFF71FFE0EE07B
:1087F0004FF48E717868FFF79FFA3B685B69002B36
:1088000005D03B685B6919463868FFF720FF4FF4D5
:10881000A2717868FFF7A7FA0346002B1CD04FF42B
:10882000A2717868FFF788FA3B6893F82930002B2B
:1088300003D000217868FFF7A5FB3B689B69002BFC
:108840000AD03B6800229A613B68596A3B68DB6842
:108850001A463868FFF7E3FE00BF2037BD4680BDEB
:1088600080B500AF02490348FFF70CFF00BF80BD91
:10887000F42E00200020004080B483B000AF0346F7
:10888000FB71FB7903F01F02074997F907305B0979
:10889000012000FA02F241F8232000BF0C37BD4648
:1088A0005DF8047B704700BF00E100E080B483B056
:1088B00000AF0346FB71FB7903F01F02074997F9EC
:1088C00007305B09012000FA02F2203341F823202F
:1088D00000BF0C37BD465DF8047B704700E100E047
:1088E00080B483B000AF03463960FB7197F907305D
:1088F000002B0BDA3B68DAB20C49FB7903F00F036B
:10890000043B5201D2B20B441A7609E03B68DAB25A
:10891000074997F907305201D2B20B4483F800237C
:1089200000BF0C37BD465DF8047B704700ED00E0EA
:1089300000E100E080B483B000AF78607B6803F0B2
:108940006043B3F1005F0CBF01230023DBB2184684
:108950000C37BD465DF8047B704780B483B000AF30
:1089600078607B681B0B5BB218460C37BD465DF820
:10897000047B704780B582B000AF03460A46FB71A6
:108980001346BB71BA7997F9073011461846FFF7BD
:10899000A7FF00BF0837BD4680BD80B582B000AFDD
:1089A0000346FB7197F907301846FFF765FF00BFD4
:1089B0000837BD4680BD80B582B000AF0346FB716D
:1089C00097F907301846FFF771FF00BF0837BD461B
:1089D00080BD80B485B000AF78600B467B807B881B
:1089E0007A68134400221A607B887A6813441B68F3
:1089F000FB60FB6800BF1437BD465DF8047B704721
:108A000080B483B000AF78600B467B807B887A6847
:108A100013441B68002B14BF01230023DBB218464C
:108A20000C37BD465DF8047B704780B483B000AF5F
:108A3000786039607B68D3F800223B68DB431A40DA
:108A40007B68C3F8002200BF0C37BD465DF8047B8D
:108A5000704780B483B000AF786039607B683A6853
:108A6000C3F8042300BF0C37BD465DF8047B704794
:108A700080B483B000AF786039607B683A68C3F82F
:108A8000082300BF0C37BD465DF8047B704780B4F7
:108A900085B000AF78607B68D3F88034FB607B687A
:108AA000FA68C3F88024FB6818461437BD465DF8A1
:108AB000047B704780B483B000AF78607B68082285
:108AC000C3F8002500BF0C37BD465DF8047B704736
:108AD00080B483B000AF78607B680022C3F80025C3
:108AE00000BF0C37BD465DF8047B704780B485B08D
:108AF00000AFF860B9607A60FB68BA68C3F80C250B
:108B0000FB687A68C3F8142500BF1437BD465DF8CA
:108B1000047B704780B582B000AF78604FF0FF32C1
:108B20004FF0FF317868FFF7E1FF00BF0837BD461F
:108B300080BD80B483B000AF78607B68D3F80C351B
:108B400018460C37BD465DF8047B704780B483B08F
:108B500000AF78607B68D3F8143518460C37BD46F3
:108B60005DF8047B704780B483B000AF78607B68A9
:108B7000D3F8083518460C37BD465DF8047B7047BE
:108B800080B483B000AF78607B68D3F810351846A6
:108B90000C37BD465DF8047B704780B485B000AFEC
:108BA000F860B9607A60FB68BA68C3F80825FB68AA
:108BB0007A68C3F8102500BF1437BD465DF8047B02
:108BC000704780B582B000AF78604FF0FF324FF051
:108BD000FF317868FFF7E1FF00BF0837BD4680BD71
:108BE00080B483B000AF78600B46FB70FB787A6886
:108BF000134401221A6000BF0C37BD465DF8047BA8
:108C0000704780B483B000AF78600B46FB701346AA
:108C1000BB70FA78BB781343DBB21A467B68C3F8A3
:108C20006C2500BF0C37BD465DF8047B704780B4EF
:108C300083B000AF786039607B683A68C3F8242558
:108C400000BF0C37BD465DF8047B704780B485B02B
:108C500000AFF860B9607A60BA68FB68C3F8442571
:108C6000FB687A68C3F8482500BF1437BD465DF835
:108C7000047B704780B483B000AF78607B68D3F822
:108C80004C3518460C37BD465DF8047B704780B400
:108C900083B000AF78607B68D3F83C3518460C375A
:108CA000BD465DF8047B704780B483B000AF786048
:108CB0004FF0A04318460C37BD465DF8047B704763
:108CC00080B584B000AF7860084611461A46034666
:108CD000FB700B46BB7013467B703B1D1846FFF7BD
:108CE000E3FFF860FA78BB785B001A437B789B005F
:108CF0001A433B7E1B0242EA03013B7F1B047A6856
:108D00001943FB6802F5E07243F8221000BF1037E8
:108D1000BD4680BD80B584B002AF7860002301936A
:108D2000002300930023012201217868FFF7C8FF88
:108D300000BF0837BD4680BD80B584B002AF786003
:108D40000B46FB70FA78002301930023009313462F
:108D5000002200217868FFF7B3FF00BF0837BD4647
:108D600080BD80B584B002AF7860002301930023FA
:108D700000930023012200217868FFF7A1FF00BFC4
:108D80000837BD4680BD80B584B000AF78603B1D1C
:108D90001846FFF789FFF8607B68012202FA03F3A7
:108DA0001946F86800F004F800BF1037BD4680BDD2
:108DB00080B483B000AF786039607B683A68C3F8EC
:108DC000082500BF0C37BD465DF8047B704780B5B1
:108DD00082B000AF786039603B681B68B3F1FF3F39
:108DE00009D03B681B681846FFF7CDFF3B681B683E
:108DF0001846FFF78FFF3B685B68B3F1FF3F05D074
:108E00003B685B6800211846FFF796FF7B681A688D
:108E10003B689B6919461046FFF709FF7B68186895
:108E20003B68597D3B681B7D1A46FFF7EAFE7B686D
:108E300018683B6819683B685B681A46FFF756FE7E
:108E40003B681B7D012B22D13B689B68B3F1FF3F40
:108E500005D03B689B6800211846FFF76DFF3B6813
:108E6000DB68B3F1FF3F09D03B68DB681846FFF7CA
:108E70008AFF3B68DB681846FFF74CFF7B68186881
:108E80003B68D9683B689B681A46FFF786FE00BFBF
:108E90000837BD4680BD000080B582B000AF786065
:108EA0000B46FB707B681B684FF488711846FFF710
:108EB00090FD7B681B684FF490711846FFF789FDA1
:108EC0007B681B684FF492711846FFF782FD7B6840
:108ED0001B684FF4A2711846FFF77BFD7B681B6887
:108EE0000E491846FFF7B5FD7B681B681846FFF76B
:108EF00034FD03461A46FB7819461046FFF73AFD43
:108F00007B681B681846FFF728FD03461846FFF7E5
:108F100044FD00BF0837BD4680BD00BF10030200FE
:108F200080B582B000AF78607B681B68084918463E
:108F3000FFF79EFD7B681B681846FFF70EFD034692
:108F40001846FFF738FD00BF0837BD4680BD00BF9B
:108F50001003020080B586B000AF78607B681B68A4
:108F60001846FFF7E6FD78617B681B681846FFF737
:108F7000EDFD38617B681B681846FFF7F4FDF8606B
:108F80007B681B681846FFF7FBFDB8607B681B68B1
:108F90001846FFF7BFFD7B681B681846FFF711FEF8
:108FA0007B69B3F1FF3F02D07869FFF7DAFE3B69D6
:108FB000B3F1FF3F02D03869FFF7D3FEBB68B3F1CE
:108FC000FF3F02D0B868FFF7CCFEFB68B3F1FF3F6C
:108FD00002D0F868FFF7C5FE00BF1837BD4680BD58
:108FE00080B586B000AFF860B9607A60FB681B7925
:108FF0001A461346DB0013449B00264A13443B6188
:1090000000237B613B6993F82030002B03D00823B9
:109010007B617B693AE0FB681A68FB681B7919463B
:109020001D4B53F8213019461046FEF721FC03462C
:10903000002B03D011237B617B6927E0B968F868B6
:10904000FFF7C5FE3B697A685A60BB681A693B69DD
:109050001A603B695B68002B05D0BB681B7F194613
:10906000F868FFF719FFFB681B681846FFF722FD39
:109070003B6900229A613B690022DA613B69002268
:109080005A613B69012283F820207B691846183712
:10909000BD4680BD202F0020885E030080B584B0CF
:1090A00000AF78607B681B791A461346DB001344D7
:1090B0009B00114A1344FB607B681B681846FFF74E
:1090C00007FDFB685B68002B02D07868FFF728FF7C
:1090D0007868FFF73FFF7B681B681846FEF7FCFBCC
:1090E000FB68002283F82020FB6800225A6000BF42
:1090F0001037BD4680BD00BF202F002080B588B04E
:1091000000AFF860B9607A60FB681B791A461346B5
:10911000DB0013449B00374A13447B61B868FFF7B8
:1091200009FC034683F00103DBB2002B03D01023BC
:10913000FB61FB6959E0F86800F05EF80346002B1C
:1091400003D01123FB61FB694FE07B697A685A61A8
:109150007B69BA689A600023FB61FB681B684FF467
:1091600090711846FFF735FCFB681B684FF4AC7133
:109170001846FFF72EFCFB6818687B6999687B69C5
:109180005B691A46FFF762FDFB681B6808211846F9
:10919000FFF726FD7B695B68002B25D1FB681B6808
:1091A0004FF490711846FFF72BFC0346FB76FB68E3
:1091B0001B684FF4AC711846FFF722FC0346BB76E0
:1091C000FB7E83F00103DBB2002B05D0BB7E83F076
:1091D0000103DBB2002BE1D1BB7E002B01D00F23BA
:1091E000FB617B6900225A61FB6918462037BD4646
:1091F00080BD00BF202F002080B483B000AF786016
:109200007B681B791946094A0B46DB000B449B001F
:10921000134414331B68002B14BF01230023DBB25B
:1092200018460C37BD465DF8047B7047202F0020A0
:1092300080B588B000AFF860B9607A6001233B74F4
:10924000BB68BB617B687B61FB685B68FA6811681F
:1092500007F110021046984700BF2037BD4680BD79
:1092600080B586B000AF7860396000233B723B6800
:109270003B617B689B68FB607B6800225A617B686E
:109280005B687A68116807F108021046984700BFCA
:109290001837BD4680BD80B588B000AF78603960B2
:1092A0004FF492717868FFF7ABFB0346002B22D096
:1092B0004FF492717868FFF78CFB02233B72786859
:1092C000FFF7E5FB03467B617868FFF7E0FC0346A8
:1092D0003B613B68DB68FB603B6800229A613B684E
:1092E0000022DA613B685B683A68116807F108029E
:1092F000104698473BE04FF488717868FFF780FB91
:109300000346002B33D04FF488717868FFF761FB78
:109310007868FFF7BCFCF8613B689B69FA699A4280
:1093200025D13B68DB69002B17D03B68DB68BB614C
:1093300020217868FFF779FB3B68DA693B689A611E
:109340003B681A693B68DA603B680022DA61BA69F7
:10935000F9693868FFF76CFF09E03B6800229A6101
:109360003B68DB681A46F9693868FFF761FF4FF41C
:10937000A2717868FFF744FB0346002B18D04FF426
:10938000A2717868FFF725FB3B689B69002B0FD023
:109390003B6800229A613B680022DA617868FFF737
:1093A00076FC01463B68DB681A463868FFF740FFE9
:1093B0004FF490717868FFF723FB0346002B10D021
:1093C0004FF490717868FFF704FB3B685B69002BF2
:1093D00007D07868FFF74EFC034619463868FFF758
:1093E0003FFF00BF2037BD4680BD000080B500AF05
:1093F00002490348FFF74FFF00BF80BD202F002028
:109400000020004080B400AFBFF34F8F054BDB68F6
:1094100003F4E0620349044B1343CB60BFF34F8F67
:1094200000BFFDE700ED00E00400FA0580B400AFE6
:10943000034B044A1A6000BFBD465DF8047B7047C9
:10944000902B00200090D00380B500AF00F068F9A9
:109450000346002B06D0A04B1B681B0A9F4A03F053
:109460001F03136000F08EF90346002B02D09C4BC3
:109470009C4A1A6000F0A8F90346002B06D09A4BCC
:109480001B685B0B994A03F00703136000F0CEF9E9
:109490000346002B05D0964BDB68954A23F080737A
:1094A000D36000F0E5F90346002B0ED04FF0804367
:1094B0000022C3F80C214FF080430022C3F8102192
:1094C0004FF080430022C3F8382500F003FA03462A
:1094D000002B02D0874B03221A6000F01DFA0346CE
:1094E000002B0BD0844B05221A60844B01221A609A
:1094F000834B00221A60834B3F221A6000F02EFA41
:109500000346002B76D04FF080537F4AD3F80434C3
:10951000C2F820354FF080537B4AD3F80834C2F8A4
:1095200024354FF08053784AD3F80C34C2F82835EC
:109530004FF08053744AD3F81034C2F82C354FF0F2
:109540008053714AD3F81434C2F830354FF0805349
:109550006D4AD3F81834C2F834354FF080536A4A54
:10956000D3F81C34C2F840354FF08053664AD3F824
:109570002034C2F844354FF08053634AD3F8243482
:10958000C2F848354FF080535F4AD3F82834C2F808
:109590004C354FF080535C4AD3F82C34C2F8503528
:1095A0004FF08053584AD3F83034C2F854354FF056
:1095B0008053554AD3F83434C2F860354FF08053A5
:1095C000514AD3F83834C2F864354FF080534E4ACC
:1095D000D3F83C34C2F868354FF080534A4AD3F888
:1095E0004034C2F86C354FF08053474AD3F84434C6
:1095F000C2F8703500F0D4F90346002B05D0434B78
:109600001B68434A03F04F03136000F0FBF9034665
:10961000002B0DD04FF08043D3F8003403F001034A
:10962000002B05D04FF080436FF00102C3F80024F7
:1096300000F01AFA0346002B05D0364B1B68354A5A
:1096400043F480631360344BD3F88830324A43F4D8
:109650007003C2F88830BFF34F8FBFF36F8F4FF0A6
:109660001023D3F80032002B05DB4FF01023D3F882
:109670000432002B2BDA294B0122C3F8042500BF4A
:10968000264BD3F80034002BFAD04FF010231522CC
:10969000C3F8002200BF214BD3F80034002BFAD0CE
:1096A0004FF010231522C3F8042200BF1B4BD3F840
:1096B0000034002BFAD0194B0022C3F8042500BF58
:1096C000164BD3F80034002BFAD0FFF79BFEFFF7C0
:1096D000ADFE00BF80BD00BF240300104035014037
:1096E00074C007400DF0ADBA440200103C050040C4
:1096F000F0ED00E0A0050040105600408856004004
:10970000185600401456004000C000405802001097
:10971000E40E00403C17004000ED00E000E0014096
:1097200080B400AF144B1B68DBB2062B1DD1134B6A
:109730001B6803F00F03002B17D1114B1B6803F0BC
:10974000F003302B01D1012310E00D4B1B6803F017
:10975000F003402B01D1012308E0094B1B6803F003
:10976000F003502B01D1012300E000231846BD4631
:109770005DF8047B704700BFE00F00F0E40F00F0DD
:10978000E80F00F080B400AF0C4B1B68DBB2062B77
:109790000DD10B4B1B6803F00F03002B07D1094BB6
:1097A0001B6803F0F003302B01D1012300E00023FC
:1097B0001846BD465DF8047B704700BFE00F00F01F
:1097C000E40F00F0E80F00F080B400AF144B1B680A
:1097D000DBB2062B1DD1134B1B6803F00F03002BCC
:1097E00017D1114B1B6803F0F003302B01D101237B
:1097F00010E00D4B1B6803F0F003402B01D1012357
:1098000008E0094B1B6803F0F003502B01D1012342
:1098100000E000231846BD465DF8047B704700BF9A
:10982000E00F00F0E40F00F0E80F00F080B400AFAC
:109830000C4B1B68DBB2062B0DD10B4B1B6803F0E6
:109840000F03002B07D1094B1B6803F0F003302BEB
:1098500001D1012300E000231846BD465DF8047BDA
:10986000704700BFE00F00F0E40F00F0E80F00F0D9
:1098700080B400AF144B1B68DBB2062B1DD1134B19
:109880001B6803F00F03002B17D1114B1B6803F06B
:10989000F003302B01D1012310E00D4B1B6803F0C6
:1098A000F003402B01D1012308E0094B1B6803F0B2
:1098B000F003502B01D1012300E000231846BD46E0
:1098C0005DF8047B704700BFE00F00F0E40F00F08C
:1098D000E80F00F080B400AF0C4B1B68DBB2062B26
:1098E0000DD10B4B1B6803F00F03002B07D1094B65
:1098F0001B6803F0F003302B01D1012300E00023AB
:109900001846BD465DF8047B704700BFE00F00F0CD
:10991000E40F00F0E80F00F080B400AF0C4B1B68C0
:10992000DBB2062B0DD10B4B1B6803F00F03002B92
:1099300007D1094B1B6803F0F003302B01D1012341
:1099400000E000231846BD465DF8047B704700BF69
:10995000E00F00F0E40F00F0E80F00F080B400AF7B
:109960000C4B1B68DBB2062B0DD10B4B1B6803F0B5
:109970000F03002B07D1094B1B6803F0F003502B9A
:1099800001D1012300E000231846BD465DF8047BA9
:10999000704700BFE00F00F0E40F00F0E80F00F0A8
:1099A00080B400AF144B1B68DBB2062B1DD1134BE8
:1099B0001B6803F00F03002B17D1114B1B6803F03A
:1099C000F003302B01D1012310E00D4B1B6803F095
:1099D000F003402B01D1012308E0094B1B6803F081
:1099E000F003502B01D1012300E000231846BD46AF
:1099F0005DF8047B704700BFE00F00F0E40F00F05B
:109A0000E80F00F080B400AF144B1B68DBB2062BEC
:109A10001DD1134B1B6803F00F03002B17D1114B03
:109A20001B6803F0F003302B01D1012310E00D4B34
:109A30001B6803F0F003402B01D1012308E0094B20
:109A40001B6803F0F003502B01D1012300E0002339
:109A50001846BD465DF8047B704700BFE00F00F07C
:109A6000E40F00F0E80F00F080B400AF074B1B6874
:109A7000062B05D1064B1B68062B01D1012300E004
:109A800000231846BD465DF8047B70473001001086
:109A90003401001080B586B000AF78600023FB6011
:109AA00000233B617B687B6107F10C031A460021B0
:109AB00044F2010000F018F800BF1837BD4680BD21
:109AC00080B400AFBFF34F8F054BDB6803F4E06257
:109AD0000349044B1343CB60BFF34F8F00BFFDE737
:109AE00000ED00E00400FA0580B584B000AFF86036
:109AF000B9607A6072B604F015FE00BF04F052FC43
:109B00000346002BFAD1114A114BD31ADB081B0470
:109B100043F001030F49184604F0E2FB0E4B1B68AB
:109B200003F00103002B00D000BE084A084BD31AF3
:109B3000DB081B0443F002030849184604F0D0FB7D
:109B4000FFF7BEFF00BF1037BD4680BDDCAC030091
:109B5000ACAC03008C5E0300F0ED00E0985E030007
:109B600080B483B000AF0346FB71FB7903F01F02A2
:109B7000074997F907305B09012000FA02F241F822
:109B8000232000BF0C37BD465DF8047B704700BF43
:109B900000E100E080B483B000AF0346FB71FB79C5
:109BA00003F01F02074997F907305B09012000FA0B
:109BB00002F2203341F8232000BF0C37BD465DF888
:109BC000047B704700E100E080B483B000AF03463F
:109BD000FB71FB7903F01F02074997F907305B0916
:109BE000012000FA02F2403341F8232000BF0C3775
:109BF000BD465DF8047B704700E100E080B483B0AF
:109C000000AF0346FB71FB7903F01F02074997F988
:109C100007305B09012000FA02F2603341F823208B
:109C200000BF0C37BD465DF8047B704700E100E0E3
:109C300080B584B000AF78607B68002B0AD0074BFA
:109C400043F00103FB607B689B01BB60FB68B86865
:109C5000984700E000BF1037BD4680BDB05E0300EE
:109C600080B500AF0D4B4FF48032C3F844230B4B4B
:109C70004FF48032C3F804231120FFF7BFFF1120F7
:109C8000FFF76EFF054B01221A602F20FFF7D0FF70
:109C9000034B01221A7000BF80BD00BF00100140BD
:109CA0006230002080B500AF1120FFF773FF0F4B2B
:109CB0004FF48032C3F848230C4B4FF48032C3F882
:109CC00008230A4B01225A602F20FFF7B1FF074BF0
:109CD00001229A60064B00221A602F20FFF7A8FF8E
:109CE000044B00221A7000BF80BD00BF001001406D
:109CF000543000206230002080B400AF034BD3F812
:109D000004351846BD465DF8047B704700100140DD
:109D100080B483B000AF786039607A683B68D31A4A
:109D200023F07F4318460C37BD465DF8047B70472F
:109D300080B483B000AF7860044A7B68C2F84035D5
:109D400000BF0C37BD465DF8047B70470010014032
:109D500080B487B000AF7860294B1B68002B03D11B
:109D6000274A7B68136045E07B681A68244B1B68B0
:109D70001B689A4210D8224B1B6819687B681A68C6
:109D80001F4B1B688A1A1A601D4B1A687B68DA61C0
:109D90001B4A7B6813602DE07B681B68FB60184BD7
:109DA0001B687B61164B1B683B6109E03B691B68C4
:109DB000FA68D31AFB603B697B613B69DB693B61F5
:109DC0003B69002B04D03B691B68FA689A42EDD8C6
:109DD0003B69002B05D03B691A68FB68D21A3B69C6
:109DE0001A607B68FA681A607B683A69DA617B6995
:109DF0007A68DA6100BF1C37BD465DF8047B7047A6
:109E00005030002080B586B000AF7860294B1B68C9
:109E1000FB60284B1B687B617B693B6108E03A690A
:109E20007B689A4208D03B697B613B69DB693B6197
:109E30003B69002BF3D100E000BF3B69002B01D14F
:109E4000002333E07A693B699A4214D1194B1B68AD
:109E5000DB69184A1360174B1B68002B0BD1164B9C
:109E600001229A60154B00221A60154B01221A70CC
:109E70002F20FFF7DDFE3B691B68BB603B69DA6999
:109E80007B69DA617B69DB693B613B69002B05D04B
:109E90003B691A68BB681A443B691A60054B1B682A
:109EA000FA689A4214BF01230023DBB21846183720
:109EB000BD4680BD503000200010014054300020CD
:109EC0006330002080B500AF1120FFF77DFE00BF9A
:109ED00080BD80B500AF1420FFF776FE00BF80BDC7
:109EE00080B582B000AF78607B685B697A68926900
:109EF0001046984700BF0837BD4680BD80B584B086
:109F000000AF2B4B1B68002B4ED000237B60FFF76C
:109F1000F3FE0246274B1B6819461046FFF7F8FE72
:109F2000B860234B1B68FB601DE0FB681B68BA68C8
:109F30009A421CD3FB681B68BA68D31ABB60FB68E3
:109F40001B687A6813447B60FB683B60FB68DB69D5
:109F5000FB603B681B7C002B05D03B6800221A7419
:109F60003868FFF7BDFFFB68002BDED100E000BFC3
:109F7000114B1A78114B1B789A420CD10F4B1B785E
:109F80000133DAB20D4B1A700C4B1B78022B02D145
:109F90000A4B00221A70094B1B781946084A7B6845
:109FA00042F82130FFF795FF00BF1037BD4680BD56
:109FB00050300020543000206030002061300020FC
:109FC0005830002080B483B000AF7860194B1A7805
:109FD000194B1B789A4223D0164B1B780133DAB207
:109FE000144B1A70134B1B78022B02D1114B002219
:109FF0001A70104B1B781A46104B53F822207B68BE
:10A000001A607B681A680E4B1B6813440C4A136075
:10A010000B4B1B6823F07F43094A1360012303E0C5
:10A020007B6800221A60002318460C37BD465DF895
:10A03000047B7047603000206130002058300020E1
:10A040005430002080B489B000AFF860B9607A6005
:10A050000023FB6138E0214B1B68BB61BB691B68B7
:10A06000FA689A4206D2BB691A68FB68D21ABB69C1
:10A070001A602DE0BB691B68FA68D31AFB60BB69E4
:10A080001B68FA691344FB61BB6900221A60134B19
:10A090001B687B61BB69DB69104A1360BB69DB68C5
:10A0A000002B11D0BA68FB69134423F07F42BB69CF
:10A0B0005A60BB69DA68BB699A607B681A68BB69D9
:10A0C000DA617B687A691A60044B1B68002BC2D185
:10A0D00000BF2437BD465DF8047B70475030002038
:10A0E00080B588B000AF78600023FB77654B1B68B4
:10A0F0007B61A9E07B68002B05D07B68BB61BB69F5
:10A10000DB697B6060E0604B1B781A4613465B009E
:10A110001344DB005C4A134404333B615A4B1B7805
:10A120000133DAB2584B1A70574B1A78564B9B785A
:10A130009A4202D1544B00221A703B695B68BB61A2
:10A140003B691B78022B04D0032B1AD0012B1ED0A5
:10A150001CE03B695B681846FFF754FE0346002B82
:10A1600001D00123FB77BB6900221A746CE0454BD8
:10A170001B68FB60FB6800221A74FB68DB69414ABC
:10A180001360404B1B68002BF1D15DE05CE000BF29
:10A19000BB691B7C002B00D056E03B699A68BB6909
:10A1A0005A603B69DA68BB699A603B691A69BB69A6
:10A1B000DA603B695A69BB699A61344B1B78002BA2
:10A1C00002D0BB6900225A60BB695A68304B1B68D9
:10A1D000D31A23F07F432F4A93420ED8BB695A68A3
:10A1E0002B4B1B6819461046FFF792FD0246BB69D0
:10A1F0009B681A44BB691A6017E0254B1A68BB6953
:10A200005B6819461046FFF783FDB860BB699B6821
:10A21000BA689A4206D2BB699A68BB68D21ABB690F
:10A220001A6002E0BB6900221A60BB6900225A6012
:10A23000BB6900229A60BB6901221A74BB690022C3
:10A24000DA61B869FFF784FD7B68002B7FF452AFB9
:10A250000D4B1A780C4B5B789A427FF44BAFFB7F27
:10A26000002B04D1074B1B687A699A4201D0012365
:10A2700000E0002303F00103DBB218462037BD469F
:10A2800080BD00BF50300020442F002063300020EC
:10A2900054300020FEFF7F0090B589B000AF786099
:10A2A000274B1B68002B44D0254B1B681B68FB61A8
:10A2B000FFF722FDB861234B1B687B617969B869A0
:10A2C000FFF726FD034603333B611F4B1B7883F0EA
:10A2D0000103DBB2002B01D0FFF7C2FC3A69FB6936
:10A2E000934238BF13467A6913447B617B6923F03C
:10A2F0007F437B617869FFF71BFDFFF7FDFCF8608A
:10A30000B969F868FFF704FD0346DC1CB969786990
:10A31000FFF7FEFC03469C420DD9FFF7EDFC034618
:10A320001846FFF705FD2F20FFF782FCFFF7CAFD57
:10A3300001E0FFF7B7FC00BF2437BD4690BD00BF6A
:10A3400050300020543000206230002080B586B0AC
:10A3500000AF00237B600023FB75164B1B683B613D
:10A36000154B1B68FB603B461846FFF72BFE034668
:10A37000FB72FB7A002B07D03B683A1D39691846FF
:10A38000FFF760FE0123FB757B681846FFF7A8FE08
:10A390000346002B01D00123FB75FB7D002B02D06F
:10A3A000F868FFF779FF054B00221A7000BF1837D5
:10A3B000BD4680BD54300020503000206330002066
:10A3C00080B483B000AF0346FB71044AFB7953703D
:10A3D00000BF0C37BD465DF8047B7047442F00205A
:10A3E00080B485B000AF7860134B5B780133FB73AA
:10A3F000114B9B78FA7B9A4201D10023FB730E4BE1
:10A400001B78FA7B9A4201D100230EE07B68FA7B2D
:10A410001A70094B5B781A4613465B001344DB0045
:10A42000054A13440433BB60BB6818461437BD4665
:10A430005DF8047B704700BF442F002080B588B0D2
:10A4400000AFF860B9607A603B600023FB610023D5
:10A45000BB7507F11603184600F074F907F11703EE
:10A460001846FFF7BDFFB861BB69002B02D104237A
:10A47000FB6117E0BB6901221A70BB69FA685A6078
:10A48000FFF73AFC0246BB699A60BB69BA68DA60BA
:10A49000BB697A681A61BB693A685A61FB7D1846E4
:10A4A000FFF78EFFBB7D184600F057F9FB69002BC4
:10A4B00001D1FFF70EFDFB6918462037BD4680BD70
:10A4C00080B586B000AF78600B46FB7000237B61DF
:10A4D0000023BB7307F10E03184600F033F907F1B0
:10A4E0000F031846FFF77CFF38613B69002B02D150
:10A4F00004237B6109E03B69FA781A703B697A684A
:10A500005A60FB7B1846FFF75BFFBB7B184600F0E9
:10A5100024F97B69002B01D1FFF7DBFC7B6918462E
:10A520001837BD4680BD000080B500AF0D4B00223E
:10A53000C3F840210B4B0022C3F84421094B0022F1
:10A54000C3F84821074B0022C3F84C21054B0022D9
:10A55000C3F80021034B0022C3F80421FFF7CEFC0F
:10A5600000BF80BD0010014080B500AFFFF7EEFED8
:10A5700000BF80BD80B586B000AFF860B9607A607A
:10A58000FB687B61144B9B78002B01D108231EE0F4
:10A59000FB68002B01D1082319E0BB68042B01D80C
:10A5A000072314E07B695B69002B01D108230EE0CF
:10A5B0007B695B7C012B01D1BB6800E000233B6120
:10A5C0007B683A69B9687869FFF738FF034618462F
:10A5D0001837BD4680BD00BF442F002080B584B031
:10A5E00000AF78607B68FB600D4B9B78002B01D13E
:10A5F000082310E07B68002B03D0FB685B69002B0D
:10A6000001D1082307E0FB6800221A740221F868D0
:10A61000FFF756FF034618461037BD4680BD00BF02
:10A62000442F002080B500AFFFF766FB03461846B5
:10A6300080BD80B582B000AF7860396039687868D5
:10A64000FFF766FB034618460837BD4680BD80B459
:10A6500083B000AFEFF310833B603B687B6072B662
:10A660007B6818460C37BD465DF8047B704780B4A4
:10A6700000AF62B600BFBD465DF8047B70470000C6
:10A6800080B584B000AF7860FFF7E1FFF860164B4B
:10A690009B68002B1BD1144B01229A60134BD3F8FB
:10A6A0008020134B1340104A1360104B104AC3F81C
:10A6B00080200E4BD3F884300B4A53600B4B4FF085
:10A6C000FF32C3F884207B6800221A7002E07B68A6
:10A6D00001221A70FB68002B01D1FFF7C8FF00238D
:10A6E00018461037BD4680BDC03B002000E100E0A9
:10A6F000FC06FFBD80B584B000AF0346FB710F4B75
:10A700009B68002B15D0FB79002B12D1FFF79FFF20
:10A71000F8600B4A094B1B681360094A074B5B68DA
:10A720005360064B00229A60FB68002B01D1FFF7B3
:10A730009EFF002318461037BD4680BDC03B002059
:10A7400000E100E080B582B000AF78607868FFF784
:10A7500097FF00BF0837BD4680BD80B582B000AF0F
:10A760000346FB71FB791846FFF7C4FF00BF0837AB
:10A77000BD4680BD80B483B000AF78607B6803F0D5
:10A780000303002B0CBF01230023DBB218460C3758
:10A79000BD465DF8047B704780B584B000AF78603B
:10A7A0000023FB600EE00B4AFB6852F82330002BBD
:10A7B00005D0084AFB6852F8233078689847FB6850
:10A7C0000133FB60FB68032BEDD900BF1037BD469A
:10A7D00080BD00BF7030002080B483B000AF7860CF
:10A7E00039607B681B78013B052B61D801A252F8C8
:10A7F00023F000BF0DA8020015A802003BA802002C
:10A800006DA802008DA80200A9A802003B680022E2
:10A810001A704EE03B6801221A707B681A893B6807
:10A820009A817B689A883B68DA817B68DA683B6842
:10A830009A603B6800221A743BE03B6802221A705F
:10A840007B681A893B689A817B689A883B68DA81C1
:10A850007B68DA683B689A607B689B7D062B0CBF3F
:10A8600001230023DAB23B681A7422E03B6803221A
:10A870001A707B68DA883B689A817B681A893B6822
:10A88000DA817B68DA683B689A6012E03B680422F0
:10A890001A707B68DA883B689A813B680022DA810B
:10A8A0003B6800229A6004E03B6805221A7000E0D1
:10A8B00000BF00BF0C37BD465DF8047B704700BF8A
:10A8C00080B485B000AF786039607B68FB60FA685F
:10A8D0003B689A4206D2FB681B68B3F1FF3F01D088
:10A8E000012300E0002303F00103DBB21846143714
:10A8F000BD465DF8047B704780B483B000AF7860DC
:10A900007B685B8803339B007A68134418460C37D6
:10A91000BD465DF8047B704780B582B000AF7860BB
:10A9200039607868FFF7E8FF02463B68934201D23E
:10A9300002230CE07B689B884FF6FF72934203D0A2
:10A940007B681B88002B01D1012300E000231846FF
:10A950000837BD4680BD000080B582B000AF78608A
:10A960007B68002B13D00E4BDB681A467B68934242
:10A970000DD30B4B1B691A467B68934207D8786846
:10A98000FFF7F8FE0346002B01D0012300E000236F
:10A9900003F00103DBB218460837BD4680BD00BF97
:10A9A000D02D002080B483B000AF03460A46FB8060
:10A9B0001346BB80FA88124913469B0013449B0040
:10A9C0000B4408331A88BB881344BB80FA880C49AF
:10A9D00013469B0013449B000B440A331A88BB8820
:10A9E0001344BB80BB8840F2FF32934294BF0123E3
:10A9F0000023DBB218460C37BD465DF8047B704778
:10AA00009430002080B485B000AF786039600A23AC
:10AA1000FB6000237B8122E07A89164913469B0064
:10AA200013449B000B4404331B683A689A4213D9C1
:10AA30007A89104913469B0013449B000B4404334E
:10AA40001B6803F580533A689A4205D20023FB60E5
:10AA50007B687A891A8005E07B8901337B817B8959
:10AA6000012BD9D9FB6818461437BD465DF8047B25
:10AA7000704700BF9430002080B483B000AF78608E
:10AA800039603B689B7D022B09D97B681A893B683A
:10AA9000DB8813449BB203339AB27B681A817B68CC
:10AAA0005A893B68DB88D31A9BB2033B9AB27B6816
:10AAB0005A8100BF0C37BD465DF8047B704700002B
:10AAC00080B582B002AF074B1B6819460023009384
:10AAD0000823054A054802F041F803461846BD46DA
:10AAE00080BD00BFBC300020B85E0300D02D002028
:10AAF00080B584B002AF78607968002300930823A2
:10AB0000044A054802F02AF8034618460837BD46AD
:10AB100080BD00BFC05E0300D02D002080B584B092
:10AB200000AF03463960FB800023FB73FB880333CF
:10AB30007B817B8940F2FD32934201D909233DE0BC
:10AB40000023BB8131E0BA891E4913469B001344A0
:10AB50009B000B441B78002B24D17A89BB891146BA
:10AB60001846FFF71FFF0346002B1BD00123FB7382
:10AB70003B68BA891A80BA89124913469B0013446C
:10AB80009B000B440A331988BA897B890B4498B21D
:10AB90000C4913469B0013449B000B440A330246A6
:10ABA0001A8005E0BB890133BB81BB89012BCAD95F
:10ABB000FB7B002B01D0002300E007231846103751
:10ABC000BD4680BD9430002080B483B000AF034602
:10ABD0000A46FB801346BB80BA880E4913469B0089
:10ABE00013449B000B440A331A88FB88D31A9BB288
:10ABF000BA88033B98B2074913469B0013449B0055
:10AC00000B440A3302461A8000BF0C37BD465DF87C
:10AC1000047B70479430002080B500AF01210348C9
:10AC200001F0FAFA0346184680BD00BF80300020CC
:10AC300080B584B000AF03463960FB80FA882349B1
:10AC400013469B0013449B000B4404331B6803F51D
:10AC50008053BB603B681B68FB60FB68002B04D023
:10AC6000F868FFF749FEF86023E0FA8817491346B1
:10AC70009B0013449B000B4404331B680833FB60A8
:10AC800017E0B968F868FFF747FE0346012B09D0C3
:10AC9000022B0CD0002B00D00BE03B68FA681A6046
:10ACA00001230EE0F868FFF727FEF86001E00023BB
:10ACB00007E0B968F868FFF703FE0346002BE0D110
:10ACC000002318461037BD4680BD00BF94300020D9
:10ACD00080B584B000AF786039607B685B681846E7
:10ACE000FFF73AFE0346002B19D07B681A89254BE3
:10ACF0001B899A4213D17B681A687B685B689B68E2
:10AD00009A420CD17B685B6819463868FFF77AFE77
:10AD10000346002B0CBF01230023DBB22DE03B6870
:10AD200000221A8024E00023BB6010E0BB68FB60B7
:10AD3000FB689A687B681B689A4208D1BA687B688E
:10AD40005A60104B1A897B681A81012315E03B6811
:10AD50001B8807F1080211461846FFF769FF0346F2
:10AD6000002BE3D13B681B8801339AB23B681A8001
:10AD70003B681B88012BD6D9002318461037BD46E7
:10AD800080BD00BFC430002080B586B000AFF86041
:10AD9000B9607A603B60314B1B78DBB283F0010312
:10ADA000DBB2002B01D0022353E07B68002B02D0E2
:10ADB0003B68002B48D105234BE03B689B88194634
:10ADC000274A0B469B000B449B0013441B78002B27
:10ADD00033D124E03B681B687B61FB68002B06D005
:10ADE0007B699A88FB681B889A4200D017E0BB6891
:10ADF000002B06D07B691A88BB681B889A4200D05A
:10AE00000DE07B699A687B681A603B681A687B680A
:10AE10005A60144B1A897B681A81002319E03B6839
:10AE20009B883A6811461846FFF702FF0346002B3D
:10AE3000D0D13B6800221A6000E000BF3B689B88CD
:10AE400001339AB23B689A803B689B88012BB4D946
:10AE50000A2318461837BD4680BD00BF6430002065
:10AE600094300020C430002080B584B000AF7860FA
:10AE7000074B7968184601F01AF8F8601C22002187
:10AE8000F8680AF033FEFB6818461037BD4680BDEF
:10AE90008430002080B582B000AF7860044B7968C0
:10AEA000184601F01EF800BF0837BD4680BD00BF40
:10AEB0008430002080B582B000AF7860044B7968A0
:10AEC000184601F023F8034618460837BD4680BDF2
:10AED0008430002080B582B000AF7860044B796880
:10AEE000184601F02DF800BF0837BD4680BD00BFF1
:10AEF0008430002080B500AF0121054801F0A5F99C
:10AF00000346002B14BF01230023DBB2184680BD8B
:10AF10006C30002080B586B002AF786039607B6805
:10AF200002229A7539687B681A1D00230093042356
:10AF3000064801F013FEF860FB68002B01D10023E6
:10AF400000E00E2318461037BD4680BDD02D0020EE
:10AF500080B586B002AF786039607B681B69002BD2
:10AF600001D0032200E001227B689A753B68083318
:10AF700019467B6803F10C02002300930423074861
:10AF800001F0ECFDF860FB68002B01D1002300E02C
:10AF90000E2318461037BD4680BD00BFD02D0020BF
:10AFA00080B586B002AF786039607B681B78032B70
:10AFB00001D1052200E006227B689A753B680433C4
:10AFC00019467B6803F10802002300930423074815
:10AFD00001F0C4FDF860FB68002B01D1002300E004
:10AFE0000E2318461037BD4680BD00BFD02D00206F
:10AFF00080B586B002AF78600B467B80796800230D
:10B00000009304230C4A0D4801F0A8FDF860FB688A
:10B01000002B01D00E230AE07A88094913469B00D1
:10B0200013449B000B44103301221A70002318466E
:10B030001037BD4680BD00BFC85E0300D02D002084
:10B040009430002080B588B000AF786007F1080325
:10B0500000221A605A609A607B68DB68BB6007F167
:10B06000160207F1080311461846FFF731FE0346A2
:10B07000002B11D0FB68BB61BB699A887B68DA80C2
:10B08000BB691A887B681A81FB68FA8A11461846E0
:10B09000FFF7AEFFF86101E00A23FB61FB69184688
:10B0A0002037BD4680BD000080B586B000AF786017
:10B0B0007B68981D07F108020D4B0021FFF764FE25
:10B0C00078617B69002B08D1FA68094B9B88194687
:10B0D0001046FFF78DFF786104E008220021044844
:10B0E0000AF004FD7B6918461837BD4680BD00BFD5
:10B0F000D430002080B586B002AF786039607B68BC
:10B1000001229A753B680C3318467B681A697B6884
:10B11000DB889900002300930B460146064801F0A6
:10B120001DFDF860FB68002B01D1002300E00E2319
:10B1300018461037BD4680BDD02D002080B483B0A6
:10B1400000AF164B1B8901339AB2144B1A81134B73
:10B1500000225A80114B00221A730023FB8014E056
:10B16000FA880F4913469B0013449B000B441A783E
:10B17000FB88002A0CBF01220022D1B2074A1344E7
:10B180000A469A72FB880133FB80FB88012BE7D9C2
:10B1900000BF0C37BD465DF8047B7047C43000200B
:10B1A0009430002080B485B000AF78600023FB733A
:10B1B0000023BB8129E0BB89194A13449B7A002BE9
:10B1C00020D0BB89164A134400229A72BA891549C5
:10B1D00013469B0013449B000B440C331B68002B4D
:10B1E00010D1BA890F4913469B0013449B000B44AE
:10B1F00010331B78002B05D07B68BA891A80012395
:10B20000FB7305E0BB890133BB81BB89012BD2D91C
:10B21000FB7B18461437BD465DF8047B704700BFC2
:10B22000C43000209430002080B500AF084B0522C8
:10B230001A70084B02229A80064B1B68194600239D
:10B240000122054801F06EFD0346184680BD00BF8F
:10B25000C4300020BC300020D02D002080B582B04A
:10B2600000AF154B5B887B807A88144913469B009E
:10B2700013449B000B440C331B68002B13D10E4B63
:10B2800004221A707A880D4913469B0013449B00D0
:10B290000B4404331B68194600230122084801F0BF
:10B2A00041FD786002E0FFF7BFFF78607B681846D9
:10B2B0000837BD4680BD00BFC43000209430002058
:10B2C000D02D002080B586B002AF104B5B68FB60CC
:10B2D0000F4B1A680E4B9B889B001344BB60FB68A6
:10B2E0005B880333FB80094B03221A70B968074B54
:10B2F0005A68FB889800002300930346054801F034
:10B300002DFC034618461037BD4680BDC4300020D2
:10B31000BC300020D02D002080B582B000AF0A4B99
:10B320005B880A491846FFF783FC0346002B03D0CD
:10B33000FFF7C8FF786002E0FFF790FF78607B6856
:10B3400018460837BD4680BDC4300020C8300020F4
:10B3500080B500AF094B06221A70084B5B8819466E
:10B36000074A0B469B000B449B00134404331B68A5
:10B370001846FFF7BDFB0346184680BDC4300020C9
:10B380009430002080B500AF054B07221A70044BA3
:10B3900000225A60FFF794FB0346184680BD00BFA9
:10B3A000C430002080B500AF0C48FFF7FBFE034619
:10B3B00083F00103DBB2002B0BD0094B00221A7083
:10B3C000074B00225A80064B00225A6041F61D535B
:10B3D00002E0FFF7A1FF0346184680BDC6300020FB
:10B3E000C430002080B483B000AF0A4B5B687B6040
:10B3F0007B685B8803337B80074B9A887B88134488
:10B400009AB2054B9A8000BF0C37BD465DF8047BAD
:10B41000704700BFC4300020BC30002080B483B02F
:10B4200000AF194B1B687B60184B5B881946184AA4
:10B430000B469B000B449B00134404331B68124AC9
:10B440001360124B5B881946114A0B469B000B4454
:10B450009B00134404337A681A600C4B5B881946CE
:10B46000094B98880A4A0B469B000B449B001344E7
:10B47000083302461A80044B02229A8000BF0C3720
:10B48000BD465DF8047B7047BC300020C43000200E
:10B490009430002080B500AF1A4B1B78072B2DD8B5
:10B4A00001A252F823F000BFC9B40200FDB40200AB
:10B4B000FDB40200D5B40200E1B40200EDB4020014
:10B4C000EDB40200F5B40200FFF738FE0D4B012287
:10B4D0001A7014E0FFF786FF0A4B02221A700EE082
:10B4E000FFF79CFF074B06221A7008E0054B072266
:10B4F0001A7004E0034B01221A7000E000BF00BF85
:10B5000080BD00BFC430002080B586B000AF786039
:10B5100039600F237B617B68002B04D05B4B0022DA
:10B520005A600123ADE03B681B79032B00F29D803C
:10B5300001A252F823F000BF49B5020057B502003E
:10B54000D1B50200F1B502003B6801221A71FFF784
:10B55000B7FA78618CE00023FB7400233B8225E07E
:10B560003A8A4B4913469B0013449B000B441B78BB
:10B57000022B18D13A8A464913469B0013449B007C
:10B580000B4400221A700123FB743A8A4049134687
:10B590009B0013449B000B4404331B681846FFF7C1
:10B5A000A7FA786105E03B8A01333B823B8A012B95
:10B5B000D6D9FB7C83F00103DBB2002B57D0334B91
:10B5C00001221A70314B00225A6041F61D5358E097
:10B5D0003B6800221A712F4B02229A802D4B1B6868
:10B5E0001946002301222C4801F09CFB78613FE0C2
:10B5F0003B6800221A71274B1B681846FFF778FA40
:10B600007861264B5B88FB81224B1B68BB60FA8903
:10B610001F4913469B0013449B000B4404331B68D3
:10B620001C4A1360FA891A4913469B0013449B0075
:10B630000B440433BA681A60FA89164B9888144987
:10B6400013469B0013449B000B44083302461A80A8
:10B65000104B02229A80FA890D4913469B0013442D
:10B660009B000B4400221A7002E000BF00E000BF04
:10B670007B69002B04D0054B00225A600E2300E0AA
:10B68000002318461837BD4680BD00BF6430002037
:10B6900094300020BC300020D02D0020C430002089
:10B6A00080B586B000AF786039603B689B8A1A46E7
:10B6B00013469B0013449B00394A13443B617B684B
:10B6C000002B05D039683869FFF7D6F9012362E00D
:10B6D0003B695A683B691B899B001344FB603B68CC
:10B6E0009B7D062B4CD801A252F823F02FB7020005
:10B6F00053B702003BB7020047B7020009B7020088
:10B700005FB7020079B70200264B00225A603B68FF
:10B710009B69244A136024492248FFF7D9FA03465B
:10B7200083F00103DBB2002B01D00A2333E0F96878
:10B730003868FFF7EFFB786125E0F9683868FFF7B4
:10B7400007FC78611FE0F9683868FFF7D3FC78617F
:10B7500019E0F9683868FFF723FC786113E03B686B
:10B7600006229A750F4B5A680F4B1B8819461046D4
:10B77000FFF73EFC786106E041F61D537B6102E075
:10B780000F237B6100BF7B69002B03D039683869C8
:10B79000FFF772F97B6918461837BD4680BD00BFB8
:10B7A00094300020DC300020E830002080B584B0E8
:10B7B00000AF786039607B68002B01D0012323E063
:10B7C0003B681B79012B0BD0022B14D0002B16D118
:10B7D0003B6802221A713868FFF734FCF86012E007
:10B7E0003868FFF761FCF860FB680A2B0AD141F664
:10B7F0001D53FB6006E041F61D53FB6003E00F2381
:10B80000FB6000E000BFFB6818461037BD4680BDF6
:10B8100080B584B000AF78607B68002B01D0012335
:10B820003CE0204B1B7B002B03D01E4B00221A73E5
:10B8300001E0FFF72FFE1B4B1B78013B062B29D89D
:10B8400001A252F823F000BF65B802006DB80200F3
:10B8500075B802007DB8020095B8020085B80200F4
:10B860008DB80200FFF79EFDF86016E0FFF754FD6B
:10B87000F86012E0FFF726FDF8600EE0FFF7EEFC3F
:10B88000F8600AE0FFF764FDF86006E0FFF77AFD74
:10B89000F86002E00F23FB6000BFFB68184610371A
:10B8A000BD4680BDC430002080B588B000AF786050
:10B8B0003C4B1B68002B05D13B48FFF7FBFA0246C7
:10B8C000384B1A60374B1B681B78013B052B2CD873
:10B8D00001A252F823F000BFF1B8020001B9020042
:10B8E00001B9020011B9020011B9020021B9020028
:10B8F0002C4B1B6819467868FFF706FE786017E046
:10B90000284B1B6819467868FFF7CAFE78600FE07D
:10B91000244B1B6819467868FFF748FF786007E0FA
:10B920007868FFF775FF786002E00F237B6000BF47
:10B930007B68002B2ED007F10C0300221A605A609E
:10B940009A60DA601A617B6841F61D52934201D019
:10B950007B6800E000233B61124B1B6807F10C027F
:10B9600011461846FEF738FF07F10C031846FEF79C
:10B9700013FF0C4B00221A6000237B600A48FFF77C
:10B98000A9FAFFF7B7FA034683F00103DBB2002BF5
:10B9900002D18DE700BF00E000BF00BF2037BD46E9
:10B9A00080BD00BFEC300020F030002080B500AF3B
:10B9B0000121054800F017FC0346002B02D10020AE
:10B9C000FFF772FF00BF80BD6C30002080B582B0F1
:10B9D00000AF78607B685B681846FFF765FF00BFC3
:10B9E0000837BD4680BD000080B58AB000AFF86062
:10B9F000B9607A60FB700023BB840023FB844C4B4E
:10BA00001B78DBB283F00103DBB2002B01D00223F1
:10BA10008AE0BB68002B01D1052385E0BB681B8849
:10BA20004FF6FF72934203D0BB685B88002B01D1B5
:10BA3000042379E0BB685B681846FEF79BFE03466B
:10BA400083F00103DBB2002B01D003236CE07B68A1
:10BA5000002B0FD1BB689B68FB8407F11A02FB8C9B
:10BA600011461846FFF75AF838623B6A002B07D098
:10BA70003B6A59E07B681B887B837B685B88FB841F
:10BA800007F114031846FFF7EFF9F861FB69002B83
:10BA900007D17A8BFB8C11461846FFF795F80823DF
:10BAA00042E0FB69FA781A70FB6900229A757A8B7A
:10BAB000FB699A82BB685A68FB691A61FFF7ACF8A8
:10BAC0000246FB69DA60BB681A88FB691A81BB68A9
:10BAD0005A88FB699A80FB69FA8CDA80FB78032B21
:10BAE00006D1FB6904229A75FB681A68FB699A61A2
:10BAF000FB69BA8C5A8107F114031846FFF7CAF99B
:10BB0000FB68002B0DD0FB6800225A60FB69DA68E5
:10BB1000FB681A60FB6800229A72064B1A89FB6860
:10BB20001A81FFF743FF002318462837BD4680BD22
:10BB300064300020C430002080B584B000AF78604D
:10BB400039607B68002B02D03B68002B01D10523B4
:10BB500028E007F10A0319467868FFF7B9F80346A9
:10BB6000002B1ED07B685B68FB607B891A461346FE
:10BB70009B0013449B0008330C4A134404330121F7
:10BB8000184600F049FB3B68FA681A607B685B68FE
:10BB900003F10C023B685A607B6801229A72002311
:10BBA00000E00A2318461037BD4680BD94300020BF
:10BBB00080B584B000AF78607B68002B01D105238D
:10BBC00037E007F10A0319467868FFF781F8034662
:10BBD000002B2BD07B891946184A0B469B000B443F
:10BBE0009B0013440C331B68002B1CD07B689B7A92
:10BBF000002B18D07B891A46104913469B0013442A
:10BC00009B000B440C331B68591E0C4813469B00C9
:10BC100013449B0003440C3319607B6800229A7222
:10BC20000023FB6004E00623FB6001E00A23FB60C5
:10BC3000FB6818461037BD4680BD00BF9430002019
:10BC400080B582B000AF7860396002230022396885
:10BC50007868FFF7C9FE034618460837BD4680BD21
:10BC600080B582B000AF786039607B68002B01D16D
:10BC7000052306E00323002239687868FFF7B4FE45
:10BC8000034618460837BD4680BD000080B584B025
:10BC900000AF0346FB80184B1B78DBB283F0010337
:10BCA000DBB2002B01D0022322E0FB884FF6FF72AB
:10BCB000934201D104231BE007F108031846FFF764
:10BCC000D3F8F860FB68002B01D1082310E0FB6873
:10BCD00005221A70FB6801221A71FB68FA88DA8063
:10BCE00007F108031846FFF7D5F8FFF75FFE0023BA
:10BCF00018461037BD4680BD6430002080B584B042
:10BD000000AFBA607B600346FB810B46BB8107F145
:10BD10000C0107F10E007B68BA68FFF735F803469F
:10BD200018461037BD4680BD80B584B000AF0346CD
:10BD3000B9607A60FB8107F10E017B68BA68002068
:10BD4000FFF722F8034618461037BD4680BD80B580
:10BD500084B000AF0346B9607A60FB8107F10E0042
:10BD60007B68BA680021FFF70FF8034618461037C2
:10BD7000BD4680BD80B483B000AF786039607B6819
:10BD8000002B02D03B68002B01D1052304E07B6827
:10BD90001A683B681A60002318460C37BD465DF8E8
:10BDA000047B704780B487B000AF786039607B68EF
:10BDB00053E8011F8AB2D88902449889824228BF79
:10BDC000121A1889824202BFBFF32F8F002307E0A7
:10BDD000C2EA010243E801200028E9D14FF0010343
:10BDE000FB737861B9603A61BA683B681A60FB7BA3
:10BDF000DBB218461C37BD465DF8047B704780B443
:10BE000085B000AF7860796851E8013FC3EA034329
:10BE100041E80132002AF7D1FA60BB6000BF143755
:10BE2000BD465DF8047B704780B487B000AF786092
:10BE300039607B6853E8021F1FFAA1F2D88882425A
:10BE400002BFBFF32F8F00230DE0D88902449889E9
:10BE5000824228BF121AC1EA024243E802200028A7
:10BE6000E8D14FF00103FB737861B9603A61BA68B9
:10BE70003B681A60FB7BDBB218461C37BD465DF899
:10BE8000047B704780B485B000AF7860796851E872
:10BE9000023FC3EA234341E80232002AF7D1FA60A5
:10BEA000BB6000BF1437BD465DF8047B704780B5AA
:10BEB00084B000AF786039603B6819467868FFF756
:10BEC00071FF0346002B07D07B681B683A68128815
:10BED0001344FB60FB6800E0002318461037BD46A2
:10BEE00080BD80B582B000AF786039603B681A8849
:10BEF0003B685B889A4204D17868FFF780FF012392
:10BF000000E0002318460837BD4680BD80B584B0E8
:10BF100000AF786039603B6819467868FFF784FFA6
:10BF20000346002B07D07B681B683A68528813448D
:10BF3000FB60FB6800E0002318461037BD4680BD5B
:10BF400080B582B000AF786039603B681A883B6882
:10BF50005B889A4204D17868FFF794FF012300E0E0
:10BF6000002318460837BD4680BD80B584B000AFB9
:10BF7000786039603B685B099B007A68D0183B6841
:10BF800003F01F03012202FA03F3194600F0E0F860
:10BF9000F86000BF1037BD4680BD80B582B000AFED
:10BFA000786039603B685B099B007A68D0183B6811
:10BFB00003F01F03012202FA03F3194600F0AFF861
:10BFC00002463B6803F01F0322FA03F303F0010368
:10BFD000002B14BF01230023DBB218460837BD46EF
:10BFE00080BD80B584B000AF786039603B685B0984
:10BFF0009B007A68D0183B6803F01F03012202FA05
:10C0000003F3DB43194600F0D5F8F86000BF1037A2
:10C01000BD4680BD80B483B000AF786039603B68B6
:10C020005B099B007A6813441A683B6803F01F039E
:10C0300022FA03F303F00103002B14BF01230023B2
:10C04000DBB218460C37BD465DF8047B704780B5FF
:10C050008AB000AF7860396000237B623BE07B6A86
:10C060009B007A6813441B68DB43BB61BB6993FA8E
:10C07000A3F37B617B69B3FA83F33B6223E07B6AC2
:10C080005B013A6A1344FB61FA693B689A421ED22B
:10C09000F9697868FFF781FF034683F00103DBB29B
:10C0A000002B01D0FB691EE07B6A9B007A68134479
:10C0B0001B68DB433B613B6993FAA3F3FB60FB68BE
:10C0C000B3FA83F33B623B6A1F2BD8D900E000BF71
:10C0D0007B6A01337B623B68013B5B0901337A6A0F
:10C0E0009A42BCD33B6818462837BD4680BD90B401
:10C0F00086B000AF786039607B683A6853E8004FDB
:10C10000104643E8000191F0000FF7D17C613861DF
:10C11000F9607B6918461837BD4690BC704790B4EB
:10C1200086B000AF786039607B683A6853E8004FAA
:10C1300044EA020043E8000191F0000FF6D17C616F
:10C140003861F9607B6918461837BD4690BC704766
:10C1500090B486B000AF786039607B683A6853E885
:10C16000004F44EA020043E8000191F0000FF6D1CD
:10C170007C613861F9603B6918461837BD4690BC50
:10C18000704790B486B000AF786039607B683A68D9
:10C1900053E8004F04EA020043E8000191F0000F69
:10C1A000F6D17C613861F9607B6918461837BD4665
:10C1B00090BC704790B486B000AF786039607B68FF
:10C1C0003A6853E8004F04EA020043E8000191F0A6
:10C1D000000FF6D17C613861F9603B691846183769
:10C1E000BD4690BC704790B486B000AF78603960AF
:10C1F0007B683A6853E8004F04EB020043E8000113
:10C2000091F0000FF6D17C613861F9607B691846C6
:10C210001837BD4690BC704790B486B000AF7860C8
:10C2200039607B683A6853E8004F04EB020043E84A
:10C23000000191F0000FF6D17C613861F9603B6933
:10C2400018461837BD4690BC704790B486B000AF12
:10C25000786039607B683A6853E8004FA4EB0200CD
:10C2600043E8000191F0000FF6D17C613861F9607C
:10C270003B6918461837BD4690BC704780B582B000
:10C2800000AF786001217868FFF762FF0346184627
:10C290000837BD4680BD80B582B000AF7860002110
:10C2A0007868FFF76EFF034618460837BD4680BD25
:10C2B00080B483B000AF78600B46FB707B68DA68AF
:10C2C000FB787968098A01FB03F3134418460C379D
:10C2D000BD465DF8047B704780B483B000AF7860E2
:10C2E00039603B687A68D2689B1A7A68128AB3FB15
:10C2F000F2F3DBB218460C37BD465DF8047B70479D
:10C3000080B584B000AF78600023FB600023BB726F
:10C3100007F10A031846FEF715FA7B681B681A68CE
:10C320007B685B689A421DD97B681B681A68013A72
:10C330001A601B681B7819467868FFF7B9FFF86028
:10C340007B689B681A467B681B681B68D31AFB7264
:10C350007B681B681B79FA7A9A4203D97B681B6851
:10C36000FA7A1A71BB7A1846FEF7F7F9FB68184695
:10C370001037BD4680BD90B585B000AF786039609C
:10C380003B68FB600023FB7207F10B031846FEF7C6
:10C39000D9F97B681B681C68621C1A60F9687868A8
:10C3A000FFF79AFF03462370FB7A1846FEF7D5F98C
:10C3B00000BF1437BD4690BD80B582B000AF786035
:10C3C0007B689B68002B0CD07B685B697A6810697E
:10C3D0007A6811687A68926898477B6800229A6048
:10C3E00000E000BF0837BD4680BD0EB480B585B003
:10C3F00000AF7860FB69002B0CD00023FB6007F1D5
:10C400002003FB6007F10C031A46F969786800F015
:10C41000AFF900E000BF1437BD46BDE8804003B06F
:10C42000704780B582B000AF78600B46FB70FB7838
:10C430000A2B03D10D217868FFF7F3FF7B681A6898
:10C440007B689B68581C796888601344FA781A7076
:10C450007B689A687B685B689A4202D37868FFF7CA
:10C46000ABFF00BF0837BD4680BD80B586B000AFCA
:10C47000F860B9607A603B6000237B613B6803F041
:10C480000103002B21D00AE0BB680133BB607B694C
:10C4900001337B61FB7C1946F868FFF7C2FFBB687C
:10C4A0001B78FB74FB7C002BEED106E07B68013B24
:10C4B0007B602021F868FFF7B4FF7A687B699A42B5
:10C4C0002BD97B68002BF1D127E0BB68002B0BD068
:10C4D000B86809F013FB786106E07B68013B7B607C
:10C4E0002021F868FFF79DFF7A687B699A420ED990
:10C4F0007B68002BF1D10AE0BB680133BB607B692C
:10C5000001337B61FB7C1946F868FFF78AFFBB6843
:10C510001B78FB74FB7C002BEED100BF1837BD46A7
:10C5200080BD000080B588B000AFF860B9607A6067
:10C530003B60BB68FB610123BB6107E0FA697B6874
:10C54000B2FBF3F3FB61BB690133BB61FA697B6842
:10C550009A42F3D23A68BB699A4201D93B68BB61FF
:10C56000FB6A03F00103002B1FD1BB6A002B1CD018
:10C57000FB6A03F00203002B05D03B68002B02D1BD
:10C580003023FB7501E02023FB7507E0BB6A013B0C
:10C59000BB62FB7D1946F868FFF743FFBB6A002BBF
:10C5A00003D0BA69BB6A9A42F0D30123FB613B68AE
:10C5B000012B03D93B68013B3B6009E0BA68FB698A
:10C5C000B2FBF3F33B613A697B689A4200D205E023
:10C5D000FB697A6802FB03F3FB61E8E7BA68FB6971
:10C5E000B2FBF3F33B613B69FA6902FB03F3BA6800
:10C5F000D31ABB60154A3B6913441B781946F86887
:10C60000FFF70FFFFA697B68B2FBF3F3FB61FB698D
:10C61000002BE3D1FB6A03F00103002B11D0BB6AAE
:10C62000002B0ED006E0BB6A013BBB622021F868FC
:10C63000FFF7F7FEBB6A002B03D0BA69BB6A9A42C8
:10C64000F1D300BF2037BD4680BD00BFD85E0300D8
:10C6500080B588B002AFF860B9607A603B60BB68B3
:10C66000002BB8BF5B423B6101237B6107E07B6825
:10C670003A6992FBF3F33B617B6901337B617B6831
:10C680003A699A42F3DA3A687B699A4201D93B687F
:10C690007B613B6A002B0AD0BB68002B04DB7B6A02
:10C6A00003F00403002B02D03B6A013B3B627B6A30
:10C6B00003F00203002B02D03B68002B16D07B6AEC
:10C6C00003F00103002B11D13B6A002B0ED006E0D2
:10C6D0003B6A013B3B622021F868FFF7A2FE3B6A00
:10C6E000002B03D07A693B6A9A42F1D3BB68002BD6
:10C6F00007DABB685B42BB602D21F868FFF791FE4B
:10C7000008E07B6A03F00403002B03D02B21F868B8
:10C71000FFF787FE7B6A03F00203002B19D07B6AC8
:10C7200003F00103002B14D13B68002B11D13B6AAD
:10C73000002B0ED006E03B6A013B3B623021F868DB
:10C74000FFF76FFE3B6A002B03D07A693B6A9A427F
:10C75000F1D3B9687B6A01933B6A00933B687A68BE
:10C76000F868FFF7DFFE00BF1837BD4680BD000048
:10C7700080B58EB002AFF860B9607A60BB68002BFC
:10C7800000F0E881BB681B7887F82F30BB68013365
:10C79000BB6097F82F30002B00F0D38197F82F3033
:10C7A000252B40F0C28100233B620123BB62BB68A2
:10C7B0001B7887F82F3097F82F302D2B04D0302B93
:10C7C0000AD02B2B10D017E03B6A43F001033B62E9
:10C7D000BB680133BB6012E03B6A43F002033B627B
:10C7E000BB680133BB600AE03B6A43F004033B6271
:10C7F000BB680133BB6002E00023BB6200BFBB6AC1
:10C80000002BD4D10023FB6197F82F302A2B0CD1B9
:10C810007B681B68191D7A6811601B68FA691344EC
:10C82000FB61BB680133BB601AE0BB681B7887F80B
:10C830002F3097F82F302F2B12D997F82F30392B14
:10C840000ED8BB680133BB60FA6913469B001344E2
:10C850005B001A4697F82F301344303BFB61D3E757
:10C8600000237B62BB681B7887F82F3097F82F3046
:10C870002E2B1DD1BB680133BB60BB681B7887F8CA
:10C880002F3097F82F302F2B12D997F82F30392BC4
:10C890000ED8BB680133BB607A6A13469B00134411
:10C8A0005B001A4697F82F301344303B7B62E4E775
:10C8B000BB681B7887F82F3097F82F306C2B03D08C
:10C8C00097F82F30682B07D1BB680133BB60BB687A
:10C8D0001B7887F82F30EFE797F82F30253B532B45
:10C8E00000F21E8101A252F823F000BF17CB020014
:10C8F00021CB020021CB020021CB020021CB020080
:10C9000021CB020021CB020021CB020021CB02006F
:10C9100021CB020021CB020021CB020021CB02005F
:10C9200021CB020021CB020021CB020021CB02004F
:10C9300021CB020021CB020021CB020021CB02003F
:10C9400021CB020021CB020021CB020021CB02002F
:10C9500021CB020021CB020021CB020021CB02001F
:10C9600021CB020021CB020021CB020021CB02000F
:10C9700021CB020021CB020021CB020021CB0200FF
:10C9800021CB020021CB020021CB020021CB0200EF
:10C9900021CB020021CB020021CB020021CB0200DF
:10C9A00021CB020021CB020021CB020021CB0200CF
:10C9B00021CB020021CB0200A3CA020021CB02003E
:10C9C00021CB020021CB020021CB020021CB0200AF
:10C9D00021CB020021CB020021CB020021CB02009F
:10C9E00021CB02003DCA02005BCA020021CB02003B
:10C9F00021CB020021CB020021CB02005BCA020046
:10CA000021CB020021CB020021CB020021CB02006E
:10CA100021CB020021CB0200E3CA020021CB02009D
:10CA200021CB0200C7CA020021CB02007FCA02004C
:10CA300021CB020021CB0200A3CA02007B681B6845
:10CA4000191D7A6811601B68BB62BB6AFB75FB7DB0
:10CA50001946F868FFF7E5FC63E07B681B68191D61
:10CA60007A6811601B68BB623B6A0193FB690093A3
:10CA70007B6A0A22B96AF868FFF7EAFD51E07B6831
:10CA80001B68191D7A6811601B68BB62B96A3B6A32
:10CA90000193FB6900937B6A0A22F868FFF742FD65
:10CAA0003FE07B681B68191D7A6811601B68BB62D8
:10CAB000B96A3B6A0193FB6900937B6A1022F868AC
:10CAC000FFF730FD2DE07B681B68191D7A68116047
:10CAD0001B68BB613B6AFA69B969F868FFF7C5FC76
:10CAE0001FE07B681B68191D7A6811601B68BB62B8
:10CAF0003021F868FFF795FC7821F868FFF791FC82
:10CB0000B96A002301930823009308231022F868D0
:10CB1000FFF708FD05E02521F868FFF782FC00E03B
:10CB200000BFBB680133BB6005E097F82F301946A2
:10CB3000F868FFF776FCBB681B78002B7FF422AE09
:10CB400000E000BFFB681B7B002B04D0F868FFF7F8
:10CB500033FC00E000BF3037BD4680BD90B587B0E4
:10CB600002AFF860B9607A603B60FB68002B10D1BF
:10CB7000604A614BD31ADB081B0443F001005F4A93
:10CB80005F490E2300930B465E4901F0E1FB0E2343
:10CB9000ABE07B68002B10D1564A574BD31ADB0809
:10CBA0001B0443F00100584A55490E2300930B46DD
:10CBB000544901F0CDFB0E2397E0FB681B68002B66
:10CBC00010D14C4A4C4BD31ADB081B0443F0010034
:10CBD0004E4A4B49082300930B464A4901F0B8FBE3
:10CBE000082382E03B68002B10D1424A424BD31A03
:10CBF000DB081B0443F00100454A41490923009327
:10CC00000B46404901F0A4FB09236EE0FB685B681A
:10CC10005A683B68B3FBF2F102FB01F29B1A002B4E
:10CC200010D0344A344BD31ADB081B0443F0010004
:10CC3000384A3349092300930B46324901F088FBF7
:10CC4000092352E0B86800F026F90346002B10D102
:10CC5000284A294BD31ADB081B0443F001002E4A53
:10CC60002749102300930B46264901F071FB10233E
:10CC70003BE07B68184600F00EF90346002B10D10C
:10CC80001C4A1D4BD31ADB081B0443F00100234A46
:10CC90001B49102300930B461A4901F059FB10233E
:10CCA00023E03A68B968F86800F0D6F80346002B2C
:10CCB00010D1104A104BD31ADB081B0443F00100BB
:10CCC000174A0F49102300930B460E4901F040FB11
:10CCD00010230AE0FB681B68DC683B6A00933B6832
:10CCE0007A68B968F868A047034618461437BD4605
:10CCF00090BD00BF0CAD0300ACAC0300F85E0300B8
:10CD00009C600300005F03008C5F0300345F03003E
:10CD1000485F0300945F0300C05F0300D85F030017
:10CD2000FC5F030090B587B002AFF860B9607A602D
:10CD30003B60FB68002B10D13E4A3F4BD31ADB0807
:10CD40001B0443F001003D4A3D490E2300930B466E
:10CD50003C4901F0FDFA0E2368E0FB681B68002BDC
:10CD600010D1344A344BD31ADB081B0443F00100C2
:10CD7000354A3349082300930B46324901F0E8FA5B
:10CD8000082353E07B68002B10D12A4A2A4BD31A80
:10CD9000DB081B0443F001002C4A294909230093B6
:10CDA0000B46284901F0D4FA09233FE0B968F86836
:10CDB00000F083F80346002B10D11E4A1E4BD31AF5
:10CDC000DB081B0443F00100214A1D491023009396
:10CDD0000B461C4901F0BCFA102327E0FB685B6896
:10CDE0001B687A6802FB03F31A46B968F86800F01A
:10CDF00033F80346002B10D10E4A0F4BD31ADB0831
:10CE00001B0443F00100134A0D49102300930B4605
:10CE10000C4901F09DFA102308E0FB681B681C69AF
:10CE20003B687A68B968F868A04703461846143723
:10CE3000BD4690BD0CAD0300ACAC0300F85E030032
:10CE4000B0600300005F0300345F0300485F03002D
:10CE5000246003004C60030080B485B000AFF8602C
:10CE6000B9607A60FB68DB68BA689A4209D3BA682D
:10CE70007B6813445A1EFB681B699A4201D8012340
:10CE800000E0002303F00103DBB218461437BD466F
:10CE90005DF8047B704780B483B000AF78607B6836
:10CEA00003F00303002B0CBF01230023DBB2184661
:10CEB0000C37BD465DF8047B704780B483B000AF8B
:10CEC000786039607B685B681B685A1E3B6813405A
:10CED000002B0CBF01230023DBB218460C37BD46E4
:10CEE0005DF8047B704729DF704700BF184628DFD4
:10CEF000704700BF184680B588B000AF78603960D1
:10CF00007B681B689B68002B35D007F10803002263
:10CF10001A605A609A60DA601A615A613B68FB6075
:10CF20007B689B68FB617B681B79002B02D0012B1F
:10CF30000CD018E001233B727B681B693B617B6866
:10CF4000DB687B617B685B69BB610CE002233B7241
:10CF50007B68DB684FF4805202FB03F33B617B6824
:10CF60005B69BB6100BF7B681B689B6807F10802B7
:10CF70001046984700E000BF2037BD4680BD80B511
:10CF800086B000AF78607B685A697B689B69D31A6A
:10CF9000B3F5805F28BF4FF480537B6104227B6927
:10CFA000B3FBF2F3012B38BF01237B617B681A6965
:10CFB0007B689B6913443B617B68DB681A467B682E
:10CFC0009B691344FB607A69F9683869FFF78BFF46
:10CFD000034618461837BD4680BD80B582B000AF05
:10CFE00078607B68DA687B681B6913441846FFF732
:10CFF0007EFF034618460837BD4680BD80B500AFAA
:10D00000034B04491846FEF79BFF00BF80BD00BFDD
:10D01000F43000201C31002080B500AF084B0949D6
:10D020001846FEF773FF0246074B1A60064B1B6853
:10D03000002B14BF01230023DBB2184680BD00BFC4
:10D04000F43000201C3100201831002080B582B05F
:10D0500000AF2B4B1B7A002B0BD1FFF7DDFF0346F4
:10D0600083F00103DBB2002B03D0254B00225A6072
:10D0700042E0234B02221A72224B1B681B79002BC1
:10D0800002D0012B07D00DE01E4B1B681846FFF79E
:10D0900076FF786009E01B4B1B681846FFF79DFF81
:10D0A000786002E003237B6000BF7B68002B02D026
:10D0B000112B0CD00FE0124B1B7C83F00103DBB271
:10D0C000002B18D00021022000F07AF813E00C4B5E
:10D0D00001221A7210E00B4B1B6803211846FFF760
:10D0E0000AFF074B00221A72054B00225A60FFF715
:10D0F00085FF00BF00E000BF0837BD4680BD00BF10
:10D10000043100201831002080B485B000AF786071
:10D110001C4B0022DA607B681B79002B02D0012BAC
:10D1200019D028E07B685A697B689B69D31AB3F5EC
:10D13000805F28BF4FF48053FB607B689A69FB686F
:10D140001A447B689A617B689A697B685B699A423A
:10D150000ED1012310E07B681B695A1C7B681A61A1
:10D160007B681A697B685B699A4203D1012303E0FB
:10D1700000BF00E000BF002318461437BD465DF82D
:10D18000047B70470431002080B483B000AF786026
:10D190000A4BDB680133094AD360084BDB68082B74
:10D1A00004D9064B0022DA60012300E00023184670
:10D1B0000C37BD465DF8047B704700BF043100208A
:10D1C00080B584B000AF786039607B68022B02D0F4
:10D1D0007B68032B45D1264B1B7A012B31D0022BC8
:10D1E00002D0002B3FD02FE00023FB737B68022B83
:10D1F00002D0032B08D00FE01E4B1B681846FFF728
:10D2000083FF0346FB7307E01A4B1B681846FFF7C2
:10D21000BBFF0346FB7300BFFB7B002B13D0144BFB
:10D2200000221A72134B1A687B68022B01D100236B
:10D2300000E00D2319461046FFF75DFEFFF7DEFE06
:10D2400001E000BF00E000BF094B5B7C83F00103FD
:10D25000DBB2002B02D0FFF7F9FE05E002F04AF83E
:10D2600002E000BF00E000BF1037BD4680BD00BF38
:10D27000043100201831002080B483B000AF034691
:10D280003960FB71074B01225A74064B1B7A002B45
:10D290000CBF01230023DBB218460C37BD465DF8F6
:10D2A000047B70470431002080B582B000AF034694
:10D2B0003960FB71FB79012B02D0FB79032B0CD178
:10D2C000084B00225A74FB79012B0CBF0123002369
:10D2D000DAB2044B1A74FFF7B9FE00BF0837BD4637
:10D2E00080BD00BF0431002080B58AB000AF7860F7
:10D2F00039607B681B8A043BFB613A68FB69134415
:10D30000DA1CFB69B2FBF3F3FB767868FEF7F8FFF3
:10D3100078617B69002B01D1002337E07B69002213
:10D320001A717B6901225A71FB699AB27B69DA80B2
:10D330007B697B62FB7E013B3B617B6A7A681A609A
:10D3400000233B621DE07868FEF7DAFFF860FB68B7
:10D35000002B0ED07B695B790133DAB27B695A719D
:10D360007B6AFA681A60FB687A681A60FB687B62FD
:10D3700004E0786900F00EF8002307E03B6A01330F
:10D380003B623A6A3B699A42DDD37B69184628378B
:10D39000BD4680BD80B58AB000AF78607B68FB6118
:10D3A000FB695B79FB767B683B62FB7E013B7B61C3
:10D3B00000237B6205E03B6A1B683B627B6A0133AA
:10D3C0007B627A6A7B699A42F5D33B6A1B683B6150
:10D3D0007B683B6200237B620BE03B6A1B68FB605F
:10D3E000396A3869FEF7C7FFFB683B627B6A013325
:10D3F0007B62FB7E7A6A9A42EFD300BF2837BD4634
:10D4000080BD80B584B000AF78607B68FB60FB684E
:10D41000043301211846FEF7FFFE00BF1037BD465A
:10D4200080BD80B586B000AF78607B687B617B692A
:10D43000043301211846FEF708FF0346FB6007F19D
:10D440000C033B613B691B78002B02D17868FFF726
:10D45000A1FF00BF1837BD4680BD80B590B000AFBA
:10D46000F860B9607A603B60FB687B62FB68FB63D5
:10D470007B6ADB881A467B6A5B7903FB02F3043B19
:10D480003B627B6ADB88FB613B681A1DFB69B2FB70
:10D49000F3F3BB633B680433FA69B3FBF2F2F96957
:10D4A00001FB02F29B1A7B637B681A683B6813449A
:10D4B0003A6A9A4203D23A6A3B68D31A01E07B681F
:10D4C0001B683B637B683A6B1A6005E0FB6B1B686B
:10D4D000FB63BB6B013BBB63BB6B002BF6D1002333
:10D4E000FB62FA697B6BD31ABB62BA6A3B6B9342ED
:10D4F00028BF1346BB622AE0BA68FB6A1344BB61CB
:10D50000FA6B7B6B134404337B6197F84830002B34
:10D5100005D0BA6A7969B86908F0DDFA04E0BA6A38
:10D52000B969786908F0D7FA00237B63FB6B1B6845
:10D53000FB633A6BBB6AD31A3B63FA6ABB6A134458
:10D54000FB62FA693B6B934228BF1346BB623B6B9D
:10D55000002BD1D100BF4037BD4680BD80B588B01B
:10D5600002AFF860B9607A603B607B687B6107F16D
:10D570001402002300933B68B968F868FFF76DFF59
:10D5800000BF1837BD4680BD80B588B002AFF860D7
:10D59000B9607A603B607B687B6107F1140201230C
:10D5A00000933B68B968F868FFF757FF00BF18376A
:10D5B000BD4680BD80B483B000AF786039607B68C1
:10D5C0009B683A689A4202D23B68013300E000232C
:10D5D00018460C37BD465DF8047B704780B485B0B3
:10D5E00000AF78607B681B681B68FB607B681B680A
:10D5F0005B68BB60BA68FB689A4203D3BA68FB6891
:10D60000D31A06E07B689A68FB68D21ABB68134499
:10D61000013318461437BD465DF8047B704780B56A
:10D6200084B000AF78607B681B681B68FB607B6818
:10D630001B685B68BB60B9687868FFF7BBFF024690
:10D64000FB6893420CBF01230023DBB2184610375E
:10D65000BD4680BD90B589B000AF786039600023C9
:10D66000BB610023FB7307F10F031846FDF76AF84F
:10D670007868FFF7D4FF0346FB77FB7F83F0010355
:10D68000DBB2002B03D17B681B7C002B79D17B683C
:10D690001B685B687B617B681B685A687B681C68D9
:10D6A00011467868FFF786FF03466360FB7F002B17
:10D6B0000AD07B681B681A687B681C68114678680A
:10D6C000FFF778FF034623607B68DB68013B072B8D
:10D6D00037D801A252F823F0F9D6020009D7020088
:10D6E00043D702001BD7020043D7020043D70200F2
:10D6F00043D702002DD702007B685A687B69134428
:10D700003A6812781A702DE07B685A687B695B0072
:10D7100013443A6812881A8024E07B685A687B694F
:10D720009B0013443A6812681A601BE07B685A68D1
:10D730007B69DB001A443B68D3E90034C2E900345A
:10D7400010E07B685B6819467B68DB687A6902FBDE
:10D7500003F30B4418467B68DB681A46396808F007
:10D76000BAF900BF7868FFF739FF38617B681B683A
:10D770009B683A699A4207D97B681B683A699A6044
:10D7800002E00423BB6100E000BFFB7B1846FCF70E
:10D79000E4FFBB6918462437BD4690BD80B58AB00A
:10D7A00000AFF860B9607A60FB681B681B687B6239
:10D7B000FB681B685B683B627A6A3B6A9A4203D8E3
:10D7C0003A6A7B6AD31A04E0FB689A687B6AD31AC8
:10D7D0000133FB61FB685B681946FB68DB687A6AAA
:10D7E00002FB03F30B44BB617A68FB699A4219D8C8
:10D7F000FB68DB687A6802FB03F31A46B969B8680C
:10D8000008F069F97A6A7B681A44FB689B689A4257
:10D8100003D87A6A7B68134400E00023FA68126830
:10D82000136020E0FB68DA68FB6902FB03F37B61AD
:10D830007A69B969B86808F04EF97A68FB69D31A51
:10D840003B61BA687B6913441846FB685968FB68FA
:10D85000DB683A6902FB03F31A4608F03CF9FB68FF
:10D860001B683A691A6000BF2837BD4680BD80B585
:10D8700086B000AFF860B9607A6000237B617B6896
:10D88000002B01D100231AE00023FB7407F11303DE
:10D890001846FCF757FFF868FFF7A0FE02467B68C2
:10D8A000934205D87A68B968F868FFF777FF01E016
:10D8B00005237B61FB7C1846FCF74FFF7B6918460C
:10D8C0001837BD4680BD80B584B000AF78600023B6
:10D8D000FB7307F10F031846FCF734FF7B681B68E6
:10D8E0000C220021184608F001F9FB7B1846FCF7D2
:10D8F00034FF00BF1037BD4680BD80B483B000AF99
:10D90000786039607B683A681A607B681B681A68BF
:10D910007B685A607B685A687B681B685B689A42C0
:10D9200002D17B6800225A6000BF0C37BD465DF80B
:10D93000047B704780B483B000AF78607B685B681D
:10D94000002B14D07B685B681A467B681B689B6859
:10D9500013441A467B685A607B685A687B681B6868
:10D960005B689A4204D17B6800225A6000E000BFE5
:10D970000C37BD465DF8047B7047000080B584B06D
:10D9800000AF7860786800F00DF8F860FB68002B55
:10D9900001D0FB6800E0024B18461037BD4680BD41
:10D9A000D060030080B487B000AF7860174B7B6114
:10D9B000174B3B611FE03A697B69D31ADB10DA0F22
:10D9C00013445B10DB007A691344FB60FB681B683F
:10D9D000BB60BA687B689A4202D9FB683B610AE087
:10D9E000BA687B689A4203D2FB6808337B6102E025
:10D9F000FB685B6804E07A693B699A42DBD30023E9
:10DA000018461C37BD465DF8047B7047D0640300A0
:10DA1000F865030080B5A0B002AFF860B9607A6025
:10DA20003B60B868FFF7EDFC7B68FB643B683B65D7
:10DA300000237B65002387F858300023FB65D7F867
:10DA400080303B6600237B6707F134017B6F08223F
:10DA5000B868FFF799FD08237B67FB6B3B643B8F3E
:10DA6000A7F844307B8FA7F84630002387F8493069
:10DA700097F8343003F00303DBB2012B29D17B6B21
:10DA8000C3F39523BB6697F83430C3F3C203DBB20C
:10DA900087F84830BB8EC3F38313DBB27B667B6EA3
:10DAA0009A0007F11C017B6FB868FFF76DFD7B6E74
:10DAB0009B007A6F13447B6707F1400207F11C015A
:10DAC00007F14C03009313467A6EB86E00F0E0FE47
:10DAD00032E097F8343003F00303DBB2022B2BD192
:10DAE000FB8EC3F389139BB23B6797F83430C3F3C3
:10DAF000C203DBB287F848303B6F082B28BF0823EE
:10DB0000FB6607F114017B6FFA6EB868FFF73CFD06
:10DB10007A6FFB6E13447B673A6FFB6ED31A3B67D9
:10DB200007F14C0307F1400207F11400F96E00F011
:10DB300051FF3B6F002BDFD1B868FFF772FC00BFCD
:10DB40007837BD4680BD000080B582B000AF7860F8
:10DB50007B681B781A460D4B9B5C002B05D07B68BD
:10DB600004331846FBF79AFA0BE07B681B781A46D9
:10DB7000064B9B5C002B04D17B680C331846FAF7EC
:10DB800027FC00BF0837BD4680BD00BFBC3B00205E
:10DB900080B586B000AFF860B9601346FB71002312
:10DBA0007B61FB681B781A46104B9B5C002B08D0EE
:10DBB000FB680433FA79B9681846FBF79FFA786175
:10DBC0000EE0FB681B781A46084B9B5C002B07D1C4
:10DBD000FB680C33FA79B9681846FAF76FFC78617C
:10DBE0007B6918461837BD4680BD00BFBC3B00208E
:10DBF00080B483B000AF78603960044B01221A70A2
:10DC000000BF0C37BD465DF8047B704760310020D3
:10DC1000B0B58CB000AF0346FB711A4B07F1080496
:10DC20001D460FCD0FC495E80F0084E80F000623B2
:10DC3000BB604FF0FF33FB604FF0FF333B614FF0B1
:10DC4000FF337B614FF0EB733B62FB79002B01D01C
:10DC50000D4A00E0002207F1080319460B48F9F7C6
:10DC60000FF9F862FB6ABB62BB6A002B02D0B86A8C
:10DC7000FBF710FF064AFB79137000BF3037BD4633
:10DC8000B0BD00BFF8650300F1DB0200942B00205B
:10DC90006131002080B588B000AFF860B9607A606B
:10DCA0007B68FB77114B00221A70FB7F1A46B9681C
:10DCB0000F48FFF76DFFB861BB697B617B69002B83
:10DCC00002D07869FBF7E6FE00BF0A4B1B78002BF9
:10DCD00007D0064B1B78DBB283F00103DBB2002BCD
:10DCE000F3D100BF2037BD4680BD00BF60310020AA
:10DCF000942B00206131002080B584B002AF7860A1
:10DD00003960064B00934023054A39687868FFF76D
:10DD100081FE00BF0837BD4680BD00BF95DC020014
:10DD20002031002080B483B000AF786000BF0C3792
:10DD3000BD465DF8047B704780B582B000AF786067
:10DD40000448FFF701FF0020FFF762FF00BF08371C
:10DD5000BD4680BD942B002080B582B000AF7860B6
:10DD600039607B681B681B6839687868984700BF12
:10DD70000837BD4680BD80B582B000AF78607B6853
:10DD80001B685B687868984700BF0837BD4680BD50
:10DD900080B582B000AF78607B681B689B6878684C
:10DDA000984700BF0837BD4680BD80B483B000AF40
:10DDB00078607B68DB6801225A7100BF0C37BD4672
:10DDC0005DF8047B704780B483B000AF78607B68F7
:10DDD000DB685B7918460C37BD465DF8047B7047FD
:10DDE00080B400AF044A054BD31ADB081846BD4681
:10DDF0005DF8047B704700BF8CAD0300ACAC030042
:10DE000080B586B000AF78600B46FB70FB78002BC6
:10DE10001FD0FFF7E5FF386100237B6113E07B69CA
:10DE20009B000E4A1344FB60FB681B881A467B6804
:10DE30001B689A4204D17B687A691A60002309E062
:10DE40007B6901337B617A693B699A42E7D3052399
:10DE500000E0002318461837BD4680BDE42D0020A1
:10DE600080B584B000AF78600B46FB70FA783B1D3C
:10DE700011461846FFF7C4FF0346002B07D17B6805
:10DE8000DB00054A1344FB60FB681B6800E00023CD
:10DE900018461037BD4680BDACAC030080B485B0D9
:10DEA00000AF78600B46FB707B68DB00144A1344BC
:10DEB000BB60FB78013B032B18D801A252F823F07A
:10DEC000D1DE0200D7DE0200DDDE0200E5DE020068
:10DED0000223FB730DE00423FB730AE0BB681B798C
:10DEE000FB7306E0BB685B79FB7302E00023FB7306
:10DEF00000BFFB7B18461437BD465DF8047B7047B6
:10DF0000ACAC030080B485B000AF7860396000230A
:10DF1000FB737B681B7803F00403DBB2002B23D078
:10DF20007B681B78C3F30103DBB2012B02D0022B09
:10DF30000CD017E03B681B687A681288C2F3831222
:10DF4000D2B213449A1C3B681A600BE03B681B6812
:10DF50007A685288C2F3891292B213449A1C3B68C1
:10DF60001A6000BF0123FB73FB7B18461437BD46C4
:10DF70005DF8047B7047000080B58AB000AF0023D5
:10DF8000FB843848FEF77AF93748FEF777F9374BC4
:10DF90005B683B61354B9B68BB613A69BB69134069
:10DFA00002339B00314A134404333B6207F11003F0
:10DFB0001946386AFFF7A6FF0346002B09D03A69D5
:10DFC000BB69134002339B00284A134404333B626D
:10DFD000ECE700BF0023FB6111E03B695A1C3A618A
:10DFE000BA691340FA699200391D0A441F49023385
:10DFF0009B000B445B681360FB690133FB61FB69A9
:10E00000012BEAD93B79C3F30103DBB2012B0ED01C
:10E01000022B00D016E07B89FB84FB88C3F38913B5
:10E020009BB203339A083B6913443B610AE07B8946
:10E03000FB84BB88C3F38313DBB21A463B691344EA
:10E040003B6100BF0848FEF726F978617B69002B29
:10E0500002D03B69054A5360FB8C18462837BD4601
:10E0600080BD00BF4C3600204836002034320020EE
:10E0700080B584B000AF00210748FEF738F8F8609B
:10E08000FB68BB60BB6883F310037B607B6818464A
:10E090001037BD4680BD00BF5036002080B588B027
:10E0A00000AFF860B9607A603B60FB681B0CBB6135
:10E0B000FFF7DEFFF861FB6919043B685A1CBB6A75
:10E0C0001340BA690A431B4902339B000B445A6050
:10E0D0003A68BB6A134002339B00164A1344043368
:10E0E0007B61FB6803F00703D9B27A69137861F3A7
:10E0F000C50313707B6803F00F03D9B27A691388E4
:10E1000061F389131380BB68C3F315017A6913683F
:10E1100061F39F2313607A691378012161F301038E
:10E1200013707A6913786FF38203137000BF20377E
:10E13000BD4680BD3432002080B58CB000AFF860A1
:10E14000B9601346FB71FB680233BB62012387F899
:10E1500027300023FB7607F11B031846FCF7F2FA81
:10E16000384B1A68BB681A60364B9A68354B596849
:10E17000344B1B68CB1A13440133FB6214E00121BA
:10E180003148FEF749F8FFF7F7FEF861F9692E48C4
:10E19000FEF742F82B4B9A682A4B5968294B1B68AB
:10E1A000CB1A13440133FB62BA6AFB6A9A42E6D87F
:10E1B00097F82730002B3BD000237B61FB79002BA5
:10E1C00011D03B7D012262F301033B753B7D43F09F
:10E1D00004033B75FB6803F00F03DAB2BB8A62F3FA
:10E1E0008913BB8210E03B7D022262F301033B7581
:10E1F0003B7D43F004033B75FB68C3F309039AB20C
:10E20000FB8A62F38F13FB820E4B1A680D4B9B68DF
:10E21000134002339B000B4A134404333B627A6978
:10E220003B6A1A60074B1A68BB6A1344054A1360BD
:10E23000FB7E1846FCF791FA97F8273018463037DE
:10E24000BD4680BD343200205036002080B58AB0F3
:10E2500002AFF860B9607A603B60204B9B687B61DD
:10E2600007F11003012219463868FFF765FF0346DE
:10E27000002B24D03B690233FB610023BB6111E01A
:10E28000BB699B007A681A44FB69591CF96179697A
:10E290000B401268114902339B000B445A60BB6962
:10E2A0000133BB61BA693B689A42E9D33A697B6939
:10E2B000009313463A68B968F868FFF7EFFE074B1A
:10E2C00093F82034002B05D000BF00F06BF8034614
:10E2D000002BFAD100BF2037BD4680BD343200206C
:10E2E00080B582B000AF78603960002300223968C1
:10E2F0007868FFF7ABFF00BF0837BD4680BD80B52B
:10E3000086B000AFF860B9607A607B687B6107F126
:10E3100014020123B968F868FFF798FF00BF1837A7
:10E32000BD4680BD80B586B000AFF860B9607A6048
:10E330003B607B683B613B687B6107F11002022315
:10E34000B968F868FFF782FF00BF1837BD4680BD87
:10E3500080B588B000AFF860B9607A603B607B68D8
:10E360007B613B68BB61BB6AFB6107F1140203235D
:10E37000B968F868FFF76AFF00BF2037BD4680BD67
:10E3800080B400AF064B5A68054B1B689A420CBF1D
:10E3900001230023DBB21846BD465DF8047B7047BD
:10E3A0003432002080B598B000AFFFF7E9FF034694
:10E3B000002B01D00023A9E1924B0022C3F81824BE
:10E3C000BFF34F8F8F4B5B683B618E4B9B683B6409
:10E3D0003A693B6C134002339B008A4A134404336E
:10E3E0007B640023FB650023BB650023FB6307F10F
:10E3F00010031946786CFFF785FD0346002B19D0F2
:10E40000804BD3F81834002B14D17E4B1A683B692B
:10E410009A4205D87B4B1B687A4A5360002375E10A
:10E420003A693B6C134002339B00764A1344043331
:10E430007B64DCE700237B6511E03B695A1C3A6191
:10E440003A6C13407A6D9200391D0A446D490233CB
:10E450009B000B445B6813607B6D01337B657B6DB8
:10E46000012BEAD93B7903F00303DBB2022B40F026
:10E470009280FB88C3F389139BB27B63FB88C3F351
:10E4800089139BB2502B28BF50239BB23B633B6B3D
:10E49000C3F309039AB2FB8862F38F13FB803B6BD3
:10E4A0000833FB623B79C3F3C203DBB2FB63F96A57
:10E4B0005548FEF719FFF865FB6D002B00F0C5808D
:10E4C000F86DFEF79EFF391DBB6D0822F86DFFF752
:10E4D00045F8BB6D0833BB653B69DA433B6C1340C1
:10E4E00001339B00BB623A6BBB6A9A423DD9BB6A5F
:10E4F000002B08D03A693B6C134002339B00414A21
:10E500001344043300E0414B3B62BB6A002B02D052
:10E51000BB6ADBB201E03B6BDBB2FB77BB6A002B73
:10E5200001D03A4B00E00023BB61BB6A002B06D050
:10E530003B6BDAB2BB6ADBB2D31ADBB200E000237A
:10E54000FB75FA7FBB6D396AF86DFFF707F8FB7F43
:10E55000BA6D1344BB65BB69002B15D0FA7DBB6D4A
:10E56000B969F86DFEF7FAFF0EE03A693B6C1340AB
:10E5700002339B00234A134404337B62BB6D3A6B26
:10E58000796AF86DFEF7EAFF7B6B03339A083B6903
:10E5900013443B6159E03B7903F00303DBB2012BE9
:10E5A00053D1BB88C3F38313DBB2062B28BF0623EA
:10E5B000DAB2BB8862F38913BB80BB88C3F38313D1
:10E5C000DBB20233BB633B79C3F3C203DBB2FB6351
:10E5D000BB6B9B0019460C48FEF786FEF865FB6D89
:10E5E000002B32D0F86DFEF70CFF391DBB6D0822F1
:10E5F000F86DFEF7B3FFBB6D0833BB6500237B6589
:10E600001BE000BF3432002090AC030040320020F9
:10E610003B695A1C3A613A6C134002339B003D4AF5
:10E620001344191DBB6D0422F86DFEF797FFBB6DF7
:10E630000433BB657B6D01337B65BB88C3F38313F8
:10E64000DBB21A467B6D9342E2D3FB6D002B3DD0CB
:10E65000304BD3F810343B652E4BD3F81834002BD5
:10E660001BD0F86DFEF7DDFE4AE0002387F84F303F
:10E67000386DFFF7A8FB0346002B02D0012387F873
:10E680004F3097F84F30002B03D0F96D386DFFF7FE
:10E6900063FB3B6DDB681B683B653B6D002BE4D186
:10E6A000F86DFEF7BEFE0023FB70FB1C1846FCF75E
:10E6B00049F8184BD3F81834002B02D13B69154A9E
:10E6C0005360FB781846FCF748F819E0114BD3F873
:10E6D0001034BB6406E0B86CFFF75AFBBB6CDB6818
:10E6E0001B68BB64BB6C002BF5D10B4A0B4BD31AD8
:10E6F000DB081B0443F0020309491846FFF7F0FD4D
:10E70000FFF73EFE034683F00103DBB21846603795
:10E71000BD4680BD34320020DCAC0300ACAC03004D
:10E720003C66030080B582B000AF0D4BD3F81034C7
:10E730007B600B4B012283F8202409E07868FFF707
:10E7400034FB7868FFF717FB7B68DB681B687B602E
:10E750007B68002BF2D100BF0837BD4680BD00BFEB
:10E760003432002080B483B000AF7860396000BFDD
:10E770000C37BD465DF8047B7047000090B585B04E
:10E7800002AF786039607B68DB88002B0AD07B6839
:10E79000DB881A461F4B009313461F4A1F493868EF
:10E7A000FDF723FE7B681B7A052B2ED07B685B7AF6
:10E7B000002B12D07B689B881A467B681B7A19460F
:10E7C0001046FFF76BFB03461A46154B53F82230F1
:10E7D0001A4614493868FDF708FE7B681B6819461D
:10E7E0003868FFF7BFFF7B681B7A1A460E4B53F859
:10E7F00022407B689B8800211846FFF731FB0346C7
:10E8000022460A493868FDF7F0FD00BF0C37BD46C7
:10E8100090BD00BF7066030080660300B866030009
:10E82000C42B0020D0660300B02B0020D466030068
:10E8300080B584B000AFF860B9601346FB71FB6827
:10E840001B7A052B0FD0FB685B7A002B06D00D4B93
:10E850001B681A460C49B868FDF7C7FD0B49B86834
:10E86000FDF7C3FD06E0FB79002B03D00749B8682C
:10E87000FDF7BBFDB868FDF79FFD00BF1037BD4633
:10E8800080BD00BFC42B0020D0660300E0660300FB
:10E89000B0B58AB004AFF860B9607A603B60BB6A1B
:10E8A0001B7BFB75BB6A00221A73B96A3868FFF7D5
:10E8B00065FF7B68062B7FD801A252F823F000BFCA
:10E8C000DDE80200E7E80200F7E802000BE90200D9
:10E8D00029E9020051E9020081E90200F968B86AF9
:10E8E000FDF783FD69E0BB681B681A46F968B86AE2
:10E8F000FDF77BFD61E0BB681A68BB6804331B68E9
:10E90000F968B86AFDF771FD57E0BB681A68BB6823
:10E9100004331968BB6808331B6800930B46F96819
:10E92000B86AFDF762FD48E0BB681968BB6804334C
:10E930001868BB6808331B68BA680C321268019209
:10E94000009303460A46F968B86AFDF74EFD34E0C5
:10E95000BB681868BB6804331C68BB6808331B6855
:10E96000BA680C321268B9681031096802910192D4
:10E97000009323460246F968B86AFDF736FD1CE0AD
:10E98000BB681C68BB6804331D68BB6808331B6820
:10E99000BA680C321268B96810310968B868143066
:10E9A000006803900291019200932B462246F96879
:10E9B000B86AFDF71AFD00E000BF0022B96A3868A6
:10E9C000FFF736FFBB6AFA7D1A7300BF1837BD46E2
:10E9D000B0BD00BF80B586B000AFF860B9607A60A6
:10E9E0003B60BB68082B5ED83B681B7BFB743B68B5
:10E9F00000221A7339687868FFF7C0FE00237B6134
:10EA000014E07A69BB689A4209D2FA687B691344B8
:10EA10001B781A4626493868FDF7E7FC03E02549CC
:10EA20003868FDF7E2FC7B6901337B617B69072B6A
:10EA3000E7D921493868FDF7D8FC00237B6126E03F
:10EA40007A69BB689A421BD2FA687B6913441B78C7
:10EA5000BB74BB7C7E2B0CD807F00EF80246BB7C47
:10EA6000013313441B7803F09703002B01D0BB7CC8
:10EA700000E02E231A4611493868FDF7B6FC03E082
:10EA80000F493868FDF7B1FC7B6901337B617B6915
:10EA9000072BD5D9012239687868FFF7C9FE3B6892
:10EAA000FA7C1A7300E000BF1837BD4680BD00BF76
:10EAB000E4660300EC660300F0660300F4660300FE
:10EAC000F866030080B483B000AF786039607B687B
:10EAD000002B02D148F210530CE03B68002B02D10E
:10EAE00048F2135306E03B6800221A603B687A68DC
:10EAF0005A60002318460C37BD465DF8047B70470A
:10EB000080B485B000AFF860B9607A60FB68002B14
:10EB100002D148F2105307E0BA687B689A4202D0EB
:10EB200048F2115300E0002318461437BD465DF843
:10EB3000047B704780B58AB000AFF860B9607A6036
:10EB40003B60BB687B62796AF868FFF7BBFF38629D
:10EB50003B6AFB61FB69002B01D0FB6927E0FB6886
:10EB60009B791A4639687868FFF7CAFF38623B6AB2
:10EB7000BB61BB69002B01D0BB6918E0FB681B7946
:10EB80001A460D4B53F822307B617B69002B02D172
:10EB900048F203530BE07B697968B868984738629C
:10EBA0003B6A002B02D17B6A044A1A603B6A184612
:10EBB0002837BD4680BD00BFFC6603007052464D3D
:10EBC00080B489B000AFF860B9607A603B60FB68E0
:10EBD000002B02D13B687B6102E0FB685B797B61C3
:10EBE000BB68002B02D148F210533EE07B68002B3B
:10EBF00030D148F2135338E00023FB617B69013BBD
:10EC0000BB6117E0BA68FB6913441B78FB74BA68F0
:10EC1000BB691A447968FB690B4412781A707A68E8
:10EC2000BB691344FA7C1A70FB690133FB61BB6951
:10EC3000013BBB61FA69BB699A42E3D93A687B69D7
:10EC4000D31A3B60BA687B691344BB607A687B69FE
:10EC500013447B603A687B699A42CDD23B68002BB3
:10EC600002D048F2115300E0002318462437BD4675
:10EC70005DF8047B7047000080B400AF0A4B1B783E
:10EC8000DBB2022B04D0084B1B78DBB2012B01D185
:10EC9000012300E0002303F00103DBB21846BD4668
:10ECA0005DF8047B704700BF5836002080B400AF89
:10ECB0006B461846BD465DF8047B704780B500AFD3
:10ECC000FFF7F4FF0246044B9A4201D2012300E011
:10ECD0000023184680BD00BF00E0002080B584B04E
:10ECE00000AF786039600023FB60FFF7E7FF034661
:10ECF000002B0DD02D4A2E4BD31ADB081B0443F0FA
:10ED000001032C491846FFF7EBFA48F2195349E082
:10ED1000FFF7B2FF034683F00103DBB2002B02D002
:10ED20004FF405433EE0244B1B68002B06D0234BD9
:10ED30001B68234A934201D1002333E07B68002BF8
:10ED400002D048F217532DE03B68002B02D048F266
:10ED5000175327E0184B1B4A1A601B4B3B603B685C
:10ED6000002B0DD184B06B460733DB08DB00FB6062
:10ED7000FB68002B02D148F2155313E0FB683B609F
:10ED80000D4B1B6839681846F7F7F4FBB860BB6891
:10ED9000002B06D1094B0A4A1A60074B1B680B4A25
:10EDA0001A60BB6818461037BD4680BDDCAC030056
:10EDB000ACAC0300086703005C360020603600201E
:10EDC0006572E54B64360020A83700206169614D0B
:10EDD00080B582B000AF114B1B68114A934202D03C
:10EDE00048F2025316E00F4B1B681B680E4A934211
:10EDF00002D048F202530DE00A4B1B6800221A6051
:10EE0000064B00221A60074B1B681846F7F7DAFB1F
:10EE100078607B6818460837BD4680BD60360020A4
:10EE20006572E54B5C3600206169614D80B500AFCD
:10EE30000320F7F769FD0020F7F728FD0346002BB4
:10EE400002D00020F7F7F4FC0120F7F71FFD03467E
:10EE5000002BF0D00120F7F7EBFCECE780B483B097
:10EE600000AF0346FB71FB7903F01F02074997F9D6
:10EE700007305B09012000FA02F241F8232000BFAD
:10EE80000C37BD465DF8047B704700BF00E100E031
:10EE900080B483B000AF0346FB71FB7903F01F021F
:10EEA000074997F907305B09012000FA02F2203385
:10EEB00041F8232000BF0C37BD465DF8047B704746
:10EEC00000E100E080B483B000AF0346FB7197F926
:10EED0000730002B0ADA0D4AFB7903F00F03043BDD
:10EEE00013441B7EDBB25B09DBB208E0084A97F9EA
:10EEF0000730134493F80033DBB25B09DBB21846EA
:10EF00000C37BD465DF8047B704700BF00ED00E0A4
:10EF100000E100E080B483B000AF78607B685B689C
:10EF200018460C37BD465DF8047B704710DF70470C
:10EF300000BF184611DF704700BF184680B483B089
:10EF400000AF0346FB7197F907301F2B0CDC97F9D4
:10EF50000730114A22FA03F303F00103002B14BF18
:10EF600001230023DBB210E097F907303F2B0BDCC5
:10EF700097F90730203B012202FA03F3002B14BF5C
:10EF800001230023DBB200E0012318460C37BD4605
:10EF90005DF8047B704700BFFC06FFBD80B483B002
:10EFA00000AF78607B68072B07D8EC227B6842FAB9
:10EFB00003F303F00103002B01D1002300E0012340
:10EFC00018460C37BD465DF8047B704780B582B0AB
:10EFD00000AF0346FB7197F907301846FFF7AEFF05
:10EFE0000346002B02D142F201032DE097F90730CE
:10EFF0001846FFF767FF03461846FFF7CFFF0346A3
:10F00000002B02D142F202031EE0114B9B68002B41
:10F0100014D097F907305B090D4A52F82320FB7989
:10F0200003F01F03012101FA03F3194697F9073092
:10F030005B090A43064941F8232004E097F90730A9
:10F040001846FFF70BFF002318460837BD4680BD62
:10F05000C03B002080B582B000AF0346FB7197F93A
:10F0600007301846FFF76AFF0346002B02D142F231
:10F0700001031EE0114B9B68002B14D097F9073059
:10F080005B090E4A52F82310FB7903F01F0301229B
:10F0900002FA03F3DA4397F907305B090A4007499C
:10F0A00041F8232004E097F907301846FFF7F0FEF7
:10F0B000002318460837BD4680BD00BFC03B002076
:10F0C00080B586B000AF0346FB7107F10803154910
:10F0D0001846FEF712FC18E007F108031846FFF780
:10F0E00019FF78617B691B683B617B695968FA7914
:10F0F0003B69104698470346002B01D111230DE0D0
:10F1000007F108031846FEF715FC07F10803184637
:10F11000FFF700FF0346002BDED100231846183707
:10F12000BD4680BD3067030080B586B000AF0346A2
:10F13000FB7107F1080312491846FEF7DEFB13E0E6
:10F1400007F108031846FFF7E5FE78617B691B6845
:10F150003B617B695968FA793B691046984707F12A
:10F1600008031846FEF7E6FB07F108031846FFF709
:10F17000D1FE0346002BE3D100BF1837BD4680BD4A
:10F180003C67030080B582B000AF1620FFF71EFF7A
:10F1900078607B683B603B68002B02D03868FAF7E8
:10F1A00079FC00BF0837BD4680BD80B582B000AF96
:10F1B0001620FFF74FFF78607B683B603B68002BB1
:10F1C00002D03868FAF766FC00BF0837BD4680BD3C
:10F1D00080B584B000AF224B1B78002B01D00823F0
:10F1E0003AE0204B01221A700020FFF769FF034626
:10F1F000112B01D100232FE00020FFF795FF1A4BC0
:10F200001B68BB600023FB71FB1D1846FBF79AFAD5
:10F2100007F1080315491846FFF788FEF860FB68F8
:10F22000002B0CBF01230023DAB20D4B1A70FB79BF
:10F230001846FBF792FAFB68002B01D0FB680BE045
:10F24000084B00221A700A4B00221A70FFF79AFF2F
:10F250000120FFF769FF002318461037BD4680BD27
:10F26000AC370020AE3700202C670300E99A02007B
:10F27000AD37002080B582B000AF1C4B1B7883F007
:10F280000103DBB2002B01D008232BE0184B012235
:10F290001A700120FFF714FF0346112B01D1002340
:10F2A00020E00220FFF740FF0023FB70FB1C184604
:10F2B000FBF748FAFFF73EFE78600C4B00221A700D
:10F2C000FB781846FBF749FA7B68002B01D07B6876
:10F2D00008E0074B00221A70FFF767FF0320FFF7D3
:10F2E00023FF002318460837BD4680BDAC370020F9
:10F2F000AE37002080B500AF0A4B1B7883F00103C6
:10F30000DBB2002B01D008230AE0074B1B78002B4F
:10F3100003D0FFF7AFFF034602E0FFF759FF0346B4
:10F32000184680BDAE370020AC37002080B400AF57
:10F33000034B1B781846BD465DF8047B704700BF41
:10F34000AC37002080B584B000AF3B46104918466A
:10F35000FEF7D3FA10E03B461846FFF7DBFDF860F6
:10F36000FB681B68BB60FB685A68BB68104698471F
:10F370003B461846FEF7DEFA3B461846FFF7CAFD45
:10F380000346002BE7D100BF1037BD4680BD00BF4C
:10F390004867030080B500AFFFF7D4FF00BF80BD12
:10F3A00061DF704700BF184680B483B000AF78605B
:10F3B0007B685B6818460C37BD465DF8047B704778
:10F3C00080B5ADF5067D00AF3B1D18602A4B1B785C
:10F3D00083F00103DBB2002B49D14FF4FA73A7F895
:10F3E000063207F2062207F1080311461846FFF716
:10F3F000D7FFC7F81402D7F81432002B04D0D7F87F
:10F400001432052B2ED133E007F10803C7F8103270
:10F4100007F5FE7319491846FEF76FFA19E007F56C
:10F42000FE731846FFF7C0FFC7F80C02D7F80C327E
:10F430001B68C7F80832D7F80C325A68D7F8083278
:10F440001146D7F81002984707F5FE731846FEF7E5
:10F4500071FA07F5FE731846FFF7A6FF0346002B67
:10F46000DDD1BAE7D7F81402FAF714FB00E000BFC9
:10F4700007F50677BD4680BDAF370020E069030081
:10F4800080B483B000AF78607B685B6818460C3747
:10F49000BD465DF8047B70474BDF704700BF1846E0
:10F4A00080B588B000AF786007F110031846FFF709
:10F4B000F3FFF861FB69002B03D0FB69052B24D116
:10F4C00026E007F1080314491846FEF716FA13E080
:10F4D00007F108031846FFF7D3FFB861BB691B6843
:10F4E0007B613A69BB6959687B691046984707F1A7
:10F4F00008031846FEF71EFA07F108031846FFF73F
:10F50000BFFF0346002BE3D1CEE7F869FAF7C2FA52
:10F5100000BF2037BD4680BDF869030080B485B0C8
:10F5200000AF786039607B68FB6004E0FB685A1CC0
:10F53000FA6000221A703B685A1E3A60002BF5D11F
:10F5400000BF1437BD465DF8047B704780B582B0BC
:10F5500000AF78604FF48C720021786806F0C6FA2C
:10F5600000BF0837BD4680BD80B582B000AF78606F
:10F570007B68002B05D04FF48C717868FFF7CEFFC5
:10F5800000E000BF0837BD4680BD000080B487B0F2
:10F5900000AFF860B9607A607B68C02B08D0B3F523
:10F5A000807F09D0802B0BD1FB680A221A600AE009
:10F5B000FB680C221A6006E0FB680E221A6002E06B
:10F5C0006FF01F03A4E1FB6808333B61FB683A69F5
:10F5D0005A6000237B6127E07B699B00BA68134473
:10F5E0001B7819467B699B000133BA6813441B786A
:10F5F0001B0241EA03027B699B000233B9680B449A
:10F600001B781B0442EA03017B699B000333BA6841
:10F6100013441B781A067B699B00386903440A432C
:10F620001A607B6901337B617B685B097A699A4266
:10F63000D2D3FB681B680C2B5CD00E2B00F0C5806E
:10F640000A2B40F0648100237B614FE03B691A681C
:10F650005F497B6951F8233053403A690C32126894
:10F66000120AD2B25B498A5C5A403B690C331B6870
:10F670001B0CDBB25749CB5C1B025A403B690C3375
:10F680001B681B0E5349CB5C1B0482EA03013B69D8
:10F690000C331B68DBB24F4AD35C1A063B6910334C
:10F6A0004A401A603B69043319683B6910331A6891
:10F6B0003B6914334A401A603B69083319683B6957
:10F6C00014331A683B6918334A401A603B690C339B
:10F6D00019683B6918331A683B691C334A401A6041
:10F6E0007B6901337B613B6910333B617B69092B8B
:10F6F000ACD90CE100237B6163E03B691A683449B3
:10F700007B6951F8233053403A6914321268120A67
:10F71000D2B230498A5C5A403B6914331B681B0CD7
:10F72000DBB22C49CB5C1B025A403B6914331B688B
:10F730001B0E2849CB5C1B0482EA03013B6914338E
:10F740001B68DBB2234AD35C1A063B6918334A4074
:10F750001A603B69043319683B6918331A683B69BE
:10F760001C334A401A603B69083319683B691C33F3
:10F770001A683B6920334A401A603B690C331968A8
:10F780003B6920331A683B6924334A401A603B695D
:10F79000103319683B6924331A683B6928334A409F
:10F7A0001A603B69143319683B6928331A683B694E
:10F7B0002C334A401A607B6901337B613B69183303
:10F7C0003B617B69072B98D9A1E000237B6199E01D
:10F7D000048C0300046A03003B691A684F497B6983
:10F7E00051F8233053403A691C321268120AD2B2DF
:10F7F0004B498A5C5A403B691C331B681B0CDBB2CB
:10F800004749CB5C1B025A403B691C331B681B0EEB
:10F810004349CB5C1B0482EA03013B691C331B6830
:10F82000DBB23F4AD35C1A063B6920334A401A6078
:10F830003B69043319683B6920331A683B692433F8
:10F840004A401A603B69083319683B6924331A68D7
:10F850003B6928334A401A603B690C3319683B699D
:10F8600028331A683B692C334A401A603B691033CD
:10F870001B683A692C321268D2B229498A5C5A4014
:10F880003B692C331B681B0ADBB22549CB5C1B028E
:10F890005A403B692C331B681B0CDBB22049CB5C04
:10F8A0001B0482EA03013B692C331B681B0E1C4AB4
:10F8B000D35C1A063B6930334A401A603B69143303
:10F8C00019683B6930331A683B6934334A401A601F
:10F8D0003B69183319683B6934331A683B6938331C
:10F8E0004A401A603B691C3319683B6938331A680F
:10F8F0003B693C334A401A607B6901337B613B6959
:10F9000020333B617B69062B7FF666AF00BF002387
:10F9100018461C37BD465DF8047B7047048C030015
:10F92000046A030080B48FB000AFF860B9607A60F9
:10F93000FB685B683B63BB681B781A46BB68013396
:10F940001B781B021A43BB6802331B781B041A4343
:10F95000BB6803331B781B061343FB623B6B1A1D0A
:10F960003A631B68FA6A5340FB62BB6804331B7836
:10F970001A46BB6805331B781B021A43BB68063363
:10F980001B781B041A43BB6807331B781B06134301
:10F99000BB623B6B1A1D3A631B68BA6A5340BB6279
:10F9A000BB6808331B781A46BB6809331B781B02F7
:10F9B0001A43BB680A331B781B041A43BB680B331A
:10F9C0001B781B0613437B623B6B1A1D3A631B6853
:10F9D0007A6A53407B62BB680C331B781A46BB685B
:10F9E0000D331B781B021A43BB680E331B781B04B4
:10F9F0001A43BB680F331B781B0613433B623B6BF8
:10FA00001A1D3A631B683A6A53403B62FB681B68E5
:10FA10005B10013B7B63FAE03B6B1A1D3A631A688B
:10FA2000FB6ADBB2AC4951F823305A40BB6A1B0A6F
:10FA3000DBB2AA4951F823305A407B6A1B0CDBB277
:10FA4000A74951F823305A403B6A1B0EA54951F88B
:10FA500023305340FB613B6B1A1D3A631A68BB6A43
:10FA6000DBB29D4951F823305A407B6A1B0ADBB256
:10FA70009A4951F823305A403B6A1B0CDBB2984933
:10FA800051F823305A40FB6A1B0E964951F8233037
:10FA90005340BB613B6B1A1D3A631A687B6ADBB249
:10FAA0008D4951F823305A403B6A1B0ADBB28B491F
:10FAB00051F823305A40FB6A1B0CDBB2884951F8DD
:10FAC00023305A40BB6A1B0E864951F823305340FD
:10FAD0007B613B6B1A1D3A631A683B6ADBB27E4955
:10FAE00051F823305A40FB6A1B0ADBB27B4951F8BC
:10FAF00023305A40BB6A1B0CDBB2794951F82330E2
:10FB00005A407B6A1B0E774951F8233053403B61C2
:10FB10003B6B1A1D3A631A68FB69DBB26E4951F8F8
:10FB200023305A40BB691B0ADBB26C4951F82330C1
:10FB30005A407B691B0CDBB2694951F823305A40AB
:10FB40003B691B0E674951F823305340FB623B6B06
:10FB50001A1D3A631A68BB69DBB25F4951F823305A
:10FB60005A407B691B0ADBB25C4951F823305A408A
:10FB70003B691B0CDBB25A4951F823305A40FB69F0
:10FB80001B0E584951F823305340BB623B6B1A1D82
:10FB90003A631A687B69DBB24F4951F823305A4007
:10FBA0003B691B0ADBB24D4951F823305A40FB69CF
:10FBB0001B0CDBB24A4951F823305A40BB691B0E7B
:10FBC000484951F8233053407B623B6B1A1D3A631E
:10FBD0001A683B69DBB2404951F823305A40FB694F
:10FBE0001B0ADBB23D4951F823305A40BB691B0C5C
:10FBF000DBB23B4951F823305A407B691B0E39492F
:10FC000051F8233053403B627B6B013B7B637B6B42
:10FC1000002B3FF701AF3B6B1A1D3A631A68FB6A72
:10FC2000DBB22D4951F823305A40BB6A1B0ADBB2C4
:10FC30002A4951F823305A407B6A1B0CDBB2284911
:10FC400051F823305A403B6A1B0E264951F82330A5
:10FC50005340FB613B6B1A1D3A631A68BB6ADBB207
:10FC60001D4951F823305A407B6A1B0ADBB21B49FD
:10FC700051F823305A403B6A1B0CDBB2184951F84B
:10FC800023305A40FB6A1B0E164951F8233053406B
:10FC9000BB613B6B1A1D3A631A687B6ADBB20E4983
:10FCA00051F823305A403B6A1B0ADBB20B4951F82A
:10FCB00023305A40FB6A1B0CDBB2094951F8233050
:10FCC0005A40BB6A1B0E074951F8233053407B61F1
:10FCD0003B6B1A1D08E000BF046B0300046F0300B8
:10FCE00004730300047703003A631A683B6ADBB2CB
:10FCF000784951F823305A40FB6A1B0ADBB2764937
:10FD000051F823305A40BB6A1B0CDBB2734951F8DF
:10FD100023305A407B6A1B0E714951F823305340FF
:10FD20003B613B6B1A1D3A631B68FA69D2B26D499D
:10FD30008A5C5A40BB691B0ADBB26A49CB5C1B0276
:10FD40005A407B691B0CDBB26649CB5C1B045A40F2
:10FD50003B691B0E6349CB5C1B065340FB623B6B4C
:10FD60001A1D3A631B68BA69D2B25E498A5C5A406E
:10FD70007B691B0ADBB25B49CB5C1B025A403B69C7
:10FD80001B0CDBB25749CB5C1B045A40FB691B0EB2
:10FD90005449CB5C1B065340BB623B6B1A1D3A6354
:10FDA0001B687A69D2B24F498A5C5A403B691B0A88
:10FDB000DBB24C49CB5C1B025A40FB691B0CDBB22B
:10FDC0004849CB5C1B045A40BB691B0E4549CB5CC0
:10FDD0001B0653407B623B6B1A1D3A631B683A69F2
:10FDE000D2B240498A5C5A40FB691B0ADBB23D49EA
:10FDF000CB5C1B025A40BB691B0CDBB23949CB5CA4
:10FE00001B045A407B691B0E3649CB5C1B065340D2
:10FE10003B62FB6ADAB27B681A70FB6A1A0A7B687B
:10FE20000133D2B21A70FB6A1A0C7B680233D2B269
:10FE30001A70FB6A1A0E7B680333D2B21A707B68A1
:10FE40000433BA6AD2B21A70BB6A1A0A7B680533E5
:10FE5000D2B21A70BB6A1A0C7B680633D2B21A701F
:10FE6000BB6A1A0E7B680733D2B21A707B680833FC
:10FE70007A6AD2B21A707B6A1A0A7B680933D2B2E4
:10FE80001A707B6A1A0C7B680A33D2B21A707B6ACA
:10FE90001A0E7B680B33D2B21A707B680C333A6A45
:10FEA000D2B21A703B6A1A0A7B680D33D2B21A704A
:10FEB0003B6A1A0C7B680E33D2B21A703B6A1A0E78
:10FEC0007B680F33D2B21A7000BF3C37BD465DF875
:10FED000047B7047046B0300046F0300047303008A
:10FEE00004770300046A030080B48FB000AFF860A9
:10FEF000B9607A60FB685B683B63BB681B781A4635
:10FF0000BB6801331B781B021A43BB6802331B78A2
:10FF10001B041A43BB6803331B781B061343FB62A5
:10FF20003B6B1A1D3A631B68FA6A5340FB62BB685D
:10FF300004331B781A46BB6805331B781B021A432F
:10FF4000BB6806331B781B041A43BB6807331B7856
:10FF50001B061343BB623B6B1A1D3A631B68BA6AEC
:10FF60005340BB62BB6808331B781A46BB68093331
:10FF70001B781B021A43BB680A331B781B041A4305
:10FF8000BB680B331B781B0613437B623B6B1A1D4C
:10FF90003A631B687A6A53407B62BB680C331B78F8
:10FFA0001A46BB680D331B781B021A43BB680E331D
:10FFB0001B781B041A43BB680F331B781B061343C3
:10FFC0003B623B6B1A1D3A631B683A6A53403B62C3
:10FFD000FB681B685B10013B7B63FAE03B6B1A1DFF
:10FFE0003A631A68FB6ADBB2AC4951F823305A40D5
:10FFF0003B6A1B0ADBB2AA4951F823305A407B6A9C
:020000023000CC
:100000001B0CDBB2A74951F823305A40BB6A1B0EC8
:10001000A54951F823305340FB613B6B1A1D3A63ED
:100020001A68BB6ADBB29D4951F823305A40FB6A1B
:100030001B0ADBB29A4951F823305A403B6A1B0C29
:10004000DBB2984951F823305A407B6A1B0E96491F
:1000500051F823305340BB613B6B1A1D3A631A6859
:100060007B6ADBB28D4951F823305A40BB6A1B0AC8
:10007000DBB28B4951F823305A40FB6A1B0CDBB2D0
:10008000884951F823305A403B6A1B0E864951F883
:10009000233053407B613B6B1A1D3A631A683B6AFD
:1000A000DBB27E4951F823305A407B6A1B0ADBB22F
:1000B0007B4951F823305A40BB6A1B0CDBB27949AB
:1000C00051F823305A40FB6A1B0E774951F8233010
:1000D00053403B613B6B1A1D3A631A68FB69DBB204
:1000E0006E4951F823305A403B691B0ADBB26C4918
:1000F00051F823305A407B691B0CDBB2694951F837
:1001000023305A40BB691B0E674951F823305340D6
:10011000FB623B6B1A1D3A631A68BB69DBB25F492D
:1001200051F823305A40FB691B0ADBB25C4951F895
:1001300023305A403B691B0CDBB25A4951F823303B
:100140005A407B691B0E584951F823305340BB621B
:100150003B6B1A1D3A631A687B69DBB24F4951F851
:1001600023305A40BB691B0ADBB24D4951F823309A
:100170005A40FB691B0CDBB24A4951F823305A4004
:100180003B691B0E484951F8233053407B623B6B5F
:100190001A1D3A631A683B69DBB2404951F82330B3
:1001A0005A407B691B0ADBB23D4951F823305A4063
:1001B000BB691B0CDBB23B4951F823305A40FB6949
:1001C0001B0E394951F8233053403B627B6B013B96
:1001D0007B637B6B002B3FF701AF3B6B1A1D3A63D0
:1001E0001A68FB6ADBB22D4951F823305A403B6A4A
:1001F0001B0ADBB22A4951F823305A407B6A1B0C98
:10020000DBB2284951F823305A40BB6A1B0E2649FD
:1002100051F823305340FB613B6B1A1D3A631A6857
:10022000BB6ADBB21D4951F823305A40FB6A1B0AF6
:10023000DBB21B4951F823305A403B6A1B0CDBB23E
:10024000184951F823305A407B6A1B0E164951F861
:1002500023305340BB613B6B1A1D3A631A687B6ABB
:10026000DBB20E4951F823305A40BB6A1B0ADBB29D
:100270000B4951F823305A40FB6A1B0CDBB2094989
:1002800051F823305A403B6A1B0E074951F823307E
:1002900053407B613B6B1A1D08E000BF047C0300E8
:1002A0000480030004840300048803003A631A688E
:1002B0003B6ADBB2784951F823305A407B6A1B0A0B
:1002C000DBB2764951F823305A40BB6A1B0CDBB2D3
:1002D000734951F823305A40FB6A1B0E714951F89B
:1002E000233053403B613B6B1A1D3A631B68FA692C
:1002F000D2B26D498A5C5A403B691B0ADBB26A493B
:10030000CB5C1B025A407B691B0CDBB26649CB5CA1
:100310001B045A40BB691B0E6349CB5C1B06534050
:10032000FB623B6B1A1D3A631B68BA69D2B25E4925
:100330008A5C5A40FB691B0ADBB25B49CB5C1B023F
:100340005A403B691B0CDBB25749CB5C1B045A403B
:100350007B691B0E5449CB5C1B065340BB623B6B55
:100360001A1D3A631B687A69D2B24F498A5C5A40B7
:10037000BB691B0ADBB24C49CB5C1B025A40FB69D0
:100380001B0CDBB24849CB5C1B045A403B691B0E7B
:100390004549CB5C1B0653407B623B6B1A1D3A639D
:1003A0001B683A69D2B240498A5C5A407B691B0A91
:1003B000DBB23D49CB5C1B025A40BB691B0CDBB274
:1003C0003949CB5C1B045A40FB691B0E3649CB5C98
:1003D0001B0653403B62FB6ADAB27B681A70FB6A09
:1003E0001A0A7B680133D2B21A70FB6A1A0C7B6856
:1003F0000233D2B21A70FB6A1A0E7B680333D2B290
:100400001A707B680433BA6AD2B21A70BB6A1A0ACD
:100410007B680533D2B21A70BB6A1A0C7B6806334C
:10042000D2B21A70BB6A1A0E7B680733D2B21A7046
:100430007B6808337A6AD2B21A707B6A1A0A7B68C0
:100440000933D2B21A707B6A1A0C7B680A33D2B2B3
:100450001A707B6A1A0E7B680B33D2B21A707B68F3
:100460000C333A6AD2B21A703B6A1A0A7B680D33AF
:10047000D2B21A703B6A1A0C7B680E33D2B21A7071
:100480003B6A1A0E7B680F33D2B21A7000BF3C373A
:10049000BD465DF8047B7047047C030004800300C4
:1004A0000484030004880300047B030080B584B047
:1004B00000AFF860B9607A603B60BB68012B05D182
:1004C0003A687968F868FFF72DFA04E03A687968C5
:1004D000F868FFF709FD002318461037BD4680BDB8
:1004E00080B485B000AF786039607B68FB6004E061
:1004F000FB685A1CFA6000221A703B685A1E3A6068
:10050000002BF5D100BF1437BD465DF8047B704762
:1005100080B582B000AF78604FF4A0720021786897
:1005200005F0E4FA00BF0837BD4680BD80B58EB047
:1005300000AFF860B9607A603B6007F114032022D5
:100540000021184605F0D2FAFB6820331846FEF762
:10055000FDFFFB68BA68C3F83821FB687A68C3F806
:100560003C21FB687A6C9A61FB6842F21072DA6196
:10057000FB68203307F114014FF480721846FFF72F
:1005800005F83A6C3968F86800F0DDF978637B6B40
:10059000002B01D07B6B00E0002318463837BD46A6
:1005A00080BD80B586B002AFF860B9607A603B600C
:1005B00030230193BB6900933B687A68B968F86897
:1005C000FFF7B4FF034618461037BD4680BD80B51F
:1005D00082B000AF78607B68002B0AD07B68203344
:1005E0001846FEF7C1FF4FF4A0717868FFF778FF57
:1005F00000E000BF0837BD4680BD80B5ADF5507D39
:1006000000AF07F10C03186007F1080319603B1DE8
:100610001A603B1D1B68B3F5C07F02D96FF037032A
:1006200022E107F5C4734FF4D0720021184605F09B
:100630005DFA07F110031846FEF788FF07F5C4734B
:100640001033C7F83C333B1D1B68190ED7F83C33F9
:100650005A1CC7F83C23CAB21A703B1D1B68190C00
:10066000D7F83C335A1CC7F83C23CAB21A703B1D5A
:100670001B68190AD7F83C335A1CC7F83C23CAB286
:100680001A70D7F83C335A1CC7F83C233A1D12683D
:10069000D2B21A70D7F83C330333C7F83C33D7F8DB
:1006A0003C335A1CC7F83C2330221A703A1D07F11C
:1006B000080312681968D7F83C0305F00CFA3B1DD3
:1006C000D7F83C231B68134480221A703B1D1B681B
:1006D0001933C7F82C330023C7F838330EE0D7F8A6
:1006E0003833D9B207F59C72D7F8383313440A4629
:1006F0001A70D7F838330133C7F83833D7F838339E
:100700001F2BECDD07F59C7107F110034FF480728D
:100710001846FEF73BFF0023C7F8343365E007F5C2
:10072000C473C7F83C3307F59473102200211846B0
:1007300005F0DCF9D7F82C33C7F8303339E0002363
:10074000C7F8383319E007F59472D7F838331344F3
:100750001A78D7F83833D7F83C130B441B7853403A
:10076000D9B207F59472D7F8383313440A461A7091
:10077000D7F838330133C7F83833D7F838330F2B6D
:10078000E1DDD7F83C331033C7F83C33D7F83033CA
:10079000102B28BF1023D7F83023D31AC7F83033D3
:1007A00007F5947307F5947207F110000121FFF724
:1007B0007DFED7F83033002BC1D1D7F8343307F59D
:1007C000AC72134407F594711022184605F083F9B2
:1007D00007F5C473DB780133DAB207F5C473DA7056
:1007E000D7F834331033C7F83433D7F834332F2BDA
:1007F00095DD07F5AC7107F110034FF480721846D0
:10080000FEF7C4FE07F5AC732033C7F8283307F1B1
:100810000C031B68C7F83C330023C7F8343319E0D6
:1008200007F11000D7F82833D7F828230121FFF764
:100830003DFE1022D7F82813D7F83C0305F04BF9FA
:10084000D7F83C331033C7F83C33D7F83433103380
:10085000C7F83433D7F834332F2BE1DD07F1100319
:100860001846FEF781FE0023184607F55077BD466F
:1008700080BD80B592B000AF7860396007F10C039D
:100880007B6407F10C0330220021184605F02EF995
:100890000023FB6324E010233B640EE03B6C013B30
:1008A0007A68D25C0132D1B27A68D1547A68D35C6A
:1008B000002B06D13B6C013B3B643B6C002BEDDC19
:1008C00000E000BF7B6803F120007A687B6C0121A7
:1008D000FFF7ECFD7B6C10337B64FB6B1033FB6329
:1008E000FB6B2F2BD7DD00233B6413E007F10C02D9
:1008F0003B6C13441A783B6C39680B441B785340AB
:10090000D9B207F10C023B6C13440A461A703B6CD7
:1009100001333B643B6C2F2BE8DD7B68203307F110
:100920000C014FF480721846FEF730FE786807F12C
:100930000C0320331022194605F0CDF80023184689
:100940004837BD4680BD80B5E6B000AF07F10C0367
:10095000186007F1080319603B1D1A600023C7F8EF
:10096000943107F10C031B689B69B3F5C07F09D86C
:1009700007F10C031B689B69C3F5C0733A1D12682D
:100980009A4202D96FF037035AE007F114034FF48B
:10099000C0720021184605F0A9F807F10C031B6886
:1009A000D3F8383107F10C021268D2F83C0107F194
:1009B0000C021268926907F1140198470346002B54
:1009C00002D06FF033033BE007F10C031B689B6917
:1009D000D7F894211344C7F8943107F108031B6832
:1009E000002B16D03B1D1B68002B12D007F1140200
:1009F000D7F89431D0183A1D07F108031268196826
:100A000005F069F83B1DD7F894211B681344C7F81B
:100A1000943107F1140107F11403D7F89421184613
:100A2000FFF7EBFD07F1140207F10C0311461868FC
:100A3000FFF71FFF07F10C031B6801221A61002357
:100A4000184607F5CC77BD4680BD000080B487B05E
:100A500000AF78604FF0FF337B6100233B6160E0C3
:100A60003A6913469B0013449B00334A1344FB60CE
:100A7000FB689B7C002B51D0FB685B7C002B25D056
:100A8000FB68DB687A689A420DD2FB68DA687B689B
:100A9000D21AFB68DA60FB68DB687A69934228BF88
:100AA00013467B613AE0FB6800225A74FB681B7CAA
:100AB000002B03D1FB6800229A742FE07B69B3F509
:100AC000A02F28BF4FF4A0237B6127E0FB681B7C8D
:100AD000002B03D1FB6800229A741FE0FB689A6820
:100AE0007B681A44FB689A60FB689B68B3F5A02F8B
:100AF0000BD3FB681B7C013BDAB2FB681A74FB6802
:100B00009B68A3F5A022FB689A60FB689B68C3F50D
:100B1000A0237A69934228BF13467B613B69013366
:100B20003B613B69072B9BD97B6918461C37BD4647
:100B30005DF8047B704700BFD037002090B58DB0C2
:100B400000AF0346FB800823BB62012387F82730F0
:100B500007F10C02FB881146184601F0BBFFF86252
:100B6000FB6A002B11D08D4A8D4BD31ADB081B0476
:100B700043F00204F86AFCF701FF03461A46FB88BB
:100B800088492046FDF7CEFB05E1874B1846F9F76B
:100B900025FDF862FB6A002B10D0804A804BD31AE7
:100BA000DB081B0443F00204F86AFCF7E7FE034687
:100BB0001A467E492046FDF7A2FBECE0F9F732FD2C
:100BC00002467B4B1B6819461046F9F732FD034677
:100BD0001846FFF73BFFF861F9F724FD0246744B16
:100BE0001A6000233B6260E03A6A13469B0013449C
:100BF0009B00704A13447B617B699B7C002B4FD028
:100C00007B69591C07F10C0301330622184604F0D6
:100C100053FF0346002B45D17B691B7CFB74FB7C97
:100C20004FF47A6202FA03F3B3F57A4F03DAFB7CEE
:100C30000133DBB200E0FB7CFB747B69FA7C1A7445
:100C40007B6900229A60FB7C4FF47A6202FA03F31C
:100C500019464FEAE1724FF000034FF00004D4034D
:100C600044EA5144CB0313F5FA7044F100014FF408
:100C70007A724FF0000304F059FF03460C461A46FF
:100C80007B69DA607B69DB68FA69934228BF1346A7
:100C9000FB617B6901225A74002387F8273001E049
:100CA0003B6ABB623B6A01333B623B6A072B9BD9C1
:100CB00097F82730002B50D0BB6A072B42D8BA6A6E
:100CC00013469B0013449B003A4A1344BB61BB6923
:100CD00007F10C010722184604F0FDFEBB69002253
:100CE0001A74BB6900229A60BB691B7C1A464FF4D8
:100CF0007A63934019464FEAE1724FF000034FF0D8
:100D00000004D40344EA5144CB0313F5FA7044F1D0
:100D100000014FF47A724FF0000304F007FF03461E
:100D20000C461A46BB69DA60BB69DB68FA69934214
:100D300028BF1346FB61BB6901225A74BB690122BB
:100D40009A740AE0154A164BD31ADB081B0443F0C9
:100D5000020319491846FDF7C3FAFB69B3F1FF3FD7
:100D600019D01148FB691A46F969F9F703FCF862D2
:100D7000FB6A002B0FD0094A094BD31ADB081B046E
:100D800043F00204F86AFCF7F9FD03461A460B49E2
:100D90002046FDF7B4FA3437BD4690BD34AD0300AC
:100DA000ACAC0300608C0300B0370020B08C0300B3
:100DB00070380020D0370020D08C0300408C030016
:100DC00090B589B000AF0346FB8007F10C02FB88A9
:100DD0001146184601F07EFEB861BB69002B12D0A7
:100DE0001F4A204BD31ADB081B0443F00204B869E6
:100DF000FCF7C4FD03461A46FB881B492046FDF755
:100E000091FA012327E00023FB6120E0FA691346F1
:100E10009B0013449B00154A13447B617B699B7CB8
:100E2000002B11D07B69591C07F10C0301330622FA
:100E3000184604F041FE0346002B05D17B695B7C1C
:100E4000002B01D0012306E0FB690133FB61FB6944
:100E5000072BDBD9002318462437BD4690BD00BFC1
:100E600034AD0300ACAC0300608C0300D03700202D
:100E700080B485B000AF0346FB800023FB6015E023
:100E80000F49FA6813469B0013449B000B441B88D0
:100E9000FA889A4207D1FA6813469B0013449B00D4
:100EA000074A134406E0FB680133FB60FB68002B34
:100EB000E6D0002318461437BD465DF8047B704722
:100EC0007438002080B483B000AF78600B467B801C
:100ED0007B687A881A807B6800221A727B680649D0
:100EE00003F10A020B4603CB1060516000BF0C37C0
:100EF000BD465DF8047B7047A438002080B483B001
:100F000000AF78607B684FF6FF721A8000BF0C3725
:100F1000BD465DF8047B704780B489B000AFF860CF
:100F2000B96011461A460B46FB801346BB80FB682E
:100F30009B881A46FB881344FB61FB689B88FA88F0
:100F40009A4205D2FB689B881A46FB88D31A00E0B8
:100F50000023BB61FB68DB881A46BB8813447B61B6
:100F6000FB68DB88BA889A4205D2FB68DB881A46A0
:100F7000BB88D31A00E000233B61BB685A88FB683A
:100F80001B889A4205D3BB685A88FB685B889A42E3
:100F900001D900231CE0BB689B881A46BB699342B9
:100FA00005D8BB689B881A46FB69934201D200238F
:100FB0000EE0BB68DB881A463B69934205D8BB68E4
:100FC000DB881A467B69934201D2002300E00123AB
:100FD00018462437BD465DF8047B704780B582B063
:100FE00000AF7860054B9B69002B03D0034B9B69D6
:100FF0007868984700BF0837BD4680BD8838002014
:1010000080B586B000AF03463960FB803B685B7AF1
:10101000002B19D13B681B7A002B03D1154B5B6861
:101020007B6102E0134B9B687B613B685B68FA88DD
:1010300079691846F9F79EFA38613B69002B14D09C
:101040003869FFF7CBFF10E03B6800221A72094BAA
:101050005B69002B09D001233B73FB88FB81054BA7
:101060005B6907F10C021046984700BF1837BD4670
:1010700080BD00BF8838002080B584B000AF7860A4
:101080007B68DB7BFB737B689B88BB81FB7B012BD5
:101090002AD14FF6FF70FFF7EBFEB860BB68002B5C
:1010A00003D10420FFF79AFF1FE0BB891946B868F7
:1010B000FFF708FFBB6803F10A007B6803F110012A
:1010C0004FF6FF7340F2F312FFF726FF03461A466E
:1010D000BB685A72064BDB89002B06D1BB89B96805
:1010E0001846FFF78DFF00E000BF1037BD4680BDFA
:1010F0008838002080B586B000AF78607B689B8818
:10110000FB82FB8A1846FFF7B3FE38613B69002B70
:101110000ED03B695B681846F9F760FAF860FB6827
:10112000002B02D0F868FFF759FF3869FFF7E6FE99
:1011300000BF1837BD4680BD80B586B000AF78606F
:101140007B6806337B617B691A88184BDB899A427E
:1011500028D17B695B89022B24D17B689B887B82A9
:101160007B8A1846FFF784FEF860FB68002B19D0D5
:101170007B690C33184600F0CCFA0346002B05D0EF
:101180007B8AF9681846FFF73BFF0BE0FB685B685A
:101190001846F9F723FAB860BB68002B02D0B8688C
:1011A000FFF71CFF00BF1837BD4680BD8838002000
:1011B00080B584B000AF78607B689B88FB81FB8939
:1011C0001846FFF755FEB860BB68002B14D0BB680B
:1011D00003F10A007B6803F108014FF6FF7340F248
:1011E000F312FFF799FE03461A46BB685A72FB8951
:1011F000B9681846FFF704FF00BF1037BD4680BD31
:1012000080B582B000AF786039607B681B88112B95
:101210000DD0112B02DC102B05D014E0122B0ED0B8
:10122000502B08D00FE07868FFF726FF0BE07868B6
:10123000FFF760FF07E07868FFF77EFF03E078685C
:10124000FFF7B6FF00BF00BF0837BD4680BDB0B591
:101250008EB000AF786039600023BB603B68002B24
:101260001BD000237B6315E03B46796B1846FAF7E9
:10127000D1FE0346002B0AD0BB685A1CBA607A6BB9
:1012800092B25B0007F138010B4423F82C2C7B6BE6
:1012900001337B637B6B132BE6D97B681D4607F11B
:1012A00008040FCC0FC50FCC0FC594E8070085E8E4
:1012B000070078683837BD46B0BD000080B582B001
:1012C00000AF0346FB80FB88132B01D900230AE003
:1012D000FB8819460648FAF748FEFB881946054878
:1012E000FAF743FE012318460837BD4680BD00BF0C
:1012F000B4380020B038002080B584B000AF034679
:10130000FB800023FB600CE0FB689B00084A134451
:101310000433FA8811461846FAF763FEFB68013376
:10132000FB60FB681C2BEFD900BF1037BD4680BDAA
:10133000AC38002080B582B000AF0346FB80FB884C
:1013400019460348FAF74DFE00BF0837BD4680BD79
:10135000B4380020B0B59AB000AF1A4B9B68DB439D
:101360003B66184B5A6807F1600311461846FAF7B6
:1013700021FF3A6E3B4611461846FFF768FF07F11A
:1013800034043D460FCD0FC40FCD0FC495E80700C0
:1013900084E8070000237B660CE07B6E5B0007F1AE
:1013A0006802134433F8303C1846FFF7A5FF7B6E04
:1013B00001337B667B6B7A6E9A42EED300BF68374F
:1013C000BD46B0BDAC38002080B582B000AF03464A
:1013D000FB71FB7919460448FAF71CFE03461846D0
:1013E0000837BD4680BD00BFAC38002080B584B052
:1013F00000AF786039607B689B88FB817B681B88C5
:10140000112B1ED01A2B21D0102B00D055E0FFF746
:10141000A1FFFB891846FFF751FF034683F0010344
:10142000DBB2002B03D00420F8F734FB44E07B68E8
:10143000DB7B012B40D0FB8919462248FAF795FD4A
:101440003AE0FB891846FFF775FF36E07B681B7AA8
:10145000C3F30313DBB2012B8CBF012300237B7387
:101460007B681B7AC3F30313DBB2022B8CBF01230F
:1014700000233B737B7B002B13D0FB89194612485A
:10148000FAF773FD3B7B002B05D0FB8919460F480B
:10149000FAF76BFD11E0FB8919460C48FAF7A1FD3C
:1014A0000BE0FB8919460848FAF79BFDFB891946B2
:1014B0000648FAF796FD00E000BF00BF1037BD46B2
:1014C00080BD00BFB8380020BC380020C0380020E4
:1014D00080B582B000AF0346FB80FB88132B01D997
:1014E000002305E0FB8819460348FAF793FD0346FD
:1014F00018460837BD4680BDB038002080B584B09E
:1015000000AF0346FB800023FB73FB881846FFF700
:10151000DFFF0346002B0DD0FB8819460848FAF779
:1015200079FD0346BB73BB7B002B01D0022300E097
:101530000123FB73FB7B18461037BD4680BD00BFFF
:10154000B838002080B582B000AF0346FB80FB882E
:101550001846FFF7BDFF0346002B06D0FB8819464F
:101560000448FAF757FD034600E000231846083701
:10157000BD4680BDBC38002080B582B000AF0346B8
:101580000A46FB8013467B717B791846FFF71CFFE8
:101590000346002B13D0FB881846FFF799FF03463C
:1015A000002B0CD07B7904339B00074A134408338B
:1015B000FA8811461846FAF72DFD034600E000238D
:1015C00018460837BD4680BDAC38002080B582B0D3
:1015D00000AF0346FB800B467B7113463B717B7962
:1015E0001846FFF7F1FE0346002B20D0FB88184673
:1015F000FFF76EFF0346002B19D03B79002B0BD071
:101600007B7904339B000C4A13440833FA88114653
:101610001846FAF7AAFC0AE07B7904339B00064AD5
:1016200013440833FA8811461846FAF7DAFC00BF6B
:101630000837BD4680BD00BFAC38002080B586B0FD
:1016400000AFF860B9607A60BB68002B01D100235D
:1016500020E000237B61FB68002B1AD000233B6154
:1016600014E007F10C0339691846FAF7D3FC034676
:10167000002B08D03B699AB2BB687968104698473E
:101680007B6901337B613B6901333B613B69132B10
:10169000E7D97B6918461837BD4680BD80B584B050
:1016A00000AF0346B9607A60FB73FB7B1846FFF717
:1016B0008BFE034683F00103DBB2002B01D0002335
:1016C0000BE0FB7B074A04339B0013449B687A685A
:1016D000B9681846FFF7B2FF034618461037BD46F3
:1016E00080BD00BFAC38002080B483B000AF78600C
:1016F0007B681B781AB27B6801331B781B021BB214
:1017000013431BB29BB218460C37BD465DF8047BF1
:10171000704780B584B000AF78607868FFF7E4FF69
:101720000346FB81FB8903F00103002B14BF012357
:101730000023DBB218461037BD4680BDA0DF7047DE
:1017400000BF1846A1DF704700BF1846ADDF7047E5
:1017500000BF1846B3DF704700BF184680B584B09D
:1017600000AF786001217868FAF7C1FCF860BFF338
:101770005F8FFB68002B0CBF01230023DBB21846F0
:101780001037BD4680BD80B483B000AF7860BFF332
:101790005F8F7B6800221A6000BF0C37BD465DF882
:1017A000047B704780B584B000AF78607B685B884D
:1017B000184601F06BF903461A467B689A800023AD
:1017C000FB6008E0074AFB6852F8233078689847C6
:1017D000FB680133FB60FB68002BF3D000BF1037C0
:1017E000BD4680BDE82B002080B483B000AF786098
:1017F0007B689B79012B0BD17B681B79012B07D16F
:101800007B685B8842F60212934201D1012300E01B
:10181000002303F00103DBB218460C37BD465DF828
:10182000047B704780B588B000AF03463960FB8009
:1018300007F1080300221A605A609A60DA601A61A0
:101840005A6107233B72FB887B813B683B6107F150
:1018500008031846FFF7A6FF00BF2037BD4680BD2E
:1018600090B58BB000AF0346FB80002387F827308C
:1018700007F1080300221A605A609A60DA601A6160
:101880005A61FB887B81FB884FF6FF72934254D0EC
:10189000FB88184600F056FE38623B6A0B2B17D0C7
:1018A0000B2B02D8002B07D026E0112B0CD043F2D3
:1018B0000202934237D01FE00E233B7207F1080368
:1018C0001846FFF76FFF2FE0012387F827302BE042
:1018D0000F233B721B4A1C4BD31ADB081B0443F03B
:1018E0000203FA8819491846FCF709FD07F10803B5
:1018F0001846FFF757FF17E0124A134BD31ADB08BD
:101900001B0443F00104386AFCF738F803461A4612
:10191000FB880F492046FCF705FDFB88396A18460D
:10192000FFF780FF00E000BF0A4B197897F82720E7
:10193000FB881846FFF74AFE00E000BF2C37BD4683
:1019400090BD00BF3CAD0300ACAC03000C8D0300A8
:101950008C8D03002939002080B582B000AF03468A
:101960000A46FB8013467B71054B19787A79FB8810
:101970001846FFF72BFE00BF0837BD4680BD00BFED
:101980002839002090B58BB000AF0346FB800023C0
:1019900087F82730002387F82630FB88184600F0A8
:1019A00051FD38623B6A112B0FD0112B02D8002B4E
:1019B00007D02EE0862B0CD043F2020293423FD098
:1019C00027E0012387F826303BE0012387F8273002
:1019D00037E007F1080300221A605A609A60DA6063
:1019E0001A615A6106233B72FB887B811B4A1C4BA0
:1019F000D31ADB081B0443F00203FA88194918467E
:101A0000FCF77DFC07F108031846FFF7CBFE00BF8B
:101A100017E0124A124BD31ADB081B0443F00104EF
:101A2000386AFBF7ABFF03461A46FB880E4920468F
:101A3000FCF778FCFB88396A1846FFF7F3FE00E0F4
:101A400000BF97F82720FB8811461846FFF784FF50
:101A500097F8263018462C37BD4690BD3CAD0300A4
:101A6000ACAC0300E08D0300188E030080B588B095
:101A700000AF03463960FB800023FB7707F11603B4
:101A80001846FFF767FEB8610123BB833AE00223E3
:101A9000BB810023FB8107F114033B6107F10C02BA
:101AA000B98BFB881846FFF751FEB861BB69002B64
:101AB00001D0BB692BE0FB7F83F00103DBB2002B7D
:101AC00007D0BB8A42F60522934202D10123FB775D
:101AD00015E0FB7F002B12D0BB8A42F60212934224
:101AE0000DD13B683B61BB8B0133BB8307F10C021B
:101AF000B98BFB881846FFF729FE034607E0BB8B2E
:101B00000133BB83FB8ABA8B9A42C0D305231846A4
:101B10002037BD4680BD000090B58DB000AF0346B4
:101B2000FB80012387F82F30002387F82E30FB88B5
:101B3000184600F0A9FDB862BB6A082B28D0082B14
:101B400004D8002B0DD0062B30D040E043F2020227
:101B5000934253D043F20142934233D0112B4FD0E2
:101B600035E007F1100300221A605A609A60DA60CB
:101B70001A615A6110233B74FB887B82012387F82A
:101B80002E3007F110031846FFF70CFE00BF38E0B7
:101B900007F10E02FB8811461846FFF767FFB8628F
:101BA000BB6A002B02D1FB89002B2AD1002387F8C6
:101BB0002F30FB88184600F069FF0346184600F0F6
:101BC000A9FD1EE0FB881846FFF74AFE19E0174AF8
:101BD000174BD31ADB081B0443F00104B86AFBF768
:101BE000CDFE03461A46FB8812492046FCF79AFBB5
:101BF000FB88B96A1846FFF715FE02E000BF00E057
:101C000000BF0D4B197897F82F20FB881846FFF777
:101C1000DDFC0A4B197897F82E20FB881846FFF751
:101C2000D5FC00BF3437BD4690BD00BF3CAD0300BE
:101C3000ACAC0300588E03002A3900202B39002059
:101C400080B582B000AF03463960FB80FB88184640
:101C5000FFF706FE00BF0837BD4680BD80B500AF68
:101C6000044B1B78002204491846FFF717FD00BFFC
:101C700080BD00BF29390020411C030080B582B01F
:101C800000AF03463960FB800A48FFF767FD034653
:101C9000002B0BD0FB881846FFF774FE0346002B81
:101CA00003D10448FFF76FFD00E000BF0837BD46D1
:101CB00080BD00BF2439002080B582B000AF03464C
:101CC0003960FB800A4B1A78FB8811461846FFF7EB
:101CD00053FC034683F00103DBB2002B03D0FB88E7
:101CE0001846FFF719FF00BF0837BD4680BD00BF8B
:101CF0002B39002080B500AF044B1B78002204492B
:101D00001846FFF7CBFC00BF80BD00BF2A3900207A
:101D1000B91C030080B582B000AF0346FB80FB888E
:101D2000184600F08FFC0346002B06D0054B1978AF
:101D3000FB8801221846FFF749FC00BF0837BD4663
:101D400080BD00BF2A39002080B586B000AF0346B1
:101D50003960FB8007F1100304220021184603F0CC
:101D6000C5FE42F6A6233B820123BB740C4B1B68C5
:101D7000FB6007F10C0207F11001FB881846FFF722
:101D8000DDFC78617B69002B06D1064B1978FB8856
:101D900001221846FFF71AFC00BF1837BD4680BD68
:101DA000988E03002D39002080B584B000AF034623
:101DB000FB80FB88184600F069FE0346184607F1D1
:101DC00008020023092101F082FA0346052B06D1FF
:101DD000054B1978FB8801221846FFF7F7FB00BF77
:101DE0001037BD4680BD00BF2C39002080B582B0C1
:101DF00000AF0B4B1B7800220A491846FFF74EFC38
:101E000078607B68002B07D1074B1B7800220749BD
:101E10001846FFF743FC786000BF0837BD4680BD19
:101E2000283900207D1C03002C390020491D0300A7
:101E300080B582B000AF78607B681B78002B00D043
:101E400011E07B685B881846FFF70AFD7B685B88BA
:101E50001846FFF75FFF7B685B881846FFF7A4FF13
:101E6000FFF7C4FF00BF00BF0837BD4680BD0000BC
:101E700080B588B000AF78607B681B78082B51D1A3
:101E80007B685B7A002B4DD17B681B7A072B04D0D3
:101E9000082B3FD0012B16D04BE07B689B8818465F
:101EA00000F09CFE0346FB83FB8B4FF6FF729342D0
:101EB0003AD0FB8B01211846FFF74EFDFB8B1846ED
:101EC000FFF772FF30E07B689B8807F10C0201216D
:101ED000184601F035FFB861BB69002B26D13B697C
:101EE0001B78002B22D07B689B88184600F076FE7A
:101EF0000346FB82FB8A4FF6FF72934216D0104BCB
:101F00001978FB8A01221846FFF760FBFFF7F2FE03
:101F100000BF0BE00B4B1B68012B09D10948FFF7F1
:101F200032FC05E000BF04E000BF02E000BF00E0BB
:101F300000BFFFF75BFF00BF2037BD4680BD00BF7D
:101F40002A3900202439002090B587B000AF03461D
:101F50000A46FB8013467B7107F10C0300221A60CE
:101F60005A600123BB810923BB73194B1978FB8885
:101F700000221846FFF72AFB7B79002B01D0154B76
:101F800000E0154B3B61FB88184600F07FFD0346DF
:101F9000184607F10C030022194601F05DFA78613A
:101FA0007B69002B0FD00D4A0D4BD31ADB081B04A5
:101FB00043F002047869FBF7E1FC03461A4609493D
:101FC0002046FCF79CF900BF1C37BD4690BD00BF02
:101FD0002C39002020900300249003003CAD030026
:101FE000ACAC03000C8F030080B58CB000AF786000
:101FF0007B689B88BB857B681B88353B1F2B00F269
:10200000588101A252F823F00D210300032203009E
:10201000B3220300B3220300B3220300B322030060
:10202000B3220300B3220300B3220300B322030050
:10203000B3220300B3220300B3220300B322030040
:10204000B3220300B3220300B3220300B322030030
:10205000B3220300B3220300B3220300B322030020
:10206000B3220300B3220300B3220300B322030010
:10207000B3220300EB200300B322030089200300F6
:10208000B322030093200300BB8D1846FFF7E8FB43
:102090000FE107F1080300221A605A609A60DA60C3
:1020A0001A615A6111233B72BB8D7B81BB8D18462F
:1020B00000F0ECFC0346BB81BB89184600F02AFB0C
:1020C000804B1978BB8D00221846FFF77FFA7E4BB4
:1020D0001978BB8D00221846FFF778FA07F108033C
:1020E0001846FFF75FFB00BFE3E07B680633184646
:1020F000FFF77AFB0346002B00F0D480BB8D012153
:102100001846FFF729FCFFF771FECBE0002387F8A4
:102110002F307B689B88BB857B680A337B626B4B67
:102120001A78BB8D11461846FFF726FA034683F04E
:102130000103DBB2002B40F0B780644B1978BB8DF4
:1021400000221846FFF742FA7B68DB88B3F5857FEB
:102150004AD07B68DB88002B0DD05D4A5D4BD31ADB
:10216000DB081B0443F002007B68DB881A465A49EF
:10217000FCF7C5F838E07B6A1B88012B0CD0544A69
:10218000544BD31ADB081B0443F002007B6A1B8804
:102190001A465249FCF7B3F87B6A5B88012B0DD0D5
:1021A0004B4A4C4BD31ADB081B0443F002007B6AFA
:1021B0005B881A464A49FCF7A2F815E07B6A0433AB
:1021C0001988BB8D00221846FFF7BCFA38623B6ABB
:1021D000002B09D1012387F82F30424B1978BB8D92
:1021E00001221846FFF7F2F997F82F3083F0010328
:1021F000DBB2002B5AD0BB8D00211846FFF7A4FE9E
:1022000054E0002387F82E307B689B88BB857B6871
:102210000A33BB62334B1A78BB8D11461846FFF761
:10222000ABF9034683F00103DBB2002B40D12D4B09
:102230001978BB8D00221846FFF7C8F97B68DB8848
:10224000002B0DD0224A234BD31ADB081B0443F08A
:1022500002007B68DB881A461F49FCF750F819E03A
:10226000BB6A9B88012B0DD0194A1A4BD31ADB0885
:102270001B0443F00200BB6A9B881A461849FCF70E
:102280003EF807E0BB6A9B79002B14BF01230023B3
:1022900087F82E3097F82E20BB8D11461846FFF791
:1022A00053FE06E000BF04E000BF02E000BF00E014
:1022B00000BFFFF7D3FCFFF71DFD00BF3037BD4661
:1022C00080BD00BF2B3900202A3900202D39002085
:1022D0003CAD0300ACAC03006C8F0300A88F03007F
:1022E000E48F03002E390020AFDF704700BF18468F
:1022F000B1DF704700BF1846B2DF704700BF184615
:10230000B3DF704700BF184680B584B000AF786077
:102310007B689B88184600F061FC03461A467B6880
:102320005A800023FB6008E0074AFB6852F823301C
:1023300078689847FB680133FB60FB68002BF3D09B
:1023400000BF1037BD4680BDEC2B002090B58BB090
:1023500000AF2E4A07F11C0392E8030083E8030054
:1023600048E02B4B1B8807F11C010022184601F0A6
:1023700073F878627B6A002B33D03B1D00221A6011
:102380005A609A60DA601A615A61214B1B883B815E
:102390007B6A112B35D07B6A862B06D106233B71D5
:1023A0003B1D1846FFF7B0FF2BE01A4A1A4BD31A11
:1023B000DB081B0443F00104786AFBF7DFFA0346ED
:1023C0001A46134B1B8815492046FBF7ABFF072322
:1023D0003B717B6AFB603B1D1846FFF795FF00BF12
:1023E0000FE00B4B1B88184601F0F8F803461A461D
:1023F000074B1A80064B1B884FF6FF729342B0D1F1
:1024000000E000BF00BF2C37BD4690BD9490030094
:102410003039002044AD0300ACAC03003C90030015
:1024200080B582B000AF7860054B1B884FF6FF7215
:10243000934201D0FFF78AFF00BF0837BD4680BD39
:1024400030390020B0B58AB000AF0346FB80FB886E
:10245000184600F01BFB0346FB83FB8B4FF6FF7215
:10246000934202D143F2020362E001237B84002302
:1024700087F82130002387F821307B8C5A1C7A841E
:102480001A4607F10C03F88B082101F06DFC786205
:102490007B6A002B42D13B69BB61BB6903221A6096
:1024A000BB69991DBB691A1DBB691B68F888FFF7DA
:1024B00023FF78627B6A002B07D1FA8BFB8B082104
:1024C000184601F003FD78622DE07B6A0C2B03D1E6
:1024D000012387F8213004E07B6A052B01D100231A
:1024E0007B62FB8B0821184601F0D4FC78617B6984
:1024F000002B18D0104A114BD31ADB081B0443F0F1
:102500000104FD8B7869FBF739FA03462A460C492A
:102510002046FBF707FF03237B6204E07B6A072B5F
:1025200001D10C237B6297F82130002BA2D17B6A6A
:1025300018462837BD46B0BD44AD0300ACAC03001F
:102540009C90030080B58AB000AF0346FB80FB88F7
:10255000184600F09BFA0346BB8200233B6200232F
:10256000FB830323BB610123FB75BB8A4FF6FF721C
:10257000934215D007F10802BB8A0821184601F0E2
:10258000DFFB78627B6A002B0AD1FB683B613B6909
:1025900006333B623B699B88FB833B691B68BB61DD
:1025A000FA8BF888BB69396AFFF7A2FE78627B6A0A
:1025B000042B02D111237B622DE07B6A082B02D110
:1025C00000237B6227E07B6A0B2B24D10023FB7561
:1025D000BB6903F00203002B02D00123BB611AE0A8
:1025E0003B6A002B02D1FB8B002B06D000233B6201
:1025F0000023FB830323BB610DE00F4A0F4BD31A6B
:10260000DB081B0443F00103FA880D491846FBF769
:1026100076FE03237B627B6A0B2BC1D0FB7D83F0AC
:102620000103DBB2002B01D00B237B627B6A1846CF
:102630002837BD4680BD00BF44AD0300ACAC0300ED
:102640001C91030080B588B000AF0346FB8007F102
:1026500017033B61FB88184600F018FA0346FB831A
:1026600007F10C02FB8B0121184601F069FBB861F0
:10267000BB69002B01D0002301E03B691B781846A1
:102680002037BD4680BD000090B585B000AF034641
:10269000FB804FF6FF73FB811A48FFF731FEB860ED
:1026A000BB68002B11D0184A184BD31ADB081B0447
:1026B00043F00104B868FBF761F903461A46144970
:1026C0002046FBF71CFE032318E00E4B1988FA89FD
:1026D000FB881846FFF708FEB860BB6843F20302A8
:1026E000934205D1074B1B8801339AB2054B1A80E0
:1026F000BB6843F203029342E7D0BB681846143725
:10270000BD4690BD3239002044AD0300ACAC03009F
:102710009491030080B584B000AF0346FB80094A62
:1027200007F1080392E8030083E8030007F10801BA
:10273000FB880022184600F08FFE00BF1037BD4610
:1027400080BD00BFE091030046DF704700BF184620
:1027500080B584B000AF78600023FB6008E0084AD1
:10276000FB6852F8233078689847FB680133FB60B8
:10277000FB68012BF3D900BF1037BD4680BD00BFF9
:10278000F092030080B485B000AF78600023FB6056
:102790000AE07A68FB6813441B78002B01D0012300
:1027A00006E0FB680133FB60FB680F2BF1D90023C7
:1027B00018461437BD465DF8047B704780B582B07B
:1027C00000AF786039607B68002B02D03B68002B3B
:1027D00001D100231BE07B681B78C3F34603DAB208
:1027E0003B681B78C3F34603DBB29A4201D0002357
:1027F0000DE07B68581C3B6801330622194603F044
:102800005BF90346002B0CBF01230023DBB2184603
:102810000837BD4680BD0000B0B598B000AF786005
:102820007B681B88102B40F090807B6807F1300498
:102830001D1D0FCD0FC40FCD0FC495E8070084E810
:1028400007004FF6FF73A7F85E3097F8343023F097
:102850000103DBB2062B49D000F0A0FD97F834301D
:10286000C3F34603DBB2002B3FDB012B14DD022B4D
:102870002FD03AE0BB6A03F1110207F130030433B1
:1028800011461846FFF79AFF0346002B04D0FB8D34
:10289000A7F85E3000BF29E007F1240207F12E03FC
:1028A0001946072000F086FD0346002BE2D11DE00B
:1028B000BB6A5A1C07F1300304331146184600F076
:1028C0007DFA0346002B04D0FB8DA7F85E3000BFD5
:1028D0000CE007F1240207F12E031946072000F04F
:1028E00069FD0346002BE3D100E000BF3B8E194693
:1028F000184A0B469B000B445B001344B7F85E205C
:102900001A803B8E1946134A0B469B000B445B0012
:102910001344023307F134021068186091889279E9
:1029200099809A71B7F85E304FF6FF7293420DD0DE
:102930003B8EFB81B7F85E303B8200233B7307F18F
:102940000C031846FFF704FF00E000BF6037BD46E8
:10295000B0BD00BF3439002080B586B000AF7860CC
:1029600039607B6811337B613B6811333B617B6865
:10297000581C3B6801331022194603F09DF80346AA
:10298000002B11D17B6801331846FFF7FBFE03468D
:10299000002B09D03B6801331846FFF7F3FE0346CE
:1029A000002B01D0012300E00023FB73FB7B03F02D
:1029B0000103FB7339697869FFF700FF0346BB73B6
:1029C0007B691B7823F00103DBB2042B16D07B69F3
:1029D0001B7823F00103DBB2062B0FD03B691B7879
:1029E00023F00103DBB2042B08D03B691B7823F0F2
:1029F0000103DBB2062B01D0012300E000237B732F
:102A00007B7B03F001037B73BB7B002B02D07B7BC2
:102A1000002B08D1FB7B002B07D07B7B83F00103CD
:102A2000DBB2002B01D0012300E0002303F00103FF
:102A3000DBB218461837BD4680BD80B586B000AF02
:102A400078600B467B8000F0A9FC0DE0FB8A7A8859
:102A50009A4209D03B6919467868FFF77DFF034623
:102A6000002B01D0FB8A0CE007F10C0207F11603E2
:102A70001946072000F09EFC0346002BE6D14FF6D6
:102A8000FF7318461837BD4680BD000080B582B080
:102A900000AF0346FB80FB88132B09D8FB88184640
:102AA000FEF716FD034683F00103DBB2002B02D0D4
:102AB0004FF6FF7307E0FA88054913469B0013445D
:102AC0005B000B441B8818460837BD4680BD00BF1D
:102AD0003439002080B582B000AF03463960FB80F6
:102AE000FB88132B09D8FB881846FEF7F1FC034638
:102AF00083F00103DBB2002B02D043F2020310E0AB
:102B0000FA883868094913469B0013445B000B445C
:102B1000024602331968116099889B7991809371FC
:102B2000002318460837BD4680BD00BF3439002059
:102B300080B582B000AF78603960786800F080F8C6
:102B4000034683F00103DBB2002B01D0002315E024
:102B50007B681A883B681B889A4201D000230DE0ED
:102B60007B68981C3B6802330822194602F0A4FFD8
:102B70000346002B0CBF01230023DBB218460837A5
:102B8000BD4680BD80B586B000AF786000F006FC21
:102B900013E03B69463319467868FFF7C9FF0346DF
:102BA000002B08D13B692A3319467868FFF7C0FF2C
:102BB0000346002B01D0FB8A0CE007F10C0207F161
:102BC00016031946072000F0F5FB0346002BE0D161
:102BD0004FF6FF7318461837BD4680BD80B584B0E8
:102BE00000AF0346FB80FB884FF6FF72934202D191
:102BF0004FF6FF731EE00023FB8116E0FA890F49B0
:102C000013469B0013445B000B441B88FA889A42CE
:102C100008D1FB891846FEF75BFC0346002B01D068
:102C2000FB8907E0FB890133FB81FB89132BE5D985
:102C30004FF6FF7318461037BD4680BD343900206B
:102C400080B485B000AF78607B681B88002B01D012
:102C5000012312E00023FB600BE07A68FB68134459
:102C600002331B78002B01D0012306E0FB680133FF
:102C7000FB60FB68072BF0D9002318461437BD46CC
:102C80005DF8047B7047000080B483B000AF03465A
:102C90000A46FB801346BB80FB88132B08D8FA88B2
:102CA000064913469B0013445B000B44BA881A8004
:102CB00000BF0C37BD465DF8047B704734390020F7
:102CC00080B584B000AF0346FB80FB881846FFF751
:102CD00085FF0346FB81FB88184600F0C1FFB86002
:102CE000BB68002B0CD1FB89132B09D8FA89074943
:102CF00013469B0013445B000B444FF6FF721A808F
:102D0000BB6818461037BD4680BD00BF343900206F
:102D100080B594B000AFF860B9607A600023FB64BE
:102D20000EE0FB6CC3F10F03FA681344197807F146
:102D30001402FB6C13440A461A70FB6C0133FB64EB
:102D4000FB6C0F2BEDD907F1140310330D2200217A
:102D5000184602F0CBFE0023BB640EE0BA68BB6CE1
:102D60001A44BB6CC3F10F03127807F150010B44F6
:102D700003F82C2CBB6C0133BB64BB6C022BEDD96C
:102D800007F114031846FFF7DFFC00237B640EE015
:102D90007B6CC3F10F0279687B6C0B4407F1500127
:102DA0000A4412F81C2C1A707B6C01337B647B6C18
:102DB000022BEDD900BF5037BD4680BD80B586B02F
:102DC00000AF786039607B681B7823F00103DBB2C9
:102DD000042B01D0002325E07B68591C07F1140364
:102DE0000322184602F077FE7B68191D07F10C03D9
:102DF0000322184602F06FFE3B6807F1100207F14C
:102E00000C011846FFF784FF07F1100107F11403C6
:102E10000322184602F050FE0346002B0CBF01238C
:102E20000023DBB218461837BD4680BD84DF7047EB
:102E300000BF184680B582B000AF00237B600B4B0B
:102E40001B78002B02D00A4B7B600AE0094A0A4B30
:102E5000D31ADB081B0443F0010308491846FBF7AB
:102E60003FFA7B6818460837BD4680BD3D3A0020D2
:102E7000FC39002004AD0300ACAC03003095030026
:102E800080B596B000AF03463960FB8000237B65B8
:102E90003B681B683B654023FB6407F10C02FB6C3D
:102EA000396D2948FBF78CFE78657B6D002B0DD0C2
:102EB000264A274BD31ADB081B0443F001037A6D23
:102EC00024491846FBF71BFA7B6D38E0FB884C223F
:102ED00002FB03F3204A991807F10C02FB6C1A4815
:102EE000FBF728FE78657B6D002B15D0174A184B31
:102EF000D31ADB081B0443F001037A6D1749184607
:102F0000FBF7FDF9FB88144A4C2101FB03F3134442
:102F1000493300221A7008E0FB880F4A4C2101FB5C
:102F200003F31344493301221A70FB880A4A4C21E7
:102F300001FB03F31344483301221A70002318469F
:102F40005837BD4680BD00BFFCAA030004AD030096
:102F5000ACAC0300F8940300403A00202496030030
:102F600080B586B000AF0346FB80104B1B78002B6A
:102F700001D00F4B00E000237B610E4B1B68002B40
:102F800006D00C4B1B68FA8810469847034600E0B1
:102F900000233B61FB883A6979691846FFF746FFD1
:102FA000F860FB6818461837BD4680BD8C3A002093
:102FB000903A0020B83A002080B584B000AF786025
:102FC0000023FB607B689B887B817B681B88112BBF
:102FD00002D0182B13D040E07B89224A4C2101FB00
:102FE00003F31344493300221A707B891D4A4C2194
:102FF00001FB03F31344483300221A702DE07B6871
:103000001B7B03F00103DBB2002B16D07B89184633
:10301000FFF7A6FFF860FB68002B0ED0124A134B97
:10302000D31ADB081B0443F00103FA681049184661
:10303000FBF765F90F4B01221A707B6803F1080258
:103040007B8911461846FFF71BFFF860FB68002BD1
:1030500002D0084B01221A7000BF00BF1037BD46D6
:1030600080BD00BF403A002004AD0300ACAC0300BB
:10307000609603003C3A002080B584B000AF7860D1
:103080007B684FF6FF725A800023FB6005E0064B19
:1030900078689847FB680133FB60FB68002BF6D02B
:1030A00000BF1037BD4680BDC53B030080B483B070
:1030B00000AF0346FB80FB88A3F580439BB2184614
:1030C0000C37BD465DF8047B704780B483B000AF19
:1030D0000346FB80FB8803F580439BB218460C3700
:1030E000BD465DF8047B704780B483B000AF0346F3
:1030F000FB71FB799BB2A3F580439BB218460C375A
:10310000BD465DF8047B704780B483B000AF0346D2
:10311000FB71FB79072B11D0FB79012B0ED0FB79CA
:10312000082B0BD0FB79052B08D0FB79062B05D09B
:10313000FB79092B02D0FB79042B01D1012300E09C
:10314000002303F00103DBB218460C37BD465DF8DF
:10315000047B704780B588B000AF03463960FB80C0
:1031600013467B7107F1080300221A605A609A60C7
:10317000DA601A615A6107233B72FB88BB813B68A6
:103180003B617B793B7507F108031846FFF774FF35
:1031900000BF2037BD4680BD80B588B000AF2F4B43
:1031A00000221A703B1D08220021184602F09EFCE6
:1031B0004FF6FF7000F0DEFF0346FB8309E0FB8B58
:1031C000184600F03FFFFB8B184600F0D3FF034684
:1031D000FB83FB8B4FF6FF7293420ED0FB8B18469E
:1031E000FFF764FF034618463A1D07F10C03194622
:1031F000F8F7ADFD03460A2BE1D0FB8B4FF6FF72CB
:10320000934226D0FB8B1846FFF750FF0346BB8343
:10321000BB8B1846F8F73AFDB861BB69082B03D1A0
:103220000E4B01221A7014E0BB69002B11D00C4A1E
:103230000C4BD31ADB081B0443F00100FB8BBA696B
:103240000949FBF76FF8FB8B0122B9691846FFF7B4
:1032500081FF00BF2037BD4680BD00BFBC3A0020C3
:1032600064AD0300ACAC0300A896030080B586B043
:1032700000AF03463A60FB800B467B717B791846B2
:10328000FFF742FF07F1080308220021184602F069
:103290002DFCFB881846FFF709FF0346FB827B796C
:1032A0001846FFF721FF0346BB8207F10803B98ADE
:1032B000F88A3A68F8F722FD38613B69002B01D0A3
:1032C000052300E0002318461837BD4680BD80B5B1
:1032D0008CB000AFBA607B600346FB810B467B730A
:1032E000FB89FF2B01D9072354E07B7B1846FFF7AE
:1032F0000BFF034683F00103DBB2002B01D0072351
:1033000048E007F11802797BFB891846FFF7AEFF0A
:10331000F862FB6A002B01D005233BE007F11002A5
:1033200007F1180311461846F8F706FCF862FB6A25
:10333000002B01D005232DE0BB687A7B9A703B6996
:103340005A88BB681A807B68002B03D17A69BB68F6
:103350005A6019E0BB681B889B00BB62BB681B8876
:103360009B007A681288934228BF13467B62BB6831
:103370005B6879697A6A184602F0ADFB7A6ABB6AC3
:103380009A4201D20C2305E007F118031846F8F71A
:103390000FFC002318463037BD4680BD80B500AF16
:1033A00008220021024802F0A1FB00BF80BD00BF3F
:1033B000C03A002080B58CB000AF0346B9607A6097
:1033C000FB73FB7B1846FFF79FFE034683F0010368
:1033D000DBB2002B01D0012338E0FB7B1846FFF75E
:1033E00083FE0346FB8507F11C01FB8D194A184635
:1033F000F8F79AFC0346002B01D0002326E007F1E2
:10340000140207F11C0311461846F8F795FBB86241
:10341000BB6A002B01D0002318E07B68FA7B9A700E
:103420007B695A887B681A80BA697B685A607B69B5
:103430009B881846FFF749FE03461A46BB681A8068
:1034400007F11C031846F8F7B3FB01231846303781
:10345000BD4680BDC03A002080B58CB000AF0346A9
:10346000B9607A60FB81FB89FF2B01D907237FE0DC
:10347000BB689B781846FFF747FE034683F00103BD
:10348000DBB2002B01D0072372E0FB891846FFF75F
:103490000DFE03463B84BB689B781846FFF724FE6D
:1034A00003467B84BB685B687B62BB681B88BB622E
:1034B000BB68997807F11402FB891846FFF7D6FE1E
:1034C000F862FB6A052B09D107F1200207F114030A
:1034D00011461846F8F7B4FBF86208E007F120023D
:1034E00007F1140311461846F8F7BAFBF862FB6AB5
:1034F0000E2B30D801A252F823F000BF393503005B
:10350000573503005735030057350300573503007F
:103510005735030057350300533503004F3503007B
:10352000573503005735030057350300573503005F
:10353000573503004F3503007B68002B05D007F19A
:10354000140379681846F8F715FC002310E01123DE
:103550000EE086230CE0084A084BD31ADB081B0454
:1035600043F00100FB89FA6A0549FAF7DBFE032301
:1035700018463037BD4680BD64AD0300ACAC0300D7
:103580007897030080B500AF4FF6FF7000F028FD7C
:103590000346184680BD80B582B000AF0346FB806D
:1035A000FB88FF2B01D9072306E0FB88184600F0B3
:1035B00029FDFFF7F1FD002318460837BD4680BD01
:1035C00080B582B000AF0346FB80FB88184600F050
:1035D00051FD034618460837BD4680BD80B582B010
:1035E00000AF0346FB80FB88184600F097FD0346BA
:1035F00018460837BD4680BD80B582B000AF03468F
:10360000FB80FB88184600F0B5FD034618460837D6
:10361000BD4680BD80B483B000AF78607B684FF654
:10362000FF721A807B68FF229A707B68FF225A72B1
:103630007A68937A6FF3410393727A68937A6FF39F
:10364000000393727B6800221A727B6800225A6022
:1036500000BF0C37BD465DF8047B704780B485B071
:1036600000AF03463960FB803B681B68FB6018E0D5
:103670001149FA6813465B0013449B000B441B88F6
:10368000FA889A420AD13B68FA681A60FA681346C7
:103690005B0013449B00084A134406E0FB680133B7
:1036A000FB60FB68032BE3D9002318461437BD46A3
:1036B0005DF8047B704700BFD83A002080B584B025
:1036C00000AF03460A46FB8013467B710023BB60B4
:1036D00007F10802FB8811461846FFF7BFFFF860A4
:1036E0000AE0BB680133BB6007F10802FB881146A2
:1036F0001846FFF7B3FFF860FB68002B16D0FB6895
:103700009B787A799A42ECD1FB689B7A03F00203AA
:10371000DBB2002BE5D1FB689B7A03F00103DBB23F
:10372000002BDED1FB685B68002BDAD1FB68184602
:103730001037BD4680BD000080B485B000AF786012
:103740000023FB6016E01049FA6813465B0013443F
:103750009B000B4404331B687A689A4207D1FA68CD
:1037600013465B0013449B00074A134406E0FB68C2
:103770000133FB60FB68032BE5DD0023184614379B
:10378000BD465DF8047B7047D83A002080B500AF95
:10379000FF214FF6FF70FFF791FF0346184680BDEB
:1037A00080B584B000AF78600023FB600CE07B68DC
:1037B0005A7AFB68DBB21344DBB21946094800F0C1
:1037C000F1FFFB680133FB607B681B7A1A46FB68DC
:1037D0009342ECD37868FFF71DFF00BF1037BD465A
:1037E00080BD00BFC83A002080B582B000AF7860CD
:1037F0000B467B8013467B707B68002B11D0FFF754
:10380000C5FF02467B681A607B681B68002B0AD0E4
:103810007B681B687A881A807B681B687A789A7044
:1038200002E000BF00E000BF0837BD4680BD0000D9
:1038300080B584B000AF78600023FB6008E0084AE0
:10384000FB6852F8233078689847FB680133FB60C7
:10385000FB68032BF3D900BF1037BD4680BD00BF06
:10386000489A030080B487B000AFF8607A601A46C7
:103870000B46FB7213463B813B891A469200134468
:103880001B01FB82FB68FA7A9A70FB687A685A60BF
:10389000FB8A03339B109AB2FB681A8000BF1C3767
:1038A000BD465DF8047B704780B584B000AFF8601A
:1038B0007A603B600B46FB723B689BB2F97A7A6890
:1038C000F868FFF7CFFF00BF1037BD4680BD00008E
:1038D00080B483B000AF78607B689B78013B072B96
:1038E00027D801A252F823F011390300333903001D
:1038F0003339030033390300333903001939030026
:1039000009390300213903007B6814221A8011E071
:103910007B6801221A800DE07B6801221A8009E091
:103920007B685B689B8809339B089AB27B681A8026
:1039300000E000BF00BF0C37BD465DF8047B704758
:1039400090B587B000AF786000237B6107F1080372
:1039500000221A605A607B689B78BB727B685B7A36
:1039600019463F4800F0F0FE38613B69002B0ED14C
:103970003C4A3D4BD31ADB081B0443F001007B6833
:103980005B7A1A463949FAF7BAFC032364E07B688C
:1039900099787B681B7A07F108003A69FFF784FF82
:1039A00007F108031846FFF793FF7B6818887B68C8
:1039B0001A1D07F108031946FFF74EFD78617B6970
:1039C000072B47D0072B02D8002B05D02DE0112B59
:1039D0000DD0862B1BD028E07A68937A6FF34103D1
:1039E00093727A68937A6FF30003937233E07A6884
:1039F000937A43F0020393727A68937A6FF3000329
:103A000093721B4B01221A7000237B6123E07A68BA
:103A1000937A6FF3410393727A68937A43F00103C8
:103A20009372134B01221A7015E00E4A0E4BD31AF3
:103A3000DB081B0443F001047869F9F79FFF034694
:103A40001A467B681B880B492046FAF76BFC032358
:103A50007B6100E000BF7B6918461C37BD4690BD06
:103A6000C83A00205CAD0300ACAC030038980300FA
:103A7000083B00207898030090B58BB000AF7860C9
:103A80007868FFF75DFF78627B6A002B2AD04FF6DB
:103A9000FF73FB817B681B883B827B6A862B02D18C
:103AA00006233B7317E007233B737B6A7B6100238C
:103AB0003B760F4A0F4BD31ADB081B0443F001047B
:103AC000786AF9F75BFF03461A467B681B880A4948
:103AD0002046FAF727FC07F10C031846FFF7A8FE6B
:103AE000002300E0012318462C37BD4690BD00BFDF
:103AF0005CAD0300ACAC0300A898030080B584B0B3
:103B000000AF0346FB712D4B1B7883F00103DBB242
:103B1000002B4CD1294B00221A700023FB6042E09D
:103B20002749FA6813465B0013449B000B44083393
:103B30009B78C3F34003DBB2002B0DD12049FA6818
:103B400013465B0013449B000B4408339B78C3F37C
:103B50000003DBB2002B23D0184B01221A70184946
:103B6000FA6813465B0013449B000B4408339B78B0
:103B7000C3F34003DBB2002B02D1FB79002B0FD043
:103B8000FA6813465B0013449B000D4A1344184621
:103B9000FFF772FF034683F00103DBB2002B08D16D
:103BA000FB680133FB60FB68032BB9D902E000BF5F
:103BB00000E000BF1037BD4680BD00BF083B0020BD
:103BC000D83A002080B584B000AF78600123FB7341
:103BD0000023BB737B68DB681846FFF7ADFDB86058
:103BE0007B681B78092B0FD0132B22D0082B00D019
:103BF00025E07B685B7A002B1ED1BB68002B1BD0B5
:103C0000B868FFF7CDFD17E07B685B7A002B15D114
:103C1000BB68002B12D0BB6800225A60BA68937A46
:103C200043F0020393720D4B01221A700023FB73C1
:103C300004E00123BB7302E000BF00E000BFFB7B98
:103C4000002B02D07868FFF7F3FDBB7B1846FFF727
:103C500055FF00BF1037BD4680BD00BF083B0020A8
:103C6000B0B588B002AF0346FB800023FB6007F1CC
:103C70000C02FB8811461846FFF7F0FC786130E033
:103C80007B699A78FB881146184600F003F9386181
:103C90003B69002B1AD03B69052B17D0244A254BD2
:103CA000D31ADB081B0443F001043869F9F766FEF8
:103CB00003461946FA887B699B78009313460A46A7
:103CC0001D492046FAF744FB03232CE0FB6801332F
:103CD000FB6007F10C02FB8811461846FFF7BEFC9B
:103CE00078617B69002BCBD1FB881846FFF753FC2A
:103CF00038613B69002B02D03B69072B01D13B693E
:103D000011E00B4A0B4BD31ADB081B0443F00104F0
:103D1000FD883869F9F732FE03462A4607492046EE
:103D2000FAF700FB032318461837BD46B0BD00BFA5
:103D30005CAD0300ACAC030028990300809903003C
:103D400080B582B000AF03463A60FB800B467B71C2
:103D50007979F88800233A68FFF7B9FA03461846DC
:103D60000837BD4680BD000090B589B000AFBA608D
:103D70007B600346FB810B467B737B68002B01D184
:103D80000E237BE07B7B072B04D07B7B082B01D0B1
:103D9000072373E0BB68002B02D0BB68042B01D95A
:103DA00007236BE00023FB777A7BFB8911461846DB
:103DB000FFF784FC03467B617B69002B0BD17A7B88
:103DC000F98907F114031846FFF70EFD7B69002BF4
:103DD00009D1112352E07B691B7A1A46BB689342D2
:103DE00001D00F234AE07B695B7AFF2B12D17C69FB
:103DF000B968244800F057FC034663727B695B7A1C
:103E0000FF2B05D17B691846FFF704FC112335E031
:103E10000123FB777B69BA68D2B21A727B695B7A3D
:103E20001946184800F090FCB861BB69002B0ED110
:103E3000154A164BD31ADB081B0443F001007B69BB
:103E40005B7A1A461249FAF75AFA032316E0BB685E
:103E50009BB2797BBA697868FFF704FDFB7F002B82
:103E60000BD07B7B082B08D17B681B889B009AB208
:103E70007B685B68063A92B29A8000231846243722
:103E8000BD4690BDC83A00205CAD0300ACAC030059
:103E9000D499030080B584B000AF03460A46FB8086
:103EA00013467B717A79FB8811461846FFF706FCAA
:103EB000F860FB68002B01D1052303E0F868FFF7E9
:103EC0006FFC002318461037BD4680BD80B584B016
:103ED00000AF0346FB800B467B7113467B807B79EA
:103EE000072B04D07B79082B01D0072321E07B88A6
:103EF0001846FFF765FB034683F00103DBB2002B96
:103F000001D0072315E07A79FB8811461846FFF7A0
:103F1000D5FBF860FB68002B01D1052309E0FB68A5
:103F20007A881A80FB687A799A70F868FFF708FD3A
:103F3000034618461037BD4680BD80B584B000AF3B
:103F400003463960FB804FF6FF73FB81FB884FF619
:103F5000FF7293420ED14FF480713868F8F777F80A
:103F60000346FB81FB89B3F5807F21D14FF6FF73B8
:103F7000FB811DE0FB88FF2B1AD8FB8819463868A7
:103F8000F8F70BF80346002B14BF01230023DBB224
:103F900083F00103DBB27B737B7B03F001037B7354
:103FA0007B7B002B01D0FB8801E04FF6FF73FB8188
:103FB000FB8918461037BD4680BD80B582B000AF82
:103FC00003463960FB80FB88FF2B04D8FB88194629
:103FD0003868F8F706F800BF0837BD4680BD000016
:103FE00080B582B000AF0346FB80FB8804491846C9
:103FF000FFF7A3FF034618460837BD4680BD00BF44
:104000000C3B002080B584B000AF0346FB80FB88EA
:104010004FF6FF72934201D100230DE0FB8808495F
:104020001846FFF78AFF0346FB81FA89FB889A420C
:104030000CBF01230023DBB218461037BD4680BDFC
:104040002C3B002080B582B000AF0346FB80FB888C
:1040500006491846FFF7B1FFFB8805491846FFF7E8
:10406000ACFF00BF0837BD4680BD00BF0C3B002041
:104070002C3B002080B582B000AF0346FB80FB885C
:10408000FF2B06D8FB8819460448F7F7C3FF034601
:1040900000E0002318460837BD4680BD0C3B0020D9
:1040A00080B582B000AF0346FB80FB88FF2B06D8AB
:1040B000FB8819460448F7F7ADFF034600E00023EC
:1040C00018460837BD4680BD2C3B002080B584B023
:1040D00000AF03463960FB80FB884FF6FF729342C6
:1040E00003D0FB8801339BB200E00023FB810CE08E
:1040F000FB8919463868F7F78DFF0346002B01D07E
:10410000FB8907E0FB890133FB81FB89FF2BEFD99A
:104110004FF6FF7318461037BD4680BD80B582B09C
:1041200000AF0346FB80FB8811491846FFF7CEFF1E
:104130000346FB8012E0FB881846FFF7B1FF0346F9
:1041400083F00103DBB2002B01D0FB880CE0FB887D
:1041500007491846FFF7BAFF0346FB80FB884FF676
:10416000FF729342E7D1FB8818460837BD4680BDF1
:104170000C3B002080B582B000AF0346FB80FB887B
:1041800004491846FFF7A2FF034618460837BD4604
:1041900080BD00BF2C3B002080B584B000AF7860AC
:1041A0000023FB6008E0094AFB6852F82330786876
:1041B0009847FB680133FB60054B1B781A46FB6888
:1041C0009342F0DB00BF1037BD4680BD5C3B002052
:1041D000683B002080B582B000AF002300220B496D
:1041E0000B4800F073F978607B68002B02D07B6885
:1041F000052B01D1012300E0002303F00103DAB213
:10420000044B1A7000BF0837BD4680BD543B0020E8
:10421000583B00204D3B002080B590B000AF786047
:10422000012387F83F307B689B881846FEF7D6FC51
:1042300003461A467B685A807B681B78083B032B31
:1042400000F2D98001A252F823F000BF5D420300C2
:10425000E942030021430300A74303007B685B7A24
:10426000002B28D16E4B1B68002B10D07B68DA68BE
:104270006B4B1B689A420AD1694B00221A607B681B
:104280009A88684B1A807B680022DA60B5E0664B3A
:104290001B78002B00F0B1807B689A88614B1B88EB
:1042A0009A4240F0AA807B681B7A062B40F0A580DA
:1042B000FFF790FFA1E07B685B7A012B40F09D80C7
:1042C000594B1B78002B00F098807B689A88554BDF
:1042D0001B889A4240F091807B681B7A062B40F045
:1042E0008C80FFF777FF88E07B685B7A002B40F0DB
:1042F00086804B4B1B68002B00F081807B68DA685E
:10430000474B1B689A427AD1454B00221A60474BB3
:104310001B68013B454A13607B680022DA606EE04F
:10432000434B1B78002B31D04FF6FF70FFF756F947
:1043300003461A464FF6FF739A4227D14FF6FF7095
:10434000FFF75AF903461A464FF6FF739A421DD1FA
:10435000374B00221A7007F1240318220021184657
:1043600001F0C4FB0C2387F824304FF6FF733B8524
:104370004FF6FF73FB84002387F83F307868FFF720
:104380000BFF07F124031846FFF706FF264B1B78A7
:10439000002B36D07B689A88224B1B889A4230D1FA
:1043A000FFF718FF2DE0224B1B78002B2BD0204B62
:1043B00000221A7007F10C0318220021184601F0A0
:1043C00095FB0D233B734FF6FF733B824FF6FF7354
:1043D000FB817B689B687B617B681B7B3B76002352
:1043E00087F83F307868FFF7D7FE07F10C031846CF
:1043F000FFF7D2FE07E000BF06E000BF04E000BF09
:1044000002E000BF00E000BF97F83F30002B02D071
:104410007868FFF7C1FE00BF4037BD4680BD00BFD2
:10442000503B0020583B00204D3B0020543B0020D7
:104430004E3B002080B582B000AF78607B68002BD7
:1044400003D07868FFF7A8FE00E000BF0837BD463C
:1044500080BD80B582B000AF78607868FFF79CFEC1
:1044600000BF0837BD4680BD80B582B000AF786020
:104470007868FFF791FE00BF0837BD4680BD80B564
:1044800082B000AF78607868FFF786FE00BF08371B
:10449000BD4680BD80B582B000AF786039600A4B00
:1044A0001B7883F00103DBB2002B09D17868FEF79B
:1044B000B3F9786801F06AFA7868FDF795FD00E0D5
:1044C00000BF0837BD4680BD4C3B002090B58FB083
:1044D00000AFF860B9607A603B60504B1B7883F0A6
:1044E0000103DBB2002B01D0082393E04FF6FF70ED
:1044F000FFF774F80346FB8600233B620423FB832B
:1045000007F1140300221A605A6007F12003BB610F
:1045100007F11E0307F11402F88E0621FEF7D7FEFD
:1045200038630023FB624FF0FF33BB624FF6FF732B
:10453000FB844FF6FF73BB843B6B072B23D1052312
:1045400068E03B6B002B0FD13B6AFA6A9A4203D8B2
:104550003B6AFB62FB8EFB843B6ABA6A9A4203D9D0
:104560003B6ABB62FB8EBB84FB8E1846FFF736F8B6
:104570000346FB8607F11E0307F11402F88E06219D
:10458000FEF7A5FE38633B6B002BDAD03B6B052BA7
:10459000D7D0FB8E4FF6FF72934227D1FB8C4FF69C
:1045A000FF72934204D0BB8C4FF6FF72934202D14C
:1045B00005233B6301E000233B63FB68002B02D033
:1045C000FB68FA8C1A80BB68002B02D0BB68FA6AC1
:1045D0001A607B68002B02D07B68BA8C1A803B681B
:1045E000002B16D03B68BA6A1A6012E00C4A0D4BD9
:1045F000D31ADB081B0443F00104386BF9F7BEF94A
:1046000003461A46FB8E08492046F9F78BFE032322
:104610003B633B6B18463C37BD4690BD4C3B00208E
:104620002CAD0300ACAC0300149C030080B584B037
:1046300000AF7860396039687868F7F7AEFC0346F8
:10464000002B14BF01230023DBB283F00103DBB294
:10465000FB73FB7B03F00103FB73BFF35F8FFB7BFB
:1046600018461037BD4680BD80B582B000AF786077
:104670003960BFF35F8F39687868F7F7B2FC00BF25
:104680000837BD4680BD80B582B000AF7860396024
:10469000BFF35F8F39687868F7F7BCFC03461846AC
:1046A0000837BD4680BD80B584B000AF7860396002
:1046B0007B68002B07D07B681B68002B03D07B68CE
:1046C0005B68002B01D1FF233AE0FF23FB7300233B
:1046D000BB732FE07B685B68BA7B11461846FFF717
:1046E000A5FF0346002B0ED0FB7BFF2B01D1BB7B2C
:1046F000FB73BA7BFB7BD31A01331A463B689342A8
:1047000015D1FB7B1CE0FB7BFF2B10D0FB7B7B736D
:1047100007E07B7B1946786800F044F87B7B013327
:104720007B737A7BBB7B9A42F3D3FF23FB73BB7B08
:104730000133BB73BA7B7B689B689A42CAD3FF2361
:1047400018461037BD4680BD80B582B000AF786096
:104750000B46FB707B68002B07D07B681B68002B27
:1047600003D07B685B68002B01D1002316E0FB7847
:10477000FF2B12D07B685B68FA7811461846FFF76A
:1047800082FF0346002B08D07B681A68FB787968A3
:10479000C96801FB03F3134400E0002318460837FF
:1047A000BD4680BD80B582B000AF78600B46FB701F
:1047B0007B68002B1BD07B681B68002B17D07B68A5
:1047C0005B68002B13D0FB78FF2B10D07B685B68F5
:1047D000FA7811461846FFF756FF0346002B06D01D
:1047E0007B685B68FA7811461846FFF73DFF00BF0B
:1047F0000837BD4680BD7EDF704700BF18467FDFAB
:10480000704700BF184686DF704700BF184600009B
:1048100080B582B000AF0346FB80064B1A78FB8858
:1048200011461846FCF7A8FE034618460837BD4651
:1048300080BD00BFF02B002080B582B000AF0346E2
:10484000FB80064B1A78FB8811461846FCF794FE4D
:10485000034618460837BD4680BD00BFF12B002037
:1048600080B582B000AF0346FB80064B1A78FB8808
:1048700011461846FCF780FE034618460837BD4629
:1048800080BD00BFF22B002080B582B000AF034690
:10489000FB80064B1A78FB8811461846FCF76CFE25
:1048A000034618460837BD4680BD00BFF32B0020E5
:1048B00080B584B000AF78607B685B881846FEF7EF
:1048C000E5F803461A467B689A800023FB6005E002
:1048D000064B78689847FB680133FB60FB68002B48
:1048E000F6D000BF1037BD4680BD00BF975803000B
:1048F00080B588B000AF03460A46FB8013467B7143
:1049000007F1080300221A605A609A60DA601A619F
:104910005A6101233B72FB887B817B793B7407F1F1
:1049200008031846FFF7C4FF00BF2037BD4680BD0F
:1049300080B588B000AF03463960FB8007F10803FB
:1049400000221A605A609A60DA601A615A6107237D
:104950003B72FB887B813B683B6107F1080318468B
:10496000FFF7A6FF00BF2037BD4680BD80B588B0E9
:1049700000AF0346FB8007F1080300221A605A606B
:104980009A60DA601A615A6106233B72FB887B8168
:1049900007F108031846FFF78BFF00BF2037BD461D
:1049A00080BD000090B589B000AF044608461146AE
:1049B0001A462346FB8003467B710B467B801346D9
:1049C0003B7107F1080300221A605A609A60DA60AE
:1049D0001A615A6103233B72FB887B817B793B74AC
:1049E0007B887B823B793B75074B1978FB880022DB
:1049F0001846FCF7EBFD07F108031846FFF758FFD0
:104A000000BF2437BD4690BDF02B002090B585B087
:104A100000AF0346FB800B46BB801346FB700023B0
:104A2000FB60FB881846FFF71BFF0346002B01D0F5
:104A3000012300E00223FB72FB8803F580739BB225
:104A400007211846FFF726FAF860FB68002B18D0FC
:104A5000FB68052B15D0104A104BD31ADB081B043A
:104A600043F00104F868F8F789FF03461A46FB880B
:104A70000B492046F9F756FCFB88F9681846FFF702
:104A800057FFFB78BA88F97AF888FFF78BFF00BFE9
:104A90001437BD4690BD00BF74AD0300ACAC03003D
:104AA0005CA5030080B582B000AF0346FB800B46D7
:104AB000BB801346FB70FB78BA88F8880021FFF7AB
:104AC00071FF00BF0837BD4680BD80B582B000AF22
:104AD0000346FB800B46BB801346FB70FB881846E1
:104AE000FFF796FE0346002B13D0FB881846FFF70E
:104AF000A3FE0346002B06D0FA78B988FB88184637
:104B0000FFF784FF05E0FA78B988FB881846FFF7BD
:104B1000C9FF00BF0837BD4680BD000080B582B028
:104B200000AF0346FB800B467B7113463B71164B6F
:104B300019787A79FB881846FCF748FD7B79002BB9
:104B40001DD0124B19783B79002B14BF0123002391
:104B5000DAB2FB881846FCF739FD0D4B19783B7922
:104B6000012B0CBF01230023DAB2FB881846FCF7A7
:104B70002DFD3A79FB8811461846FFF7B9FE00BFB4
:104B80000837BD4680BD00BFF02B0020F12B002070
:104B9000F22B002090B58BB002AF78600023FB6150
:104BA0007B680C331846FDF7EDFF03467B837B8B58
:104BB0004FF6FF72934207D17B681B881846FDF7BA
:104BC00065FF03467B8306E07B681B887A8B114672
:104BD0001846FEF759F87B681B8800220121184609
:104BE000FFF79CFF7B8B4FF6FF72934229D007F1B2
:104BF00008027B8B07211846FFF7A2F878617B69D2
:104C0000002B1ED1FB6834333B617B689B7D03F036
:104C10000103DBB2002B14D03B691B7C03F00103C2
:104C2000DBB2002B0BD13B6903F112027B680C3322
:104C300019461046FDF77CFF0346002B01D03B6967
:104C4000FB617B68188800230022F969FFF7DBFD10
:104C500078617B69082B0BD1214A224BD31ADB08E0
:104C60001B0443F0020320491846F9F739FB32E0F0
:104C70007B69002B1CD01A4A1A4BD31ADB081B0481
:104C800043F001047869F8F779FE03461A467B6819
:104C90001B8819467B8B00930B4614492046F9F775
:104CA00057FB7B681B8879691846FFF741FE12E0C5
:104CB0007B689B7D03F00103DBB2002B0BD0FB690B
:104CC000002B08D17B681B88002241F206011846A0
:104CD000FFF7E8FE00BF00BF2437BD4690BD00BF10
:104CE00074AD0300ACAC0300C8A5030038A60300F4
:104CF00080B588B000AF0346FB8007F10803182297
:104D00000021184600F0F2FE04233B72FB887B81F1
:104D100007F108031846FFF7CBFD00BF2037BD465B
:104D200080BD80B584B000AF78607B681B793D2B77
:104D300002D141F23D0301E04FF48853FB817B68CF
:104D40001B88F98900221846FFF7BFFE00BF103705
:104D5000BD4680BD80B588B000AF03463960FB809A
:104D600007F1080300221A605A609A60DA601A613B
:104D70005A6105233B72FB887B813B683B6107F1ED
:104D800008031846FFF794FD00BF2037BD4680BDDD
:104D900080B582B000AF78607B681B881846FCF74E
:104DA000ADFB0346012B0FD17B6818887B681B790C
:104DB00003F00103DBB2002B01D0012300E002234A
:104DC0001A460121FFF7AAFE7B681A887B68043324
:104DD00019461046FFF7BEFF00BF0837BD4680BD2D
:104DE00080B588B000AF78600B46FB7002233B7241
:104DF0007B681B887B817B685B7903F00403DBB2F3
:104E0000002B01D0012300E002233B74FB787B746C
:104E100007F108031846FFF74BFD00BF2037BD46DA
:104E200080BD000090B58BB002AF78607B681B88B6
:104E30007B8300237B77754B19787B8B0022184688
:104E4000FCF7C4FB7B685B7903F00403DBB2002B47
:104E500004D100217868FFF7C3FFD3E07B8B03F513
:104E6000807398B207F10C0301220721FEF77CFF43
:104E700078617B69002B1AD0654A664BD31ADB0830
:104E80001B0443F001047869F8F778FD03461A46DD
:104E90007B8B61492046F9F745FA7B8B7969184687
:104EA000FFF746FD00217868FFF79AFFAAE07B8BA9
:104EB0001846FDF7EBFD0346FB83FB8B4FF6FF72B5
:104EC00093422FD13B694FF6FF711846FDF7B5FDB0
:104ED0000346FB83FB8B4FF6FF72934222D0FA8B83
:104EE0007B8B11461846FDF7CFFE7B8B1846FFF7EC
:104EF000CBFC034683F00103DBB2002B12D07B8B8B
:104F00001846FFF7F5FE7B8B1846FFF7BDFC0346FE
:104F100083F00103DBB2002B04D000217868FFF797
:104F20005FFF6FE0FB8B4FF6FF72934225D1FEF7D8
:104F300029FB0346FB83FB8B4FF6FF72934214D190
:104F4000334A344BD31ADB081B0443F001033349C3
:104F50001846F9F7C5F97B8B04211846FFF7E8FCE2
:104F600000217868FFF73CFF4CE0FA8B7B8B114601
:104F70001846FDF789FE01237B777B8B03F5807351
:104F80009BB2FA8B07211846FEF7A0FF78617B6978
:104F9000002B04D101217868FFF722FF31E07B6903
:104FA000862B08D17B8B1846FFF7E0FC012178683F
:104FB000FFF716FF25E0164A164BD31ADB081B0431
:104FC00043F001047869F8F7D9FC034619467A8B57
:104FD000FB8B009313460A4611492046F9F7B8F9AE
:104FE0007B8B79691846FFF7A3FC00217868FFF7EF
:104FF000F7FE7B7F002B04D0FB8B1846FDF760FE8D
:1050000000BF00BF2437BD4690BD00BFF02B00207D
:1050100074AD0300ACAC0300A8A6030004A7030012
:1050200038A7030080B582B000AF78607B6818882D
:105030007B681B7999B27B685B79C3F30103DBB2B0
:105040001A46FFF742FD00BF0837BD4680BD80B558
:1050500082B000AF78607B681B79002B03D1786841
:10506000FFF7E0FE08E07868FFF7DCFF7B681B884D
:105070001846FBF763FD00BF00BF0837BD4680BD83
:1050800080B588B000AF78607B681B881846FFF752
:10509000D3FB034683F00103DBB2002B29D07B68EE
:1050A0001B881846FCF74EFA034683F00103DBB277
:1050B000002B08D07B681B88012241F206011846AC
:1050C000FFF7F0FC15E07B6818880C4B1B7800227A
:1050D0001946FCF77BFA02233B727B681B887B81B5
:1050E00000233B7400237B7407F108031846FFF785
:1050F000DFFB00BF2037BD4680BD00BFF02B002086
:1051000090B589B000AFBA607B600346FB810B4667
:105110007B737B68002B0DD1394A3A4BD31ADB08DD
:105120001B0443F00103384A38491846F9F7E7F8F9
:10513000032361E0FB8903F5807398B207F1140340
:1051400001220721FEF710FEF861FB69112B52D0F6
:10515000FB69002B13D02A4A2A4BD31ADB081B0405
:1051600043F00104F869F8F709FC03461A46FB8985
:1051700027492046F9F7D6F80323FB613BE0BB69DA
:1051800050220021184600F0B1FCBB697A7B1A70EE
:10519000BB6903F134027B681A607B68BA68DA6025
:1051A000BB6903F118027B681A61BB695A1C7B68F2
:1051B0005A617B68174ADA61BB6903F11102FB8906
:1051C00011461846FDF786FCF861FB69002B12D0EA
:1051D0000B4A0C4BD31ADB081B0443F00204F8699A
:1051E000F8F7CCFB03461A46FB890B492046F9F732
:1051F00099F8082300E0FB6918462437BD4690BDA6
:1052000074AD0300ACAC0300E8A8030000A80300E1
:1052100034A803006C3B002098A8030080B58EB032
:1052200000AF0346B9607A60FB81FB891846FCF742
:1052300065F9034687F8323000237B63002387F843
:10524000333007F1100320220021184600F04EFCF5
:1052500097F83230012B06D1404B1978FB89002298
:105260001846FCF7B3F997F83230002B02D143F21D
:1052700002036EE0FB891846FBF7A2FD0346002BF4
:1052800003D0892387F8333048E0BB68002B03D173
:10529000852387F8333041E0FB891846FDF7F6FB9C
:1052A00003461A464FF6FF739A421ED097F83230E3
:1052B000012B1AD1FB891846FFF7E6FA034683F063
:1052C0000103DBB2002B10D0FB891846FFF710FD5D
:1052D000FB891846FFF7D8FA034683F00103DBB2D7
:1052E000002B02D0852387F83330BB681B7803F08E
:1052F0000103DBB2002B04D17B68FB61184BFB621E
:105300000CE097F83330852B08D007F1100397F89D
:105310003210F8897A68FFF7F3FE78637B6B002B15
:1053200016D197F83230012B09D107F1100397F805
:105330003310F889BA68FFF762FA786308E007F17A
:10534000100397F83310F8890022FFF758FA7863B2
:105350007B6B18463837BD4680BD00BFF32B00205D
:105360006C3B002080B584B000AF03463960FB8001
:10537000FB8839681846FFF73EFAF860FB68042B93
:1053800001D11123FB60FB6818461037BD4680BD74
:1053900080B584B000AF03463960FB800023FB601A
:1053A0003B68002B05D0FB8839681846FFF7DAFF09
:1053B000F860FB6818461037BD4680BD80B584B0E4
:1053C00000AF03463960FB8013467B71FB881846AB
:1053D000FCF794F80346FB73FB7B012B06D1FB889B
:1053E00039681846FFF7D4FF034601E043F2020391
:1053F00018461037BD4680BD80B582B000AF7860DA
:105400007B681B88113B092B34D801A252F823F08A
:1054100039540300755403004554030051540300EC
:10542000755403007554030075540300755403004C
:105430005D540300695403007B6804331846FFF78A
:1054400070FC17E07B6804331846FFF7A1FC11E0FD
:105450007B6804331846FFF79DFB0BE07B68043341
:105460001846FFF7F4FD05E07B6804331846FFF7A4
:1054700007FE00BF00BF0837BD4680BD80B584B0C1
:1054800000AF78600023FB6005E0064B7868984722
:10549000FB680133FB60FB68002BF6D000BF1037C0
:1054A000BD4680BD3544030080B584B000AF0346DF
:1054B0003960FB8013467B710023FB733B68112B23
:1054C00002D10123FB7301E00023FB737B79002BE6
:1054D0000ED00D4B1978FA7BFB881846FCF776F84E
:1054E0000A4B1978FB8800221846FCF76FF806E093
:1054F000064B1978FA7BFB881846FCF767F800BF63
:105500001037BD4680BD00BFF72B0020F42B0020D4
:1055100090B58BB000AF0346B9607A60FB81BB6881
:10552000002B57D0BB68112B54D0BB68082B51D02F
:1055300007F1100300221A605A609A60DA601A615B
:105540005A61FB897B82FB891846FDF79FFA034667
:10555000BB82BB680D2B21D1204A214BD31ADB081B
:105560001B0443F00203FA891E491846F8F7C7FEE8
:1055700003233B747B68002B08D07B681B7803F007
:105580000103DBB2002B01D0012300E002233B76B4
:1055900000233B7741F201137B8316E00F4A104B47
:1055A000D31ADB081B0443F00104B868F8F7E6F9E6
:1055B00003461A46FB890C492046F8F7B3FE072339
:1055C0003B74BB68BB6100233B7707F110031846AF
:1055D000FFF754FF00BF2C37BD4690BD6CAD0300F4
:1055E000ACAC030008A90300C0A9030080B58AB0D1
:1055F00000AF0346B9607A60FB8105233B74FB89E9
:105600007B82FB891846FDF741FA0346BB82BB68E3
:10561000BB617B68FB6107F110031846FFF72EFFA3
:1056200000BF2837BD4680BD90B486B000AF78601B
:1056300007F10C0300221A605A609A60074B1B683E
:10564000FB607B681C4607F10C0393E8070084E8C5
:10565000070078681837BD4690BC7047B43B0020FF
:1056600090B589B000AF0446084611461A46234655
:10567000FB8003467B710B463B711346FB707B79C5
:10568000002B02D00023BB611CE007F10803184681
:10569000FFF7CAFF07F10802FB8800211846FFF751
:1056A000A5FFBB68BB61324B1B7883F00103DBB203
:1056B000002B07D07B7C83F00103DBB2002B01D0F1
:1056C000052351E03A79FB88B9691846FFF776FE61
:1056D0007861FB88002279691846FFF7E5FE7B694F
:1056E0000B2B20D00B2B04D8002B1CD0082B1AD04E
:1056F0001CE0112B06D043F20202934213D00D2B73
:1057000011D013E01B4B19787A79FB881846FBF708
:105710005DFF194B19783A79FB881846FBF756FF5D
:105720000023FB6116E07B69FB6113E0134A144B15
:10573000D31ADB081B0443F001047869F8F71EF95B
:1057400003461A46FB880F492046F8F7EBFD032372
:10575000FB6100BFFB78002B05D0FB88BA69796933
:105760001846FFF7D5FEFB6918462437BD4690BDA5
:10577000B83B0020F62B0020F52B00206CAD030079
:10578000ACAC03002CAA030080B588B000AF034680
:105790003960FB8007F10C031846FFF745FF07F15E
:1057A0000C02FB8839681846FFF720FFFDF742FB23
:1057B000F861F968FB88FA691846FFF72FFDB861B0
:1057C000FB880122B9691846FFF76EFEFA68FB886C
:1057D000B9691846FFF79CFE00BF2037BD4680BD63
:1057E00080B582B000AF78607B685A887B689B6820
:1057F00019461046FFF7C8FF00BF0837BD4680BDF9
:1058000080B584B000AF78600023FB731A4B1B682F
:10581000002B02D10123FB7322E0184B1B7803F00D
:105820000103DBB2002B14BF01230023DBB21A46B5
:105830007B681B7A9A4202DA0123FB7310E00F4B5C
:105840001B7803F00203DBB2002B14BF01230023FB
:10585000DBB21A467B685B7A9A4201DA0123FB735A
:105860007B685888F97B01230022FFF7F9FEB860B6
:1058700000BF1037BD4680BDB43B0020AC3B0020CC
:1058800080B582B000AF78607868FFF7F7FD00BFA1
:105890000837BD4680BD80B582B000AF78607B68B8
:1058A0001B78052B02D0122B04D006E07868FFF796
:1058B00097FF06E07868FFF7A3FF7868FFF7E0FF3F
:1058C00000BF00BF0837BD4680BD80B582B000AFC5
:1058D00003463960FB80FB8800211846FFF754FF20
:1058E00000BF0837BD4680BD80B584B000AF034619
:1058F0003960FB800E4B1A78FB8811461846FBF77F
:105900003BFE0346FB730B4B1A78FB881146184687
:10591000FBF732FE0346BB73FA7BB97BF8880123A1
:10592000FFF79EFEB86000BF1037BD4680BD00BFC8
:10593000F52B0020F62B002080B582B000AF7860F8
:105940007B681B78082B13DB0B2B02DD132B00D09D
:105950000EE00A4B1B78002209491846FBF79EFE11
:10596000084B1B78002208491846FBF797FE00E019
:1059700000BF00BF0837BD4680BD00BFF72B002029
:10598000CB580300F42B0020E958030080B582B007
:1059900000AF78607868FFF72FFD7868FDF70CFBA3
:1059A000084B1B78002208491846FBF777FE074B87
:1059B0001B78002206491846FBF770FE00BF083727
:1059C000BD4680BDF72B0020CB580300F42B0020F0
:1059D000E958030080B584B000AF786039607B6817
:1059E000FB60FB685B689B68BB60FB6803F10800B9
:1059F000FB685B689B791A46BB6839689847002347
:105A000018461037BD4680BD08B5074B044613B194
:105A10000021AFF30080054B1868836A03B19847F3
:105A2000204600F081F800BF0000000008AB030032
:105A300070B50D4E0D4CA41BA4100025A54209D134
:105A40000B4E0C4C00F0F2F9A41BA4100025A5424B
:105A500005D170BD56F8253098470135EEE756F868
:105A6000253098470135F2E7C82D0020C82D0020C9
:105A7000C82D0020CC2D0020044B054A1B681B6A52
:105A8000002B08BF1346D3F8EC007047F82B00201A
:105A90005C2C002082B001B901A942B14BB113784E
:105AA0000B601278101C18BF012002B0704710461E
:105AB000FBE76FF00100F8E730B50024A24201D106
:105AC000002007E0035D01340D1915F8015CAB42BD
:105AD000F4D0581B30BD10B5431E0A44914200D18A
:105AE00010BD11F8014B03F8014FF7E702440346DC
:105AF000934200D1704703F8011BF9E7034613F8FE
:105B0000012B002AFBD1181A0138704749B1FF2A2E
:105B100085BF8A2303600A704FF0FF3098BF0120D1
:105B20007047084670470000FEE700BF53B94AB906
:105B3000002908BF00281CBF4FF0FF314FF0FF3095
:105B400000F072B9ADF1080C6DE904CE00F006F872
:105B5000DDF804E0DDE9022304B070472DE9F047E9
:105B6000089E04468846002B4BD18A42154667D9C9
:105B7000B2FA82F24AB1C2F1200701FA02F320FA26
:105B800007F7954047EA030894404FEA154E230C67
:105B9000B8FBFEF71FFA85FC0EFB178843EA0843A3
:105BA00007FB0CF1994209D9EB1807F1FF3080F09F
:105BB0001B81994240F21881023F2B445B1AA4B228
:105BC000B3FBFEF00EFB103344EA034400FB0CFC75
:105BD000A44509D92C1900F1FF3380F00781A445B1
:105BE00040F2048102382C4440EA0740A4EB0C0444
:105BF00000271EB1D4400023C6E900433946BDE862
:105C0000F0878B4209D9002E00F0EB800027C6E90F
:105C1000000138463946BDE8F087B3FA83F7002F14
:105C200047D18B4202D3824200F2FA80841A61EBA0
:105C3000030301209846002EE0D0C6E90048DDE7C6
:105C400002B9FFDEB2FA82F2002A40F08F80491BCF
:105C50004FEA154E1FFA85F80127B1FBFEFC230C15
:105C60000EFB1C1143EA014308FB0CF1994207D9D2
:105C7000EB180CF1FF3002D2994200F2CD8084463D
:105C8000591AA3B2B1FBFEF00EFB101443EA044410
:105C900008FB00F8A04507D92C1900F1FF3302D208
:105CA000A04500F2B6801846A4EB080440EA0C4078
:105CB0009FE7C7F1200CBB4022FA0CFE4EEA030E10
:105CC00001FA07F420FA0CF521FA0CF34FEA1E480A
:105CD0002543B3FBF8F92C0C08FB19331FFA8EFA95
:105CE00044EA034309FB0AF49C4202FA07F200FA71
:105CF00007F10BD91EEB030309F1FF3080F0878019
:105D00009C4240F28480A9F1020973441B1BADB28E
:105D1000B3FBF8F008FB103345EA034400FB0AFA32
:105D2000A24508D91EEB040400F1FF336BD2A24553
:105D300069D90238744440EA0940A0FB0289A4EB07
:105D40000A044C45C2464B4654D351D0002E69D06C
:105D5000B1EB0A0564EB030404FA0CFCFD40FC40C3
:105D60004CEA0505C6E90054002747E7C2F12003C5
:105D700020FA03F7954001FA02F021FA03F34FEA03
:105D8000154E3843010CB3FBFEF71FFA85F80EFBE6
:105D9000173341EA034107FB08F38B4204FA02F48C
:105DA00007D9691807F1FF3C2FD28B422DD9023F4A
:105DB0002944CB1A81B2B3FBFEF00EFB103341EA4B
:105DC000034100FB08F38B4207D9691800F1FF3C3F
:105DD00017D28B4215D902382944C91A40EA07471D
:105DE0003BE73746304609E70746E7E61846FBE655
:105DF0004145ABD2B8EB020A69EB0E0201381346FB
:105E0000A4E76046E9E7184695E76746D1E781468B
:105E10007CE702382C4447E7ACF1020C2B442FE717
:105E2000384608E73746E9E6704700BFF8B500BFD7
:105E3000F8BC08BC9E467047F8B500BFF8BC08BC6B
:105E40009E4670471E1F00001C1D0000636C6F63A0
:105E50006B000000726E670001060000434C4F4368
:105E60004B0000004750494F54450000505253002A
:105E7000524E470055415254000000006188020014
:105E80005541525445000000ED9302004661746193
:105E90006C206572726F720053797374656D207235
:105EA0006573657400000000000000000000000041
:105EB0000338FDD870470000DEC0ADDEFF011EF1E3
:105EC000DEC0ADDEFE011EF10000FFFF6D656D5FFF
:105ED0006D6E677200000000303132333435363772
:105EE00038394142434445466E72665F6673746F4B
:105EF0007261676500000000705F6673000000005B
:105F0000257320636865636B206661696C65642036
:105F1000696E202573282920776974682076616C62
:105F2000756520307825782E00000000705F617064
:105F300069000000705F66732D3E705F61706900DC
:105F4000705F6465737400006C656E0061646472F8
:105F50005F69735F616C69676E6564333228737261
:105F600063290000616464725F69735F77697468B4
:105F7000696E5F626F756E647328705F66732C2044
:105F80007372632C206C656E29000000705F737261
:105F90006300000021286C656E202520705F667309
:105FA0002D3E705F666C6173685F696E666F2D3E33
:105FB00070726F6772616D5F756E697429000000A1
:105FC000616464725F69735F616C69676E65643395
:105FD0003228646573742900616464725F69735F59
:105FE000616C69676E65643332282875696E743335
:105FF000325F7429705F7372632900006164647298
:106000005F69735F77697468696E5F626F756E64EC
:106010007328705F66732C20646573742C206C6524
:106020006E290000616464725F69735F7061676507
:106030005F616C69676E656428705F66732C2070A1
:106040006167655F61646472290000006164647265
:106050005F69735F77697468696E5F626F756E649C
:106060007328705F66732C20706167655F6164647C
:10607000722C20286C656E202A20705F66732D3E7E
:10608000705F666C6173685F696E666F2D3E6572E6
:106090006173655F756E6974292900006E72665FB1
:1060A0006673746F726167655F777269746500000B
:1060B0006E72665F6673746F726167655F65726149
:1060C000736500007077725F6D676D74000000008B
:1060D000556E6B6E6F776E206572726F7220636F94
:1060E000646500004E52465F535543434553530089
:1060F0004E52465F4552524F525F5356435F48419E
:106100004E444C45525F4D495353494E47000000A1
:106110004E52465F4552524F525F534F465444458C
:10612000564943455F4E4F545F454E41424C4544AE
:10613000000000004E52465F4552524F525F494E9A
:106140005445524E414C00004E52465F4552524F0C
:10615000525F4E4F5F4D454D000000004E52465F6E
:106160004552524F525F4E4F545F464F554E44007A
:106170004E52465F4552524F525F4E4F545F5355F9
:1061800050504F52544544004E52465F4552524F74
:10619000525F494E56414C49445F504152414D0077
:1061A0004E52465F4552524F525F494E56414C49FE
:1061B000445F5354415445004E52465F4552524F3E
:1061C000525F494E56414C49445F4C454E475448F6
:1061D000000000004E52465F4552524F525F494EFA
:1061E00056414C49445F464C414753004E52465F2E
:1061F0004552524F525F494E56414C49445F4441CB
:10620000544100004E52465F4552524F525F444146
:1062100054415F53495A45004E52465F4552524FD2
:10622000525F54494D454F55540000004E52465F51
:106230004552524F525F4E554C4C00004E52465FF5
:106240004552524F525F464F5242494444454E00D8
:106250004E52465F4552524F525F494E56414C494D
:10626000445F4144445200004E52465F4552524FF3
:10627000525F4255535900004E52465F4552524FAD
:10628000525F434F4E4E5F434F554E540000000047
:106290004E52465F4552524F525F5245534F5552F0
:1062A000434553004E52465F4552524F525F4D4F49
:1062B00044554C455F4E4F545F494E495449414CFB
:1062C000495A4544000000004E52465F4552524F25
:1062D000525F4D555445585F494E49545F464149B8
:1062E0004C4544004E52465F4552524F525F4D5509
:1062F0005445585F4C4F434B5F4641494C45440021
:106300004E52465F4552524F525F4D555445585F6D
:10631000554E4C4F434B5F4641494C4544000000AD
:106320004E52465F4552524F525F4D555445585F4D
:10633000434F4E445F494E49545F4641494C4544A2
:10634000000000004E52465F4552524F525F4D4F83
:1063500044554C455F414C52454144595F494E4973
:106360005449414C495A4544000000004E52465F92
:106370004552524F525F53544F524147455F465525
:106380004C4C00004E52465F4552524F525F4150B6
:10639000495F4E4F545F494D504C454D454E544515
:1063A000440000004E52465F4552524F525F4645F0
:1063B00041545552455F4E4F545F454E41424C4506
:1063C000440000004E52465F4552524F525F494FC3
:1063D0005F50454E44494E47000000004E52465F14
:1063E0004552524F525F4452565F5457495F45528F
:1063F000525F4F56455252554E0000004E52465F76
:106400004552524F525F4452565F5457495F45526E
:10641000525F414E41434B004E52465F4552524FF0
:10642000525F4452565F5457495F4552525F444E43
:1064300041434B004E52465F4552524F525F424CD1
:10644000455F495053505F52585F504B545F545210
:10645000554E4341544544004E52465F4552524FBB
:10646000525F424C455F495053505F4348414E4E46
:10647000454C5F414C52454144595F45584953543E
:10648000530000004E52465F4552524F525F424CFD
:10649000455F495053505F4C494E4B5F444953430D
:1064A0004F4E4E4543544544000000004E52465F57
:1064B0004552524F525F424C455F495053505F50D6
:1064C0004545525F52454A4543544544000000004B
:1064D00000000000E460030001000000F060030021
:1064E000020000001061030003000000346103009B
:1064F0000400000048610300050000005C61030027
:1065000006000000706103000700000088610300BE
:1065100008000000A061030009000000B86103004A
:106520000A000000D46103000B000000EC610300CE
:106530000C000000046203000D000000186203005C
:106540000E0000002C6203000F0000003C620300FC
:106550001000000050620300110000006862030098
:106560001200000078620300130000009062030034
:1065700080000000A462030081000000C8620300E4
:1065800082000000E4620300830000000063030057
:1065900084000000206303008500000044630300C2
:1065A000860000006C630300900000008463030019
:1065B00091000000A463030092000000C463030084
:1065C00000820000DC63030001820000FC63030022
:1065D0000282000018640300008400003464030099
:1065E00001840000586403000284000084640300F6
:1065F00003840000AC640300FFFFFFFFFFFFFFFF09
:10660000FFFFFFFFFFFFFFFF000000000000000092
:106610000000D60106010000F9DC020039DD0200AD
:1066200025DD0200756172745F6C6F675F62616384
:106630006B656E6400000000617070004261636B06
:10664000656E647320666C75736865640000000095
:106650006572726F720000007761726E696E67001A
:10666000696E666F00000000646562756700000077
:106670001B5B306D000000001B5B313B33306D0055
:106680001B5B313B33316D001B5B313B33326D00A3
:106690001B5B313B33336D001B5B313B33346D008F
:1066A0001B5B313B33356D001B5B313B33366D007B
:1066B0001B5B313B33376D0025734C6F6773206470
:1066C000726F70706564202825642925730D0A0097
:1066D000257300003C25733E2025733A20000000FE
:1066E0000D0A000020253032780000002020200014
:1066F0007C0000002563000020000000D559030045
:10670000D5590300D5590300537461636B206F762C
:106710006572666C6F772064657465637465642E5A
:10672000000000006E72665F73646800010000077D
:1067300060AC030068AC03000800000068AC030014
:1067400080AC03000800000080AC030090AC0300A4
:10675000080000006E72665F7364685F626C6500BB
:1067600073645F626C655F6366675F736574282935
:106770002072657475726E65642025732077686574
:106780006E20617474656D7074696E6720746F201B
:1067900073657420424C455F434F4E4E5F434647FE
:1067A0005F4741502E00000073645F626C655F6359
:1067B00066675F73657428292072657475726E65EB
:1067C00064202573207768656E20617474656D7030
:1067D00074696E6720746F2073657420424C455F46
:1067E0004741505F4346475F524F4C455F434F55CB
:1067F0004E542E0073645F626C655F6366675F73FF
:10680000657428292072657475726E65642025731D
:10681000207768656E20617474656D7074696E6749
:1068200020746F2073657420424C455F434F4E4E79
:106830005F4346475F474154542E000073645F62D4
:106840006C655F6366675F73657428292072657481
:1068500075726E6564202573207768656E2061749B
:1068600074656D7074696E6720746F207365742031
:10687000424C455F434F4D4D4F4E5F4346475F5639
:10688000535F555549442E0073645F626C655F63C6
:1068900066675F73657428292072657475726E650A
:1068A00064202573207768656E20617474656D704F
:1068B00074696E6720746F2073657420424C455F65
:1068C00047415454535F4346475F415454525F54C9
:1068D00041425F53495A452E0000000073645F62D5
:1068E0006C655F6366675F736574282920726574E1
:1068F00075726E6564202573207768656E206174FB
:1069000074656D7074696E6720746F207365742090
:10691000424C455F47415454535F4346475F53459C
:1069200052564943455F4348414E4745442E000077
:10693000496E73756666696369656E742052414D70
:1069400020616C6C6F636174656420666F72207483
:10695000686520536F66744465766963652E000030
:106960004368616E6765207468652052414D2073ED
:1069700074617274206C6F636174696F6E206672EB
:106980006F6D203078257820746F20307825782E30
:10699000000000004D6178696D756D2052414D20F9
:1069A00073697A6520666F72206170706C696361CB
:1069B00074696F6E20697320307825782E0000008E
:1069C00073645F626C655F656E61626C6528292027
:1069D00072657475726E65642025732E0000000068
:1069E0002CAC03004CAC0300080000006E72665F24
:1069F0007364685F736F63001CAC03002CAC03000E
:106A000008000000637C777BF26B6FC53001672B59
:106A1000FED7AB76CA82C97DFA5947F0ADD4A2AF92
:106A20009CA472C0B7FD9326363FF7CC34A5E5F1A0
:106A300071D8311504C723C31896059A071280E24E
:106A4000EB27B27509832C1A1B6E5AA0523BD6B3A2
:106A500029E32F8453D100ED20FCB15B6ACBBE3912
:106A60004A4C58CFD0EFAAFB434D338545F9027FFE
:106A7000503C9FA851A3408F929D38F5BCB6DA21B7
:106A800010FFF3D2CD0C13EC5F974417C4A77E3DE3
:106A9000645D197360814FDC222A908846EEB81439
:106AA000DE5E0BDBE0323A0A4906245CC2D3AC62FC
:106AB0009195E479E7C8376D8DD54EA96C56F4EA07
:106AC000657AAE08BA78252E1CA6B4C6E8DD741F18
:106AD0004BBD8B8A703EB5664803F60E613557B9DB
:106AE00086C11D9EE1F8981169D98E949B1E87E995
:106AF000CE5528DF8CA1890DBFE6426841992D0F44
:106B0000B054BB16C66363A5F87C7C84EE77779996
:106B1000F67B7B8DFFF2F20DD66B6BBDDE6F6FB136
:106B200091C5C5546030305002010103CE6767A99A
:106B3000562B2B7DE7FEFE19B5D7D7624DABABE6E2
:106B4000EC76769A8FCACA451F82829D89C9C94050
:106B5000FA7D7D87EFFAFA15B25959EB8E4747C98E
:106B6000FBF0F00B41ADADECB3D4D4675FA2A2FD56
:106B700045AFAFEA239C9CBF53A4A4F7E47272967E
:106B80009BC0C05B75B7B7C2E1FDFD1C3D9393AEE2
:106B90004C26266A6C36365A7E3F3F41F5F7F7029F
:106BA00083CCCC4F6834345C51A5A5F4D1E5E534F1
:106BB000F9F1F108E2717193ABD8D87362313153B6
:106BC0002A15153F0804040C95C7C75246232365B0
:106BD0009DC3C35E30181828379696A10A05050F85
:106BE0002F9A9AB50E070709241212361B80809B34
:106BF000DFE2E23DCDEBEB264E2727697FB2B2CD37
:106C0000EA75759F1209091B1D83839E582C2C74ED
:106C1000341A1A2E361B1B2DDC6E6EB2B45A5AEE85
:106C20005BA0A0FBA45252F6763B3B4DB7D6D66193
:106C30007DB3B3CE5229297BDDE3E33E5E2F2F7176
:106C400013848497A65353F5B9D1D168000000008E
:106C5000C1EDED2C40202060E3FCFC1F79B1B1C8F0
:106C6000B65B5BEDD46A6ABE8DCBCB4667BEBED940
:106C70007239394B944A4ADE984C4CD4B05858E893
:106C800085CFCF4ABBD0D06BC5EFEF2A4FAAAAE57C
:106C9000EDFBFB16864343C59A4D4DD766333355FE
:106CA000118585948A4545CFE9F9F9100402020659
:106CB000FE7F7F81A05050F0783C3C44259F9FBAD6
:106CC0004BA8A8E3A25151F35DA3A3FE804040C0AE
:106CD000058F8F8A3F9292AD219D9DBC70383848B8
:106CE000F1F5F50463BCBCDF77B6B6C1AFDADA758F
:106CF0004221216320101030E5FFFF1AFDF3F30E4F
:106D0000BFD2D26D81CDCD4C180C0C142613133587
:106D1000C3ECEC2FBE5F5FE1359797A2884444CC6B
:106D20002E17173993C4C45755A7A7F2FC7E7E824D
:106D30007A3D3D47C86464ACBA5D5DE73219192BF2
:106D4000E6737395C06060A0198181989E4F4FD102
:106D5000A3DCDC7F44222266542A2A7E3B9090AB3F
:106D60000B8888838C4646CAC7EEEE296BB8B8D329
:106D70002814143CA7DEDE79BC5E5EE2160B0B1D08
:106D8000ADDBDB76DBE0E03B64323256743A3A4E00
:106D9000140A0A1E924949DB0C06060A4824246C90
:106DA000B85C5CE49FC2C25DBDD3D36E43ACACEFB4
:106DB000C46262A6399191A8319595A4D3E4E437D1
:106DC000F279798BD5E7E7328BC8C8436E373759EC
:106DD000DA6D6DB7018D8D8CB1D5D5649C4E4ED2D8
:106DE00049A9A9E0D86C6CB4AC5656FAF3F4F40790
:106DF000CFEAEA25CA6565AFF47A7A8E47AEAEE986
:106E0000100808186FBABAD5F07878884A25256F27
:106E10005C2E2E72381C1C2457A6A6F173B4B4C77E
:106E200097C6C651CBE8E823A1DDDD7CE874749CED
:106E30003E1F1F21964B4BDD61BDBDDC0D8B8B864C
:106E40000F8A8A85E07070907C3E3E4271B5B5C471
:106E5000CC6666AA904848D806030305F7F6F60103
:106E60001C0E0E12C26161A36A35355FAE5757F929
:106E700069B9B9D01786869199C1C1583A1D1D27A5
:106E8000279E9EB9D9E1E138EBF8F8132B9898B317
:106E900022111133D26969BBA9D9D970078E8E89A5
:106EA000339494A72D9B9BB63C1E1E221587879278
:106EB000C9E9E92087CECE49AA5555FF5028287840
:106EC000A5DFDF7A038C8C8F59A1A1F8098989800D
:106ED0001A0D0D1765BFBFDAD7E6E631844242C608
:106EE000D06868B8824141C3299999B05A2D2D774D
:106EF0001E0F0F117BB0B0CBA85454FC6DBBBBD69A
:106F00002C16163AA5C6636384F87C7C99EE7777D5
:106F10008DF67B7B0DFFF2F2BDD66B6BB1DE6F6F32
:106F20005491C5C55060303003020101A9CE676796
:106F30007D562B2B19E7FEFE62B5D7D7E64DABABDE
:106F40009AEC7676458FCACA9D1F82824089C9C94C
:106F500087FA7D7D15EFFAFAEBB25959C98E47478A
:106F60000BFBF0F0EC41ADAD67B3D4D4FD5FA2A252
:106F7000EA45AFAFBF239C9CF753A4A496E472727A
:106F80005B9BC0C0C275B7B71CE1FDFDAE3D9393DE
:106F90006A4C26265A6C3636417E3F3F02F5F7F79B
:106FA0004F83CCCC5C683434F451A5A534D1E5E5ED
:106FB00008F9F1F193E2717173ABD8D853623131B2
:106FC0003F2A15150C0804045295C7C765462323AC
:106FD0005E9DC3C328301818A13796960F0A050581
:106FE000B52F9A9A090E0707362412129B1B808030
:106FF0003DDFE2E226CDEBEB694E2727CD7FB2B233
:107000009FEA75751B1209099E1D838374582C2CE9
:107010002E341A1A2D361B1BB2DC6E6EEEB45A5A81
:10702000FB5BA0A0F6A452524D763B3B61B7D6D68F
:10703000CE7DB3B37B5229293EDDE3E3715E2F2F72
:1070400097138484F5A6535368B9D1D1000000008A
:107050002CC1EDED604020201FE3FCFCC879B1B1EC
:10706000EDB65B5BBED46A6A468DCBCBD967BEBE3C
:107070004B723939DE944A4AD4984C4CE8B058588F
:107080004A85CFCF6BBBD0D02AC5EFEFE54FAAAA78
:1070900016EDFBFBC5864343D79A4D4D55663333FA
:1070A00094118585CF8A454510E9F9F90604020255
:1070B00081FE7F7FF0A0505044783C3CBA259F9FD2
:1070C000E34BA8A8F3A25151FE5DA3A3C0804040AA
:1070D0008A058F8FAD3F9292BC219D9D48703838B4
:1070E00004F1F5F5DF63BCBCC177B6B675AFDADA8B
:1070F00063422121302010101AE5FFFF0EFDF3F34B
:107100006DBFD2D24C81CDCD14180C0C3526131383
:107110002FC3ECECE1BE5F5FA2359797CC88444467
:10712000392E17175793C4C4F255A7A782FC7E7E49
:10713000477A3D3DACC86464E7BA5D5D2B321919EE
:1071400095E67373A0C0606098198181D19E4F4FFE
:107150007FA3DCDC664422227E542A2AAB3B90903B
:10716000830B8888CA8C464629C7EEEED36BB8B825
:107170003C28141479A7DEDEE2BC5E5E1D160B0B04
:1071800076ADDBDB3BDBE0E0566432324E743A3AFC
:107190001E140A0ADB9249490A0C06066C4824248C
:1071A000E4B85C5C5D9FC2C26EBDD3D3EF43ACACB0
:1071B000A6C46262A8399191A431959537D3E4E4CD
:1071C0008BF2797932D5E7E7438BC8C8596E3737E8
:1071D000B7DA6D6D8C018D8D64B1D5D5D29C4E4ED4
:1071E000E049A9A9B4D86C6CFAAC565607F3F4F48C
:1071F00025CFEAEAAFCA65658EF47A7AE947AEAE82
:1072000018100808D56FBABA88F078786F4A252523
:10721000725C2E2E24381C1CF157A6A6C773B4B47A
:107220005197C6C623CBE8E87CA1DDDD9CE87474E9
:10723000213E1F1FDD964B4BDC61BDBD860D8B8B48
:10724000850F8A8A90E07070427C3E3EC471B5B56D
:10725000AACC6666D89048480506030301F7F6F6FF
:10726000121C0E0EA3C261615F6A3535F9AE575725
:10727000D069B9B9911786865899C1C1273A1D1DA1
:10728000B9279E9E38D9E1E113EBF8F8B32B989813
:1072900033221111BBD2696970A9D9D989078E8EA1
:1072A000A7339494B62D9B9B223C1E1E9215878774
:1072B00020C9E9E94987CECEFFAA5555785028283C
:1072C0007AA5DFDF8F038C8CF859A1A18009898909
:1072D000171A0D0DDA65BFBF31D7E6E6C684424204
:1072E000B8D06868C3824141B0299999775A2D2D49
:1072F000111E0F0FCB7BB0B0FCA85454D66DBBBB96
:107300003A2C161663A5C6637C84F87C7799EE77D1
:107310007B8DF67BF20DFFF26BBDD66B6FB1DE6F2E
:10732000C55491C5305060300103020167A9CE6792
:107330002B7D562BFE19E7FED762B5D7ABE64DABDA
:10734000769AEC76CA458FCA829D1F82C94089C948
:107350007D87FA7DFA15EFFA59EBB25947C98E4786
:10736000F00BFBF0ADEC41ADD467B3D4A2FD5FA24E
:10737000AFEA45AF9CBF239CA4F753A47296E47276
:10738000C05B9BC0B7C275B7FD1CE1FD93AE3D93DA
:10739000266A4C26365A6C363F417E3FF702F5F797
:1073A000CC4F83CC345C6834A5F451A5E534D1E5E9
:1073B000F108F9F17193E271D873ABD831536231AE
:1073C000153F2A15040C0804C75295C723654623A8
:1073D000C35E9DC31828301896A13796050F0A057D
:1073E0009AB52F9A07090E0712362412809B1B802C
:1073F000E23DDFE2EB26CDEB27694E27B2CD7FB22F
:10740000759FEA75091B1209839E1D832C74582CE5
:107410001A2E341A1B2D361B6EB2DC6E5AEEB45A7D
:10742000A0FB5BA052F6A4523B4D763BD661B7D68B
:10743000B3CE7DB3297B5229E33EDDE32F715E2F6E
:107440008497138453F5A653D168B9D10000000086
:10745000ED2CC1ED20604020FC1FE3FCB1C879B1E8
:107460005BEDB65B6ABED46ACB468DCBBED967BE38
:10747000394B72394ADE944A4CD4984C58E8B0588B
:10748000CF4A85CFD06BBBD0EF2AC5EFAAE54FAA74
:10749000FB16EDFB43C586434DD79A4D33556633F6
:1074A0008594118545CF8A45F910E9F90206040251
:1074B0007F81FE7F50F0A0503C44783C9FBA259FCE
:1074C000A8E34BA851F3A251A3FE5DA340C08040A6
:1074D0008F8A058F92AD3F929DBC219D38487038B0
:1074E000F504F1F5BCDF63BCB6C177B6DA75AFDA87
:1074F0002163422110302010FF1AE5FFF30EFDF347
:10750000D26DBFD2CD4C81CD0C14180C133526137F
:10751000EC2FC3EC5FE1BE5F97A2359744CC884463
:1075200017392E17C45793C4A7F255A77E82FC7E45
:107530003D477A3D64ACC8645DE7BA5D192B3219EA
:107540007395E67360A0C060819819814FD19E4FFA
:10755000DC7FA3DC226644222A7E542A90AB3B9037
:1075600088830B8846CA8C46EE29C7EEB8D36BB821
:10757000143C2814DE79A7DE5EE2BC5E0B1D160B00
:10758000DB76ADDBE03BDBE0325664323A4E743AF8
:107590000A1E140A49DB9249060A0C06246C482488
:1075A0005CE4B85CC25D9FC2D36EBDD3ACEF43ACAC
:1075B00062A6C46291A8399195A43195E437D3E4C9
:1075C000798BF279E732D5E7C8438BC837596E37E4
:1075D0006DB7DA6D8D8C018DD564B1D54ED29C4ED0
:1075E000A9E049A96CB4D86C56FAAC56F407F3F488
:1075F000EA25CFEA65AFCA657A8EF47AAEE947AE7E
:1076000008181008BAD56FBA7888F078256F4A251F
:107610002E725C2E1C24381CA6F157A6B4C773B476
:10762000C65197C6E823CBE8DD7CA1DD749CE874E5
:107630001F213E1F4BDD964BBDDC61BD8B860D8B44
:107640008A850F8A7090E0703E427C3EB5C471B569
:1076500066AACC6648D8904803050603F601F7F6FB
:107660000E121C0E61A3C261355F6A3557F9AE5721
:10767000B9D069B986911786C15899C11D273A1D9D
:107680009EB9279EE138D9E1F813EBF898B32B980F
:107690001133221169BBD269D970A9D98E89078E9D
:1076A00094A733949BB62D9B1E223C1E8792158770
:1076B000E920C9E9CE4987CE55FFAA552878502838
:1076C000DF7AA5DF8C8F038CA1F859A18980098905
:1076D0000D171A0DBFDA65BFE631D7E642C6844200
:1076E00068B8D06841C3824199B029992D775A2D45
:1076F0000F111E0FB0CB7BB054FCA854BBD66DBB92
:10770000163A2C166363A5C67C7C84F8777799EECD
:107710007B7B8DF6F2F20DFF6B6BBDD66F6FB1DE2A
:10772000C5C5549130305060010103026767A9CE8E
:107730002B2B7D56FEFE19E7D7D762B5ABABE64DD6
:1077400076769AECCACA458F82829D1FC9C9408944
:107750007D7D87FAFAFA15EF5959EBB24747C98E82
:10776000F0F00BFBADADEC41D4D467B3A2A2FD5F4A
:10777000AFAFEA459C9CBF23A4A4F753727296E472
:10778000C0C05B9BB7B7C275FDFD1CE19393AE3DD6
:1077900026266A4C36365A6C3F3F417EF7F702F593
:1077A000CCCC4F8334345C68A5A5F451E5E534D1E5
:1077B000F1F108F9717193E2D8D873AB31315362AA
:1077C00015153F2A04040C08C7C7529523236546A4
:1077D000C3C35E9D181828309696A13705050F0A79
:1077E0009A9AB52F0707090E1212362480809B1B28
:1077F000E2E23DDFEBEB26CD2727694EB2B2CD7F2B
:1078000075759FEA09091B1283839E1D2C2C7458E1
:107810001A1A2E341B1B2D366E6EB2DC5A5AEEB479
:10782000A0A0FB5B5252F6A43B3B4D76D6D661B787
:10783000B3B3CE7D29297B52E3E33EDD2F2F715E6A
:10784000848497135353F5A6D1D168B90000000082
:10785000EDED2CC120206040FCFC1FE3B1B1C879E4
:107860005B5BEDB66A6ABED4CBCB468DBEBED96734
:1078700039394B724A4ADE944C4CD4985858E8B087
:10788000CFCF4A85D0D06BBBEFEF2AC5AAAAE54F70
:10789000FBFB16ED4343C5864D4DD79A33335566F2
:1078A000858594114545CF8AF9F910E9020206044D
:1078B0007F7F81FE5050F0A03C3C44789F9FBA25CA
:1078C000A8A8E34B5151F3A2A3A3FE5D4040C080A2
:1078D0008F8F8A059292AD3F9D9DBC2138384870AC
:1078E000F5F504F1BCBCDF63B6B6C177DADA75AF83
:1078F0002121634210103020FFFF1AE5F3F30EFD43
:10790000D2D26DBFCDCD4C810C0C1418131335267B
:10791000ECEC2FC35F5FE1BE9797A2354444CC885F
:107920001717392EC4C45793A7A7F2557E7E82FC41
:107930003D3D477A6464ACC85D5DE7BA19192B32E6
:10794000737395E66060A0C0818198194F4FD19EF6
:10795000DCDC7FA3222266442A2A7E549090AB3B33
:107960008888830B4646CA8CEEEE29C7B8B8D36B1D
:1079700014143C28DEDE79A75E5EE2BC0B0B1D16FC
:10798000DBDB76ADE0E03BDB323256643A3A4E74F4
:107990000A0A1E144949DB9206060A0C24246C4884
:1079A0005C5CE4B8C2C25D9FD3D36EBDACACEF43A8
:1079B0006262A6C49191A8399595A431E4E437D3C5
:1079C00079798BF2E7E732D5C8C8438B3737596EE0
:1079D0006D6DB7DA8D8D8C01D5D564B14E4ED29CCC
:1079E000A9A9E0496C6CB4D85656FAACF4F407F384
:1079F000EAEA25CF6565AFCA7A7A8EF4AEAEE9477A
:107A000008081810BABAD56F787888F025256F4A1B
:107A10002E2E725C1C1C2438A6A6F157B4B4C77372
:107A2000C6C65197E8E823CBDDDD7CA174749CE8E1
:107A30001F1F213E4B4BDD96BDBDDC618B8B860D40
:107A40008A8A850F707090E03E3E427CB5B5C47165
:107A50006666AACC4848D89003030506F6F601F7F7
:107A60000E0E121C6161A3C235355F6A5757F9AE1D
:107A7000B9B9D06986869117C1C158991D1D273A99
:107A80009E9EB927E1E138D9F8F813EB9898B32B0B
:107A9000111133226969BBD2D9D970A98E8E890799
:107AA0009494A7339B9BB62D1E1E223C878792156C
:107AB000E9E920C9CECE49875555FFAA2828785034
:107AC000DFDF7AA58C8C8F03A1A1F8598989800901
:107AD0000D0D171ABFBFDA65E6E631D74242C684FC
:107AE0006868B8D04141C3829999B0292D2D775A41
:107AF0000F0F111EB0B0CB7B5454FCA8BBBBD66D8E
:107B000016163A2C52096AD53036A538BF40A39EC6
:107B100081F3D7FB7CE339829B2FFF87348E43446C
:107B2000C4DEE9CB547B9432A6C2233DEE4C950BC8
:107B300042FAC34E082EA16628D924B2765BA24928
:107B40006D8BD12572F8F66486689816D4A45CCC47
:107B50005D65B6926C704850FDEDB9DA5E1546571A
:107B6000A78D9D8490D8AB008CBCD30AF7E4580550
:107B7000B8B34506D02C1E8FCA3F0F02C1AFBD035C
:107B800001138A6B3A9111414F67DCEA97F2CFCE2D
:107B9000F0B4E67396AC7422E7AD3585E2F937E8C8
:107BA0001C75DF6E47F11A711D29C5896FB7620E0A
:107BB000AA18BE1BFC563E4BC6D279209ADBC0FEEB
:107BC00078CD5AF41FDDA8338807C731B112105998
:107BD0002780EC5F60517FA919B54A0D2DE57A9F8A
:107BE00093C99CEFA0E03B4DAE2AF5B0C8EBBB3C7F
:107BF00083539961172B047EBA77D626E169146303
