Archive member included to satisfy reference by file (symbol)

c:/program files (x86)/gnu tools arm embedded/7 2018-q2-update/bin/../lib/gcc/arm-none-eabi/7.3.1/../../../../arm-none-eabi/lib/thumb/v7e-m/fpv4-sp/hard\libc_nano.a(lib_a-exit.o)
                              c:/program files (x86)/gnu tools arm embedded/7 2018-q2-update/bin/../lib/gcc/arm-none-eabi/7.3.1/../../../../arm-none-eabi/lib/thumb/v7e-m/fpv4-sp/hard/crt0.o (exit)
c:/program files (x86)/gnu tools arm embedded/7 2018-q2-update/bin/../lib/gcc/arm-none-eabi/7.3.1/../../../../arm-none-eabi/lib/thumb/v7e-m/fpv4-sp/hard\libc_nano.a(lib_a-impure.o)
                              c:/program files (x86)/gnu tools arm embedded/7 2018-q2-update/bin/../lib/gcc/arm-none-eabi/7.3.1/../../../../arm-none-eabi/lib/thumb/v7e-m/fpv4-sp/hard\libc_nano.a(lib_a-exit.o) (_global_impure_ptr)
c:/program files (x86)/gnu tools arm embedded/7 2018-q2-update/bin/../lib/gcc/arm-none-eabi/7.3.1/../../../../arm-none-eabi/lib/thumb/v7e-m/fpv4-sp/hard\libc_nano.a(lib_a-init.o)
                              c:/program files (x86)/gnu tools arm embedded/7 2018-q2-update/bin/../lib/gcc/arm-none-eabi/7.3.1/../../../../arm-none-eabi/lib/thumb/v7e-m/fpv4-sp/hard/crt0.o (__libc_init_array)
c:/program files (x86)/gnu tools arm embedded/7 2018-q2-update/bin/../lib/gcc/arm-none-eabi/7.3.1/../../../../arm-none-eabi/lib/thumb/v7e-m/fpv4-sp/hard\libc_nano.a(lib_a-locale.o)
                              _build/nrf52832_xxaa/nrf_log_str_formatter.c.o (__locale_ctype_ptr)
c:/program files (x86)/gnu tools arm embedded/7 2018-q2-update/bin/../lib/gcc/arm-none-eabi/7.3.1/../../../../arm-none-eabi/lib/thumb/v7e-m/fpv4-sp/hard\libc_nano.a(lib_a-mbtowc_r.o)
                              c:/program files (x86)/gnu tools arm embedded/7 2018-q2-update/bin/../lib/gcc/arm-none-eabi/7.3.1/../../../../arm-none-eabi/lib/thumb/v7e-m/fpv4-sp/hard\libc_nano.a(lib_a-locale.o) (__ascii_mbtowc)
c:/program files (x86)/gnu tools arm embedded/7 2018-q2-update/bin/../lib/gcc/arm-none-eabi/7.3.1/../../../../arm-none-eabi/lib/thumb/v7e-m/fpv4-sp/hard\libc_nano.a(lib_a-memcmp.o)
                              _build/nrf52832_xxaa/nrf_twi_mngr.c.o (memcmp)
c:/program files (x86)/gnu tools arm embedded/7 2018-q2-update/bin/../lib/gcc/arm-none-eabi/7.3.1/../../../../arm-none-eabi/lib/thumb/v7e-m/fpv4-sp/hard\libc_nano.a(lib_a-memcpy-stub.o)
                              _build/nrf52832_xxaa/nrf_log_frontend.c.o (memcpy)
c:/program files (x86)/gnu tools arm embedded/7 2018-q2-update/bin/../lib/gcc/arm-none-eabi/7.3.1/../../../../arm-none-eabi/lib/thumb/v7e-m/fpv4-sp/hard\libc_nano.a(lib_a-memset.o)
                              c:/program files (x86)/gnu tools arm embedded/7 2018-q2-update/bin/../lib/gcc/arm-none-eabi/7.3.1/../../../../arm-none-eabi/lib/thumb/v7e-m/fpv4-sp/hard/crt0.o (memset)
c:/program files (x86)/gnu tools arm embedded/7 2018-q2-update/bin/../lib/gcc/arm-none-eabi/7.3.1/../../../../arm-none-eabi/lib/thumb/v7e-m/fpv4-sp/hard\libc_nano.a(lib_a-strcmp.o)
                              c:/program files (x86)/gnu tools arm embedded/7 2018-q2-update/bin/../lib/gcc/arm-none-eabi/7.3.1/../../../../arm-none-eabi/lib/thumb/v7e-m/fpv4-sp/hard\libc_nano.a(lib_a-locale.o) (strcmp)
c:/program files (x86)/gnu tools arm embedded/7 2018-q2-update/bin/../lib/gcc/arm-none-eabi/7.3.1/../../../../arm-none-eabi/lib/thumb/v7e-m/fpv4-sp/hard\libc_nano.a(lib_a-strcpy.o)
                              _build/nrf52832_xxaa/SEGGER_RTT.c.o (strcpy)
c:/program files (x86)/gnu tools arm embedded/7 2018-q2-update/bin/../lib/gcc/arm-none-eabi/7.3.1/../../../../arm-none-eabi/lib/thumb/v7e-m/fpv4-sp/hard\libc_nano.a(lib_a-strlen.o)
                              _build/nrf52832_xxaa/nrf_log_frontend.c.o (strlen)
c:/program files (x86)/gnu tools arm embedded/7 2018-q2-update/bin/../lib/gcc/arm-none-eabi/7.3.1/../../../../arm-none-eabi/lib/thumb/v7e-m/fpv4-sp/hard\libc_nano.a(lib_a-wctomb_r.o)
                              c:/program files (x86)/gnu tools arm embedded/7 2018-q2-update/bin/../lib/gcc/arm-none-eabi/7.3.1/../../../../arm-none-eabi/lib/thumb/v7e-m/fpv4-sp/hard\libc_nano.a(lib_a-locale.o) (__ascii_wctomb)
c:/program files (x86)/gnu tools arm embedded/7 2018-q2-update/bin/../lib/gcc/arm-none-eabi/7.3.1/../../../../arm-none-eabi/lib/thumb/v7e-m/fpv4-sp/hard\libc_nano.a(lib_a-ctype_.o)
                              c:/program files (x86)/gnu tools arm embedded/7 2018-q2-update/bin/../lib/gcc/arm-none-eabi/7.3.1/../../../../arm-none-eabi/lib/thumb/v7e-m/fpv4-sp/hard\libc_nano.a(lib_a-locale.o) (_ctype_)
c:/program files (x86)/gnu tools arm embedded/7 2018-q2-update/bin/../lib/gcc/arm-none-eabi/7.3.1/../../../../arm-none-eabi/lib/thumb/v7e-m/fpv4-sp/hard\libnosys.a(_exit.o)
                              c:/program files (x86)/gnu tools arm embedded/7 2018-q2-update/bin/../lib/gcc/arm-none-eabi/7.3.1/../../../../arm-none-eabi/lib/thumb/v7e-m/fpv4-sp/hard\libc_nano.a(lib_a-exit.o) (_exit)
c:/program files (x86)/gnu tools arm embedded/7 2018-q2-update/bin/../lib/gcc/arm-none-eabi/7.3.1/thumb/v7e-m/fpv4-sp/hard\libgcc.a(_aeabi_uldivmod.o)
                              _build/nrf52832_xxaa/nrf_serial.c.o (__aeabi_uldivmod)
c:/program files (x86)/gnu tools arm embedded/7 2018-q2-update/bin/../lib/gcc/arm-none-eabi/7.3.1/thumb/v7e-m/fpv4-sp/hard\libgcc.a(_udivmoddi4.o)
                              c:/program files (x86)/gnu tools arm embedded/7 2018-q2-update/bin/../lib/gcc/arm-none-eabi/7.3.1/thumb/v7e-m/fpv4-sp/hard\libgcc.a(_aeabi_uldivmod.o) (__udivmoddi4)
c:/program files (x86)/gnu tools arm embedded/7 2018-q2-update/bin/../lib/gcc/arm-none-eabi/7.3.1/thumb/v7e-m/fpv4-sp/hard\libgcc.a(_dvmd_tls.o)
                              c:/program files (x86)/gnu tools arm embedded/7 2018-q2-update/bin/../lib/gcc/arm-none-eabi/7.3.1/thumb/v7e-m/fpv4-sp/hard\libgcc.a(_aeabi_uldivmod.o) (__aeabi_ldiv0)

Allocating common symbols
Common symbol       size              file

nrf_nvic_state      0xc               _build/nrf52832_xxaa/app_util_platform.c.o
ad5933_bloc_w       0xc               _build/nrf52832_xxaa/main.c.o
nrf_drv_uart_use_easy_dma
                    0x1               _build/nrf52832_xxaa/nrf_drv_uart.c.o
bat_stat_reg_addr   0x1               _build/nrf52832_xxaa/main.c.o
ad5933_reg          0xc               _build/nrf52832_xxaa/main.c.o
ad5933_command      0x2               _build/nrf52832_xxaa/main.c.o
osc_ext_reg         0x2               _build/nrf52832_xxaa/main.c.o
_SEGGER_RTT         0x78              _build/nrf52832_xxaa/SEGGER_RTT.c.o
ad5933_byte_w       0x2               _build/nrf52832_xxaa/main.c.o

Discarded input sections

 .text          0x00000000        0x0 c:/program files (x86)/gnu tools arm embedded/7 2018-q2-update/bin/../lib/gcc/arm-none-eabi/7.3.1/thumb/v7e-m/fpv4-sp/hard/crti.o
 .data          0x00000000        0x0 c:/program files (x86)/gnu tools arm embedded/7 2018-q2-update/bin/../lib/gcc/arm-none-eabi/7.3.1/thumb/v7e-m/fpv4-sp/hard/crti.o
 .bss           0x00000000        0x0 c:/program files (x86)/gnu tools arm embedded/7 2018-q2-update/bin/../lib/gcc/arm-none-eabi/7.3.1/thumb/v7e-m/fpv4-sp/hard/crti.o
 .data          0x00000000        0x4 c:/program files (x86)/gnu tools arm embedded/7 2018-q2-update/bin/../lib/gcc/arm-none-eabi/7.3.1/thumb/v7e-m/fpv4-sp/hard/crtbegin.o
 .data          0x00000000        0x0 c:/program files (x86)/gnu tools arm embedded/7 2018-q2-update/bin/../lib/gcc/arm-none-eabi/7.3.1/../../../../arm-none-eabi/lib/thumb/v7e-m/fpv4-sp/hard/crt0.o
 .bss           0x00000000        0x0 c:/program files (x86)/gnu tools arm embedded/7 2018-q2-update/bin/../lib/gcc/arm-none-eabi/7.3.1/../../../../arm-none-eabi/lib/thumb/v7e-m/fpv4-sp/hard/crt0.o
 .ARM.extab     0x00000000        0x0 c:/program files (x86)/gnu tools arm embedded/7 2018-q2-update/bin/../lib/gcc/arm-none-eabi/7.3.1/../../../../arm-none-eabi/lib/thumb/v7e-m/fpv4-sp/hard/crt0.o
 .data          0x00000000        0x0 _build/nrf52832_xxaa/gcc_startup_nrf52.S.o
 .bss           0x00000000        0x0 _build/nrf52832_xxaa/gcc_startup_nrf52.S.o
 .group         0x00000000        0xc _build/nrf52832_xxaa/nrf_log_backend_rtt.c.o
 .group         0x00000000        0xc _build/nrf52832_xxaa/nrf_log_backend_rtt.c.o
 .group         0x00000000        0xc _build/nrf52832_xxaa/nrf_log_backend_rtt.c.o
 .group         0x00000000        0xc _build/nrf52832_xxaa/nrf_log_backend_rtt.c.o
 .group         0x00000000        0xc _build/nrf52832_xxaa/nrf_log_backend_rtt.c.o
 .group         0x00000000        0xc _build/nrf52832_xxaa/nrf_log_backend_rtt.c.o
 .group         0x00000000        0xc _build/nrf52832_xxaa/nrf_log_backend_rtt.c.o
 .group         0x00000000        0xc _build/nrf52832_xxaa/nrf_log_backend_rtt.c.o
 .group         0x00000000        0xc _build/nrf52832_xxaa/nrf_log_backend_rtt.c.o
Memory Configuration

Name             Origin             Length             Attributes
FLASH            0x00026000         0x0005a000         xr
RAM              0x20002218         0x0000dde8         xrw
*default*        0x00000000         0xffffffff

Linker script and memory map


.text           0x00026000    0x19110
 *(.isr_vector)
 .isr_vector    0x00026000      0x200 _build/nrf52832_xxaa/gcc_startup_nrf52.S.o
                0x00026000                __isr_vector
 *(.text*)
 .text          0x00026200       0x40 c:/program files (x86)/gnu tools arm embedded/7 2018-q2-update/bin/../lib/gcc/arm-none-eabi/7.3.1/thumb/v7e-m/fpv4-sp/hard/crtbegin.o
 .text          0x00026240       0x74 c:/program files (x86)/gnu tools arm embedded/7 2018-q2-update/bin/../lib/gcc/arm-none-eabi/7.3.1/../../../../arm-none-eabi/lib/thumb/v7e-m/fpv4-sp/hard/crt0.o
                0x00026240                _start
                0x00026240                _mainCRTStartup
 .text          0x000262b4       0x3c _build/nrf52832_xxaa/gcc_startup_nrf52.S.o
                0x000262b4                Reset_Handler
                0x000262dc                NMI_Handler
                0x000262de                HardFault_Handler
                0x000262e0                MemoryManagement_Handler
                0x000262e2                BusFault_Handler
                0x000262e4                UsageFault_Handler
                0x000262e6                SVC_Handler
                0x000262e8                DebugMon_Handler
                0x000262ea                PendSV_Handler
                0x000262ec                SysTick_Handler
                0x000262ee                TEMP_IRQHandler
                0x000262ee                QDEC_IRQHandler
                0x000262ee                TIMER3_IRQHandler
                0x000262ee                FPU_IRQHandler
                0x000262ee                PDM_IRQHandler
                0x000262ee                TIMER4_IRQHandler
                0x000262ee                I2S_IRQHandler
                0x000262ee                SWI4_EGU4_IRQHandler
                0x000262ee                TIMER0_IRQHandler
                0x000262ee                RADIO_IRQHandler
                0x000262ee                TIMER1_IRQHandler
                0x000262ee                RTC0_IRQHandler
                0x000262ee                ECB_IRQHandler
                0x000262ee                SPIM1_SPIS1_TWIM1_TWIS1_SPI1_TWI1_IRQHandler
                0x000262ee                Default_Handler
                0x000262ee                SAADC_IRQHandler
                0x000262ee                CCM_AAR_IRQHandler
                0x000262ee                WDT_IRQHandler
                0x000262ee                PWM1_IRQHandler
                0x000262ee                SWI5_EGU5_IRQHandler
                0x000262ee                RNG_IRQHandler
                0x000262ee                RTC2_IRQHandler
                0x000262ee                PWM0_IRQHandler
                0x000262ee                SWI3_EGU3_IRQHandler
                0x000262ee                SWI1_EGU1_IRQHandler
                0x000262ee                SPIM2_SPIS2_SPI2_IRQHandler
                0x000262ee                NFCT_IRQHandler
                0x000262ee                PWM2_IRQHandler
                0x000262ee                MWU_IRQHandler
                0x000262ee                TIMER2_IRQHandler
                0x000262ee                COMP_LPCOMP_IRQHandler
 .text.nrfx_coredep_delay_us
                0x000262f0       0x30 _build/nrf52832_xxaa/nrf_log_backend_rtt.c.o
 .text.nrf_delay_ms
                0x00026320       0x2c _build/nrf52832_xxaa/nrf_log_backend_rtt.c.o
 .text.nrf_log_backend_rtt_init
                0x0002634c        0xc _build/nrf52832_xxaa/nrf_log_backend_rtt.c.o
                0x0002634c                nrf_log_backend_rtt_init
 .text.serial_tx
                0x00026358       0x88 _build/nrf52832_xxaa/nrf_log_backend_rtt.c.o
 .text.nrf_log_backend_rtt_put
                0x000263e0       0x2c _build/nrf52832_xxaa/nrf_log_backend_rtt.c.o
 .text.nrf_log_backend_rtt_flush
                0x0002640c       0x14 _build/nrf52832_xxaa/nrf_log_backend_rtt.c.o
 .text.nrf_log_backend_rtt_panic_set
                0x00026420       0x14 _build/nrf52832_xxaa/nrf_log_backend_rtt.c.o
 .text.nrf_log_backend_serial_put
                0x00026434      0x132 _build/nrf52832_xxaa/nrf_log_backend_serial.c.o
                0x00026434                nrf_log_backend_serial_put
 .text.nrf_log_backend_enable
                0x00026566       0x1c _build/nrf52832_xxaa/nrf_log_default_backends.c.o
 *fill*         0x00026582        0x2 
 .text.nrf_log_default_backends_init
                0x00026584       0x2c _build/nrf52832_xxaa/nrf_log_default_backends.c.o
                0x00026584                nrf_log_default_backends_init
 .text.nrf_log_backend_put
                0x000265b0       0x1e _build/nrf52832_xxaa/nrf_log_frontend.c.o
 .text.nrf_log_backend_panic_set
                0x000265ce       0x1a _build/nrf52832_xxaa/nrf_log_frontend.c.o
 .text.nrf_log_backend_flush
                0x000265e8       0x1a _build/nrf52832_xxaa/nrf_log_frontend.c.o
 .text.nrf_log_backend_id_set
                0x00026602       0x20 _build/nrf52832_xxaa/nrf_log_frontend.c.o
 .text.nrf_log_backend_id_get
                0x00026622       0x1a _build/nrf52832_xxaa/nrf_log_frontend.c.o
 .text.nrf_log_backend_enable
                0x0002663c       0x1c _build/nrf52832_xxaa/nrf_log_frontend.c.o
 .text.nrf_log_backend_is_enabled
                0x00026658       0x1a _build/nrf52832_xxaa/nrf_log_frontend.c.o
 *fill*         0x00026672        0x2 
 .text.nrf_log_init
                0x00026674       0x74 _build/nrf52832_xxaa/nrf_log_frontend.c.o
                0x00026674                nrf_log_init
 .text.nrf_log_module_cnt_get
                0x000266e8       0x20 _build/nrf52832_xxaa/nrf_log_frontend.c.o
                0x000266e8                nrf_log_module_cnt_get
 .text.module_idx_get
                0x00026708       0x60 _build/nrf52832_xxaa/nrf_log_frontend.c.o
 .text.nrf_log_module_name_get
                0x00026768       0x3c _build/nrf52832_xxaa/nrf_log_frontend.c.o
                0x00026768                nrf_log_module_name_get
 .text.nrf_log_color_id_get
                0x000267a4       0x68 _build/nrf52832_xxaa/nrf_log_frontend.c.o
                0x000267a4                nrf_log_color_id_get
 .text.invalid_packets_omit
                0x0002680c       0x72 _build/nrf52832_xxaa/nrf_log_frontend.c.o
 *fill*         0x0002687e        0x2 
 .text.log_skip
                0x00026880       0xf8 _build/nrf52832_xxaa/nrf_log_frontend.c.o
 .text.dropped_sat16_get
                0x00026978       0x2c _build/nrf52832_xxaa/nrf_log_frontend.c.o
 .text.std_header_set
                0x000269a4       0x9c _build/nrf52832_xxaa/nrf_log_frontend.c.o
 .text.buf_prealloc
                0x00026a40      0x114 _build/nrf52832_xxaa/nrf_log_frontend.c.o
 .text.std_n    0x00026b54       0x94 _build/nrf52832_xxaa/nrf_log_frontend.c.o
 .text.nrf_log_frontend_std_0
                0x00026be8       0x1e _build/nrf52832_xxaa/nrf_log_frontend.c.o
                0x00026be8                nrf_log_frontend_std_0
 .text.nrf_log_frontend_std_1
                0x00026c06       0x26 _build/nrf52832_xxaa/nrf_log_frontend.c.o
                0x00026c06                nrf_log_frontend_std_1
 .text.nrf_log_frontend_std_2
                0x00026c2c       0x2c _build/nrf52832_xxaa/nrf_log_frontend.c.o
                0x00026c2c                nrf_log_frontend_std_2
 .text.nrf_log_frontend_std_3
                0x00026c58       0x30 _build/nrf52832_xxaa/nrf_log_frontend.c.o
                0x00026c58                nrf_log_frontend_std_3
 .text.nrf_log_frontend_std_4
                0x00026c88       0x34 _build/nrf52832_xxaa/nrf_log_frontend.c.o
                0x00026c88                nrf_log_frontend_std_4
 .text.nrf_log_frontend_hexdump
                0x00026cbc      0x13c _build/nrf52832_xxaa/nrf_log_frontend.c.o
                0x00026cbc                nrf_log_frontend_hexdump
 .text.buffer_is_empty
                0x00026df8       0x24 _build/nrf52832_xxaa/nrf_log_frontend.c.o
                0x00026df8                buffer_is_empty
 .text.nrf_log_frontend_dequeue
                0x00026e1c      0x380 _build/nrf52832_xxaa/nrf_log_frontend.c.o
                0x00026e1c                nrf_log_frontend_dequeue
 .text.backend_id_assign
                0x0002719c       0x64 _build/nrf52832_xxaa/nrf_log_frontend.c.o
 .text.nrf_log_backend_add
                0x00027200       0x70 _build/nrf52832_xxaa/nrf_log_frontend.c.o
                0x00027200                nrf_log_backend_add
 .text.nrf_log_panic
                0x00027270       0x40 _build/nrf52832_xxaa/nrf_log_frontend.c.o
                0x00027270                nrf_log_panic
 .text.timestamp_print
                0x000272b0       0x16 _build/nrf52832_xxaa/nrf_log_str_formatter.c.o
 *fill*         0x000272c6        0x2 
 .text.prefix_process
                0x000272c8       0xb4 _build/nrf52832_xxaa/nrf_log_str_formatter.c.o
 .text.postfix_process
                0x0002737c       0x60 _build/nrf52832_xxaa/nrf_log_str_formatter.c.o
 .text.nrf_log_std_entry_process
                0x000273dc      0x144 _build/nrf52832_xxaa/nrf_log_str_formatter.c.o
                0x000273dc                nrf_log_std_entry_process
 .text.nrf_log_hexdump_entry_process
                0x00027520       0xf0 _build/nrf52832_xxaa/nrf_log_str_formatter.c.o
                0x00027520                nrf_log_hexdump_entry_process
 .text.detection_delay_timeout_handler
                0x00027610      0x188 _build/nrf52832_xxaa/app_button.c.o
 .text.gpiote_event_handler
                0x00027798      0x108 _build/nrf52832_xxaa/app_button.c.o
 .text.app_button_init
                0x000278a0       0xf0 _build/nrf52832_xxaa/app_button.c.o
                0x000278a0                app_button_init
 .text.app_button_enable
                0x00027990       0x44 _build/nrf52832_xxaa/app_button.c.o
                0x00027990                app_button_enable
 .text.app_error_handler_bare
                0x000279d4       0x2c _build/nrf52832_xxaa/app_error.c.o
                0x000279d4                app_error_handler_bare
 .text.NVIC_SystemReset
                0x00027a00       0x28 _build/nrf52832_xxaa/app_error_weak.c.o
 .text.app_error_fault_handler
                0x00027a28       0x78 _build/nrf52832_xxaa/app_error_weak.c.o
                0x00027a28                app_error_fault_handler
 .text.NVIC_EnableIRQ
                0x00027aa0       0x34 _build/nrf52832_xxaa/app_timer.c.o
 .text.NVIC_DisableIRQ
                0x00027ad4       0x34 _build/nrf52832_xxaa/app_timer.c.o
 .text.NVIC_SetPendingIRQ
                0x00027b08       0x34 _build/nrf52832_xxaa/app_timer.c.o
 .text.NVIC_ClearPendingIRQ
                0x00027b3c       0x34 _build/nrf52832_xxaa/app_timer.c.o
 .text.NVIC_SetPriority
                0x00027b70       0x54 _build/nrf52832_xxaa/app_timer.c.o
 .text.nrfx_coredep_delay_us
                0x00027bc4       0x30 _build/nrf52832_xxaa/app_timer.c.o
 .text.rtc1_init
                0x00027bf4       0x24 _build/nrf52832_xxaa/app_timer.c.o
 .text.rtc1_start
                0x00027c18       0x44 _build/nrf52832_xxaa/app_timer.c.o
 .text.rtc1_stop
                0x00027c5c       0x54 _build/nrf52832_xxaa/app_timer.c.o
 .text.rtc1_counter_get
                0x00027cb0       0x18 _build/nrf52832_xxaa/app_timer.c.o
 .text.ticks_diff_get
                0x00027cc8       0x20 _build/nrf52832_xxaa/app_timer.c.o
 .text.rtc1_compare0_set
                0x00027ce8       0x20 _build/nrf52832_xxaa/app_timer.c.o
 .text.timer_list_insert
                0x00027d08       0xb4 _build/nrf52832_xxaa/app_timer.c.o
 .text.timer_list_remove
                0x00027dbc       0xc0 _build/nrf52832_xxaa/app_timer.c.o
 .text.timer_timeouts_check_sched
                0x00027e7c        0xe _build/nrf52832_xxaa/app_timer.c.o
 .text.timer_list_handler_sched
                0x00027e8a        0xe _build/nrf52832_xxaa/app_timer.c.o
 .text.timeout_handler_exec
                0x00027e98       0x1c _build/nrf52832_xxaa/app_timer.c.o
 .text.timer_timeouts_check
                0x00027eb4       0xc8 _build/nrf52832_xxaa/app_timer.c.o
 .text.elapsed_ticks_acquire
                0x00027f7c       0x80 _build/nrf52832_xxaa/app_timer.c.o
 .text.expired_timers_handler
                0x00027ffc       0x9c _build/nrf52832_xxaa/app_timer.c.o
 .text.list_insertions_handler
                0x00028098      0x1b8 _build/nrf52832_xxaa/app_timer.c.o
 .text.compare_reg_update
                0x00028250       0xb4 _build/nrf52832_xxaa/app_timer.c.o
 .text.timer_list_handler
                0x00028304       0x74 _build/nrf52832_xxaa/app_timer.c.o
 .text.user_op_enque
                0x00028378       0x20 _build/nrf52832_xxaa/app_timer.c.o
 .text.user_op_alloc
                0x00028398       0x5c _build/nrf52832_xxaa/app_timer.c.o
 .text.timer_start_op_schedule
                0x000283f4       0x84 _build/nrf52832_xxaa/app_timer.c.o
 .text.timer_stop_op_schedule
                0x00028478       0x66 _build/nrf52832_xxaa/app_timer.c.o
 *fill*         0x000284de        0x2 
 .text.RTC1_IRQHandler
                0x000284e0       0x40 _build/nrf52832_xxaa/app_timer.c.o
                0x000284e0                RTC1_IRQHandler
 .text.SWI0_EGU0_IRQHandler
                0x00028520        0xc _build/nrf52832_xxaa/app_timer.c.o
                0x00028520                SWI0_EGU0_IRQHandler
 .text.app_timer_init
                0x0002852c       0x6c _build/nrf52832_xxaa/app_timer.c.o
                0x0002852c                app_timer_init
 .text.app_timer_create
                0x00028598       0x68 _build/nrf52832_xxaa/app_timer.c.o
                0x00028598                app_timer_create
 .text.app_timer_start
                0x00028600       0x68 _build/nrf52832_xxaa/app_timer.c.o
                0x00028600                app_timer_start
 .text.app_timer_stop
                0x00028668       0x48 _build/nrf52832_xxaa/app_timer.c.o
                0x00028668                app_timer_stop
 .text.__sd_nvic_irq_disable
                0x000286b0       0x20 _build/nrf52832_xxaa/app_util_platform.c.o
 .text.__sd_nvic_irq_enable
                0x000286d0       0x10 _build/nrf52832_xxaa/app_util_platform.c.o
 .text.sd_nvic_critical_region_enter
                0x000286e0       0x74 _build/nrf52832_xxaa/app_util_platform.c.o
 .text.sd_nvic_critical_region_exit
                0x00028754       0x50 _build/nrf52832_xxaa/app_util_platform.c.o
 .text.app_util_critical_region_enter
                0x000287a4       0x16 _build/nrf52832_xxaa/app_util_platform.c.o
                0x000287a4                app_util_critical_region_enter
 .text.app_util_critical_region_exit
                0x000287ba       0x1a _build/nrf52832_xxaa/app_util_platform.c.o
                0x000287ba                app_util_critical_region_exit
 .text.is_word_aligned
                0x000287d4       0x24 _build/nrf52832_xxaa/fds.c.o
 .text.event_send
                0x000287f8       0x40 _build/nrf52832_xxaa/fds.c.o
 .text.event_prepare
                0x00028838       0xe8 _build/nrf52832_xxaa/fds.c.o
 .text.header_has_next
                0x00028920       0x38 _build/nrf52832_xxaa/fds.c.o
 .text.header_jump
                0x00028958       0x20 _build/nrf52832_xxaa/fds.c.o
 .text.header_check
                0x00028978       0x3e _build/nrf52832_xxaa/fds.c.o
 *fill*         0x000289b6        0x2 
 .text.address_is_valid
                0x000289b8       0x4c _build/nrf52832_xxaa/fds.c.o
 .text.page_identify
                0x00028a04       0x50 _build/nrf52832_xxaa/fds.c.o
 .text.page_is_erased
                0x00028a54       0x3e _build/nrf52832_xxaa/fds.c.o
 *fill*         0x00028a92        0x2 
 .text.page_has_space
                0x00028a94       0x60 _build/nrf52832_xxaa/fds.c.o
 .text.page_from_record
                0x00028af4       0x74 _build/nrf52832_xxaa/fds.c.o
 .text.page_scan
                0x00028b68       0xa0 _build/nrf52832_xxaa/fds.c.o
 .text.page_offsets_update
                0x00028c08       0x46 _build/nrf52832_xxaa/fds.c.o
 *fill*         0x00028c4e        0x2 
 .text.page_tag_write_swap
                0x00028c50       0x30 _build/nrf52832_xxaa/fds.c.o
 .text.page_tag_write_data
                0x00028c80       0x2c _build/nrf52832_xxaa/fds.c.o
 .text.write_space_reserve
                0x00028cac       0xac _build/nrf52832_xxaa/fds.c.o
 .text.write_space_free
                0x00028d58       0x50 _build/nrf52832_xxaa/fds.c.o
 .text.record_id_new
                0x00028da8       0x18 _build/nrf52832_xxaa/fds.c.o
 .text.record_find_next
                0x00028dc0       0xa0 _build/nrf52832_xxaa/fds.c.o
 .text.record_find_by_desc
                0x00028e60       0xb8 _build/nrf52832_xxaa/fds.c.o
 .text.record_find
                0x00028f18       0xe0 _build/nrf52832_xxaa/fds.c.o
 .text.queue_buf_get
                0x00028ff8       0x2c _build/nrf52832_xxaa/fds.c.o
 .text.queue_buf_store
                0x00029024       0x20 _build/nrf52832_xxaa/fds.c.o
 .text.queue_load
                0x00029044       0x20 _build/nrf52832_xxaa/fds.c.o
 .text.queue_free
                0x00029064       0x20 _build/nrf52832_xxaa/fds.c.o
 .text.queue_has_next
                0x00029084       0x20 _build/nrf52832_xxaa/fds.c.o
 .text.pages_init
                0x000290a4      0x1f4 _build/nrf52832_xxaa/fds.c.o
 .text.record_header_write_begin
                0x00029298       0x3c _build/nrf52832_xxaa/fds.c.o
 .text.record_header_write_id
                0x000292d4       0x50 _build/nrf52832_xxaa/fds.c.o
 .text.record_header_write_finalize
                0x00029324       0x50 _build/nrf52832_xxaa/fds.c.o
 .text.record_header_flag_dirty
                0x00029374       0x54 _build/nrf52832_xxaa/fds.c.o
 .text.record_find_and_delete
                0x000293c8       0x62 _build/nrf52832_xxaa/fds.c.o
 *fill*         0x0002942a        0x2 
 .text.file_find_and_delete
                0x0002942c       0x4c _build/nrf52832_xxaa/fds.c.o
 .text.record_write_data
                0x00029478       0x48 _build/nrf52832_xxaa/fds.c.o
 .text.gc_init  0x000294c0       0x68 _build/nrf52832_xxaa/fds.c.o
 .text.gc_page_next
                0x00029528       0x84 _build/nrf52832_xxaa/fds.c.o
 .text.gc_swap_erase
                0x000295ac       0x34 _build/nrf52832_xxaa/fds.c.o
 .text.gc_page_erase
                0x000295e0       0x68 _build/nrf52832_xxaa/fds.c.o
 .text.gc_record_copy
                0x00029648       0x54 _build/nrf52832_xxaa/fds.c.o
 .text.gc_record_find_next
                0x0002969c       0x38 _build/nrf52832_xxaa/fds.c.o
 .text.gc_swap_promote
                0x000296d4       0x34 _build/nrf52832_xxaa/fds.c.o
 .text.gc_tag_new_swap
                0x00029708       0x20 _build/nrf52832_xxaa/fds.c.o
 .text.gc_next_page
                0x00029728       0x40 _build/nrf52832_xxaa/fds.c.o
 .text.gc_update_swap_offset
                0x00029768       0x38 _build/nrf52832_xxaa/fds.c.o
 .text.gc_swap_pages
                0x000297a0       0x78 _build/nrf52832_xxaa/fds.c.o
 .text.gc_state_advance
                0x00029818       0x74 _build/nrf52832_xxaa/fds.c.o
 .text.init_execute
                0x0002988c      0x198 _build/nrf52832_xxaa/fds.c.o
 .text.write_execute
                0x00029a24      0x10c _build/nrf52832_xxaa/fds.c.o
 .text.delete_execute
                0x00029b30       0x64 _build/nrf52832_xxaa/fds.c.o
 .text.gc_execute
                0x00029b94       0x98 _build/nrf52832_xxaa/fds.c.o
 .text.queue_process
                0x00029c2c      0x104 _build/nrf52832_xxaa/fds.c.o
 .text.queue_start
                0x00029d30       0x20 _build/nrf52832_xxaa/fds.c.o
 .text.fs_event_handler
                0x00029d50       0x1a _build/nrf52832_xxaa/fds.c.o
 *fill*         0x00029d6a        0x2 
 .text.write_enqueue
                0x00029d6c      0x150 _build/nrf52832_xxaa/fds.c.o
 .text.fds_register
                0x00029ebc       0x40 _build/nrf52832_xxaa/fds.c.o
                0x00029ebc                fds_register
 .text.flash_end_addr
                0x00029efc       0x58 _build/nrf52832_xxaa/fds.c.o
 .text.flash_bounds_set
                0x00029f54       0x30 _build/nrf52832_xxaa/fds.c.o
 .text.flash_subsystem_init
                0x00029f84       0x20 _build/nrf52832_xxaa/fds.c.o
 .text.queue_init
                0x00029fa4       0x1c _build/nrf52832_xxaa/fds.c.o
 .text.fds_init
                0x00029fc0      0x124 _build/nrf52832_xxaa/fds.c.o
                0x00029fc0                fds_init
 .text.fds_record_open
                0x0002a0e4       0x78 _build/nrf52832_xxaa/fds.c.o
                0x0002a0e4                fds_record_open
 .text.fds_record_close
                0x0002a15c       0x90 _build/nrf52832_xxaa/fds.c.o
                0x0002a15c                fds_record_close
 .text.fds_record_write
                0x0002a1ec       0x20 _build/nrf52832_xxaa/fds.c.o
                0x0002a1ec                fds_record_write
 .text.fds_record_update
                0x0002a20c       0x2a _build/nrf52832_xxaa/fds.c.o
                0x0002a20c                fds_record_update
 *fill*         0x0002a236        0x2 
 .text.fds_file_delete
                0x0002a238       0x70 _build/nrf52832_xxaa/fds.c.o
                0x0002a238                fds_file_delete
 .text.fds_gc   0x0002a2a8       0x60 _build/nrf52832_xxaa/fds.c.o
                0x0002a2a8                fds_gc
 .text.fds_record_find
                0x0002a308       0x2c _build/nrf52832_xxaa/fds.c.o
                0x0002a308                fds_record_find
 .text.fds_record_find_by_key
                0x0002a334       0x26 _build/nrf52832_xxaa/fds.c.o
                0x0002a334                fds_record_find_by_key
 .text.fds_record_find_in_file
                0x0002a35a       0x26 _build/nrf52832_xxaa/fds.c.o
                0x0002a35a                fds_record_find_in_file
 .text.fds_record_id_from_desc
                0x0002a380       0x30 _build/nrf52832_xxaa/fds.c.o
                0x0002a380                fds_record_id_from_desc
 .text.nrf_atfifo_wspace_req
                0x0002a3b0       0x5a _build/nrf52832_xxaa/nrf_atfifo.c.o
 .text.nrf_atfifo_wspace_close
                0x0002a40a       0x2a _build/nrf52832_xxaa/nrf_atfifo.c.o
 .text.nrf_atfifo_rspace_req
                0x0002a434       0x5c _build/nrf52832_xxaa/nrf_atfifo.c.o
 .text.nrf_atfifo_rspace_close
                0x0002a490       0x2a _build/nrf52832_xxaa/nrf_atfifo.c.o
 .text.nrf_atfifo_space_clear
                0x0002a4ba       0x4e _build/nrf52832_xxaa/nrf_atfifo.c.o
 .text.nrf_atfifo_init
                0x0002a508       0x64 _build/nrf52832_xxaa/nrf_atfifo.c.o
                0x0002a508                nrf_atfifo_init
 .text.nrf_atfifo_clear
                0x0002a56c       0x26 _build/nrf52832_xxaa/nrf_atfifo.c.o
                0x0002a56c                nrf_atfifo_clear
 .text.nrf_atfifo_item_alloc
                0x0002a592       0x34 _build/nrf52832_xxaa/nrf_atfifo.c.o
                0x0002a592                nrf_atfifo_item_alloc
 .text.nrf_atfifo_item_put
                0x0002a5c6       0x2a _build/nrf52832_xxaa/nrf_atfifo.c.o
                0x0002a5c6                nrf_atfifo_item_put
 .text.nrf_atfifo_item_get
                0x0002a5f0       0x34 _build/nrf52832_xxaa/nrf_atfifo.c.o
                0x0002a5f0                nrf_atfifo_item_get
 .text.nrf_atfifo_item_free
                0x0002a624       0x2a _build/nrf52832_xxaa/nrf_atfifo.c.o
                0x0002a624                nrf_atfifo_item_free
 .text.nrf_atflags_set
                0x0002a64e       0x30 _build/nrf52832_xxaa/nrf_atflags.c.o
                0x0002a64e                nrf_atflags_set
 .text.nrf_atflags_fetch_set
                0x0002a67e       0x48 _build/nrf52832_xxaa/nrf_atflags.c.o
                0x0002a67e                nrf_atflags_fetch_set
 .text.nrf_atflags_clear
                0x0002a6c6       0x32 _build/nrf52832_xxaa/nrf_atflags.c.o
                0x0002a6c6                nrf_atflags_clear
 .text.nrf_atflags_get
                0x0002a6f8       0x3a _build/nrf52832_xxaa/nrf_atflags.c.o
                0x0002a6f8                nrf_atflags_get
 .text.nrf_atflags_find_and_set_flag
                0x0002a732       0xa0 _build/nrf52832_xxaa/nrf_atflags.c.o
                0x0002a732                nrf_atflags_find_and_set_flag
 .text.nrf_atomic_u32_fetch_store
                0x0002a7d2       0x30 _build/nrf52832_xxaa/nrf_atomic.c.o
                0x0002a7d2                nrf_atomic_u32_fetch_store
 .text.nrf_atomic_u32_fetch_or
                0x0002a802       0x32 _build/nrf52832_xxaa/nrf_atomic.c.o
                0x0002a802                nrf_atomic_u32_fetch_or
 .text.nrf_atomic_u32_or
                0x0002a834       0x32 _build/nrf52832_xxaa/nrf_atomic.c.o
                0x0002a834                nrf_atomic_u32_or
 .text.nrf_atomic_u32_fetch_and
                0x0002a866       0x32 _build/nrf52832_xxaa/nrf_atomic.c.o
                0x0002a866                nrf_atomic_u32_fetch_and
 .text.nrf_atomic_u32_and
                0x0002a898       0x32 _build/nrf52832_xxaa/nrf_atomic.c.o
                0x0002a898                nrf_atomic_u32_and
 .text.nrf_atomic_u32_fetch_add
                0x0002a8ca       0x32 _build/nrf52832_xxaa/nrf_atomic.c.o
                0x0002a8ca                nrf_atomic_u32_fetch_add
 .text.nrf_atomic_u32_add
                0x0002a8fc       0x32 _build/nrf52832_xxaa/nrf_atomic.c.o
                0x0002a8fc                nrf_atomic_u32_add
 .text.nrf_atomic_u32_sub
                0x0002a92e       0x32 _build/nrf52832_xxaa/nrf_atomic.c.o
                0x0002a92e                nrf_atomic_u32_sub
 .text.nrf_atomic_flag_set_fetch
                0x0002a960       0x1a _build/nrf52832_xxaa/nrf_atomic.c.o
                0x0002a960                nrf_atomic_flag_set_fetch
 .text.nrf_atomic_flag_set
                0x0002a97a       0x1a _build/nrf52832_xxaa/nrf_atomic.c.o
                0x0002a97a                nrf_atomic_flag_set
 .text.nrf_atomic_flag_clear_fetch
                0x0002a994       0x1a _build/nrf52832_xxaa/nrf_atomic.c.o
                0x0002a994                nrf_atomic_flag_clear_fetch
 .text.nrf_balloc_idx2block
                0x0002a9ae       0x28 _build/nrf52832_xxaa/nrf_balloc.c.o
 .text.nrf_balloc_block2idx
                0x0002a9d6       0x28 _build/nrf52832_xxaa/nrf_balloc.c.o
 .text.nrf_balloc_init
                0x0002a9fe       0x5a _build/nrf52832_xxaa/nrf_balloc.c.o
                0x0002a9fe                nrf_balloc_init
 .text.nrf_balloc_alloc
                0x0002aa58       0x76 _build/nrf52832_xxaa/nrf_balloc.c.o
                0x0002aa58                nrf_balloc_alloc
 .text.nrf_balloc_free
                0x0002aace       0x42 _build/nrf52832_xxaa/nrf_balloc.c.o
                0x0002aace                nrf_balloc_free
 .text.nrf_fprintf_buffer_flush
                0x0002ab10       0x32 _build/nrf52832_xxaa/nrf_fprintf.c.o
                0x0002ab10                nrf_fprintf_buffer_flush
 .text.nrf_fprintf
                0x0002ab42       0x38 _build/nrf52832_xxaa/nrf_fprintf.c.o
                0x0002ab42                nrf_fprintf
 .text.buffer_add
                0x0002ab7a       0x48 _build/nrf52832_xxaa/nrf_fprintf_format.c.o
 .text.string_print
                0x0002abc2       0xb8 _build/nrf52832_xxaa/nrf_fprintf_format.c.o
 *fill*         0x0002ac7a        0x2 
 .text.unsigned_print
                0x0002ac7c      0x12c _build/nrf52832_xxaa/nrf_fprintf_format.c.o
 .text.int_print
                0x0002ada8      0x11e _build/nrf52832_xxaa/nrf_fprintf_format.c.o
 *fill*         0x0002aec6        0x2 
 .text.nrf_fprintf_fmt
                0x0002aec8      0x3ec _build/nrf52832_xxaa/nrf_fprintf_format.c.o
                0x0002aec8                nrf_fprintf_fmt
 .text.nrf_fstorage_init
                0x0002b2b4       0x90 _build/nrf52832_xxaa/nrf_fstorage.c.o
                0x0002b2b4                nrf_fstorage_init
 .text.nrf_fstorage_write
                0x0002b344      0x1c8 _build/nrf52832_xxaa/nrf_fstorage.c.o
                0x0002b344                nrf_fstorage_write
 .text.nrf_fstorage_erase
                0x0002b50c      0x134 _build/nrf52832_xxaa/nrf_fstorage.c.o
                0x0002b50c                nrf_fstorage_erase
 .text.addr_is_within_bounds
                0x0002b640       0x3e _build/nrf52832_xxaa/nrf_fstorage.c.o
 .text.addr_is_aligned32
                0x0002b67e       0x24 _build/nrf52832_xxaa/nrf_fstorage.c.o
 .text.addr_is_page_aligned
                0x0002b6a2       0x2c _build/nrf52832_xxaa/nrf_fstorage.c.o
 .text.sd_flash_write
                0x0002b6ce        0x8 _build/nrf52832_xxaa/nrf_fstorage_sd.c.o
 .text.sd_flash_page_erase
                0x0002b6d6        0x8 _build/nrf52832_xxaa/nrf_fstorage_sd.c.o
 .text.event_send
                0x0002b6de       0x88 _build/nrf52832_xxaa/nrf_fstorage_sd.c.o
 .text.write_execute
                0x0002b766       0x5c _build/nrf52832_xxaa/nrf_fstorage_sd.c.o
 .text.erase_execute
                0x0002b7c2       0x22 _build/nrf52832_xxaa/nrf_fstorage_sd.c.o
 .text.queue_free
                0x0002b7e4       0x1c _build/nrf52832_xxaa/nrf_fstorage_sd.c.o
 .text.queue_load_next
                0x0002b800       0x34 _build/nrf52832_xxaa/nrf_fstorage_sd.c.o
 .text.queue_process
                0x0002b834       0xbc _build/nrf52832_xxaa/nrf_fstorage_sd.c.o
 .text.queue_start
                0x0002b8f0       0x30 _build/nrf52832_xxaa/nrf_fstorage_sd.c.o
 .text.on_operation_success
                0x0002b920       0x80 _build/nrf52832_xxaa/nrf_fstorage_sd.c.o
 .text.on_operation_failure
                0x0002b9a0       0x38 _build/nrf52832_xxaa/nrf_fstorage_sd.c.o
 .text.init     0x0002b9d8       0x50 _build/nrf52832_xxaa/nrf_fstorage_sd.c.o
 .text.uninit   0x0002ba28       0x30 _build/nrf52832_xxaa/nrf_fstorage_sd.c.o
 .text.write    0x0002ba58       0x78 _build/nrf52832_xxaa/nrf_fstorage_sd.c.o
 .text.read     0x0002bad0       0x24 _build/nrf52832_xxaa/nrf_fstorage_sd.c.o
 .text.erase    0x0002baf4       0x78 _build/nrf52832_xxaa/nrf_fstorage_sd.c.o
 .text.rmap     0x0002bb6c       0x18 _build/nrf52832_xxaa/nrf_fstorage_sd.c.o
 .text.wmap     0x0002bb84       0x18 _build/nrf52832_xxaa/nrf_fstorage_sd.c.o
 .text.is_busy  0x0002bb9c       0x28 _build/nrf52832_xxaa/nrf_fstorage_sd.c.o
 .text.nrf_fstorage_sys_evt_handler
                0x0002bbc4       0xb8 _build/nrf52832_xxaa/nrf_fstorage_sd.c.o
                0x0002bbc4                nrf_fstorage_sys_evt_handler
 .text.nrf_fstorage_sdh_req_handler
                0x0002bc7c       0x30 _build/nrf52832_xxaa/nrf_fstorage_sd.c.o
                0x0002bc7c                nrf_fstorage_sdh_req_handler
 .text.nrf_fstorage_sdh_state_handler
                0x0002bcac       0x40 _build/nrf52832_xxaa/nrf_fstorage_sd.c.o
                0x0002bcac                nrf_fstorage_sdh_state_handler
 .text.nrf_memobj_pool_init
                0x0002bcec       0x18 _build/nrf52832_xxaa/nrf_memobj.c.o
                0x0002bcec                nrf_memobj_pool_init
 .text.nrf_memobj_alloc
                0x0002bd04       0xac _build/nrf52832_xxaa/nrf_memobj.c.o
                0x0002bd04                nrf_memobj_alloc
 .text.nrf_memobj_free
                0x0002bdb0       0x6e _build/nrf52832_xxaa/nrf_memobj.c.o
                0x0002bdb0                nrf_memobj_free
 .text.nrf_memobj_get
                0x0002be1e       0x20 _build/nrf52832_xxaa/nrf_memobj.c.o
                0x0002be1e                nrf_memobj_get
 .text.nrf_memobj_put
                0x0002be3e       0x38 _build/nrf52832_xxaa/nrf_memobj.c.o
                0x0002be3e                nrf_memobj_put
 .text.memobj_op
                0x0002be76      0x102 _build/nrf52832_xxaa/nrf_memobj.c.o
 .text.nrf_memobj_write
                0x0002bf78       0x2c _build/nrf52832_xxaa/nrf_memobj.c.o
                0x0002bf78                nrf_memobj_write
 .text.nrf_memobj_read
                0x0002bfa4       0x2c _build/nrf52832_xxaa/nrf_memobj.c.o
                0x0002bfa4                nrf_memobj_read
 .text.NVIC_ClearPendingIRQ
                0x0002bfd0       0x34 _build/nrf52832_xxaa/nrf_pwr_mgmt.c.o
 .text.nrf_mtx_init
                0x0002c004       0x1e _build/nrf52832_xxaa/nrf_pwr_mgmt.c.o
 .text.sd_app_evt_wait
                0x0002c022        0x8 _build/nrf52832_xxaa/nrf_pwr_mgmt.c.o
 .text.pwr_mgmt_fpu_sleep_prepare
                0x0002c02a       0x44 _build/nrf52832_xxaa/nrf_pwr_mgmt.c.o
 *fill*         0x0002c06e        0x2 
 .text.nrf_pwr_mgmt_init
                0x0002c070       0x30 _build/nrf52832_xxaa/nrf_pwr_mgmt.c.o
                0x0002c070                nrf_pwr_mgmt_init
 .text.nrf_pwr_mgmt_run
                0x0002c0a0       0x2a _build/nrf52832_xxaa/nrf_pwr_mgmt.c.o
                0x0002c0a0                nrf_pwr_mgmt_run
 .text.nrf_ringbuf_init
                0x0002c0ca       0x44 _build/nrf52832_xxaa/nrf_ringbuf.c.o
                0x0002c0ca                nrf_ringbuf_init
 .text.nrf_section_iter_init
                0x0002c10e       0x3a _build/nrf52832_xxaa/nrf_section_iter.c.o
                0x0002c10e                nrf_section_iter_init
 .text.nrf_section_iter_next
                0x0002c148       0x46 _build/nrf52832_xxaa/nrf_section_iter.c.o
                0x0002c148                nrf_section_iter_next
 .text.nrf_queue_next_idx
                0x0002c18e       0x28 _build/nrf52832_xxaa/nrf_queue.c.o
 .text.queue_utilization_get
                0x0002c1b6       0x42 _build/nrf52832_xxaa/nrf_queue.c.o
 .text.nrf_queue_is_full
                0x0002c1f8       0x36 _build/nrf52832_xxaa/nrf_queue.c.o
                0x0002c1f8                nrf_queue_is_full
 *fill*         0x0002c22e        0x2 
 .text.nrf_queue_push
                0x0002c230      0x148 _build/nrf52832_xxaa/nrf_queue.c.o
                0x0002c230                nrf_queue_push
 .text.nrf_queue_generic_pop
                0x0002c378      0x110 _build/nrf52832_xxaa/nrf_queue.c.o
                0x0002c378                nrf_queue_generic_pop
 .text.queue_write
                0x0002c488      0x104 _build/nrf52832_xxaa/nrf_queue.c.o
 .text.nrf_queue_in
                0x0002c58c       0x70 _build/nrf52832_xxaa/nrf_queue.c.o
                0x0002c58c                nrf_queue_in
 .text.queue_read
                0x0002c5fc       0xd2 _build/nrf52832_xxaa/nrf_queue.c.o
 .text.nrf_queue_out
                0x0002c6ce       0x58 _build/nrf52832_xxaa/nrf_queue.c.o
                0x0002c6ce                nrf_queue_out
 .text.nrf_queue_reset
                0x0002c726       0x34 _build/nrf52832_xxaa/nrf_queue.c.o
                0x0002c726                nrf_queue_reset
 .text.nrf_queue_utilization_get
                0x0002c75a       0x30 _build/nrf52832_xxaa/nrf_queue.c.o
                0x0002c75a                nrf_queue_utilization_get
 .text.nrf_queue_is_empty
                0x0002c78a       0x32 _build/nrf52832_xxaa/nrf_queue.c.o
                0x0002c78a                nrf_queue_is_empty
 .text.nrf_queue_available_get
                0x0002c7bc       0x1e _build/nrf52832_xxaa/nrf_queue.c.o
                0x0002c7bc                nrf_queue_available_get
 *fill*         0x0002c7da        0x2 
 .text.nrf_strerror_get
                0x0002c7dc       0x28 _build/nrf52832_xxaa/nrf_strerror.c.o
                0x0002c7dc                nrf_strerror_get
 .text.nrf_strerror_find
                0x0002c804       0x70 _build/nrf52832_xxaa/nrf_strerror.c.o
                0x0002c804                nrf_strerror_find
 .text.nrfx_is_in_ram
                0x0002c874       0x26 _build/nrf52832_xxaa/nrf_serial.c.o
 *fill*         0x0002c89a        0x2 
 .text.nrf_drv_uart_tx
                0x0002c89c       0x60 _build/nrf52832_xxaa/nrf_serial.c.o
 .text.nrf_drv_uart_tx_in_progress
                0x0002c8fc       0x54 _build/nrf52832_xxaa/nrf_serial.c.o
 .text.nrf_drv_uart_rx
                0x0002c950       0x60 _build/nrf52832_xxaa/nrf_serial.c.o
 .text.nrf_drv_uart_rx_enable
                0x0002c9b0       0x3c _build/nrf52832_xxaa/nrf_serial.c.o
 .text.nrf_mtx_init
                0x0002c9ec       0x1e _build/nrf52832_xxaa/nrf_serial.c.o
 .text.nrf_mtx_trylock
                0x0002ca0a       0x2a _build/nrf52832_xxaa/nrf_serial.c.o
 .text.nrf_mtx_unlock
                0x0002ca34       0x1e _build/nrf52832_xxaa/nrf_serial.c.o
 .text.event_handler
                0x0002ca52       0x30 _build/nrf52832_xxaa/nrf_serial.c.o
 .text.sleep_handler
                0x0002ca82       0x34 _build/nrf52832_xxaa/nrf_serial.c.o
 .text.serial_tx
                0x0002cab6       0x9c _build/nrf52832_xxaa/nrf_serial.c.o
 .text.uart_event_handler
                0x0002cb52       0xd8 _build/nrf52832_xxaa/nrf_serial.c.o
 *fill*         0x0002cc2a        0x2 
 .text.nrf_serial_init
                0x0002cc2c      0x140 _build/nrf52832_xxaa/nrf_serial.c.o
                0x0002cc2c                nrf_serial_init
 .text.serial_timeout_handler
                0x0002cd6c       0x1e _build/nrf52832_xxaa/nrf_serial.c.o
 *fill*         0x0002cd8a        0x2 
 .text.timeout_setup
                0x0002cd8c       0x84 _build/nrf52832_xxaa/nrf_serial.c.o
 .text.nrf_serial_write
                0x0002ce10      0x146 _build/nrf52832_xxaa/nrf_serial.c.o
                0x0002ce10                nrf_serial_write
 .text.nrf_drv_twi_uninit
                0x0002cf56       0x1a _build/nrf52832_xxaa/nrf_twi_mngr.c.o
 .text.nrf_drv_twi_enable
                0x0002cf70       0x1a _build/nrf52832_xxaa/nrf_twi_mngr.c.o
 .text.nrf_drv_twi_xfer
                0x0002cf8a       0x50 _build/nrf52832_xxaa/nrf_twi_mngr.c.o
 .text.nrf_twi_mngr_is_idle
                0x0002cfda       0x24 _build/nrf52832_xxaa/nrf_twi_mngr.c.o
 .text.start_transfer
                0x0002cffe      0x110 _build/nrf52832_xxaa/nrf_twi_mngr.c.o
 .text.transaction_end_signal
                0x0002d10e       0x36 _build/nrf52832_xxaa/nrf_twi_mngr.c.o
 .text.start_pending_transaction
                0x0002d144       0xf4 _build/nrf52832_xxaa/nrf_twi_mngr.c.o
 .text.twi_event_handler
                0x0002d238       0x68 _build/nrf52832_xxaa/nrf_twi_mngr.c.o
 .text.nrf_twi_mngr_init
                0x0002d2a0       0x68 _build/nrf52832_xxaa/nrf_twi_mngr.c.o
                0x0002d2a0                nrf_twi_mngr_init
 .text.nrf_twi_mngr_schedule
                0x0002d308       0x36 _build/nrf52832_xxaa/nrf_twi_mngr.c.o
                0x0002d308                nrf_twi_mngr_schedule
 .text.internal_transaction_cb
                0x0002d33e       0x28 _build/nrf52832_xxaa/nrf_twi_mngr.c.o
 *fill*         0x0002d366        0x2 
 .text.nrf_twi_mngr_perform
                0x0002d368       0x70 _build/nrf52832_xxaa/nrf_twi_mngr.c.o
                0x0002d368                nrf_twi_mngr_perform
 .text.NVIC_SystemReset
                0x0002d3d8       0x28 _build/nrf52832_xxaa/system_nrf52.c.o
 .text.SystemCoreClockUpdate
                0x0002d400       0x1c _build/nrf52832_xxaa/system_nrf52.c.o
                0x0002d400                SystemCoreClockUpdate
 .text.SystemInit
                0x0002d41c      0x2d8 _build/nrf52832_xxaa/system_nrf52.c.o
                0x0002d41c                SystemInit
 .text.errata_12
                0x0002d6f4       0x64 _build/nrf52832_xxaa/system_nrf52.c.o
 .text.errata_16
                0x0002d758       0x44 _build/nrf52832_xxaa/system_nrf52.c.o
 .text.errata_31
                0x0002d79c       0x64 _build/nrf52832_xxaa/system_nrf52.c.o
 .text.errata_32
                0x0002d800       0x44 _build/nrf52832_xxaa/system_nrf52.c.o
 .text.errata_36
                0x0002d844       0x64 _build/nrf52832_xxaa/system_nrf52.c.o
 .text.errata_37
                0x0002d8a8       0x44 _build/nrf52832_xxaa/system_nrf52.c.o
 .text.errata_57
                0x0002d8ec       0x44 _build/nrf52832_xxaa/system_nrf52.c.o
 .text.errata_66
                0x0002d930       0x44 _build/nrf52832_xxaa/system_nrf52.c.o
 .text.errata_108
                0x0002d974       0x64 _build/nrf52832_xxaa/system_nrf52.c.o
 .text.errata_136
                0x0002d9d8       0x64 _build/nrf52832_xxaa/system_nrf52.c.o
 .text.errata_182
                0x0002da3c       0x2c _build/nrf52832_xxaa/system_nrf52.c.o
 .text.nrf_gpio_pin_port_decode
                0x0002da68       0x18 _build/nrf52832_xxaa/boards.c.o
 .text.nrf_gpio_cfg
                0x0002da80       0x54 _build/nrf52832_xxaa/boards.c.o
 .text.nrf_gpio_cfg_output
                0x0002dad4       0x24 _build/nrf52832_xxaa/boards.c.o
 .text.nrf_gpio_cfg_input
                0x0002daf8       0x2a _build/nrf52832_xxaa/boards.c.o
 .text.nrf_gpio_pin_set
                0x0002db22       0x2a _build/nrf52832_xxaa/boards.c.o
 .text.nrf_gpio_pin_clear
                0x0002db4c       0x2a _build/nrf52832_xxaa/boards.c.o
 .text.nrf_gpio_pin_toggle
                0x0002db76       0x46 _build/nrf52832_xxaa/boards.c.o
 .text.nrf_gpio_pin_write
                0x0002dbbc       0x26 _build/nrf52832_xxaa/boards.c.o
 .text.nrf_gpio_pin_read
                0x0002dbe2       0x2c _build/nrf52832_xxaa/boards.c.o
 .text.nrf_gpio_pin_out_read
                0x0002dc0e       0x2c _build/nrf52832_xxaa/boards.c.o
 .text.nrf_gpio_port_in_read
                0x0002dc3a       0x1a _build/nrf52832_xxaa/boards.c.o
 .text.nrf_gpio_port_out_read
                0x0002dc54       0x1a _build/nrf52832_xxaa/boards.c.o
 .text.nrf_gpio_port_out_set
                0x0002dc6e       0x1e _build/nrf52832_xxaa/boards.c.o
 .text.nrf_gpio_port_out_clear
                0x0002dc8c       0x1e _build/nrf52832_xxaa/boards.c.o
 *fill*         0x0002dcaa        0x2 
 .text.bsp_board_led_state_get
                0x0002dcac       0x48 _build/nrf52832_xxaa/boards.c.o
                0x0002dcac                bsp_board_led_state_get
 .text.bsp_board_led_on
                0x0002dcf4       0x24 _build/nrf52832_xxaa/boards.c.o
                0x0002dcf4                bsp_board_led_on
 .text.bsp_board_led_off
                0x0002dd18       0x24 _build/nrf52832_xxaa/boards.c.o
                0x0002dd18                bsp_board_led_off
 .text.bsp_board_leds_off
                0x0002dd3c       0x26 _build/nrf52832_xxaa/boards.c.o
                0x0002dd3c                bsp_board_leds_off
 .text.bsp_board_leds_on
                0x0002dd62       0x26 _build/nrf52832_xxaa/boards.c.o
                0x0002dd62                bsp_board_leds_on
 .text.bsp_board_led_invert
                0x0002dd88       0x24 _build/nrf52832_xxaa/boards.c.o
                0x0002dd88                bsp_board_led_invert
 .text.bsp_board_leds_init
                0x0002ddac       0x38 _build/nrf52832_xxaa/boards.c.o
 .text.bsp_board_button_state_get
                0x0002dde4       0x48 _build/nrf52832_xxaa/boards.c.o
                0x0002dde4                bsp_board_button_state_get
 .text.bsp_board_buttons_init
                0x0002de2c       0x34 _build/nrf52832_xxaa/boards.c.o
 .text.bsp_board_pin_to_button_idx
                0x0002de60       0x48 _build/nrf52832_xxaa/boards.c.o
                0x0002de60                bsp_board_pin_to_button_idx
 .text.bsp_board_button_idx_to_pin
                0x0002dea8       0x20 _build/nrf52832_xxaa/boards.c.o
                0x0002dea8                bsp_board_button_idx_to_pin
 .text.bsp_board_init
                0x0002dec8       0x2c _build/nrf52832_xxaa/boards.c.o
                0x0002dec8                bsp_board_init
 .text.NVIC_DisableIRQ
                0x0002def4       0x34 _build/nrf52832_xxaa/nrf_drv_clock.c.o
 .text.lfclk_stop
                0x0002df28       0x18 _build/nrf52832_xxaa/nrf_drv_clock.c.o
 .text.nrf_drv_clock_init
                0x0002df40       0x98 _build/nrf52832_xxaa/nrf_drv_clock.c.o
                0x0002df40                nrf_drv_clock_init
 .text.item_dequeue
                0x0002dfd8       0x2a _build/nrf52832_xxaa/nrf_drv_clock.c.o
 *fill*         0x0002e002        0x2 
 .text.nrf_drv_clock_lfclk_release
                0x0002e004       0x3c _build/nrf52832_xxaa/nrf_drv_clock.c.o
                0x0002e004                nrf_drv_clock_lfclk_release
 .text.clock_clk_started_notify
                0x0002e040       0x48 _build/nrf52832_xxaa/nrf_drv_clock.c.o
 .text.clock_irq_handler
                0x0002e088       0x3c _build/nrf52832_xxaa/nrf_drv_clock.c.o
 .text.soc_evt_handler
                0x0002e0c4       0x28 _build/nrf52832_xxaa/nrf_drv_clock.c.o
 .text.sd_state_evt_handler
                0x0002e0ec       0x74 _build/nrf52832_xxaa/nrf_drv_clock.c.o
 .text.uarte_evt_handler
                0x0002e160       0x50 _build/nrf52832_xxaa/nrf_drv_uart.c.o
 .text.uart_evt_handler
                0x0002e1b0       0x50 _build/nrf52832_xxaa/nrf_drv_uart.c.o
 .text.nrf_drv_uart_init
                0x0002e200       0xcc _build/nrf52832_xxaa/nrf_drv_uart.c.o
                0x0002e200                nrf_drv_uart_init
 .text.nrfx_coredep_delay_us
                0x0002e2cc       0x30 _build/nrf52832_xxaa/nrf_drv_twi.c.o
 .text.nrf_gpio_pin_port_decode
                0x0002e2fc       0x18 _build/nrf52832_xxaa/nrf_drv_twi.c.o
 .text.nrf_gpio_pin_set
                0x0002e314       0x2a _build/nrf52832_xxaa/nrf_drv_twi.c.o
 .text.nrf_gpio_pin_clear
                0x0002e33e       0x2a _build/nrf52832_xxaa/nrf_drv_twi.c.o
 .text.nrf_gpio_pin_read
                0x0002e368       0x2c _build/nrf52832_xxaa/nrf_drv_twi.c.o
 .text.nrf_gpio_port_in_read
                0x0002e394       0x1a _build/nrf52832_xxaa/nrf_drv_twi.c.o
 .text.nrf_gpio_port_out_set
                0x0002e3ae       0x1e _build/nrf52832_xxaa/nrf_drv_twi.c.o
 .text.nrf_gpio_port_out_clear
                0x0002e3cc       0x1e _build/nrf52832_xxaa/nrf_drv_twi.c.o
 .text.twi_clear_bus
                0x0002e3ea       0xe0 _build/nrf52832_xxaa/nrf_drv_twi.c.o
 *fill*         0x0002e4ca        0x2 
 .text.twi_evt_handler
                0x0002e4cc       0x64 _build/nrf52832_xxaa/nrf_drv_twi.c.o
 .text.nrf_drv_twi_init
                0x0002e530       0x6c _build/nrf52832_xxaa/nrf_drv_twi.c.o
                0x0002e530                nrf_drv_twi_init
 .text.NVIC_EnableIRQ
                0x0002e59c       0x34 _build/nrf52832_xxaa/nrfx_clock.c.o
 .text.NVIC_SetPriority
                0x0002e5d0       0x54 _build/nrf52832_xxaa/nrfx_clock.c.o
 .text.nrfx_get_irq_number
                0x0002e624       0x1a _build/nrf52832_xxaa/nrfx_clock.c.o
 .text._NRFX_IRQ_PRIORITY_SET
                0x0002e63e       0x26 _build/nrf52832_xxaa/nrfx_clock.c.o
 .text._NRFX_IRQ_ENABLE
                0x0002e664       0x1c _build/nrf52832_xxaa/nrfx_clock.c.o
 .text._NRFX_IRQ_IS_ENABLED
                0x0002e680       0x54 _build/nrf52832_xxaa/nrfx_clock.c.o
 .text.nrf_clock_int_disable
                0x0002e6d4       0x1e _build/nrf52832_xxaa/nrfx_clock.c.o
 .text.nrf_clock_task_trigger
                0x0002e6f2       0x20 _build/nrf52832_xxaa/nrfx_clock.c.o
 .text.nrf_clock_event_clear
                0x0002e712       0x2c _build/nrf52832_xxaa/nrfx_clock.c.o
 .text.nrf_clock_event_check
                0x0002e73e       0x28 _build/nrf52832_xxaa/nrfx_clock.c.o
 .text.nrf_clock_lf_src_set
                0x0002e766       0x1e _build/nrf52832_xxaa/nrfx_clock.c.o
 .text.nrf_clock_lf_is_running
                0x0002e784       0x26 _build/nrf52832_xxaa/nrfx_clock.c.o
 .text.nrfx_power_clock_irq_init
                0x0002e7aa       0x54 _build/nrf52832_xxaa/nrfx_clock.c.o
 *fill*         0x0002e7fe        0x2 
 .text.nrfx_clock_init
                0x0002e800       0x6c _build/nrf52832_xxaa/nrfx_clock.c.o
                0x0002e800                nrfx_clock_init
 .text.nrfx_clock_enable
                0x0002e86c       0x34 _build/nrf52832_xxaa/nrfx_clock.c.o
                0x0002e86c                nrfx_clock_enable
 .text.nrfx_clock_lfclk_stop
                0x0002e8a0       0x1a _build/nrf52832_xxaa/nrfx_clock.c.o
                0x0002e8a0                nrfx_clock_lfclk_stop
 *fill*         0x0002e8ba        0x2 
 .text.POWER_CLOCK_IRQHandler
                0x0002e8bc       0x68 _build/nrf52832_xxaa/nrfx_clock.c.o
                0x0002e8bc                POWER_CLOCK_IRQHandler
 .text.NVIC_EnableIRQ
                0x0002e924       0x34 _build/nrf52832_xxaa/nrfx_gpiote.c.o
 .text.NVIC_SetPriority
                0x0002e958       0x54 _build/nrf52832_xxaa/nrfx_gpiote.c.o
 .text._NRFX_IRQ_PRIORITY_SET
                0x0002e9ac       0x26 _build/nrf52832_xxaa/nrfx_gpiote.c.o
 .text._NRFX_IRQ_ENABLE
                0x0002e9d2       0x1c _build/nrf52832_xxaa/nrfx_gpiote.c.o
 .text.nrf_gpiote_event_is_set
                0x0002e9ee       0x28 _build/nrf52832_xxaa/nrfx_gpiote.c.o
 .text.nrf_gpiote_event_clear
                0x0002ea16       0x32 _build/nrf52832_xxaa/nrfx_gpiote.c.o
 .text.nrf_gpiote_event_addr_get
                0x0002ea48       0x20 _build/nrf52832_xxaa/nrfx_gpiote.c.o
 .text.nrf_gpiote_int_enable
                0x0002ea68       0x20 _build/nrf52832_xxaa/nrfx_gpiote.c.o
 .text.nrf_gpiote_int_is_enabled
                0x0002ea88       0x24 _build/nrf52832_xxaa/nrfx_gpiote.c.o
 .text.nrf_gpiote_event_enable
                0x0002eaac       0x34 _build/nrf52832_xxaa/nrfx_gpiote.c.o
 .text.nrf_gpiote_event_configure
                0x0002eae0       0x6c _build/nrf52832_xxaa/nrfx_gpiote.c.o
 .text.nrf_gpiote_event_pin_get
                0x0002eb4c       0x2c _build/nrf52832_xxaa/nrfx_gpiote.c.o
 .text.nrf_gpiote_event_polarity_get
                0x0002eb78       0x2c _build/nrf52832_xxaa/nrfx_gpiote.c.o
 .text.nrf_gpio_pin_port_decode
                0x0002eba4       0x18 _build/nrf52832_xxaa/nrfx_gpiote.c.o
 .text.nrf_gpio_cfg
                0x0002ebbc       0x54 _build/nrf52832_xxaa/nrfx_gpiote.c.o
 .text.nrf_gpio_cfg_input
                0x0002ec10       0x2a _build/nrf52832_xxaa/nrfx_gpiote.c.o
 .text.nrf_gpio_cfg_watcher
                0x0002ec3a       0x3a _build/nrf52832_xxaa/nrfx_gpiote.c.o
 .text.nrf_gpio_cfg_sense_set
                0x0002ec74       0x5a _build/nrf52832_xxaa/nrfx_gpiote.c.o
 .text.nrf_gpio_pin_read
                0x0002ecce       0x2c _build/nrf52832_xxaa/nrfx_gpiote.c.o
 .text.nrf_gpio_pin_sense_get
                0x0002ecfa       0x2e _build/nrf52832_xxaa/nrfx_gpiote.c.o
 .text.nrf_gpio_port_in_read
                0x0002ed28       0x1a _build/nrf52832_xxaa/nrfx_gpiote.c.o
 .text.nrf_gpio_ports_read
                0x0002ed42       0x52 _build/nrf52832_xxaa/nrfx_gpiote.c.o
 .text.nrf_bitmask_bit_is_set
                0x0002ed94       0x3a _build/nrf52832_xxaa/nrfx_gpiote.c.o
 .text.nrf_bitmask_bit_set
                0x0002edce       0x4a _build/nrf52832_xxaa/nrfx_gpiote.c.o
 .text.pin_in_use_by_te
                0x0002ee18       0x44 _build/nrf52832_xxaa/nrfx_gpiote.c.o
 .text.pin_in_use_by_port
                0x0002ee5c       0x30 _build/nrf52832_xxaa/nrfx_gpiote.c.o
 .text.pin_in_use_by_gpiote
                0x0002ee8c       0x2c _build/nrf52832_xxaa/nrfx_gpiote.c.o
 .text.pin_in_use_by_te_set
                0x0002eeb8       0x58 _build/nrf52832_xxaa/nrfx_gpiote.c.o
 .text.pin_in_use_clear
                0x0002ef10       0x24 _build/nrf52832_xxaa/nrfx_gpiote.c.o
 .text.pin_configured_set
                0x0002ef34       0x1c _build/nrf52832_xxaa/nrfx_gpiote.c.o
 .text.channel_port_get
                0x0002ef50       0x24 _build/nrf52832_xxaa/nrfx_gpiote.c.o
 .text.channel_handler_get
                0x0002ef74       0x20 _build/nrf52832_xxaa/nrfx_gpiote.c.o
 .text.channel_port_alloc
                0x0002ef94       0x74 _build/nrf52832_xxaa/nrfx_gpiote.c.o
 .text.channel_free
                0x0002f008       0x3c _build/nrf52832_xxaa/nrfx_gpiote.c.o
 .text.nrfx_gpiote_init
                0x0002f044       0x94 _build/nrf52832_xxaa/nrfx_gpiote.c.o
                0x0002f044                nrfx_gpiote_init
 .text.nrfx_gpiote_is_init
                0x0002f0d8       0x24 _build/nrf52832_xxaa/nrfx_gpiote.c.o
                0x0002f0d8                nrfx_gpiote_is_init
 .text.nrfx_gpiote_in_init
                0x0002f0fc       0xe0 _build/nrf52832_xxaa/nrfx_gpiote.c.o
                0x0002f0fc                nrfx_gpiote_in_init
 .text.nrfx_gpiote_in_event_enable
                0x0002f1dc       0xd0 _build/nrf52832_xxaa/nrfx_gpiote.c.o
                0x0002f1dc                nrfx_gpiote_in_event_enable
 .text.nrfx_gpiote_in_is_set
                0x0002f2ac       0x22 _build/nrf52832_xxaa/nrfx_gpiote.c.o
                0x0002f2ac                nrfx_gpiote_in_is_set
 *fill*         0x0002f2ce        0x2 
 .text.GPIOTE_IRQHandler
                0x0002f2d0      0x2e0 _build/nrf52832_xxaa/nrfx_gpiote.c.o
                0x0002f2d0                GPIOTE_IRQHandler
 .text.UARTE0_UART0_IRQHandler
                0x0002f5b0       0x14 _build/nrf52832_xxaa/nrfx_prs.c.o
                0x0002f5b0                UARTE0_UART0_IRQHandler
 .text.prs_box_get
                0x0002f5c4       0x2c _build/nrf52832_xxaa/nrfx_prs.c.o
 .text.nrfx_prs_acquire
                0x0002f5f0       0x68 _build/nrf52832_xxaa/nrfx_prs.c.o
                0x0002f5f0                nrfx_prs_acquire
 .text.nrfx_prs_release
                0x0002f658       0x2a _build/nrf52832_xxaa/nrfx_prs.c.o
                0x0002f658                nrfx_prs_release
 *fill*         0x0002f682        0x2 
 .text.NVIC_EnableIRQ
                0x0002f684       0x34 _build/nrf52832_xxaa/nrfx_uart.c.o
 .text.NVIC_SetPriority
                0x0002f6b8       0x54 _build/nrf52832_xxaa/nrfx_uart.c.o
 .text.nrfx_get_irq_number
                0x0002f70c       0x1a _build/nrf52832_xxaa/nrfx_uart.c.o
 .text._NRFX_IRQ_PRIORITY_SET
                0x0002f726       0x26 _build/nrf52832_xxaa/nrfx_uart.c.o
 .text._NRFX_IRQ_ENABLE
                0x0002f74c       0x1c _build/nrf52832_xxaa/nrfx_uart.c.o
 .text.nrf_uart_event_clear
                0x0002f768       0x2e _build/nrf52832_xxaa/nrfx_uart.c.o
 .text.nrf_uart_event_check
                0x0002f796       0x2a _build/nrf52832_xxaa/nrfx_uart.c.o
 .text.nrf_uart_int_enable
                0x0002f7c0       0x1e _build/nrf52832_xxaa/nrfx_uart.c.o
 .text.nrf_uart_int_enable_check
                0x0002f7de       0x2a _build/nrf52832_xxaa/nrfx_uart.c.o
 .text.nrf_uart_int_disable
                0x0002f808       0x1e _build/nrf52832_xxaa/nrfx_uart.c.o
 .text.nrf_uart_errorsrc_get_and_clear
                0x0002f826       0x26 _build/nrf52832_xxaa/nrfx_uart.c.o
 .text.nrf_uart_enable
                0x0002f84c       0x1c _build/nrf52832_xxaa/nrfx_uart.c.o
 .text.nrf_uart_txrx_pins_set
                0x0002f868       0x28 _build/nrf52832_xxaa/nrfx_uart.c.o
 .text.nrf_uart_hwfc_pins_set
                0x0002f890       0x28 _build/nrf52832_xxaa/nrfx_uart.c.o
 .text.nrf_uart_rxd_get
                0x0002f8b8       0x1c _build/nrf52832_xxaa/nrfx_uart.c.o
 .text.nrf_uart_txd_set
                0x0002f8d4       0x20 _build/nrf52832_xxaa/nrfx_uart.c.o
 .text.nrf_uart_task_trigger
                0x0002f8f4       0x22 _build/nrf52832_xxaa/nrfx_uart.c.o
 .text.nrf_uart_configure
                0x0002f916       0x2c _build/nrf52832_xxaa/nrfx_uart.c.o
 .text.nrf_uart_baudrate_set
                0x0002f942       0x1e _build/nrf52832_xxaa/nrfx_uart.c.o
 .text.nrf_gpio_pin_port_decode
                0x0002f960       0x18 _build/nrf52832_xxaa/nrfx_uart.c.o
 .text.nrf_gpio_cfg
                0x0002f978       0x54 _build/nrf52832_xxaa/nrfx_uart.c.o
 .text.nrf_gpio_cfg_output
                0x0002f9cc       0x24 _build/nrf52832_xxaa/nrfx_uart.c.o
 .text.nrf_gpio_cfg_input
                0x0002f9f0       0x2a _build/nrf52832_xxaa/nrfx_uart.c.o
 .text.nrf_gpio_pin_set
                0x0002fa1a       0x2a _build/nrf52832_xxaa/nrfx_uart.c.o
 .text.nrf_gpio_port_out_set
                0x0002fa44       0x1e _build/nrf52832_xxaa/nrfx_uart.c.o
 .text.apply_config
                0x0002fa62       0xc8 _build/nrf52832_xxaa/nrfx_uart.c.o
 *fill*         0x0002fb2a        0x2 
 .text.interrupts_enable
                0x0002fb2c       0x6c _build/nrf52832_xxaa/nrfx_uart.c.o
 .text.nrfx_uart_init
                0x0002fb98       0xc4 _build/nrf52832_xxaa/nrfx_uart.c.o
                0x0002fb98                nrfx_uart_init
 .text.tx_byte  0x0002fc5c       0x3e _build/nrf52832_xxaa/nrfx_uart.c.o
 .text.tx_blocking
                0x0002fc9a       0x50 _build/nrf52832_xxaa/nrfx_uart.c.o
 *fill*         0x0002fcea        0x2 
 .text.nrfx_uart_tx
                0x0002fcec       0xd8 _build/nrf52832_xxaa/nrfx_uart.c.o
                0x0002fcec                nrfx_uart_tx
 .text.nrfx_uart_tx_in_progress
                0x0002fdc4       0x38 _build/nrf52832_xxaa/nrfx_uart.c.o
                0x0002fdc4                nrfx_uart_tx_in_progress
 .text.rx_enable
                0x0002fdfc       0x38 _build/nrf52832_xxaa/nrfx_uart.c.o
 .text.rx_byte  0x0002fe34       0x52 _build/nrf52832_xxaa/nrfx_uart.c.o
 *fill*         0x0002fe86        0x2 
 .text.nrfx_uart_rx
                0x0002fe88      0x1bc _build/nrf52832_xxaa/nrfx_uart.c.o
                0x0002fe88                nrfx_uart_rx
 .text.nrfx_uart_rx_enable
                0x00030044       0x50 _build/nrf52832_xxaa/nrfx_uart.c.o
                0x00030044                nrfx_uart_rx_enable
 .text.rx_done_event
                0x00030094       0x30 _build/nrf52832_xxaa/nrfx_uart.c.o
 .text.tx_done_event
                0x000300c4       0x36 _build/nrf52832_xxaa/nrfx_uart.c.o
 .text.uart_irq_handler
                0x000300fa      0x1dc _build/nrf52832_xxaa/nrfx_uart.c.o
 *fill*         0x000302d6        0x2 
 .text.nrfx_uart_0_irq_handler
                0x000302d8       0x18 _build/nrf52832_xxaa/nrfx_uart.c.o
                0x000302d8                nrfx_uart_0_irq_handler
 .text.NVIC_EnableIRQ
                0x000302f0       0x34 _build/nrf52832_xxaa/nrfx_uarte.c.o
 .text.NVIC_SetPriority
                0x00030324       0x54 _build/nrf52832_xxaa/nrfx_uarte.c.o
 .text.nrfx_is_in_ram
                0x00030378       0x26 _build/nrf52832_xxaa/nrfx_uarte.c.o
 .text.nrfx_get_irq_number
                0x0003039e       0x1a _build/nrf52832_xxaa/nrfx_uarte.c.o
 .text._NRFX_IRQ_PRIORITY_SET
                0x000303b8       0x26 _build/nrf52832_xxaa/nrfx_uarte.c.o
 .text._NRFX_IRQ_ENABLE
                0x000303de       0x1c _build/nrf52832_xxaa/nrfx_uarte.c.o
 .text.nrf_uarte_event_clear
                0x000303fa       0x2e _build/nrf52832_xxaa/nrfx_uarte.c.o
 .text.nrf_uarte_event_check
                0x00030428       0x2a _build/nrf52832_xxaa/nrfx_uarte.c.o
 .text.nrf_uarte_shorts_enable
                0x00030452       0x26 _build/nrf52832_xxaa/nrfx_uarte.c.o
 .text.nrf_uarte_shorts_disable
                0x00030478       0x28 _build/nrf52832_xxaa/nrfx_uarte.c.o
 .text.nrf_uarte_int_enable
                0x000304a0       0x1e _build/nrf52832_xxaa/nrfx_uarte.c.o
 .text.nrf_uarte_int_disable
                0x000304be       0x1e _build/nrf52832_xxaa/nrfx_uarte.c.o
 .text.nrf_uarte_errorsrc_get_and_clear
                0x000304dc       0x26 _build/nrf52832_xxaa/nrfx_uarte.c.o
 .text.nrf_uarte_enable
                0x00030502       0x1c _build/nrf52832_xxaa/nrfx_uarte.c.o
 .text.nrf_uarte_txrx_pins_set
                0x0003051e       0x28 _build/nrf52832_xxaa/nrfx_uarte.c.o
 .text.nrf_uarte_hwfc_pins_set
                0x00030546       0x28 _build/nrf52832_xxaa/nrfx_uarte.c.o
 .text.nrf_uarte_task_trigger
                0x0003056e       0x22 _build/nrf52832_xxaa/nrfx_uarte.c.o
 .text.nrf_uarte_configure
                0x00030590       0x2c _build/nrf52832_xxaa/nrfx_uarte.c.o
 .text.nrf_uarte_baudrate_set
                0x000305bc       0x1e _build/nrf52832_xxaa/nrfx_uarte.c.o
 .text.nrf_uarte_tx_buffer_set
                0x000305da       0x28 _build/nrf52832_xxaa/nrfx_uarte.c.o
 .text.nrf_uarte_tx_amount_get
                0x00030602       0x1a _build/nrf52832_xxaa/nrfx_uarte.c.o
 .text.nrf_uarte_rx_buffer_set
                0x0003061c       0x28 _build/nrf52832_xxaa/nrfx_uarte.c.o
 .text.nrf_uarte_rx_amount_get
                0x00030644       0x1a _build/nrf52832_xxaa/nrfx_uarte.c.o
 .text.nrf_gpio_pin_port_decode
                0x0003065e       0x18 _build/nrf52832_xxaa/nrfx_uarte.c.o
 .text.nrf_gpio_cfg
                0x00030676       0x54 _build/nrf52832_xxaa/nrfx_uarte.c.o
 .text.nrf_gpio_cfg_output
                0x000306ca       0x24 _build/nrf52832_xxaa/nrfx_uarte.c.o
 .text.nrf_gpio_cfg_input
                0x000306ee       0x2a _build/nrf52832_xxaa/nrfx_uarte.c.o
 .text.nrf_gpio_pin_set
                0x00030718       0x2a _build/nrf52832_xxaa/nrfx_uarte.c.o
 .text.nrf_gpio_port_out_set
                0x00030742       0x1e _build/nrf52832_xxaa/nrfx_uarte.c.o
 .text.apply_config
                0x00030760       0xc8 _build/nrf52832_xxaa/nrfx_uarte.c.o
 .text.interrupts_enable
                0x00030828       0x88 _build/nrf52832_xxaa/nrfx_uarte.c.o
 .text.nrfx_uarte_init
                0x000308b0       0xbc _build/nrf52832_xxaa/nrfx_uarte.c.o
                0x000308b0                nrfx_uarte_init
 .text.nrfx_uarte_tx
                0x0003096c       0xfc _build/nrf52832_xxaa/nrfx_uarte.c.o
                0x0003096c                nrfx_uarte_tx
 .text.nrfx_uarte_tx_in_progress
                0x00030a68       0x38 _build/nrf52832_xxaa/nrfx_uarte.c.o
                0x00030a68                nrfx_uarte_tx_in_progress
 .text.nrfx_uarte_rx
                0x00030aa0      0x1c4 _build/nrf52832_xxaa/nrfx_uarte.c.o
                0x00030aa0                nrfx_uarte_rx
 .text.rx_done_event
                0x00030c64       0x30 _build/nrf52832_xxaa/nrfx_uarte.c.o
 .text.tx_done_event
                0x00030c94       0x36 _build/nrf52832_xxaa/nrfx_uarte.c.o
 .text.uarte_irq_handler
                0x00030cca      0x154 _build/nrf52832_xxaa/nrfx_uarte.c.o
 *fill*         0x00030e1e        0x2 
 .text.nrfx_uarte_0_irq_handler
                0x00030e20       0x18 _build/nrf52832_xxaa/nrfx_uarte.c.o
                0x00030e20                nrfx_uarte_0_irq_handler
 .text.NVIC_EnableIRQ
                0x00030e38       0x34 _build/nrf52832_xxaa/nrfx_twi.c.o
 .text.NVIC_DisableIRQ
                0x00030e6c       0x34 _build/nrf52832_xxaa/nrfx_twi.c.o
 .text.NVIC_SetPriority
                0x00030ea0       0x54 _build/nrf52832_xxaa/nrfx_twi.c.o
 .text.nrfx_get_irq_number
                0x00030ef4       0x1a _build/nrf52832_xxaa/nrfx_twi.c.o
 .text._NRFX_IRQ_PRIORITY_SET
                0x00030f0e       0x26 _build/nrf52832_xxaa/nrfx_twi.c.o
 .text._NRFX_IRQ_ENABLE
                0x00030f34       0x1c _build/nrf52832_xxaa/nrfx_twi.c.o
 .text._NRFX_IRQ_DISABLE
                0x00030f50       0x1c _build/nrf52832_xxaa/nrfx_twi.c.o
 .text.nrf_twi_task_trigger
                0x00030f6c       0x22 _build/nrf52832_xxaa/nrfx_twi.c.o
 .text.nrf_twi_event_clear
                0x00030f8e       0x2e _build/nrf52832_xxaa/nrfx_twi.c.o
 .text.nrf_twi_event_check
                0x00030fbc       0x2a _build/nrf52832_xxaa/nrfx_twi.c.o
 .text.nrf_twi_shorts_disable
                0x00030fe6       0x28 _build/nrf52832_xxaa/nrfx_twi.c.o
 .text.nrf_twi_int_enable
                0x0003100e       0x1e _build/nrf52832_xxaa/nrfx_twi.c.o
 .text.nrf_twi_int_disable
                0x0003102c       0x1e _build/nrf52832_xxaa/nrfx_twi.c.o
 .text.nrf_twi_enable
                0x0003104a       0x1c _build/nrf52832_xxaa/nrfx_twi.c.o
 .text.nrf_twi_disable
                0x00031066       0x1c _build/nrf52832_xxaa/nrfx_twi.c.o
 .text.nrf_twi_pins_set
                0x00031082       0x28 _build/nrf52832_xxaa/nrfx_twi.c.o
 .text.nrf_twi_scl_pin_get
                0x000310aa       0x1a _build/nrf52832_xxaa/nrfx_twi.c.o
 .text.nrf_twi_sda_pin_get
                0x000310c4       0x1a _build/nrf52832_xxaa/nrfx_twi.c.o
 .text.nrf_twi_frequency_set
                0x000310de       0x1e _build/nrf52832_xxaa/nrfx_twi.c.o
 .text.nrf_twi_errorsrc_get_and_clear
                0x000310fc       0x26 _build/nrf52832_xxaa/nrfx_twi.c.o
 .text.nrf_twi_address_set
                0x00031122       0x20 _build/nrf52832_xxaa/nrfx_twi.c.o
 .text.nrf_twi_rxd_get
                0x00031142       0x1c _build/nrf52832_xxaa/nrfx_twi.c.o
 .text.nrf_twi_txd_set
                0x0003115e       0x20 _build/nrf52832_xxaa/nrfx_twi.c.o
 .text.nrf_twi_shorts_set
                0x0003117e       0x1e _build/nrf52832_xxaa/nrfx_twi.c.o
 .text.nrf_gpio_pin_port_decode
                0x0003119c       0x18 _build/nrf52832_xxaa/nrfx_twi.c.o
 .text.nrf_gpio_cfg
                0x000311b4       0x54 _build/nrf52832_xxaa/nrfx_twi.c.o
 .text.nrf_gpio_cfg_default
                0x00031208       0x24 _build/nrf52832_xxaa/nrfx_twi.c.o
 .text.twi_process_error
                0x0003122c       0x4a _build/nrf52832_xxaa/nrfx_twi.c.o
 *fill*         0x00031276        0x2 
 .text.nrfx_twi_init
                0x00031278      0x128 _build/nrf52832_xxaa/nrfx_twi.c.o
                0x00031278                nrfx_twi_init
 .text.nrfx_twi_uninit
                0x000313a0       0x90 _build/nrf52832_xxaa/nrfx_twi.c.o
                0x000313a0                nrfx_twi_uninit
 .text.nrfx_twi_enable
                0x00031430       0x3c _build/nrf52832_xxaa/nrfx_twi.c.o
                0x00031430                nrfx_twi_enable
 .text.nrfx_twi_disable
                0x0003146c       0x50 _build/nrf52832_xxaa/nrfx_twi.c.o
                0x0003146c                nrfx_twi_disable
 .text.twi_send_byte
                0x000314bc       0x5a _build/nrf52832_xxaa/nrfx_twi.c.o
 .text.twi_receive_byte
                0x00031516       0x66 _build/nrf52832_xxaa/nrfx_twi.c.o
 .text.twi_transfer
                0x0003157c      0x166 _build/nrf52832_xxaa/nrfx_twi.c.o
 *fill*         0x000316e2        0x2 
 .text.twi_tx_start_transfer
                0x000316e4      0x110 _build/nrf52832_xxaa/nrfx_twi.c.o
 .text.twi_rx_start_transfer
                0x000317f4      0x104 _build/nrf52832_xxaa/nrfx_twi.c.o
 .text.twi_xfer
                0x000318f8      0x108 _build/nrf52832_xxaa/nrfx_twi.c.o
 .text.nrfx_twi_xfer
                0x00031a00       0x44 _build/nrf52832_xxaa/nrfx_twi.c.o
                0x00031a00                nrfx_twi_xfer
 .text.twi_irq_handler
                0x00031a44      0x138 _build/nrf52832_xxaa/nrfx_twi.c.o
 .text.SPIM0_SPIS0_TWIM0_TWIS0_SPI0_TWI0_IRQHandler
                0x00031b7c       0x18 _build/nrf52832_xxaa/nrfx_twi.c.o
                0x00031b7c                SPIM0_SPIS0_TWIM0_TWIS0_SPI0_TWI0_IRQHandler
 .text.nrf_gpio_pin_port_decode
                0x00031b94       0x18 _build/nrf52832_xxaa/bsp.c.o
 .text.nrf_gpio_cfg_sense_set
                0x00031bac       0x5a _build/nrf52832_xxaa/bsp.c.o
 .text.bsp_button_is_pressed
                0x00031c06       0x22 _build/nrf52832_xxaa/bsp.c.o
                0x00031c06                bsp_button_is_pressed
 .text.bsp_button_event_handler
                0x00031c28      0x118 _build/nrf52832_xxaa/bsp.c.o
 .text.button_timer_handler
                0x00031d40       0x1c _build/nrf52832_xxaa/bsp.c.o
 .text.leds_off
                0x00031d5c       0x40 _build/nrf52832_xxaa/bsp.c.o
 .text.bsp_led_indication
                0x00031d9c      0x48c _build/nrf52832_xxaa/bsp.c.o
 .text.leds_timer_handler
                0x00032228       0x30 _build/nrf52832_xxaa/bsp.c.o
 .text.alert_timer_handler
                0x00032258       0x16 _build/nrf52832_xxaa/bsp.c.o
 *fill*         0x0003226e        0x2 
 .text.bsp_indication_set
                0x00032270       0x34 _build/nrf52832_xxaa/bsp.c.o
                0x00032270                bsp_indication_set
 .text.bsp_init
                0x000322a4       0xdc _build/nrf52832_xxaa/bsp.c.o
                0x000322a4                bsp_init
 .text.bsp_event_to_button_action_assign
                0x00032380       0x9c _build/nrf52832_xxaa/bsp.c.o
                0x00032380                bsp_event_to_button_action_assign
 .text.wakeup_button_cfg
                0x0003241c       0x40 _build/nrf52832_xxaa/bsp.c.o
 .text.bsp_wakeup_button_enable
                0x0003245c       0x1a _build/nrf52832_xxaa/bsp.c.o
                0x0003245c                bsp_wakeup_button_enable
 .text.connection_buttons_configure
                0x00032476       0x64 _build/nrf52832_xxaa/bsp_btn_ble.c.o
 .text.advertising_buttons_configure
                0x000324da       0x64 _build/nrf52832_xxaa/bsp_btn_ble.c.o
 .text.startup_event_extract
                0x0003253e       0x3e _build/nrf52832_xxaa/bsp_btn_ble.c.o
 .text.bsp_btn_ble_sleep_mode_prepare
                0x0003257c       0x40 _build/nrf52832_xxaa/bsp_btn_ble.c.o
                0x0003257c                bsp_btn_ble_sleep_mode_prepare
 .text.ble_evt_handler
                0x000325bc       0x88 _build/nrf52832_xxaa/bsp_btn_ble.c.o
 .text.bsp_btn_ble_init
                0x00032644       0x40 _build/nrf52832_xxaa/bsp_btn_ble.c.o
                0x00032644                bsp_btn_ble_init
 .text.sd_ble_gap_disconnect
                0x00032684        0x8 _build/nrf52832_xxaa/main.c.o
 .text.sd_ble_gap_ppcp_set
                0x0003268c        0x8 _build/nrf52832_xxaa/main.c.o
 .text.sd_ble_gap_device_name_set
                0x00032694        0x8 _build/nrf52832_xxaa/main.c.o
 .text.sd_ble_gap_phy_update
                0x0003269c        0x8 _build/nrf52832_xxaa/main.c.o
 .text.sd_power_system_off
                0x000326a4        0x8 _build/nrf52832_xxaa/main.c.o
 .text.nrf_gpio_pin_port_decode
                0x000326ac       0x18 _build/nrf52832_xxaa/main.c.o
 .text.nrf_gpio_cfg
                0x000326c4       0x54 _build/nrf52832_xxaa/main.c.o
 .text.nrf_gpio_cfg_output
                0x00032718       0x24 _build/nrf52832_xxaa/main.c.o
 .text.nrf_gpio_cfg_input
                0x0003273c       0x2a _build/nrf52832_xxaa/main.c.o
 .text.nrf_gpio_pin_set
                0x00032766       0x2a _build/nrf52832_xxaa/main.c.o
 .text.nrf_gpio_pin_clear
                0x00032790       0x2a _build/nrf52832_xxaa/main.c.o
 .text.nrf_gpio_port_out_set
                0x000327ba       0x1e _build/nrf52832_xxaa/main.c.o
 .text.nrf_gpio_port_out_clear
                0x000327d8       0x1e _build/nrf52832_xxaa/main.c.o
 *fill*         0x000327f6        0x2 
 .text.bat_stat_callback
                0x000327f8       0x64 _build/nrf52832_xxaa/main.c.o
 .text.battery_read_status
                0x0003285c       0x2c _build/nrf52832_xxaa/main.c.o
 .text.twi_config
                0x00032888       0x2c _build/nrf52832_xxaa/main.c.o
 .text.osc_ext_callback
                0x000328b4       0x3c _build/nrf52832_xxaa/main.c.o
 .text.osc_ext_init
                0x000328f0       0x64 _build/nrf52832_xxaa/main.c.o
 .text.ad5933_set_pointer
                0x00032954       0x50 _build/nrf52832_xxaa/main.c.o
 .text.ad5933_read_byte
                0x000329a4       0x48 _build/nrf52832_xxaa/main.c.o
 .text.ad5933_read_bloc
                0x000329ec       0x6c _build/nrf52832_xxaa/main.c.o
 .text.ad5933_write_byte
                0x00032a58       0x64 _build/nrf52832_xxaa/main.c.o
 .text.ad5933_write_bloc
                0x00032abc       0x84 _build/nrf52832_xxaa/main.c.o
 .text.timer_timeout_handler
                0x00032b40      0x1f0 _build/nrf52832_xxaa/main.c.o
                0x00032b40                timer_timeout_handler
 .text.timers_init
                0x00032d30       0x48 _build/nrf52832_xxaa/main.c.o
 .text.application_timers_start
                0x00032d78       0x34 _build/nrf52832_xxaa/main.c.o
 .text.pm_evt_handler
                0x00032dac       0x2e _build/nrf52832_xxaa/main.c.o
 *fill*         0x00032dda        0x2 
 .text.serial_uart_init
                0x00032ddc       0x38 _build/nrf52832_xxaa/main.c.o
 .text.gap_params_init
                0x00032e14       0x84 _build/nrf52832_xxaa/main.c.o
 .text.gatt_init
                0x00032e98       0x2c _build/nrf52832_xxaa/main.c.o
 .text.nrf_qwr_error_handler
                0x00032ec4       0x16 _build/nrf52832_xxaa/main.c.o
 *fill*         0x00032eda        0x2 
 .text.services_init
                0x00032edc       0x3c _build/nrf52832_xxaa/main.c.o
 .text.on_conn_params_evt
                0x00032f18       0x3c _build/nrf52832_xxaa/main.c.o
 .text.conn_params_error_handler
                0x00032f54       0x16 _build/nrf52832_xxaa/main.c.o
 *fill*         0x00032f6a        0x2 
 .text.conn_params_init
                0x00032f6c       0x60 _build/nrf52832_xxaa/main.c.o
 .text.sleep_mode_enter
                0x00032fcc       0x52 _build/nrf52832_xxaa/main.c.o
 *fill*         0x0003301e        0x2 
 .text.on_adv_evt
                0x00033020       0x64 _build/nrf52832_xxaa/main.c.o
 .text.ble_evt_handler
                0x00033084      0x138 _build/nrf52832_xxaa/main.c.o
 .text.ble_stack_init
                0x000331bc       0x5e _build/nrf52832_xxaa/main.c.o
 *fill*         0x0003321a        0x2 
 .text.peer_manager_init
                0x0003321c       0xc0 _build/nrf52832_xxaa/main.c.o
 .text.delete_bonds
                0x000332dc       0x48 _build/nrf52832_xxaa/main.c.o
 .text.bsp_event_handler
                0x00033324       0x88 _build/nrf52832_xxaa/main.c.o
 .text.advertising_init
                0x000333ac       0x84 _build/nrf52832_xxaa/main.c.o
 .text.buttons_leds_init
                0x00033430       0x5c _build/nrf52832_xxaa/main.c.o
 .text.log_init
                0x0003348c       0x2e _build/nrf52832_xxaa/main.c.o
 .text.power_management_init
                0x000334ba       0x24 _build/nrf52832_xxaa/main.c.o
 .text.idle_state_handle
                0x000334de       0x1c _build/nrf52832_xxaa/main.c.o
 *fill*         0x000334fa        0x2 
 .text.advertising_start
                0x000334fc       0x3c _build/nrf52832_xxaa/main.c.o
 .text.gpio_init
                0x00033538       0xa8 _build/nrf52832_xxaa/main.c.o
 .text.set_output
                0x000335e0       0x94 _build/nrf52832_xxaa/main.c.o
 .text.main     0x00033674       0x86 _build/nrf52832_xxaa/main.c.o
                0x00033674                main
 *fill*         0x000336fa        0x2 
 .text._DoInit  0x000336fc       0x9c _build/nrf52832_xxaa/SEGGER_RTT.c.o
 .text._WriteBlocking
                0x00033798       0xb4 _build/nrf52832_xxaa/SEGGER_RTT.c.o
 .text._WriteNoCheck
                0x0003384c       0x80 _build/nrf52832_xxaa/SEGGER_RTT.c.o
 .text._GetAvailWriteSpace
                0x000338cc       0x46 _build/nrf52832_xxaa/SEGGER_RTT.c.o
 *fill*         0x00033912        0x2 
 .text.SEGGER_RTT_WriteNoLock
                0x00033914       0x9c _build/nrf52832_xxaa/SEGGER_RTT.c.o
                0x00033914                SEGGER_RTT_WriteNoLock
 .text.SEGGER_RTT_Init
                0x000339b0        0xc _build/nrf52832_xxaa/SEGGER_RTT.c.o
                0x000339b0                SEGGER_RTT_Init
 .text.sd_ble_gap_addr_get
                0x000339bc        0x8 _build/nrf52832_xxaa/ble_advdata.c.o
 .text.sd_ble_gap_appearance_get
                0x000339c4        0x8 _build/nrf52832_xxaa/ble_advdata.c.o
 .text.sd_ble_gap_device_name_get
                0x000339cc        0x8 _build/nrf52832_xxaa/ble_advdata.c.o
 .text.sd_ble_uuid_encode
                0x000339d4        0x8 _build/nrf52832_xxaa/ble_advdata.c.o
 .text.uint16_encode
                0x000339dc       0x30 _build/nrf52832_xxaa/ble_advdata.c.o
 .text.ble_device_addr_encode
                0x00033a0c       0xd2 _build/nrf52832_xxaa/ble_advdata.c.o
 .text.name_encode
                0x00033ade      0x12a _build/nrf52832_xxaa/ble_advdata.c.o
 .text.appearance_encode
                0x00033c08       0x9c _build/nrf52832_xxaa/ble_advdata.c.o
 .text.flags_encode
                0x00033ca4       0x80 _build/nrf52832_xxaa/ble_advdata.c.o
 .text.tx_power_level_encode
                0x00033d24       0x80 _build/nrf52832_xxaa/ble_advdata.c.o
 .text.uuid_list_sized_encode
                0x00033da4      0x146 _build/nrf52832_xxaa/ble_advdata.c.o
 .text.uuid_list_encode
                0x00033eea       0x64 _build/nrf52832_xxaa/ble_advdata.c.o
 .text.conn_int_check
                0x00033f4e       0x82 _build/nrf52832_xxaa/ble_advdata.c.o
 .text.conn_int_encode
                0x00033fd0       0xc2 _build/nrf52832_xxaa/ble_advdata.c.o
 .text.manuf_specific_data_encode
                0x00034092       0xde _build/nrf52832_xxaa/ble_advdata.c.o
 .text.service_data_encode
                0x00034170       0xfe _build/nrf52832_xxaa/ble_advdata.c.o
 .text.ble_advdata_encode
                0x0003426e      0x200 _build/nrf52832_xxaa/ble_advdata.c.o
                0x0003426e                ble_advdata_encode
 .text.ble_advdata_search
                0x0003446e       0x90 _build/nrf52832_xxaa/ble_advdata.c.o
                0x0003446e                ble_advdata_search
 .text.ble_advdata_parse
                0x000344fe       0x40 _build/nrf52832_xxaa/ble_advdata.c.o
                0x000344fe                ble_advdata_parse
 .text.sd_ble_gap_adv_set_configure
                0x0003453e        0x8 _build/nrf52832_xxaa/ble_advertising.c.o
 .text.sd_ble_gap_adv_start
                0x00034546        0x8 _build/nrf52832_xxaa/ble_advertising.c.o
 .text.sd_ble_gap_adv_stop
                0x0003454e        0x8 _build/nrf52832_xxaa/ble_advertising.c.o
 .text.whitelist_has_entries
                0x00034556       0x1a _build/nrf52832_xxaa/ble_advertising.c.o
 .text.addr_is_valid
                0x00034570       0x38 _build/nrf52832_xxaa/ble_advertising.c.o
 .text.adv_mode_next_get
                0x000345a8       0x34 _build/nrf52832_xxaa/ble_advertising.c.o
 .text.on_connected
                0x000345dc       0x28 _build/nrf52832_xxaa/ble_advertising.c.o
 .text.on_disconnected
                0x00034604       0x56 _build/nrf52832_xxaa/ble_advertising.c.o
 .text.on_terminated
                0x0003465a       0x58 _build/nrf52832_xxaa/ble_advertising.c.o
 *fill*         0x000346b2        0x2 
 .text.adv_mode_next_avail_get
                0x000346b4       0x94 _build/nrf52832_xxaa/ble_advertising.c.o
 .text.set_adv_mode_directed_high_duty
                0x00034748       0x44 _build/nrf52832_xxaa/ble_advertising.c.o
 .text.set_adv_mode_directed
                0x0003478c       0x5c _build/nrf52832_xxaa/ble_advertising.c.o
 .text.use_whitelist
                0x000347e8       0x40 _build/nrf52832_xxaa/ble_advertising.c.o
 .text.flags_set
                0x00034828       0x4e _build/nrf52832_xxaa/ble_advertising.c.o
 .text.set_adv_mode_fast
                0x00034876       0x8a _build/nrf52832_xxaa/ble_advertising.c.o
 .text.set_adv_mode_slow
                0x00034900       0x8a _build/nrf52832_xxaa/ble_advertising.c.o
 .text.config_is_valid
                0x0003498a       0x40 _build/nrf52832_xxaa/ble_advertising.c.o
 .text.ble_advertising_conn_cfg_tag_set
                0x000349ca       0x20 _build/nrf52832_xxaa/ble_advertising.c.o
                0x000349ca                ble_advertising_conn_cfg_tag_set
 .text.ble_advertising_init
                0x000349ea      0x1ac _build/nrf52832_xxaa/ble_advertising.c.o
                0x000349ea                ble_advertising_init
 .text.phy_is_valid
                0x00034b96       0x2a _build/nrf52832_xxaa/ble_advertising.c.o
 .text.ble_advertising_start
                0x00034bc0      0x238 _build/nrf52832_xxaa/ble_advertising.c.o
                0x00034bc0                ble_advertising_start
 .text.ble_advertising_on_ble_evt
                0x00034df8       0x46 _build/nrf52832_xxaa/ble_advertising.c.o
                0x00034df8                ble_advertising_on_ble_evt
 .text.ble_advertising_on_sys_evt
                0x00034e3e       0x16 _build/nrf52832_xxaa/ble_advertising.c.o
                0x00034e3e                ble_advertising_on_sys_evt
 .text.ble_advertising_restart_without_whitelist
                0x00034e54       0x72 _build/nrf52832_xxaa/ble_advertising.c.o
                0x00034e54                ble_advertising_restart_without_whitelist
 .text.sd_ble_gap_conn_param_update
                0x00034ec6        0x8 _build/nrf52832_xxaa/ble_conn_params.c.o
 .text.sd_ble_gap_disconnect
                0x00034ece        0x8 _build/nrf52832_xxaa/ble_conn_params.c.o
 .text.sd_ble_gap_ppcp_set
                0x00034ed6        0x8 _build/nrf52832_xxaa/ble_conn_params.c.o
 .text.sd_ble_gap_ppcp_get
                0x00034ede        0x8 _build/nrf52832_xxaa/ble_conn_params.c.o
 *fill*         0x00034ee6        0x2 
 .text.instance_get
                0x00034ee8       0x54 _build/nrf52832_xxaa/ble_conn_params.c.o
 .text.instance_claim
                0x00034f3c       0x38 _build/nrf52832_xxaa/ble_conn_params.c.o
 .text.instance_free
                0x00034f74       0x1c _build/nrf52832_xxaa/ble_conn_params.c.o
 .text.is_conn_params_ok
                0x00034f90       0xc4 _build/nrf52832_xxaa/ble_conn_params.c.o
 .text.send_error_evt
                0x00035054       0x24 _build/nrf52832_xxaa/ble_conn_params.c.o
 .text.send_update_request
                0x00035078       0x3e _build/nrf52832_xxaa/ble_conn_params.c.o
 *fill*         0x000350b6        0x2 
 .text.update_timeout_handler
                0x000350b8       0xac _build/nrf52832_xxaa/ble_conn_params.c.o
 .text.ble_conn_params_init
                0x00035164       0xd8 _build/nrf52832_xxaa/ble_conn_params.c.o
                0x00035164                ble_conn_params_init
 .text.conn_params_negotiation
                0x0003523c       0x78 _build/nrf52832_xxaa/ble_conn_params.c.o
 .text.on_connect
                0x000352b4       0x7c _build/nrf52832_xxaa/ble_conn_params.c.o
 .text.on_disconnect
                0x00035330       0x44 _build/nrf52832_xxaa/ble_conn_params.c.o
 .text.on_write
                0x00035374       0x78 _build/nrf52832_xxaa/ble_conn_params.c.o
 .text.on_conn_params_update
                0x000353ec       0x50 _build/nrf52832_xxaa/ble_conn_params.c.o
 .text.ble_evt_handler
                0x0003543c       0x4e _build/nrf52832_xxaa/ble_conn_params.c.o
 .text.conn_handle_list_get
                0x0003548a       0x6c _build/nrf52832_xxaa/ble_conn_state.c.o
                0x0003548a                conn_handle_list_get
 *fill*         0x000354f6        0x2 
 .text.record_activate
                0x000354f8       0x3c _build/nrf52832_xxaa/ble_conn_state.c.o
 .text.record_invalidate
                0x00035534       0x3c _build/nrf52832_xxaa/ble_conn_state.c.o
 .text.record_set_disconnected
                0x00035570       0x20 _build/nrf52832_xxaa/ble_conn_state.c.o
 .text.record_purge_disconnected
                0x00035590       0x74 _build/nrf52832_xxaa/ble_conn_state.c.o
 .text.user_flag_is_acquired
                0x00035604       0x24 _build/nrf52832_xxaa/ble_conn_state.c.o
 .text.ble_evt_handler
                0x00035628       0xe4 _build/nrf52832_xxaa/ble_conn_state.c.o
 .text.ble_conn_state_valid
                0x0003570c       0x2c _build/nrf52832_xxaa/ble_conn_state.c.o
                0x0003570c                ble_conn_state_valid
 .text.ble_conn_state_role
                0x00035738       0x48 _build/nrf52832_xxaa/ble_conn_state.c.o
                0x00035738                ble_conn_state_role
 .text.ble_conn_state_status
                0x00035780       0x48 _build/nrf52832_xxaa/ble_conn_state.c.o
                0x00035780                ble_conn_state_status
 .text.ble_conn_state_encrypted
                0x000357c8       0x34 _build/nrf52832_xxaa/ble_conn_state.c.o
                0x000357c8                ble_conn_state_encrypted
 .text.ble_conn_state_mitm_protected
                0x000357fc       0x34 _build/nrf52832_xxaa/ble_conn_state.c.o
                0x000357fc                ble_conn_state_mitm_protected
 .text.ble_conn_state_user_flag_acquire
                0x00035830       0x2c _build/nrf52832_xxaa/ble_conn_state.c.o
                0x00035830                ble_conn_state_user_flag_acquire
 .text.ble_conn_state_user_flag_get
                0x0003585c       0x54 _build/nrf52832_xxaa/ble_conn_state.c.o
                0x0003585c                ble_conn_state_user_flag_get
 .text.ble_conn_state_user_flag_set
                0x000358b0       0x70 _build/nrf52832_xxaa/ble_conn_state.c.o
                0x000358b0                ble_conn_state_user_flag_set
 .text.for_each_set_flag
                0x00035920       0x60 _build/nrf52832_xxaa/ble_conn_state.c.o
 .text.ble_conn_state_for_each_set_user_flag
                0x00035980       0x4c _build/nrf52832_xxaa/ble_conn_state.c.o
                0x00035980                ble_conn_state_for_each_set_user_flag
 .text.uint16_decode
                0x000359cc       0x2a _build/nrf52832_xxaa/ble_srv_common.c.o
 .text.ble_srv_is_notification_enabled
                0x000359f6       0x2a _build/nrf52832_xxaa/ble_srv_common.c.o
                0x000359f6                ble_srv_is_notification_enabled
 .text.sd_ble_gattc_char_value_by_uuid_read
                0x00035a20        0x8 _build/nrf52832_xxaa/gatt_cache_manager.c.o
 .text.sd_ble_gattc_read
                0x00035a28        0x8 _build/nrf52832_xxaa/gatt_cache_manager.c.o
 .text.sd_ble_gatts_value_get
                0x00035a30        0x8 _build/nrf52832_xxaa/gatt_cache_manager.c.o
 .text.sd_ble_gatts_initial_user_handle_get
                0x00035a38        0x8 _build/nrf52832_xxaa/gatt_cache_manager.c.o
 .text.nrf_mtx_init
                0x00035a40       0x1e _build/nrf52832_xxaa/gatt_cache_manager.c.o
 .text.nrf_mtx_trylock
                0x00035a5e       0x2a _build/nrf52832_xxaa/gatt_cache_manager.c.o
 .text.nrf_mtx_unlock
                0x00035a88       0x1e _build/nrf52832_xxaa/gatt_cache_manager.c.o
 *fill*         0x00035aa6        0x2 
 .text.internal_state_reset
                0x00035aa8       0x18 _build/nrf52832_xxaa/gatt_cache_manager.c.o
 .text.evt_send
                0x00035ac0       0x44 _build/nrf52832_xxaa/gatt_cache_manager.c.o
 .text.cccd_written
                0x00035b04       0x3c _build/nrf52832_xxaa/gatt_cache_manager.c.o
 .text.send_unexpected_error
                0x00035b40       0x3c _build/nrf52832_xxaa/gatt_cache_manager.c.o
 .text.local_db_apply_in_evt
                0x00035b7c       0xf8 _build/nrf52832_xxaa/gatt_cache_manager.c.o
 .text.local_db_update
                0x00035c74       0x2c _build/nrf52832_xxaa/gatt_cache_manager.c.o
 .text.local_db_update_in_evt
                0x00035ca0       0xe8 _build/nrf52832_xxaa/gatt_cache_manager.c.o
 .text.service_changed_cccd
                0x00035d88       0xaa _build/nrf52832_xxaa/gatt_cache_manager.c.o
 *fill*         0x00035e32        0x2 
 .text.service_changed_send_in_evt
                0x00035e34      0x128 _build/nrf52832_xxaa/gatt_cache_manager.c.o
 .text.apply_pending_handle
                0x00035f5c       0x1c _build/nrf52832_xxaa/gatt_cache_manager.c.o
 .text.apply_pending_flags_check
                0x00035f78       0x20 _build/nrf52832_xxaa/gatt_cache_manager.c.o
 .text.db_update_pending_handle
                0x00035f98       0x3c _build/nrf52832_xxaa/gatt_cache_manager.c.o
 .text.sc_send_pending_handle
                0x00035fd4       0x3c _build/nrf52832_xxaa/gatt_cache_manager.c.o
 .text.service_changed_pending_flags_check
                0x00036010       0x20 _build/nrf52832_xxaa/gatt_cache_manager.c.o
 .text.service_changed_needed
                0x00036030       0x34 _build/nrf52832_xxaa/gatt_cache_manager.c.o
 .text.car_update_pending_handle
                0x00036064       0x60 _build/nrf52832_xxaa/gatt_cache_manager.c.o
 .text.car_update_needed
                0x000360c4       0x44 _build/nrf52832_xxaa/gatt_cache_manager.c.o
 .text.update_pending_flags_check
                0x00036108       0x44 _build/nrf52832_xxaa/gatt_cache_manager.c.o
 .text.gcm_im_evt_handler
                0x0003614c       0x3e _build/nrf52832_xxaa/gatt_cache_manager.c.o
                0x0003614c                gcm_im_evt_handler
 *fill*         0x0003618a        0x2 
 .text.gcm_pdb_evt_handler
                0x0003618c       0xd8 _build/nrf52832_xxaa/gatt_cache_manager.c.o
                0x0003618c                gcm_pdb_evt_handler
 .text.gcm_init
                0x00036264       0xf0 _build/nrf52832_xxaa/gatt_cache_manager.c.o
                0x00036264                gcm_init
 .text.store_car_value
                0x00036354       0xa0 _build/nrf52832_xxaa/gatt_cache_manager.c.o
                0x00036354                store_car_value
 .text.gcm_ble_evt_handler
                0x000363f4      0x300 _build/nrf52832_xxaa/gatt_cache_manager.c.o
                0x000363f4                gcm_ble_evt_handler
 .text.sd_ble_gatts_service_changed
                0x000366f4        0x8 _build/nrf52832_xxaa/gatts_cache_manager.c.o
 .text.sd_ble_gatts_sys_attr_set
                0x000366fc        0x8 _build/nrf52832_xxaa/gatts_cache_manager.c.o
 .text.sd_ble_gatts_sys_attr_get
                0x00036704        0x8 _build/nrf52832_xxaa/gatts_cache_manager.c.o
 .text.sd_ble_gatts_initial_user_handle_get
                0x0003670c        0x8 _build/nrf52832_xxaa/gatts_cache_manager.c.o
 .text.internal_state_reset
                0x00036714       0x24 _build/nrf52832_xxaa/gatts_cache_manager.c.o
 .text.evt_send
                0x00036738       0x44 _build/nrf52832_xxaa/gatts_cache_manager.c.o
 .text.service_changed_pending_set
                0x0003677c       0xd4 _build/nrf52832_xxaa/gatts_cache_manager.c.o
 .text.gscm_pdb_evt_handler
                0x00036850       0x24 _build/nrf52832_xxaa/gatts_cache_manager.c.o
                0x00036850                gscm_pdb_evt_handler
 .text.gscm_init
                0x00036874       0x18 _build/nrf52832_xxaa/gatts_cache_manager.c.o
                0x00036874                gscm_init
 .text.gscm_local_db_cache_update
                0x0003688c      0x100 _build/nrf52832_xxaa/gatts_cache_manager.c.o
                0x0003688c                gscm_local_db_cache_update
 .text.gscm_local_db_cache_apply
                0x0003698c      0x100 _build/nrf52832_xxaa/gatts_cache_manager.c.o
                0x0003698c                gscm_local_db_cache_apply
 .text.gscm_service_changed_ind_needed
                0x00036a8c       0x42 _build/nrf52832_xxaa/gatts_cache_manager.c.o
                0x00036a8c                gscm_service_changed_ind_needed
 *fill*         0x00036ace        0x2 
 .text.gscm_service_changed_ind_send
                0x00036ad0       0x8c _build/nrf52832_xxaa/gatts_cache_manager.c.o
                0x00036ad0                gscm_service_changed_ind_send
 .text.gscm_db_change_notification_done
                0x00036b5c       0x34 _build/nrf52832_xxaa/gatts_cache_manager.c.o
                0x00036b5c                gscm_db_change_notification_done
 .text.sd_ecb_block_encrypt
                0x00036b90        0x8 _build/nrf52832_xxaa/id_manager.c.o
 .text.evt_send
                0x00036b98       0x34 _build/nrf52832_xxaa/id_manager.c.o
 .text.is_valid_irk
                0x00036bcc       0x38 _build/nrf52832_xxaa/id_manager.c.o
                0x00036bcc                is_valid_irk
 .text.addr_compare
                0x00036c04       0x5a _build/nrf52832_xxaa/id_manager.c.o
                0x00036c04                addr_compare
 *fill*         0x00036c5e        0x2 
 .text.im_ble_evt_handler
                0x00036c60      0x140 _build/nrf52832_xxaa/id_manager.c.o
                0x00036c60                im_ble_evt_handler
 .text.im_is_duplicate_bonding_data
                0x00036da0       0xe2 _build/nrf52832_xxaa/id_manager.c.o
                0x00036da0                im_is_duplicate_bonding_data
 .text.im_find_duplicate_bonding_data
                0x00036e82       0x50 _build/nrf52832_xxaa/id_manager.c.o
                0x00036e82                im_find_duplicate_bonding_data
 *fill*         0x00036ed2        0x2 
 .text.im_peer_id_get_by_conn_handle
                0x00036ed4       0x48 _build/nrf52832_xxaa/id_manager.c.o
                0x00036ed4                im_peer_id_get_by_conn_handle
 .text.im_ble_addr_get
                0x00036f1c       0x5c _build/nrf52832_xxaa/id_manager.c.o
                0x00036f1c                im_ble_addr_get
 .text.im_master_ids_compare
                0x00036f78       0x54 _build/nrf52832_xxaa/id_manager.c.o
                0x00036f78                im_master_ids_compare
 .text.im_peer_id_get_by_master_id
                0x00036fcc       0x58 _build/nrf52832_xxaa/id_manager.c.o
                0x00036fcc                im_peer_id_get_by_master_id
 .text.im_conn_handle_get
                0x00037024       0x64 _build/nrf52832_xxaa/id_manager.c.o
                0x00037024                im_conn_handle_get
 .text.im_master_id_is_valid
                0x00037088       0x46 _build/nrf52832_xxaa/id_manager.c.o
                0x00037088                im_master_id_is_valid
 *fill*         0x000370ce        0x2 
 .text.im_new_peer_id
                0x000370d0       0x38 _build/nrf52832_xxaa/id_manager.c.o
                0x000370d0                im_new_peer_id
 .text.im_peer_free
                0x00037108       0x50 _build/nrf52832_xxaa/id_manager.c.o
                0x00037108                im_peer_free
 .text.ah       0x00037158       0xac _build/nrf52832_xxaa/id_manager.c.o
                0x00037158                ah
 .text.im_address_resolve
                0x00037204       0x70 _build/nrf52832_xxaa/id_manager.c.o
                0x00037204                im_address_resolve
 .text.sd_ble_gap_data_length_update
                0x00037274        0x8 _build/nrf52832_xxaa/nrf_ble_gatt.c.o
 .text.sd_ble_gattc_exchange_mtu_request
                0x0003727c        0x8 _build/nrf52832_xxaa/nrf_ble_gatt.c.o
 .text.sd_ble_gatts_exchange_mtu_reply
                0x00037284        0x8 _build/nrf52832_xxaa/nrf_ble_gatt.c.o
 .text.link_init
                0x0003728c       0x38 _build/nrf52832_xxaa/nrf_ble_gatt.c.o
 .text.data_length_update
                0x000372c4       0xc8 _build/nrf52832_xxaa/nrf_ble_gatt.c.o
 .text.on_connected_evt
                0x0003738c       0xd0 _build/nrf52832_xxaa/nrf_ble_gatt.c.o
 .text.on_disconnected_evt
                0x0003745c       0x24 _build/nrf52832_xxaa/nrf_ble_gatt.c.o
 .text.on_exchange_mtu_rsp_evt
                0x00037480       0x86 _build/nrf52832_xxaa/nrf_ble_gatt.c.o
 *fill*         0x00037506        0x2 
 .text.on_exchange_mtu_request_evt
                0x00037508       0xc0 _build/nrf52832_xxaa/nrf_ble_gatt.c.o
 .text.on_data_length_update_evt
                0x000375c8       0x74 _build/nrf52832_xxaa/nrf_ble_gatt.c.o
 .text.on_data_length_update_request_evt
                0x0003763c       0x4a _build/nrf52832_xxaa/nrf_ble_gatt.c.o
 .text.nrf_ble_gatt_init
                0x00037686       0x58 _build/nrf52832_xxaa/nrf_ble_gatt.c.o
                0x00037686                nrf_ble_gatt_init
 *fill*         0x000376de        0x2 
 .text.nrf_ble_gatt_on_ble_evt
                0x000376e0       0xfc _build/nrf52832_xxaa/nrf_ble_gatt.c.o
                0x000376e0                nrf_ble_gatt_on_ble_evt
 .text.sd_ble_gatts_rw_authorize_reply
                0x000377dc        0x8 _build/nrf52832_xxaa/nrf_ble_qwr.c.o
 .text.sd_ble_user_mem_reply
                0x000377e4        0x8 _build/nrf52832_xxaa/nrf_ble_qwr.c.o
 .text.nrf_ble_qwr_init
                0x000377ec       0x4e _build/nrf52832_xxaa/nrf_ble_qwr.c.o
                0x000377ec                nrf_ble_qwr_init
 .text.nrf_ble_qwr_conn_handle_assign
                0x0003783a       0x36 _build/nrf52832_xxaa/nrf_ble_qwr.c.o
                0x0003783a                nrf_ble_qwr_conn_handle_assign
 .text.user_mem_reply
                0x00037870       0x4a _build/nrf52832_xxaa/nrf_ble_qwr.c.o
 .text.on_user_mem_request
                0x000378ba       0x32 _build/nrf52832_xxaa/nrf_ble_qwr.c.o
 .text.on_user_mem_release
                0x000378ec       0x16 _build/nrf52832_xxaa/nrf_ble_qwr.c.o
 .text.on_rw_authorize_request
                0x00037902       0x92 _build/nrf52832_xxaa/nrf_ble_qwr.c.o
 .text.nrf_ble_qwr_on_ble_evt
                0x00037994       0xa4 _build/nrf52832_xxaa/nrf_ble_qwr.c.o
                0x00037994                nrf_ble_qwr_on_ble_evt
 .text.pds_evt_send
                0x00037a38       0x34 _build/nrf52832_xxaa/peer_data_storage.c.o
 .text.peer_id_to_file_id
                0x00037a6c       0x1e _build/nrf52832_xxaa/peer_data_storage.c.o
 .text.file_id_to_peer_id
                0x00037a8a       0x1e _build/nrf52832_xxaa/peer_data_storage.c.o
 .text.peer_data_id_to_record_key
                0x00037aa8       0x20 _build/nrf52832_xxaa/peer_data_storage.c.o
 .text.record_key_to_peer_data_id
                0x00037ac8       0x1a _build/nrf52832_xxaa/peer_data_storage.c.o
 .text.file_id_within_pm_range
                0x00037ae2       0x34 _build/nrf52832_xxaa/peer_data_storage.c.o
 .text.record_key_within_pm_range
                0x00037b16       0x34 _build/nrf52832_xxaa/peer_data_storage.c.o
 .text.peer_data_id_is_valid
                0x00037b4a       0x4c _build/nrf52832_xxaa/peer_data_storage.c.o
 .text.send_unexpected_error
                0x00037b96       0x44 _build/nrf52832_xxaa/peer_data_storage.c.o
 *fill*         0x00037bda        0x2 
 .text.peer_data_delete_process
                0x00037bdc       0xd4 _build/nrf52832_xxaa/peer_data_storage.c.o
 .text.peer_data_find
                0x00037cb0       0x62 _build/nrf52832_xxaa/peer_data_storage.c.o
 .text.peer_ids_load
                0x00037d12       0x6a _build/nrf52832_xxaa/peer_data_storage.c.o
 .text.fds_evt_handler
                0x00037d7c      0x164 _build/nrf52832_xxaa/peer_data_storage.c.o
 .text.pds_init
                0x00037ee0       0x88 _build/nrf52832_xxaa/peer_data_storage.c.o
                0x00037ee0                pds_init
 .text.pds_peer_data_read
                0x00037f68       0xce _build/nrf52832_xxaa/peer_data_storage.c.o
                0x00037f68                pds_peer_data_read
 *fill*         0x00038036        0x2 
 .text.pds_peer_data_iterate_prepare
                0x00038038       0x18 _build/nrf52832_xxaa/peer_data_storage.c.o
                0x00038038                pds_peer_data_iterate_prepare
 .text.pds_peer_data_iterate
                0x00038050       0xa4 _build/nrf52832_xxaa/peer_data_storage.c.o
                0x00038050                pds_peer_data_iterate
 .text.pds_peer_data_store
                0x000380f4      0x12c _build/nrf52832_xxaa/peer_data_storage.c.o
                0x000380f4                pds_peer_data_store
 .text.pds_peer_id_allocate
                0x00038220       0x12 _build/nrf52832_xxaa/peer_data_storage.c.o
                0x00038220                pds_peer_id_allocate
 .text.pds_peer_id_free
                0x00038232       0x2a _build/nrf52832_xxaa/peer_data_storage.c.o
                0x00038232                pds_peer_id_free
 .text.pds_peer_id_is_allocated
                0x0003825c       0x1c _build/nrf52832_xxaa/peer_data_storage.c.o
                0x0003825c                pds_peer_id_is_allocated
 .text.pds_next_peer_id_get
                0x00038278       0x1c _build/nrf52832_xxaa/peer_data_storage.c.o
                0x00038278                pds_next_peer_id_get
 .text.pds_next_deleted_peer_id_get
                0x00038294       0x1c _build/nrf52832_xxaa/peer_data_storage.c.o
                0x00038294                pds_next_deleted_peer_id_get
 .text.write_buffer_record_invalidate
                0x000382b0       0x48 _build/nrf52832_xxaa/peer_database.c.o
 .text.write_buffer_record_find_next
                0x000382f8       0x60 _build/nrf52832_xxaa/peer_database.c.o
 .text.write_buffer_record_find
                0x00038358       0x7a _build/nrf52832_xxaa/peer_database.c.o
 *fill*         0x000383d2        0x2 
 .text.write_buffer_record_find_stored
                0x000383d4       0x54 _build/nrf52832_xxaa/peer_database.c.o
 .text.write_buffer_record_find_unused
                0x00038428       0x14 _build/nrf52832_xxaa/peer_database.c.o
 .text.write_buffer_record_release
                0x0003843c       0x48 _build/nrf52832_xxaa/peer_database.c.o
 .text.write_buffer_record_acquire
                0x00038484       0x46 _build/nrf52832_xxaa/peer_database.c.o
 *fill*         0x000384ca        0x2 
 .text.pdb_evt_send
                0x000384cc       0x34 _build/nrf52832_xxaa/peer_database.c.o
 .text.internal_state_reset
                0x00038500       0x38 _build/nrf52832_xxaa/peer_database.c.o
 .text.peer_data_point_to_buffer
                0x00038538       0x44 _build/nrf52832_xxaa/peer_database.c.o
 .text.peer_data_const_point_to_buffer
                0x0003857c       0x26 _build/nrf52832_xxaa/peer_database.c.o
 *fill*         0x000385a2        0x2 
 .text.write_buf_length_words_set
                0x000385a4       0x70 _build/nrf52832_xxaa/peer_database.c.o
 .text.write_buf_store
                0x00038614      0x138 _build/nrf52832_xxaa/peer_database.c.o
                0x00038614                write_buf_store
 .text.write_buf_store_in_event
                0x0003874c       0x84 _build/nrf52832_xxaa/peer_database.c.o
 .text.reattempt_previous_operations
                0x000387d0       0xc8 _build/nrf52832_xxaa/peer_database.c.o
 .text.pdb_pds_evt_handler
                0x00038898       0x9c _build/nrf52832_xxaa/peer_database.c.o
                0x00038898                pdb_pds_evt_handler
 .text.pdb_init
                0x00038934       0x78 _build/nrf52832_xxaa/peer_database.c.o
                0x00038934                pdb_init
 .text.pdb_peer_free
                0x000389ac       0xe0 _build/nrf52832_xxaa/peer_database.c.o
                0x000389ac                pdb_peer_free
 .text.pdb_peer_data_ptr_get
                0x00038a8c       0x26 _build/nrf52832_xxaa/peer_database.c.o
                0x00038a8c                pdb_peer_data_ptr_get
 *fill*         0x00038ab2        0x2 
 .text.pdb_write_buf_get
                0x00038ab4      0x12c _build/nrf52832_xxaa/peer_database.c.o
                0x00038ab4                pdb_write_buf_get
 .text.pdb_write_buf_release
                0x00038be0       0x38 _build/nrf52832_xxaa/peer_database.c.o
                0x00038be0                pdb_write_buf_release
 .text.pdb_write_buf_store
                0x00038c18       0x6e _build/nrf52832_xxaa/peer_database.c.o
                0x00038c18                pdb_write_buf_store
 .text.internal_state_reset
                0x00038c86       0x1a _build/nrf52832_xxaa/peer_id.c.o
 .text.peer_id_init
                0x00038ca0       0x14 _build/nrf52832_xxaa/peer_id.c.o
                0x00038ca0                peer_id_init
 .text.claim    0x00038cb4       0x80 _build/nrf52832_xxaa/peer_id.c.o
 .text.release  0x00038d34       0x24 _build/nrf52832_xxaa/peer_id.c.o
 .text.peer_id_allocate
                0x00038d58       0x24 _build/nrf52832_xxaa/peer_id.c.o
                0x00038d58                peer_id_allocate
 .text.peer_id_delete
                0x00038d7c       0x40 _build/nrf52832_xxaa/peer_id.c.o
                0x00038d7c                peer_id_delete
 .text.peer_id_free
                0x00038dbc       0x30 _build/nrf52832_xxaa/peer_id.c.o
                0x00038dbc                peer_id_free
 .text.peer_id_is_allocated
                0x00038dec       0x2c _build/nrf52832_xxaa/peer_id.c.o
                0x00038dec                peer_id_is_allocated
 .text.peer_id_is_deleted
                0x00038e18       0x2c _build/nrf52832_xxaa/peer_id.c.o
                0x00038e18                peer_id_is_deleted
 .text.next_id_get
                0x00038e44       0x50 _build/nrf52832_xxaa/peer_id.c.o
                0x00038e44                next_id_get
 .text.peer_id_get_next_used
                0x00038e94       0x58 _build/nrf52832_xxaa/peer_id.c.o
                0x00038e94                peer_id_get_next_used
 .text.peer_id_get_next_deleted
                0x00038eec       0x24 _build/nrf52832_xxaa/peer_id.c.o
                0x00038eec                peer_id_get_next_deleted
 .text.evt_send
                0x00038f10       0x3c _build/nrf52832_xxaa/peer_manager.c.o
 .text.rank_vars_update
                0x00038f4c       0x44 _build/nrf52832_xxaa/peer_manager.c.o
 .text.pm_pdb_evt_handler
                0x00038f90      0x21c _build/nrf52832_xxaa/peer_manager.c.o
                0x00038f90                pm_pdb_evt_handler
 .text.pm_sm_evt_handler
                0x000391ac       0x1e _build/nrf52832_xxaa/peer_manager.c.o
                0x000391ac                pm_sm_evt_handler
 .text.pm_gcm_evt_handler
                0x000391ca       0x16 _build/nrf52832_xxaa/peer_manager.c.o
                0x000391ca                pm_gcm_evt_handler
 .text.pm_gscm_evt_handler
                0x000391e0       0x16 _build/nrf52832_xxaa/peer_manager.c.o
                0x000391e0                pm_gscm_evt_handler
 .text.pm_im_evt_handler
                0x000391f6       0x16 _build/nrf52832_xxaa/peer_manager.c.o
                0x000391f6                pm_im_evt_handler
 .text.ble_evt_handler
                0x0003920c       0x38 _build/nrf52832_xxaa/peer_manager.c.o
 .text.internal_state_reset
                0x00039244       0x24 _build/nrf52832_xxaa/peer_manager.c.o
 .text.pm_init  0x00039268      0x178 _build/nrf52832_xxaa/peer_manager.c.o
                0x00039268                pm_init
 .text.pm_register
                0x000393e0       0x5c _build/nrf52832_xxaa/peer_manager.c.o
                0x000393e0                pm_register
 .text.pm_sec_params_set
                0x0003943c       0x30 _build/nrf52832_xxaa/peer_manager.c.o
                0x0003943c                pm_sec_params_set
 .text.pm_conn_secure
                0x0003946c       0x48 _build/nrf52832_xxaa/peer_manager.c.o
                0x0003946c                pm_conn_secure
 .text.pm_conn_sec_status_get
                0x000394b4       0xb4 _build/nrf52832_xxaa/peer_manager.c.o
                0x000394b4                pm_conn_sec_status_get
 .text.pm_peer_delete
                0x00039568       0x34 _build/nrf52832_xxaa/peer_manager.c.o
                0x00039568                pm_peer_delete
 .text.pm_peers_delete
                0x0003959c       0xd8 _build/nrf52832_xxaa/peer_manager.c.o
                0x0003959c                pm_peers_delete
 .text.pm_peer_ranks_get
                0x00039674      0x160 _build/nrf52832_xxaa/peer_manager.c.o
                0x00039674                pm_peer_ranks_get
 .text.rank_init
                0x000397d4        0xc _build/nrf52832_xxaa/peer_manager.c.o
 .text.pm_peer_rank_highest
                0x000397e0      0x158 _build/nrf52832_xxaa/peer_manager.c.o
                0x000397e0                pm_peer_rank_highest
 .text.sd_ble_gap_disconnect
                0x00039938        0x8 _build/nrf52832_xxaa/peer_manager_handler.c.o
 .text._conn_secure
                0x00039940      0x15c _build/nrf52832_xxaa/peer_manager_handler.c.o
 .text.conn_secure
                0x00039a9c       0x24 _build/nrf52832_xxaa/peer_manager_handler.c.o
 .text.pm_handler_on_pm_evt
                0x00039ac0       0x68 _build/nrf52832_xxaa/peer_manager_handler.c.o
                0x00039ac0                pm_handler_on_pm_evt
 .text.pm_handler_flash_clean_on_return
                0x00039b28       0x2a _build/nrf52832_xxaa/peer_manager_handler.c.o
                0x00039b28                pm_handler_flash_clean_on_return
 .text.rank_highest
                0x00039b52       0x32 _build/nrf52832_xxaa/peer_manager_handler.c.o
 .text.pm_handler_flash_clean
                0x00039b84      0x2e8 _build/nrf52832_xxaa/peer_manager_handler.c.o
                0x00039b84                pm_handler_flash_clean
 .text.pm_handler_pm_evt_log
                0x00039e6c      0x2cc _build/nrf52832_xxaa/peer_manager_handler.c.o
                0x00039e6c                pm_handler_pm_evt_log
 .text.mutex_lock
                0x0003a138       0x3c _build/nrf52832_xxaa/pm_buffer.c.o
 .text.mutex_unlock
                0x0003a174       0x1e _build/nrf52832_xxaa/pm_buffer.c.o
 .text.mutex_lock_status_get
                0x0003a192       0x20 _build/nrf52832_xxaa/pm_buffer.c.o
 .text.pm_buffer_init
                0x0003a1b2       0x64 _build/nrf52832_xxaa/pm_buffer.c.o
                0x0003a1b2                pm_buffer_init
 .text.pm_buffer_block_acquire
                0x0003a216       0xa2 _build/nrf52832_xxaa/pm_buffer.c.o
                0x0003a216                pm_buffer_block_acquire
 .text.pm_buffer_ptr_get
                0x0003a2b8       0x5c _build/nrf52832_xxaa/pm_buffer.c.o
                0x0003a2b8                pm_buffer_ptr_get
 .text.pm_buffer_release
                0x0003a314       0x52 _build/nrf52832_xxaa/pm_buffer.c.o
                0x0003a314                pm_buffer_release
 .text.sd_ble_gap_authenticate
                0x0003a366        0x8 _build/nrf52832_xxaa/security_dispatcher.c.o
 .text.sd_ble_gap_sec_params_reply
                0x0003a36e        0x8 _build/nrf52832_xxaa/security_dispatcher.c.o
 .text.sd_ble_gap_sec_info_reply
                0x0003a376        0x8 _build/nrf52832_xxaa/security_dispatcher.c.o
 *fill*         0x0003a37e        0x2 
 .text.sec_procedure
                0x0003a380       0x28 _build/nrf52832_xxaa/security_dispatcher.c.o
 .text.pairing  0x0003a3a8       0x28 _build/nrf52832_xxaa/security_dispatcher.c.o
 .text.bonding  0x0003a3d0       0x28 _build/nrf52832_xxaa/security_dispatcher.c.o
 .text.allow_repairing
                0x0003a3f8       0x28 _build/nrf52832_xxaa/security_dispatcher.c.o
 .text.evt_send
                0x0003a420       0x40 _build/nrf52832_xxaa/security_dispatcher.c.o
 .text.sec_start_send
                0x0003a460       0x40 _build/nrf52832_xxaa/security_dispatcher.c.o
 .text.send_unexpected_error
                0x0003a4a0       0x3c _build/nrf52832_xxaa/security_dispatcher.c.o
 .text.send_storage_full_evt
                0x0003a4dc       0x36 _build/nrf52832_xxaa/security_dispatcher.c.o
 *fill*         0x0003a512        0x2 
 .text.conn_sec_failure
                0x0003a514       0x68 _build/nrf52832_xxaa/security_dispatcher.c.o
 .text.pairing_failure
                0x0003a57c       0x98 _build/nrf52832_xxaa/security_dispatcher.c.o
 .text.encryption_failure
                0x0003a614       0x26 _build/nrf52832_xxaa/security_dispatcher.c.o
 .text.link_secure_failure
                0x0003a63a       0x50 _build/nrf52832_xxaa/security_dispatcher.c.o
 *fill*         0x0003a68a        0x2 
 .text.sec_proc_start
                0x0003a68c       0x78 _build/nrf52832_xxaa/security_dispatcher.c.o
 .text.sec_info_request_process
                0x0003a704      0x15c _build/nrf52832_xxaa/security_dispatcher.c.o
 .text.send_config_req
                0x0003a860       0x32 _build/nrf52832_xxaa/security_dispatcher.c.o
 .text.disconnect_process
                0x0003a892       0x32 _build/nrf52832_xxaa/security_dispatcher.c.o
 .text.send_params_req
                0x0003a8c4       0x3c _build/nrf52832_xxaa/security_dispatcher.c.o
 .text.sec_params_request_process
                0x0003a900       0x50 _build/nrf52832_xxaa/security_dispatcher.c.o
 .text.pairing_success_evt_send
                0x0003a950       0x42 _build/nrf52832_xxaa/security_dispatcher.c.o
 *fill*         0x0003a992        0x2 
 .text.auth_status_success_process
                0x0003a994      0x200 _build/nrf52832_xxaa/security_dispatcher.c.o
 .text.auth_status_failure_process
                0x0003ab94       0x2a _build/nrf52832_xxaa/security_dispatcher.c.o
 .text.auth_status_process
                0x0003abbe       0x28 _build/nrf52832_xxaa/security_dispatcher.c.o
 *fill*         0x0003abe6        0x2 
 .text.conn_sec_update_process
                0x0003abe8       0x80 _build/nrf52832_xxaa/security_dispatcher.c.o
 .text.flag_id_init
                0x0003ac68       0x24 _build/nrf52832_xxaa/security_dispatcher.c.o
 .text.smd_init
                0x0003ac8c       0x84 _build/nrf52832_xxaa/security_dispatcher.c.o
                0x0003ac8c                smd_init
 .text.sec_keyset_fill
                0x0003ad10      0x11c _build/nrf52832_xxaa/security_dispatcher.c.o
 .text.smd_params_reply
                0x0003ae2c      0x130 _build/nrf52832_xxaa/security_dispatcher.c.o
                0x0003ae2c                smd_params_reply
 .text.link_secure_authenticate
                0x0003af5c       0x2c _build/nrf52832_xxaa/security_dispatcher.c.o
 .text.link_secure_peripheral
                0x0003af88       0x2c _build/nrf52832_xxaa/security_dispatcher.c.o
 .text.smd_link_secure
                0x0003afb4       0x3c _build/nrf52832_xxaa/security_dispatcher.c.o
                0x0003afb4                smd_link_secure
 .text.smd_ble_evt_handler
                0x0003aff0       0x84 _build/nrf52832_xxaa/security_dispatcher.c.o
                0x0003aff0                smd_ble_evt_handler
 .text.evt_send
                0x0003b074       0x2c _build/nrf52832_xxaa/security_manager.c.o
 .text.flags_set_from_err_code
                0x0003b0a0       0x68 _build/nrf52832_xxaa/security_manager.c.o
 .text.events_send_from_err_code
                0x0003b108       0xdc _build/nrf52832_xxaa/security_manager.c.o
 .text.params_req_send
                0x0003b1e4       0x3c _build/nrf52832_xxaa/security_manager.c.o
 .text.new_context_get
                0x0003b220       0x38 _build/nrf52832_xxaa/security_manager.c.o
 .text.link_secure
                0x0003b258      0x128 _build/nrf52832_xxaa/security_manager.c.o
 .text.smd_params_reply_perform
                0x0003b380       0x5c _build/nrf52832_xxaa/security_manager.c.o
 .text.params_req_process
                0x0003b3dc       0x20 _build/nrf52832_xxaa/security_manager.c.o
 .text.sec_req_process
                0x0003b3fc       0x80 _build/nrf52832_xxaa/security_manager.c.o
 .text.evt_forward
                0x0003b47c       0x16 _build/nrf52832_xxaa/security_manager.c.o
 .text.sm_smd_evt_handler
                0x0003b492       0x34 _build/nrf52832_xxaa/security_manager.c.o
                0x0003b492                sm_smd_evt_handler
 .text.params_reply_pending_handle
                0x0003b4c6       0x1e _build/nrf52832_xxaa/security_manager.c.o
 .text.link_secure_pending_handle
                0x0003b4e4       0x50 _build/nrf52832_xxaa/security_manager.c.o
 .text.sm_pdb_evt_handler
                0x0003b534       0x54 _build/nrf52832_xxaa/security_manager.c.o
                0x0003b534                sm_pdb_evt_handler
 .text.flag_id_init
                0x0003b588       0x24 _build/nrf52832_xxaa/security_manager.c.o
 .text.sm_init  0x0003b5ac       0x6c _build/nrf52832_xxaa/security_manager.c.o
                0x0003b5ac                sm_init
 .text.sm_ble_evt_handler
                0x0003b618       0x44 _build/nrf52832_xxaa/security_manager.c.o
                0x0003b618                sm_ble_evt_handler
 .text.sec_params_verify
                0x0003b65c      0x17c _build/nrf52832_xxaa/security_manager.c.o
 .text.sm_sec_params_set
                0x0003b7d8       0x5c _build/nrf52832_xxaa/security_manager.c.o
                0x0003b7d8                sm_sec_params_set
 .text.sm_link_secure
                0x0003b834       0x28 _build/nrf52832_xxaa/security_manager.c.o
                0x0003b834                sm_link_secure
 .text.NVIC_EnableIRQ
                0x0003b85c       0x34 _build/nrf52832_xxaa/nrf_sdh.c.o
 .text.NVIC_DisableIRQ
                0x0003b890       0x34 _build/nrf52832_xxaa/nrf_sdh.c.o
 .text.NVIC_GetPriority
                0x0003b8c4       0x50 _build/nrf52832_xxaa/nrf_sdh.c.o
 .text.nrf_section_iter_get
                0x0003b914       0x18 _build/nrf52832_xxaa/nrf_sdh.c.o
 .text.sd_softdevice_enable
                0x0003b92c        0x8 _build/nrf52832_xxaa/nrf_sdh.c.o
 .text.sd_softdevice_disable
                0x0003b934        0x8 _build/nrf52832_xxaa/nrf_sdh.c.o
 .text.__sd_nvic_app_accessible_irq
                0x0003b93c       0x60 _build/nrf52832_xxaa/nrf_sdh.c.o
 .text.__sd_nvic_is_app_accessible_priority
                0x0003b99c       0x30 _build/nrf52832_xxaa/nrf_sdh.c.o
 .text.sd_nvic_EnableIRQ
                0x0003b9cc       0x88 _build/nrf52832_xxaa/nrf_sdh.c.o
 .text.sd_nvic_DisableIRQ
                0x0003ba54       0x6c _build/nrf52832_xxaa/nrf_sdh.c.o
 .text.sdh_request_observer_notify
                0x0003bac0       0x68 _build/nrf52832_xxaa/nrf_sdh.c.o
 .text.sdh_state_observer_notify
                0x0003bb28       0x5c _build/nrf52832_xxaa/nrf_sdh.c.o
 .text.softdevices_evt_irq_enable
                0x0003bb84       0x26 _build/nrf52832_xxaa/nrf_sdh.c.o
 .text.softdevice_evt_irq_disable
                0x0003bbaa       0x26 _build/nrf52832_xxaa/nrf_sdh.c.o
 .text.nrf_sdh_enable_request
                0x0003bbd0       0xa4 _build/nrf52832_xxaa/nrf_sdh.c.o
                0x0003bbd0                nrf_sdh_enable_request
 .text.nrf_sdh_disable_request
                0x0003bc74       0x80 _build/nrf52832_xxaa/nrf_sdh.c.o
                0x0003bc74                nrf_sdh_disable_request
 .text.nrf_sdh_request_continue
                0x0003bcf4       0x38 _build/nrf52832_xxaa/nrf_sdh.c.o
                0x0003bcf4                nrf_sdh_request_continue
 .text.nrf_sdh_is_enabled
                0x0003bd2c       0x18 _build/nrf52832_xxaa/nrf_sdh.c.o
                0x0003bd2c                nrf_sdh_is_enabled
 .text.nrf_sdh_evts_poll
                0x0003bd44       0x50 _build/nrf52832_xxaa/nrf_sdh.c.o
                0x0003bd44                nrf_sdh_evts_poll
 .text.SWI2_EGU2_IRQHandler
                0x0003bd94        0xc _build/nrf52832_xxaa/nrf_sdh.c.o
                0x0003bd94                SWI2_EGU2_IRQHandler
 .text.sd_ble_enable
                0x0003bda0        0x8 _build/nrf52832_xxaa/nrf_sdh_ble.c.o
 .text.sd_ble_cfg_set
                0x0003bda8        0x8 _build/nrf52832_xxaa/nrf_sdh_ble.c.o
 .text.sd_ble_evt_get
                0x0003bdb0        0x8 _build/nrf52832_xxaa/nrf_sdh_ble.c.o
 .text.nrf_section_iter_get
                0x0003bdb8       0x18 _build/nrf52832_xxaa/nrf_sdh_ble.c.o
 .text.nrf_sdh_ble_app_ram_start_get
                0x0003bdd0       0x2c _build/nrf52832_xxaa/nrf_sdh_ble.c.o
                0x0003bdd0                nrf_sdh_ble_app_ram_start_get
 .text.nrf_sdh_ble_default_cfg_set
                0x0003bdfc      0x1cc _build/nrf52832_xxaa/nrf_sdh_ble.c.o
                0x0003bdfc                nrf_sdh_ble_default_cfg_set
 .text.ram_end_address_get
                0x0003bfc8       0x24 _build/nrf52832_xxaa/nrf_sdh_ble.c.o
 .text.nrf_sdh_ble_enable
                0x0003bfec       0xc8 _build/nrf52832_xxaa/nrf_sdh_ble.c.o
                0x0003bfec                nrf_sdh_ble_enable
 .text.nrf_sdh_ble_evts_poll
                0x0003c0b4       0xa4 _build/nrf52832_xxaa/nrf_sdh_ble.c.o
 .text.nrf_section_iter_get
                0x0003c158       0x18 _build/nrf52832_xxaa/nrf_sdh_soc.c.o
 .text.sd_evt_get
                0x0003c170        0x8 _build/nrf52832_xxaa/nrf_sdh_soc.c.o
 .text.nrf_sdh_soc_evts_poll
                0x0003c178       0x7c _build/nrf52832_xxaa/nrf_sdh_soc.c.o
 .text.exit     0x0003c1f4       0x28 c:/program files (x86)/gnu tools arm embedded/7 2018-q2-update/bin/../lib/gcc/arm-none-eabi/7.3.1/../../../../arm-none-eabi/lib/thumb/v7e-m/fpv4-sp/hard\libc_nano.a(lib_a-exit.o)
                0x0003c1f4                exit
 .text.__libc_init_array
                0x0003c21c       0x48 c:/program files (x86)/gnu tools arm embedded/7 2018-q2-update/bin/../lib/gcc/arm-none-eabi/7.3.1/../../../../arm-none-eabi/lib/thumb/v7e-m/fpv4-sp/hard\libc_nano.a(lib_a-init.o)
                0x0003c21c                __libc_init_array
 .text.__locale_ctype_ptr
                0x0003c264       0x1c c:/program files (x86)/gnu tools arm embedded/7 2018-q2-update/bin/../lib/gcc/arm-none-eabi/7.3.1/../../../../arm-none-eabi/lib/thumb/v7e-m/fpv4-sp/hard\libc_nano.a(lib_a-locale.o)
                0x0003c264                __locale_ctype_ptr
 .text.__ascii_mbtowc
                0x0003c280       0x24 c:/program files (x86)/gnu tools arm embedded/7 2018-q2-update/bin/../lib/gcc/arm-none-eabi/7.3.1/../../../../arm-none-eabi/lib/thumb/v7e-m/fpv4-sp/hard\libc_nano.a(lib_a-mbtowc_r.o)
                0x0003c280                __ascii_mbtowc
 .text.memcmp   0x0003c2a4       0x1e c:/program files (x86)/gnu tools arm embedded/7 2018-q2-update/bin/../lib/gcc/arm-none-eabi/7.3.1/../../../../arm-none-eabi/lib/thumb/v7e-m/fpv4-sp/hard\libc_nano.a(lib_a-memcmp.o)
                0x0003c2a4                memcmp
 .text.memcpy   0x0003c2c2       0x16 c:/program files (x86)/gnu tools arm embedded/7 2018-q2-update/bin/../lib/gcc/arm-none-eabi/7.3.1/../../../../arm-none-eabi/lib/thumb/v7e-m/fpv4-sp/hard\libc_nano.a(lib_a-memcpy-stub.o)
                0x0003c2c2                memcpy
 .text.memset   0x0003c2d8       0x10 c:/program files (x86)/gnu tools arm embedded/7 2018-q2-update/bin/../lib/gcc/arm-none-eabi/7.3.1/../../../../arm-none-eabi/lib/thumb/v7e-m/fpv4-sp/hard\libc_nano.a(lib_a-memset.o)
                0x0003c2d8                memset
 .text.strcpy   0x0003c2e8       0x10 c:/program files (x86)/gnu tools arm embedded/7 2018-q2-update/bin/../lib/gcc/arm-none-eabi/7.3.1/../../../../arm-none-eabi/lib/thumb/v7e-m/fpv4-sp/hard\libc_nano.a(lib_a-strcpy.o)
                0x0003c2e8                strcpy
 .text          0x0003c2f8       0x10 c:/program files (x86)/gnu tools arm embedded/7 2018-q2-update/bin/../lib/gcc/arm-none-eabi/7.3.1/../../../../arm-none-eabi/lib/thumb/v7e-m/fpv4-sp/hard\libc_nano.a(lib_a-strlen.o)
                0x0003c2f8                strlen
 .text.__ascii_wctomb
                0x0003c308       0x1a c:/program files (x86)/gnu tools arm embedded/7 2018-q2-update/bin/../lib/gcc/arm-none-eabi/7.3.1/../../../../arm-none-eabi/lib/thumb/v7e-m/fpv4-sp/hard\libc_nano.a(lib_a-wctomb_r.o)
                0x0003c308                __ascii_wctomb
 *fill*         0x0003c322        0x2 
 .text._exit    0x0003c324        0x4 c:/program files (x86)/gnu tools arm embedded/7 2018-q2-update/bin/../lib/gcc/arm-none-eabi/7.3.1/../../../../arm-none-eabi/lib/thumb/v7e-m/fpv4-sp/hard\libnosys.a(_exit.o)
                0x0003c324                _exit
 .text          0x0003c328       0x30 c:/program files (x86)/gnu tools arm embedded/7 2018-q2-update/bin/../lib/gcc/arm-none-eabi/7.3.1/thumb/v7e-m/fpv4-sp/hard\libgcc.a(_aeabi_uldivmod.o)
                0x0003c328                __aeabi_uldivmod
 .text          0x0003c358      0x2cc c:/program files (x86)/gnu tools arm embedded/7 2018-q2-update/bin/../lib/gcc/arm-none-eabi/7.3.1/thumb/v7e-m/fpv4-sp/hard\libgcc.a(_udivmoddi4.o)
                0x0003c358                __udivmoddi4
 .text          0x0003c624        0x4 c:/program files (x86)/gnu tools arm embedded/7 2018-q2-update/bin/../lib/gcc/arm-none-eabi/7.3.1/thumb/v7e-m/fpv4-sp/hard\libgcc.a(_dvmd_tls.o)
                0x0003c624                __aeabi_idiv0
                0x0003c624                __aeabi_ldiv0
 *(.init)
 .init          0x0003c628        0x4 c:/program files (x86)/gnu tools arm embedded/7 2018-q2-update/bin/../lib/gcc/arm-none-eabi/7.3.1/thumb/v7e-m/fpv4-sp/hard/crti.o
                0x0003c628                _init
 .init          0x0003c62c        0x8 c:/program files (x86)/gnu tools arm embedded/7 2018-q2-update/bin/../lib/gcc/arm-none-eabi/7.3.1/thumb/v7e-m/fpv4-sp/hard/crtn.o
 *(.fini)
 .fini          0x0003c634        0x4 c:/program files (x86)/gnu tools arm embedded/7 2018-q2-update/bin/../lib/gcc/arm-none-eabi/7.3.1/thumb/v7e-m/fpv4-sp/hard/crti.o
                0x0003c634                _fini
 .fini          0x0003c638        0x8 c:/program files (x86)/gnu tools arm embedded/7 2018-q2-update/bin/../lib/gcc/arm-none-eabi/7.3.1/thumb/v7e-m/fpv4-sp/hard/crtn.o
 *crtbegin.o(.ctors)
 *crtbegin?.o(.ctors)
 *(EXCLUDE_FILE(*crtend.o *crtend?.o) .ctors)
 *(SORT_BY_NAME(.ctors.*))
 *(.ctors)
 *crtbegin.o(.dtors)
 *crtbegin?.o(.dtors)
 *(EXCLUDE_FILE(*crtend.o *crtend?.o) .dtors)
 *(SORT_BY_NAME(.dtors.*))
 *(.dtors)
 *(.rodata*)
 .rodata.nrf_log_backend_rtt_api
                0x0003c640        0xc _build/nrf52832_xxaa/nrf_log_backend_rtt.c.o
                0x0003c640                nrf_log_backend_rtt_api
 *fill*         0x0003c64c        0x4 
 .rodata.delay_machine_code.9020
                0x0003c650        0x6 _build/nrf52832_xxaa/nrf_log_backend_rtt.c.o
 *fill*         0x0003c656        0x2 
 .rodata        0x0003c658       0x10 _build/nrf52832_xxaa/nrf_log_default_backends.c.o
 .rodata.m_log_push_ringbuf
                0x0003c668        0xc _build/nrf52832_xxaa/nrf_log_frontend.c.o
 .rodata        0x0003c674       0x15 _build/nrf52832_xxaa/nrf_log_frontend.c.o
 *fill*         0x0003c689        0x3 
 .rodata        0x0003c68c       0xaa _build/nrf52832_xxaa/nrf_log_str_formatter.c.o
 *fill*         0x0003c736        0x2 
 .rodata.m_detection_delay_timer_id
                0x0003c738        0x4 _build/nrf52832_xxaa/app_button.c.o
 .rodata        0x0003c73c       0x19 _build/nrf52832_xxaa/app_error_weak.c.o
 *fill*         0x0003c755        0xb 
 .rodata.delay_machine_code.8744
                0x0003c760        0x6 _build/nrf52832_xxaa/app_timer.c.o
 *fill*         0x0003c766        0x2 
 .rodata.page_tag_swap.8942
                0x0003c768        0x8 _build/nrf52832_xxaa/fds.c.o
 .rodata.page_tag_data.8946
                0x0003c770        0x8 _build/nrf52832_xxaa/fds.c.o
 .rodata.dirty_header.9073
                0x0003c778        0x4 _build/nrf52832_xxaa/fds.c.o
 .rodata._aV2C.7442
                0x0003c77c       0x10 _build/nrf52832_xxaa/nrf_fprintf_format.c.o
 .rodata        0x0003c78c      0x1b3 _build/nrf52832_xxaa/nrf_fstorage.c.o
 *fill*         0x0003c93f        0x1 
 .rodata.__func__.7614
                0x0003c940       0x12 _build/nrf52832_xxaa/nrf_fstorage.c.o
 *fill*         0x0003c952        0x2 
 .rodata.__func__.7635
                0x0003c954       0x13 _build/nrf52832_xxaa/nrf_fstorage.c.o
 *fill*         0x0003c967        0x1 
 .rodata.__func__.7642
                0x0003c968       0x13 _build/nrf52832_xxaa/nrf_fstorage.c.o
 *fill*         0x0003c97b        0x1 
 .rodata.m_flash_info
                0x0003c97c        0xc _build/nrf52832_xxaa/nrf_fstorage_sd.c.o
 .rodata.nrf_fstorage_sd
                0x0003c988       0x20 _build/nrf52832_xxaa/nrf_fstorage_sd.c.o
                0x0003c988                nrf_fstorage_sd
 .rodata        0x0003c9a8        0x9 _build/nrf52832_xxaa/nrf_pwr_mgmt.c.o
 *fill*         0x0003c9b1        0x3 
 .rodata.pwr_mgmt_data
                0x0003c9b4        0xc _build/nrf52832_xxaa/nrf_pwr_mgmt.c.o
 .rodata.m_unknown_str
                0x0003c9c0       0x13 _build/nrf52832_xxaa/nrf_strerror.c.o
 *fill*         0x0003c9d3        0x1 
 .rodata        0x0003c9d4      0x3e9 _build/nrf52832_xxaa/nrf_strerror.c.o
 *fill*         0x0003cdbd        0x3 
 .rodata.nrf_strerror_array
                0x0003cdc0      0x128 _build/nrf52832_xxaa/nrf_strerror.c.o
 .rodata.m_board_led_list
                0x0003cee8        0x2 _build/nrf52832_xxaa/boards.c.o
 *fill*         0x0003ceea        0x2 
 .rodata.m_board_btn_list
                0x0003ceec        0x2 _build/nrf52832_xxaa/boards.c.o
 *fill*         0x0003ceee        0x2 
 .rodata        0x0003cef0       0x26 _build/nrf52832_xxaa/nrf_drv_clock.c.o
 *fill*         0x0003cf16        0x2 
 .rodata.__func__.8961
                0x0003cf18       0x13 _build/nrf52832_xxaa/nrf_drv_clock.c.o
 *fill*         0x0003cf2b        0x5 
 .rodata.delay_machine_code.8344
                0x0003cf30        0x6 _build/nrf52832_xxaa/nrf_drv_twi.c.o
 *fill*         0x0003cf36        0x2 
 .rodata        0x0003cf38       0x5b _build/nrf52832_xxaa/nrfx_clock.c.o
 *fill*         0x0003cf93        0x1 
 .rodata.__func__.8819
                0x0003cf94       0x10 _build/nrf52832_xxaa/nrfx_clock.c.o
 .rodata        0x0003cfa4        0x7 _build/nrf52832_xxaa/nrfx_gpiote.c.o
 *fill*         0x0003cfab        0x1 
 .rodata        0x0003cfac        0x4 _build/nrf52832_xxaa/nrfx_prs.c.o
 .rodata        0x0003cfb0        0x5 _build/nrf52832_xxaa/nrfx_uart.c.o
 *fill*         0x0003cfb5        0x3 
 .rodata.irq_handlers.9245
                0x0003cfb8        0x4 _build/nrf52832_xxaa/nrfx_uart.c.o
 .rodata        0x0003cfbc        0x6 _build/nrf52832_xxaa/nrfx_uarte.c.o
 *fill*         0x0003cfc2        0x2 
 .rodata.irq_handlers.9287
                0x0003cfc4        0x4 _build/nrf52832_xxaa/nrfx_uarte.c.o
 .rodata        0x0003cfc8        0x4 _build/nrf52832_xxaa/nrfx_twi.c.o
 .rodata.irq_handlers.9196
                0x0003cfcc        0x4 _build/nrf52832_xxaa/nrfx_twi.c.o
 .rodata.m_bsp_leds_tmr
                0x0003cfd0        0x4 _build/nrf52832_xxaa/bsp.c.o
 .rodata.m_bsp_alert_tmr
                0x0003cfd4        0x4 _build/nrf52832_xxaa/bsp.c.o
 .rodata.m_bsp_button_tmr
                0x0003cfd8        0x4 _build/nrf52832_xxaa/bsp.c.o
 .rodata.app_buttons
                0x0003cfdc       0x10 _build/nrf52832_xxaa/bsp.c.o
 .rodata.m_nrf_uart_id_rx_timer
                0x0003cfec        0x4 _build/nrf52832_xxaa/main.c.o
 .rodata.m_nrf_uart_id_tx_timer
                0x0003cff0        0x4 _build/nrf52832_xxaa/main.c.o
 .rodata.m_nrf_uart_id
                0x0003cff4       0x20 _build/nrf52832_xxaa/main.c.o
 .rodata.m_uart0_drv_config
                0x0003d014       0x20 _build/nrf52832_xxaa/main.c.o
 .rodata.serial_queues
                0x0003d034        0x8 _build/nrf52832_xxaa/main.c.o
 .rodata.serial_buffs
                0x0003d03c        0xc _build/nrf52832_xxaa/main.c.o
 .rodata.serial_config
                0x0003d048       0x14 _build/nrf52832_xxaa/main.c.o
 .rodata.m_twi_mngr
                0x0003d05c       0x18 _build/nrf52832_xxaa/main.c.o
 .rodata.m_twi_config
                0x0003d074       0x10 _build/nrf52832_xxaa/main.c.o
                0x0003d074                m_twi_config
 .rodata        0x0003d084       0xf1 _build/nrf52832_xxaa/main.c.o
 *fill*         0x0003d175        0x3 
 .rodata.m_app_timer_id
                0x0003d178        0x4 _build/nrf52832_xxaa/main.c.o
 .rodata        0x0003d17c       0x17 _build/nrf52832_xxaa/SEGGER_RTT.c.o
 *fill*         0x0003d193        0x1 
 .rodata        0x0003d194      0x326 _build/nrf52832_xxaa/gatt_cache_manager.c.o
 *fill*         0x0003d4ba        0x2 
 .rodata.car_value_true.10854
                0x0003d4bc        0x4 _build/nrf52832_xxaa/gatt_cache_manager.c.o
 .rodata.car_value_false.10855
                0x0003d4c0        0x4 _build/nrf52832_xxaa/gatt_cache_manager.c.o
 .rodata        0x0003d4c4      0x1c0 _build/nrf52832_xxaa/gatts_cache_manager.c.o
 .rodata.service_changed_pending.10558
                0x0003d684        0x4 _build/nrf52832_xxaa/gatts_cache_manager.c.o
 .rodata.service_changed_pending.10615
                0x0003d688        0x4 _build/nrf52832_xxaa/gatts_cache_manager.c.o
 .rodata        0x0003d68c       0xfe _build/nrf52832_xxaa/id_manager.c.o
 *fill*         0x0003d78a        0x2 
 .rodata.m_evt_handlers
                0x0003d78c        0x8 _build/nrf52832_xxaa/id_manager.c.o
 .rodata        0x0003d794      0x157 _build/nrf52832_xxaa/nrf_ble_gatt.c.o
 *fill*         0x0003d8eb        0x1 
 .rodata        0x0003d8ec      0x190 _build/nrf52832_xxaa/peer_data_storage.c.o
 .rodata        0x0003da7c      0x224 _build/nrf52832_xxaa/peer_database.c.o
 .rodata.m_evt_handlers
                0x0003dca0       0x10 _build/nrf52832_xxaa/peer_database.c.o
 .rodata        0x0003dcb0      0x24c _build/nrf52832_xxaa/peer_manager.c.o
 .rodata.__func__.10934
                0x0003defc        0x8 _build/nrf52832_xxaa/peer_manager.c.o
 .rodata.__func__.11117
                0x0003df04       0x10 _build/nrf52832_xxaa/peer_manager.c.o
 .rodata        0x0003df14      0x8a2 _build/nrf52832_xxaa/peer_manager_handler.c.o
 *fill*         0x0003e7b6        0x2 
 .rodata        0x0003e7b8      0x39e _build/nrf52832_xxaa/security_dispatcher.c.o
 *fill*         0x0003eb56        0x2 
 .rodata.__func__.10817
                0x0003eb58       0x10 _build/nrf52832_xxaa/security_dispatcher.c.o
 .rodata        0x0003eb68      0x1fb _build/nrf52832_xxaa/security_manager.c.o
 *fill*         0x0003ed63        0x1 
 .rodata        0x0003ed64        0xc _build/nrf52832_xxaa/nrf_sdh.c.o
 .rodata.sdh_req_observers
                0x0003ed70        0xc _build/nrf52832_xxaa/nrf_sdh.c.o
 .rodata.sdh_state_observers
                0x0003ed7c        0xc _build/nrf52832_xxaa/nrf_sdh.c.o
 .rodata.sdh_stack_observers
                0x0003ed88        0xc _build/nrf52832_xxaa/nrf_sdh.c.o
 .rodata        0x0003ed94      0x241 _build/nrf52832_xxaa/nrf_sdh_ble.c.o
 *fill*         0x0003efd5        0x3 
 .rodata.sdh_ble_observers
                0x0003efd8        0xc _build/nrf52832_xxaa/nrf_sdh_ble.c.o
 .rodata        0x0003efe4        0xc _build/nrf52832_xxaa/nrf_sdh_soc.c.o
 .rodata.sdh_soc_observers
                0x0003eff0        0xc _build/nrf52832_xxaa/nrf_sdh_soc.c.o
 .rodata._global_impure_ptr
                0x0003effc        0x4 c:/program files (x86)/gnu tools arm embedded/7 2018-q2-update/bin/../lib/gcc/arm-none-eabi/7.3.1/../../../../arm-none-eabi/lib/thumb/v7e-m/fpv4-sp/hard\libc_nano.a(lib_a-impure.o)
                0x0003effc                _global_impure_ptr
 .rodata._setlocale_r.str1.1
                0x0003f000        0x8 c:/program files (x86)/gnu tools arm embedded/7 2018-q2-update/bin/../lib/gcc/arm-none-eabi/7.3.1/../../../../arm-none-eabi/lib/thumb/v7e-m/fpv4-sp/hard\libc_nano.a(lib_a-locale.o)
                                  0x9 (size before relaxing)
 .rodata.str1.1
                0x0003f008        0x2 c:/program files (x86)/gnu tools arm embedded/7 2018-q2-update/bin/../lib/gcc/arm-none-eabi/7.3.1/../../../../arm-none-eabi/lib/thumb/v7e-m/fpv4-sp/hard\libc_nano.a(lib_a-locale.o)
 .rodata._ctype_
                0x0003f00a      0x101 c:/program files (x86)/gnu tools arm embedded/7 2018-q2-update/bin/../lib/gcc/arm-none-eabi/7.3.1/../../../../arm-none-eabi/lib/thumb/v7e-m/fpv4-sp/hard\libc_nano.a(lib_a-ctype_.o)
                0x0003f00a                _ctype_
 *(.eh_frame*)
 *fill*         0x0003f10b        0x1 
 .eh_frame      0x0003f10c        0x0 c:/program files (x86)/gnu tools arm embedded/7 2018-q2-update/bin/../lib/gcc/arm-none-eabi/7.3.1/thumb/v7e-m/fpv4-sp/hard/crtbegin.o
 .eh_frame      0x0003f10c        0x4 c:/program files (x86)/gnu tools arm embedded/7 2018-q2-update/bin/../lib/gcc/arm-none-eabi/7.3.1/thumb/v7e-m/fpv4-sp/hard/crtend.o

.glue_7         0x0003f110        0x0
 .glue_7        0x0003f110        0x0 linker stubs

.glue_7t        0x0003f110        0x0
 .glue_7t       0x0003f110        0x0 linker stubs

.vfp11_veneer   0x0003f110        0x0
 .vfp11_veneer  0x0003f110        0x0 linker stubs

.v4_bx          0x0003f110        0x0
 .v4_bx         0x0003f110        0x0 linker stubs

.iplt           0x0003f110        0x0
 .iplt          0x0003f110        0x0 c:/program files (x86)/gnu tools arm embedded/7 2018-q2-update/bin/../lib/gcc/arm-none-eabi/7.3.1/thumb/v7e-m/fpv4-sp/hard/crtbegin.o

.mem_section_dummy_rom

.sdh_soc_observers
                0x0003f110       0x18
                0x0003f110                PROVIDE (__start_sdh_soc_observers = .)
 *(SORT_BY_NAME(.sdh_soc_observers*))
 .sdh_soc_observers0
                0x0003f110        0x8 _build/nrf52832_xxaa/nrf_fstorage_sd.c.o
 .sdh_soc_observers0
                0x0003f118        0x8 _build/nrf52832_xxaa/nrf_drv_clock.c.o
 .sdh_soc_observers1
                0x0003f120        0x8 _build/nrf52832_xxaa/main.c.o
                0x0003f128                PROVIDE (__stop_sdh_soc_observers = .)

.pwr_mgmt_data  0x0003f128        0x0
                0x0003f128                PROVIDE (__start_pwr_mgmt_data = .)
 *(SORT_BY_NAME(.pwr_mgmt_data*))
                0x0003f128                PROVIDE (__stop_pwr_mgmt_data = .)

.sdh_ble_observers
                0x0003f128       0x40
                0x0003f128                PROVIDE (__start_sdh_ble_observers = .)
 *(SORT_BY_NAME(.sdh_ble_observers*))
 .sdh_ble_observers0
                0x0003f128        0x8 _build/nrf52832_xxaa/ble_conn_state.c.o
 .sdh_ble_observers1
                0x0003f130        0x8 _build/nrf52832_xxaa/bsp_btn_ble.c.o
 .sdh_ble_observers1
                0x0003f138       0x10 _build/nrf52832_xxaa/main.c.o
 .sdh_ble_observers1
                0x0003f148        0x8 _build/nrf52832_xxaa/ble_conn_params.c.o
 .sdh_ble_observers1
                0x0003f150        0x8 _build/nrf52832_xxaa/peer_manager.c.o
 .sdh_ble_observers2
                0x0003f158        0x8 _build/nrf52832_xxaa/main.c.o
 .sdh_ble_observers3
                0x0003f160        0x8 _build/nrf52832_xxaa/main.c.o
                0x0003f168                PROVIDE (__stop_sdh_ble_observers = .)

.sdh_req_observers
                0x0003f168        0x8
                0x0003f168                PROVIDE (__start_sdh_req_observers = .)
 *(SORT_BY_NAME(.sdh_req_observers*))
 .sdh_req_observers0
                0x0003f168        0x8 _build/nrf52832_xxaa/nrf_fstorage_sd.c.o
                0x0003f168                m_req_obs
                0x0003f170                PROVIDE (__stop_sdh_req_observers = .)

.sdh_state_observers
                0x0003f170       0x10
                0x0003f170                PROVIDE (__start_sdh_state_observers = .)
 *(SORT_BY_NAME(.sdh_state_observers*))
 .sdh_state_observers0
                0x0003f170        0x8 _build/nrf52832_xxaa/nrf_fstorage_sd.c.o
 .sdh_state_observers0
                0x0003f178        0x8 _build/nrf52832_xxaa/nrf_drv_clock.c.o
                0x0003f180                PROVIDE (__stop_sdh_state_observers = .)

.sdh_stack_observers
                0x0003f180       0x10
                0x0003f180                PROVIDE (__start_sdh_stack_observers = .)
 *(SORT_BY_NAME(.sdh_stack_observers*))
 .sdh_stack_observers0
                0x0003f180        0x8 _build/nrf52832_xxaa/nrf_sdh_ble.c.o
 .sdh_stack_observers0
                0x0003f188        0x8 _build/nrf52832_xxaa/nrf_sdh_soc.c.o
                0x0003f190                PROVIDE (__stop_sdh_stack_observers = .)

.nrf_queue      0x0003f190       0x3c
                [!provide]                PROVIDE (__start_nrf_queue = .)
 *(.nrf_queue)
 .nrf_queue     0x0003f190       0x3c _build/nrf52832_xxaa/main.c.o
                0x0003f190                serial_queues_rxq
                0x0003f1a4                serial_queues_txq
                0x0003f1b8                m_twi_mngr_queue
                [!provide]                PROVIDE (__stop_nrf_queue = .)

.nrf_balloc     0x0003f1cc       0x14
                [!provide]                PROVIDE (__start_nrf_balloc = .)
 *(.nrf_balloc)
 .nrf_balloc    0x0003f1cc       0x14 _build/nrf52832_xxaa/nrf_log_frontend.c.o
                0x0003f1cc                log_mempool
                [!provide]                PROVIDE (__stop_nrf_balloc = .)

.cli_command    0x0003f1e0        0x0
                [!provide]                PROVIDE (__start_cli_command = .)
 *(.cli_command)
                [!provide]                PROVIDE (__stop_cli_command = .)

.crypto_data    0x0003f1e0        0x0
                [!provide]                PROVIDE (__start_crypto_data = .)
 *(SORT_BY_NAME(.crypto_data*))
                [!provide]                PROVIDE (__stop_crypto_data = .)

.log_const_data
                0x0003f1e0       0xb8
                0x0003f1e0                PROVIDE (__start_log_const_data = .)
 *(SORT_BY_NAME(.log_const_data*))
 .log_const_data_CLOCK
                0x0003f1e0        0x8 _build/nrf52832_xxaa/nrfx_clock.c.o
                0x0003f1e0                m_nrf_log_CLOCK_logs_data_const
 .log_const_data_GPIOTE
                0x0003f1e8        0x8 _build/nrf52832_xxaa/nrfx_gpiote.c.o
                0x0003f1e8                m_nrf_log_GPIOTE_logs_data_const
 .log_const_data_PRS
                0x0003f1f0        0x8 _build/nrf52832_xxaa/nrfx_prs.c.o
                0x0003f1f0                m_nrf_log_PRS_logs_data_const
 .log_const_data_TWI
                0x0003f1f8        0x8 _build/nrf52832_xxaa/nrfx_twi.c.o
                0x0003f1f8                m_nrf_log_TWI_logs_data_const
 .log_const_data_UART
                0x0003f200        0x8 _build/nrf52832_xxaa/nrfx_uart.c.o
                0x0003f200                m_nrf_log_UART_logs_data_const
 .log_const_data_UARTE
                0x0003f208        0x8 _build/nrf52832_xxaa/nrfx_uarte.c.o
                0x0003f208                m_nrf_log_UARTE_logs_data_const
 .log_const_data_app
                0x0003f210        0x8 _build/nrf52832_xxaa/nrf_log_frontend.c.o
                0x0003f210                m_nrf_log_app_logs_data_const
 .log_const_data_clock
                0x0003f218        0x8 _build/nrf52832_xxaa/nrf_drv_clock.c.o
                0x0003f218                m_nrf_log_clock_logs_data_const
 .log_const_data_nrf_ble_gatt
                0x0003f220        0x8 _build/nrf52832_xxaa/nrf_ble_gatt.c.o
                0x0003f220                m_nrf_log_nrf_ble_gatt_logs_data_const
 .log_const_data_nrf_fstorage
                0x0003f228        0x8 _build/nrf52832_xxaa/nrf_fstorage.c.o
                0x0003f228                m_nrf_log_nrf_fstorage_logs_data_const
 .log_const_data_nrf_sdh
                0x0003f230        0x8 _build/nrf52832_xxaa/nrf_sdh.c.o
                0x0003f230                m_nrf_log_nrf_sdh_logs_data_const
 .log_const_data_nrf_sdh_ble
                0x0003f238        0x8 _build/nrf52832_xxaa/nrf_sdh_ble.c.o
                0x0003f238                m_nrf_log_nrf_sdh_ble_logs_data_const
 .log_const_data_nrf_sdh_soc
                0x0003f240        0x8 _build/nrf52832_xxaa/nrf_sdh_soc.c.o
                0x0003f240                m_nrf_log_nrf_sdh_soc_logs_data_const
 .log_const_data_peer_manager
                0x0003f248        0x8 _build/nrf52832_xxaa/peer_manager.c.o
                0x0003f248                m_nrf_log_peer_manager_logs_data_const
 .log_const_data_peer_manager_gcm
                0x0003f250        0x8 _build/nrf52832_xxaa/gatt_cache_manager.c.o
                0x0003f250                m_nrf_log_peer_manager_gcm_logs_data_const
 .log_const_data_peer_manager_gscm
                0x0003f258        0x8 _build/nrf52832_xxaa/gatts_cache_manager.c.o
                0x0003f258                m_nrf_log_peer_manager_gscm_logs_data_const
 .log_const_data_peer_manager_handler
                0x0003f260        0x8 _build/nrf52832_xxaa/peer_manager_handler.c.o
                0x0003f260                m_nrf_log_peer_manager_handler_logs_data_const
 .log_const_data_peer_manager_im
                0x0003f268        0x8 _build/nrf52832_xxaa/id_manager.c.o
                0x0003f268                m_nrf_log_peer_manager_im_logs_data_const
 .log_const_data_peer_manager_pdb
                0x0003f270        0x8 _build/nrf52832_xxaa/peer_database.c.o
                0x0003f270                m_nrf_log_peer_manager_pdb_logs_data_const
 .log_const_data_peer_manager_pds
                0x0003f278        0x8 _build/nrf52832_xxaa/peer_data_storage.c.o
                0x0003f278                m_nrf_log_peer_manager_pds_logs_data_const
 .log_const_data_peer_manager_sm
                0x0003f280        0x8 _build/nrf52832_xxaa/security_manager.c.o
                0x0003f280                m_nrf_log_peer_manager_sm_logs_data_const
 .log_const_data_peer_manager_smd
                0x0003f288        0x8 _build/nrf52832_xxaa/security_dispatcher.c.o
                0x0003f288                m_nrf_log_peer_manager_smd_logs_data_const
 .log_const_data_pwr_mgmt
                0x0003f290        0x8 _build/nrf52832_xxaa/nrf_pwr_mgmt.c.o
                0x0003f290                m_nrf_log_pwr_mgmt_logs_data_const
                0x0003f298                PROVIDE (__stop_log_const_data = .)

.log_backends   0x0003f298       0x10
                [!provide]                PROVIDE (__start_log_backends = .)
 *(SORT_BY_NAME(.log_backends*))
 .log_backends  0x0003f298       0x10 _build/nrf52832_xxaa/nrf_log_default_backends.c.o
                [!provide]                PROVIDE (__stop_log_backends = .)

.ARM.extab
 *(.ARM.extab* .gnu.linkonce.armextab.*)
                0x0003f2a8                __exidx_start = .

.ARM.exidx      0x0003f2a8        0x8
 *(.ARM.exidx* .gnu.linkonce.armexidx.*)
 .ARM.exidx     0x0003f2a8        0x8 c:/program files (x86)/gnu tools arm embedded/7 2018-q2-update/bin/../lib/gcc/arm-none-eabi/7.3.1/../../../../arm-none-eabi/lib/thumb/v7e-m/fpv4-sp/hard/crt0.o
 .ARM.exidx     0x0003f2b0        0x0 c:/program files (x86)/gnu tools arm embedded/7 2018-q2-update/bin/../lib/gcc/arm-none-eabi/7.3.1/thumb/v7e-m/fpv4-sp/hard\libgcc.a(_udivmoddi4.o)
                                  0x8 (size before relaxing)
                0x0003f2b0                __exidx_end = .
                0x0003f2b0                __etext = .

.rel.dyn        0x0003f2b0        0x0
 .rel.iplt      0x0003f2b0        0x0 c:/program files (x86)/gnu tools arm embedded/7 2018-q2-update/bin/../lib/gcc/arm-none-eabi/7.3.1/thumb/v7e-m/fpv4-sp/hard/crtbegin.o

.data           0x20002218      0x2d4 load address 0x0003f2b0
                0x20002218                __data_start__ = .
 *(vtable)
 *(.data*)
 .data.log_backend_cb_rtt_log_backend
                0x20002218        0x8 _build/nrf52832_xxaa/nrf_log_default_backends.c.o
 .data.severity_names
                0x20002220       0x14 _build/nrf52832_xxaa/nrf_log_str_formatter.c.o
 .data.m_colors
                0x20002234       0x24 _build/nrf52832_xxaa/nrf_log_str_formatter.c.o
 .data.SystemCoreClock
                0x20002258        0x4 _build/nrf52832_xxaa/system_nrf52.c.o
                0x20002258                SystemCoreClock
 .data.m_conn_handle
                0x2000225c        0x2 _build/nrf52832_xxaa/main.c.o
 *fill*         0x2000225e        0x2 
 .data.m_adv_uuids
                0x20002260        0x4 _build/nrf52832_xxaa/main.c.o
 .data.transaction.13676
                0x20002264       0x14 _build/nrf52832_xxaa/main.c.o
 .data.bat_twi_trsfr.13675
                0x20002278       0x10 _build/nrf52832_xxaa/main.c.o
 .data.transaction.13692
                0x20002288       0x14 _build/nrf52832_xxaa/main.c.o
 .data.osc_ext_trsfr.13691
                0x2000229c        0x8 _build/nrf52832_xxaa/main.c.o
 .data.ad5933_trsfr.13701
                0x200022a4        0x8 _build/nrf52832_xxaa/main.c.o
 .data.m_evt_handlers
                0x200022ac        0x4 _build/nrf52832_xxaa/gatt_cache_manager.c.o
 .data.m_evt_handlers
                0x200022b0        0x4 _build/nrf52832_xxaa/gatts_cache_manager.c.o
 .data.m_roles_str
                0x200022b4        0xc _build/nrf52832_xxaa/peer_manager_handler.c.o
 .data.m_sec_procedure_str
                0x200022c0        0xc _build/nrf52832_xxaa/peer_manager_handler.c.o
 .data.m_data_id_str
                0x200022cc       0x28 _build/nrf52832_xxaa/peer_manager_handler.c.o
 .data.m_data_action_str
                0x200022f4        0x8 _build/nrf52832_xxaa/peer_manager_handler.c.o
 .data.rank_queue.10899
                0x200022fc       0x10 _build/nrf52832_xxaa/peer_manager_handler.c.o
 .data.m_flag_sec_proc
                0x2000230c        0x1 _build/nrf52832_xxaa/security_dispatcher.c.o
 .data.m_flag_sec_proc_pairing
                0x2000230d        0x1 _build/nrf52832_xxaa/security_dispatcher.c.o
 .data.m_flag_sec_proc_bonding
                0x2000230e        0x1 _build/nrf52832_xxaa/security_dispatcher.c.o
 .data.m_flag_allow_repairing
                0x2000230f        0x1 _build/nrf52832_xxaa/security_dispatcher.c.o
 .data.m_flag_link_secure_pending_busy
                0x20002310        0x1 _build/nrf52832_xxaa/security_manager.c.o
 .data.m_flag_link_secure_force_repairing
                0x20002311        0x1 _build/nrf52832_xxaa/security_manager.c.o
 .data.m_flag_link_secure_null_params
                0x20002312        0x1 _build/nrf52832_xxaa/security_manager.c.o
 .data.m_flag_params_reply_pending_busy
                0x20002313        0x1 _build/nrf52832_xxaa/security_manager.c.o
 .data._impure_ptr
                0x20002314        0x4 c:/program files (x86)/gnu tools arm embedded/7 2018-q2-update/bin/../lib/gcc/arm-none-eabi/7.3.1/../../../../arm-none-eabi/lib/thumb/v7e-m/fpv4-sp/hard\libc_nano.a(lib_a-impure.o)
                0x20002314                _impure_ptr
 .data.impure_data
                0x20002318       0x60 c:/program files (x86)/gnu tools arm embedded/7 2018-q2-update/bin/../lib/gcc/arm-none-eabi/7.3.1/../../../../arm-none-eabi/lib/thumb/v7e-m/fpv4-sp/hard\libc_nano.a(lib_a-impure.o)
 .data.__global_locale
                0x20002378      0x16c c:/program files (x86)/gnu tools arm embedded/7 2018-q2-update/bin/../lib/gcc/arm-none-eabi/7.3.1/../../../../arm-none-eabi/lib/thumb/v7e-m/fpv4-sp/hard\libc_nano.a(lib_a-locale.o)
                0x20002378                __global_locale
                0x200024e4                . = ALIGN (0x4)
                0x200024e4                PROVIDE (__preinit_array_start = .)
 *(.preinit_array)
                0x200024e4                PROVIDE (__preinit_array_end = .)
                0x200024e4                . = ALIGN (0x4)
                0x200024e4                PROVIDE (__init_array_start = .)
 *(SORT_BY_NAME(.init_array.*))
 *(.init_array)
 .init_array    0x200024e4        0x4 c:/program files (x86)/gnu tools arm embedded/7 2018-q2-update/bin/../lib/gcc/arm-none-eabi/7.3.1/thumb/v7e-m/fpv4-sp/hard/crtbegin.o
                0x200024e8                PROVIDE (__init_array_end = .)
                0x200024e8                . = ALIGN (0x4)
                [!provide]                PROVIDE (__fini_array_start = .)
 *(SORT_BY_NAME(.fini_array.*))
 *(.fini_array)
 .fini_array    0x200024e8        0x4 c:/program files (x86)/gnu tools arm embedded/7 2018-q2-update/bin/../lib/gcc/arm-none-eabi/7.3.1/thumb/v7e-m/fpv4-sp/hard/crtbegin.o
                [!provide]                PROVIDE (__fini_array_end = .)
 *(.jcr*)
                0x200024ec                . = ALIGN (0x4)
                0x200024ec                __data_end__ = .
LOAD c:/program files (x86)/gnu tools arm embedded/7 2018-q2-update/bin/../lib/gcc/arm-none-eabi/7.3.1/thumb/v7e-m/fpv4-sp/hard/crti.o
LOAD c:/program files (x86)/gnu tools arm embedded/7 2018-q2-update/bin/../lib/gcc/arm-none-eabi/7.3.1/thumb/v7e-m/fpv4-sp/hard/crtbegin.o
LOAD c:/program files (x86)/gnu tools arm embedded/7 2018-q2-update/bin/../lib/gcc/arm-none-eabi/7.3.1/../../../../arm-none-eabi/lib/thumb/v7e-m/fpv4-sp/hard/crt0.o
LOAD _build/nrf52832_xxaa/gcc_startup_nrf52.S.o
LOAD _build/nrf52832_xxaa/nrf_log_backend_rtt.c.o
LOAD _build/nrf52832_xxaa/nrf_log_backend_serial.c.o
LOAD _build/nrf52832_xxaa/nrf_log_backend_uart.c.o
LOAD _build/nrf52832_xxaa/nrf_log_default_backends.c.o
LOAD _build/nrf52832_xxaa/nrf_log_frontend.c.o
LOAD _build/nrf52832_xxaa/nrf_log_str_formatter.c.o
LOAD _build/nrf52832_xxaa/app_button.c.o
LOAD _build/nrf52832_xxaa/app_error.c.o
LOAD _build/nrf52832_xxaa/app_error_handler_gcc.c.o
LOAD _build/nrf52832_xxaa/app_error_weak.c.o
LOAD _build/nrf52832_xxaa/app_scheduler.c.o
LOAD _build/nrf52832_xxaa/app_timer.c.o
LOAD _build/nrf52832_xxaa/app_util_platform.c.o
LOAD _build/nrf52832_xxaa/crc16.c.o
LOAD _build/nrf52832_xxaa/fds.c.o
LOAD _build/nrf52832_xxaa/hardfault_implementation.c.o
LOAD _build/nrf52832_xxaa/nrf_assert.c.o
LOAD _build/nrf52832_xxaa/nrf_atfifo.c.o
LOAD _build/nrf52832_xxaa/nrf_atflags.c.o
LOAD _build/nrf52832_xxaa/nrf_atomic.c.o
LOAD _build/nrf52832_xxaa/nrf_balloc.c.o
LOAD _build/nrf52832_xxaa/nrf_fprintf.c.o
LOAD _build/nrf52832_xxaa/nrf_fprintf_format.c.o
LOAD _build/nrf52832_xxaa/nrf_fstorage.c.o
LOAD _build/nrf52832_xxaa/nrf_fstorage_sd.c.o
LOAD _build/nrf52832_xxaa/nrf_memobj.c.o
LOAD _build/nrf52832_xxaa/nrf_pwr_mgmt.c.o
LOAD _build/nrf52832_xxaa/nrf_ringbuf.c.o
LOAD _build/nrf52832_xxaa/nrf_section_iter.c.o
LOAD _build/nrf52832_xxaa/nrf_queue.c.o
LOAD _build/nrf52832_xxaa/nrf_strerror.c.o
LOAD _build/nrf52832_xxaa/sensorsim.c.o
LOAD _build/nrf52832_xxaa/nrf_serial.c.o
LOAD _build/nrf52832_xxaa/nrf_twi_mngr.c.o
LOAD _build/nrf52832_xxaa/system_nrf52.c.o
LOAD _build/nrf52832_xxaa/boards.c.o
LOAD _build/nrf52832_xxaa/nrf_drv_clock.c.o
LOAD _build/nrf52832_xxaa/nrf_drv_uart.c.o
LOAD _build/nrf52832_xxaa/nrf_drv_twi.c.o
LOAD _build/nrf52832_xxaa/nrfx_atomic.c.o
LOAD _build/nrf52832_xxaa/nrfx_clock.c.o
LOAD _build/nrf52832_xxaa/nrfx_gpiote.c.o
LOAD _build/nrf52832_xxaa/nrfx_prs.c.o
LOAD _build/nrf52832_xxaa/nrfx_uart.c.o
LOAD _build/nrf52832_xxaa/nrfx_uarte.c.o
LOAD _build/nrf52832_xxaa/nrfx_twi.c.o
LOAD _build/nrf52832_xxaa/nrfx_twim.c.o
LOAD _build/nrf52832_xxaa/bsp.c.o
LOAD _build/nrf52832_xxaa/bsp_btn_ble.c.o
LOAD _build/nrf52832_xxaa/main.c.o
LOAD _build/nrf52832_xxaa/SEGGER_RTT.c.o
LOAD _build/nrf52832_xxaa/SEGGER_RTT_Syscalls_GCC.c.o
LOAD _build/nrf52832_xxaa/SEGGER_RTT_printf.c.o
LOAD _build/nrf52832_xxaa/auth_status_tracker.c.o
LOAD _build/nrf52832_xxaa/ble_advdata.c.o
LOAD _build/nrf52832_xxaa/ble_advertising.c.o
LOAD _build/nrf52832_xxaa/ble_conn_params.c.o
LOAD _build/nrf52832_xxaa/ble_conn_state.c.o
LOAD _build/nrf52832_xxaa/ble_srv_common.c.o
LOAD _build/nrf52832_xxaa/gatt_cache_manager.c.o
LOAD _build/nrf52832_xxaa/gatts_cache_manager.c.o
LOAD _build/nrf52832_xxaa/id_manager.c.o
LOAD _build/nrf52832_xxaa/nrf_ble_gatt.c.o
LOAD _build/nrf52832_xxaa/nrf_ble_qwr.c.o
LOAD _build/nrf52832_xxaa/peer_data_storage.c.o
LOAD _build/nrf52832_xxaa/peer_database.c.o
LOAD _build/nrf52832_xxaa/peer_id.c.o
LOAD _build/nrf52832_xxaa/peer_manager.c.o
LOAD _build/nrf52832_xxaa/peer_manager_handler.c.o
LOAD _build/nrf52832_xxaa/pm_buffer.c.o
LOAD _build/nrf52832_xxaa/security_dispatcher.c.o
LOAD _build/nrf52832_xxaa/security_manager.c.o
LOAD _build/nrf52832_xxaa/utf.c.o
LOAD _build/nrf52832_xxaa/nrf_sdh.c.o
LOAD _build/nrf52832_xxaa/nrf_sdh_ble.c.o
LOAD _build/nrf52832_xxaa/nrf_sdh_soc.c.o
LOAD c:/program files (x86)/gnu tools arm embedded/7 2018-q2-update/bin/../lib/gcc/arm-none-eabi/7.3.1/../../../../arm-none-eabi/lib/thumb/v7e-m/fpv4-sp/hard\libc_nano.a
LOAD c:/program files (x86)/gnu tools arm embedded/7 2018-q2-update/bin/../lib/gcc/arm-none-eabi/7.3.1/../../../../arm-none-eabi/lib/thumb/v7e-m/fpv4-sp/hard\libnosys.a
LOAD c:/program files (x86)/gnu tools arm embedded/7 2018-q2-update/bin/../lib/gcc/arm-none-eabi/7.3.1/../../../../arm-none-eabi/lib/thumb/v7e-m/fpv4-sp/hard\libm.a
START GROUP
LOAD c:/program files (x86)/gnu tools arm embedded/7 2018-q2-update/bin/../lib/gcc/arm-none-eabi/7.3.1/thumb/v7e-m/fpv4-sp/hard\libgcc.a
LOAD c:/program files (x86)/gnu tools arm embedded/7 2018-q2-update/bin/../lib/gcc/arm-none-eabi/7.3.1/../../../../arm-none-eabi/lib/thumb/v7e-m/fpv4-sp/hard\libg_nano.a
LOAD c:/program files (x86)/gnu tools arm embedded/7 2018-q2-update/bin/../lib/gcc/arm-none-eabi/7.3.1/../../../../arm-none-eabi/lib/thumb/v7e-m/fpv4-sp/hard\libc_nano.a
END GROUP
START GROUP
LOAD c:/program files (x86)/gnu tools arm embedded/7 2018-q2-update/bin/../lib/gcc/arm-none-eabi/7.3.1/thumb/v7e-m/fpv4-sp/hard\libgcc.a
LOAD c:/program files (x86)/gnu tools arm embedded/7 2018-q2-update/bin/../lib/gcc/arm-none-eabi/7.3.1/../../../../arm-none-eabi/lib/thumb/v7e-m/fpv4-sp/hard\libc_nano.a
END GROUP
LOAD c:/program files (x86)/gnu tools arm embedded/7 2018-q2-update/bin/../lib/gcc/arm-none-eabi/7.3.1/thumb/v7e-m/fpv4-sp/hard/crtend.o
LOAD c:/program files (x86)/gnu tools arm embedded/7 2018-q2-update/bin/../lib/gcc/arm-none-eabi/7.3.1/thumb/v7e-m/fpv4-sp/hard/crtn.o
START GROUP
LOAD c:/program files (x86)/gnu tools arm embedded/7 2018-q2-update/bin/../lib/gcc/arm-none-eabi/7.3.1/thumb/v7e-m/fpv4-sp/hard\libgcc.a
LOAD c:/program files (x86)/gnu tools arm embedded/7 2018-q2-update/bin/../lib/gcc/arm-none-eabi/7.3.1/../../../../arm-none-eabi/lib/thumb/v7e-m/fpv4-sp/hard\libc.a
LOAD c:/program files (x86)/gnu tools arm embedded/7 2018-q2-update/bin/../lib/gcc/arm-none-eabi/7.3.1/../../../../arm-none-eabi/lib/thumb/v7e-m/fpv4-sp/hard\libnosys.a
END GROUP

.igot.plt       0x200024ec        0x0 load address 0x0003f584
 .igot.plt      0x200024ec        0x0 c:/program files (x86)/gnu tools arm embedded/7 2018-q2-update/bin/../lib/gcc/arm-none-eabi/7.3.1/thumb/v7e-m/fpv4-sp/hard/crtbegin.o
                0x200024ec                . = ALIGN (0x4)

.mem_section_dummy_ram

.cli_sorted_cmd_ptrs
                0x200024ec        0x0
                [!provide]                PROVIDE (__start_cli_sorted_cmd_ptrs = .)
 *(.cli_sorted_cmd_ptrs)
                [!provide]                PROVIDE (__stop_cli_sorted_cmd_ptrs = .)

.fs_data        0x200024ec       0x14 load address 0x0003f584
                0x200024ec                PROVIDE (__start_fs_data = .)
 *(.fs_data)
 .fs_data       0x200024ec       0x14 _build/nrf52832_xxaa/fds.c.o
                0x200024ec                m_fs
                0x20002500                PROVIDE (__stop_fs_data = .)

.log_dynamic_data
                0x20002500        0x0
                0x20002500                PROVIDE (__start_log_dynamic_data = .)
 *(SORT_BY_NAME(.log_dynamic_data*))
                [!provide]                PROVIDE (__stop_log_dynamic_data = .)

.log_filter_data
                0x20002500        0x0
                [!provide]                PROVIDE (__start_log_filter_data = .)
 *(SORT_BY_NAME(.log_filter_data*))
                [!provide]                PROVIDE (__stop_log_filter_data = .)

.bss            0x20002500     0x15ac load address 0x0003f598
                0x20002500                . = ALIGN (0x4)
                0x20002500                __bss_start__ = .
 *(.bss*)
 .bss           0x20002500       0x1c c:/program files (x86)/gnu tools arm embedded/7 2018-q2-update/bin/../lib/gcc/arm-none-eabi/7.3.1/thumb/v7e-m/fpv4-sp/hard/crtbegin.o
 .bss.m_host_present
                0x2000251c        0x1 _build/nrf52832_xxaa/nrf_log_backend_rtt.c.o
 *fill*         0x2000251d        0x3 
 .bss.m_string_buff
                0x20002520       0x40 _build/nrf52832_xxaa/nrf_log_backend_rtt.c.o
 .bss.log_mempool_nrf_balloc_pool_stack
                0x20002560        0x8 _build/nrf52832_xxaa/nrf_log_frontend.c.o
 .bss.log_mempool_nrf_balloc_pool_mem
                0x20002568       0xc0 _build/nrf52832_xxaa/nrf_log_frontend.c.o
 .bss.log_mempool_nrf_balloc_cb
                0x20002628        0x8 _build/nrf52832_xxaa/nrf_log_frontend.c.o
 .bss.m_log_push_ringbuf_buf
                0x20002630       0x80 _build/nrf52832_xxaa/nrf_log_frontend.c.o
 .bss.m_log_push_ringbuf_cb
                0x200026b0       0x18 _build/nrf52832_xxaa/nrf_log_frontend.c.o
 .bss.m_log_data
                0x200026c8      0x424 _build/nrf52832_xxaa/nrf_log_frontend.c.o
 .bss.mp_buttons
                0x20002aec        0x4 _build/nrf52832_xxaa/app_button.c.o
 .bss.m_button_count
                0x20002af0        0x1 _build/nrf52832_xxaa/app_button.c.o
 *fill*         0x20002af1        0x3 
 .bss.m_detection_delay
                0x20002af4        0x4 _build/nrf52832_xxaa/app_button.c.o
 .bss.m_detection_delay_timer_id_data
                0x20002af8       0x20 _build/nrf52832_xxaa/app_button.c.o
 .bss.m_pin_state
                0x20002b18        0x8 _build/nrf52832_xxaa/app_button.c.o
 .bss.m_pin_transition
                0x20002b20        0x8 _build/nrf52832_xxaa/app_button.c.o
 .bss.m_op_queue
                0x20002b28      0x10c _build/nrf52832_xxaa/app_timer.c.o
 .bss.mp_timer_id_head
                0x20002c34        0x4 _build/nrf52832_xxaa/app_timer.c.o
 .bss.m_ticks_latest
                0x20002c38        0x4 _build/nrf52832_xxaa/app_timer.c.o
 .bss.m_ticks_elapsed
                0x20002c3c        0x8 _build/nrf52832_xxaa/app_timer.c.o
 .bss.m_ticks_elapsed_q_read_ind
                0x20002c44        0x1 _build/nrf52832_xxaa/app_timer.c.o
 .bss.m_ticks_elapsed_q_write_ind
                0x20002c45        0x1 _build/nrf52832_xxaa/app_timer.c.o
 .bss.m_rtc1_running
                0x20002c46        0x1 _build/nrf52832_xxaa/app_timer.c.o
 .bss.m_rtc1_reset
                0x20002c47        0x1 _build/nrf52832_xxaa/app_timer.c.o
 .bss.m_flags   0x20002c48        0x8 _build/nrf52832_xxaa/fds.c.o
 .bss.m_queued_op_cnt
                0x20002c50        0x4 _build/nrf52832_xxaa/fds.c.o
 .bss.m_users   0x20002c54        0x4 _build/nrf52832_xxaa/fds.c.o
 .bss.m_cb_table
                0x20002c58       0x10 _build/nrf52832_xxaa/fds.c.o
 .bss.m_latest_rec_id
                0x20002c68        0x4 _build/nrf52832_xxaa/fds.c.o
 .bss.m_queue_data
                0x20002c6c       0x8c _build/nrf52832_xxaa/fds.c.o
 .bss.m_queue_inst
                0x20002cf8       0x10 _build/nrf52832_xxaa/fds.c.o
 .bss.m_pages   0x20002d08       0x28 _build/nrf52832_xxaa/fds.c.o
 .bss.m_swap_page
                0x20002d30        0x8 _build/nrf52832_xxaa/fds.c.o
 .bss.m_gc      0x20002d38       0x10 _build/nrf52832_xxaa/fds.c.o
 .bss.tok.9087  0x20002d48        0x8 _build/nrf52832_xxaa/fds.c.o
 .bss.desc.9180
                0x20002d50        0xc _build/nrf52832_xxaa/fds.c.o
 .bss.page.9181
                0x20002d5c        0x2 _build/nrf52832_xxaa/fds.c.o
 *fill*         0x20002d5e        0x2 
 .bss.m_p_cur_op.9216
                0x20002d60        0x4 _build/nrf52832_xxaa/fds.c.o
 .bss.m_iget_ctx.9217
                0x20002d64        0x4 _build/nrf52832_xxaa/fds.c.o
 .bss.m_fifo_data
                0x20002d68       0x8c _build/nrf52832_xxaa/nrf_fstorage_sd.c.o
 .bss.m_fifo_inst
                0x20002df4       0x10 _build/nrf52832_xxaa/nrf_fstorage_sd.c.o
 .bss.m_flags   0x20002e04       0x14 _build/nrf52832_xxaa/nrf_fstorage_sd.c.o
 .bss.m_p_cur_op
                0x20002e18        0x4 _build/nrf52832_xxaa/nrf_fstorage_sd.c.o
 .bss.m_iget_ctx
                0x20002e1c        0x4 _build/nrf52832_xxaa/nrf_fstorage_sd.c.o
 .bss.m_sysoff_mtx
                0x20002e20        0x4 _build/nrf52832_xxaa/nrf_pwr_mgmt.c.o
 .bss.m_shutdown_started
                0x20002e24        0x1 _build/nrf52832_xxaa/nrf_pwr_mgmt.c.o
 *fill*         0x20002e25        0x3 
 .bss.m_handlers_iter
                0x20002e28        0x8 _build/nrf52832_xxaa/nrf_pwr_mgmt.c.o
 .bss.m_clock_cb
                0x20002e30       0x14 _build/nrf52832_xxaa/nrf_drv_clock.c.o
 .bss.m_handlers
                0x20002e44        0x4 _build/nrf52832_xxaa/nrf_drv_uart.c.o
 .bss.m_contexts
                0x20002e48        0x4 _build/nrf52832_xxaa/nrf_drv_uart.c.o
 .bss.m_handlers
                0x20002e4c        0x8 _build/nrf52832_xxaa/nrf_drv_twi.c.o
 .bss.m_contexts
                0x20002e54        0x8 _build/nrf52832_xxaa/nrf_drv_twi.c.o
 .bss.m_clock_cb
                0x20002e5c        0x8 _build/nrf52832_xxaa/nrfx_clock.c.o
 .bss.m_cb      0x20002e64       0x5c _build/nrf52832_xxaa/nrfx_gpiote.c.o
 .bss.m_prs_box_4
                0x20002ec0        0x8 _build/nrf52832_xxaa/nrfx_prs.c.o
 .bss.m_cb      0x20002ec8       0x2c _build/nrf52832_xxaa/nrfx_uart.c.o
 .bss.m_cb      0x20002ef4       0x24 _build/nrf52832_xxaa/nrfx_uarte.c.o
 .bss.m_cb      0x20002f18       0x3c _build/nrf52832_xxaa/nrfx_twi.c.o
 .bss.m_stable_state
                0x20002f54        0x1 _build/nrf52832_xxaa/bsp.c.o
 .bss.m_leds_clear
                0x20002f55        0x1 _build/nrf52832_xxaa/bsp.c.o
 *fill*         0x20002f56        0x2 
 .bss.m_indication_type
                0x20002f58        0x4 _build/nrf52832_xxaa/bsp.c.o
 .bss.m_alert_on
                0x20002f5c        0x1 _build/nrf52832_xxaa/bsp.c.o
 *fill*         0x20002f5d        0x3 
 .bss.m_bsp_leds_tmr_data
                0x20002f60       0x20 _build/nrf52832_xxaa/bsp.c.o
 .bss.m_bsp_alert_tmr_data
                0x20002f80       0x20 _build/nrf52832_xxaa/bsp.c.o
 .bss.m_registered_callback
                0x20002fa0        0x4 _build/nrf52832_xxaa/bsp.c.o
 .bss.m_events_list
                0x20002fa4        0x6 _build/nrf52832_xxaa/bsp.c.o
 *fill*         0x20002faa        0x2 
 .bss.m_bsp_button_tmr_data
                0x20002fac       0x20 _build/nrf52832_xxaa/bsp.c.o
 .bss.current_long_push_pin_no.8927
                0x20002fcc        0x1 _build/nrf52832_xxaa/bsp.c.o
 *fill*         0x20002fcd        0x3 
 .bss.release_event_at_push.8928
                0x20002fd0        0x2 _build/nrf52832_xxaa/bsp.c.o
 *fill*         0x20002fd2        0x2 
 .bss.m_error_handler
                0x20002fd4        0x4 _build/nrf52832_xxaa/bsp_btn_ble.c.o
 .bss.m_num_connections
                0x20002fd8        0x4 _build/nrf52832_xxaa/bsp_btn_ble.c.o
 .bss.m_gatt    0x20002fdc       0x14 _build/nrf52832_xxaa/main.c.o
 .bss.m_qwr     0x20002ff0        0xc _build/nrf52832_xxaa/main.c.o
 .bss.m_advertising
                0x20002ffc      0x258 _build/nrf52832_xxaa/main.c.o
 .bss.m_nrf_uart_id_rx_timer_data
                0x20003254       0x20 _build/nrf52832_xxaa/main.c.o
 .bss.m_nrf_uart_id_tx_timer_data
                0x20003274       0x20 _build/nrf52832_xxaa/main.c.o
 .bss.m_nrf_uart_id_ctx
                0x20003294       0x10 _build/nrf52832_xxaa/main.c.o
 .bss.serial_queues_rxq_nrf_queue_buffer
                0x200032a4       0x21 _build/nrf52832_xxaa/main.c.o
 *fill*         0x200032c5        0x3 
 .bss.serial_queues_rxq_nrf_queue_cb
                0x200032c8        0xc _build/nrf52832_xxaa/main.c.o
 .bss.serial_queues_txq_nrf_queue_buffer
                0x200032d4       0x21 _build/nrf52832_xxaa/main.c.o
 *fill*         0x200032f5        0x3 
 .bss.serial_queues_txq_nrf_queue_cb
                0x200032f8        0xc _build/nrf52832_xxaa/main.c.o
 .bss.serial_buffs_txb
                0x20003304        0x1 _build/nrf52832_xxaa/main.c.o
 *fill*         0x20003305        0x3 
 .bss.serial_buffs_rxb
                0x20003308        0x1 _build/nrf52832_xxaa/main.c.o
 *fill*         0x20003309        0x3 
 .bss.m_twi_mngr_queue_nrf_queue_buffer
                0x2000330c       0x84 _build/nrf52832_xxaa/main.c.o
 .bss.m_twi_mngr_queue_nrf_queue_cb
                0x20003390        0xc _build/nrf52832_xxaa/main.c.o
 .bss.m_twi_mngr_cb
                0x2000339c       0x1c _build/nrf52832_xxaa/main.c.o
 .bss.bat_stat_reg
                0x200033b8        0x8 _build/nrf52832_xxaa/main.c.o
 .bss.m_app_timer_id_data
                0x200033c0       0x20 _build/nrf52832_xxaa/main.c.o
 .bss.next_state.13747
                0x200033e0        0x1 _build/nrf52832_xxaa/main.c.o
 *fill*         0x200033e1        0x3 
 .bss._acUpBuffer
                0x200033e4      0x200 _build/nrf52832_xxaa/SEGGER_RTT.c.o
 .bss._acDownBuffer
                0x200035e4       0x10 _build/nrf52832_xxaa/SEGGER_RTT.c.o
 .bss.m_timer_data
                0x200035f4       0x20 _build/nrf52832_xxaa/ble_conn_params.c.o
 .bss.m_conn_params_instances
                0x20003614       0x14 _build/nrf52832_xxaa/ble_conn_params.c.o
 .bss.m_conn_params_config
                0x20003628       0x1c _build/nrf52832_xxaa/ble_conn_params.c.o
 .bss.m_preferred_conn_params
                0x20003644        0x8 _build/nrf52832_xxaa/ble_conn_params.c.o
 .bss.m_bcs     0x2000364c       0x78 _build/nrf52832_xxaa/ble_conn_state.c.o
 .bss.m_module_initialized
                0x200036c4        0x1 _build/nrf52832_xxaa/gatt_cache_manager.c.o
 *fill*         0x200036c5        0x3 
 .bss.m_db_update_in_progress_mutex
                0x200036c8        0x4 _build/nrf52832_xxaa/gatt_cache_manager.c.o
 .bss.m_flag_local_db_update_pending
                0x200036cc        0x1 _build/nrf52832_xxaa/gatt_cache_manager.c.o
 .bss.m_flag_local_db_apply_pending
                0x200036cd        0x1 _build/nrf52832_xxaa/gatt_cache_manager.c.o
 .bss.m_flag_service_changed_pending
                0x200036ce        0x1 _build/nrf52832_xxaa/gatt_cache_manager.c.o
 .bss.m_flag_service_changed_sent
                0x200036cf        0x1 _build/nrf52832_xxaa/gatt_cache_manager.c.o
 .bss.m_flag_car_update_pending
                0x200036d0        0x1 _build/nrf52832_xxaa/gatt_cache_manager.c.o
 .bss.m_flag_car_handle_queried
                0x200036d1        0x1 _build/nrf52832_xxaa/gatt_cache_manager.c.o
 .bss.m_flag_car_value_queried
                0x200036d2        0x1 _build/nrf52832_xxaa/gatt_cache_manager.c.o
 .bss.m_module_initialized
                0x200036d3        0x1 _build/nrf52832_xxaa/gatts_cache_manager.c.o
 .bss.m_current_sc_store_peer_id
                0x200036d4        0x2 _build/nrf52832_xxaa/gatts_cache_manager.c.o
 .bss.start_handle.10607
                0x200036d6        0x2 _build/nrf52832_xxaa/gatts_cache_manager.c.o
 .bss.m_connections
                0x200036d8       0xc8 _build/nrf52832_xxaa/id_manager.c.o
 .bss.m_module_initialized
                0x200037a0        0x1 _build/nrf52832_xxaa/peer_data_storage.c.o
 .bss.m_peer_delete_deferred
                0x200037a1        0x1 _build/nrf52832_xxaa/peer_data_storage.c.o
 *fill*         0x200037a2        0x2 
 .bss.m_fds_ftok
                0x200037a4        0x8 _build/nrf52832_xxaa/peer_data_storage.c.o
 .bss.m_module_initialized
                0x200037ac        0x1 _build/nrf52832_xxaa/peer_database.c.o
 *fill*         0x200037ad        0x3 
 .bss.m_write_buffer
                0x200037b0       0x10 _build/nrf52832_xxaa/peer_database.c.o
 .bss.m_write_buffer_records
                0x200037c0       0x30 _build/nrf52832_xxaa/peer_database.c.o
 .bss.m_pending_store
                0x200037f0        0x1 _build/nrf52832_xxaa/peer_database.c.o
 *fill*         0x200037f1        0x3 
 .bss.buffer_memory.10663
                0x200037f4      0x140 _build/nrf52832_xxaa/peer_database.c.o
 .bss.mutex_memory.10664
                0x20003934        0x4 _build/nrf52832_xxaa/peer_database.c.o
 .bss.m_pi      0x20003938       0x40 _build/nrf52832_xxaa/peer_id.c.o
 .bss.m_module_initialized
                0x20003978        0x1 _build/nrf52832_xxaa/peer_manager.c.o
 .bss.m_peer_rank_initialized
                0x20003979        0x1 _build/nrf52832_xxaa/peer_manager.c.o
 .bss.m_deleting_all
                0x2000397a        0x1 _build/nrf52832_xxaa/peer_manager.c.o
 *fill*         0x2000397b        0x1 
 .bss.m_peer_rank_token
                0x2000397c        0x4 _build/nrf52832_xxaa/peer_manager.c.o
 .bss.m_current_highest_peer_rank
                0x20003980        0x4 _build/nrf52832_xxaa/peer_manager.c.o
 .bss.m_highest_ranked_peer
                0x20003984        0x2 _build/nrf52832_xxaa/peer_manager.c.o
 *fill*         0x20003986        0x2 
 .bss.m_evt_handlers
                0x20003988        0xc _build/nrf52832_xxaa/peer_manager.c.o
 .bss.m_n_registrants
                0x20003994        0x1 _build/nrf52832_xxaa/peer_manager.c.o
 *fill*         0x20003995        0x3 
 .bss.rank_queue_wr.10900
                0x20003998        0x4 _build/nrf52832_xxaa/peer_manager_handler.c.o
 .bss.flash_cleaning.10897
                0x2000399c        0x1 _build/nrf52832_xxaa/peer_manager_handler.c.o
 .bss.flash_write_after_gc.10898
                0x2000399d        0x1 _build/nrf52832_xxaa/peer_manager_handler.c.o
 .bss.m_module_initialized
                0x2000399e        0x1 _build/nrf52832_xxaa/security_dispatcher.c.o
 *fill*         0x2000399f        0x1 
 .bss.m_peer_pk
                0x200039a0       0x40 _build/nrf52832_xxaa/security_dispatcher.c.o
 .bss.m_module_initialized
                0x200039e0        0x1 _build/nrf52832_xxaa/security_manager.c.o
 *fill*         0x200039e1        0x3 
 .bss.m_sec_params
                0x200039e4        0x5 _build/nrf52832_xxaa/security_manager.c.o
 *fill*         0x200039e9        0x3 
 .bss.mp_sec_params
                0x200039ec        0x4 _build/nrf52832_xxaa/security_manager.c.o
 .bss.m_sec_params_set
                0x200039f0        0x1 _build/nrf52832_xxaa/security_manager.c.o
 *fill*         0x200039f1        0x3 
 .bss.m_p_public_key
                0x200039f4        0x4 _build/nrf52832_xxaa/security_manager.c.o
 .bss.m_nrf_sdh_enabled
                0x200039f8        0x1 _build/nrf52832_xxaa/nrf_sdh.c.o
 .bss.m_nrf_sdh_suspended
                0x200039f9        0x1 _build/nrf52832_xxaa/nrf_sdh.c.o
 .bss.m_nrf_sdh_continue
                0x200039fa        0x1 _build/nrf52832_xxaa/nrf_sdh.c.o
 .bss.m_stack_is_enabled
                0x200039fb        0x1 _build/nrf52832_xxaa/nrf_sdh_ble.c.o
 *(COMMON)
 COMMON         0x200039fc        0xc _build/nrf52832_xxaa/app_util_platform.c.o
                0x200039fc                nrf_nvic_state
 COMMON         0x20003a08        0x1 _build/nrf52832_xxaa/nrf_drv_uart.c.o
                0x20003a08                nrf_drv_uart_use_easy_dma
 *fill*         0x20003a09        0x3 
 COMMON         0x20003a0c       0x26 _build/nrf52832_xxaa/main.c.o
                0x20003a0c                ad5933_bloc_w
                0x20003a18                bat_stat_reg_addr
                0x20003a1c                ad5933_reg
                0x20003a28                ad5933_command
                0x20003a2c                osc_ext_reg
                0x20003a30                ad5933_byte_w
 *fill*         0x20003a32        0x2 
 COMMON         0x20003a34       0x78 _build/nrf52832_xxaa/SEGGER_RTT.c.o
                0x20003a34                _SEGGER_RTT
                0x20003aac                . = ALIGN (0x4)
                0x20003aac                __bss_end__ = .

.heap           0x20003ab0     0x2000
                0x20003ab0                __HeapBase = .
                0x20003ab0                __end__ = .
                [!provide]                PROVIDE (end = .)
 *(.heap*)
 .heap          0x20003ab0     0x2000 _build/nrf52832_xxaa/gcc_startup_nrf52.S.o
                0x20005ab0                __HeapLimit = .

.stack_dummy    0x20003ab0     0x2000
 *(.stack*)
 .stack         0x20003ab0     0x2000 _build/nrf52832_xxaa/gcc_startup_nrf52.S.o
                0x20010000                __StackTop = (ORIGIN (RAM) + LENGTH (RAM))
                0x2000e000                __StackLimit = (__StackTop - SIZEOF (.stack_dummy))
                0x20010000                PROVIDE (__stack = __StackTop)
                0x00000001                ASSERT ((__StackLimit >= __HeapLimit), region RAM overflowed with stack)
                0x000002e8                DataInitFlashUsed = (__bss_start__ - __data_start__)
                0x000192b0                CodeFlashUsed = (__etext - ORIGIN (FLASH))
                0x00019598                TotalFlashUsed = (CodeFlashUsed + DataInitFlashUsed)
                0x00000001                ASSERT ((TotalFlashUsed <= LENGTH (FLASH)), region FLASH overflowed with .data and user data)
OUTPUT(_build/nrf52832_xxaa.out elf32-littlearm)

.ARM.attributes
                0x00000000       0x30
 .ARM.attributes
                0x00000000       0x22 c:/program files (x86)/gnu tools arm embedded/7 2018-q2-update/bin/../lib/gcc/arm-none-eabi/7.3.1/thumb/v7e-m/fpv4-sp/hard/crti.o
 .ARM.attributes
                0x00000022       0x34 c:/program files (x86)/gnu tools arm embedded/7 2018-q2-update/bin/../lib/gcc/arm-none-eabi/7.3.1/thumb/v7e-m/fpv4-sp/hard/crtbegin.o
 .ARM.attributes
                0x00000056       0x20 c:/program files (x86)/gnu tools arm embedded/7 2018-q2-update/bin/../lib/gcc/arm-none-eabi/7.3.1/../../../../arm-none-eabi/lib/thumb/v7e-m/fpv4-sp/hard/crt0.o
 .ARM.attributes
                0x00000076       0x20 _build/nrf52832_xxaa/gcc_startup_nrf52.S.o
 .ARM.attributes
                0x00000096       0x39 _build/nrf52832_xxaa/nrf_log_backend_rtt.c.o
 .ARM.attributes
                0x000000cf       0x39 _build/nrf52832_xxaa/nrf_log_backend_serial.c.o
 .ARM.attributes
                0x00000108       0x39 _build/nrf52832_xxaa/nrf_log_default_backends.c.o
 .ARM.attributes
                0x00000141       0x39 _build/nrf52832_xxaa/nrf_log_frontend.c.o
 .ARM.attributes
                0x0000017a       0x39 _build/nrf52832_xxaa/nrf_log_str_formatter.c.o
 .ARM.attributes
                0x000001b3       0x39 _build/nrf52832_xxaa/app_button.c.o
 .ARM.attributes
                0x000001ec       0x39 _build/nrf52832_xxaa/app_error.c.o
 .ARM.attributes
                0x00000225       0x39 _build/nrf52832_xxaa/app_error_weak.c.o
 .ARM.attributes
                0x0000025e       0x39 _build/nrf52832_xxaa/app_timer.c.o
 .ARM.attributes
                0x00000297       0x39 _build/nrf52832_xxaa/app_util_platform.c.o
 .ARM.attributes
                0x000002d0       0x39 _build/nrf52832_xxaa/fds.c.o
 .ARM.attributes
                0x00000309       0x39 _build/nrf52832_xxaa/nrf_atfifo.c.o
 .ARM.attributes
                0x00000342       0x39 _build/nrf52832_xxaa/nrf_atflags.c.o
 .ARM.attributes
                0x0000037b       0x39 _build/nrf52832_xxaa/nrf_atomic.c.o
 .ARM.attributes
                0x000003b4       0x39 _build/nrf52832_xxaa/nrf_balloc.c.o
 .ARM.attributes
                0x000003ed       0x39 _build/nrf52832_xxaa/nrf_fprintf.c.o
 .ARM.attributes
                0x00000426       0x39 _build/nrf52832_xxaa/nrf_fprintf_format.c.o
 .ARM.attributes
                0x0000045f       0x39 _build/nrf52832_xxaa/nrf_fstorage.c.o
 .ARM.attributes
                0x00000498       0x39 _build/nrf52832_xxaa/nrf_fstorage_sd.c.o
 .ARM.attributes
                0x000004d1       0x39 _build/nrf52832_xxaa/nrf_memobj.c.o
 .ARM.attributes
                0x0000050a       0x39 _build/nrf52832_xxaa/nrf_pwr_mgmt.c.o
 .ARM.attributes
                0x00000543       0x39 _build/nrf52832_xxaa/nrf_ringbuf.c.o
 .ARM.attributes
                0x0000057c       0x39 _build/nrf52832_xxaa/nrf_section_iter.c.o
 .ARM.attributes
                0x000005b5       0x39 _build/nrf52832_xxaa/nrf_queue.c.o
 .ARM.attributes
                0x000005ee       0x39 _build/nrf52832_xxaa/nrf_strerror.c.o
 .ARM.attributes
                0x00000627       0x39 _build/nrf52832_xxaa/nrf_serial.c.o
 .ARM.attributes
                0x00000660       0x39 _build/nrf52832_xxaa/nrf_twi_mngr.c.o
 .ARM.attributes
                0x00000699       0x39 _build/nrf52832_xxaa/system_nrf52.c.o
 .ARM.attributes
                0x000006d2       0x39 _build/nrf52832_xxaa/boards.c.o
 .ARM.attributes
                0x0000070b       0x39 _build/nrf52832_xxaa/nrf_drv_clock.c.o
 .ARM.attributes
                0x00000744       0x39 _build/nrf52832_xxaa/nrf_drv_uart.c.o
 .ARM.attributes
                0x0000077d       0x39 _build/nrf52832_xxaa/nrf_drv_twi.c.o
 .ARM.attributes
                0x000007b6       0x39 _build/nrf52832_xxaa/nrfx_clock.c.o
 .ARM.attributes
                0x000007ef       0x39 _build/nrf52832_xxaa/nrfx_gpiote.c.o
 .ARM.attributes
                0x00000828       0x39 _build/nrf52832_xxaa/nrfx_prs.c.o
 .ARM.attributes
                0x00000861       0x39 _build/nrf52832_xxaa/nrfx_uart.c.o
 .ARM.attributes
                0x0000089a       0x39 _build/nrf52832_xxaa/nrfx_uarte.c.o
 .ARM.attributes
                0x000008d3       0x39 _build/nrf52832_xxaa/nrfx_twi.c.o
 .ARM.attributes
                0x0000090c       0x39 _build/nrf52832_xxaa/bsp.c.o
 .ARM.attributes
                0x00000945       0x39 _build/nrf52832_xxaa/bsp_btn_ble.c.o
 .ARM.attributes
                0x0000097e       0x39 _build/nrf52832_xxaa/main.c.o
 .ARM.attributes
                0x000009b7       0x39 _build/nrf52832_xxaa/SEGGER_RTT.c.o
 .ARM.attributes
                0x000009f0       0x39 _build/nrf52832_xxaa/ble_advdata.c.o
 .ARM.attributes
                0x00000a29       0x39 _build/nrf52832_xxaa/ble_advertising.c.o
 .ARM.attributes
                0x00000a62       0x39 _build/nrf52832_xxaa/ble_conn_params.c.o
 .ARM.attributes
                0x00000a9b       0x39 _build/nrf52832_xxaa/ble_conn_state.c.o
 .ARM.attributes
                0x00000ad4       0x39 _build/nrf52832_xxaa/ble_srv_common.c.o
 .ARM.attributes
                0x00000b0d       0x39 _build/nrf52832_xxaa/gatt_cache_manager.c.o
 .ARM.attributes
                0x00000b46       0x39 _build/nrf52832_xxaa/gatts_cache_manager.c.o
 .ARM.attributes
                0x00000b7f       0x39 _build/nrf52832_xxaa/id_manager.c.o
 .ARM.attributes
                0x00000bb8       0x39 _build/nrf52832_xxaa/nrf_ble_gatt.c.o
 .ARM.attributes
                0x00000bf1       0x39 _build/nrf52832_xxaa/nrf_ble_qwr.c.o
 .ARM.attributes
                0x00000c2a       0x39 _build/nrf52832_xxaa/peer_data_storage.c.o
 .ARM.attributes
                0x00000c63       0x39 _build/nrf52832_xxaa/peer_database.c.o
 .ARM.attributes
                0x00000c9c       0x39 _build/nrf52832_xxaa/peer_id.c.o
 .ARM.attributes
                0x00000cd5       0x39 _build/nrf52832_xxaa/peer_manager.c.o
 .ARM.attributes
                0x00000d0e       0x39 _build/nrf52832_xxaa/peer_manager_handler.c.o
 .ARM.attributes
                0x00000d47       0x39 _build/nrf52832_xxaa/pm_buffer.c.o
 .ARM.attributes
                0x00000d80       0x39 _build/nrf52832_xxaa/security_dispatcher.c.o
 .ARM.attributes
                0x00000db9       0x39 _build/nrf52832_xxaa/security_manager.c.o
 .ARM.attributes
                0x00000df2       0x39 _build/nrf52832_xxaa/nrf_sdh.c.o
 .ARM.attributes
                0x00000e2b       0x39 _build/nrf52832_xxaa/nrf_sdh_ble.c.o
 .ARM.attributes
                0x00000e64       0x39 _build/nrf52832_xxaa/nrf_sdh_soc.c.o
 .ARM.attributes
                0x00000e9d       0x34 c:/program files (x86)/gnu tools arm embedded/7 2018-q2-update/bin/../lib/gcc/arm-none-eabi/7.3.1/../../../../arm-none-eabi/lib/thumb/v7e-m/fpv4-sp/hard\libc_nano.a(lib_a-exit.o)
 .ARM.attributes
                0x00000ed1       0x34 c:/program files (x86)/gnu tools arm embedded/7 2018-q2-update/bin/../lib/gcc/arm-none-eabi/7.3.1/../../../../arm-none-eabi/lib/thumb/v7e-m/fpv4-sp/hard\libc_nano.a(lib_a-impure.o)
 .ARM.attributes
                0x00000f05       0x34 c:/program files (x86)/gnu tools arm embedded/7 2018-q2-update/bin/../lib/gcc/arm-none-eabi/7.3.1/../../../../arm-none-eabi/lib/thumb/v7e-m/fpv4-sp/hard\libc_nano.a(lib_a-init.o)
 .ARM.attributes
                0x00000f39       0x34 c:/program files (x86)/gnu tools arm embedded/7 2018-q2-update/bin/../lib/gcc/arm-none-eabi/7.3.1/../../../../arm-none-eabi/lib/thumb/v7e-m/fpv4-sp/hard\libc_nano.a(lib_a-locale.o)
 .ARM.attributes
                0x00000f6d       0x34 c:/program files (x86)/gnu tools arm embedded/7 2018-q2-update/bin/../lib/gcc/arm-none-eabi/7.3.1/../../../../arm-none-eabi/lib/thumb/v7e-m/fpv4-sp/hard\libc_nano.a(lib_a-mbtowc_r.o)
 .ARM.attributes
                0x00000fa1       0x34 c:/program files (x86)/gnu tools arm embedded/7 2018-q2-update/bin/../lib/gcc/arm-none-eabi/7.3.1/../../../../arm-none-eabi/lib/thumb/v7e-m/fpv4-sp/hard\libc_nano.a(lib_a-memcmp.o)
 .ARM.attributes
                0x00000fd5       0x34 c:/program files (x86)/gnu tools arm embedded/7 2018-q2-update/bin/../lib/gcc/arm-none-eabi/7.3.1/../../../../arm-none-eabi/lib/thumb/v7e-m/fpv4-sp/hard\libc_nano.a(lib_a-memcpy-stub.o)
 .ARM.attributes
                0x00001009       0x34 c:/program files (x86)/gnu tools arm embedded/7 2018-q2-update/bin/../lib/gcc/arm-none-eabi/7.3.1/../../../../arm-none-eabi/lib/thumb/v7e-m/fpv4-sp/hard\libc_nano.a(lib_a-memset.o)
 .ARM.attributes
                0x0000103d       0x34 c:/program files (x86)/gnu tools arm embedded/7 2018-q2-update/bin/../lib/gcc/arm-none-eabi/7.3.1/../../../../arm-none-eabi/lib/thumb/v7e-m/fpv4-sp/hard\libc_nano.a(lib_a-strcpy.o)
 .ARM.attributes
                0x00001071       0x1b c:/program files (x86)/gnu tools arm embedded/7 2018-q2-update/bin/../lib/gcc/arm-none-eabi/7.3.1/../../../../arm-none-eabi/lib/thumb/v7e-m/fpv4-sp/hard\libc_nano.a(lib_a-strlen.o)
 .ARM.attributes
                0x0000108c       0x34 c:/program files (x86)/gnu tools arm embedded/7 2018-q2-update/bin/../lib/gcc/arm-none-eabi/7.3.1/../../../../arm-none-eabi/lib/thumb/v7e-m/fpv4-sp/hard\libc_nano.a(lib_a-wctomb_r.o)
 .ARM.attributes
                0x000010c0       0x34 c:/program files (x86)/gnu tools arm embedded/7 2018-q2-update/bin/../lib/gcc/arm-none-eabi/7.3.1/../../../../arm-none-eabi/lib/thumb/v7e-m/fpv4-sp/hard\libc_nano.a(lib_a-ctype_.o)
 .ARM.attributes
                0x000010f4       0x34 c:/program files (x86)/gnu tools arm embedded/7 2018-q2-update/bin/../lib/gcc/arm-none-eabi/7.3.1/../../../../arm-none-eabi/lib/thumb/v7e-m/fpv4-sp/hard\libnosys.a(_exit.o)
 .ARM.attributes
                0x00001128       0x22 c:/program files (x86)/gnu tools arm embedded/7 2018-q2-update/bin/../lib/gcc/arm-none-eabi/7.3.1/thumb/v7e-m/fpv4-sp/hard\libgcc.a(_aeabi_uldivmod.o)
 .ARM.attributes
                0x0000114a       0x34 c:/program files (x86)/gnu tools arm embedded/7 2018-q2-update/bin/../lib/gcc/arm-none-eabi/7.3.1/thumb/v7e-m/fpv4-sp/hard\libgcc.a(_udivmoddi4.o)
 .ARM.attributes
                0x0000117e       0x22 c:/program files (x86)/gnu tools arm embedded/7 2018-q2-update/bin/../lib/gcc/arm-none-eabi/7.3.1/thumb/v7e-m/fpv4-sp/hard\libgcc.a(_dvmd_tls.o)
 .ARM.attributes
                0x000011a0       0x34 c:/program files (x86)/gnu tools arm embedded/7 2018-q2-update/bin/../lib/gcc/arm-none-eabi/7.3.1/thumb/v7e-m/fpv4-sp/hard/crtend.o
 .ARM.attributes
                0x000011d4       0x22 c:/program files (x86)/gnu tools arm embedded/7 2018-q2-update/bin/../lib/gcc/arm-none-eabi/7.3.1/thumb/v7e-m/fpv4-sp/hard/crtn.o

.comment        0x00000000       0x7f
 .comment       0x00000000       0x7f _build/nrf52832_xxaa/nrf_log_backend_rtt.c.o
                                 0x80 (size before relaxing)
 .comment       0x0000007f       0x80 _build/nrf52832_xxaa/nrf_log_backend_serial.c.o
 .comment       0x0000007f       0x80 _build/nrf52832_xxaa/nrf_log_default_backends.c.o
 .comment       0x0000007f       0x80 _build/nrf52832_xxaa/nrf_log_frontend.c.o
 .comment       0x0000007f       0x80 _build/nrf52832_xxaa/nrf_log_str_formatter.c.o
 .comment       0x0000007f       0x80 _build/nrf52832_xxaa/app_button.c.o
 .comment       0x0000007f       0x80 _build/nrf52832_xxaa/app_error.c.o
 .comment       0x0000007f       0x80 _build/nrf52832_xxaa/app_error_weak.c.o
 .comment       0x0000007f       0x80 _build/nrf52832_xxaa/app_timer.c.o
 .comment       0x0000007f       0x80 _build/nrf52832_xxaa/app_util_platform.c.o
 .comment       0x0000007f       0x80 _build/nrf52832_xxaa/fds.c.o
 .comment       0x0000007f       0x80 _build/nrf52832_xxaa/nrf_atfifo.c.o
 .comment       0x0000007f       0x80 _build/nrf52832_xxaa/nrf_atflags.c.o
 .comment       0x0000007f       0x80 _build/nrf52832_xxaa/nrf_atomic.c.o
 .comment       0x0000007f       0x80 _build/nrf52832_xxaa/nrf_balloc.c.o
 .comment       0x0000007f       0x80 _build/nrf52832_xxaa/nrf_fprintf.c.o
 .comment       0x0000007f       0x80 _build/nrf52832_xxaa/nrf_fprintf_format.c.o
 .comment       0x0000007f       0x80 _build/nrf52832_xxaa/nrf_fstorage.c.o
 .comment       0x0000007f       0x80 _build/nrf52832_xxaa/nrf_fstorage_sd.c.o
 .comment       0x0000007f       0x80 _build/nrf52832_xxaa/nrf_memobj.c.o
 .comment       0x0000007f       0x80 _build/nrf52832_xxaa/nrf_pwr_mgmt.c.o
 .comment       0x0000007f       0x80 _build/nrf52832_xxaa/nrf_ringbuf.c.o
 .comment       0x0000007f       0x80 _build/nrf52832_xxaa/nrf_section_iter.c.o
 .comment       0x0000007f       0x80 _build/nrf52832_xxaa/nrf_queue.c.o
 .comment       0x0000007f       0x80 _build/nrf52832_xxaa/nrf_strerror.c.o
 .comment       0x0000007f       0x80 _build/nrf52832_xxaa/nrf_serial.c.o
 .comment       0x0000007f       0x80 _build/nrf52832_xxaa/nrf_twi_mngr.c.o
 .comment       0x0000007f       0x80 _build/nrf52832_xxaa/system_nrf52.c.o
 .comment       0x0000007f       0x80 _build/nrf52832_xxaa/boards.c.o
 .comment       0x0000007f       0x80 _build/nrf52832_xxaa/nrf_drv_clock.c.o
 .comment       0x0000007f       0x80 _build/nrf52832_xxaa/nrf_drv_uart.c.o
 .comment       0x0000007f       0x80 _build/nrf52832_xxaa/nrf_drv_twi.c.o
 .comment       0x0000007f       0x80 _build/nrf52832_xxaa/nrfx_clock.c.o
 .comment       0x0000007f       0x80 _build/nrf52832_xxaa/nrfx_gpiote.c.o
 .comment       0x0000007f       0x80 _build/nrf52832_xxaa/nrfx_prs.c.o
 .comment       0x0000007f       0x80 _build/nrf52832_xxaa/nrfx_uart.c.o
 .comment       0x0000007f       0x80 _build/nrf52832_xxaa/nrfx_uarte.c.o
 .comment       0x0000007f       0x80 _build/nrf52832_xxaa/nrfx_twi.c.o
 .comment       0x0000007f       0x80 _build/nrf52832_xxaa/bsp.c.o
 .comment       0x0000007f       0x80 _build/nrf52832_xxaa/bsp_btn_ble.c.o
 .comment       0x0000007f       0x80 _build/nrf52832_xxaa/main.c.o
 .comment       0x0000007f       0x80 _build/nrf52832_xxaa/SEGGER_RTT.c.o
 .comment       0x0000007f       0x80 _build/nrf52832_xxaa/ble_advdata.c.o
 .comment       0x0000007f       0x80 _build/nrf52832_xxaa/ble_advertising.c.o
 .comment       0x0000007f       0x80 _build/nrf52832_xxaa/ble_conn_params.c.o
 .comment       0x0000007f       0x80 _build/nrf52832_xxaa/ble_conn_state.c.o
 .comment       0x0000007f       0x80 _build/nrf52832_xxaa/ble_srv_common.c.o
 .comment       0x0000007f       0x80 _build/nrf52832_xxaa/gatt_cache_manager.c.o
 .comment       0x0000007f       0x80 _build/nrf52832_xxaa/gatts_cache_manager.c.o
 .comment       0x0000007f       0x80 _build/nrf52832_xxaa/id_manager.c.o
 .comment       0x0000007f       0x80 _build/nrf52832_xxaa/nrf_ble_gatt.c.o
 .comment       0x0000007f       0x80 _build/nrf52832_xxaa/nrf_ble_qwr.c.o
 .comment       0x0000007f       0x80 _build/nrf52832_xxaa/peer_data_storage.c.o
 .comment       0x0000007f       0x80 _build/nrf52832_xxaa/peer_database.c.o
 .comment       0x0000007f       0x80 _build/nrf52832_xxaa/peer_id.c.o
 .comment       0x0000007f       0x80 _build/nrf52832_xxaa/peer_manager.c.o
 .comment       0x0000007f       0x80 _build/nrf52832_xxaa/peer_manager_handler.c.o
 .comment       0x0000007f       0x80 _build/nrf52832_xxaa/pm_buffer.c.o
 .comment       0x0000007f       0x80 _build/nrf52832_xxaa/security_dispatcher.c.o
 .comment       0x0000007f       0x80 _build/nrf52832_xxaa/security_manager.c.o
 .comment       0x0000007f       0x80 _build/nrf52832_xxaa/nrf_sdh.c.o
 .comment       0x0000007f       0x80 _build/nrf52832_xxaa/nrf_sdh_ble.c.o
 .comment       0x0000007f       0x80 _build/nrf52832_xxaa/nrf_sdh_soc.c.o

.debug_line     0x00000000    0x3a14f
 .debug_line    0x00000000       0x86 _build/nrf52832_xxaa/gcc_startup_nrf52.S.o
 .debug_line    0x00000086      0xe4d _build/nrf52832_xxaa/nrf_log_backend_rtt.c.o
 .debug_line    0x00000ed3      0xb8e _build/nrf52832_xxaa/nrf_log_backend_serial.c.o
 .debug_line    0x00001a61      0xb42 _build/nrf52832_xxaa/nrf_log_default_backends.c.o
 .debug_line    0x000025a3     0x10f5 _build/nrf52832_xxaa/nrf_log_frontend.c.o
 .debug_line    0x00003698      0xc27 _build/nrf52832_xxaa/nrf_log_str_formatter.c.o
